{
  "_format": "hh-sol-artifact-1",
  "contractName": "HiBeatsInteractionManager",
  "sourceName": "contracts/HiBeatsInteractionManager.sol",
  "abi": [
    {
      "inputs": [
        {
          "internalType": "address",
          "name": "initialOwner",
          "type": "address"
        }
      ],
      "stateMutability": "nonpayable",
      "type": "constructor"
    },
    {
      "inputs": [],
      "name": "EnforcedPause",
      "type": "error"
    },
    {
      "inputs": [],
      "name": "ExpectedPause",
      "type": "error"
    },
    {
      "inputs": [
        {
          "internalType": "address",
          "name": "owner",
          "type": "address"
        }
      ],
      "name": "OwnableInvalidOwner",
      "type": "error"
    },
    {
      "inputs": [
        {
          "internalType": "address",
          "name": "account",
          "type": "address"
        }
      ],
      "name": "OwnableUnauthorizedAccount",
      "type": "error"
    },
    {
      "inputs": [],
      "name": "ReentrancyGuardReentrantCall",
      "type": "error"
    },
    {
      "anonymous": false,
      "inputs": [
        {
          "indexed": true,
          "internalType": "address",
          "name": "user",
          "type": "address"
        },
        {
          "indexed": true,
          "internalType": "address",
          "name": "sourceContract",
          "type": "address"
        },
        {
          "indexed": true,
          "internalType": "address",
          "name": "targetContract",
          "type": "address"
        },
        {
          "indexed": false,
          "internalType": "string",
          "name": "action",
          "type": "string"
        },
        {
          "indexed": false,
          "internalType": "uint256",
          "name": "timestamp",
          "type": "uint256"
        }
      ],
      "name": "ContractInteraction",
      "type": "event"
    },
    {
      "anonymous": false,
      "inputs": [
        {
          "indexed": true,
          "internalType": "address",
          "name": "previousOwner",
          "type": "address"
        },
        {
          "indexed": true,
          "internalType": "address",
          "name": "newOwner",
          "type": "address"
        }
      ],
      "name": "OwnershipTransferred",
      "type": "event"
    },
    {
      "anonymous": false,
      "inputs": [
        {
          "indexed": false,
          "internalType": "address",
          "name": "account",
          "type": "address"
        }
      ],
      "name": "Paused",
      "type": "event"
    },
    {
      "anonymous": false,
      "inputs": [
        {
          "indexed": true,
          "internalType": "address",
          "name": "user",
          "type": "address"
        },
        {
          "indexed": false,
          "internalType": "uint256",
          "name": "amount",
          "type": "uint256"
        },
        {
          "indexed": false,
          "internalType": "string",
          "name": "reason",
          "type": "string"
        },
        {
          "indexed": false,
          "internalType": "uint256",
          "name": "timestamp",
          "type": "uint256"
        }
      ],
      "name": "SystemReward",
      "type": "event"
    },
    {
      "anonymous": false,
      "inputs": [
        {
          "indexed": false,
          "internalType": "address",
          "name": "account",
          "type": "address"
        }
      ],
      "name": "Unpaused",
      "type": "event"
    },
    {
      "inputs": [
        {
          "internalType": "address",
          "name": "user",
          "type": "address"
        }
      ],
      "name": "getUserCrossStats",
      "outputs": [
        {
          "internalType": "uint256",
          "name": "totalTracks",
          "type": "uint256"
        },
        {
          "internalType": "uint256",
          "name": "totalSales",
          "type": "uint256"
        },
        {
          "internalType": "uint256",
          "name": "totalPurchases",
          "type": "uint256"
        },
        {
          "internalType": "uint256",
          "name": "totalPlaylists",
          "type": "uint256"
        },
        {
          "internalType": "uint256",
          "name": "totalStaked",
          "type": "uint256"
        },
        {
          "internalType": "uint256",
          "name": "socialScore",
          "type": "uint256"
        },
        {
          "internalType": "uint256",
          "name": "lastActivity",
          "type": "uint256"
        }
      ],
      "stateMutability": "view",
      "type": "function"
    },
    {
      "inputs": [],
      "name": "hiBeatsAnalytics",
      "outputs": [
        {
          "internalType": "address",
          "name": "",
          "type": "address"
        }
      ],
      "stateMutability": "view",
      "type": "function"
    },
    {
      "inputs": [],
      "name": "hiBeatsDiscovery",
      "outputs": [
        {
          "internalType": "address",
          "name": "",
          "type": "address"
        }
      ],
      "stateMutability": "view",
      "type": "function"
    },
    {
      "inputs": [],
      "name": "hiBeatsFactory",
      "outputs": [
        {
          "internalType": "address",
          "name": "",
          "type": "address"
        }
      ],
      "stateMutability": "view",
      "type": "function"
    },
    {
      "inputs": [],
      "name": "hiBeatsMarketplace",
      "outputs": [
        {
          "internalType": "address",
          "name": "",
          "type": "address"
        }
      ],
      "stateMutability": "view",
      "type": "function"
    },
    {
      "inputs": [],
      "name": "hiBeatsNFT",
      "outputs": [
        {
          "internalType": "address",
          "name": "",
          "type": "address"
        }
      ],
      "stateMutability": "view",
      "type": "function"
    },
    {
      "inputs": [],
      "name": "hiBeatsPlaylist",
      "outputs": [
        {
          "internalType": "address",
          "name": "",
          "type": "address"
        }
      ],
      "stateMutability": "view",
      "type": "function"
    },
    {
      "inputs": [],
      "name": "hiBeatsProfile",
      "outputs": [
        {
          "internalType": "address",
          "name": "",
          "type": "address"
        }
      ],
      "stateMutability": "view",
      "type": "function"
    },
    {
      "inputs": [],
      "name": "hiBeatsRoyalties",
      "outputs": [
        {
          "internalType": "address",
          "name": "",
          "type": "address"
        }
      ],
      "stateMutability": "view",
      "type": "function"
    },
    {
      "inputs": [],
      "name": "hiBeatsStaking",
      "outputs": [
        {
          "internalType": "address",
          "name": "",
          "type": "address"
        }
      ],
      "stateMutability": "view",
      "type": "function"
    },
    {
      "inputs": [],
      "name": "hiBeatsToken",
      "outputs": [
        {
          "internalType": "address",
          "name": "",
          "type": "address"
        }
      ],
      "stateMutability": "view",
      "type": "function"
    },
    {
      "inputs": [
        {
          "internalType": "string",
          "name": "",
          "type": "string"
        }
      ],
      "name": "interactionRewards",
      "outputs": [
        {
          "internalType": "uint256",
          "name": "baseReward",
          "type": "uint256"
        },
        {
          "internalType": "uint256",
          "name": "multiplier",
          "type": "uint256"
        },
        {
          "internalType": "bool",
          "name": "isActive",
          "type": "bool"
        }
      ],
      "stateMutability": "view",
      "type": "function"
    },
    {
      "inputs": [
        {
          "internalType": "address",
          "name": "",
          "type": "address"
        }
      ],
      "name": "lastInteractionTime",
      "outputs": [
        {
          "internalType": "uint256",
          "name": "",
          "type": "uint256"
        }
      ],
      "stateMutability": "view",
      "type": "function"
    },
    {
      "inputs": [
        {
          "internalType": "address",
          "name": "to",
          "type": "address"
        },
        {
          "internalType": "string",
          "name": "sunoId",
          "type": "string"
        },
        {
          "internalType": "string",
          "name": "metadataURI",
          "type": "string"
        },
        {
          "internalType": "uint256",
          "name": "royaltyPercentage",
          "type": "uint256"
        },
        {
          "internalType": "string",
          "name": "genre",
          "type": "string"
        },
        {
          "internalType": "string[]",
          "name": "tags",
          "type": "string[]"
        }
      ],
      "name": "mintWithIntegration",
      "outputs": [
        {
          "internalType": "uint256",
          "name": "",
          "type": "uint256"
        }
      ],
      "stateMutability": "nonpayable",
      "type": "function"
    },
    {
      "inputs": [],
      "name": "owner",
      "outputs": [
        {
          "internalType": "address",
          "name": "",
          "type": "address"
        }
      ],
      "stateMutability": "view",
      "type": "function"
    },
    {
      "inputs": [],
      "name": "pause",
      "outputs": [],
      "stateMutability": "nonpayable",
      "type": "function"
    },
    {
      "inputs": [],
      "name": "paused",
      "outputs": [
        {
          "internalType": "bool",
          "name": "",
          "type": "bool"
        }
      ],
      "stateMutability": "view",
      "type": "function"
    },
    {
      "inputs": [
        {
          "internalType": "address",
          "name": "user",
          "type": "address"
        },
        {
          "internalType": "uint256",
          "name": "playlistId",
          "type": "uint256"
        },
        {
          "internalType": "uint256",
          "name": "tokenId",
          "type": "uint256"
        },
        {
          "internalType": "string",
          "name": "action",
          "type": "string"
        }
      ],
      "name": "processPlaylistInteraction",
      "outputs": [],
      "stateMutability": "nonpayable",
      "type": "function"
    },
    {
      "inputs": [
        {
          "internalType": "uint256",
          "name": "tokenId",
          "type": "uint256"
        },
        {
          "internalType": "address",
          "name": "buyer",
          "type": "address"
        },
        {
          "internalType": "address",
          "name": "seller",
          "type": "address"
        },
        {
          "internalType": "uint256",
          "name": "price",
          "type": "uint256"
        },
        {
          "internalType": "bool",
          "name": "isBeatsToken",
          "type": "bool"
        }
      ],
      "name": "processSale",
      "outputs": [],
      "stateMutability": "nonpayable",
      "type": "function"
    },
    {
      "inputs": [
        {
          "internalType": "address",
          "name": "user",
          "type": "address"
        },
        {
          "internalType": "uint256",
          "name": "poolId",
          "type": "uint256"
        },
        {
          "internalType": "uint256",
          "name": "amount",
          "type": "uint256"
        },
        {
          "internalType": "string",
          "name": "action",
          "type": "string"
        }
      ],
      "name": "processStakingInteraction",
      "outputs": [],
      "stateMutability": "nonpayable",
      "type": "function"
    },
    {
      "inputs": [
        {
          "internalType": "address",
          "name": "user",
          "type": "address"
        },
        {
          "internalType": "string",
          "name": "action",
          "type": "string"
        },
        {
          "internalType": "uint256",
          "name": "tokenId",
          "type": "uint256"
        },
        {
          "internalType": "uint256",
          "name": "value",
          "type": "uint256"
        }
      ],
      "name": "recordInteraction",
      "outputs": [],
      "stateMutability": "nonpayable",
      "type": "function"
    },
    {
      "inputs": [],
      "name": "renounceOwnership",
      "outputs": [],
      "stateMutability": "nonpayable",
      "type": "function"
    },
    {
      "inputs": [
        {
          "internalType": "address",
          "name": "_token",
          "type": "address"
        },
        {
          "internalType": "address",
          "name": "_nft",
          "type": "address"
        },
        {
          "internalType": "address",
          "name": "_factory",
          "type": "address"
        },
        {
          "internalType": "address",
          "name": "_marketplace",
          "type": "address"
        },
        {
          "internalType": "address",
          "name": "_unused",
          "type": "address"
        },
        {
          "internalType": "address",
          "name": "_royalties",
          "type": "address"
        },
        {
          "internalType": "address",
          "name": "_profile",
          "type": "address"
        },
        {
          "internalType": "address",
          "name": "_playlist",
          "type": "address"
        },
        {
          "internalType": "address",
          "name": "_discovery",
          "type": "address"
        },
        {
          "internalType": "address",
          "name": "_staking",
          "type": "address"
        },
        {
          "internalType": "address",
          "name": "_analytics",
          "type": "address"
        }
      ],
      "name": "setContractAddresses",
      "outputs": [],
      "stateMutability": "nonpayable",
      "type": "function"
    },
    {
      "inputs": [
        {
          "internalType": "address",
          "name": "newOwner",
          "type": "address"
        }
      ],
      "name": "transferOwnership",
      "outputs": [],
      "stateMutability": "nonpayable",
      "type": "function"
    },
    {
      "inputs": [],
      "name": "unpause",
      "outputs": [],
      "stateMutability": "nonpayable",
      "type": "function"
    },
    {
      "inputs": [
        {
          "internalType": "string",
          "name": "action",
          "type": "string"
        },
        {
          "internalType": "uint256",
          "name": "baseReward",
          "type": "uint256"
        },
        {
          "internalType": "uint256",
          "name": "multiplier",
          "type": "uint256"
        },
        {
          "internalType": "bool",
          "name": "isActive",
          "type": "bool"
        }
      ],
      "name": "updateInteractionReward",
      "outputs": [],
      "stateMutability": "nonpayable",
      "type": "function"
    },
    {
      "inputs": [
        {
          "internalType": "address",
          "name": "",
          "type": "address"
        },
        {
          "internalType": "string",
          "name": "",
          "type": "string"
        }
      ],
      "name": "userInteractionCounts",
      "outputs": [
        {
          "internalType": "uint256",
          "name": "",
          "type": "uint256"
        }
      ],
      "stateMutability": "view",
      "type": "function"
    }
  ],
  "bytecode": "0x6080346200032f57601f62001e7138819003918201601f1916830192916001600160401b038411838510176200033457808392604095865283396020928391810103126200032f57516001600160a01b0390818116908190036200032f57600191826000558115620003175782546001600160a01b0319811683178455167f8be0079c531659141344cd1fd0a4f28419497f9722a3daafe3b4186f6b6457e0600080a3620000ac6200034a565b91678ac7230489e80000835280830192606491828552858201938085528651956d67656e65726174655f747261636b60901b8752602e600e978880820152209351845551818401556002809301945115159360ff19958681541660ff809716179055620001186200034a565b92674563918244f400009384815285828201918483528b81019286845260288d51671b1a5cdd17db999d60c21b81528d600882015220915182555186820155019051151587898354169116179055620001706200034a565b84815285828201918483528b81019286845260278d5166189d5e57db999d60ca1b81528d600782015220915182555186820155019051151587898354169116179055620001bc6200034a565b671bc16d674ec80000815285828201918483528b810192868452602f8d516e18dc99585d1957dc1b185e5b1a5cdd608a1b81528d600f82015220915182555186820155019051151587898354169116179055620002186200034a565b8986670de0b6b3a764000092838152848101868152602b8d858401958a875251906a3337b63637bbafbab9b2b960a91b8252600b820152209151825551878201550190511515888a8354169116179055620002726200034a565b90815285828201918483528b810192868452602f8d516e646973636f7665725f656e6761676560881b81528d600f82015220915182555186820155019051151587898354169116179055620002c66200034a565b9384528301908152602c888401978389528951906b7374616b655f746f6b656e7360a01b8252600c82015220925183555190820155019251151591835416911617905551611b0690816200036b8239f35b8451631e4fbdf760e01b815260006004820152602490fd5b600080fd5b634e487b7160e01b600052604160045260246000fd5b60405190606082016001600160401b03811183821017620003345760405256fe6080604052600436101561001257600080fd5b6000803560e01c806328596fe21461174c5780632f9662c5146117235780633f4ba83a146116b0578063468ba799146116875780635c975abb1461166157806360ac12351461153b578063702a557014611275578063702da85c146110ef578063715018a61461109157806375a2d46c1461106857806378946ae71461102f5780637ba89f9b14610fa557806381cd94cd14610ef95780638456cb5914610e965780638da5cb5b14610e6d578063943cbfda14610cbe57806395856c8f14610c955780639e7c01b414610c6c578063b4168ed7146107bf578063c3fe1c2414610796578063c46a20a21461076d578063c8b14bab14610744578063d22a668c146103f7578063da2ca6e3146103ce578063e040fdf5146103a5578063f2fde38b146103155763fee2980e1461014657600080fd5b346102485761015436611910565b91610160939193611a02565b6101686119e1565b600a546001600160a01b039190821633036102d857859482600b54169182610258575b505050806007541692836101a2575b846001815580f35b6040516101cc602082816101bf81830196878151938492016118c7565b8101038084520182611850565b5190206040516020810190647374616b6560d81b8252600581526101ef81611835565b5190200361024f576001925b803b1561024b578492836044926040519687958694634631f02360e11b865216600485015260248401525af1610234575b80808061019a565b61023d906117f1565b61024857803861022c565b80fd5b8480fd5b600019926101fb565b6040516020810190667374616b696e6760c81b82526007815261027a81611835565b51902090833b156102d45787938785886102ac829660405198899788968795630512c19b60e41b8752600487016119ab565b03925af16102bb575b8061018b565b6102c4906117f1565b6102cf5783386102b5565b505050fd5b8780fd5b60405162461bcd60e51b815260206004820152601560248201527413db9b1e481cdd185ada5b99c818dbdb9d1c9858dd605a1b6044820152606490fd5b50346102485760203660031901126102485761032f6117af565b61033761195a565b6001600160a01b0390811690811561038c57600154826bffffffffffffffffffffffff60a01b821617600155167f8be0079c531659141344cd1fd0a4f28419497f9722a3daafe3b4186f6b6457e0600080a380f35b604051631e4fbdf760e01b815260048101849052602490fd5b50346102485780600319360112610248576006546040516001600160a01b039091168152602090f35b50346102485780600319360112610248576008546040516001600160a01b039091168152602090f35b5034610248576080366003190112610248576104116117af565b6024356001600160401b03811161058f57610430903690600401611871565b9060443561043c611a02565b6104446119e1565b6004546001600160a01b0390811633148015610737575b801561072a575b801561071d575b8015610710575b8015610703575b156106c65780831692838652600c60205261049560408720866118ea565b805460001981146106b2579060018895949392019055848452600d60205242604085205581600b541680610640575b50506104cf85611a25565b80610593575b50600954168061052f575b5050506104f860405192604084526040840190611986565b904260208401527f30be0f29c64d4388e552d625bbb4c2a85f865a4412d1864e8b70783ab817a81630938033940390a46001815580f35b803b1561058f5782918291604051809481809463ad2d7bdd60e01b825289600483015260606024830152610566606483018c611986565b90604483015203925af161057b575b806104e0565b610584906117f1565b61058f578238610575565b8280fd5b816002541690813b1561024b5784808088946044604051809581936340c10f1960e01b83528960048401528860248401525af19182610627575b50506105da575b506104d5565b7f17baf26e55feca64139049026bdc2896838f2e72efc0ca29d02c9ffbb481ab4f906040519081526060602082015280610617606082018a611986565b4260408301520390a283386105d4565b610633919294506117f1565b61024b57859185386105cd565b60405160208101903360601b82526014815261065b81611835565b51902090803b156106ae578592839186838b61069160405197889687958694630512c19b60e41b865260643592600487016119ab565b03925af1156104c4576106a3906117f1565b61058f5782386104c4565b8580fd5b634e487b7160e01b88526011600452602488fd5b60405162461bcd60e51b8152602060048201526015602482015274155b985d5d1a1bdc9a5e99590818dbdb9d1c9858dd605a1b6044820152606490fd5b5080600a54163314610477565b5080600954163314610470565b5080600754163314610469565b5080600854163314610462565b508060055416331461045b565b50346102485780600319360112610248576004546040516001600160a01b039091168152602090f35b50346102485780600319360112610248576002546040516001600160a01b039091168152602090f35b50346102485780600319360112610248576005546040516001600160a01b039091168152602090f35b50346102485760c0366003190112610248576107d96117af565b6024356001600160401b03811161058f576107f8903690600401611871565b906044356001600160401b038111610c6857610818903690600401611871565b6084356001600160401b03811161024b57610837903690600401611871565b926001600160401b0360a4351161024b5736602360a43501121561024b5760a43560040135936001600160401b038511610c54576040518560051b956108806020880183611850565b81526020810180963660248260a435010111610c5057602460a43501915b60248260a43501018310610c19575050506108b7611a02565b6108bf6119e1565b6004546001600160a01b03163303610bdc576003546040516329fdb9fd60e11b81526001600160a01b038781166004830152608060248301529097899690926020928a9291169082908990829061092f9061091d608484018d611986565b83810360031901604485015290611986565b606435606483015203925af1968715610bd1578597610b95575b506009546001600160a01b03169182610ab8575b5050600b546001600160a01b0316929150829050610a17575b50506007546001600160a01b031690508061099b575b60208360018655604051908152f35b908184923b1561058f576040805163d29ad80f60e01b81526001600160a01b0390931660048401526024830152600e60448301526d1d1c9858dadcd7d8dc99585d195960921b60648301529091908290608490829084905af16109ff575b8061098c565b610a0983916117f1565b610a1357386109f9565b5080fd5b604051610a34602082816101bf81830196878151938492016118c7565b519020813b1561058f57829160e483926040519485938492630512c19b851b845260018060a01b038a16600485015260a06024850152600c60a48501526b1d1c9858dad7db5a5b9d195960a21b60c48501528a604485015282606485015260848401525af1610aa4575b80610976565b610aad906117f1565b61058f578238610a9e565b909180939495503b156102d457908794939291610af3604051946340bfcc7360e11b8652896004870152608060248701526084860190611986565b9060031985830301604486015251808252602082019160208260051b820101939288915b838310610b5e57505050505082809281878096819560018060a01b038c16606483015203925af1610b4a575b808061095d565b610b53906117f1565b610a13578138610b43565b919395969798509193602080610b80600193601f198682030187528951611986565b97019301930190928b98979695949293610b17565b945095506020843d602011610bc9575b81610bb260209383611850565b81010312610bc4578693519538610949565b600080fd5b3d9150610ba5565b6040513d87823e3d90fd5b60405162461bcd60e51b815260206004820152601560248201527413db9b1e48199858dd1bdc9e4818d85b881b5a5b9d605a1b6044820152606490fd5b6001600160401b03833511610c4c57602080602492610c3f3685883560a4350101611871565b815201930192905061089e565b8980fd5b8880fd5b634e487b7160e01b86526041600452602486fd5b8380fd5b5034610248578060031936011261024857600a546040516001600160a01b039091168152602090f35b50346102485780600319360112610248576009546040516001600160a01b039091168152602090f35b503461024857602080600319360112610a1357610cd96117af565b908260018060a01b0380931692838552600c808452602e60408720604051906d67656e65726174655f747261636b60901b8252600e82015220549480875281855260286040882060405190671b1a5cdd17db999d60c21b8252600882015220548188528286526027604089206040519066189d5e57db999d60ca1b82526007820152205491808952838752602c602f60408b20604051906e18dc99585d1957dc1b185e5b1a5cdd608a1b8252600f820152205494828b5280895260408b20604051916b7374616b655f746f6b656e7360a01b83528201522054946007541680610df1575b508860409160e09a52600d885220549560405197885287015260408601526060850152608084015260a083015260c0820152f35b6024919650879060405192838092633069231d60e01b82528a60048301525afa899181610e3b575b509860409160e09a15600014610e35575080965b915098610dbd565b96610e2d565b9150988782813d8311610e66575b610e538183611850565b81010312610bc4579051909860e0610e19565b503d610e49565b50346102485780600319360112610248576001546040516001600160a01b039091168152602090f35b5034610248578060031936011261024857610eaf61195a565b610eb76119e1565b6001805460ff60a01b1916600160a01b1790556040513381527f62e78cea01bee320cd4e420270b5ea74000d11b0c9f74754ebdbfc544b05a25890602090a180f35b5034610248576080366003190112610248576004356001600160401b038111610a1357610f2a903690600401611871565b60643590811515809203610bc457600290610f4361195a565b60405190610f508261181a565b6024358252610f7d60208084019260443584526040850196875281604051938285809451938492016118c7565b8101600e81520301902091518255516001820155019051151560ff8019835416911617905580f35b503461024857602036600319011261024857600435906001600160401b03821161024857610fee6020610fdb3660048601611871565b81604051938285809451938492016118c7565b8101600e815203019020805461102b60ff600260018501549401541660405193849384919260409194936060840195845260208401521515910152565b0390f35b5034610248576020366003190112610248576020906040906001600160a01b036110576117af565b168152600d83522054604051908152f35b50346102485780600319360112610248576007546040516001600160a01b039091168152602090f35b50346102485780600319360112610248576110aa61195a565b600180546001600160a01b031981169091556000906001600160a01b03167f8be0079c531659141344cd1fd0a4f28419497f9722a3daafe3b4186f6b6457e08280a380f35b5034610248576110fe36611910565b611109929192611a02565b6111116119e1565b6008546001600160a01b0392908316330361123757859483600b541690816111be575b5050505060095416908161114b575b826001815580f35b813b156111ba57829160a483926040519485938492633fa6d7e360e11b8452600484015260606024840152600c60648401526b1c1b185e5b1a5cdd17d8591960a21b6084840152600160448401525af16111a6575b80611143565b6111af906117f1565b6102485780386111a0565b5050fd5b6040516020810190671c1b185e5b1a5cdd60c21b8252600881526111e181611835565b51902091803b156102d4578794858893611213829660405198899788968795630512c19b60e41b8752600487016119ab565b03925af1611223575b8080611134565b61122c906117f1565b6111ba57823861121c565b60405162461bcd60e51b815260206004820152601660248201527513db9b1e481c1b185e5b1a5cdd0818dbdb9d1c9858dd60521b6044820152606490fd5b50346102485760a03660031901126102485761128f6117c5565b6112976117db565b608435918215159182840361024b576112ae611a02565b6112b66119e1565b6005546001600160a01b039390841633036114f65785948460065416908161149a575b505083600b541680611439575b50508260095416806113cc575b5082600754168061130657846001815580f35b803b1561024b5784846084829483604051958694859363d29ad80f60e01b855216600484015260406024840152600f60448401526e1cd85b195cd7d8dbdb5c1b195d1959608a1b60648401525af16113b8575b5050816007541691823b156102cf5760848492836040519586948593630bb348d360e11b855216600484015260406024840152600e60448401526d7075726368617365735f6d61646560901b60648401525af16102345780808061019a565b6113c1906117f1565b6111ba578238611359565b803b1561024b578480809260a460405180948193633fa6d7e360e11b83526004356004840152606060248401526008606484015267707572636861736560c01b6084840152600160448401525af1611425575b506112f3565b61142e906117f1565b6102cf57833861141f565b803b156106ae578580929160a48293604051948593849263078e573960e11b84528b8b1660048501528b8a1660248501526004356044850152606435606485015260848401525af1156112e65761148f906117f1565b6102cf5783386112e6565b813b156114f25760405163023e153360e51b81526004803590820152606480356024830152911515604482015297879289929183915af16114de575b8585966112d9565b9390946114ea906117f1565b9284906114d6565b8680fd5b60405162461bcd60e51b815260206004820152601960248201527f4f6e6c79206d61726b6574706c61636520636f6e7472616374000000000000006044820152606490fd5b503461024857610160366003190112610248576115566117af565b61155e6117c5565b906115676117db565b6001600160a01b03606435818116908190036106ae57608435828116036106ae5760a4358281168091036114f25760c435908382168092036102d45760e43592848416809403610c50576101043594808616809603610c4c57610124359681881680980361165d576101443599828b16809b036116595782906115e861195a565b816bffffffffffffffffffffffff60a01b9b168b6002541617600255168960035416176003551687600454161760045586600554161760055585600654161760065584600754161760075583600854161760085582600954161760095581600a541617600a55600b541617600b5580f35b8b80fd5b8a80fd5b5034610248578060031936011261024857602060ff60015460a01c166040519015158152f35b5034610248578060031936011261024857600b546040516001600160a01b039091168152602090f35b50346102485780600319360112610248576116c961195a565b60015460ff8160a01c16156117115760ff60a01b19166001556040513381527f5db9ee0a495bf2e6ff9c91a7834c1ba4fdd244a5e8aa4e537bd38aeae4b073aa90602090a180f35b604051638dfc202b60e01b8152600490fd5b50346102485780600319360112610248576003546040516001600160a01b039091168152602090f35b5034610248576040366003190112610248576117666117af565b6024356001600160401b03811161058f5790604060209361178e6117a6943690600401611871565b6001600160a01b039093168152600c855220906118ea565b54604051908152f35b600435906001600160a01b0382168203610bc457565b602435906001600160a01b0382168203610bc457565b604435906001600160a01b0382168203610bc457565b6001600160401b03811161180457604052565b634e487b7160e01b600052604160045260246000fd5b606081019081106001600160401b0382111761180457604052565b604081019081106001600160401b0382111761180457604052565b90601f801991011681019081106001600160401b0382111761180457604052565b81601f82011215610bc4578035906001600160401b03821161180457604051926118a5601f8401601f191660200185611850565b82845260208383010111610bc457816000926020809301838601378301015290565b60005b8381106118da5750506000910152565b81810151838201526020016118ca565b6020906119049282604051948386809551938492016118c7565b82019081520301902090565b906080600319830112610bc4576004356001600160a01b0381168103610bc457916024359160443591606435906001600160401b038211610bc45761195791600401611871565b90565b6001546001600160a01b0316330361196e57565b60405163118cdaa760e01b8152336004820152602490fd5b9060209161199f815180928185528580860191016118c7565b601f01601f1916010190565b916119d2906080949796959260018060a01b0316845260a0602085015260a0840190611986565b95604083015260608201520152565b60ff60015460a01c166119f057565b60405163d93c066560e01b8152600490fd5b600260005414611a13576002600055565b604051633ee5aeb560e01b8152600490fd5b6020611a3e9181604051938285809451938492016118c7565b8101600e815203019020604051611a548161181a565b81549081815260ff6002600185015494856020850152015416159060408215910152611ac9574262278cff19810111611ab3574262278d0011611ab35760048201809211611ab357818102918183041490151715611ab3576064900490565b634e487b7160e01b600052601160045260246000fd5b505060009056fea26469706673582212208fd7cea4697ca0f9e136dfa85800f275fb6ee6081f61e13ef9722a0b4dd1b71064736f6c63430008140033",
  "linkReferences": {},
  "deployedLinkReferences": {}
}