{
  "_format": "hh-sol-artifact-1",
  "contractName": "HiBeatsPlaylist",
  "sourceName": "contracts/HiBeatsPlaylist.sol",
  "abi": [
    {
      "inputs": [
        {
          "internalType": "address",
          "name": "_hiBeatsNFT",
          "type": "address"
        },
        {
          "internalType": "address",
          "name": "_hiBeatsToken",
          "type": "address"
        }
      ],
      "stateMutability": "nonpayable",
      "type": "constructor"
    },
    {
      "inputs": [],
      "name": "EnforcedPause",
      "type": "error"
    },
    {
      "inputs": [],
      "name": "ExpectedPause",
      "type": "error"
    },
    {
      "inputs": [
        {
          "internalType": "address",
          "name": "owner",
          "type": "address"
        }
      ],
      "name": "OwnableInvalidOwner",
      "type": "error"
    },
    {
      "inputs": [
        {
          "internalType": "address",
          "name": "account",
          "type": "address"
        }
      ],
      "name": "OwnableUnauthorizedAccount",
      "type": "error"
    },
    {
      "inputs": [],
      "name": "ReentrancyGuardReentrantCall",
      "type": "error"
    },
    {
      "anonymous": false,
      "inputs": [
        {
          "indexed": true,
          "internalType": "uint256",
          "name": "playlistId",
          "type": "uint256"
        },
        {
          "indexed": true,
          "internalType": "address",
          "name": "collaborator",
          "type": "address"
        }
      ],
      "name": "CollaboratorAdded",
      "type": "event"
    },
    {
      "anonymous": false,
      "inputs": [
        {
          "indexed": true,
          "internalType": "uint256",
          "name": "playlistId",
          "type": "uint256"
        },
        {
          "indexed": true,
          "internalType": "address",
          "name": "collaborator",
          "type": "address"
        }
      ],
      "name": "CollaboratorRemoved",
      "type": "event"
    },
    {
      "anonymous": false,
      "inputs": [
        {
          "indexed": true,
          "internalType": "address",
          "name": "user",
          "type": "address"
        },
        {
          "indexed": false,
          "internalType": "uint256",
          "name": "amount",
          "type": "uint256"
        },
        {
          "indexed": false,
          "internalType": "uint256",
          "name": "duration",
          "type": "uint256"
        }
      ],
      "name": "ListeningRewardClaimed",
      "type": "event"
    },
    {
      "anonymous": false,
      "inputs": [
        {
          "indexed": true,
          "internalType": "address",
          "name": "previousOwner",
          "type": "address"
        },
        {
          "indexed": true,
          "internalType": "address",
          "name": "newOwner",
          "type": "address"
        }
      ],
      "name": "OwnershipTransferred",
      "type": "event"
    },
    {
      "anonymous": false,
      "inputs": [
        {
          "indexed": false,
          "internalType": "address",
          "name": "account",
          "type": "address"
        }
      ],
      "name": "Paused",
      "type": "event"
    },
    {
      "anonymous": false,
      "inputs": [
        {
          "indexed": true,
          "internalType": "address",
          "name": "user",
          "type": "address"
        },
        {
          "indexed": false,
          "internalType": "uint256",
          "name": "currentTrackId",
          "type": "uint256"
        },
        {
          "indexed": false,
          "internalType": "uint256",
          "name": "currentPlaylistId",
          "type": "uint256"
        }
      ],
      "name": "PlayerStateUpdated",
      "type": "event"
    },
    {
      "anonymous": false,
      "inputs": [
        {
          "indexed": true,
          "internalType": "uint256",
          "name": "playlistId",
          "type": "uint256"
        },
        {
          "indexed": true,
          "internalType": "address",
          "name": "creator",
          "type": "address"
        },
        {
          "indexed": false,
          "internalType": "string",
          "name": "name",
          "type": "string"
        },
        {
          "indexed": false,
          "internalType": "enum HiBeatsPlaylist.PlaylistType",
          "name": "playlistType",
          "type": "uint8"
        }
      ],
      "name": "PlaylistCreated",
      "type": "event"
    },
    {
      "anonymous": false,
      "inputs": [
        {
          "indexed": true,
          "internalType": "uint256",
          "name": "playlistId",
          "type": "uint256"
        },
        {
          "indexed": true,
          "internalType": "address",
          "name": "follower",
          "type": "address"
        }
      ],
      "name": "PlaylistFollowed",
      "type": "event"
    },
    {
      "anonymous": false,
      "inputs": [
        {
          "indexed": true,
          "internalType": "uint256",
          "name": "playlistId",
          "type": "uint256"
        },
        {
          "indexed": true,
          "internalType": "address",
          "name": "follower",
          "type": "address"
        }
      ],
      "name": "PlaylistUnfollowed",
      "type": "event"
    },
    {
      "anonymous": false,
      "inputs": [
        {
          "indexed": true,
          "internalType": "uint256",
          "name": "playlistId",
          "type": "uint256"
        },
        {
          "indexed": false,
          "internalType": "string",
          "name": "name",
          "type": "string"
        },
        {
          "indexed": false,
          "internalType": "string",
          "name": "description",
          "type": "string"
        }
      ],
      "name": "PlaylistUpdated",
      "type": "event"
    },
    {
      "anonymous": false,
      "inputs": [
        {
          "indexed": true,
          "internalType": "uint256",
          "name": "playlistId",
          "type": "uint256"
        },
        {
          "indexed": true,
          "internalType": "uint256",
          "name": "trackId",
          "type": "uint256"
        },
        {
          "indexed": true,
          "internalType": "address",
          "name": "addedBy",
          "type": "address"
        }
      ],
      "name": "TrackAddedToPlaylist",
      "type": "event"
    },
    {
      "anonymous": false,
      "inputs": [
        {
          "indexed": true,
          "internalType": "address",
          "name": "user",
          "type": "address"
        },
        {
          "indexed": true,
          "internalType": "uint256",
          "name": "trackId",
          "type": "uint256"
        }
      ],
      "name": "TrackLiked",
      "type": "event"
    },
    {
      "anonymous": false,
      "inputs": [
        {
          "indexed": true,
          "internalType": "address",
          "name": "user",
          "type": "address"
        },
        {
          "indexed": true,
          "internalType": "uint256",
          "name": "trackId",
          "type": "uint256"
        },
        {
          "indexed": true,
          "internalType": "uint256",
          "name": "playlistId",
          "type": "uint256"
        },
        {
          "indexed": false,
          "internalType": "uint256",
          "name": "duration",
          "type": "uint256"
        }
      ],
      "name": "TrackPlayed",
      "type": "event"
    },
    {
      "anonymous": false,
      "inputs": [
        {
          "indexed": true,
          "internalType": "uint256",
          "name": "playlistId",
          "type": "uint256"
        },
        {
          "indexed": true,
          "internalType": "uint256",
          "name": "trackId",
          "type": "uint256"
        },
        {
          "indexed": true,
          "internalType": "address",
          "name": "removedBy",
          "type": "address"
        }
      ],
      "name": "TrackRemovedFromPlaylist",
      "type": "event"
    },
    {
      "anonymous": false,
      "inputs": [
        {
          "indexed": true,
          "internalType": "address",
          "name": "user",
          "type": "address"
        },
        {
          "indexed": true,
          "internalType": "uint256",
          "name": "trackId",
          "type": "uint256"
        }
      ],
      "name": "TrackUnliked",
      "type": "event"
    },
    {
      "anonymous": false,
      "inputs": [
        {
          "indexed": false,
          "internalType": "address",
          "name": "account",
          "type": "address"
        }
      ],
      "name": "Unpaused",
      "type": "event"
    },
    {
      "inputs": [],
      "name": "DAILY_LISTENING_LIMIT",
      "outputs": [
        {
          "internalType": "uint256",
          "name": "",
          "type": "uint256"
        }
      ],
      "stateMutability": "view",
      "type": "function"
    },
    {
      "inputs": [],
      "name": "LISTENING_REWARD_RATE",
      "outputs": [
        {
          "internalType": "uint256",
          "name": "",
          "type": "uint256"
        }
      ],
      "stateMutability": "view",
      "type": "function"
    },
    {
      "inputs": [],
      "name": "MAX_PLAYLIST_SIZE",
      "outputs": [
        {
          "internalType": "uint256",
          "name": "",
          "type": "uint256"
        }
      ],
      "stateMutability": "view",
      "type": "function"
    },
    {
      "inputs": [],
      "name": "MAX_QUEUE_SIZE",
      "outputs": [
        {
          "internalType": "uint256",
          "name": "",
          "type": "uint256"
        }
      ],
      "stateMutability": "view",
      "type": "function"
    },
    {
      "inputs": [],
      "name": "PLAYLIST_CREATION_FEE",
      "outputs": [
        {
          "internalType": "uint256",
          "name": "",
          "type": "uint256"
        }
      ],
      "stateMutability": "view",
      "type": "function"
    },
    {
      "inputs": [
        {
          "internalType": "uint256",
          "name": "_playlistId",
          "type": "uint256"
        },
        {
          "internalType": "address",
          "name": "_collaborator",
          "type": "address"
        }
      ],
      "name": "addCollaborator",
      "outputs": [],
      "stateMutability": "nonpayable",
      "type": "function"
    },
    {
      "inputs": [
        {
          "internalType": "uint256",
          "name": "_playlistId",
          "type": "uint256"
        },
        {
          "internalType": "uint256",
          "name": "_trackId",
          "type": "uint256"
        }
      ],
      "name": "addTrackToPlaylist",
      "outputs": [],
      "stateMutability": "nonpayable",
      "type": "function"
    },
    {
      "inputs": [
        {
          "internalType": "string",
          "name": "_name",
          "type": "string"
        },
        {
          "internalType": "string",
          "name": "_description",
          "type": "string"
        },
        {
          "internalType": "enum HiBeatsPlaylist.PlaylistType",
          "name": "_playlistType",
          "type": "uint8"
        },
        {
          "internalType": "bool",
          "name": "_isPublic",
          "type": "bool"
        },
        {
          "internalType": "bool",
          "name": "_isCollaborative",
          "type": "bool"
        },
        {
          "internalType": "string",
          "name": "_coverImageHash",
          "type": "string"
        }
      ],
      "name": "createPlaylist",
      "outputs": [
        {
          "internalType": "uint256",
          "name": "",
          "type": "uint256"
        }
      ],
      "stateMutability": "payable",
      "type": "function"
    },
    {
      "inputs": [
        {
          "internalType": "address",
          "name": "",
          "type": "address"
        }
      ],
      "name": "dailyListeningTime",
      "outputs": [
        {
          "internalType": "uint256",
          "name": "",
          "type": "uint256"
        }
      ],
      "stateMutability": "view",
      "type": "function"
    },
    {
      "inputs": [
        {
          "internalType": "uint256",
          "name": "_playlistId",
          "type": "uint256"
        },
        {
          "internalType": "string",
          "name": "_name",
          "type": "string"
        },
        {
          "internalType": "string",
          "name": "_description",
          "type": "string"
        }
      ],
      "name": "emergencyUpdatePlaylist",
      "outputs": [],
      "stateMutability": "nonpayable",
      "type": "function"
    },
    {
      "inputs": [
        {
          "internalType": "address",
          "name": "_user",
          "type": "address"
        }
      ],
      "name": "getDailyListeningTimeRemaining",
      "outputs": [
        {
          "internalType": "uint256",
          "name": "",
          "type": "uint256"
        }
      ],
      "stateMutability": "view",
      "type": "function"
    },
    {
      "inputs": [
        {
          "internalType": "uint256",
          "name": "_trackId",
          "type": "uint256"
        }
      ],
      "name": "getGlobalTrackPlayCount",
      "outputs": [
        {
          "internalType": "uint256",
          "name": "",
          "type": "uint256"
        }
      ],
      "stateMutability": "view",
      "type": "function"
    },
    {
      "inputs": [
        {
          "internalType": "uint256",
          "name": "_playlistId",
          "type": "uint256"
        }
      ],
      "name": "getPlaylistTracks",
      "outputs": [
        {
          "internalType": "uint256[]",
          "name": "",
          "type": "uint256[]"
        }
      ],
      "stateMutability": "view",
      "type": "function"
    },
    {
      "inputs": [
        {
          "internalType": "address",
          "name": "_user",
          "type": "address"
        }
      ],
      "name": "getUserLikedTracks",
      "outputs": [
        {
          "internalType": "uint256[]",
          "name": "",
          "type": "uint256[]"
        }
      ],
      "stateMutability": "view",
      "type": "function"
    },
    {
      "inputs": [
        {
          "internalType": "address",
          "name": "_user",
          "type": "address"
        },
        {
          "internalType": "uint256",
          "name": "_limit",
          "type": "uint256"
        }
      ],
      "name": "getUserListeningHistory",
      "outputs": [
        {
          "components": [
            {
              "internalType": "uint256",
              "name": "trackId",
              "type": "uint256"
            },
            {
              "internalType": "uint256",
              "name": "playlistId",
              "type": "uint256"
            },
            {
              "internalType": "uint256",
              "name": "startTime",
              "type": "uint256"
            },
            {
              "internalType": "uint256",
              "name": "endTime",
              "type": "uint256"
            },
            {
              "internalType": "uint256",
              "name": "duration",
              "type": "uint256"
            },
            {
              "internalType": "bool",
              "name": "completed",
              "type": "bool"
            }
          ],
          "internalType": "struct HiBeatsPlaylist.ListeningSession[]",
          "name": "",
          "type": "tuple[]"
        }
      ],
      "stateMutability": "view",
      "type": "function"
    },
    {
      "inputs": [
        {
          "internalType": "address",
          "name": "_user",
          "type": "address"
        },
        {
          "internalType": "uint256",
          "name": "_limit",
          "type": "uint256"
        }
      ],
      "name": "getUserMostPlayedTracks",
      "outputs": [
        {
          "internalType": "uint256[]",
          "name": "trackIds",
          "type": "uint256[]"
        },
        {
          "internalType": "uint256[]",
          "name": "playCounts",
          "type": "uint256[]"
        }
      ],
      "stateMutability": "view",
      "type": "function"
    },
    {
      "inputs": [
        {
          "internalType": "address",
          "name": "_user",
          "type": "address"
        }
      ],
      "name": "getUserPlaylists",
      "outputs": [
        {
          "internalType": "uint256[]",
          "name": "",
          "type": "uint256[]"
        }
      ],
      "stateMutability": "view",
      "type": "function"
    },
    {
      "inputs": [
        {
          "internalType": "address",
          "name": "_user",
          "type": "address"
        }
      ],
      "name": "getUserQueue",
      "outputs": [
        {
          "internalType": "uint256[]",
          "name": "",
          "type": "uint256[]"
        }
      ],
      "stateMutability": "view",
      "type": "function"
    },
    {
      "inputs": [
        {
          "internalType": "address",
          "name": "_user",
          "type": "address"
        },
        {
          "internalType": "uint256",
          "name": "_limit",
          "type": "uint256"
        }
      ],
      "name": "getUserRecentlyPlayed",
      "outputs": [
        {
          "internalType": "uint256[]",
          "name": "",
          "type": "uint256[]"
        }
      ],
      "stateMutability": "view",
      "type": "function"
    },
    {
      "inputs": [
        {
          "internalType": "address",
          "name": "_user",
          "type": "address"
        },
        {
          "internalType": "uint256",
          "name": "_trackId",
          "type": "uint256"
        }
      ],
      "name": "getUserTrackPlayCount",
      "outputs": [
        {
          "internalType": "uint256",
          "name": "",
          "type": "uint256"
        }
      ],
      "stateMutability": "view",
      "type": "function"
    },
    {
      "inputs": [
        {
          "internalType": "uint256",
          "name": "",
          "type": "uint256"
        }
      ],
      "name": "globalTrackPlayCounts",
      "outputs": [
        {
          "internalType": "uint256",
          "name": "",
          "type": "uint256"
        }
      ],
      "stateMutability": "view",
      "type": "function"
    },
    {
      "inputs": [],
      "name": "hiBeatsNFT",
      "outputs": [
        {
          "internalType": "contract IHiBeatsNFT",
          "name": "",
          "type": "address"
        }
      ],
      "stateMutability": "view",
      "type": "function"
    },
    {
      "inputs": [],
      "name": "hiBeatsToken",
      "outputs": [
        {
          "internalType": "contract IHiBeatsToken",
          "name": "",
          "type": "address"
        }
      ],
      "stateMutability": "view",
      "type": "function"
    },
    {
      "inputs": [
        {
          "internalType": "address",
          "name": "_user",
          "type": "address"
        },
        {
          "internalType": "uint256",
          "name": "_trackId",
          "type": "uint256"
        }
      ],
      "name": "isTrackLiked",
      "outputs": [
        {
          "internalType": "bool",
          "name": "",
          "type": "bool"
        }
      ],
      "stateMutability": "view",
      "type": "function"
    },
    {
      "inputs": [
        {
          "internalType": "address",
          "name": "",
          "type": "address"
        }
      ],
      "name": "lastListeningReset",
      "outputs": [
        {
          "internalType": "uint256",
          "name": "",
          "type": "uint256"
        }
      ],
      "stateMutability": "view",
      "type": "function"
    },
    {
      "inputs": [
        {
          "internalType": "address",
          "name": "",
          "type": "address"
        },
        {
          "internalType": "uint256",
          "name": "",
          "type": "uint256"
        }
      ],
      "name": "likedTracks",
      "outputs": [
        {
          "internalType": "bool",
          "name": "",
          "type": "bool"
        }
      ],
      "stateMutability": "view",
      "type": "function"
    },
    {
      "inputs": [
        {
          "internalType": "address",
          "name": "",
          "type": "address"
        },
        {
          "internalType": "uint256",
          "name": "",
          "type": "uint256"
        }
      ],
      "name": "listeningHistory",
      "outputs": [
        {
          "internalType": "uint256",
          "name": "trackId",
          "type": "uint256"
        },
        {
          "internalType": "uint256",
          "name": "playlistId",
          "type": "uint256"
        },
        {
          "internalType": "uint256",
          "name": "startTime",
          "type": "uint256"
        },
        {
          "internalType": "uint256",
          "name": "endTime",
          "type": "uint256"
        },
        {
          "internalType": "uint256",
          "name": "duration",
          "type": "uint256"
        },
        {
          "internalType": "bool",
          "name": "completed",
          "type": "bool"
        }
      ],
      "stateMutability": "view",
      "type": "function"
    },
    {
      "inputs": [],
      "name": "owner",
      "outputs": [
        {
          "internalType": "address",
          "name": "",
          "type": "address"
        }
      ],
      "stateMutability": "view",
      "type": "function"
    },
    {
      "inputs": [],
      "name": "pause",
      "outputs": [],
      "stateMutability": "nonpayable",
      "type": "function"
    },
    {
      "inputs": [],
      "name": "paused",
      "outputs": [
        {
          "internalType": "bool",
          "name": "",
          "type": "bool"
        }
      ],
      "stateMutability": "view",
      "type": "function"
    },
    {
      "inputs": [
        {
          "internalType": "address",
          "name": "",
          "type": "address"
        }
      ],
      "name": "playerStates",
      "outputs": [
        {
          "internalType": "uint256",
          "name": "currentTrackId",
          "type": "uint256"
        },
        {
          "internalType": "uint256",
          "name": "currentPlaylistId",
          "type": "uint256"
        },
        {
          "internalType": "uint256",
          "name": "currentPosition",
          "type": "uint256"
        },
        {
          "internalType": "bool",
          "name": "isPlaying",
          "type": "bool"
        },
        {
          "internalType": "bool",
          "name": "isShuffled",
          "type": "bool"
        },
        {
          "internalType": "enum HiBeatsPlaylist.RepeatMode",
          "name": "repeatMode",
          "type": "uint8"
        },
        {
          "internalType": "uint8",
          "name": "volume",
          "type": "uint8"
        },
        {
          "internalType": "uint256",
          "name": "playbackSpeed",
          "type": "uint256"
        },
        {
          "internalType": "uint256",
          "name": "lastUpdated",
          "type": "uint256"
        }
      ],
      "stateMutability": "view",
      "type": "function"
    },
    {
      "inputs": [
        {
          "internalType": "uint256",
          "name": "",
          "type": "uint256"
        }
      ],
      "name": "playlists",
      "outputs": [
        {
          "internalType": "uint256",
          "name": "id",
          "type": "uint256"
        },
        {
          "internalType": "string",
          "name": "name",
          "type": "string"
        },
        {
          "internalType": "string",
          "name": "description",
          "type": "string"
        },
        {
          "internalType": "address",
          "name": "creator",
          "type": "address"
        },
        {
          "internalType": "enum HiBeatsPlaylist.PlaylistType",
          "name": "playlistType",
          "type": "uint8"
        },
        {
          "internalType": "bool",
          "name": "isPublic",
          "type": "bool"
        },
        {
          "internalType": "bool",
          "name": "isCollaborative",
          "type": "bool"
        },
        {
          "internalType": "uint256",
          "name": "createdAt",
          "type": "uint256"
        },
        {
          "internalType": "uint256",
          "name": "updatedAt",
          "type": "uint256"
        },
        {
          "internalType": "uint256",
          "name": "totalDuration",
          "type": "uint256"
        },
        {
          "internalType": "uint256",
          "name": "playCount",
          "type": "uint256"
        },
        {
          "internalType": "string",
          "name": "coverImageHash",
          "type": "string"
        },
        {
          "internalType": "uint256",
          "name": "followerCount",
          "type": "uint256"
        }
      ],
      "stateMutability": "view",
      "type": "function"
    },
    {
      "inputs": [
        {
          "internalType": "uint256",
          "name": "_trackId",
          "type": "uint256"
        },
        {
          "internalType": "uint256",
          "name": "_playlistId",
          "type": "uint256"
        },
        {
          "internalType": "uint256",
          "name": "_duration",
          "type": "uint256"
        },
        {
          "internalType": "uint256",
          "name": "_totalTrackDuration",
          "type": "uint256"
        }
      ],
      "name": "recordTrackPlay",
      "outputs": [],
      "stateMutability": "nonpayable",
      "type": "function"
    },
    {
      "inputs": [
        {
          "internalType": "uint256",
          "name": "_playlistId",
          "type": "uint256"
        },
        {
          "internalType": "address",
          "name": "_collaborator",
          "type": "address"
        }
      ],
      "name": "removeCollaborator",
      "outputs": [],
      "stateMutability": "nonpayable",
      "type": "function"
    },
    {
      "inputs": [
        {
          "internalType": "uint256",
          "name": "_playlistId",
          "type": "uint256"
        },
        {
          "internalType": "uint256",
          "name": "_trackId",
          "type": "uint256"
        }
      ],
      "name": "removeTrackFromPlaylist",
      "outputs": [],
      "stateMutability": "nonpayable",
      "type": "function"
    },
    {
      "inputs": [],
      "name": "renounceOwnership",
      "outputs": [],
      "stateMutability": "nonpayable",
      "type": "function"
    },
    {
      "inputs": [
        {
          "internalType": "uint256",
          "name": "_playlistId",
          "type": "uint256"
        }
      ],
      "name": "toggleFollowPlaylist",
      "outputs": [],
      "stateMutability": "nonpayable",
      "type": "function"
    },
    {
      "inputs": [
        {
          "internalType": "uint256",
          "name": "_trackId",
          "type": "uint256"
        }
      ],
      "name": "toggleLikeTrack",
      "outputs": [],
      "stateMutability": "nonpayable",
      "type": "function"
    },
    {
      "inputs": [
        {
          "internalType": "address",
          "name": "",
          "type": "address"
        },
        {
          "internalType": "uint256",
          "name": "",
          "type": "uint256"
        }
      ],
      "name": "trackPlayCounts",
      "outputs": [
        {
          "internalType": "uint256",
          "name": "",
          "type": "uint256"
        }
      ],
      "stateMutability": "view",
      "type": "function"
    },
    {
      "inputs": [
        {
          "internalType": "address",
          "name": "newOwner",
          "type": "address"
        }
      ],
      "name": "transferOwnership",
      "outputs": [],
      "stateMutability": "nonpayable",
      "type": "function"
    },
    {
      "inputs": [],
      "name": "unpause",
      "outputs": [],
      "stateMutability": "nonpayable",
      "type": "function"
    },
    {
      "inputs": [
        {
          "internalType": "uint256",
          "name": "_currentTrackId",
          "type": "uint256"
        },
        {
          "internalType": "uint256",
          "name": "_currentPlaylistId",
          "type": "uint256"
        },
        {
          "internalType": "uint256[]",
          "name": "_queueIds",
          "type": "uint256[]"
        },
        {
          "internalType": "uint256",
          "name": "_currentPosition",
          "type": "uint256"
        },
        {
          "internalType": "bool",
          "name": "_isPlaying",
          "type": "bool"
        },
        {
          "internalType": "bool",
          "name": "_isShuffled",
          "type": "bool"
        },
        {
          "internalType": "enum HiBeatsPlaylist.RepeatMode",
          "name": "_repeatMode",
          "type": "uint8"
        },
        {
          "internalType": "uint8",
          "name": "_volume",
          "type": "uint8"
        },
        {
          "internalType": "uint256",
          "name": "_playbackSpeed",
          "type": "uint256"
        }
      ],
      "name": "updatePlayerState",
      "outputs": [],
      "stateMutability": "nonpayable",
      "type": "function"
    },
    {
      "inputs": [
        {
          "internalType": "address",
          "name": "",
          "type": "address"
        },
        {
          "internalType": "uint256",
          "name": "",
          "type": "uint256"
        }
      ],
      "name": "userPlaylists",
      "outputs": [
        {
          "internalType": "uint256",
          "name": "",
          "type": "uint256"
        }
      ],
      "stateMutability": "view",
      "type": "function"
    },
    {
      "inputs": [],
      "name": "withdraw",
      "outputs": [],
      "stateMutability": "nonpayable",
      "type": "function"
    }
  ],
  "bytecode": "0x60c0346200013257601f6200382f38819003918201601f19168301916001600160401b038311848410176200013757808492604094855283398101031262000132576200005a602062000052836200014d565b92016200014d565b903315620001195760008054336001600160a01b0319821681178355604051946001600160a01b0394909385939192918416907f8be0079c531659141344cd1fd0a4f28419497f9722a3daafe3b4186f6b6457e09080a3600180556001600355166080521660a0526136cc9081620001638239608051818181610d62015281816111a001528181611371015281816115f8015281816121a201528181612b3901528181612d67015261349a015260a0518181816110c801526123960152f35b604051631e4fbdf760e01b815260006004820152602490fd5b600080fd5b634e487b7160e01b600052604160045260246000fd5b51906001600160a01b0382168203620001325756fe608080604052600436101561001357600080fd5b600090813560e01c9081631bef8da514612dcf575080632586bbfb14612d965780632f9662c514612d5157806333a351d514612ace5780633611c34f14612aad5780633626e23514612a9157806337090260146127ad5780633ccfd60b146126ce5780633f4ba83a146126635780634826c5d1146121465780634907cf3314611e4657806354846f4614611dd35780635601211414611bfe5780635c975abb14611bdb5780635d6003f414611914578063601b349c14611ace57806364ba825f14611a955780636cc2054f14611a07578063715018a6146119ad578063809d91fb14611957578063839fd75c146119145780638456cb59146118b95780638457ca29146117135780638da5cb5b146116ec5780638e37020c146116c957806390ef33dd146116ac578063a2f49b5a14611339578063a7e891821461116d578063a9864639146110f7578063b679a646146102d6578063c46a20a2146110b2578063ccf8bc6414610f68578063d15e55b714610eaa578063d43f2c0114610e80578063d441777714610d28578063d4bd5a0d14610b70578063e00a805014610568578063e587a04b146104ba578063ecc6362f146103af578063f2fde38b1461031f578063f3c5f79c146102d6578063f55e2dfd146102b9578063f760f6f1146102975763ff9e61011461020557600080fd5b34610294576020366003190112610294576001600160a01b03610226612df6565b168152600c602052620151809081604082205404600b60205260408220549242041161028c575b617080918281106102665750602091505b604051908152f35b8203918211610278575060209061025e565b634e487b7160e01b81526011600452602490fd5b90508061024d565b80fd5b5034610294578060031936011261029457602060405166038d7ea4c680008152f35b503461029457806003193601126102945760206040516103e88152f35b50346102945760403660031901126102945760209060ff906040906001600160a01b03610301612df6565b16815260078452818120602435825284522054166040519015158152f35b503461029457602036600319011261029457610339612df6565b6103416130db565b6001600160a01b0390811690811561039657600054826bffffffffffffffffffffffff60a01b821617600055167f8be0079c531659141344cd1fd0a4f28419497f9722a3daafe3b4186f6b6457e0600080a380f35b604051631e4fbdf760e01b815260048101849052602490fd5b5034610294576020366003190112610294576004803582526020526040902080546103dc60018301612fca565b916103e960028201612fca565b906003810154600582015460068301546007840154600885015491600986015493600a870161041790612fca565b96600d0154976040519a8b9a8b526101a08060208d01528b0161043991613093565b8a810360408c015261044a91613093565b6001600160a01b03871660608b01529561046e9060808b019060a01c60ff166130b8565b60ff8116151560a08a015260081c60ff16151560c089015260e08801526101008701526101208601526101408501528381036101608501526104af91613093565b906101808301520390f35b503461029457602080600319360112610564576004356104fa6104f582600052600460205260018060a01b0360036040600020015416151590565b6131c0565b8252600481526004604083200191604051809384918482549182815201918452848420935b8582821061054e5750505061053692500383612e69565b61054a604051928284938452830190612f12565b0390f35b855484526001958601958895509301920161051f565b5080fd5b5060c0366003190112610294576004356001600160401b03811161056457610594903690600401612ecb565b6024356001600160401b038111610b6c576105b3903690600401612ecb565b9060066044351015610b6c57606435151560643503610b67576105d4612ea1565b9160a4356001600160401b038111610b63576105f4903690600401612ecb565b906105fd61317f565b61060561319d565b825115610b275760006003604435141580610b1a575b15610add57610ac9576002604435148015610ac0575b610a61575b6003549361064385613107565b6003558486526004602052604086209185835584516001600160401b0381116109a5576106736001850154612f90565b601f8111610a2e575b50806020601f82116001146109c45789916109b9575b508160011b916000199060031b1c19161760018401555b8051906001600160401b0382116109a5576106c76002850154612f90565b601f8111610972575b50602090601f83116001146108fe579180600a95949261075c948b926108f3575b50508160011b916000199060031b1c19161760028401555b60038301805460ff60a01b60443560a01b1660ff60a01b1933166001600160a81b03199092169190911717905560058301805461ffff191660ff6064351515161791151560081b61ff0016919091179055565b42600682015542600782015501908051906001600160401b0382116108df579184916020969361078c8354612f90565b601f81116108a6575b508790601f831160011461083a5791806040949287946107d7989261082f575b50508160011b916000199060031b1c19161790555b3381526006875220613143565b817fe1be78f26874dcc05882a12401969658523f7a09209dd03a950cbad7677338b461080e60405193604085526040850190613093565b9261081d8682016044356130b8565b8033940390a360018055604051908152f35b0151905038806107b5565b8386528886209190601f198416875b81811061088c57509260019285926107d799966040989610610873575b505050811b0190556107ca565b015160001960f88460031b161c19169055388080610866565b8284015185558a9750600190940193928b01928b01610849565b6108cf90848752898720601f850160051c8101918b86106108d5575b601f0160051c019061312c565b38610795565b90915081906108c2565b634e487b7160e01b86526041600452602486fd5b0151905038806106f1565b906002850189526020892091895b601f198516811061095a575092600a95949260019261075c9583601f19811610610941575b505050811b016002840155610709565b015160001960f88460031b161c19169055388080610931565b9192602060018192868501518155019401920161090c565b61099f90600286018a5260208a20601f850160051c810191602086106108d557601f0160051c019061312c565b386106d0565b634e487b7160e01b88526041600452602488fd5b905086015138610692565b91506001850189526020892089925b601f1983168410610a16576001935082601f198116106109fd575b5050811b0160018401556106a9565b88015160001960f88460031b161c1916905538806109ee565b888101518255602093840193600190920191016109d3565b610a5b90600186018a5260208a20601f840160051c810191602085106108d557601f0160051c019061312c565b3861067c565b655af3107a40003410156106365760405162461bcd60e51b8152602060048201526024808201527f496e73756666696369656e742066656520666f72207075626c696320706c61796044820152631b1a5cdd60e21b6064820152608490fd5b50606435610631565b634e487b7160e01b85526021600452602485fd5b60405162461bcd60e51b8152602060048201526015602482015274496e76616c696420706c61796c697374207479706560581b6044820152606490fd5b506004604435141561061b565b60405162461bcd60e51b81526020600482015260146024820152734e616d652063616e6e6f7420626520656d70747960601b6044820152606490fd5b8480fd5b600080fd5b8280fd5b503461029457604036600319011261029457600435610b8d612e0c565b90610b9661317f565b600081815260046020526040902060030154610bbc906001600160a01b031615156131c0565b80835260046020908152604084206003015490926001600160a01b039182163303610cd8578285526004845260ff600560408720015460081c1615610c93571691338314610c4f5781845260048152600b60408520019083600052526040600020600160ff198254161790557f4486767bf1b4c9809ec2021de5f1555d0a96d0cc9d7c3008bfafd13f3c69ca8c8380a380f35b6064906040519062461bcd60e51b82526004820152601f60248201527f43616e6e6f74206164642073656c6620617320636f6c6c61626f7261746f72006044820152fd5b60405162461bcd60e51b815260048101859052601d60248201527f506c61796c697374206973206e6f7420636f6c6c61626f7261746976650000006044820152606490fd5b60405162461bcd60e51b815260048101859052602260248201527f4f6e6c792063726561746f722063616e2061646420636f6c6c61626f7261746f604482015261727360f01b6064820152608490fd5b5034610294576020806003193601126105645760043590610d4761317f565b604051634f558e7960e01b81526004810183905281816024817f00000000000000000000000000000000000000000000000000000000000000006001600160a01b03165afa8015610e75578490610e3b575b610da3915061326f565b3383526007815260408320828452815260ff604084205416159033845260078152604084209083855252610de681604085209060ff801983541691151516179055565b15610e1357337f8b6b26f48faef57225b68aa10011152eea06936cf76ff1b1c588bc32b3c00ab28380a380f35b337f13ec7b469c73f2192cb20bc24d678ae311063e6c60a7a5445d5a0c8b4f302ff68380a380f35b508181813d8311610e6e575b610e518183612e69565b81010312610e6a57610e65610da391613262565b610d99565b8380fd5b503d610e47565b6040513d86823e3d90fd5b50346102945760203660031901126102945760406020916004358152600a83522054604051908152f35b5034610294576020366003190112610294576001600160a01b03610ecc612df6565b168152600560205260408120805490600181015490600381015460048201549460ff8660101c169160066005850154940154946040519687526020870152604086015260ff86161515606086015260ff8660081c16151560808601526003821015610f5457506101209460ff9160a086015260181c1660c084015260e0830152610100820152f35b634e487b7160e01b81526021600452602490fd5b503461029457604036600319011261029457610f82612df6565b6001600160a01b031681526008602052604081208054602480359291908184116110a9575b610fb084613606565b9285925b801515806110a0575b1561105757600019810181811161104457610fd89083612f46565b505487885b86811061101b575b5015610ffb575b50610ff6906135e5565b610fb4565b846110149161100e610ff69497896135f2565b52613107565b9390610fec565b82611026828a6135f2565b511461103a5761103590613107565b610fdd565b5050600138610fe5565b634e487b7160e01b885260116004528388fd5b86848661106382613606565b925b828110611082576040516020808252819061054a90820187612f12565b8061109061109b92846135f2565b5161100e82876135f2565b611065565b50858410610fbd565b92508092610fa7565b50346102945780600319360112610294576040517f00000000000000000000000000000000000000000000000000000000000000006001600160a01b03168152602090f35b503461029457602080600319360112610564576001600160a01b0361111a612df6565b168252600581526002604083200191604051809384918482549182815201918452848420935b858282106111575750505061053692500383612e69565b8554845260019586019588955093019201611140565b50346102945760208060031936011261056457611188612df6565b6040516318160ddd60e01b81526001600160a01b03917f00000000000000000000000000000000000000000000000000000000000000008316908483600481855afa92831561132e5786936112ff575b50916111e381613606565b869490931660015b8281111561123e575050505061120082613606565b935b8281106112205750505061054a604051928284938452830190612f12565b8061122e61123992846135f2565b5161100e82886135f2565b611202565b8188526007875260408820818952875260ff6040892054168061128a575b61126f575b61126a90613107565b6111eb565b94611282818761100e61126a94896135f2565b959050611261565b50604051634f558e7960e01b8152600481018290528781602481885afa9081156112f45789916112bb575b5061125c565b90508781813d83116112ed575b6112d28183612e69565b810103126112e9576112e390613262565b386112b5565b8880fd5b503d6112c8565b6040513d8b823e3d90fd5b9092508481813d8311611327575b6113178183612e69565b81010312610b67575191386111d8565b503d61130d565b6040513d88823e3d90fd5b503461029457604036600319011261029457611353612df6565b6040516318160ddd60e01b8152906001600160a01b036020836004817f000000000000000000000000000000000000000000000000000000000000000085165afa928315610e75578493611678575b506113ae839293613606565b916113b881613606565b9185948160019116905b838111156115815750505050835b60001984810185811161156d578210156114d757855b6113f083876133df565b8281019081116114c3578110156114b35761140b81856135f2565b51600182019081831161149f576113f092826114399261142c88958a6135f2565b5111611441575b50613107565b9150506113e6565b61144b82896135f2565b51611456828a6135f2565b51611461848b6135f2565b5261146c828a6135f2565b5261149861147a838b6135f2565b5191611486818c6135f2565b51611491858d6135f2565b528a6135f2565b5238611433565b634e487b7160e01b89526011600452602489fd5b50506114be90613107565b6113d0565b634e487b7160e01b88526011600452602488fd5b5050909160243581116000146115675750602435905b6114f682613606565b9261150083613606565b945b838110611533576115258561054a88604051938493604085526040850190612f12565b908382036020850152612f12565b8061154161156292846135f2565b5161154c82886135f2565b5261155781856135f2565b5161100e82896135f2565b611502565b906114ed565b634e487b7160e01b87526011600452602487fd5b8188526009602052604088208189526020526040882054801515806115db575b6115b5575b506115b090613107565b6113c2565b876115d491836115c96115b0959b8b6135f2565b5261100e82896135f2565b96906115a6565b50604051634f558e7960e01b8152600481018390526020816024817f000000000000000000000000000000000000000000000000000000000000000089165afa90811561166d578a9161162f575b506115a1565b90506020813d602011611665575b8161164a60209383612e69565b810103126116615761165b90613262565b38611629565b8980fd5b3d915061163d565b6040513d8c823e3d90fd5b9092506020813d6020116116a4575b8161169460209383612e69565b81010312610b67575191386113a2565b3d9150611687565b503461029457806003193601126102945760206040516170808152f35b5034610294576116e96116db36612e22565b906116e461317f565b6133ec565b80f35b5034610294578060031936011261029457546040516001600160a01b039091168152602090f35b503461029457602080600319360112610564576004359061173261317f565b600082815260046020526040902060030154611758906001600160a01b031615156131c0565b8183526004815260ff6005604085200154161561187c578183526004815260408320600301546001600160a01b0316331461183857600d9082845260048152604084209033600052600c8201905260406000206117c760ff8254161580929060ff801983541691151516179055565b1561180257016117d78154613107565b905533907fa2c94cbddead40cbdc1ad582fcd12ea9bebab5491d457d4b1f1f2d0ffe2640e78380a380f35b0161180d81546135e5565b905533907f640c66fa64fd13658c12f72505e45516a1494f1b8f78a36332b10f2538306a938380a380f35b6064906040519062461bcd60e51b82526004820152601a60248201527f43616e6e6f7420666f6c6c6f77206f776e20706c61796c6973740000000000006044820152fd5b6064906040519062461bcd60e51b825260048201526016602482015275506c61796c697374206973206e6f74207075626c696360501b6044820152fd5b50346102945780600319360112610294576118d26130db565b6118da61317f565b600160ff1960025416176002557f62e78cea01bee320cd4e420270b5ea74000d11b0c9f74754ebdbfc544b05a2586020604051338152a180f35b5034610294576040366003190112610294576020906040906001600160a01b0361193c612df6565b16815260098352818120602435825283522054604051908152f35b503461029457604036600319011261029457611971612df6565b6001600160a01b031681526006602052604081208054602435929083101561029457602061199f8484612f78565b90546040519160031b1c8152f35b50346102945780600319360112610294576119c66130db565b600080546001600160a01b0319811682556001600160a01b03167f8be0079c531659141344cd1fd0a4f28419497f9722a3daafe3b4186f6b6457e08280a380f35b503461029457604036600319011261029457611a21612df6565b6001600160a01b03168152600860205260408120805460243592908310156102945760c0611a4f8484612f46565b50805490600181015490600281015460038201549060ff6005600485015494015416936040519586526020860152604085015260608401526080830152151560a0820152f35b5034610294576020366003190112610294576020906040906001600160a01b03611abd612df6565b168152600b83522054604051908152f35b503461029457604036600319011261029457600435611aeb612e0c565b90611af461317f565b600081815260046020526040902060030154611b1a906001600160a01b031615156131c0565b808352600460205260408320600301546001600160a01b039081163303611b88578184526004602052600b604085200192169182600052602052604060002060ff1981541690557f213b7098f6bea4c344296a98893000df5975db0f186aa7c5b6997768669685548380a380f35b60405162461bcd60e51b815260206004820152602560248201527f4f6e6c792063726561746f722063616e2072656d6f766520636f6c6c61626f7260448201526461746f727360d81b6064820152608490fd5b5034610294578060031936011261029457602060ff600254166040519015158152f35b503461029457604036600319011261029457611c18612df6565b6001600160a01b031681526008602090815260408220805460249391843591808311611dcb575b611c4b83969496612e8a565b93611c596040519586612e69565b838552601f19611c6885612e8a565b01875b818110611d8b5750506000198201918211875b858110611cf557604080518981528851818b01819052898b01928201908b8d5b828110611cab5784840385f35b855180518552808301518584015260408082015190860152606080820151908601526080808201519086015260a0908101511515908501529481019460c090930192600101611c9e565b81989698611d785780611d14611d0e611d7093876133df565b87612f46565b5060ff600560405192611d2684612e38565b8054845260018101548d850152600281015460408501526003810154606085015260048101546080850152015416151560a0820152611d65828c6135f2565b52611433818b6135f2565b979597611c7e565b634e487b7160e01b875260116004528287fd5b8790604099979951611d9c81612e38565b88815288838201528860408201528860608201528860808201528860a082015282828c01015201979597611c6b565b915081611c3f565b503461029457602080600319360112610564576001600160a01b03611df6612df6565b168252600681526040822091604051809384918482549182815201918452848420935b85828210611e305750505061053692500383612e69565b8554845260019586019588955093019201611e19565b5034610294576060366003190112610294576004356001600160401b03602435818111610e6a57611e7b903690600401612ecb565b90604435818111610b6357611e94903690600401612ecb565b611e9c6130db565b600084815260046020526040902060030154611ec2906001600160a01b031615156131c0565b838552602091600483526001908160408820019185519282841161209d57611eea8154612f90565b93601f9485811161211a575b5080878682116001146120bc578b916120b1575b50600019600383901b1c191690831b1790555b868852600485526002604089200192845192831161209d57611f3f8454612f90565b818111612067575b5085908311600114611fdd57928280611fbf97947f9d00291f5036473ca467b223b7ae761f0a7429c4d7baf878409c070392424964999794611fcc978d93611fd2575b501b916000199060031b1c19161790555b8688526004825242600760408a200155604051948594604086526040860190613093565b9184830390850152613093565b0390a280f35b860151925038611f8a565b83895285892091929190601f1983168a5b818110612052575092611fcc9592611fbf989592827f9d00291f5036473ca467b223b7ae761f0a7429c4d7baf878409c0703924249649b999610612039575b5050811b019055611f9b565b85015160001960f88460031b161c19169055388061202d565b87830151845592850192918801918801611fee565b61208e90858b52878b208380870160051c8201928a8810612094575b0160051c019061312c565b38611f47565b92508192612083565b634e487b7160e01b89526041600452602489fd5b905088015138611f0a565b838c52888c2085935090601f1983168d5b8b8d8383106121055750505083116120ec575b5050811b019055611f1d565b8a015160001960f88460031b161c1916905538806120e0565b840151855588969094019392830192016120cd565b61214090838c52888c208780850160051c8201928b8610612094570160051c019061312c565b38611ef6565b5034610294576080366003190112610294576004356024908135916044359060649081359061217361317f565b61217b61319d565b604051634f558e7960e01b8152600481018690526020936001600160a01b039391858185817f000000000000000000000000000000000000000000000000000000000000000089165afa801561166d578a9061262d575b6121dc915061326f565b85156125ec5781861161259e57338952600c8552620151808060408b20540490420411612585575b600b85526170806122198760408c20546133d2565b1161254457338952600b8552604089206122348782546133d2565b905561224086426133df565b91818702918783040361253157801561251e576040519261226084612e38565b888452868401908a8252604085019081526060850191428352605060808701948b865260a08801960410158552338d526008895260408d20805490600160401b82101561250b57906122b791600182018155612f46565b9690966124f857518655516001860155516002850155516003840155516004830155516005909101805460ff191691151560ff16919091179055338752600983526040872085885283526040872061230f8154613107565b9055848752600a8352604087206123268154613107565b9055851515806124d5575b6124b6575b66038d7ea4c68000840266038d7ea4c67fff19858204016124a35790603c8892049283612394575b505050507f3b62eb3c1e64201cbd7d785d32f0c9c6ed2a5e8ce05ff4740d875573db72a7ad906040519283523392a46001805580f35b7f000000000000000000000000000000000000000000000000000000000000000016803b15610b6c5782906044604051809581936309152da960e31b835233600484015288878401525af1801561249857612449575b5050907f3b62eb3c1e64201cbd7d785d32f0c9c6ed2a5e8ce05ff4740d875573db72a7ad9160405190815283828201527f170aff45e7adc6d35b6f6444088cc382ebbfedb566728d98d6d317fbe30aea8460403392a29085388061235e565b6001600160401b0382989398116124865750604052947f3b62eb3c1e64201cbd7d785d32f0c9c6ed2a5e8ce05ff4740d875573db72a7ad386123ea565b634e487b7160e01b8352604160045282fd5b6040513d8a823e3d90fd5b50634e487b7160e01b8752601160045286fd5b85875260048352600960408820016124ce8154613107565b9055612336565b506000868152600460205260409020600301546001600160a01b03161515612331565b634e487b7160e01b8e5260048e9052878efd5b634e487b7160e01b8f526041600452888ffd5b634e487b7160e01b8a526012600452838afd5b634e487b7160e01b8a526011600452838afd5b60405162461bcd60e51b815260048101869052601e818501527f4461696c79206c697374656e696e67206c696d697420657863656564656400006044820152fd5b600b8552886040812055600c85524260408a2055612204565b84620cee8d60eb1b6084926023866040519462461bcd60e51b865260048601528401527f4475726174696f6e2063616e6e6f742065786365656420747261636b206c656e6044840152820152fd5b60405162461bcd60e51b8152600481018690526019818501527f4475726174696f6e206d75737420626520706f736974697665000000000000006044820152fd5b508581813d831161265c575b6126438183612e69565b81010312611661576126576121dc91613262565b6121d2565b503d612639565b503461029457806003193601126102945761267c6130db565b60025460ff8116156126bc5760ff19166002557f5db9ee0a495bf2e6ff9c91a7834c1ba4fdd244a5e8aa4e537bd38aeae4b073aa6020604051338152a180f35b604051638dfc202b60e01b8152600490fd5b50346102945780600319360112610294576126e76130db565b47801561277157815482918291829182916001600160a01b03165af13d1561276c573d61271381612eb0565b906127216040519283612e69565b81528260203d92013e5b156127335780f35b60405162461bcd60e51b815260206004820152601160248201527015da5d1a191c985dd85b0819985a5b1959607a1b6044820152606490fd5b61272b565b60405162461bcd60e51b81526020600482015260146024820152734e6f2066756e647320746f20776974686472617760601b6044820152606490fd5b503461029457610120366003190112610294576004356024803590604435906001600160401b03808311612a8d5736602384011215612a8d578260040135916127f583612e8a565b916128036040519384612e69565b83835260209485840183819660051b83010191368311612a795784889101915b838310612a7d5750505050612836612ea1565b9160a43580151581036116615760c435926003841015612a795760e4359260ff841691828503612a7557610104359761286d61317f565b6064809411612a3b5761138889101580612a2f575b156129f357838151116129be5760408e33815260058d5220998d8b556001938d858d015560028c0192519384116129ac57600160401b84116129ac5750908e918c825485845585818110612991575b50505091528a8e208e5b838110612980575050505050906129229135600388015561290c6004880195869060ff801983541691151516179055565b845461ff00191690151560081b61ff0016178455565b62ff000063ff00000084549260181b169260101b169063ffff000019161717905560058201556006429101556040519283528201527fd4541f8107ebae89dab3777d83864bb22968c22bbb73722ae8b45d2aa508b53d60403392a280f35b825182820155918c019184016128db565b6129a4928587528620918201910161312c565b8c38856128d1565b8f634e487b7160e01b81526041600452fd5b60405162461bcd60e51b8152600481018c9052600f818501526e517565756520746f6f206c6172676560881b60448201528490fd5b60405162461bcd60e51b8152600481018c905260168185015275125b9d985b1a59081c1b185e589858dac81cdc19595960521b60448201528490fd5b50614e20891115612882565b60405162461bcd60e51b8152600481018c9052601481850152730566f6c756d65206d75737420626520302d3130360641b60448201528490fd5b8c80fd5b8a80fd5b8235815291810191889101612823565b8580fd5b5034610294578060031936011261029457602060405160648152f35b50346102945780600319360112610294576020604051655af3107a40008152f35b503461029457612add36612e22565b612ae561317f565b600082815260046020526040902060030154612b0b906001600160a01b031615156131c0565b612b1d612b183384613638565b61320c565b604051634f558e7960e01b8152600481018290526020906024907f00000000000000000000000000000000000000000000000000000000000000006001600160a01b03169083818481855afa8015612d46578790612d0c575b612b80915061326f565b848652600483526103e860046040882001541015612cd5578590858252600484528460408320948360048701918254915b828110612c5f5750505090612bc591613143565b42600785015560405192838092633c57017760e11b82528760048301525afa8015612c54576040600891612c07938891612c32575b50015192019182546133d2565b905533917f6d04f47062570652b4b7c94b81db222f316c05f0979fc28c9a564b7e6fcbc0ec8480a480f35b612c4e91503d808a833e612c468183612e69565b8101906132f7565b38612bfa565b6040513d87823e3d90fd5b91939092949550612c708286612f78565b90549060031b1c14612c9157612c8590613107565b91899493918893612bb1565b60405162461bcd60e51b8152600481018390526019818801527f547261636b20616c726561647920696e20706c61796c697374000000000000006044820152606490fd5b60405162461bcd60e51b8152600481018490526010818401526f141b185e5b1a5cdd081a5cc8199d5b1b60821b6044820152606490fd5b508381813d8311612d3f575b612d228183612e69565b81010312612d3b57612d36612b8091613262565b612b76565b8680fd5b503d612d18565b6040513d89823e3d90fd5b50346102945780600319360112610294576040517f00000000000000000000000000000000000000000000000000000000000000006001600160a01b03168152602090f35b5034610294576020366003190112610294576020906040906001600160a01b03612dbe612df6565b168152600c83522054604051908152f35b9050346105645760203660031901126105645760406020926004358152600a845220548152f35b600435906001600160a01b0382168203610b6757565b602435906001600160a01b0382168203610b6757565b6040906003190112610b67576004359060243590565b60c081019081106001600160401b03821117612e5357604052565b634e487b7160e01b600052604160045260246000fd5b90601f801991011681019081106001600160401b03821117612e5357604052565b6001600160401b038111612e535760051b60200190565b608435908115158203610b6757565b6001600160401b038111612e5357601f01601f191660200190565b81601f82011215610b6757803590612ee282612eb0565b92612ef06040519485612e69565b82845260208383010111610b6757816000926020809301838601378301015290565b90815180825260208080930193019160005b828110612f32575050505090565b835185529381019392810192600101612f24565b8054821015612f62576000526006602060002091020190600090565b634e487b7160e01b600052603260045260246000fd5b8054821015612f625760005260206000200190600090565b90600182811c92168015612fc0575b6020831014612faa57565b634e487b7160e01b600052602260045260246000fd5b91607f1691612f9f565b9060405191826000825492612fde84612f90565b90818452600194858116908160001461304d575060011461300a575b505061300892500383612e69565b565b9093915060005260209081600020936000915b81831061303557505061300893508201013880612ffa565b8554888401850152948501948794509183019161301d565b91505061300894506020925060ff191682840152151560051b8201013880612ffa565b60005b8381106130835750506000910152565b8181015183820152602001613073565b906020916130ac81518092818552858086019101613070565b601f01601f1916010190565b9060068210156130c55752565b634e487b7160e01b600052602160045260246000fd5b6000546001600160a01b031633036130ef57565b60405163118cdaa760e01b8152336004820152602490fd5b60001981146131165760010190565b634e487b7160e01b600052601160045260246000fd5b818110613137575050565b6000815560010161312c565b90815491600160401b831015612e53578261316691600161300895018155612f78565b90919082549060031b91821b91600019901b1916179055565b60ff6002541661318b57565b60405163d93c066560e01b8152600490fd5b6002600154146131ae576002600155565b604051633ee5aeb560e01b8152600490fd5b156131c757565b60405162461bcd60e51b815260206004820152601760248201527f506c61796c69737420646f6573206e6f742065786973740000000000000000006044820152606490fd5b1561321357565b60405162461bcd60e51b815260206004820152602160248201527f4e6f7420617574686f72697a656420746f206d6f6469667920706c61796c69736044820152601d60fa1b6064820152608490fd5b51908115158203610b6757565b1561327657565b60405162461bcd60e51b8152602060048201526014602482015273151c9858dac8191bd95cc81b9bdd08195e1a5cdd60621b6044820152606490fd5b81601f82011215610b675780516132c881612eb0565b926132d66040519485612e69565b81845260208284010111610b67576132f49160208085019101613070565b90565b90602082820312610b675781516001600160401b0392838211610b675701610100928382840312610b675760405193840184811082821117612e53576040528151818111610b67578361334b9184016132b2565b84526020820151818111610b6757836133659184016132b2565b60208501526040828101519085015260608201516001600160a01b0381168103610b675760608501526080820151608085015260a0820151908111610b675760e0926133b29183016132b2565b60a08401526133c360c08201613262565b60c0840152015160e082015290565b9190820180921161311657565b9190820391821161311657565b600081815260046020526040902060030154909190613415906001600160a01b031615156131c0565b613422612b183384613638565b600090828252600492836020526040808420908490868301915b8254808210156135a25786906134528386612f78565b929054600393841b1c1461347057505061346b90613107565b61343c565b9290949596979891815191633c57017760e11b835289848401526024928b81858160018060a01b037f0000000000000000000000000000000000000000000000000000000000000000165afa908115613598578c9161357e575b5001516134dc600889019182546133df565b90556000199380850190811161356c57906131666134fd61350a9388612f78565b905490891b1c9187612f78565b835491821561355b5750508101926135228484612f78565b81939154921b1b19169055556007429101557f5720f6e87813016a82cef6f17cce6a3e6be2f9e04dbb89dc59a594145bfcb63f339380a4565b634e487b7160e01b8a526031905288fd5b634e487b7160e01b8b5260118452828bfd5b61359291503d808e833e612c468183612e69565b386134ca565b82513d8e823e3d90fd5b825162461bcd60e51b81526020818b0152601b60248201527f547261636b206e6f7420666f756e6420696e20706c61796c69737400000000006044820152606490fd5b8015613116576000190190565b8051821015612f625760209160051b010190565b9061361082612e8a565b61361d6040519182612e69565b828152809261362e601f1991612e8a565b0190602036910137565b600090815260046020526040902060038101546001600160a01b03928316921682149190821561366757505090565b600581015460081c60ff169250908261367f57505090565b600b92506000520160205260ff604060002054169056fea2646970667358221220ad279f0419bff05c41af9c59c30bdb1f1fe7e104ec6261aafe925c9bd066a39164736f6c63430008140033",
  "linkReferences": {},
  "deployedLinkReferences": {}
}