{
  "_format": "hh-sol-artifact-1",
  "contractName": "HiBeatsMarketplace",
  "sourceName": "contracts/HiBeatsMarketplaceAdvanced.sol",
  "abi": [
    {
      "inputs": [
        {
          "internalType": "address",
          "name": "_hiBeatsNFT",
          "type": "address"
        },
        {
          "internalType": "address",
          "name": "_beatsToken",
          "type": "address"
        },
        {
          "internalType": "address",
          "name": "_feeRecipient",
          "type": "address"
        }
      ],
      "stateMutability": "nonpayable",
      "type": "constructor"
    },
    {
      "inputs": [],
      "name": "EnforcedPause",
      "type": "error"
    },
    {
      "inputs": [],
      "name": "ExpectedPause",
      "type": "error"
    },
    {
      "inputs": [
        {
          "internalType": "address",
          "name": "owner",
          "type": "address"
        }
      ],
      "name": "OwnableInvalidOwner",
      "type": "error"
    },
    {
      "inputs": [
        {
          "internalType": "address",
          "name": "account",
          "type": "address"
        }
      ],
      "name": "OwnableUnauthorizedAccount",
      "type": "error"
    },
    {
      "inputs": [],
      "name": "ReentrancyGuardReentrantCall",
      "type": "error"
    },
    {
      "inputs": [
        {
          "internalType": "address",
          "name": "token",
          "type": "address"
        }
      ],
      "name": "SafeERC20FailedOperation",
      "type": "error"
    },
    {
      "anonymous": false,
      "inputs": [
        {
          "indexed": true,
          "internalType": "uint256",
          "name": "tokenId",
          "type": "uint256"
        },
        {
          "indexed": true,
          "internalType": "address",
          "name": "seller",
          "type": "address"
        },
        {
          "indexed": false,
          "internalType": "uint256",
          "name": "startPrice",
          "type": "uint256"
        },
        {
          "indexed": false,
          "internalType": "uint256",
          "name": "reservePrice",
          "type": "uint256"
        },
        {
          "indexed": false,
          "internalType": "uint256",
          "name": "endTime",
          "type": "uint256"
        },
        {
          "indexed": false,
          "internalType": "bool",
          "name": "isBeatsToken",
          "type": "bool"
        }
      ],
      "name": "AuctionCreated",
      "type": "event"
    },
    {
      "anonymous": false,
      "inputs": [
        {
          "indexed": true,
          "internalType": "uint256",
          "name": "tokenId",
          "type": "uint256"
        },
        {
          "indexed": true,
          "internalType": "address",
          "name": "winner",
          "type": "address"
        },
        {
          "indexed": false,
          "internalType": "uint256",
          "name": "finalPrice",
          "type": "uint256"
        }
      ],
      "name": "AuctionEnded",
      "type": "event"
    },
    {
      "anonymous": false,
      "inputs": [
        {
          "indexed": true,
          "internalType": "uint256",
          "name": "tokenId",
          "type": "uint256"
        },
        {
          "indexed": true,
          "internalType": "address",
          "name": "bidder",
          "type": "address"
        },
        {
          "indexed": false,
          "internalType": "uint256",
          "name": "amount",
          "type": "uint256"
        },
        {
          "indexed": false,
          "internalType": "uint256",
          "name": "timestamp",
          "type": "uint256"
        }
      ],
      "name": "BidPlaced",
      "type": "event"
    },
    {
      "anonymous": false,
      "inputs": [
        {
          "indexed": true,
          "internalType": "uint256",
          "name": "tokenId",
          "type": "uint256"
        },
        {
          "indexed": true,
          "internalType": "address",
          "name": "seller",
          "type": "address"
        },
        {
          "indexed": true,
          "internalType": "address",
          "name": "buyer",
          "type": "address"
        },
        {
          "indexed": false,
          "internalType": "uint256",
          "name": "amount",
          "type": "uint256"
        }
      ],
      "name": "OfferAccepted",
      "type": "event"
    },
    {
      "anonymous": false,
      "inputs": [
        {
          "indexed": true,
          "internalType": "uint256",
          "name": "tokenId",
          "type": "uint256"
        },
        {
          "indexed": true,
          "internalType": "address",
          "name": "buyer",
          "type": "address"
        },
        {
          "indexed": false,
          "internalType": "uint256",
          "name": "amount",
          "type": "uint256"
        }
      ],
      "name": "OfferCancelled",
      "type": "event"
    },
    {
      "anonymous": false,
      "inputs": [
        {
          "indexed": true,
          "internalType": "uint256",
          "name": "tokenId",
          "type": "uint256"
        },
        {
          "indexed": true,
          "internalType": "address",
          "name": "buyer",
          "type": "address"
        },
        {
          "indexed": false,
          "internalType": "uint256",
          "name": "amount",
          "type": "uint256"
        },
        {
          "indexed": false,
          "internalType": "bool",
          "name": "isBeatsToken",
          "type": "bool"
        },
        {
          "indexed": false,
          "internalType": "uint256",
          "name": "expiresAt",
          "type": "uint256"
        }
      ],
      "name": "OfferMade",
      "type": "event"
    },
    {
      "anonymous": false,
      "inputs": [
        {
          "indexed": true,
          "internalType": "address",
          "name": "previousOwner",
          "type": "address"
        },
        {
          "indexed": true,
          "internalType": "address",
          "name": "newOwner",
          "type": "address"
        }
      ],
      "name": "OwnershipTransferred",
      "type": "event"
    },
    {
      "anonymous": false,
      "inputs": [
        {
          "indexed": false,
          "internalType": "address",
          "name": "account",
          "type": "address"
        }
      ],
      "name": "Paused",
      "type": "event"
    },
    {
      "anonymous": false,
      "inputs": [
        {
          "indexed": true,
          "internalType": "uint256",
          "name": "tokenId",
          "type": "uint256"
        },
        {
          "indexed": true,
          "internalType": "address",
          "name": "creator",
          "type": "address"
        },
        {
          "indexed": false,
          "internalType": "uint256",
          "name": "amount",
          "type": "uint256"
        }
      ],
      "name": "RoyaltyPaid",
      "type": "event"
    },
    {
      "anonymous": false,
      "inputs": [
        {
          "indexed": true,
          "internalType": "address",
          "name": "seller",
          "type": "address"
        },
        {
          "indexed": false,
          "internalType": "bool",
          "name": "verified",
          "type": "bool"
        }
      ],
      "name": "SellerVerified",
      "type": "event"
    },
    {
      "anonymous": false,
      "inputs": [
        {
          "indexed": true,
          "internalType": "uint256",
          "name": "tokenId",
          "type": "uint256"
        },
        {
          "indexed": true,
          "internalType": "address",
          "name": "seller",
          "type": "address"
        },
        {
          "indexed": false,
          "internalType": "uint256",
          "name": "price",
          "type": "uint256"
        },
        {
          "indexed": false,
          "internalType": "bool",
          "name": "isBeatsToken",
          "type": "bool"
        },
        {
          "indexed": false,
          "internalType": "string",
          "name": "category",
          "type": "string"
        }
      ],
      "name": "TokenListed",
      "type": "event"
    },
    {
      "anonymous": false,
      "inputs": [
        {
          "indexed": true,
          "internalType": "uint256",
          "name": "tokenId",
          "type": "uint256"
        },
        {
          "indexed": true,
          "internalType": "address",
          "name": "seller",
          "type": "address"
        },
        {
          "indexed": true,
          "internalType": "address",
          "name": "buyer",
          "type": "address"
        },
        {
          "indexed": false,
          "internalType": "uint256",
          "name": "price",
          "type": "uint256"
        },
        {
          "indexed": false,
          "internalType": "bool",
          "name": "isBeatsToken",
          "type": "bool"
        }
      ],
      "name": "TokenSold",
      "type": "event"
    },
    {
      "anonymous": false,
      "inputs": [
        {
          "indexed": true,
          "internalType": "uint256",
          "name": "tokenId",
          "type": "uint256"
        },
        {
          "indexed": true,
          "internalType": "address",
          "name": "seller",
          "type": "address"
        }
      ],
      "name": "TokenUnlisted",
      "type": "event"
    },
    {
      "anonymous": false,
      "inputs": [
        {
          "indexed": false,
          "internalType": "address",
          "name": "account",
          "type": "address"
        }
      ],
      "name": "Unpaused",
      "type": "event"
    },
    {
      "inputs": [
        {
          "internalType": "uint256",
          "name": "tokenId",
          "type": "uint256"
        },
        {
          "internalType": "uint256",
          "name": "offerIndex",
          "type": "uint256"
        }
      ],
      "name": "acceptOffer",
      "outputs": [],
      "stateMutability": "nonpayable",
      "type": "function"
    },
    {
      "inputs": [],
      "name": "auctionExtensionTime",
      "outputs": [
        {
          "internalType": "uint256",
          "name": "",
          "type": "uint256"
        }
      ],
      "stateMutability": "view",
      "type": "function"
    },
    {
      "inputs": [
        {
          "internalType": "uint256",
          "name": "",
          "type": "uint256"
        }
      ],
      "name": "auctions",
      "outputs": [
        {
          "internalType": "address",
          "name": "seller",
          "type": "address"
        },
        {
          "internalType": "uint256",
          "name": "startPrice",
          "type": "uint256"
        },
        {
          "internalType": "uint256",
          "name": "reservePrice",
          "type": "uint256"
        },
        {
          "internalType": "uint256",
          "name": "currentBid",
          "type": "uint256"
        },
        {
          "internalType": "address",
          "name": "currentBidder",
          "type": "address"
        },
        {
          "internalType": "bool",
          "name": "isBeatsToken",
          "type": "bool"
        },
        {
          "internalType": "uint256",
          "name": "startTime",
          "type": "uint256"
        },
        {
          "internalType": "uint256",
          "name": "endTime",
          "type": "uint256"
        },
        {
          "internalType": "bool",
          "name": "isActive",
          "type": "bool"
        },
        {
          "internalType": "string",
          "name": "category",
          "type": "string"
        }
      ],
      "stateMutability": "view",
      "type": "function"
    },
    {
      "inputs": [],
      "name": "beatsToken",
      "outputs": [
        {
          "internalType": "contract IERC20",
          "name": "",
          "type": "address"
        }
      ],
      "stateMutability": "view",
      "type": "function"
    },
    {
      "inputs": [
        {
          "internalType": "address",
          "name": "",
          "type": "address"
        }
      ],
      "name": "blacklistedUsers",
      "outputs": [
        {
          "internalType": "bool",
          "name": "",
          "type": "bool"
        }
      ],
      "stateMutability": "view",
      "type": "function"
    },
    {
      "inputs": [
        {
          "internalType": "uint256",
          "name": "tokenId",
          "type": "uint256"
        }
      ],
      "name": "buyToken",
      "outputs": [],
      "stateMutability": "payable",
      "type": "function"
    },
    {
      "inputs": [
        {
          "internalType": "uint256",
          "name": "tokenId",
          "type": "uint256"
        },
        {
          "internalType": "uint256",
          "name": "offerIndex",
          "type": "uint256"
        }
      ],
      "name": "cancelOffer",
      "outputs": [],
      "stateMutability": "nonpayable",
      "type": "function"
    },
    {
      "inputs": [
        {
          "internalType": "string",
          "name": "",
          "type": "string"
        },
        {
          "internalType": "uint256",
          "name": "",
          "type": "uint256"
        }
      ],
      "name": "categoryListings",
      "outputs": [
        {
          "internalType": "uint256",
          "name": "",
          "type": "uint256"
        }
      ],
      "stateMutability": "view",
      "type": "function"
    },
    {
      "inputs": [],
      "name": "collectionStats",
      "outputs": [
        {
          "internalType": "uint256",
          "name": "totalVolume",
          "type": "uint256"
        },
        {
          "internalType": "uint256",
          "name": "floorPrice",
          "type": "uint256"
        },
        {
          "internalType": "uint256",
          "name": "totalSales",
          "type": "uint256"
        },
        {
          "internalType": "uint256",
          "name": "averagePrice",
          "type": "uint256"
        },
        {
          "internalType": "uint256",
          "name": "highestSale",
          "type": "uint256"
        }
      ],
      "stateMutability": "view",
      "type": "function"
    },
    {
      "inputs": [
        {
          "internalType": "uint256",
          "name": "tokenId",
          "type": "uint256"
        },
        {
          "internalType": "uint256",
          "name": "startPrice",
          "type": "uint256"
        },
        {
          "internalType": "uint256",
          "name": "reservePrice",
          "type": "uint256"
        },
        {
          "internalType": "uint256",
          "name": "duration",
          "type": "uint256"
        },
        {
          "internalType": "bool",
          "name": "isBeatsToken",
          "type": "bool"
        },
        {
          "internalType": "string",
          "name": "category",
          "type": "string"
        }
      ],
      "name": "createAuction",
      "outputs": [],
      "stateMutability": "nonpayable",
      "type": "function"
    },
    {
      "inputs": [
        {
          "internalType": "address payable",
          "name": "recipient",
          "type": "address"
        }
      ],
      "name": "emergencyWithdraw",
      "outputs": [],
      "stateMutability": "nonpayable",
      "type": "function"
    },
    {
      "inputs": [
        {
          "internalType": "uint256",
          "name": "tokenId",
          "type": "uint256"
        }
      ],
      "name": "endAuction",
      "outputs": [],
      "stateMutability": "nonpayable",
      "type": "function"
    },
    {
      "inputs": [
        {
          "internalType": "uint256",
          "name": "",
          "type": "uint256"
        }
      ],
      "name": "featuredListings",
      "outputs": [
        {
          "internalType": "bool",
          "name": "",
          "type": "bool"
        }
      ],
      "stateMutability": "view",
      "type": "function"
    },
    {
      "inputs": [],
      "name": "feeRecipient",
      "outputs": [
        {
          "internalType": "address",
          "name": "",
          "type": "address"
        }
      ],
      "stateMutability": "view",
      "type": "function"
    },
    {
      "inputs": [
        {
          "internalType": "uint256",
          "name": "tokenId",
          "type": "uint256"
        }
      ],
      "name": "getAuction",
      "outputs": [
        {
          "components": [
            {
              "internalType": "address",
              "name": "seller",
              "type": "address"
            },
            {
              "internalType": "uint256",
              "name": "startPrice",
              "type": "uint256"
            },
            {
              "internalType": "uint256",
              "name": "reservePrice",
              "type": "uint256"
            },
            {
              "internalType": "uint256",
              "name": "currentBid",
              "type": "uint256"
            },
            {
              "internalType": "address",
              "name": "currentBidder",
              "type": "address"
            },
            {
              "internalType": "bool",
              "name": "isBeatsToken",
              "type": "bool"
            },
            {
              "internalType": "uint256",
              "name": "startTime",
              "type": "uint256"
            },
            {
              "internalType": "uint256",
              "name": "endTime",
              "type": "uint256"
            },
            {
              "internalType": "bool",
              "name": "isActive",
              "type": "bool"
            },
            {
              "internalType": "string",
              "name": "category",
              "type": "string"
            },
            {
              "internalType": "address[]",
              "name": "bidders",
              "type": "address[]"
            },
            {
              "internalType": "uint256[]",
              "name": "bidAmounts",
              "type": "uint256[]"
            }
          ],
          "internalType": "struct HiBeatsMarketplace.Auction",
          "name": "",
          "type": "tuple"
        }
      ],
      "stateMutability": "view",
      "type": "function"
    },
    {
      "inputs": [
        {
          "internalType": "string",
          "name": "category",
          "type": "string"
        }
      ],
      "name": "getCategoryListings",
      "outputs": [
        {
          "internalType": "uint256[]",
          "name": "",
          "type": "uint256[]"
        }
      ],
      "stateMutability": "view",
      "type": "function"
    },
    {
      "inputs": [],
      "name": "getCollectionStats",
      "outputs": [
        {
          "components": [
            {
              "internalType": "uint256",
              "name": "totalVolume",
              "type": "uint256"
            },
            {
              "internalType": "uint256",
              "name": "floorPrice",
              "type": "uint256"
            },
            {
              "internalType": "uint256",
              "name": "totalSales",
              "type": "uint256"
            },
            {
              "internalType": "uint256",
              "name": "averagePrice",
              "type": "uint256"
            },
            {
              "internalType": "uint256",
              "name": "highestSale",
              "type": "uint256"
            },
            {
              "internalType": "address[]",
              "name": "topTraders",
              "type": "address[]"
            }
          ],
          "internalType": "struct HiBeatsMarketplace.CollectionStats",
          "name": "",
          "type": "tuple"
        }
      ],
      "stateMutability": "view",
      "type": "function"
    },
    {
      "inputs": [
        {
          "internalType": "uint256",
          "name": "tokenId",
          "type": "uint256"
        }
      ],
      "name": "getListing",
      "outputs": [
        {
          "components": [
            {
              "internalType": "address",
              "name": "seller",
              "type": "address"
            },
            {
              "internalType": "uint256",
              "name": "price",
              "type": "uint256"
            },
            {
              "internalType": "bool",
              "name": "isBeatsToken",
              "type": "bool"
            },
            {
              "internalType": "bool",
              "name": "isActive",
              "type": "bool"
            },
            {
              "internalType": "uint256",
              "name": "listedAt",
              "type": "uint256"
            },
            {
              "internalType": "uint256",
              "name": "expiresAt",
              "type": "uint256"
            },
            {
              "internalType": "string",
              "name": "category",
              "type": "string"
            },
            {
              "internalType": "string[]",
              "name": "tags",
              "type": "string[]"
            }
          ],
          "internalType": "struct HiBeatsMarketplace.Listing",
          "name": "",
          "type": "tuple"
        }
      ],
      "stateMutability": "view",
      "type": "function"
    },
    {
      "inputs": [
        {
          "internalType": "uint256",
          "name": "limit",
          "type": "uint256"
        }
      ],
      "name": "getRecentTrades",
      "outputs": [
        {
          "components": [
            {
              "internalType": "uint256",
              "name": "tokenId",
              "type": "uint256"
            },
            {
              "internalType": "address",
              "name": "seller",
              "type": "address"
            },
            {
              "internalType": "address",
              "name": "buyer",
              "type": "address"
            },
            {
              "internalType": "uint256",
              "name": "price",
              "type": "uint256"
            },
            {
              "internalType": "bool",
              "name": "isBeatsToken",
              "type": "bool"
            },
            {
              "internalType": "uint256",
              "name": "timestamp",
              "type": "uint256"
            },
            {
              "internalType": "string",
              "name": "tradeType",
              "type": "string"
            }
          ],
          "internalType": "struct HiBeatsMarketplace.TradeActivity[]",
          "name": "",
          "type": "tuple[]"
        }
      ],
      "stateMutability": "view",
      "type": "function"
    },
    {
      "inputs": [
        {
          "internalType": "uint256",
          "name": "tokenId",
          "type": "uint256"
        }
      ],
      "name": "getTokenOffers",
      "outputs": [
        {
          "components": [
            {
              "internalType": "address",
              "name": "buyer",
              "type": "address"
            },
            {
              "internalType": "uint256",
              "name": "amount",
              "type": "uint256"
            },
            {
              "internalType": "bool",
              "name": "isBeatsToken",
              "type": "bool"
            },
            {
              "internalType": "uint256",
              "name": "expiresAt",
              "type": "uint256"
            },
            {
              "internalType": "bool",
              "name": "isActive",
              "type": "bool"
            },
            {
              "internalType": "string",
              "name": "message",
              "type": "string"
            }
          ],
          "internalType": "struct HiBeatsMarketplace.Offer[]",
          "name": "",
          "type": "tuple[]"
        }
      ],
      "stateMutability": "view",
      "type": "function"
    },
    {
      "inputs": [
        {
          "internalType": "address",
          "name": "user",
          "type": "address"
        }
      ],
      "name": "getUserListings",
      "outputs": [
        {
          "internalType": "uint256[]",
          "name": "",
          "type": "uint256[]"
        }
      ],
      "stateMutability": "view",
      "type": "function"
    },
    {
      "inputs": [],
      "name": "hiBeatsNFT",
      "outputs": [
        {
          "internalType": "contract IHiBeatsNFT",
          "name": "",
          "type": "address"
        }
      ],
      "stateMutability": "view",
      "type": "function"
    },
    {
      "inputs": [
        {
          "internalType": "uint256",
          "name": "tokenId",
          "type": "uint256"
        },
        {
          "internalType": "uint256",
          "name": "price",
          "type": "uint256"
        },
        {
          "internalType": "bool",
          "name": "isBeatsToken",
          "type": "bool"
        },
        {
          "internalType": "uint256",
          "name": "duration",
          "type": "uint256"
        },
        {
          "internalType": "string",
          "name": "category",
          "type": "string"
        },
        {
          "internalType": "string[]",
          "name": "tags",
          "type": "string[]"
        }
      ],
      "name": "listToken",
      "outputs": [],
      "stateMutability": "nonpayable",
      "type": "function"
    },
    {
      "inputs": [
        {
          "internalType": "uint256",
          "name": "",
          "type": "uint256"
        }
      ],
      "name": "listings",
      "outputs": [
        {
          "internalType": "address",
          "name": "seller",
          "type": "address"
        },
        {
          "internalType": "uint256",
          "name": "price",
          "type": "uint256"
        },
        {
          "internalType": "bool",
          "name": "isBeatsToken",
          "type": "bool"
        },
        {
          "internalType": "bool",
          "name": "isActive",
          "type": "bool"
        },
        {
          "internalType": "uint256",
          "name": "listedAt",
          "type": "uint256"
        },
        {
          "internalType": "uint256",
          "name": "expiresAt",
          "type": "uint256"
        },
        {
          "internalType": "string",
          "name": "category",
          "type": "string"
        }
      ],
      "stateMutability": "view",
      "type": "function"
    },
    {
      "inputs": [
        {
          "internalType": "uint256",
          "name": "tokenId",
          "type": "uint256"
        },
        {
          "internalType": "uint256",
          "name": "amount",
          "type": "uint256"
        },
        {
          "internalType": "bool",
          "name": "isBeatsToken",
          "type": "bool"
        },
        {
          "internalType": "uint256",
          "name": "duration",
          "type": "uint256"
        },
        {
          "internalType": "string",
          "name": "message",
          "type": "string"
        }
      ],
      "name": "makeOffer",
      "outputs": [],
      "stateMutability": "payable",
      "type": "function"
    },
    {
      "inputs": [],
      "name": "maxAuctionDuration",
      "outputs": [
        {
          "internalType": "uint256",
          "name": "",
          "type": "uint256"
        }
      ],
      "stateMutability": "view",
      "type": "function"
    },
    {
      "inputs": [],
      "name": "maxOfferDuration",
      "outputs": [
        {
          "internalType": "uint256",
          "name": "",
          "type": "uint256"
        }
      ],
      "stateMutability": "view",
      "type": "function"
    },
    {
      "inputs": [],
      "name": "minAuctionDuration",
      "outputs": [
        {
          "internalType": "uint256",
          "name": "",
          "type": "uint256"
        }
      ],
      "stateMutability": "view",
      "type": "function"
    },
    {
      "inputs": [],
      "name": "minListingPrice",
      "outputs": [
        {
          "internalType": "uint256",
          "name": "",
          "type": "uint256"
        }
      ],
      "stateMutability": "view",
      "type": "function"
    },
    {
      "inputs": [],
      "name": "owner",
      "outputs": [
        {
          "internalType": "address",
          "name": "",
          "type": "address"
        }
      ],
      "stateMutability": "view",
      "type": "function"
    },
    {
      "inputs": [],
      "name": "pause",
      "outputs": [],
      "stateMutability": "nonpayable",
      "type": "function"
    },
    {
      "inputs": [],
      "name": "paused",
      "outputs": [
        {
          "internalType": "bool",
          "name": "",
          "type": "bool"
        }
      ],
      "stateMutability": "view",
      "type": "function"
    },
    {
      "inputs": [
        {
          "internalType": "uint256",
          "name": "tokenId",
          "type": "uint256"
        },
        {
          "internalType": "uint256",
          "name": "bidAmount",
          "type": "uint256"
        }
      ],
      "name": "placeBid",
      "outputs": [],
      "stateMutability": "payable",
      "type": "function"
    },
    {
      "inputs": [],
      "name": "platformFeeRate",
      "outputs": [
        {
          "internalType": "uint256",
          "name": "",
          "type": "uint256"
        }
      ],
      "stateMutability": "view",
      "type": "function"
    },
    {
      "inputs": [],
      "name": "renounceOwnership",
      "outputs": [],
      "stateMutability": "nonpayable",
      "type": "function"
    },
    {
      "inputs": [],
      "name": "royaltiesContract",
      "outputs": [
        {
          "internalType": "contract IHiBeatsRoyalties",
          "name": "",
          "type": "address"
        }
      ],
      "stateMutability": "view",
      "type": "function"
    },
    {
      "inputs": [
        {
          "internalType": "uint256",
          "name": "tokenId",
          "type": "uint256"
        },
        {
          "internalType": "bool",
          "name": "featured",
          "type": "bool"
        }
      ],
      "name": "setFeaturedListing",
      "outputs": [],
      "stateMutability": "nonpayable",
      "type": "function"
    },
    {
      "inputs": [
        {
          "internalType": "address",
          "name": "_royaltiesContract",
          "type": "address"
        }
      ],
      "name": "setRoyaltiesContract",
      "outputs": [],
      "stateMutability": "nonpayable",
      "type": "function"
    },
    {
      "inputs": [
        {
          "internalType": "address",
          "name": "seller",
          "type": "address"
        },
        {
          "internalType": "bool",
          "name": "verified",
          "type": "bool"
        }
      ],
      "name": "setSellerVerification",
      "outputs": [],
      "stateMutability": "nonpayable",
      "type": "function"
    },
    {
      "inputs": [
        {
          "internalType": "address",
          "name": "user",
          "type": "address"
        },
        {
          "internalType": "bool",
          "name": "blacklisted",
          "type": "bool"
        }
      ],
      "name": "setUserBlacklist",
      "outputs": [],
      "stateMutability": "nonpayable",
      "type": "function"
    },
    {
      "inputs": [
        {
          "internalType": "uint256",
          "name": "",
          "type": "uint256"
        },
        {
          "internalType": "uint256",
          "name": "",
          "type": "uint256"
        }
      ],
      "name": "tokenOffers",
      "outputs": [
        {
          "internalType": "address",
          "name": "buyer",
          "type": "address"
        },
        {
          "internalType": "uint256",
          "name": "amount",
          "type": "uint256"
        },
        {
          "internalType": "bool",
          "name": "isBeatsToken",
          "type": "bool"
        },
        {
          "internalType": "uint256",
          "name": "expiresAt",
          "type": "uint256"
        },
        {
          "internalType": "bool",
          "name": "isActive",
          "type": "bool"
        },
        {
          "internalType": "string",
          "name": "message",
          "type": "string"
        }
      ],
      "stateMutability": "view",
      "type": "function"
    },
    {
      "inputs": [
        {
          "internalType": "uint256",
          "name": "",
          "type": "uint256"
        }
      ],
      "name": "tokenTradeCount",
      "outputs": [
        {
          "internalType": "uint256",
          "name": "",
          "type": "uint256"
        }
      ],
      "stateMutability": "view",
      "type": "function"
    },
    {
      "inputs": [
        {
          "internalType": "uint256",
          "name": "",
          "type": "uint256"
        }
      ],
      "name": "tradeHistory",
      "outputs": [
        {
          "internalType": "uint256",
          "name": "tokenId",
          "type": "uint256"
        },
        {
          "internalType": "address",
          "name": "seller",
          "type": "address"
        },
        {
          "internalType": "address",
          "name": "buyer",
          "type": "address"
        },
        {
          "internalType": "uint256",
          "name": "price",
          "type": "uint256"
        },
        {
          "internalType": "bool",
          "name": "isBeatsToken",
          "type": "bool"
        },
        {
          "internalType": "uint256",
          "name": "timestamp",
          "type": "uint256"
        },
        {
          "internalType": "string",
          "name": "tradeType",
          "type": "string"
        }
      ],
      "stateMutability": "view",
      "type": "function"
    },
    {
      "inputs": [
        {
          "internalType": "address",
          "name": "newOwner",
          "type": "address"
        }
      ],
      "name": "transferOwnership",
      "outputs": [],
      "stateMutability": "nonpayable",
      "type": "function"
    },
    {
      "inputs": [
        {
          "internalType": "uint256",
          "name": "tokenId",
          "type": "uint256"
        }
      ],
      "name": "unlistToken",
      "outputs": [],
      "stateMutability": "nonpayable",
      "type": "function"
    },
    {
      "inputs": [],
      "name": "unpause",
      "outputs": [],
      "stateMutability": "nonpayable",
      "type": "function"
    },
    {
      "inputs": [
        {
          "internalType": "address",
          "name": "newRecipient",
          "type": "address"
        }
      ],
      "name": "updateFeeRecipient",
      "outputs": [],
      "stateMutability": "nonpayable",
      "type": "function"
    },
    {
      "inputs": [
        {
          "internalType": "uint256",
          "name": "newFeeRate",
          "type": "uint256"
        }
      ],
      "name": "updatePlatformFee",
      "outputs": [],
      "stateMutability": "nonpayable",
      "type": "function"
    },
    {
      "inputs": [
        {
          "internalType": "address",
          "name": "",
          "type": "address"
        },
        {
          "internalType": "uint256",
          "name": "",
          "type": "uint256"
        }
      ],
      "name": "userBids",
      "outputs": [
        {
          "internalType": "uint256",
          "name": "",
          "type": "uint256"
        }
      ],
      "stateMutability": "view",
      "type": "function"
    },
    {
      "inputs": [
        {
          "internalType": "address",
          "name": "",
          "type": "address"
        },
        {
          "internalType": "uint256",
          "name": "",
          "type": "uint256"
        }
      ],
      "name": "userListings",
      "outputs": [
        {
          "internalType": "uint256",
          "name": "",
          "type": "uint256"
        }
      ],
      "stateMutability": "view",
      "type": "function"
    },
    {
      "inputs": [
        {
          "internalType": "address",
          "name": "",
          "type": "address"
        }
      ],
      "name": "userSalesCount",
      "outputs": [
        {
          "internalType": "uint256",
          "name": "",
          "type": "uint256"
        }
      ],
      "stateMutability": "view",
      "type": "function"
    },
    {
      "inputs": [
        {
          "internalType": "address",
          "name": "",
          "type": "address"
        }
      ],
      "name": "userTradingVolume",
      "outputs": [
        {
          "internalType": "uint256",
          "name": "",
          "type": "uint256"
        }
      ],
      "stateMutability": "view",
      "type": "function"
    },
    {
      "inputs": [
        {
          "internalType": "address",
          "name": "",
          "type": "address"
        },
        {
          "internalType": "uint256",
          "name": "",
          "type": "uint256"
        }
      ],
      "name": "userWatchlist",
      "outputs": [
        {
          "internalType": "string",
          "name": "",
          "type": "string"
        }
      ],
      "stateMutability": "view",
      "type": "function"
    },
    {
      "inputs": [
        {
          "internalType": "address",
          "name": "",
          "type": "address"
        }
      ],
      "name": "verifiedSellers",
      "outputs": [
        {
          "internalType": "bool",
          "name": "",
          "type": "bool"
        }
      ],
      "stateMutability": "view",
      "type": "function"
    },
    {
      "stateMutability": "payable",
      "type": "receive"
    }
  ],
  "bytecode": "0x60c034620001e457601f6200582e38819003918201601f19168301916001600160401b03831184841017620001e957808492606094604052833981010312620001e4576200004d81620001ff565b6200006960406200006160208501620001ff565b9301620001ff565b903315620001cb57600080546001600160a01b03198082163390811784556040519691956001600160a01b039590948694859391908416907f8be0079c531659141344cd1fd0a4f28419497f9722a3daafe3b4186f6b6457e09080a36001805560fa60035566038d7ea4c68000601955610e10601a5562278d00601b5562093a80601c55610258601d55166080521660a0521690600454161760045560001960105561561990816200021582396080518181816103f201528181610fc7015281816115f001528181611acd0152818161212701528181612d1d0152818161355101528181613ca501528181613d0101528181613e9e01528181613f0b0152613f72015260a0518181816104c201528181610bfd0152818161117d0152818161144a015281816122f7015281816123e201528181612e3001528181612e9e01528181613057015281816130a701528181613c6001528181613df40152613fb80152f35b604051631e4fbdf760e01b815260006004820152602490fd5b600080fd5b634e487b7160e01b600052604160045260246000fd5b51906001600160a01b0382168203620001e45756fe6080604052600436101561001b575b361561001957600080fd5b005b6000803560e01c806301388d371461462c578063107a274a1461443b57806322c0aec7146143fc5780632ab1803f146143cd5780632d296bf114613cd45780632f9662c514613c8f578063374cb7c514613c4a5780633f4ba83a14613bdf578063416924d4146134a3578063469048401461347a57806348c9581e1461345c57806353bae714146134325780635413487614613414578063571a26a01461335f57806357c90de514612cf45780635894bd5114612bca5780635b0c5dbd14612b315780635c975abb14612b0e5780635ce6f9c814612aca57806364ce890014612a915780636ff1c9bc14612a25578063715018a6146129cb57806375acd5f9146129ad57806376c25e6f1461298057806378bd79351461274c5780637db11c711461270c57806381257bd5146121025780638336d1cb14611a765780638456cb5914611a1b578063866f7530146119ad57806386cfa7d3146119655780638a44e586146119265780638da5cb5b146118ff578063944985f51461186957806395f4a968146117e657806396ec50c3146117905780639ba6a78514611772578063aa0b598814611712578063ad3a358c146115b4578063b166da421461156a578063b9a2de3a14610f91578063c33393a414610f33578063c63877eb14610d10578063ccddf0b014610cbb578063d45557cc14610b7f578063d5d20d4c14610b01578063da1a200e14610ae3578063de74e57b14610a54578063eb18a9d814610a01578063eeca08f0146109e3578063eff962751461038b578063f160d3691461033f578063f2fde38b146102b45763fcb9f84114610279575061000e565b346102b15760203660031901126102b1576020906040906001600160a01b036102a06147dc565b168152600d83522054604051908152f35b80fd5b50346102b15760203660031901126102b1576102ce6147dc565b6102d6614b4d565b6001600160a01b0390811690811561032657600054826001600160601b0360a01b821617600055167f8be0079c531659141344cd1fd0a4f28419497f9722a3daafe3b4186f6b6457e0600080a380f35b604051631e4fbdf760e01b815260048101849052602490fd5b50346102b15760203660031901126102b1576103596147dc565b610361614b4d565b6001600160a01b03166103758115156155a3565b6001600160601b0360a01b600454161760045580f35b5060a03660031901126102b15760249081356004356103a86147f2565b90606435906001600160401b036084358181116109df576103cd903690600401614903565b604051634f558e7960e01b8152600481018490526001600160a01b03956020959092917f000000000000000000000000000000000000000000000000000000000000000088169087818d81855afa8015610812578b906109a5575b6104329150614b86565b338a526018875261044a60ff60408c20541615614c1b565b610452614d67565b881561095557868b91610e1084101580610949575b61047090614c5d565b604051928380926331a9108f60e11b82528a60048301525afa90811561093e579088918b91610902575b501633146108be5782156108a95734610859576040516370a0823160e01b81523360048201527f0000000000000000000000000000000000000000000000000000000000000000908882169088818e81855afa801561084e578b908d9061081d575b61050892501015614e09565b604051636eb1769f60e11b8152336004820152306024820152908890829060449082905afa90811561081257908a9392918c916107d8575b509261055e9161055582610564961015614e55565b30903390615025565b42614c9c565b9284895260078652604089206040519361057d85614810565b338552878501908a8252604086019015998a159687835260608101898152608082019160019687845260a08201998a528054600160401b8110156107c2576105c9918982018155614b31565b9590956107ad576005966106299561060b9351166001600160601b0360a01b8854161787555188870155511515600286019060ff801983541691151516179055565b516003840155511515600483019060ff801983541691151516179055565b0192519a8b5192831161079b57506106418354614961565b601f8111610762575b50869a601f83116001146107025782918b9c83928d946106f7575b50501b916000199060031b1c19161790555b6040519386855284015260408301527f3a0c2f18af0dab4a7c9bfba049a120bc3d706722163ae468a5a32b6f47e3c5df60603393a3806106ee575b6106b95750f35b81806106c6819334614faf565b8181156106e5575b3390f1156106d95780f35b604051903d90823e3d90fd5b506108fc6106ce565b508034116106b2565b015192503880610665565b838b52878b20601f1984169c92939290918c8e5b811061074c5750838d9e10610733575b505050811b019055610677565b015160001960f88460031b161c19169055388080610726565b81830151845592850192918a01918a018e610716565b61078b90848c52888c20601f850160051c8101918a8610610791575b601f0160051c0190614cbf565b3861064a565b909150819061077e565b634e487b7160e01b8b5260416004528afd5b5050634e487b7160e01b8f5260048f90528f8ffd5b5050508f8f634e487b7160e01b81526041600452fd5b809450898092503d831161080b575b6107f181836148c7565b8101031261080657915189929061055e610540565b600080fd5b503d6107e7565b6040513d8d823e3d90fd5b50508881813d8311610847575b61083481836148c7565b81010312610806578a61050891516104fc565b503d61082a565b6040513d8e823e3d90fd5b60405162461bcd60e51b8152600481018790526023818c01527f53686f756c64206e6f742073656e642053545420666f72204245415453206f666044820152623332b960e91b6064820152608490fd5b610564906108b989341015614dc5565b61055e565b60405162461bcd60e51b815260048101879052601e818c01527f43616e6e6f74206f66666572206f6e20796f7572206f776e20746f6b656e00006044820152606490fd5b809250888092503d8311610937575b61091b81836148c7565b810103126109335761092d8891614bc9565b3861049a565b8980fd5b503d610911565b6040513d8c823e3d90fd5b50601c54841115610467565b60405162461bcd60e51b8152600481018890526023818d01527f4f6666657220616d6f756e74206d75737420626520677265617465722074686160448201526206e20360ec1b6064820152608490fd5b508781813d83116109d8575b6109bb81836148c7565b810103126109d4576109cf61043291614b79565b610428565b8a80fd5b503d6109b1565b8680fd5b50346102b157806003193601126102b1576020600354604051908152f35b50346102b15760203660031901126102b157610a5090610a3c906040906001600160a01b03610a2e6147dc565b16815260086020522061525c565b604051918291602083526020830190614ae5565b0390f35b50346102b15760203660031901126102b157604090600435815260056020522060018060a01b03815416610a50600183015492600281015490600381015460ff610aa560056004850154940161499b565b93604051978897885260208801528181161515604088015260081c1615156060860152608085015260a084015260e060c084015260e08301906147b7565b50346102b157806003193601126102b1576020601c54604051908152f35b50346102b15760403660031901126102b157610b1b6147dc565b7f2c55c991e094165d8f4acbea97528a7826fb6a86abe8cebfa5bf52bd359d77596020610b46614801565b92610b4f614b4d565b6001600160a01b03168085526015825260408520805460ff191660ff86151516179055926040519015158152a280f35b50346102b157610bbc610b9136614a41565b8184939293526007602052610bab604085205482106151db565b828452600760205260408420614b31565b5080549091906001600160a01b03163303610c855760048201610be260ff82541661521d565b60ff6002600185015494015416600014610c5857610c2183337f000000000000000000000000000000000000000000000000000000000000000061518c565b60ff1981541690556040519182527fe2dc0bfd2fc658db980184c3f7c091c2f886874e896043b562d5099c8d95b1dd60203393a380f35b8380848015610c7b575b8280929181923390f1610c21575b6040513d85823e3d90fd5b6108fc9150610c62565b60405162461bcd60e51b815260206004820152600e60248201526d2737ba103cb7bab91037b33332b960911b6044820152606490fd5b50346102b15760403660031901126102b157610d0d610cd86147dc565b610ce0614801565b90610ce9614b4d565b60018060a01b031683526018602052604083209060ff801983541691151516179055565b80f35b50346102b157602080600319360112610f2f57600b5460043581811115610f275750809291925b610d408161494a565b91610d4e60405193846148c7565b818352601f19610d5d8361494a565b01845b818110610ee25750506000198101908111845b838110610e29575050505060405191838301848452825180915260408401948060408360051b870101940192955b828710610dae5785850386f35b909192938280610e19600193603f198a820301865260e089519182518152868060a01b038086850151168683015260408401511660408201526060808401519082015260808084015115159082015260a080840151908201528160c0809401519382015201906147b7565b9601920196019592919092610da1565b81969596610ece5780610e47610e42610ec69386614faf565b614a94565b50610ea6600660405192610e5a84614876565b8054845260018101546001600160a01b039081168c860152600282015416604085015260038101546060850152600481015460ff1615156080850152600581015460a08501520161499b565b60c0820152610eb582886152ba565b52610ec081876152ba565b506152ab565b959495610d73565b634e487b7160e01b87526011600452602487fd5b95809596604051610ef281614876565b8881528883820152886040820152606089818301528960808301528960a083015260c082015282828801015201959495610d60565b929192610d37565b5080fd5b50346102b15760203660031901126102b157600435906001600160401b0382116102b157610a50610a3c610f826020610f6f3660048801614903565b8160405193828580945193849201614794565b8101600a81520301902061525c565b50346102b157602080600319360112610f2f57604051634f558e7960e01b8152600480359082018190526001600160a01b0392917f00000000000000000000000000000000000000000000000000000000000000008416908381602481855afa801561131a578690611530575b6110089150614b86565b8185526006835261102260ff60076040882001541661514c565b61102a614d67565b6110326150d1565b818552600683526040852093600685015442106114f45760078501805460ff8116156114b75760ff1916905560048501805487908381169081151580806114a5575b156113e35750505050600386015492604051633c57017760e11b81528560048201528881602481855afa9081156113d85789916113b6575b5061271090816110c060e083015188614cd6565b04916110ce60035488614cd6565b04918a6110e4846110df848b614faf565b614faf565b94878c54168888541690823b156113b2576040516323b872dd60e01b81526001600160a01b03918216600482015291166024820152604481018b90529082908290606490829084905af180156113a757611393575b50855460a01c60ff161561129457508560069a8a958a98957fd2aa34a4fdbbc6dff6a3e56f46e0f3ae2a31d7785ff3487aa5c95c642acea50198956111f0956111a77f000000000000000000000000000000000000000000000000000000000000000094878754168661518c565b858161127d575b50505080611267575b50505b5416825488604051926111cc84614891565b600784526630bab1ba34b7b760c91b888501528660ff8460a01c169316908a6152ce565b6111f986615542565b541693604051908152a35b835252611260600a60408320838155600060018201556000600282015560006003820155836004820155600060058201556000600682015583600782015561124e60088201614ce9565b61125a600982016150f4565b016150f4565b6001805580f35b6112769184600454169061518c565b38806111b7565b606061128c930151168461518c565b3880856111ae565b80808080978a8f979697541682821561138a575bf115610c705783821591821561132e575b50505050801580156112fa575b50505084827fd2aa34a4fdbbc6dff6a3e56f46e0f3ae2a31d7785ff3487aa5c95c642acea501926111f0879560069a6111ba565b82809281928760045416908390611325575bf11561131a578638806112c6565b6040513d88823e3d90fd5b506108fc61130c565b8180856060829401958b875116908390611381575bf115610c70577ff670029fc6f5302baba881b4ae845d1453acdf752b4c19ed81fe0fa6a686409b89878a93511693604051908152a3388083816112b9565b506108fc611343565b506108fc6112a8565b61139c90614847565b6109d4578a38611139565b6040513d84823e3d90fd5b8380fd5b6113d291503d808b833e6113ca81836148c7565b810190614ee6565b386110ac565b6040513d8b823e3d90fd5b9091929394955097959761142b575b50509150508360069492507fd2aa34a4fdbbc6dff6a3e56f46e0f3ae2a31d7785ff3487aa5c95c642acea50184604051848152a3611204565b60a01c60ff1615611479575050546003909201546006949261146e92167f000000000000000000000000000000000000000000000000000000000000000061518c565b9138808581806113f2565b8194829450829350600301549082821561149c575bf1156113a75760069161146e565b506108fc61148e565b5060038a015460028b01541115611074565b60405162461bcd60e51b8152600481018790526015602482015274105d58dd1a5bdb88185b1c9958591e48195b991959605a1b6044820152606490fd5b60405162461bcd60e51b815260048101859052601460248201527341756374696f6e207374696c6c2061637469766560601b6044820152606490fd5b508381813d8311611563575b61154681836148c7565b8101031261155f5761155a61100891614b79565b610ffe565b8580fd5b503d61153c565b50346102b15760203660031901126102b1576115846147dc565b61158c614b4d565b60028054610100600160a81b03191660089290921b610100600160a81b031691909117905580f35b50346102b157602080600319360112610f2f57604051634f558e7960e01b81526004803590820181905291906001600160a01b039082816024817f000000000000000000000000000000000000000000000000000000000000000086165afa80156117075785906116cd575b61162a9150614b86565b8284526005825261164760ff600260408720015460081c16614d85565b828452600582526040842054163303611696576005908284525261166d60408320614fbc565b33907fbe50bf6d5ebc58e29a68dddccdef1c087a9e6dd728a5c3247051d7fdad14219b8380a380f35b6064906040519062461bcd60e51b82526004820152601060248201526f4e6f7420796f7572206c697374696e6760801b6044820152fd5b508281813d8311611700575b6116e381836148c7565b810103126116fc576116f761162a91614b79565b611620565b8480fd5b503d6116d9565b6040513d87823e3d90fd5b50346102b15760203660031901126102b15760043561172f614b4d565b6103e8811161173e5760035580f35b60405162461bcd60e51b815260206004820152600c60248201526b08ccaca40e8dede40d0d2ced60a31b6044820152606490fd5b50346102b157806003193601126102b1576020601954604051908152f35b50346102b15760403660031901126102b1576117aa6147dc565b6001600160a01b03168152600960205260408120805460243592908310156102b15760206117d88484614b19565b90546040519160031b1c8152f35b50346102b15760403660031901126102b1576118006147dc565b6001600160a01b031681526017602052604081208054602435908110156118655761182a91614b19565b91909161185157610a5061183d8361499b565b6040519182916020835260208301906147b7565b634e487b7160e01b81526004819052602490fd5b8280fd5b50346102b15761187836614a41565b9082526007602052604082208054821015611865576118979250614b31565b5060018060a01b03815416610a5060018301549260ff6002820154169060038101546118cd600560ff600485015416930161499b565b92604051968796875260208701521515604086015260608501521515608084015260c060a084015260c08301906147b7565b50346102b157806003193601126102b157546040516001600160a01b039091168152602090f35b50346102b15760203660031901126102b15760209060ff906040906001600160a01b036119516147dc565b168152601584522054166040519015158152f35b50346102b15760403660031901126102b15761197f6147dc565b6001600160a01b03168152600860205260408120805460243592908310156102b15760206117d88484614b19565b50346102b15760403660031901126102b1576004356001600160401b038111610f2f576119de903690600401614903565b906119fb6020602435938160405193828580945193849201614794565b8101600a8152030190209081548310156102b15760206117d88484614b19565b50346102b157806003193601126102b157611a34614b4d565b611a3c614d67565b600160ff1960025416176002557f62e78cea01bee320cd4e420270b5ea74000d11b0c9f74754ebdbfc544b05a2586020604051338152a180f35b50346102b15760c03660031901126102b15760843580151581036108065760a4356001600160401b03811161186557611ab3903690600401614903565b604051634f558e7960e01b815260048035908201529091907f00000000000000000000000000000000000000000000000000000000000000006001600160a01b031690602081602481855afa9081156117075785916120bd575b50602491611b1c602092614b86565b604051928380926331a9108f60e11b825260043560048301525afa80156120b2578490612077575b611b5991506001600160a01b03163314614bdd565b3383526018602052611b7260ff60408520541615614c1b565b611b7a614d67565b6019546024351061203c5760243560443510611fff57601a546064359081101580611ff3575b611ba990614c5d565b6004358452600560205260ff600260408620015460081c16611fbc576004358452600660205260ff600760408620015416611f7e57611be89042614c9c565b91604051611bf5816148ac565b848152604051611c04816148ac565b85815260405191611c148361485a565b3383526024356020840152604435604084015286606084015286608084015284151560a08401524260c08401528560e0840152600161010084015283610120840152610140830152610160820152600435855260066020526040852060018060a01b038251166001600160601b0360a01b8254161781556020820151600182015560408201516002820155606082015160038201556004810160018060a01b0360808401511681549060ff60a01b60a0860151151560a01b16916affffffffffffffffffffff60a81b161717905560c0820151600582015560e08201516006820155611d166101008301511515600783019060ff801983541691151516179055565b6101208201518051906001600160401b038211611ebd578190611d3c6008850154614961565b601f8111611f4b575b50602090601f8311600114611edc578992611ed1575b50508160011b916000199060031b1c19161760088201555b6101408201518051906001600160401b038211611ebd5760206009840191611d9b8484615118565b0190885260208820885b838110611ea05750505050600a6101609101910151908151916001600160401b038311611e8c57602090611dd98484615118565b0190865260208620865b838110611e78575050505080519081611e43575b5050604051916024358352604435602084015260408301521515606082015233907f57ba1bee67698f415b14c920549f07ed5fd0fafb5f4a4c3ee39de6ee49924b43608060043592a380f35b81611e5a611e719360209360405194859101614794565b810190600a82526020816004359303019020614d32565b3880611df7565b600190602084519401938184015501611de3565b634e487b7160e01b87526041600452602487fd5b82516001600160a01b031681830155602090920191600101611da5565b634e487b7160e01b88526041600452602488fd5b015190503880611d5b565b9250600884018952602089209089935b601f1984168510611f30576001945083601f19811610611f17575b505050811b016008820155611d73565b015160001960f88460031b161c19169055388080611f07565b81810151835560209485019460019093019290910190611eec565b611f7890600886018b5260208b20601f850160051c8101916020861061079157601f0160051c0190614cbf565b38611d45565b60405162461bcd60e51b815260206004820152601660248201527541756374696f6e20616c72656164792061637469766560501b6044820152606490fd5b60405162461bcd60e51b815260206004820152600f60248201526e151bdad95b881a5cc81b1a5cdd1959608a1b6044820152606490fd5b50601b54811115611ba0565b60405162461bcd60e51b8152602060048201526015602482015274496e76616c6964207265736572766520707269636560581b6044820152606490fd5b60405162461bcd60e51b8152602060048201526013602482015272537461727420707269636520746f6f206c6f7760681b6044820152606490fd5b506020813d6020116120aa575b81612091602093836148c7565b810103126113b2576120a5611b5991614bc9565b611b44565b3d9150612084565b6040513d86823e3d90fd5b90506020813d6020116120fa575b816120d8602093836148c7565b810103126116fc57602491611b1c6120f1602093614b79565b92505091611b0d565b3d91506120cb565b50346102b15761211136614a41565b604051634f558e7960e01b8152600481018390527f00000000000000000000000000000000000000000000000000000000000000006001600160a01b0316939190602081602481885afa8015610c705783906126d1575b6121729150614b86565b6040516331a9108f60e11b815260048101849052602081602481885afa908115610c7057839161268e575b506121ef91906121b7906001600160a01b03163314614bdd565b6121bf614d67565b6121c76150d1565b83835260076020526121de604084205482106151db565b838352600760205260408320614b31565b5061220060ff60048301541661521d565b6003810154421161265957828252600560205260ff600260408420015460081c166126085760018101549360ff600260018060a01b038454169301541660405191633c57017760e11b83528560048401528483602481845afa9283156117075785936125ec575b50612710928361227b60e08301518a614cd6565b04936122896003548a614cd6565b0490612299826110df878c614faf565b92803b156125e8576040516323b872dd60e01b81523360048201526001600160a01b0388166024820152604481018a90529088908290606490829084905af180156125dd579088916125c9575b5084156124e157506123579461231e7f000000000000000000000000000000000000000000000000000000000000000094338661518c565b806124c0575b5050806124a1575b50505b6040519061233c82614891565b600582526437b33332b960d91b6020830152868433886152ce565b61236084615542565b82825260076020526040822093825b855481101561246c5760ff60046123868389614b31565b5001541661239d575b612398906152ab565b61236f565b60ff60026123ab8389614b31565b500154161561242357806124066123c56123989389614b31565b50546001600160a01b031660016123dc848b614b31565b500154907f000000000000000000000000000000000000000000000000000000000000000061518c565b60046124128289614b31565b5001805460ff19169055905061238f565b83808080612431858b614b31565b50546001600160a01b03166001612448878d614b31565b50015490828215612463575bf115610c705761239890612406565b506108fc612454565b50836040519182527fc67f49229cab3f614ad390c12432e0e671552dcfd15e24ddc005cf5a01a0213560203393a46001805580f35b6004546124b9926001600160a01b039091169061518c565b388061232c565b6060909101516124da91906001600160a01b03168461518c565b3880612324565b80808093949697958181156125c0575b3390f11561170757908592918115908115612550575b5050508015801561251f575b5050506123579061232f565b6004548392839283926001600160a01b0316908390612547575bf1156113a757823880612513565b506108fc612539565b9380808460608295969798019560018060a01b038751169083906125b7575bf1156117075790867ff670029fc6f5302baba881b4ae845d1453acdf752b4c19ed81fe0fa6a686409b602088959460018060a01b0390511693604051908152a3388080612507565b506108fc61256f565b506108fc6124f1565b6125d290614847565b6109df5786386122e6565b6040513d8a823e3d90fd5b8780fd5b6126019193503d8087833e6113ca81836148c7565b9138612267565b60405162461bcd60e51b815260206004820152602360248201527f43616e6e6f7420616363657074206f66666572206f6e206c697374656420746f60448201526235b2b760e91b6064820152608490fd5b60405162461bcd60e51b815260206004820152600d60248201526c13d999995c88195e1c1a5c9959609a1b6044820152606490fd5b90506020813d6020116126c9575b816126a9602093836148c7565b8101031261186557906121b76126c16121ef93614bc9565b91925061219d565b3d915061269c565b506020813d602011612704575b816126eb602093836148c7565b81010312611865576126ff61217291614b79565b612168565b3d91506126de565b50346102b157806003193601126102b15760a0600f5460105460115460125490601354926040519485526020850152604084015260608301526080820152f35b50346102b15760203660031901126102b157604090606061016083516127718161485a565b838152836020820152838582015283838201528360808201528360a08201528360c08201528360e0820152836101008201528261012082015282610140820152015260043581526006602052206040516127ca8161485a565b60018060a01b03825416815260018201546020820152600282015460408201526003820154606082015260ff600483015460018060a01b038116608084015260a01c16151560a0820152600582015460c0820152600682015460e082015260ff60078301541615156101008201526128446008830161499b565b6101208201526040518060098401906020825491828152019160005260206000209060005b81811061296157610a5086612893600a8a89612887818b03826148c7565b6101408501520161525c565b6101608201526040519182916020835260018060a01b03815116602084015260208101516040840152604081015160608401526060810151608084015260018060a01b0360808201511660a084015260a0810151151560c084015260c081015160e084015260e0810151610100840152610100810151151561012084015261012081015161293061018091826101408701526101a08601906147b7565b9061016061295061014085015193601f19948589830301848a0152614a57565b930151918584030190850152614ae5565b82546001600160a01b0316845260209093019260019283019201612869565b50346102b157806003193601126102b15760025460405160089190911c6001600160a01b03168152602090f35b50346102b157806003193601126102b1576020601d54604051908152f35b50346102b157806003193601126102b1576129e4614b4d565b600080546001600160a01b0319811682556001600160a01b03167f8be0079c531659141344cd1fd0a4f28419497f9722a3daafe3b4186f6b6457e08280a380f35b50346102b15760203660031901126102b157806004356001600160a01b03811690819003612a8e57612a55614b4d565b612a608115156155a3565b479081158015612a6f57505050f35b8392839283928390612a85575bf1156106d95780f35b506108fc612a7c565b50fd5b50346102b15760203660031901126102b1576020906040906001600160a01b03612ab96147dc565b168152600c83522054604051908152f35b50346102b15760403660031901126102b157610d0d612ae7614801565b612aef614b4d565b60043583526016602052604083209060ff801983541691151516179055565b50346102b157806003193601126102b157602060ff600254166040519015158152f35b50346102b15760203660031901126102b157600435600b54811015610f2f57612b5990614a94565b508054610a5060018060a01b0392836001820154169360028201541690600381015460ff60048301541690612b9560066005850154940161499b565b9360405197889788526020880152604087015260608601521515608085015260a084015260e060c084015260e08301906147b7565b50346102b157806003193601126102b157606060a0604051612beb81614810565b838152602093808583015280604083015280848301526080820152015260405190612c1582614810565b600f5482526010549181810192835260115492604082019384526012546060830190815260135490608084019182526040519586938660145498898152019760146000527fce6d7b5282bd9a3661ae061feed1dbda4e52ab073b1f9285be6e155d9c38d4ec9060005b818110612cd757505050612c9985610a5097989903866148c7565b60a0870194855260405197889781895251908801525160408701525160608601525160808501525160a08401525160c08084015260e0830190614a57565b82546001600160a01b03168b529989019960019283019201612c7e565b50612cfe36614a41565b604051634f558e7960e01b8152600481018390529192916020816024817f00000000000000000000000000000000000000000000000000000000000000006001600160a01b03165afa8015610c70578390613324575b612d5e9150614b86565b8282526006602052612d7960ff60076040852001541661514c565b3382526018602052612d9260ff60408420541615614c1b565b612d9a614d67565b612da26150d1565b8282526006602052604082209260ff600785015416156132ea57600584015442106132af57600684015442101561327a5783546001600160a01b03163314613235576003840154806132015760018501545b83106131ce576004850154908460ff8360a01c166000146131bb57503461316c576040516370a0823160e01b81523360048201526020816024817f00000000000000000000000000000000000000000000000000000000000000006001600160a01b03165afa801561131a5785908790613136575b612e7592501015614e09565b604051636eb1769f60e11b81523360048201523060248201526020816044816001600160a01b037f0000000000000000000000000000000000000000000000000000000000000000165afa90811561131a5786939291869185916130fb575b5090612ee1911015614e55565b6001600160a01b0382169182613080575b5050505060ff600485015460a01c1661304f575b600384018290556004840180546001600160a01b0319163317905560098401805490600160401b82101561303b579460ff92612f4b8387986001600496018155614b19565b81546001600160a01b0360039290921b91821b19163390911b179055612f7485600a8401614d32565b3386526009602052612f898160408820614d32565b612f97426006840154614faf565b601d54809110613026575b50604051908582524260208301527f51db8e23b3f4479b162fd48823b8402895442b8f6cfd94f66239391881ec7b6f60403393a3015460a01c16158061301d575b612ff0575b506001805580f35b8180612ffd819334614faf565b818115613014575b3390f1156106d9578038612fe8565b506108fc613005565b50803411612fe3565b6130309042614c9c565b600683015538612fa2565b634e487b7160e01b85526041600452602485fd5b61307b8230337f0000000000000000000000000000000000000000000000000000000000000000615025565b612f06565b60a01c60ff16156130d457505050600484015460038501546130cb916001600160a01b03167f000000000000000000000000000000000000000000000000000000000000000061518c565b82388080612ef2565b8280929181928282156130f2575bf16130cb576040513d84823e3d90fd5b506108fc6130e2565b945050506020833d60201161312e575b81613118602093836148c7565b8101031261080657612ee1858794519091612ed4565b3d915061310b565b50506020813d602011613164575b81613151602093836148c7565b810103126108065784612e759151612e69565b3d9150613144565b60405162461bcd60e51b815260206004820152602160248201527f53686f756c64206e6f742073656e642053545420666f722042454154532062696044820152601960fa1b6064820152608490fd5b91906131c985341015614dc5565b612ee1565b60405162461bcd60e51b815260206004820152600b60248201526a42696420746f6f206c6f7760a81b6044820152606490fd5b6005810281810460050361322157606461321c910482614c9c565b612df4565b634e487b7160e01b85526011600452602485fd5b60405162461bcd60e51b815260206004820152601e60248201527f43616e6e6f7420626964206f6e20796f7572206f776e2061756374696f6e00006044820152606490fd5b60405162461bcd60e51b815260206004820152600d60248201526c105d58dd1a5bdb88195b991959609a1b6044820152606490fd5b60405162461bcd60e51b8152602060048201526013602482015272105d58dd1a5bdb881b9bdd081cdd185c9d1959606a1b6044820152606490fd5b60405162461bcd60e51b815260206004820152601260248201527141756374696f6e206e6f742061637469766560701b6044820152606490fd5b506020813d602011613357575b8161333e602093836148c7565b8101031261186557613352612d5e91614b79565b612d54565b3d9150613331565b50346102b15760203660031901126102b157604090600435815260066020522060018060a01b03610a50818354169160018401549360028101549160038201549060ff60048401546005850154926006860154946133c660088560078a015416980161499b565b976040519b8c9b8c5260208c015260408b015260608a01528116608089015260a01c16151560a087015260c086015260e08501521515610100840152610140806101208501528301906147b7565b50346102b157806003193601126102b1576020601a54604051908152f35b50346102b15760203660031901126102b15760406020916004358152600e83522054604051908152f35b50346102b157806003193601126102b1576020601b54604051908152f35b50346102b157806003193601126102b1576004546040516001600160a01b039091168152602090f35b50346102b15760c03660031901126102b1576134bd6147f2565b6084356001600160401b038111611865576134dc903690600401614903565b60a4356001600160401b0381116113b257366023820112156113b2578060040135906135078261494a565b9161351560405193846148c7565b80835260051b8101602401602083013682116109df5760248301905b828210613bac575050604051634f558e7960e01b815260048035908201527f00000000000000000000000000000000000000000000000000000000000000006001600160a01b031692509050602081602481855afa90811561131a578691613b67575b506024916135a3602092614b86565b604051928380926331a9108f60e11b825260043560048301525afa8015611707578590613b2c575b6135e091506001600160a01b03163314614bdd565b33845260186020526135f960ff60408620541615614c1b565b613601614d67565b60195460243510613af75760643580151580613ae9575b61362190614c5d565b6004358552600560205260ff600260408720015460081c16613ab3576004358552600660205260ff600760408720015416613a7b576136609042614c9c565b6040519061366d8261482b565b338252602435602083015284151560408301526001606083015242608083015260a082015260c081019183835260e082015260043585526005602052604085209160018060a01b038251166001600160601b0360a01b84541617835560208201516001840155600283016136f360408401511515829060ff801983541691151516179055565b6060830151815461ff00191690151560081b61ff00161790556080820151600384015560a08201516004840155518051906001600160401b038211611e8c5761373f6005850154614961565b601f8111613a48575b50602090601f83116001146139d85760e09392918891836139cd575b50508160011b916000199060031b1c19161760058401555b015190815191600160401b83116139b7576006820154836006840155808410613984575b50602060069101910185526020852085915b838310613861575050505033835260086020526137d460043560408520614d32565b805180613846575b506010546024351061383b575b60405191602435835215156020830152606060408301527fcc85e8bd43b00214f83e4b2ca24d000e1b16b3cbedaad593d627ceb3b4e7c61c3392806138356004359460608301906147b7565b0390a380f35b6024356010556137e9565b60405161385b91611e5a818360208701614794565b386137dc565b80518051906001600160401b0382116139705761387e8454614961565b601f8111613940575b50602090601f83116001146138d35792826001949360209386958d926138c8575b5050600019600383901b1c191690841b1785555b019201920191906137b2565b0151905038806138a8565b90848a5260208a20918a5b601f1985168110613928575083602093600196938796938794601f1981161061390f575b505050811b0185556138bc565b015160001960f88460031b161c19169055388080613902565b919260206001819286850151815501940192016138de565b61396a90858b5260208b20601f850160051c8101916020861061079157601f0160051c0190614cbf565b38613887565b634e487b7160e01b89526041600452602489fd5b600683016000526020600020908482015b81830181106139a55750506137a0565b806139b1600192614ce9565b01613995565b634e487b7160e01b600052604160045260246000fd5b015190503880613764565b906005850188526020882091885b601f1985168110613a30575091839160019360e09695601f19811610613a17575b505050811b01600584015561377c565b015160001960f88460031b161c19169055388080613a07565b919260206001819286850151815501940192016139e6565b613a759060058601895260208920601f850160051c8101916020861061079157601f0160051c0190614cbf565b38613748565b60405162461bcd60e51b815260206004820152601060248201526f2a37b5b2b71034b71030bab1ba34b7b760811b6044820152606490fd5b60405162461bcd60e51b815260206004820152600e60248201526d105b1c9958591e481b1a5cdd195960921b6044820152606490fd5b506301e13380811115613618565b60405162461bcd60e51b815260206004820152600d60248201526c507269636520746f6f206c6f7760981b6044820152606490fd5b506020813d602011613b5f575b81613b46602093836148c7565b810103126116fc57613b5a6135e091614bc9565b6135cb565b3d9150613b39565b90506020813d602011613ba4575b81613b82602093836148c7565b8101031261155f576024916135a3613b9b602093614b79565b92505091613594565b3d9150613b75565b81356001600160401b038111613bdb57602091613bd0839260243691890101614903565b815201910190613531565b8880fd5b50346102b157806003193601126102b157613bf8614b4d565b60025460ff811615613c385760ff19166002557f5db9ee0a495bf2e6ff9c91a7834c1ba4fdd244a5e8aa4e537bd38aeae4b073aa6020604051338152a180f35b604051638dfc202b60e01b8152600490fd5b50346102b157806003193601126102b1576040517f00000000000000000000000000000000000000000000000000000000000000006001600160a01b03168152602090f35b50346102b157806003193601126102b1576040517f00000000000000000000000000000000000000000000000000000000000000006001600160a01b03168152602090f35b5060203660031901126102b157604051634f558e7960e01b815260048035908201526024919060208184817f00000000000000000000000000000000000000000000000000000000000000006001600160a01b03165afa80156113a7578290614392575b613d429150614b86565b60043581526005602052613d6260ff600260408420015460081c16614d85565b3381526018602052613d7b60ff60408320541615614c1b565b613d83614d67565b613d8b6150d1565b60043581526005602052604081209160028301549060ff8260081c161561435957600484015442116143235783546001600160a01b0316933385146142df5760018101549260ff169182156142ce573461427c576040516370a0823160e01b81523360048201527f00000000000000000000000000000000000000000000000000000000000000006001600160a01b0316906020818481855afa8015614271578690889061423b575b613e4092501015614e09565b604051636eb1769f60e11b815233600482015230602482015290602090829060449082905afa801561131a5785908790614205575b613e8192501015614e55565b604051633c57017760e11b815260048035908201529085908290817f00000000000000000000000000000000000000000000000000000000000000006001600160a01b03165afa9081156117075785916141eb575b506127109081613eea60e083015187614cd6565b0491613ef860035487614cd6565b0490613f08826110df8589614faf565b927f00000000000000000000000000000000000000000000000000000000000000006001600160a01b03163b156125e8576040516323b872dd60e01b81526001600160a01b039099166004808b01919091523360248b01523560448a0152878980606481010381837f00000000000000000000000000000000000000000000000000000000000000006001600160a01b03165af180156125dd576141d7575b87809950866000146140f0575084547f000000000000000000000000000000000000000000000000000000000000000094613fec916001600160a01b03163387615025565b806140ce575b5050806140ad575b50505b805460405161403791849086906001600160a01b031661401c84614891565b600484526373616c6560e01b602085015233906004356152ce565b61404083615542565b6004358452600560205261405660408520614fbc565b54604080518481529215801560208501529233926001600160a01b031691600435917f5ba39d7696c8afc0248710a4054818fbe831b042883cf8a26ec8ee0c61413cd29190a48061301d57612ff057506001805580f35b6004546140c7926001600160a01b03909116903390615025565b3880613ffa565b6060909101516140e991906001600160a01b03163385615025565b3880613ff2565b808080939660018060a01b038954168282156141ce575bf11561131a578287931591821561415e575b505050801590811561412e575b505050613ffd565b82809291819260018060a01b0360045416908390614155575bf115610c7057833880614126565b506108fc614147565b93808083606082959698019760018060a01b038951169083906141c5575bf11561131a57869260018060a01b03905116906040519081527ff670029fc6f5302baba881b4ae845d1453acdf752b4c19ed81fe0fa6a686409b602060043592a3388080614119565b506108fc61417c565b506108fc614107565b9690976141e390614847565b958790613fa7565b6141ff91503d8087833e6113ca81836148c7565b38613ed6565b50506020813d602011614233575b81614220602093836148c7565b8101031261155f5784613e819151613e75565b3d9150614213565b50506020813d602011614269575b81614256602093836148c7565b810103126109df5785613e409151613e34565b3d9150614249565b6040513d89823e3d90fd5b60849060256040519162461bcd60e51b8352602060048401528201527f53686f756c64206e6f742073656e642053545420666f722042454154532070616044820152641e5b595b9d60da1b6064820152fd5b6142da84341015614dc5565b613e81565b60405162461bcd60e51b8152602060048201526019818401527f43616e6e6f742062757920796f7572206f776e20746f6b656e000000000000006044820152606490fd5b606490600f6040519162461bcd60e51b8352602060048401528201526e131a5cdd1a5b99c8195e1c1a5c9959608a1b6044820152fd5b60649060126040519162461bcd60e51b835260206004840152820152714c697374696e67206e6f742061637469766560701b6044820152fd5b506020813d6020116143c5575b816143ac602093836148c7565b81010312610f2f576143c0613d4291614b79565b613d38565b3d915061439f565b50346102b15760203660031901126102b15760ff60406020926004358152601684522054166040519015158152f35b50346102b15760203660031901126102b15760209060ff906040906001600160a01b036144276147dc565b168152601884522054166040519015158152f35b50346102b15760203660031901126102b157606060e060405161445d8161482b565b83815283602082015283604082015283838201528360808201528360a08201528260c0820152015260043581526005602052604081206006604051916144a28361482b565b80546001600160a01b0316835260018101546020840152600281015460ff8181161515604086015260089190911c161515606084015260038101546080840152600481015460a08401526144f86005820161499b565b60c08401520180546145098161494a565b9161451760405193846148c7565b81835284526020808520859184015b8383106146095760c086868960e083019182526040519384936020855260018060a01b03815116602086015260208101516040860152604081015115156060860152606081015115156080860152608081015160a086015260a08101518286015201516145a1610100918260e08701526101208601906147b7565b925192601f199182868303019086015283519182825260208201906020808560051b850101960194925b8484106145d85787870388f35b919395819395975060206145f782600194868495030188528a516147b7565b980194019401918796959394916145cb565b60016020819261461b859a999a61499b565b815201920192019190959495614526565b50346102b157602080600319360112610f2f5790600435815260078252604081208054916146598361494a565b9261466760405194856148c7565b8084528484018093835285832083915b8383106147215750505050604051928484019085855251809152604084019460408260051b8601019392955b8287106146b05785850386f35b909192938280614711600193603f198a82030186528851858060a01b03815116825283810151848301526040810151151560408301526060808201519083015260808082015115159083015260a0809101519160c0809282015201906147b7565b96019201960195929190926146a3565b60068860019260409a99979a5161473781614810565b848060a01b038654168152848601548382015260ff8060028801541615156040830152600387015460608301526004870154161515608082015261477d6005870161499b565b60a082015281520192019201919096939596614677565b60005b8381106147a75750506000910152565b8181015183820152602001614797565b906020916147d081518092818552858086019101614794565b601f01601f1916010190565b600435906001600160a01b038216820361080657565b60443590811515820361080657565b60243590811515820361080657565b60c081019081106001600160401b038211176139b757604052565b61010081019081106001600160401b038211176139b757604052565b6001600160401b0381116139b757604052565b61018081019081106001600160401b038211176139b757604052565b60e081019081106001600160401b038211176139b757604052565b604081019081106001600160401b038211176139b757604052565b602081019081106001600160401b038211176139b757604052565b90601f801991011681019081106001600160401b038211176139b757604052565b6001600160401b0381116139b757601f01601f191660200190565b81601f820112156108065780359061491a826148e8565b9261492860405194856148c7565b8284526020838301011161080657816000926020809301838601378301015290565b6001600160401b0381116139b75760051b60200190565b90600182811c92168015614991575b602083101461497b57565b634e487b7160e01b600052602260045260246000fd5b91607f1691614970565b90604051918260008254926149af84614961565b908184526001948581169081600014614a1e57506001146149db575b50506149d9925003836148c7565b565b9093915060005260209081600020936000915b818310614a065750506149d9935082010138806149cb565b855488840185015294850194879450918301916149ee565b9150506149d994506020925060ff191682840152151560051b82010138806149cb565b6040906003190112610806576004359060243590565b90815180825260208080930193019160005b828110614a77575050505090565b83516001600160a01b031685529381019392810192600101614a69565b600b54811015614acf57600790600b600052027f0175b7a638427703f0dbe7bb9bbf987a2551717b34e79f33b5b1008d1fa01db90190600090565b634e487b7160e01b600052603260045260246000fd5b90815180825260208080930193019160005b828110614b05575050505090565b835185529381019392810192600101614af7565b8054821015614acf5760005260206000200190600090565b8054821015614acf576000526006602060002091020190600090565b6000546001600160a01b03163303614b6157565b60405163118cdaa760e01b8152336004820152602490fd5b5190811515820361080657565b15614b8d57565b60405162461bcd60e51b8152602060048201526014602482015273151bdad95b88191bd95cc81b9bdd08195e1a5cdd60621b6044820152606490fd5b51906001600160a01b038216820361080657565b15614be457565b60405162461bcd60e51b815260206004820152600f60248201526e2737ba103a37b5b2b71037bbb732b960891b6044820152606490fd5b15614c2257565b60405162461bcd60e51b8152602060048201526013602482015272155cd95c881a5cc8189b1858dadb1a5cdd1959606a1b6044820152606490fd5b15614c6457565b60405162461bcd60e51b815260206004820152601060248201526f24b73b30b634b210323ab930ba34b7b760811b6044820152606490fd5b91908201809211614ca957565b634e487b7160e01b600052601160045260246000fd5b818110614cca575050565b60008155600101614cbf565b81810292918115918404141715614ca957565b614cf38154614961565b9081614cfd575050565b81601f60009311600114614d0f575055565b908083918252614d2e601f60208420940160051c840160018501614cbf565b5555565b8054600160401b8110156139b757614d4f91600182018155614b19565b819291549060031b91821b91600019901b1916179055565b60ff60025416614d7357565b60405163d93c066560e01b8152600490fd5b15614d8c57565b60405162461bcd60e51b81526020600482015260116024820152704e6f20616374697665206c697374696e6760781b6044820152606490fd5b15614dcc57565b60405162461bcd60e51b8152602060048201526015602482015274125b9cdd59999a58da595b9d0814d515081cd95b9d605a1b6044820152606490fd5b15614e1057565b60405162461bcd60e51b815260206004820152601a60248201527f496e73756666696369656e742042454154532062616c616e63650000000000006044820152606490fd5b15614e5c57565b60405162461bcd60e51b815260206004820152601c60248201527f496e73756666696369656e7420424541545320616c6c6f77616e6365000000006044820152606490fd5b81601f82011215610806578051614eb7816148e8565b92614ec560405194856148c7565b8184526020828401011161080657614ee39160208085019101614794565b90565b906020828203126108065781516001600160401b03928382116108065701610100818303126108065760405192614f1c8461482b565b81518181116108065783614f31918401614ea1565b845260208201518181116108065783614f4b918401614ea1565b602085015260408201516040850152614f6660608301614bc9565b60608501526080820151608085015260a08201519081116108065760e092614f8f918301614ea1565b60a0840152614fa060c08201614b79565b60c0840152015160e082015290565b91908203918211614ca957565b600080825560066001928284820155826002820155826003820155826004820155614fe960058201614ce9565b0180549180825582614ffc575b50505050565b602091815220908101905b8181106150145780614ff6565b8061501f8492614ce9565b01615007565b6040516323b872dd60e01b60208201526001600160a01b0392831660248201529290911660448301526064808301939093529181526149d9916150696084836148c7565b906000602091828151910182855af1156150c5576000513d6150bc57506001600160a01b0381163b155b61509a5750565b604051635274afe760e01b81526001600160a01b039091166004820152602490fd5b60011415615093565b6040513d6000823e3d90fd5b6002600154146150e2576002600155565b604051633ee5aeb560e01b8152600490fd5b80546000825580615103575050565b6149d991600052602060002090810190614cbf565b90600160401b81116139b75781549080835581811061513657505050565b6149d99260005260206000209182019101614cbf565b1561515357565b60405162461bcd60e51b815260206004820152601160248201527027379030b1ba34bb329030bab1ba34b7b760791b6044820152606490fd5b60405163a9059cbb60e01b60208201526001600160a01b03909216602483015260448083019390935291815260808101916001600160401b038311828410176139b7576149d992604052615069565b156151e257565b60405162461bcd60e51b8152602060048201526013602482015272092dcecc2d8d2c840decccccae440d2dcc8caf606b1b6044820152606490fd5b1561522457565b60405162461bcd60e51b815260206004820152601060248201526f4f66666572206e6f742061637469766560801b6044820152606490fd5b9060405191828154918282526020928383019160005283600020936000905b828210615291575050506149d9925003836148c7565b85548452600195860195889550938101939091019061527b565b6000198114614ca95760010190565b8051821015614acf5760209160051b010190565b94939093604051916152df83614876565b8683526001600160a01b0386811660208501528416604084015260608301859052151560808301524260a083015260c0820152600b54600160401b8110156139b7578060016153319201600b55614a94565b61552c57600660c091835181556001810160018060a01b03602086015116906001600160601b0360a01b9182825416179055600282019060018060a01b0360408701511690825416179055606084015160038201556153a560808501511515600483019060ff801983541691151516179055565b60a08401516005820155019101518051906001600160401b0382116139b75781906153d08454614961565b601f81116154fa575b50602090601f831160011461549457600092615489575b50508160011b916000199060031b1c19161790555b60018060a01b038316600052600c6020526040600020615426838254614c9c565b905560018060a01b0316600052600c6020526154486040600020918254614c9c565b90556001600160a01b03166000908152600d60205260409020805461546c906152ab565b9055600052600e602052604060002061548581546152ab565b9055565b0151905038806153f0565b6000858152602081209350601f198516905b8181106154e257509084600195949392106154c9575b505050811b019055615405565b015160001960f88460031b161c191690553880806154bc565b929360206001819287860151815501950193016154a6565b61552690856000526020600020601f850160051c8101916020861061079157601f0160051c0190614cbf565b386153d9565b634e487b7160e01b600052600060045260246000fd5b61554e81600f54614c9c565b80600f5561555d6011546152ab565b9182601155601354811161559a575b508115801561557a57505050565b6155845704601255565b634e487b7160e01b600052601260045260246000fd5b6013553861556c565b156155aa57565b60405162461bcd60e51b8152602060048201526011602482015270125b9d985b1a59081c9958da5c1a595b9d607a1b6044820152606490fdfea26469706673582212200403e266f77193b99f70db6b18e99260c9cef5d0e4819230be0e0ad9b33cc3e664736f6c63430008140033",
  "linkReferences": {},
  "deployedLinkReferences": {}
}