{
  "_format": "hh-sol-artifact-1",
  "contractName": "HiBeatsFactory",
  "sourceName": "contracts/HiBeatsFactory.sol",
  "abi": [
    {
      "inputs": [
        {
          "internalType": "address",
          "name": "_hiBeatsNFT",
          "type": "address"
        },
        {
          "internalType": "address",
          "name": "_beatsToken",
          "type": "address"
        },
        {
          "internalType": "address",
          "name": "_ipfsService",
          "type": "address"
        }
      ],
      "stateMutability": "nonpayable",
      "type": "constructor"
    },
    {
      "inputs": [],
      "name": "EnforcedPause",
      "type": "error"
    },
    {
      "inputs": [],
      "name": "ExpectedPause",
      "type": "error"
    },
    {
      "inputs": [
        {
          "internalType": "address",
          "name": "owner",
          "type": "address"
        }
      ],
      "name": "OwnableInvalidOwner",
      "type": "error"
    },
    {
      "inputs": [
        {
          "internalType": "address",
          "name": "account",
          "type": "address"
        }
      ],
      "name": "OwnableUnauthorizedAccount",
      "type": "error"
    },
    {
      "inputs": [],
      "name": "ReentrancyGuardReentrantCall",
      "type": "error"
    },
    {
      "anonymous": false,
      "inputs": [
        {
          "indexed": true,
          "internalType": "string",
          "name": "taskId",
          "type": "string"
        },
        {
          "indexed": false,
          "internalType": "string",
          "name": "status",
          "type": "string"
        }
      ],
      "name": "CallbackReceived",
      "type": "event"
    },
    {
      "anonymous": false,
      "inputs": [
        {
          "indexed": true,
          "internalType": "string",
          "name": "taskId",
          "type": "string"
        },
        {
          "indexed": true,
          "internalType": "address",
          "name": "creator",
          "type": "address"
        },
        {
          "indexed": false,
          "internalType": "uint256[]",
          "name": "tokenIds",
          "type": "uint256[]"
        }
      ],
      "name": "GenerationCompleted",
      "type": "event"
    },
    {
      "anonymous": false,
      "inputs": [
        {
          "indexed": true,
          "internalType": "string",
          "name": "taskId",
          "type": "string"
        },
        {
          "indexed": false,
          "internalType": "string",
          "name": "reason",
          "type": "string"
        }
      ],
      "name": "GenerationFailed",
      "type": "event"
    },
    {
      "anonymous": false,
      "inputs": [
        {
          "indexed": true,
          "internalType": "string",
          "name": "taskId",
          "type": "string"
        },
        {
          "indexed": true,
          "internalType": "address",
          "name": "requester",
          "type": "address"
        },
        {
          "indexed": false,
          "internalType": "string",
          "name": "prompt",
          "type": "string"
        }
      ],
      "name": "GenerationRequested",
      "type": "event"
    },
    {
      "anonymous": false,
      "inputs": [
        {
          "indexed": true,
          "internalType": "string",
          "name": "ipfsHash",
          "type": "string"
        },
        {
          "indexed": true,
          "internalType": "uint256",
          "name": "tokenId",
          "type": "uint256"
        }
      ],
      "name": "IPFSMetadataUploaded",
      "type": "event"
    },
    {
      "anonymous": false,
      "inputs": [
        {
          "indexed": true,
          "internalType": "address",
          "name": "previousOwner",
          "type": "address"
        },
        {
          "indexed": true,
          "internalType": "address",
          "name": "newOwner",
          "type": "address"
        }
      ],
      "name": "OwnershipTransferred",
      "type": "event"
    },
    {
      "anonymous": false,
      "inputs": [
        {
          "indexed": false,
          "internalType": "address",
          "name": "account",
          "type": "address"
        }
      ],
      "name": "Paused",
      "type": "event"
    },
    {
      "anonymous": false,
      "inputs": [
        {
          "indexed": true,
          "internalType": "address",
          "name": "user",
          "type": "address"
        },
        {
          "indexed": false,
          "internalType": "uint256",
          "name": "amount",
          "type": "uint256"
        },
        {
          "indexed": false,
          "internalType": "string",
          "name": "reason",
          "type": "string"
        }
      ],
      "name": "RewardDistributed",
      "type": "event"
    },
    {
      "anonymous": false,
      "inputs": [
        {
          "indexed": false,
          "internalType": "address",
          "name": "account",
          "type": "address"
        }
      ],
      "name": "Unpaused",
      "type": "event"
    },
    {
      "inputs": [
        {
          "internalType": "address",
          "name": "",
          "type": "address"
        }
      ],
      "name": "authorizedCallbackSenders",
      "outputs": [
        {
          "internalType": "bool",
          "name": "",
          "type": "bool"
        }
      ],
      "stateMutability": "view",
      "type": "function"
    },
    {
      "inputs": [
        {
          "internalType": "string",
          "name": "taskId",
          "type": "string"
        },
        {
          "internalType": "address",
          "name": "creator",
          "type": "address"
        },
        {
          "internalType": "string[]",
          "name": "ipfsHashes",
          "type": "string[]"
        },
        {
          "internalType": "string[]",
          "name": "sunoIds",
          "type": "string[]"
        },
        {
          "internalType": "string[]",
          "name": "genres",
          "type": "string[]"
        },
        {
          "internalType": "uint256[]",
          "name": "durations",
          "type": "uint256[]"
        },
        {
          "internalType": "string[]",
          "name": "modelsUsed",
          "type": "string[]"
        },
        {
          "internalType": "bool[]",
          "name": "isRemixable",
          "type": "bool[]"
        },
        {
          "internalType": "uint256[]",
          "name": "royaltyRates",
          "type": "uint256[]"
        }
      ],
      "name": "batchMintWithMetadata",
      "outputs": [],
      "stateMutability": "nonpayable",
      "type": "function"
    },
    {
      "inputs": [],
      "name": "beatsToken",
      "outputs": [
        {
          "internalType": "contract IHiBeatsToken",
          "name": "",
          "type": "address"
        }
      ],
      "stateMutability": "view",
      "type": "function"
    },
    {
      "inputs": [
        {
          "internalType": "address",
          "name": "",
          "type": "address"
        }
      ],
      "name": "dailyGenerations",
      "outputs": [
        {
          "internalType": "uint256",
          "name": "",
          "type": "uint256"
        }
      ],
      "stateMutability": "view",
      "type": "function"
    },
    {
      "inputs": [],
      "name": "emergencyWithdraw",
      "outputs": [],
      "stateMutability": "nonpayable",
      "type": "function"
    },
    {
      "inputs": [
        {
          "internalType": "string",
          "name": "",
          "type": "string"
        }
      ],
      "name": "generationRequests",
      "outputs": [
        {
          "internalType": "address",
          "name": "requester",
          "type": "address"
        },
        {
          "internalType": "string",
          "name": "prompt",
          "type": "string"
        },
        {
          "internalType": "string",
          "name": "style",
          "type": "string"
        },
        {
          "internalType": "bool",
          "name": "isCustomMode",
          "type": "bool"
        },
        {
          "internalType": "bool",
          "name": "isInstrumental",
          "type": "bool"
        },
        {
          "internalType": "string",
          "name": "model",
          "type": "string"
        },
        {
          "internalType": "uint256",
          "name": "timestamp",
          "type": "uint256"
        },
        {
          "internalType": "bool",
          "name": "isProcessed",
          "type": "bool"
        },
        {
          "internalType": "string",
          "name": "callbackUrl",
          "type": "string"
        }
      ],
      "stateMutability": "view",
      "type": "function"
    },
    {
      "inputs": [],
      "name": "generationReward",
      "outputs": [
        {
          "internalType": "uint256",
          "name": "",
          "type": "uint256"
        }
      ],
      "stateMutability": "view",
      "type": "function"
    },
    {
      "inputs": [
        {
          "internalType": "address",
          "name": "user",
          "type": "address"
        }
      ],
      "name": "getRemainingGenerations",
      "outputs": [
        {
          "internalType": "uint256",
          "name": "",
          "type": "uint256"
        }
      ],
      "stateMutability": "view",
      "type": "function"
    },
    {
      "inputs": [
        {
          "internalType": "address",
          "name": "user",
          "type": "address"
        }
      ],
      "name": "getUserStats",
      "outputs": [
        {
          "internalType": "uint256",
          "name": "totalGens",
          "type": "uint256"
        },
        {
          "internalType": "uint256",
          "name": "successfulGens",
          "type": "uint256"
        },
        {
          "internalType": "uint256",
          "name": "todayGens",
          "type": "uint256"
        },
        {
          "internalType": "uint256",
          "name": "remainingGens",
          "type": "uint256"
        }
      ],
      "stateMutability": "view",
      "type": "function"
    },
    {
      "inputs": [
        {
          "internalType": "address",
          "name": "user",
          "type": "address"
        }
      ],
      "name": "getUserTaskIds",
      "outputs": [
        {
          "internalType": "string[]",
          "name": "",
          "type": "string[]"
        }
      ],
      "stateMutability": "view",
      "type": "function"
    },
    {
      "inputs": [],
      "name": "hiBeatsNFT",
      "outputs": [
        {
          "internalType": "contract IHiBeatsNFT",
          "name": "",
          "type": "address"
        }
      ],
      "stateMutability": "view",
      "type": "function"
    },
    {
      "inputs": [],
      "name": "hiBeatsProfile",
      "outputs": [
        {
          "internalType": "contract IHiBeatsProfile",
          "name": "",
          "type": "address"
        }
      ],
      "stateMutability": "view",
      "type": "function"
    },
    {
      "inputs": [],
      "name": "ipfsGateway",
      "outputs": [
        {
          "internalType": "string",
          "name": "",
          "type": "string"
        }
      ],
      "stateMutability": "view",
      "type": "function"
    },
    {
      "inputs": [],
      "name": "ipfsService",
      "outputs": [
        {
          "internalType": "address",
          "name": "",
          "type": "address"
        }
      ],
      "stateMutability": "view",
      "type": "function"
    },
    {
      "inputs": [
        {
          "internalType": "address",
          "name": "",
          "type": "address"
        }
      ],
      "name": "lastGenerationDate",
      "outputs": [
        {
          "internalType": "uint256",
          "name": "",
          "type": "uint256"
        }
      ],
      "stateMutability": "view",
      "type": "function"
    },
    {
      "inputs": [],
      "name": "maxGenerationsPerDay",
      "outputs": [
        {
          "internalType": "uint256",
          "name": "",
          "type": "uint256"
        }
      ],
      "stateMutability": "view",
      "type": "function"
    },
    {
      "inputs": [],
      "name": "owner",
      "outputs": [
        {
          "internalType": "address",
          "name": "",
          "type": "address"
        }
      ],
      "stateMutability": "view",
      "type": "function"
    },
    {
      "inputs": [],
      "name": "pause",
      "outputs": [],
      "stateMutability": "nonpayable",
      "type": "function"
    },
    {
      "inputs": [],
      "name": "paused",
      "outputs": [
        {
          "internalType": "bool",
          "name": "",
          "type": "bool"
        }
      ],
      "stateMutability": "view",
      "type": "function"
    },
    {
      "inputs": [],
      "name": "premiumGenerationReward",
      "outputs": [
        {
          "internalType": "uint256",
          "name": "",
          "type": "uint256"
        }
      ],
      "stateMutability": "view",
      "type": "function"
    },
    {
      "inputs": [
        {
          "internalType": "address",
          "name": "",
          "type": "address"
        }
      ],
      "name": "premiumUsers",
      "outputs": [
        {
          "internalType": "bool",
          "name": "",
          "type": "bool"
        }
      ],
      "stateMutability": "view",
      "type": "function"
    },
    {
      "inputs": [
        {
          "internalType": "string",
          "name": "taskId",
          "type": "string"
        },
        {
          "components": [
            {
              "internalType": "string",
              "name": "taskId",
              "type": "string"
            },
            {
              "internalType": "string",
              "name": "status",
              "type": "string"
            },
            {
              "internalType": "string[]",
              "name": "sunoIds",
              "type": "string[]"
            },
            {
              "internalType": "string[]",
              "name": "audioUrls",
              "type": "string[]"
            },
            {
              "internalType": "string[]",
              "name": "imageUrls",
              "type": "string[]"
            },
            {
              "internalType": "string[]",
              "name": "titles",
              "type": "string[]"
            },
            {
              "internalType": "string[]",
              "name": "tags",
              "type": "string[]"
            },
            {
              "internalType": "uint256[]",
              "name": "durations",
              "type": "uint256[]"
            },
            {
              "internalType": "string",
              "name": "errorMessage",
              "type": "string"
            }
          ],
          "internalType": "struct HiBeatsFactory.SunoCallbackData",
          "name": "callbackData",
          "type": "tuple"
        }
      ],
      "name": "processSunoCallback",
      "outputs": [],
      "stateMutability": "nonpayable",
      "type": "function"
    },
    {
      "inputs": [
        {
          "internalType": "string",
          "name": "",
          "type": "string"
        }
      ],
      "name": "processedCallbacks",
      "outputs": [
        {
          "internalType": "bool",
          "name": "",
          "type": "bool"
        }
      ],
      "stateMutability": "view",
      "type": "function"
    },
    {
      "inputs": [],
      "name": "renounceOwnership",
      "outputs": [],
      "stateMutability": "nonpayable",
      "type": "function"
    },
    {
      "inputs": [
        {
          "internalType": "string",
          "name": "taskId",
          "type": "string"
        },
        {
          "internalType": "string",
          "name": "prompt",
          "type": "string"
        },
        {
          "internalType": "string",
          "name": "style",
          "type": "string"
        },
        {
          "internalType": "bool",
          "name": "isCustomMode",
          "type": "bool"
        },
        {
          "internalType": "bool",
          "name": "isInstrumental",
          "type": "bool"
        },
        {
          "internalType": "string",
          "name": "model",
          "type": "string"
        },
        {
          "internalType": "string",
          "name": "callbackUrl",
          "type": "string"
        }
      ],
      "name": "requestGeneration",
      "outputs": [],
      "stateMutability": "payable",
      "type": "function"
    },
    {
      "inputs": [
        {
          "internalType": "address",
          "name": "sender",
          "type": "address"
        },
        {
          "internalType": "bool",
          "name": "authorized",
          "type": "bool"
        }
      ],
      "name": "setAuthorizedCallbackSender",
      "outputs": [],
      "stateMutability": "nonpayable",
      "type": "function"
    },
    {
      "inputs": [
        {
          "internalType": "uint256",
          "name": "_limit",
          "type": "uint256"
        }
      ],
      "name": "setGenerationLimit",
      "outputs": [],
      "stateMutability": "nonpayable",
      "type": "function"
    },
    {
      "inputs": [
        {
          "internalType": "uint256",
          "name": "_reward",
          "type": "uint256"
        }
      ],
      "name": "setGenerationReward",
      "outputs": [],
      "stateMutability": "nonpayable",
      "type": "function"
    },
    {
      "inputs": [
        {
          "internalType": "string",
          "name": "newGateway",
          "type": "string"
        }
      ],
      "name": "setIPFSGateway",
      "outputs": [],
      "stateMutability": "nonpayable",
      "type": "function"
    },
    {
      "inputs": [
        {
          "internalType": "address",
          "name": "newService",
          "type": "address"
        }
      ],
      "name": "setIPFSService",
      "outputs": [],
      "stateMutability": "nonpayable",
      "type": "function"
    },
    {
      "inputs": [
        {
          "internalType": "address",
          "name": "_profileContract",
          "type": "address"
        }
      ],
      "name": "setProfileContract",
      "outputs": [],
      "stateMutability": "nonpayable",
      "type": "function"
    },
    {
      "inputs": [
        {
          "internalType": "address",
          "name": "",
          "type": "address"
        }
      ],
      "name": "successfulGenerations",
      "outputs": [
        {
          "internalType": "uint256",
          "name": "",
          "type": "uint256"
        }
      ],
      "stateMutability": "view",
      "type": "function"
    },
    {
      "inputs": [
        {
          "internalType": "address",
          "name": "",
          "type": "address"
        }
      ],
      "name": "totalGenerations",
      "outputs": [
        {
          "internalType": "uint256",
          "name": "",
          "type": "uint256"
        }
      ],
      "stateMutability": "view",
      "type": "function"
    },
    {
      "inputs": [
        {
          "internalType": "address",
          "name": "newOwner",
          "type": "address"
        }
      ],
      "name": "transferOwnership",
      "outputs": [],
      "stateMutability": "nonpayable",
      "type": "function"
    },
    {
      "inputs": [],
      "name": "unpause",
      "outputs": [],
      "stateMutability": "nonpayable",
      "type": "function"
    },
    {
      "stateMutability": "payable",
      "type": "receive"
    }
  ],
  "bytecode": "0x60c034620002ea576001600160401b0390601f62002cd238819003918201601f19168301929160009185851184861017620002d6578160609285926040978852833981010312620002d3576200005582620002ef565b9162000071846200006960208401620002ef565b9201620002ef565b903315620002bb578254336001600160a01b03198083168217865587519490926001600160a01b03929083167f8be0079c531659141344cd1fd0a4f28419497f9722a3daafe3b4186f6b6457e08880a3600196878055678ac7230489e800006005556801158e460913d0000060065560036007556010548881811c91168015620002b0575b60208210146200029c5780601f8592116200022e575b50809160456010556010895261732f60f01b8a60208b207f68747470733a2f2f676174657761792e70696e6174612e636c6f75642f697066815501551694856080521660a05216906011541617601155803b156200022a57816044818580946370a1a7a760e11b83523060048401528860248401525af194851562000220578495949394620001f5575b5050338152600f602052209060ff19825416179055516129cd90816200030582396080518181816107e8015281816108350152818161093201528181610c8e015261223c015260a0518181816103a901528181611b2c01526121f70152f35b9080929350116200020c5783528290388062000196565b634e487b7160e01b82526041600452602482fd5b84513d84823e3d90fd5b8280fd5b60108952601f0160051c7f1b6847dc741a1b0cd08d278845f9d819d87b734759afb55fe2de5cb82a9ae67201897f1b6847dc741a1b0cd08d278845f9d819d87b734759afb55fe2de5cb82a9ae6745b8281106200028d5750506200010c565b8a81558693508b91016200027d565b634e487b7160e01b88526022600452602488fd5b90607f1690620000f6565b8451631e4fbdf760e01b815260048101849052602490fd5b80fd5b634e487b7160e01b83526041600452602483fd5b600080fd5b51906001600160a01b0382168203620002ea5756fe608080604052600436101561001d575b50361561001b57600080fd5b005b600090813560e01c90816302fbb728146122e45750806316045a69146122a45780631aaed1861461226b5780632f9662c514612226578063374cb7c5146121e15780633f4ba83a14612176578063404c4e141461212757806343ba811f146120e8578063488e7144146120ca5780634e43603a14611ff35780634f1dbb7514611fd057806350b5dcea146115e657806354556625146115bd5780635ba4a002146115845780635c975abb146115615780635cba5933146115285780635e6ffac71461145857806361728136146113ff578063715018a6146113a557806375a2d46c1461137c5780637c7047b9146112615780638456cb59146112065780638da5cb5b146111df5780638db8214e1461119f5780639abd38d514611173578063ae06039d14611155578063b6d7732514610fe6578063d4bee2e314610b50578063da9efb08146104eb578063db2e21bc14610365578063e2b2d48214610326578063eb64787914610290578063f2fde38b14610205578063f48f4591146101cc5763f62622eb0361000f57346101c95760203660031901126101c9576101c0612641565b60043560055580f35b80fd5b50346101c95760203660031901126101c9576020906040906001600160a01b036101f4612300565b168152600d83522054604051908152f35b50346101c95760203660031901126101c95761021f612300565b610227612641565b6001600160a01b0390811690811561027757600054826001600160601b0360a01b821617600055167f8be0079c531659141344cd1fd0a4f28419497f9722a3daafe3b4186f6b6457e0600080a380f35b604051631e4fbdf760e01b815260048101849052602490fd5b50346101c957602080600319360112610322576001600160a01b036102b3612300565b16825260038152604082208054906102ca826123eb565b936102d86040519586612345565b828552908152828120838086015b84841061030457604051828152806103008185018a6125e5565b0390f35b60019182916103128561251a565b81520192019201919084906102e6565b5080fd5b50346101c95760203660031901126101c95760209060ff906040906001600160a01b03610351612300565b168152600e84522054166040519015158152f35b50346101c957806003193601126101c95761037e612641565b804780159081156104b0575b50506040516370a0823160e01b81523060048201526001600160a01b037f0000000000000000000000000000000000000000000000000000000000000000811692506020918281602481875afa9081156104a5578591610473575b50806103ef578480f35b845460405163a9059cbb60e01b815292166001600160a01b03166004830152602482015291819083908186816044810103925af1801561046857610434575b80808480f35b81813d8311610461575b6104488183612345565b8101031261032257610459906128f6565b50388061042e565b503d61043e565b6040513d85823e3d90fd5b90508281813d831161049e575b61048a8183612345565b810103126104995751386103e5565b600080fd5b503d610480565b6040513d87823e3d90fd5b82809291819260018060a01b038354169083906104e2575bf1156104d65780388061038a565b604051903d90823e3d90fd5b506108fc6104c8565b50346101c9576101203660031901126101c9576004356001600160401b0381116103225761051d903690600401612381565b602435916001600160a01b0383168303610499576044356001600160401b03811161032257610550903690600401612402565b906064356001600160401b03811161032257610570903690600401612402565b916084356001600160401b038111610a5a57610590903690600401612402565b9260a4356001600160401b038111610b4c576105b0903690600401612482565b9460c4356001600160401b038111610b48576105d0903690600401612402565b966001600160401b0360e43511610b485736602360e435011215610b485760e43560040135926105ff846123eb565b61060c6040519182612345565b8481526020810180953660248260051b60e435010111610b4457602460e43501915b60248260051b60e43501018310610b2957505050610104356001600160401b038111610b2557610662903690600401612482565b9061066b612641565b61067361280d565b8651835103610ae85786999899519a61068b8c6123eb565b9b6106996040519d8e612345565b808d526106a8601f19916123eb565b01895b8d828210610ad85750505088996010549a5b89518110156107c7578d8c8c6106d3848e61284e565b5160405192826106e2826124e0565b91600181169081156107895750600114610745575b5050928261072a61073a9460208561071b898b9a986107409c9951948592016123c8565b0103601f198101835282612345565b610734838361284e565b5261284e565b506127bb565b6106bd565b90919250601081526000805160206129788339815191525b828210610773575050820160200190828f6106f7565b600181602092548385890101520191019061075d565b88979461074099965061072a9350879461073a989350602061071b91819460ff1916828701528015150285010197505094979850509450508f6106f7565b50604051635a64ad9560e01b8152979a50959694958c948c906020886004817f00000000000000000000000000000000000000000000000000000000000000006001600160a01b03165afa978815610acd578c98610a99575b508a51968888810204881489151715610a85577f00000000000000000000000000000000000000000000000000000000000000006001600160a01b03163b15610a815760405163c84e5d1360e01b81526001600160a01b03909a1660048b015261010060248b0152610897906101048b01906125e5565b8981036003190160448b01526108ac916125e5565b8881036003190160648a01526108c1916125e5565b8781036003190160848901526108d691612878565b8681036003190160a48801526108eb916125e5565b906003198683030160c487015251908181526020019890885b818110610a6957505050928092818895938161092d8c89976003198483030160e4850152612878565b0392027f00000000000000000000000000000000000000000000000000000000000000006001600160a01b03165af18015610a5e57610a46575b505033835260036020526040832080549068010000000000000000821015610a325760018201808255821015610a1e578452602084206109a89291016126ac565b815b8151811015610a1a576109bd818361284e565b516001820190818311610a0657906109d8610a0193926127e0565b7f89bc21d28827a5fe2dcfc3216e30fe9a428f7a5c0a84e23997d669e35e0a92498680a36127bb565b6109aa565b634e487b7160e01b85526011600452602485fd5b8280f35b634e487b7160e01b85526032600452602485fd5b634e487b7160e01b85526041600452602485fd5b610a4f90612332565b610a5a578284610967565b8280fd5b6040513d84823e3d90fd5b825115158b5260209a8b019a90920191600101610904565b8c80fd5b634e487b7160e01b8d52601160045260248dfd5b9097506020813d602011610ac5575b81610ab560209383612345565b810103126104995751968d610820565b3d9150610aa8565b6040513d8e823e3d90fd5b60606020918301820152016106ab565b60405162461bcd60e51b8152602060048201526015602482015274082e4e4c2f240d8cadccee8d040dad2e6dac2e8c6d605b1b6044820152606490fd5b8780fd5b8235908115158203610499579081526020928301920161062e565b8880fd5b8480fd5b8380fd5b5060e03660031901126101c9576001600160401b039060043582811161032257610b7e903690600401612381565b602435838111610a5a57610b96903690600401612381565b90604435848111610b4c57610baf903690600401612381565b916064359182151580930361049957608435938415158095036104995760a435878111610fe257610be4903690600401612381565b9660c435908111610fe257610bfd903690600401612381565b610c0561280d565b610c0e33612903565b610fc4575b3387526020946009865260408820546007541115610f7f57610c3361282b565b610c3f8451151561266d565b845115610f4857604051906005855192888181890195610c608183896123c8565b810160088152030190200154610f0a57604051635a64ad9560e01b8152976001600160a01b0394888a6004817f00000000000000000000000000000000000000000000000000000000000000008a165afa998a15610eff578b9a610ed0575b50893410610e8b57918a9b918b949360405197610cdb89612316565b3389528b8901908b825260408a0192835260608a0194855260808a0193845260a08a0195865260c08a019642885260e08b019889526101008b01998a528d8c60405180938192518092610d2d926123c8565b810160088152030190209951166001600160601b0360a01b8a5416178955516001890190610d5a916126ac565b51610d6890600289016126ac565b6003870191511515610d8690839060ff801983541691151516179055565b51151581549060081b61ff00169061ff001916179055516004850190610dab916126ac565b5160058401555115156006830190610dce919060ff801983541691151516179055565b51610ddb916007016126ac565b33855260098352604085208054610df1906127bb565b9055338552600c8352604085208054610e09906127bb565b9055610e14906127e0565b90604051809184825233948201610e2a916125c0565b037fe1a49d6d78fe3cbf58b62c779b7483d15e17fdaecca147f0d3ead92e9f461e1f91a3803411610e5e575b506001805580f35b8180610e6b819334612800565b818115610e82575b3390f1156104d6578038610e56565b506108fc610e73565b60405162461bcd60e51b8152600481018a9052601f60248201527f496e73756666696369656e742066656520666f722067656e65726174696f6e006044820152606490fd5b9099508881813d8311610ef8575b610ee88183612345565b8101031261049957519838610cbf565b503d610ede565b6040513d8d823e3d90fd5b60405162461bcd60e51b81526004810188905260166024820152755461736b20494420616c72656164792065786973747360501b6044820152606490fd5b60405162461bcd60e51b815260048101879052600f60248201526e141c9bdb5c1d081c995c5d5a5c9959608a1b6044820152606490fd5b60405162461bcd60e51b815260048101879052601f60248201527f4461696c792067656e65726174696f6e206c696d6974206578636565646564006044820152606490fd5b3387526009602052866040812055600a602052426040882055610c13565b8680fd5b50346101c957602090816003193601126101c9576001600160401b03600435818111610a5a5761101a903690600401612381565b92611023612641565b835191821161113f576110376010546124e0565b601f81116110ed575b5080601f831160011461107c5750819293600092611071575b50508160011b916000199060031b1c19161760105580f35b015190503880611059565b90601f198316946010600052600080516020612978833981519152926000905b8782106110d55750508360019596106110bc575b505050811b0160105580f35b015160001960f88460031b161c191690553880806110b0565b8060018596829496860151815501950193019061109c565b6010600052600080516020612978833981519152601f840160051c810191838510611135575b601f0160051c01905b8181106111295750611040565b6000815560010161111c565b9091508190611113565b634e487b7160e01b600052604160045260246000fd5b50346101c957806003193601126101c9576020600754604051908152f35b50346101c95760203660031901126101c9576020611197611192612300565b6128ac565b604051908152f35b50346101c95760203660031901126101c9576111b9612300565b6111c1612641565b60018060a01b03166001600160601b0360a01b600454161760045580f35b50346101c957806003193601126101c957546040516001600160a01b039091168152602090f35b50346101c957806003193601126101c95761121f612641565b61122761280d565b600160ff1960025416176002557f62e78cea01bee320cd4e420270b5ea74000d11b0c9f74754ebdbfc544b05a2586020604051338152a180f35b50346101c95760203660031901126101c957600435906001600160401b0382116101c9576112aa60206112973660048601612381565b81604051938285809451938492016123c8565b60089082019081520301902080546001600160a01b03166103006112d06001840161251a565b926112dd6002820161251a565b6003820154916113616112f26004830161251a565b9360058301549460ff61133e611311600783600689015416970161251a565b966113306040519c8d9c8d5260208d61012091829101528d01906125c0565b908b820360408d01526125c0565b92818116151560608b015260081c161515608089015287820360a08901526125c0565b9260c0860152151560e08501528382036101008501526125c0565b50346101c957806003193601126101c9576004546040516001600160a01b039091168152602090f35b50346101c957806003193601126101c9576113be612641565b600080546001600160a01b0319811682556001600160a01b03167f8be0079c531659141344cd1fd0a4f28419497f9722a3daafe3b4186f6b6457e08280a380f35b50346101c95760403660031901126101c957611419612300565b60243580151581036104995761145591611431612641565b60018060a01b03168352600f602052604083209060ff801983541691151516179055565b80f35b50346101c957806003193601126101c957604051600060105461147a816124e0565b8084529060019081811690811561150157506001146114b8575b610300846114a481860382612345565b6040519182916020835260208301906125c0565b6010600090815292506000805160206129788339815191525b8284106114e95750505081016020016114a482611494565b805460208587018101919091529093019281016114d1565b60ff191660208087019190915292151560051b850190920192506114a49150839050611494565b50346101c95760203660031901126101c9576020906040906001600160a01b03611550612300565b168152600983522054604051908152f35b50346101c957806003193601126101c957602060ff600254166040519015158152f35b50346101c95760203660031901126101c9576020906040906001600160a01b036115ac612300565b168152600a83522054604051908152f35b50346101c957806003193601126101c9576011546040516001600160a01b039091168152602090f35b50346101c957600319604036820112610322576004356001600160401b038111610a5a57611618903690600401612381565b90602435906001600160401b038211610b4c57610120908236030112610a5a576040519061164582612316565b80600401356001600160401b038111610b48576116689060043691840101612381565b825260248101356001600160401b038111610b485761168d9060043691840101612381565b602083015260448101356001600160401b038111610b48576116b59060043691840101612402565b604083015260648101356001600160401b038111610b48576116dd9060043691840101612402565b606083015260848101356001600160401b038111610b48576117059060043691840101612402565b608083015260a48101356001600160401b038111610b485761172d9060043691840101612402565b60a083015260c48101356001600160401b038111610b48576117559060043691840101612402565b60c083015260e48101356001600160401b038111610b485761177d9060043691840101612482565b60e0830152610104810135906001600160401b038211610b485760046117a69236920101612381565b610100820152338352600f60205260ff6040842054168015611fbd575b15611f78576117d061280d565b6117d861282b565b6117e48251151561266d565b60ff60405160208185516117fb8183858a016123c8565b8101600b8152030190205416611f3357600560405160208185516118228183858a016123c8565b81016008815203019020015415611eee5760ff6006604051602081865161184c8183858b016123c8565b81016008815203019020015416611ea957604051602081845161187281838589016123c8565b8101600b81520301902060ff19906001828254161790556001600660405160208187516118a28183858c016123c8565b81016008815203019020019182541617905560208101517f940316db8676bd2f9ae4ac7e4b71aa165be6ce8d4f8ed01a2969d79fd010748c6118fb6118e6856127e0565b926040519182916020835260208301906125c0565b0390a26020810151602081519101206040518060408101106001600160401b03604083011117610a325790665355434345535360c81b60208360407f39bf027dd97f3bae0cf8cfb909695ec63313a9bd61ad52fc7f52cf565b141da8950160405260078152015214600014611e6e576040805160208185516119808183858a016123c8565b8101600881520301902091611a16600783519461199c86612316565b80546001600160a01b031686526119b56001820161251a565b60208701526119c66002820161251a565b8587015260ff60038201548181161515606089015260081c16151560808701526119f26004820161251a565b60a0870152600581015460c087015260ff600682015416151560e08701520161251a565b610100840152015151611a2e575b50505b6001805580f35b80516001600160a01b03168352600d602052604083208054611a4f906127bb565b905580516004546001600160a01b03908116911681151580611dfe575b611c15575b505080516001600160a01b03168352600e602052604083205460ff1615611c0d576006545b80611b1a575b506040519060208201908282106001600160401b0383111761113f57604091909152838252516001600160a01b0316917feed5910e21c43d5fac4922c39903cce155f71bce270949372af82f3ac7e6b15190611b1090611afb906127e0565b92604051918291602083526020830190612878565b0390a33880611a24565b815184906001600160a01b03908116907f000000000000000000000000000000000000000000000000000000000000000016803b15610a5a5760405163d264a38b60e01b81526001600160a01b039290921660048301526024820184905282908290604490829084905af18015610a5e57611bf9575b50507f49649141d16971a88c3cfdd73fec34babb1cf163cf8b804c8f537a023c6ce506608060018060a01b038451169260405190815260406020820152601560408201527439bab1b1b2b9b9b33ab62fb3b2b732b930ba34b7b760591b6060820152a238611a9c565b611c0290612332565b610b4c578338611b90565b600554611a96565b60405163bbe1562760e01b815260048101829052908582602481865afa908115611df357869287908893611ccf575b50600184018411611cbb579087939291853b15610b48576001956084938692604051988997889663a823198560e01b88526004880152016024860152604485015260648401525af18015611cb057611c9d575b80611a71565b611ca990939193612332565b9138611c97565b6040513d86823e3d90fd5b634e487b7160e01b88526011600452602488fd5b93505090503d8087843e611ce38184612345565b6101c0838281010312610fe25782516001600160401b038111610b2557611d0f90828501908501612935565b5060208301516001600160401b038111610b2557611d3290828501908501612935565b5060408301516001600160401b038111610b2557611d5590828501908501612935565b5060608301516001600160401b038111610b2557611d7890828501908501612935565b5060808301516001600160401b038111610b2557611d9b90828501908501612935565b5060a08301516001600160401b038111610b2557611dbd918401908401612935565b50611dca60c083016128f6565b50611dd760e083016128f6565b50610160820151906101a0610180840151930151919238611c44565b6040513d88823e3d90fd5b5060405163a787c80b60e01b815260048101829052602081602481865afa908115611df3578691611e30575b50611a6c565b90506020813d602011611e66575b81611e4b60209383612345565b81010312611e6257611e5c906128f6565b38611e2a565b8580fd5b3d9150611e3e565b611ea16118e66101007fc7112afc660c61d21337292377a2e3e061d3b5e47a50c24d22a03884b57dedf7930151936127e0565b0390a2611a27565b60405162461bcd60e51b815260206004820152601960248201527f5265717565737420616c72656164792070726f636573736564000000000000006044820152606490fd5b60405162461bcd60e51b815260206004820152601c60248201527f47656e65726174696f6e2072657175657374206e6f7420666f756e64000000006044820152606490fd5b60405162461bcd60e51b815260206004820152601a60248201527f43616c6c6261636b20616c72656164792070726f6365737365640000000000006044820152606490fd5b60405162461bcd60e51b815260206004820152601c60248201527f4e6f7420617574686f72697a656420666f722063616c6c6261636b73000000006044820152606490fd5b5082546001600160a01b031633146117c3565b50346101c95760203660031901126101c957611fea612641565b60043560075580f35b50346101c9576020806003193601126103225761200e612300565b6001600160a01b038116808452600c8352604080852054600d8552908520549093919261203a90612903565b156120b85784915b60405193639abd38d560e01b855260048501528084602481305afa938415611df3578694612085575b506080955060405194855284015260408301526060820152f35b9080945081813d83116120b1575b61209d8183612345565b81010312611e62576080955051923861206b565b503d612093565b82855260098252604085205491612042565b50346101c957806003193601126101c9576020600654604051908152f35b50346101c95760203660031901126101c95760209060ff906040906001600160a01b03612113612300565b168152600f84522054166040519015158152f35b50346101c95760203660031901126101c957600435906001600160401b0382116101c957602060ff612160826112973660048801612381565b8101600b81520301902054166040519015158152f35b50346101c957806003193601126101c95761218f612641565b60025460ff8116156121cf5760ff19166002557f5db9ee0a495bf2e6ff9c91a7834c1ba4fdd244a5e8aa4e537bd38aeae4b073aa6020604051338152a180f35b604051638dfc202b60e01b8152600490fd5b50346101c957806003193601126101c9576040517f00000000000000000000000000000000000000000000000000000000000000006001600160a01b03168152602090f35b50346101c957806003193601126101c9576040517f00000000000000000000000000000000000000000000000000000000000000006001600160a01b03168152602090f35b50346101c95760203660031901126101c9576020906040906001600160a01b03612293612300565b168152600c83522054604051908152f35b50346101c95760203660031901126101c9576122be612300565b6122c6612641565b60018060a01b03166001600160601b0360a01b601154161760115580f35b9050346103225781600319360112610322576020906005548152f35b600435906001600160a01b038216820361049957565b61012081019081106001600160401b0382111761113f57604052565b6001600160401b03811161113f57604052565b90601f801991011681019081106001600160401b0382111761113f57604052565b6001600160401b03811161113f57601f01601f191660200190565b81601f820112156104995780359061239882612366565b926123a66040519485612345565b8284526020838301011161049957816000926020809301838601378301015290565b60005b8381106123db5750506000910152565b81810151838201526020016123cb565b6001600160401b03811161113f5760051b60200190565b9080601f830112156104995781359061241a826123eb565b926124286040519485612345565b828452602092838086019160051b8301019280841161049957848301915b8483106124565750505050505090565b82356001600160401b03811161049957869161247784848094890101612381565b815201920191612446565b81601f8201121561049957803591612499836123eb565b926124a76040519485612345565b808452602092838086019260051b820101928311610499578301905b8282106124d1575050505090565b813581529083019083016124c3565b90600182811c92168015612510575b60208310146124fa57565b634e487b7160e01b600052602260045260246000fd5b91607f16916124ef565b906040519182600082549261252e846124e0565b90818452600194858116908160001461259d575060011461255a575b505061255892500383612345565b565b9093915060005260209081600020936000915b8183106125855750506125589350820101388061254a565b8554888401850152948501948794509183019161256d565b91505061255894506020925060ff191682840152151560051b820101388061254a565b906020916125d9815180928185528580860191016123c8565b601f01601f1916010190565b908082519081815260208091019281808460051b8301019501936000915b8483106126135750505050505090565b9091929394958480612631600193601f198682030187528a516125c0565b9801930193019194939290612603565b6000546001600160a01b0316330361265557565b60405163118cdaa760e01b8152336004820152602490fd5b1561267457565b60405162461bcd60e51b815260206004820152601060248201526f15185cdac81251081c995c5d5a5c995960821b6044820152606490fd5b91909182516001600160401b03811161113f576126c982546124e0565b601f8111612773575b50602080601f831160011461270f575081929394600092612704575b50508160011b916000199060031b1c1916179055565b0151905038806126ee565b90601f198316958460005282600020926000905b88821061275b57505083600195969710612742575b505050811b019055565b015160001960f88460031b161c19169055388080612738565b80600185968294968601518155019501930190612723565b600083815260208120601f840160051c810192602085106127b1575b601f0160051c01915b8281106127a65750506126d2565b818155600101612798565b909250829061278f565b60001981146127ca5760010190565b634e487b7160e01b600052601160045260246000fd5b6127f8906020604051928284809451938492016123c8565b810103902090565b919082039182116127ca57565b60ff6002541661281957565b60405163d93c066560e01b8152600490fd5b60026001541461283c576002600155565b604051633ee5aeb560e01b8152600490fd5b80518210156128625760209160051b010190565b634e487b7160e01b600052603260045260246000fd5b90815180825260208080930193019160005b828110612898575050505090565b83518552938101939281019260010161288a565b6128b581612903565b6128ef576001600160a01b0316600090815260096020526040902054600754908181106128e3575050600090565b6128ec91612800565b90565b5060075490565b5190811515820361049957565b6001600160a01b03166000908152600a6020526040902054801561292f57620151808091049042041190565b50600190565b81601f8201121561049957805161294b81612366565b926129596040519485612345565b81845260208284010111610499576128ec91602080850191016123c856fe1b6847dc741a1b0cd08d278845f9d819d87b734759afb55fe2de5cb82a9ae672a2646970667358221220ae206ca1cecca01f92b4c49b32e61df707272736f64763b2b0df21c3aa85c0b864736f6c63430008140033",
  "linkReferences": {},
  "deployedLinkReferences": {}
}