{"contracts/HiBeatsFactoryFixed.sol":{"HiBeatsFactoryFixed":{"abi":[{"inputs":[{"internalType":"address","name":"_hiBeatsNFT","type":"address"},{"internalType":"address","name":"_beatsToken","type":"address"},{"internalType":"address","name":"_ipfsService","type":"address"}],"stateMutability":"nonpayable","type":"constructor"},{"inputs":[],"name":"EnforcedPause","type":"error"},{"inputs":[],"name":"ExpectedPause","type":"error"},{"inputs":[{"internalType":"address","name":"owner","type":"address"}],"name":"OwnableInvalidOwner","type":"error"},{"inputs":[{"internalType":"address","name":"account","type":"address"}],"name":"OwnableUnauthorizedAccount","type":"error"},{"inputs":[],"name":"ReentrancyGuardReentrantCall","type":"error"},{"anonymous":false,"inputs":[{"indexed":true,"internalType":"uint256","name":"requestId","type":"uint256"},{"indexed":true,"internalType":"address","name":"user","type":"address"},{"indexed":false,"internalType":"string","name":"reason","type":"string"}],"name":"GenerationFailed","type":"event"},{"anonymous":false,"inputs":[{"indexed":true,"internalType":"uint256","name":"requestId","type":"uint256"},{"indexed":true,"internalType":"address","name":"user","type":"address"},{"indexed":true,"internalType":"uint256","name":"tokenId","type":"uint256"},{"indexed":false,"internalType":"string","name":"metadataURI","type":"string"}],"name":"MusicGenerationCompleted","type":"event"},{"anonymous":false,"inputs":[{"indexed":true,"internalType":"uint256","name":"requestId","type":"uint256"},{"indexed":true,"internalType":"address","name":"user","type":"address"},{"indexed":false,"internalType":"string","name":"prompt","type":"string"},{"indexed":false,"internalType":"string","name":"style","type":"string"},{"indexed":false,"internalType":"bool","name":"instrumental","type":"bool"}],"name":"MusicGenerationRequested","type":"event"},{"anonymous":false,"inputs":[{"indexed":true,"internalType":"address","name":"previousOwner","type":"address"},{"indexed":true,"internalType":"address","name":"newOwner","type":"address"}],"name":"OwnershipTransferred","type":"event"},{"anonymous":false,"inputs":[{"indexed":false,"internalType":"address","name":"account","type":"address"}],"name":"Paused","type":"event"},{"anonymous":false,"inputs":[{"indexed":true,"internalType":"address","name":"user","type":"address"},{"indexed":false,"internalType":"uint256","name":"amount","type":"uint256"}],"name":"RewardDistributed","type":"event"},{"anonymous":false,"inputs":[{"indexed":false,"internalType":"address","name":"account","type":"address"}],"name":"Unpaused","type":"event"},{"inputs":[{"internalType":"address","name":"","type":"address"}],"name":"authorizedCallbackSenders","outputs":[{"internalType":"bool","name":"","type":"bool"}],"stateMutability":"view","type":"function"},{"inputs":[],"name":"beatsToken","outputs":[{"internalType":"contract IHiBeatsToken","name":"","type":"address"}],"stateMutability":"view","type":"function"},{"inputs":[{"internalType":"uint256","name":"requestId","type":"uint256"},{"internalType":"string","name":"audioUrl","type":"string"},{"internalType":"string","name":"imageUrl","type":"string"},{"internalType":"string","name":"title","type":"string"},{"internalType":"string","name":"artist","type":"string"}],"name":"completeMusicGeneration","outputs":[],"stateMutability":"nonpayable","type":"function"},{"inputs":[{"internalType":"address","name":"","type":"address"}],"name":"dailyGenerations","outputs":[{"internalType":"uint256","name":"","type":"uint256"}],"stateMutability":"view","type":"function"},{"inputs":[],"name":"dailyLimit","outputs":[{"internalType":"uint256","name":"","type":"uint256"}],"stateMutability":"view","type":"function"},{"inputs":[],"name":"generationFee","outputs":[{"internalType":"uint256","name":"","type":"uint256"}],"stateMutability":"view","type":"function"},{"inputs":[{"internalType":"uint256","name":"","type":"uint256"}],"name":"generationRequests","outputs":[{"internalType":"address","name":"user","type":"address"},{"internalType":"string","name":"prompt","type":"string"},{"internalType":"string","name":"style","type":"string"},{"internalType":"bool","name":"instrumental","type":"bool"},{"internalType":"uint256","name":"timestamp","type":"uint256"},{"internalType":"bool","name":"completed","type":"bool"},{"internalType":"string","name":"metadataURI","type":"string"},{"internalType":"uint256","name":"tokenId","type":"uint256"}],"stateMutability":"view","type":"function"},{"inputs":[{"internalType":"address","name":"user","type":"address"}],"name":"getDailyGenerationsLeft","outputs":[{"internalType":"uint256","name":"","type":"uint256"}],"stateMutability":"view","type":"function"},{"inputs":[{"internalType":"uint256","name":"requestId","type":"uint256"}],"name":"getGenerationRequest","outputs":[{"components":[{"internalType":"address","name":"user","type":"address"},{"internalType":"string","name":"prompt","type":"string"},{"internalType":"string","name":"style","type":"string"},{"internalType":"bool","name":"instrumental","type":"bool"},{"internalType":"uint256","name":"timestamp","type":"uint256"},{"internalType":"bool","name":"completed","type":"bool"},{"internalType":"string","name":"metadataURI","type":"string"},{"internalType":"uint256","name":"tokenId","type":"uint256"}],"internalType":"struct HiBeatsFactoryFixed.GenerationRequest","name":"","type":"tuple"}],"stateMutability":"view","type":"function"},{"inputs":[{"internalType":"address","name":"user","type":"address"}],"name":"getUserRequests","outputs":[{"internalType":"uint256[]","name":"","type":"uint256[]"}],"stateMutability":"view","type":"function"},{"inputs":[],"name":"hiBeatsNFT","outputs":[{"internalType":"contract IHiBeatsNFT","name":"","type":"address"}],"stateMutability":"view","type":"function"},{"inputs":[],"name":"ipfsService","outputs":[{"internalType":"address","name":"","type":"address"}],"stateMutability":"view","type":"function"},{"inputs":[{"internalType":"address","name":"","type":"address"}],"name":"lastGenerationDay","outputs":[{"internalType":"uint256","name":"","type":"uint256"}],"stateMutability":"view","type":"function"},{"inputs":[{"internalType":"uint256","name":"requestId","type":"uint256"},{"internalType":"string","name":"reason","type":"string"}],"name":"markGenerationFailed","outputs":[],"stateMutability":"nonpayable","type":"function"},{"inputs":[],"name":"nextRequestId","outputs":[{"internalType":"uint256","name":"","type":"uint256"}],"stateMutability":"view","type":"function"},{"inputs":[],"name":"owner","outputs":[{"internalType":"address","name":"","type":"address"}],"stateMutability":"view","type":"function"},{"inputs":[],"name":"pause","outputs":[],"stateMutability":"nonpayable","type":"function"},{"inputs":[],"name":"paused","outputs":[{"internalType":"bool","name":"","type":"bool"}],"stateMutability":"view","type":"function"},{"inputs":[],"name":"renounceOwnership","outputs":[],"stateMutability":"nonpayable","type":"function"},{"inputs":[{"internalType":"string","name":"prompt","type":"string"},{"internalType":"string","name":"style","type":"string"},{"internalType":"bool","name":"instrumental","type":"bool"}],"name":"requestMusicGeneration","outputs":[],"stateMutability":"payable","type":"function"},{"inputs":[],"name":"rewardAmount","outputs":[{"internalType":"uint256","name":"","type":"uint256"}],"stateMutability":"view","type":"function"},{"inputs":[{"internalType":"address","name":"sender","type":"address"},{"internalType":"bool","name":"authorized","type":"bool"}],"name":"setAuthorizedCallbackSender","outputs":[],"stateMutability":"nonpayable","type":"function"},{"inputs":[{"internalType":"uint256","name":"newLimit","type":"uint256"}],"name":"setDailyLimit","outputs":[],"stateMutability":"nonpayable","type":"function"},{"inputs":[{"internalType":"uint256","name":"newFee","type":"uint256"}],"name":"setGenerationFee","outputs":[],"stateMutability":"nonpayable","type":"function"},{"inputs":[{"internalType":"address","name":"newService","type":"address"}],"name":"setIpfsService","outputs":[],"stateMutability":"nonpayable","type":"function"},{"inputs":[{"internalType":"uint256","name":"newAmount","type":"uint256"}],"name":"setRewardAmount","outputs":[],"stateMutability":"nonpayable","type":"function"},{"inputs":[],"name":"setupAuthorizations","outputs":[],"stateMutability":"nonpayable","type":"function"},{"inputs":[{"internalType":"address","name":"newOwner","type":"address"}],"name":"transferOwnership","outputs":[],"stateMutability":"nonpayable","type":"function"},{"inputs":[],"name":"unpause","outputs":[],"stateMutability":"nonpayable","type":"function"},{"inputs":[{"internalType":"address","name":"","type":"address"},{"internalType":"uint256","name":"","type":"uint256"}],"name":"userRequests","outputs":[{"internalType":"uint256","name":"","type":"uint256"}],"stateMutability":"view","type":"function"},{"inputs":[],"name":"withdrawFees","outputs":[],"stateMutability":"nonpayable","type":"function"}],"evm":{"bytecode":{"linkReferences":{},"object":"60c0346200017157601f62001d7738819003918201601f19168301916001600160401b03831184841017620001765780849260609460405283398101031262000171576200004d816200018c565b62000069604062000061602085016200018c565b93016200018c565b903315620001585760008054336001600160a01b03198216811783556040805196909593946001600160a01b03939192849283167f8be0079c531659141344cd1fd0a4f28419497f9722a3daafe3b4186f6b6457e08880a36001805566038d7ea4c68000600355678ac7230489e8000060045560036005556001600b55166080521660a05260025490610100600160a81b039060081b1690610100600160a81b03191617600255338152600a60205220600160ff19825416179055611bd59081620001a28239608051818181610376015281816114c801526116aa015260a05181818161045a01526116650152f35b604051631e4fbdf760e01b815260006004820152602490fd5b600080fd5b634e487b7160e01b600052604160045260246000fd5b51906001600160a01b0382168203620001715756fe608080604052600436101561001357600080fd5b600090813560e01c9081630566f18a1461175257508063263cb6b6146116fc57806328f1a0e0146116d95780632f9662c514611694578063374cb7c51461164f5780633f4ba83a146115e457806343ba811f146115a5578063476343ee14611562578063545566251461153557806358a4f15a146114ac5780635c975abb146114895780635cba59331461145057806361728136146113f757806367eeba0c146113d95780636a10500e1461128c5780636a84a9851461126e578063715018a6146112145780638456cb59146111b95780638da5cb5b14611192578063a8a65a781461116f578063ade13ab614611136578063b20d30a914611113578063b337cf7414611065578063d45ddde91461101b578063eb97e5c514610f28578063edcac1f314610e5f578063f13b7dda14610e33578063f2fde38b14610da3578063f7b2a7be14610d85578063f875034a1461065c5763fe7347d01461017657600080fd5b346106595760a0366003190112610659578067ffffffffffffffff600435602435828111610654576101ac903690600401611805565b91604435818111610650576101c5903690600401611805565b9060643581811161064c576101de903690600401611805565b936084359180831161064857610257966102f66033600a9861021f60ff604061020e6102cd9a3690600401611805565b9633815260209d8e52205416611a00565b888c5260068a5260408c2097600589019461023e60ff87541615611a4c565b89546001600160a01b039081169d9098908e1515611a98565b6102608b611ad6565b508c6040519a8b956f697066733a2f2f6d657461646174612f60801b83880152610293815180928560308b01910161185c565b860193602f60f81b948560308201526102b5825180938660318501910161185c565b0191846031840152835193849160328501910161185c565b019060328201526102e78c8351938491878501910161185c565b010360138101875201856117e3565b6040519767464143544f52595f60c01b888a01528660288a0152602889526060890190898210848311176106325760408290526329fdb9fd60e11b825260648a0152608060848a0152878161036361035160e48d018d61187f565b8c81036063190160a48e01528861187f565b6103e860c48d01528b9003605f1901818d7f000000000000000000000000000000000000000000000000000000000000000089165af1988915610627578a996105f3575b5050805460ff191660019081179091558351600686019281116105df576103ce83546118a4565b601f8111610598575b5087601f821160011461053b57819282918c93610530575b501b916000199060031b1c19161790555b85600784015580835416928760045480610457575b50507f99e4bd6a70eca0054f961e0a8408c6d7efed5bfe4339a3f8d8fcda78c419c4f0935054169361045160405192828493845283019061187f565b0390a480f35b837f00000000000000000000000000000000000000000000000000000000000000001690813b1561052c57829160448392604051948593849263d264a38b60e01b84528c600485015260248401525af1801561052157610509575b50507f99e4bd6a70eca0054f961e0a8408c6d7efed5bfe4339a3f8d8fcda78c419c4f0937fe34918ff1c7084970068b53fd71ad6d8b04e9f15d3886cbf006443e6cdc52ea687600454604051908152a28738610415565b610512906117b2565b61051d5787386104b2565b8780fd5b6040513d84823e3d90fd5b8280fd5b8701519250386103ef565b838b52888b209082601f1981168d5b8c878383106105815750505010610568575b5050811b019055610400565b86015160001960f88460031b161c19169055388061055c565b858c0151875590950194938401938693500161054a565b838b52888b20601f830160051c8101918a84106105d5575b601f0160051c019083905b8281106105c95750506103d7565b600081550183906105bb565b90915081906105b0565b634e487b7160e01b8a52604160045260248afd5b888092939a503d8311610620575b61060b81856117e3565b8101031261061c57519638806103a7565b8880fd5b503d610601565b6040513d8c823e3d90fd5b634e487b7160e01b600052604160045260246000fd5b8680fd5b8580fd5b8480fd5b505050fd5b80fd5b5060603660031901126106595760043567ffffffffffffffff8111610d8157610689903690600401611805565b60243567ffffffffffffffff811161052c576106a9903690600401611805565b604435918215158303610d7c57600260015414610d6a5760026001556106cd6119e2565b620151804204338552600960205280604086205403610d4f575b50600860205260408420546005541115610d0a576003543410610cd257805115610c9457600b5491610718836119b0565b600b55604051610727816117c6565b33815282602082015281604082015284151560608201524260808201528560a082015260405180602081011067ffffffffffffffff602083011117610632576020810160405286815260c08201528560e08201528386526006602052604086209060018060a01b038151166bffffffffffffffffffffffff60a01b835416178255602081015180519067ffffffffffffffff8211610aea5781906107ce60018601546118a4565b601f8111610c43575b50602090601f8311600114610bd4578a92610bc9575b50508160011b916000199060031b1c19161760018301555b604081015180519067ffffffffffffffff8211610aea57819061082b60028601546118a4565b601f8111610b78575b50602090601f8311600114610b09578a92610afe575b50508160011b916000199060031b1c19161760028301555b61088160608201511515600384019060ff801983541691151516179055565b608081015160048301556108aa60a08201511515600584019060ff801983541691151516179055565b60c081015180519067ffffffffffffffff8211610aea576108ce60068501546118a4565b601f8111610aa5575b50602090601f8311600114610a335791806007949260e0948c92610a28575b50508160011b916000199060031b1c19161760068501555b015191015533855260076020526040852080549068010000000000000000821015610a145791610969827f0ff8ac589abdfa0e0bd9ad3186bbe67df9186ed15185930992414f728bc8397d959460016109b995018155611784565b81549060031b9087821b91600019901b191617905533875260086020526040872061099481546119b0565b90556109ab6040519360608552606085019061187f565b90838203602085015261187f565b93151560408201528033940390a3806003548034116109db575b506001805580f35b81806109e88193346119d5565b818115610a0b575b3390f1156109ff5780386109d3565b604051903d90823e3d90fd5b506108fc6109f0565b634e487b7160e01b87526041600452602487fd5b0151905038806108f6565b90600685018a5260208a20918a5b601f1985168110610a8d5750926007949260019260e09583601f19811610610a74575b505050811b01600685015561090e565b015160001960f88460031b161c19169055388080610a64565b91926020600181928685015181550194019201610a41565b600685018a5260208a20601f840160051c810160208510610ae3575b601f830160051c82018110610ad75750506108d7565b60008155600101610ac1565b5080610ac1565b634e487b7160e01b89526041600452602489fd5b01519050388061084a565b9250600285018a5260208a20908a935b601f1984168510610b5d576001945083601f19811610610b44575b505050811b016002830155610862565b015160001960f88460031b161c19169055388080610b34565b81810151835560209485019460019093019290910190610b19565b909150600285018a5260208a20601f840160051c810160208510610bc2575b90849392915b601f830160051c82018110610bb3575050610834565b60008155859450600101610b9d565b5080610b97565b0151905038806107ed565b9250600185018a5260208a20908a935b601f1984168510610c28576001945083601f19811610610c0f575b505050811b016001830155610805565b015160001960f88460031b161c19169055388080610bff565b81810151835560209485019460019093019290910190610be4565b909150600185018a5260208a20601f840160051c810160208510610c8d575b90849392915b601f830160051c82018110610c7e5750506107d7565b60008155859450600101610c68565b5080610c62565b60405162461bcd60e51b815260206004820152601660248201527550726f6d70742063616e6e6f7420626520656d70747960501b6044820152606490fd5b60405162461bcd60e51b815260206004820152601060248201526f496e73756666696369656e742066656560801b6044820152606490fd5b60405162461bcd60e51b815260206004820152601f60248201527f4461696c792067656e65726174696f6e206c696d6974206578636565646564006044820152606490fd5b600860205284604081205560096020526040852055386106e7565b604051633ee5aeb560e01b8152600490fd5b600080fd5b5080fd5b50346106595780600319360112610659576020600454604051908152f35b503461065957602036600319011261065957610dbd61176e565b610dc5611984565b6001600160a01b03908116908115610e1a57600054826bffffffffffffffffffffffff60a01b821617600055167f8be0079c531659141344cd1fd0a4f28419497f9722a3daafe3b4186f6b6457e0600080a380f35b604051631e4fbdf760e01b815260048101849052602490fd5b5034610659576020366003190112610659576020610e57610e5261176e565b611b5b565b604051908152f35b503461065957602036600319011261065957600435815260066020526040902080546001600160a01b0316610e96600183016118de565b91610f1e610ea6600283016118de565b9160ff60038201541690600481015460ff60058301541690610efd6007610ecf600686016118de565b94015496610eef6040519a8b9a8b526101008060208d01528b019061187f565b9089820360408b015261187f565b93151560608801526080870152151560a086015284820360c086015261187f565b9060e08301520390f35b503461065957602080600319360112610d815761101091610f8b6040805192610f50846117c6565b8084528060e06060958688820152868582015282878201528260808201528260a08201528660c0820152015260043581526006855220611ad6565b9060e060405194848695865260018060a01b038551168187015284015192610fc16101009485604089015261012088019061187f565b610fdc604087015191601f1992838a830301858b015261187f565b9186015115156080880152608086015160a088015260a0860151151560c088015260c086015190878303018488015261187f565b920151908301520390f35b50346106595760203660031901126106595761103561176e565b61103d611984565b60028054610100600160a81b03191660089290921b610100600160a81b031691909117905580f35b503461065957602080600319360112610d81576001600160a01b0361108861176e565b168252600781526040822060405192838383549182815201908193835284832090835b8181106110ff57505050846110c19103856117e3565b60405193838594850191818652518092526040850193925b8281106110e857505050500390f35b8351855286955093810193928101926001016110d9565b8254845292860192600192830192016110ab565b50346106595760203660031901126106595761112d611984565b60043560055580f35b5034610659576020366003190112610659576020906040906001600160a01b0361115e61176e565b168152600983522054604051908152f35b503461065957602036600319011261065957611189611984565b60043560045580f35b5034610659578060031936011261065957546040516001600160a01b039091168152602090f35b50346106595780600319360112610659576111d2611984565b6111da6119e2565b600160ff1960025416176002557f62e78cea01bee320cd4e420270b5ea74000d11b0c9f74754ebdbfc544b05a2586020604051338152a180f35b503461065957806003193601126106595761122d611984565b600080546001600160a01b0319811682556001600160a01b03167f8be0079c531659141344cd1fd0a4f28419497f9722a3daafe3b4186f6b6457e08280a380f35b50346106595780600319360112610659576020600b54604051908152f35b5034610659576040366003190112610659576004359060243567ffffffffffffffff8111610d81576112c2903690600401611805565b91338252602090600a82526112dd60ff604085205416611a00565b80835260068252604083209360058501946112fc60ff87541615611a4c565b60018060a01b03908580808085855416611317811515611a98565b600354908282156113d0575bf1156113c55781815416865260098552620151804204604087205414611391575b7f7b4dc11fb6e36c13a5b261f8409111859f4a34a800e39bc23afe5b096244323c93949596600160ff1982541617905554169361138b60405192828493845283019061187f565b0390a380f35b60088552604086209687549788156113b157600019909801909755611344565b634e487b7160e01b88526011600452602488fd5b6040513d87823e3d90fd5b506108fc611323565b50346106595780600319360112610659576020600554604051908152f35b50346106595760403660031901126106595761141161176e565b6024358015158103610d7c5761144d91611429611984565b60018060a01b03168352600a602052604083209060ff801983541691151516179055565b80f35b5034610659576020366003190112610659576020906040906001600160a01b0361147861176e565b168152600883522054604051908152f35b5034610659578060031936011261065957602060ff600254166040519015158152f35b50346106595780600319360112610659576114c5611984565b807f00000000000000000000000000000000000000000000000000000000000000006001600160a01b0316803b156115325781906044604051809481936370a1a7a760e11b8352306004840152600160248401525af1801561052157611529575080f35b61144d906117b2565b50fd5b503461065957806003193601126106595760025460405160089190911c6001600160a01b03168152602090f35b503461065957806003193601126106595761157b611984565b8080808060018060a01b03815416479082821561159c575bf1156109ff5780f35b506108fc611593565b50346106595760203660031901126106595760209060ff906040906001600160a01b036115d061176e565b168152600a84522054166040519015158152f35b50346106595780600319360112610659576115fd611984565b60025460ff81161561163d5760ff19166002557f5db9ee0a495bf2e6ff9c91a7834c1ba4fdd244a5e8aa4e537bd38aeae4b073aa6020604051338152a180f35b604051638dfc202b60e01b8152600490fd5b50346106595780600319360112610659576040517f00000000000000000000000000000000000000000000000000000000000000006001600160a01b03168152602090f35b50346106595780600319360112610659576040517f00000000000000000000000000000000000000000000000000000000000000006001600160a01b03168152602090f35b5034610659576020366003190112610659576116f3611984565b60043560035580f35b50346106595760403660031901126106595761171661176e565b6001600160a01b03168152600760205260408120805460243592908310156106595760206117448484611784565b90546040519160031b1c8152f35b905034610d815781600319360112610d81576020906003548152f35b600435906001600160a01b0382168203610d7c57565b805482101561179c5760005260206000200190600090565b634e487b7160e01b600052603260045260246000fd5b67ffffffffffffffff811161063257604052565b610100810190811067ffffffffffffffff82111761063257604052565b90601f8019910116810190811067ffffffffffffffff82111761063257604052565b81601f82011215610d7c5780359067ffffffffffffffff8211610632576040519261183a601f8401601f1916602001856117e3565b82845260208383010111610d7c57816000926020809301838601378301015290565b60005b83811061186f5750506000910152565b818101518382015260200161185f565b906020916118988151809281855285808601910161185c565b601f01601f1916010190565b90600182811c921680156118d4575b60208310146118be57565b634e487b7160e01b600052602260045260246000fd5b91607f16916118b3565b90604051918260008254926118f2846118a4565b908184526001948581169081600014611961575060011461191e575b505061191c925003836117e3565b565b9093915060005260209081600020936000915b81831061194957505061191c9350820101388061190e565b85548884018501529485019487945091830191611931565b91505061191c94506020925060ff191682840152151560051b820101388061190e565b6000546001600160a01b0316330361199857565b60405163118cdaa760e01b8152336004820152602490fd5b60001981146119bf5760010190565b634e487b7160e01b600052601160045260246000fd5b919082039182116119bf57565b60ff600254166119ee57565b60405163d93c066560e01b8152600490fd5b15611a0757565b60405162461bcd60e51b815260206004820152601c60248201527f556e617574686f72697a65642063616c6c6261636b2073656e646572000000006044820152606490fd5b15611a5357565b60405162461bcd60e51b815260206004820152601960248201527f5265717565737420616c726561647920636f6d706c65746564000000000000006044820152606490fd5b15611a9f57565b60405162461bcd60e51b815260206004820152600f60248201526e125b9d985b1a59081c995c5d595cdd608a1b6044820152606490fd5b90604051611ae3816117c6565b82546001600160a01b0316815291829060e090600790611b05600182016118de565b6020850152611b16600282016118de565b604085015260ff600382015416151560608501526004810154608085015260ff600582015416151560a0850152611b4f600682016118de565b60c08501520154910152565b6001600160a01b03166000908152600960205260409020546201518042049003611b9957611b966005546008602052604060002054906119d5565b90565b6005549056fea2646970667358221220a99c09bf35f4b649ccc47fb37d128f051319313fcc9969ebba183612c6c1b35f64736f6c63430008140033","opcodes":"PUSH1 0xC0 CALLVALUE PUSH3 0x171 JUMPI PUSH1 0x1F PUSH3 0x1D77 CODESIZE DUP2 SWAP1 SUB SWAP2 DUP3 ADD PUSH1 0x1F NOT AND DUP4 ADD SWAP2 PUSH1 0x1 PUSH1 0x1 PUSH1 0x40 SHL SUB DUP4 GT DUP5 DUP5 LT OR PUSH3 0x176 JUMPI DUP1 DUP5 SWAP3 PUSH1 0x60 SWAP5 PUSH1 0x40 MSTORE DUP4 CODECOPY DUP2 ADD SUB SLT PUSH3 0x171 JUMPI PUSH3 0x4D DUP2 PUSH3 0x18C JUMP JUMPDEST PUSH3 0x69 PUSH1 0x40 PUSH3 0x61 PUSH1 0x20 DUP6 ADD PUSH3 0x18C JUMP JUMPDEST SWAP4 ADD PUSH3 0x18C JUMP JUMPDEST SWAP1 CALLER ISZERO PUSH3 0x158 JUMPI PUSH1 0x0 DUP1 SLOAD CALLER PUSH1 0x1 PUSH1 0x1 PUSH1 0xA0 SHL SUB NOT DUP3 AND DUP2 OR DUP4 SSTORE PUSH1 0x40 DUP1 MLOAD SWAP7 SWAP1 SWAP6 SWAP4 SWAP5 PUSH1 0x1 PUSH1 0x1 PUSH1 0xA0 SHL SUB SWAP4 SWAP2 SWAP3 DUP5 SWAP3 DUP4 AND PUSH32 0x8BE0079C531659141344CD1FD0A4F28419497F9722A3DAAFE3B4186F6B6457E0 DUP9 DUP1 LOG3 PUSH1 0x1 DUP1 SSTORE PUSH7 0x38D7EA4C68000 PUSH1 0x3 SSTORE PUSH8 0x8AC7230489E80000 PUSH1 0x4 SSTORE PUSH1 0x3 PUSH1 0x5 SSTORE PUSH1 0x1 PUSH1 0xB SSTORE AND PUSH1 0x80 MSTORE AND PUSH1 0xA0 MSTORE PUSH1 0x2 SLOAD SWAP1 PUSH2 0x100 PUSH1 0x1 PUSH1 0xA8 SHL SUB SWAP1 PUSH1 0x8 SHL AND SWAP1 PUSH2 0x100 PUSH1 0x1 PUSH1 0xA8 SHL SUB NOT AND OR PUSH1 0x2 SSTORE CALLER DUP2 MSTORE PUSH1 0xA PUSH1 0x20 MSTORE KECCAK256 PUSH1 0x1 PUSH1 0xFF NOT DUP3 SLOAD AND OR SWAP1 SSTORE PUSH2 0x1BD5 SWAP1 DUP2 PUSH3 0x1A2 DUP3 CODECOPY PUSH1 0x80 MLOAD DUP2 DUP2 DUP2 PUSH2 0x376 ADD MSTORE DUP2 DUP2 PUSH2 0x14C8 ADD MSTORE PUSH2 0x16AA ADD MSTORE PUSH1 0xA0 MLOAD DUP2 DUP2 DUP2 PUSH2 0x45A ADD MSTORE PUSH2 0x1665 ADD MSTORE RETURN JUMPDEST PUSH1 0x40 MLOAD PUSH4 0x1E4FBDF7 PUSH1 0xE0 SHL DUP2 MSTORE PUSH1 0x0 PUSH1 0x4 DUP3 ADD MSTORE PUSH1 0x24 SWAP1 REVERT JUMPDEST PUSH1 0x0 DUP1 REVERT JUMPDEST PUSH4 0x4E487B71 PUSH1 0xE0 SHL PUSH1 0x0 MSTORE PUSH1 0x41 PUSH1 0x4 MSTORE PUSH1 0x24 PUSH1 0x0 REVERT JUMPDEST MLOAD SWAP1 PUSH1 0x1 PUSH1 0x1 PUSH1 0xA0 SHL SUB DUP3 AND DUP3 SUB PUSH3 0x171 JUMPI JUMP INVALID PUSH1 0x80 DUP1 PUSH1 0x40 MSTORE PUSH1 0x4 CALLDATASIZE LT ISZERO PUSH2 0x13 JUMPI PUSH1 0x0 DUP1 REVERT JUMPDEST PUSH1 0x0 SWAP1 DUP2 CALLDATALOAD PUSH1 0xE0 SHR SWAP1 DUP2 PUSH4 0x566F18A EQ PUSH2 0x1752 JUMPI POP DUP1 PUSH4 0x263CB6B6 EQ PUSH2 0x16FC JUMPI DUP1 PUSH4 0x28F1A0E0 EQ PUSH2 0x16D9 JUMPI DUP1 PUSH4 0x2F9662C5 EQ PUSH2 0x1694 JUMPI DUP1 PUSH4 0x374CB7C5 EQ PUSH2 0x164F JUMPI DUP1 PUSH4 0x3F4BA83A EQ PUSH2 0x15E4 JUMPI DUP1 PUSH4 0x43BA811F EQ PUSH2 0x15A5 JUMPI DUP1 PUSH4 0x476343EE EQ PUSH2 0x1562 JUMPI DUP1 PUSH4 0x54556625 EQ PUSH2 0x1535 JUMPI DUP1 PUSH4 0x58A4F15A EQ PUSH2 0x14AC JUMPI DUP1 PUSH4 0x5C975ABB EQ PUSH2 0x1489 JUMPI DUP1 PUSH4 0x5CBA5933 EQ PUSH2 0x1450 JUMPI DUP1 PUSH4 0x61728136 EQ PUSH2 0x13F7 JUMPI DUP1 PUSH4 0x67EEBA0C EQ PUSH2 0x13D9 JUMPI DUP1 PUSH4 0x6A10500E EQ PUSH2 0x128C JUMPI DUP1 PUSH4 0x6A84A985 EQ PUSH2 0x126E JUMPI DUP1 PUSH4 0x715018A6 EQ PUSH2 0x1214 JUMPI DUP1 PUSH4 0x8456CB59 EQ PUSH2 0x11B9 JUMPI DUP1 PUSH4 0x8DA5CB5B EQ PUSH2 0x1192 JUMPI DUP1 PUSH4 0xA8A65A78 EQ PUSH2 0x116F JUMPI DUP1 PUSH4 0xADE13AB6 EQ PUSH2 0x1136 JUMPI DUP1 PUSH4 0xB20D30A9 EQ PUSH2 0x1113 JUMPI DUP1 PUSH4 0xB337CF74 EQ PUSH2 0x1065 JUMPI DUP1 PUSH4 0xD45DDDE9 EQ PUSH2 0x101B JUMPI DUP1 PUSH4 0xEB97E5C5 EQ PUSH2 0xF28 JUMPI DUP1 PUSH4 0xEDCAC1F3 EQ PUSH2 0xE5F JUMPI DUP1 PUSH4 0xF13B7DDA EQ PUSH2 0xE33 JUMPI DUP1 PUSH4 0xF2FDE38B EQ PUSH2 0xDA3 JUMPI DUP1 PUSH4 0xF7B2A7BE EQ PUSH2 0xD85 JUMPI DUP1 PUSH4 0xF875034A EQ PUSH2 0x65C JUMPI PUSH4 0xFE7347D0 EQ PUSH2 0x176 JUMPI PUSH1 0x0 DUP1 REVERT JUMPDEST CALLVALUE PUSH2 0x659 JUMPI PUSH1 0xA0 CALLDATASIZE PUSH1 0x3 NOT ADD SLT PUSH2 0x659 JUMPI DUP1 PUSH8 0xFFFFFFFFFFFFFFFF PUSH1 0x4 CALLDATALOAD PUSH1 0x24 CALLDATALOAD DUP3 DUP2 GT PUSH2 0x654 JUMPI PUSH2 0x1AC SWAP1 CALLDATASIZE SWAP1 PUSH1 0x4 ADD PUSH2 0x1805 JUMP JUMPDEST SWAP2 PUSH1 0x44 CALLDATALOAD DUP2 DUP2 GT PUSH2 0x650 JUMPI PUSH2 0x1C5 SWAP1 CALLDATASIZE SWAP1 PUSH1 0x4 ADD PUSH2 0x1805 JUMP JUMPDEST SWAP1 PUSH1 0x64 CALLDATALOAD DUP2 DUP2 GT PUSH2 0x64C JUMPI PUSH2 0x1DE SWAP1 CALLDATASIZE SWAP1 PUSH1 0x4 ADD PUSH2 0x1805 JUMP JUMPDEST SWAP4 PUSH1 0x84 CALLDATALOAD SWAP2 DUP1 DUP4 GT PUSH2 0x648 JUMPI PUSH2 0x257 SWAP7 PUSH2 0x2F6 PUSH1 0x33 PUSH1 0xA SWAP9 PUSH2 0x21F PUSH1 0xFF PUSH1 0x40 PUSH2 0x20E PUSH2 0x2CD SWAP11 CALLDATASIZE SWAP1 PUSH1 0x4 ADD PUSH2 0x1805 JUMP JUMPDEST SWAP7 CALLER DUP2 MSTORE PUSH1 0x20 SWAP14 DUP15 MSTORE KECCAK256 SLOAD AND PUSH2 0x1A00 JUMP JUMPDEST DUP9 DUP13 MSTORE PUSH1 0x6 DUP11 MSTORE PUSH1 0x40 DUP13 KECCAK256 SWAP8 PUSH1 0x5 DUP10 ADD SWAP5 PUSH2 0x23E PUSH1 0xFF DUP8 SLOAD AND ISZERO PUSH2 0x1A4C JUMP JUMPDEST DUP10 SLOAD PUSH1 0x1 PUSH1 0x1 PUSH1 0xA0 SHL SUB SWAP1 DUP2 AND SWAP14 SWAP1 SWAP9 SWAP1 DUP15 ISZERO ISZERO PUSH2 0x1A98 JUMP JUMPDEST PUSH2 0x260 DUP12 PUSH2 0x1AD6 JUMP JUMPDEST POP DUP13 PUSH1 0x40 MLOAD SWAP11 DUP12 SWAP6 PUSH16 0x697066733A2F2F6D657461646174612F PUSH1 0x80 SHL DUP4 DUP9 ADD MSTORE PUSH2 0x293 DUP2 MLOAD DUP1 SWAP3 DUP6 PUSH1 0x30 DUP12 ADD SWAP2 ADD PUSH2 0x185C JUMP JUMPDEST DUP7 ADD SWAP4 PUSH1 0x2F PUSH1 0xF8 SHL SWAP5 DUP6 PUSH1 0x30 DUP3 ADD MSTORE PUSH2 0x2B5 DUP3 MLOAD DUP1 SWAP4 DUP7 PUSH1 0x31 DUP6 ADD SWAP2 ADD PUSH2 0x185C JUMP JUMPDEST ADD SWAP2 DUP5 PUSH1 0x31 DUP5 ADD MSTORE DUP4 MLOAD SWAP4 DUP5 SWAP2 PUSH1 0x32 DUP6 ADD SWAP2 ADD PUSH2 0x185C JUMP JUMPDEST ADD SWAP1 PUSH1 0x32 DUP3 ADD MSTORE PUSH2 0x2E7 DUP13 DUP4 MLOAD SWAP4 DUP5 SWAP2 DUP8 DUP6 ADD SWAP2 ADD PUSH2 0x185C JUMP JUMPDEST ADD SUB PUSH1 0x13 DUP2 ADD DUP8 MSTORE ADD DUP6 PUSH2 0x17E3 JUMP JUMPDEST PUSH1 0x40 MLOAD SWAP8 PUSH8 0x464143544F52595F PUSH1 0xC0 SHL DUP9 DUP11 ADD MSTORE DUP7 PUSH1 0x28 DUP11 ADD MSTORE PUSH1 0x28 DUP10 MSTORE PUSH1 0x60 DUP10 ADD SWAP1 DUP10 DUP3 LT DUP5 DUP4 GT OR PUSH2 0x632 JUMPI PUSH1 0x40 DUP3 SWAP1 MSTORE PUSH4 0x29FDB9FD PUSH1 0xE1 SHL DUP3 MSTORE PUSH1 0x64 DUP11 ADD MSTORE PUSH1 0x80 PUSH1 0x84 DUP11 ADD MSTORE DUP8 DUP2 PUSH2 0x363 PUSH2 0x351 PUSH1 0xE4 DUP14 ADD DUP14 PUSH2 0x187F JUMP JUMPDEST DUP13 DUP2 SUB PUSH1 0x63 NOT ADD PUSH1 0xA4 DUP15 ADD MSTORE DUP9 PUSH2 0x187F JUMP JUMPDEST PUSH2 0x3E8 PUSH1 0xC4 DUP14 ADD MSTORE DUP12 SWAP1 SUB PUSH1 0x5F NOT ADD DUP2 DUP14 PUSH32 0x0 DUP10 AND GAS CALL SWAP9 DUP10 ISZERO PUSH2 0x627 JUMPI DUP11 SWAP10 PUSH2 0x5F3 JUMPI JUMPDEST POP POP DUP1 SLOAD PUSH1 0xFF NOT AND PUSH1 0x1 SWAP1 DUP2 OR SWAP1 SWAP2 SSTORE DUP4 MLOAD PUSH1 0x6 DUP7 ADD SWAP3 DUP2 GT PUSH2 0x5DF JUMPI PUSH2 0x3CE DUP4 SLOAD PUSH2 0x18A4 JUMP JUMPDEST PUSH1 0x1F DUP2 GT PUSH2 0x598 JUMPI JUMPDEST POP DUP8 PUSH1 0x1F DUP3 GT PUSH1 0x1 EQ PUSH2 0x53B JUMPI DUP2 SWAP3 DUP3 SWAP2 DUP13 SWAP4 PUSH2 0x530 JUMPI JUMPDEST POP SHL SWAP2 PUSH1 0x0 NOT SWAP1 PUSH1 0x3 SHL SHR NOT AND OR SWAP1 SSTORE JUMPDEST DUP6 PUSH1 0x7 DUP5 ADD SSTORE DUP1 DUP4 SLOAD AND SWAP3 DUP8 PUSH1 0x4 SLOAD DUP1 PUSH2 0x457 JUMPI JUMPDEST POP POP PUSH32 0x99E4BD6A70ECA0054F961E0A8408C6D7EFED5BFE4339A3F8D8FCDA78C419C4F0 SWAP4 POP SLOAD AND SWAP4 PUSH2 0x451 PUSH1 0x40 MLOAD SWAP3 DUP3 DUP5 SWAP4 DUP5 MSTORE DUP4 ADD SWAP1 PUSH2 0x187F JUMP JUMPDEST SUB SWAP1 LOG4 DUP1 RETURN JUMPDEST DUP4 PUSH32 0x0 AND SWAP1 DUP2 EXTCODESIZE ISZERO PUSH2 0x52C JUMPI DUP3 SWAP2 PUSH1 0x44 DUP4 SWAP3 PUSH1 0x40 MLOAD SWAP5 DUP6 SWAP4 DUP5 SWAP3 PUSH4 0xD264A38B PUSH1 0xE0 SHL DUP5 MSTORE DUP13 PUSH1 0x4 DUP6 ADD MSTORE PUSH1 0x24 DUP5 ADD MSTORE GAS CALL DUP1 ISZERO PUSH2 0x521 JUMPI PUSH2 0x509 JUMPI JUMPDEST POP POP PUSH32 0x99E4BD6A70ECA0054F961E0A8408C6D7EFED5BFE4339A3F8D8FCDA78C419C4F0 SWAP4 PUSH32 0xE34918FF1C7084970068B53FD71AD6D8B04E9F15D3886CBF006443E6CDC52EA6 DUP8 PUSH1 0x4 SLOAD PUSH1 0x40 MLOAD SWAP1 DUP2 MSTORE LOG2 DUP8 CODESIZE PUSH2 0x415 JUMP JUMPDEST PUSH2 0x512 SWAP1 PUSH2 0x17B2 JUMP JUMPDEST PUSH2 0x51D JUMPI DUP8 CODESIZE PUSH2 0x4B2 JUMP JUMPDEST DUP8 DUP1 REVERT JUMPDEST PUSH1 0x40 MLOAD RETURNDATASIZE DUP5 DUP3 RETURNDATACOPY RETURNDATASIZE SWAP1 REVERT JUMPDEST DUP3 DUP1 REVERT JUMPDEST DUP8 ADD MLOAD SWAP3 POP CODESIZE PUSH2 0x3EF JUMP JUMPDEST DUP4 DUP12 MSTORE DUP9 DUP12 KECCAK256 SWAP1 DUP3 PUSH1 0x1F NOT DUP2 AND DUP14 JUMPDEST DUP13 DUP8 DUP4 DUP4 LT PUSH2 0x581 JUMPI POP POP POP LT PUSH2 0x568 JUMPI JUMPDEST POP POP DUP2 SHL ADD SWAP1 SSTORE PUSH2 0x400 JUMP JUMPDEST DUP7 ADD MLOAD PUSH1 0x0 NOT PUSH1 0xF8 DUP5 PUSH1 0x3 SHL AND SHR NOT AND SWAP1 SSTORE CODESIZE DUP1 PUSH2 0x55C JUMP JUMPDEST DUP6 DUP13 ADD MLOAD DUP8 SSTORE SWAP1 SWAP6 ADD SWAP5 SWAP4 DUP5 ADD SWAP4 DUP7 SWAP4 POP ADD PUSH2 0x54A JUMP JUMPDEST DUP4 DUP12 MSTORE DUP9 DUP12 KECCAK256 PUSH1 0x1F DUP4 ADD PUSH1 0x5 SHR DUP2 ADD SWAP2 DUP11 DUP5 LT PUSH2 0x5D5 JUMPI JUMPDEST PUSH1 0x1F ADD PUSH1 0x5 SHR ADD SWAP1 DUP4 SWAP1 JUMPDEST DUP3 DUP2 LT PUSH2 0x5C9 JUMPI POP POP PUSH2 0x3D7 JUMP JUMPDEST PUSH1 0x0 DUP2 SSTORE ADD DUP4 SWAP1 PUSH2 0x5BB JUMP JUMPDEST SWAP1 SWAP2 POP DUP2 SWAP1 PUSH2 0x5B0 JUMP JUMPDEST PUSH4 0x4E487B71 PUSH1 0xE0 SHL DUP11 MSTORE PUSH1 0x41 PUSH1 0x4 MSTORE PUSH1 0x24 DUP11 REVERT JUMPDEST DUP9 DUP1 SWAP3 SWAP4 SWAP11 POP RETURNDATASIZE DUP4 GT PUSH2 0x620 JUMPI JUMPDEST PUSH2 0x60B DUP2 DUP6 PUSH2 0x17E3 JUMP JUMPDEST DUP2 ADD SUB SLT PUSH2 0x61C JUMPI MLOAD SWAP7 CODESIZE DUP1 PUSH2 0x3A7 JUMP JUMPDEST DUP9 DUP1 REVERT JUMPDEST POP RETURNDATASIZE PUSH2 0x601 JUMP JUMPDEST PUSH1 0x40 MLOAD RETURNDATASIZE DUP13 DUP3 RETURNDATACOPY RETURNDATASIZE SWAP1 REVERT JUMPDEST PUSH4 0x4E487B71 PUSH1 0xE0 SHL PUSH1 0x0 MSTORE PUSH1 0x41 PUSH1 0x4 MSTORE PUSH1 0x24 PUSH1 0x0 REVERT JUMPDEST DUP7 DUP1 REVERT JUMPDEST DUP6 DUP1 REVERT JUMPDEST DUP5 DUP1 REVERT JUMPDEST POP POP POP REVERT JUMPDEST DUP1 REVERT JUMPDEST POP PUSH1 0x60 CALLDATASIZE PUSH1 0x3 NOT ADD SLT PUSH2 0x659 JUMPI PUSH1 0x4 CALLDATALOAD PUSH8 0xFFFFFFFFFFFFFFFF DUP2 GT PUSH2 0xD81 JUMPI PUSH2 0x689 SWAP1 CALLDATASIZE SWAP1 PUSH1 0x4 ADD PUSH2 0x1805 JUMP JUMPDEST PUSH1 0x24 CALLDATALOAD PUSH8 0xFFFFFFFFFFFFFFFF DUP2 GT PUSH2 0x52C JUMPI PUSH2 0x6A9 SWAP1 CALLDATASIZE SWAP1 PUSH1 0x4 ADD PUSH2 0x1805 JUMP JUMPDEST PUSH1 0x44 CALLDATALOAD SWAP2 DUP3 ISZERO ISZERO DUP4 SUB PUSH2 0xD7C JUMPI PUSH1 0x2 PUSH1 0x1 SLOAD EQ PUSH2 0xD6A JUMPI PUSH1 0x2 PUSH1 0x1 SSTORE PUSH2 0x6CD PUSH2 0x19E2 JUMP JUMPDEST PUSH3 0x15180 TIMESTAMP DIV CALLER DUP6 MSTORE PUSH1 0x9 PUSH1 0x20 MSTORE DUP1 PUSH1 0x40 DUP7 KECCAK256 SLOAD SUB PUSH2 0xD4F JUMPI JUMPDEST POP PUSH1 0x8 PUSH1 0x20 MSTORE PUSH1 0x40 DUP5 KECCAK256 SLOAD PUSH1 0x5 SLOAD GT ISZERO PUSH2 0xD0A JUMPI PUSH1 0x3 SLOAD CALLVALUE LT PUSH2 0xCD2 JUMPI DUP1 MLOAD ISZERO PUSH2 0xC94 JUMPI PUSH1 0xB SLOAD SWAP2 PUSH2 0x718 DUP4 PUSH2 0x19B0 JUMP JUMPDEST PUSH1 0xB SSTORE PUSH1 0x40 MLOAD PUSH2 0x727 DUP2 PUSH2 0x17C6 JUMP JUMPDEST CALLER DUP2 MSTORE DUP3 PUSH1 0x20 DUP3 ADD MSTORE DUP2 PUSH1 0x40 DUP3 ADD MSTORE DUP5 ISZERO ISZERO PUSH1 0x60 DUP3 ADD MSTORE TIMESTAMP PUSH1 0x80 DUP3 ADD MSTORE DUP6 PUSH1 0xA0 DUP3 ADD MSTORE PUSH1 0x40 MLOAD DUP1 PUSH1 0x20 DUP2 ADD LT PUSH8 0xFFFFFFFFFFFFFFFF PUSH1 0x20 DUP4 ADD GT OR PUSH2 0x632 JUMPI PUSH1 0x20 DUP2 ADD PUSH1 0x40 MSTORE DUP7 DUP2 MSTORE PUSH1 0xC0 DUP3 ADD MSTORE DUP6 PUSH1 0xE0 DUP3 ADD MSTORE DUP4 DUP7 MSTORE PUSH1 0x6 PUSH1 0x20 MSTORE PUSH1 0x40 DUP7 KECCAK256 SWAP1 PUSH1 0x1 DUP1 PUSH1 0xA0 SHL SUB DUP2 MLOAD AND PUSH12 0xFFFFFFFFFFFFFFFFFFFFFFFF PUSH1 0xA0 SHL DUP4 SLOAD AND OR DUP3 SSTORE PUSH1 0x20 DUP2 ADD MLOAD DUP1 MLOAD SWAP1 PUSH8 0xFFFFFFFFFFFFFFFF DUP3 GT PUSH2 0xAEA JUMPI DUP2 SWAP1 PUSH2 0x7CE PUSH1 0x1 DUP7 ADD SLOAD PUSH2 0x18A4 JUMP JUMPDEST PUSH1 0x1F DUP2 GT PUSH2 0xC43 JUMPI JUMPDEST POP PUSH1 0x20 SWAP1 PUSH1 0x1F DUP4 GT PUSH1 0x1 EQ PUSH2 0xBD4 JUMPI DUP11 SWAP3 PUSH2 0xBC9 JUMPI JUMPDEST POP POP DUP2 PUSH1 0x1 SHL SWAP2 PUSH1 0x0 NOT SWAP1 PUSH1 0x3 SHL SHR NOT AND OR PUSH1 0x1 DUP4 ADD SSTORE JUMPDEST PUSH1 0x40 DUP2 ADD MLOAD DUP1 MLOAD SWAP1 PUSH8 0xFFFFFFFFFFFFFFFF DUP3 GT PUSH2 0xAEA JUMPI DUP2 SWAP1 PUSH2 0x82B PUSH1 0x2 DUP7 ADD SLOAD PUSH2 0x18A4 JUMP JUMPDEST PUSH1 0x1F DUP2 GT PUSH2 0xB78 JUMPI JUMPDEST POP PUSH1 0x20 SWAP1 PUSH1 0x1F DUP4 GT PUSH1 0x1 EQ PUSH2 0xB09 JUMPI DUP11 SWAP3 PUSH2 0xAFE JUMPI JUMPDEST POP POP DUP2 PUSH1 0x1 SHL SWAP2 PUSH1 0x0 NOT SWAP1 PUSH1 0x3 SHL SHR NOT AND OR PUSH1 0x2 DUP4 ADD SSTORE JUMPDEST PUSH2 0x881 PUSH1 0x60 DUP3 ADD MLOAD ISZERO ISZERO PUSH1 0x3 DUP5 ADD SWAP1 PUSH1 0xFF DUP1 NOT DUP4 SLOAD AND SWAP2 ISZERO ISZERO AND OR SWAP1 SSTORE JUMP JUMPDEST PUSH1 0x80 DUP2 ADD MLOAD PUSH1 0x4 DUP4 ADD SSTORE PUSH2 0x8AA PUSH1 0xA0 DUP3 ADD MLOAD ISZERO ISZERO PUSH1 0x5 DUP5 ADD SWAP1 PUSH1 0xFF DUP1 NOT DUP4 SLOAD AND SWAP2 ISZERO ISZERO AND OR SWAP1 SSTORE JUMP JUMPDEST PUSH1 0xC0 DUP2 ADD MLOAD DUP1 MLOAD SWAP1 PUSH8 0xFFFFFFFFFFFFFFFF DUP3 GT PUSH2 0xAEA JUMPI PUSH2 0x8CE PUSH1 0x6 DUP6 ADD SLOAD PUSH2 0x18A4 JUMP JUMPDEST PUSH1 0x1F DUP2 GT PUSH2 0xAA5 JUMPI JUMPDEST POP PUSH1 0x20 SWAP1 PUSH1 0x1F DUP4 GT PUSH1 0x1 EQ PUSH2 0xA33 JUMPI SWAP2 DUP1 PUSH1 0x7 SWAP5 SWAP3 PUSH1 0xE0 SWAP5 DUP13 SWAP3 PUSH2 0xA28 JUMPI JUMPDEST POP POP DUP2 PUSH1 0x1 SHL SWAP2 PUSH1 0x0 NOT SWAP1 PUSH1 0x3 SHL SHR NOT AND OR PUSH1 0x6 DUP6 ADD SSTORE JUMPDEST ADD MLOAD SWAP2 ADD SSTORE CALLER DUP6 MSTORE PUSH1 0x7 PUSH1 0x20 MSTORE PUSH1 0x40 DUP6 KECCAK256 DUP1 SLOAD SWAP1 PUSH9 0x10000000000000000 DUP3 LT ISZERO PUSH2 0xA14 JUMPI SWAP2 PUSH2 0x969 DUP3 PUSH32 0xFF8AC589ABDFA0E0BD9AD3186BBE67DF9186ED15185930992414F728BC8397D SWAP6 SWAP5 PUSH1 0x1 PUSH2 0x9B9 SWAP6 ADD DUP2 SSTORE PUSH2 0x1784 JUMP JUMPDEST DUP2 SLOAD SWAP1 PUSH1 0x3 SHL SWAP1 DUP8 DUP3 SHL SWAP2 PUSH1 0x0 NOT SWAP1 SHL NOT AND OR SWAP1 SSTORE CALLER DUP8 MSTORE PUSH1 0x8 PUSH1 0x20 MSTORE PUSH1 0x40 DUP8 KECCAK256 PUSH2 0x994 DUP2 SLOAD PUSH2 0x19B0 JUMP JUMPDEST SWAP1 SSTORE PUSH2 0x9AB PUSH1 0x40 MLOAD SWAP4 PUSH1 0x60 DUP6 MSTORE PUSH1 0x60 DUP6 ADD SWAP1 PUSH2 0x187F JUMP JUMPDEST SWAP1 DUP4 DUP3 SUB PUSH1 0x20 DUP6 ADD MSTORE PUSH2 0x187F JUMP JUMPDEST SWAP4 ISZERO ISZERO PUSH1 0x40 DUP3 ADD MSTORE DUP1 CALLER SWAP5 SUB SWAP1 LOG3 DUP1 PUSH1 0x3 SLOAD DUP1 CALLVALUE GT PUSH2 0x9DB JUMPI JUMPDEST POP PUSH1 0x1 DUP1 SSTORE DUP1 RETURN JUMPDEST DUP2 DUP1 PUSH2 0x9E8 DUP2 SWAP4 CALLVALUE PUSH2 0x19D5 JUMP JUMPDEST DUP2 DUP2 ISZERO PUSH2 0xA0B JUMPI JUMPDEST CALLER SWAP1 CALL ISZERO PUSH2 0x9FF JUMPI DUP1 CODESIZE PUSH2 0x9D3 JUMP JUMPDEST PUSH1 0x40 MLOAD SWAP1 RETURNDATASIZE SWAP1 DUP3 RETURNDATACOPY RETURNDATASIZE SWAP1 REVERT JUMPDEST POP PUSH2 0x8FC PUSH2 0x9F0 JUMP JUMPDEST PUSH4 0x4E487B71 PUSH1 0xE0 SHL DUP8 MSTORE PUSH1 0x41 PUSH1 0x4 MSTORE PUSH1 0x24 DUP8 REVERT JUMPDEST ADD MLOAD SWAP1 POP CODESIZE DUP1 PUSH2 0x8F6 JUMP JUMPDEST SWAP1 PUSH1 0x6 DUP6 ADD DUP11 MSTORE PUSH1 0x20 DUP11 KECCAK256 SWAP2 DUP11 JUMPDEST PUSH1 0x1F NOT DUP6 AND DUP2 LT PUSH2 0xA8D JUMPI POP SWAP3 PUSH1 0x7 SWAP5 SWAP3 PUSH1 0x1 SWAP3 PUSH1 0xE0 SWAP6 DUP4 PUSH1 0x1F NOT DUP2 AND LT PUSH2 0xA74 JUMPI JUMPDEST POP POP POP DUP2 SHL ADD PUSH1 0x6 DUP6 ADD SSTORE PUSH2 0x90E JUMP JUMPDEST ADD MLOAD PUSH1 0x0 NOT PUSH1 0xF8 DUP5 PUSH1 0x3 SHL AND SHR NOT AND SWAP1 SSTORE CODESIZE DUP1 DUP1 PUSH2 0xA64 JUMP JUMPDEST SWAP2 SWAP3 PUSH1 0x20 PUSH1 0x1 DUP2 SWAP3 DUP7 DUP6 ADD MLOAD DUP2 SSTORE ADD SWAP5 ADD SWAP3 ADD PUSH2 0xA41 JUMP JUMPDEST PUSH1 0x6 DUP6 ADD DUP11 MSTORE PUSH1 0x20 DUP11 KECCAK256 PUSH1 0x1F DUP5 ADD PUSH1 0x5 SHR DUP2 ADD PUSH1 0x20 DUP6 LT PUSH2 0xAE3 JUMPI JUMPDEST PUSH1 0x1F DUP4 ADD PUSH1 0x5 SHR DUP3 ADD DUP2 LT PUSH2 0xAD7 JUMPI POP POP PUSH2 0x8D7 JUMP JUMPDEST PUSH1 0x0 DUP2 SSTORE PUSH1 0x1 ADD PUSH2 0xAC1 JUMP JUMPDEST POP DUP1 PUSH2 0xAC1 JUMP JUMPDEST PUSH4 0x4E487B71 PUSH1 0xE0 SHL DUP10 MSTORE PUSH1 0x41 PUSH1 0x4 MSTORE PUSH1 0x24 DUP10 REVERT JUMPDEST ADD MLOAD SWAP1 POP CODESIZE DUP1 PUSH2 0x84A JUMP JUMPDEST SWAP3 POP PUSH1 0x2 DUP6 ADD DUP11 MSTORE PUSH1 0x20 DUP11 KECCAK256 SWAP1 DUP11 SWAP4 JUMPDEST PUSH1 0x1F NOT DUP5 AND DUP6 LT PUSH2 0xB5D JUMPI PUSH1 0x1 SWAP5 POP DUP4 PUSH1 0x1F NOT DUP2 AND LT PUSH2 0xB44 JUMPI JUMPDEST POP POP POP DUP2 SHL ADD PUSH1 0x2 DUP4 ADD SSTORE PUSH2 0x862 JUMP JUMPDEST ADD MLOAD PUSH1 0x0 NOT PUSH1 0xF8 DUP5 PUSH1 0x3 SHL AND SHR NOT AND SWAP1 SSTORE CODESIZE DUP1 DUP1 PUSH2 0xB34 JUMP JUMPDEST DUP2 DUP2 ADD MLOAD DUP4 SSTORE PUSH1 0x20 SWAP5 DUP6 ADD SWAP5 PUSH1 0x1 SWAP1 SWAP4 ADD SWAP3 SWAP1 SWAP2 ADD SWAP1 PUSH2 0xB19 JUMP JUMPDEST SWAP1 SWAP2 POP PUSH1 0x2 DUP6 ADD DUP11 MSTORE PUSH1 0x20 DUP11 KECCAK256 PUSH1 0x1F DUP5 ADD PUSH1 0x5 SHR DUP2 ADD PUSH1 0x20 DUP6 LT PUSH2 0xBC2 JUMPI JUMPDEST SWAP1 DUP5 SWAP4 SWAP3 SWAP2 JUMPDEST PUSH1 0x1F DUP4 ADD PUSH1 0x5 SHR DUP3 ADD DUP2 LT PUSH2 0xBB3 JUMPI POP POP PUSH2 0x834 JUMP JUMPDEST PUSH1 0x0 DUP2 SSTORE DUP6 SWAP5 POP PUSH1 0x1 ADD PUSH2 0xB9D JUMP JUMPDEST POP DUP1 PUSH2 0xB97 JUMP JUMPDEST ADD MLOAD SWAP1 POP CODESIZE DUP1 PUSH2 0x7ED JUMP JUMPDEST SWAP3 POP PUSH1 0x1 DUP6 ADD DUP11 MSTORE PUSH1 0x20 DUP11 KECCAK256 SWAP1 DUP11 SWAP4 JUMPDEST PUSH1 0x1F NOT DUP5 AND DUP6 LT PUSH2 0xC28 JUMPI PUSH1 0x1 SWAP5 POP DUP4 PUSH1 0x1F NOT DUP2 AND LT PUSH2 0xC0F JUMPI JUMPDEST POP POP POP DUP2 SHL ADD PUSH1 0x1 DUP4 ADD SSTORE PUSH2 0x805 JUMP JUMPDEST ADD MLOAD PUSH1 0x0 NOT PUSH1 0xF8 DUP5 PUSH1 0x3 SHL AND SHR NOT AND SWAP1 SSTORE CODESIZE DUP1 DUP1 PUSH2 0xBFF JUMP JUMPDEST DUP2 DUP2 ADD MLOAD DUP4 SSTORE PUSH1 0x20 SWAP5 DUP6 ADD SWAP5 PUSH1 0x1 SWAP1 SWAP4 ADD SWAP3 SWAP1 SWAP2 ADD SWAP1 PUSH2 0xBE4 JUMP JUMPDEST SWAP1 SWAP2 POP PUSH1 0x1 DUP6 ADD DUP11 MSTORE PUSH1 0x20 DUP11 KECCAK256 PUSH1 0x1F DUP5 ADD PUSH1 0x5 SHR DUP2 ADD PUSH1 0x20 DUP6 LT PUSH2 0xC8D JUMPI JUMPDEST SWAP1 DUP5 SWAP4 SWAP3 SWAP2 JUMPDEST PUSH1 0x1F DUP4 ADD PUSH1 0x5 SHR DUP3 ADD DUP2 LT PUSH2 0xC7E JUMPI POP POP PUSH2 0x7D7 JUMP JUMPDEST PUSH1 0x0 DUP2 SSTORE DUP6 SWAP5 POP PUSH1 0x1 ADD PUSH2 0xC68 JUMP JUMPDEST POP DUP1 PUSH2 0xC62 JUMP JUMPDEST PUSH1 0x40 MLOAD PUSH3 0x461BCD PUSH1 0xE5 SHL DUP2 MSTORE PUSH1 0x20 PUSH1 0x4 DUP3 ADD MSTORE PUSH1 0x16 PUSH1 0x24 DUP3 ADD MSTORE PUSH22 0x50726F6D70742063616E6E6F7420626520656D707479 PUSH1 0x50 SHL PUSH1 0x44 DUP3 ADD MSTORE PUSH1 0x64 SWAP1 REVERT JUMPDEST PUSH1 0x40 MLOAD PUSH3 0x461BCD PUSH1 0xE5 SHL DUP2 MSTORE PUSH1 0x20 PUSH1 0x4 DUP3 ADD MSTORE PUSH1 0x10 PUSH1 0x24 DUP3 ADD MSTORE PUSH16 0x496E73756666696369656E7420666565 PUSH1 0x80 SHL PUSH1 0x44 DUP3 ADD MSTORE PUSH1 0x64 SWAP1 REVERT JUMPDEST PUSH1 0x40 MLOAD PUSH3 0x461BCD PUSH1 0xE5 SHL DUP2 MSTORE PUSH1 0x20 PUSH1 0x4 DUP3 ADD MSTORE PUSH1 0x1F PUSH1 0x24 DUP3 ADD MSTORE PUSH32 0x4461696C792067656E65726174696F6E206C696D697420657863656564656400 PUSH1 0x44 DUP3 ADD MSTORE PUSH1 0x64 SWAP1 REVERT JUMPDEST PUSH1 0x8 PUSH1 0x20 MSTORE DUP5 PUSH1 0x40 DUP2 KECCAK256 SSTORE PUSH1 0x9 PUSH1 0x20 MSTORE PUSH1 0x40 DUP6 KECCAK256 SSTORE CODESIZE PUSH2 0x6E7 JUMP JUMPDEST PUSH1 0x40 MLOAD PUSH4 0x3EE5AEB5 PUSH1 0xE0 SHL DUP2 MSTORE PUSH1 0x4 SWAP1 REVERT JUMPDEST PUSH1 0x0 DUP1 REVERT JUMPDEST POP DUP1 REVERT JUMPDEST POP CALLVALUE PUSH2 0x659 JUMPI DUP1 PUSH1 0x3 NOT CALLDATASIZE ADD SLT PUSH2 0x659 JUMPI PUSH1 0x20 PUSH1 0x4 SLOAD PUSH1 0x40 MLOAD SWAP1 DUP2 MSTORE RETURN JUMPDEST POP CALLVALUE PUSH2 0x659 JUMPI PUSH1 0x20 CALLDATASIZE PUSH1 0x3 NOT ADD SLT PUSH2 0x659 JUMPI PUSH2 0xDBD PUSH2 0x176E JUMP JUMPDEST PUSH2 0xDC5 PUSH2 0x1984 JUMP JUMPDEST PUSH1 0x1 PUSH1 0x1 PUSH1 0xA0 SHL SUB SWAP1 DUP2 AND SWAP1 DUP2 ISZERO PUSH2 0xE1A JUMPI PUSH1 0x0 SLOAD DUP3 PUSH12 0xFFFFFFFFFFFFFFFFFFFFFFFF PUSH1 0xA0 SHL DUP3 AND OR PUSH1 0x0 SSTORE AND PUSH32 0x8BE0079C531659141344CD1FD0A4F28419497F9722A3DAAFE3B4186F6B6457E0 PUSH1 0x0 DUP1 LOG3 DUP1 RETURN JUMPDEST PUSH1 0x40 MLOAD PUSH4 0x1E4FBDF7 PUSH1 0xE0 SHL DUP2 MSTORE PUSH1 0x4 DUP2 ADD DUP5 SWAP1 MSTORE PUSH1 0x24 SWAP1 REVERT JUMPDEST POP CALLVALUE PUSH2 0x659 JUMPI PUSH1 0x20 CALLDATASIZE PUSH1 0x3 NOT ADD SLT PUSH2 0x659 JUMPI PUSH1 0x20 PUSH2 0xE57 PUSH2 0xE52 PUSH2 0x176E JUMP JUMPDEST PUSH2 0x1B5B JUMP JUMPDEST PUSH1 0x40 MLOAD SWAP1 DUP2 MSTORE RETURN JUMPDEST POP CALLVALUE PUSH2 0x659 JUMPI PUSH1 0x20 CALLDATASIZE PUSH1 0x3 NOT ADD SLT PUSH2 0x659 JUMPI PUSH1 0x4 CALLDATALOAD DUP2 MSTORE PUSH1 0x6 PUSH1 0x20 MSTORE PUSH1 0x40 SWAP1 KECCAK256 DUP1 SLOAD PUSH1 0x1 PUSH1 0x1 PUSH1 0xA0 SHL SUB AND PUSH2 0xE96 PUSH1 0x1 DUP4 ADD PUSH2 0x18DE JUMP JUMPDEST SWAP2 PUSH2 0xF1E PUSH2 0xEA6 PUSH1 0x2 DUP4 ADD PUSH2 0x18DE JUMP JUMPDEST SWAP2 PUSH1 0xFF PUSH1 0x3 DUP3 ADD SLOAD AND SWAP1 PUSH1 0x4 DUP2 ADD SLOAD PUSH1 0xFF PUSH1 0x5 DUP4 ADD SLOAD AND SWAP1 PUSH2 0xEFD PUSH1 0x7 PUSH2 0xECF PUSH1 0x6 DUP7 ADD PUSH2 0x18DE JUMP JUMPDEST SWAP5 ADD SLOAD SWAP7 PUSH2 0xEEF PUSH1 0x40 MLOAD SWAP11 DUP12 SWAP11 DUP12 MSTORE PUSH2 0x100 DUP1 PUSH1 0x20 DUP14 ADD MSTORE DUP12 ADD SWAP1 PUSH2 0x187F JUMP JUMPDEST SWAP1 DUP10 DUP3 SUB PUSH1 0x40 DUP12 ADD MSTORE PUSH2 0x187F JUMP JUMPDEST SWAP4 ISZERO ISZERO PUSH1 0x60 DUP9 ADD MSTORE PUSH1 0x80 DUP8 ADD MSTORE ISZERO ISZERO PUSH1 0xA0 DUP7 ADD MSTORE DUP5 DUP3 SUB PUSH1 0xC0 DUP7 ADD MSTORE PUSH2 0x187F JUMP JUMPDEST SWAP1 PUSH1 0xE0 DUP4 ADD MSTORE SUB SWAP1 RETURN JUMPDEST POP CALLVALUE PUSH2 0x659 JUMPI PUSH1 0x20 DUP1 PUSH1 0x3 NOT CALLDATASIZE ADD SLT PUSH2 0xD81 JUMPI PUSH2 0x1010 SWAP2 PUSH2 0xF8B PUSH1 0x40 DUP1 MLOAD SWAP3 PUSH2 0xF50 DUP5 PUSH2 0x17C6 JUMP JUMPDEST DUP1 DUP5 MSTORE DUP1 PUSH1 0xE0 PUSH1 0x60 SWAP6 DUP7 DUP9 DUP3 ADD MSTORE DUP7 DUP6 DUP3 ADD MSTORE DUP3 DUP8 DUP3 ADD MSTORE DUP3 PUSH1 0x80 DUP3 ADD MSTORE DUP3 PUSH1 0xA0 DUP3 ADD MSTORE DUP7 PUSH1 0xC0 DUP3 ADD MSTORE ADD MSTORE PUSH1 0x4 CALLDATALOAD DUP2 MSTORE PUSH1 0x6 DUP6 MSTORE KECCAK256 PUSH2 0x1AD6 JUMP JUMPDEST SWAP1 PUSH1 0xE0 PUSH1 0x40 MLOAD SWAP5 DUP5 DUP7 SWAP6 DUP7 MSTORE PUSH1 0x1 DUP1 PUSH1 0xA0 SHL SUB DUP6 MLOAD AND DUP2 DUP8 ADD MSTORE DUP5 ADD MLOAD SWAP3 PUSH2 0xFC1 PUSH2 0x100 SWAP5 DUP6 PUSH1 0x40 DUP10 ADD MSTORE PUSH2 0x120 DUP9 ADD SWAP1 PUSH2 0x187F JUMP JUMPDEST PUSH2 0xFDC PUSH1 0x40 DUP8 ADD MLOAD SWAP2 PUSH1 0x1F NOT SWAP3 DUP4 DUP11 DUP4 SUB ADD DUP6 DUP12 ADD MSTORE PUSH2 0x187F JUMP JUMPDEST SWAP2 DUP7 ADD MLOAD ISZERO ISZERO PUSH1 0x80 DUP9 ADD MSTORE PUSH1 0x80 DUP7 ADD MLOAD PUSH1 0xA0 DUP9 ADD MSTORE PUSH1 0xA0 DUP7 ADD MLOAD ISZERO ISZERO PUSH1 0xC0 DUP9 ADD MSTORE PUSH1 0xC0 DUP7 ADD MLOAD SWAP1 DUP8 DUP4 SUB ADD DUP5 DUP9 ADD MSTORE PUSH2 0x187F JUMP JUMPDEST SWAP3 ADD MLOAD SWAP1 DUP4 ADD MSTORE SUB SWAP1 RETURN JUMPDEST POP CALLVALUE PUSH2 0x659 JUMPI PUSH1 0x20 CALLDATASIZE PUSH1 0x3 NOT ADD SLT PUSH2 0x659 JUMPI PUSH2 0x1035 PUSH2 0x176E JUMP JUMPDEST PUSH2 0x103D PUSH2 0x1984 JUMP JUMPDEST PUSH1 0x2 DUP1 SLOAD PUSH2 0x100 PUSH1 0x1 PUSH1 0xA8 SHL SUB NOT AND PUSH1 0x8 SWAP3 SWAP1 SWAP3 SHL PUSH2 0x100 PUSH1 0x1 PUSH1 0xA8 SHL SUB AND SWAP2 SWAP1 SWAP2 OR SWAP1 SSTORE DUP1 RETURN JUMPDEST POP CALLVALUE PUSH2 0x659 JUMPI PUSH1 0x20 DUP1 PUSH1 0x3 NOT CALLDATASIZE ADD SLT PUSH2 0xD81 JUMPI PUSH1 0x1 PUSH1 0x1 PUSH1 0xA0 SHL SUB PUSH2 0x1088 PUSH2 0x176E JUMP JUMPDEST AND DUP3 MSTORE PUSH1 0x7 DUP2 MSTORE PUSH1 0x40 DUP3 KECCAK256 PUSH1 0x40 MLOAD SWAP3 DUP4 DUP4 DUP4 SLOAD SWAP2 DUP3 DUP2 MSTORE ADD SWAP1 DUP2 SWAP4 DUP4 MSTORE DUP5 DUP4 KECCAK256 SWAP1 DUP4 JUMPDEST DUP2 DUP2 LT PUSH2 0x10FF JUMPI POP POP POP DUP5 PUSH2 0x10C1 SWAP2 SUB DUP6 PUSH2 0x17E3 JUMP JUMPDEST PUSH1 0x40 MLOAD SWAP4 DUP4 DUP6 SWAP5 DUP6 ADD SWAP2 DUP2 DUP7 MSTORE MLOAD DUP1 SWAP3 MSTORE PUSH1 0x40 DUP6 ADD SWAP4 SWAP3 JUMPDEST DUP3 DUP2 LT PUSH2 0x10E8 JUMPI POP POP POP POP SUB SWAP1 RETURN JUMPDEST DUP4 MLOAD DUP6 MSTORE DUP7 SWAP6 POP SWAP4 DUP2 ADD SWAP4 SWAP3 DUP2 ADD SWAP3 PUSH1 0x1 ADD PUSH2 0x10D9 JUMP JUMPDEST DUP3 SLOAD DUP5 MSTORE SWAP3 DUP7 ADD SWAP3 PUSH1 0x1 SWAP3 DUP4 ADD SWAP3 ADD PUSH2 0x10AB JUMP JUMPDEST POP CALLVALUE PUSH2 0x659 JUMPI PUSH1 0x20 CALLDATASIZE PUSH1 0x3 NOT ADD SLT PUSH2 0x659 JUMPI PUSH2 0x112D PUSH2 0x1984 JUMP JUMPDEST PUSH1 0x4 CALLDATALOAD PUSH1 0x5 SSTORE DUP1 RETURN JUMPDEST POP CALLVALUE PUSH2 0x659 JUMPI PUSH1 0x20 CALLDATASIZE PUSH1 0x3 NOT ADD SLT PUSH2 0x659 JUMPI PUSH1 0x20 SWAP1 PUSH1 0x40 SWAP1 PUSH1 0x1 PUSH1 0x1 PUSH1 0xA0 SHL SUB PUSH2 0x115E PUSH2 0x176E JUMP JUMPDEST AND DUP2 MSTORE PUSH1 0x9 DUP4 MSTORE KECCAK256 SLOAD PUSH1 0x40 MLOAD SWAP1 DUP2 MSTORE RETURN JUMPDEST POP CALLVALUE PUSH2 0x659 JUMPI PUSH1 0x20 CALLDATASIZE PUSH1 0x3 NOT ADD SLT PUSH2 0x659 JUMPI PUSH2 0x1189 PUSH2 0x1984 JUMP JUMPDEST PUSH1 0x4 CALLDATALOAD PUSH1 0x4 SSTORE DUP1 RETURN JUMPDEST POP CALLVALUE PUSH2 0x659 JUMPI DUP1 PUSH1 0x3 NOT CALLDATASIZE ADD SLT PUSH2 0x659 JUMPI SLOAD PUSH1 0x40 MLOAD PUSH1 0x1 PUSH1 0x1 PUSH1 0xA0 SHL SUB SWAP1 SWAP2 AND DUP2 MSTORE PUSH1 0x20 SWAP1 RETURN JUMPDEST POP CALLVALUE PUSH2 0x659 JUMPI DUP1 PUSH1 0x3 NOT CALLDATASIZE ADD SLT PUSH2 0x659 JUMPI PUSH2 0x11D2 PUSH2 0x1984 JUMP JUMPDEST PUSH2 0x11DA PUSH2 0x19E2 JUMP JUMPDEST PUSH1 0x1 PUSH1 0xFF NOT PUSH1 0x2 SLOAD AND OR PUSH1 0x2 SSTORE PUSH32 0x62E78CEA01BEE320CD4E420270B5EA74000D11B0C9F74754EBDBFC544B05A258 PUSH1 0x20 PUSH1 0x40 MLOAD CALLER DUP2 MSTORE LOG1 DUP1 RETURN JUMPDEST POP CALLVALUE PUSH2 0x659 JUMPI DUP1 PUSH1 0x3 NOT CALLDATASIZE ADD SLT PUSH2 0x659 JUMPI PUSH2 0x122D PUSH2 0x1984 JUMP JUMPDEST PUSH1 0x0 DUP1 SLOAD PUSH1 0x1 PUSH1 0x1 PUSH1 0xA0 SHL SUB NOT DUP2 AND DUP3 SSTORE PUSH1 0x1 PUSH1 0x1 PUSH1 0xA0 SHL SUB AND PUSH32 0x8BE0079C531659141344CD1FD0A4F28419497F9722A3DAAFE3B4186F6B6457E0 DUP3 DUP1 LOG3 DUP1 RETURN JUMPDEST POP CALLVALUE PUSH2 0x659 JUMPI DUP1 PUSH1 0x3 NOT CALLDATASIZE ADD SLT PUSH2 0x659 JUMPI PUSH1 0x20 PUSH1 0xB SLOAD PUSH1 0x40 MLOAD SWAP1 DUP2 MSTORE RETURN JUMPDEST POP CALLVALUE PUSH2 0x659 JUMPI PUSH1 0x40 CALLDATASIZE PUSH1 0x3 NOT ADD SLT PUSH2 0x659 JUMPI PUSH1 0x4 CALLDATALOAD SWAP1 PUSH1 0x24 CALLDATALOAD PUSH8 0xFFFFFFFFFFFFFFFF DUP2 GT PUSH2 0xD81 JUMPI PUSH2 0x12C2 SWAP1 CALLDATASIZE SWAP1 PUSH1 0x4 ADD PUSH2 0x1805 JUMP JUMPDEST SWAP2 CALLER DUP3 MSTORE PUSH1 0x20 SWAP1 PUSH1 0xA DUP3 MSTORE PUSH2 0x12DD PUSH1 0xFF PUSH1 0x40 DUP6 KECCAK256 SLOAD AND PUSH2 0x1A00 JUMP JUMPDEST DUP1 DUP4 MSTORE PUSH1 0x6 DUP3 MSTORE PUSH1 0x40 DUP4 KECCAK256 SWAP4 PUSH1 0x5 DUP6 ADD SWAP5 PUSH2 0x12FC PUSH1 0xFF DUP8 SLOAD AND ISZERO PUSH2 0x1A4C JUMP JUMPDEST PUSH1 0x1 DUP1 PUSH1 0xA0 SHL SUB SWAP1 DUP6 DUP1 DUP1 DUP1 DUP6 DUP6 SLOAD AND PUSH2 0x1317 DUP2 ISZERO ISZERO PUSH2 0x1A98 JUMP JUMPDEST PUSH1 0x3 SLOAD SWAP1 DUP3 DUP3 ISZERO PUSH2 0x13D0 JUMPI JUMPDEST CALL ISZERO PUSH2 0x13C5 JUMPI DUP2 DUP2 SLOAD AND DUP7 MSTORE PUSH1 0x9 DUP6 MSTORE PUSH3 0x15180 TIMESTAMP DIV PUSH1 0x40 DUP8 KECCAK256 SLOAD EQ PUSH2 0x1391 JUMPI JUMPDEST PUSH32 0x7B4DC11FB6E36C13A5B261F8409111859F4A34A800E39BC23AFE5B096244323C SWAP4 SWAP5 SWAP6 SWAP7 PUSH1 0x1 PUSH1 0xFF NOT DUP3 SLOAD AND OR SWAP1 SSTORE SLOAD AND SWAP4 PUSH2 0x138B PUSH1 0x40 MLOAD SWAP3 DUP3 DUP5 SWAP4 DUP5 MSTORE DUP4 ADD SWAP1 PUSH2 0x187F JUMP JUMPDEST SUB SWAP1 LOG3 DUP1 RETURN JUMPDEST PUSH1 0x8 DUP6 MSTORE PUSH1 0x40 DUP7 KECCAK256 SWAP7 DUP8 SLOAD SWAP8 DUP9 ISZERO PUSH2 0x13B1 JUMPI PUSH1 0x0 NOT SWAP1 SWAP9 ADD SWAP1 SWAP8 SSTORE PUSH2 0x1344 JUMP JUMPDEST PUSH4 0x4E487B71 PUSH1 0xE0 SHL DUP9 MSTORE PUSH1 0x11 PUSH1 0x4 MSTORE PUSH1 0x24 DUP9 REVERT JUMPDEST PUSH1 0x40 MLOAD RETURNDATASIZE DUP8 DUP3 RETURNDATACOPY RETURNDATASIZE SWAP1 REVERT JUMPDEST POP PUSH2 0x8FC PUSH2 0x1323 JUMP JUMPDEST POP CALLVALUE PUSH2 0x659 JUMPI DUP1 PUSH1 0x3 NOT CALLDATASIZE ADD SLT PUSH2 0x659 JUMPI PUSH1 0x20 PUSH1 0x5 SLOAD PUSH1 0x40 MLOAD SWAP1 DUP2 MSTORE RETURN JUMPDEST POP CALLVALUE PUSH2 0x659 JUMPI PUSH1 0x40 CALLDATASIZE PUSH1 0x3 NOT ADD SLT PUSH2 0x659 JUMPI PUSH2 0x1411 PUSH2 0x176E JUMP JUMPDEST PUSH1 0x24 CALLDATALOAD DUP1 ISZERO ISZERO DUP2 SUB PUSH2 0xD7C JUMPI PUSH2 0x144D SWAP2 PUSH2 0x1429 PUSH2 0x1984 JUMP JUMPDEST PUSH1 0x1 DUP1 PUSH1 0xA0 SHL SUB AND DUP4 MSTORE PUSH1 0xA PUSH1 0x20 MSTORE PUSH1 0x40 DUP4 KECCAK256 SWAP1 PUSH1 0xFF DUP1 NOT DUP4 SLOAD AND SWAP2 ISZERO ISZERO AND OR SWAP1 SSTORE JUMP JUMPDEST DUP1 RETURN JUMPDEST POP CALLVALUE PUSH2 0x659 JUMPI PUSH1 0x20 CALLDATASIZE PUSH1 0x3 NOT ADD SLT PUSH2 0x659 JUMPI PUSH1 0x20 SWAP1 PUSH1 0x40 SWAP1 PUSH1 0x1 PUSH1 0x1 PUSH1 0xA0 SHL SUB PUSH2 0x1478 PUSH2 0x176E JUMP JUMPDEST AND DUP2 MSTORE PUSH1 0x8 DUP4 MSTORE KECCAK256 SLOAD PUSH1 0x40 MLOAD SWAP1 DUP2 MSTORE RETURN JUMPDEST POP CALLVALUE PUSH2 0x659 JUMPI DUP1 PUSH1 0x3 NOT CALLDATASIZE ADD SLT PUSH2 0x659 JUMPI PUSH1 0x20 PUSH1 0xFF PUSH1 0x2 SLOAD AND PUSH1 0x40 MLOAD SWAP1 ISZERO ISZERO DUP2 MSTORE RETURN JUMPDEST POP CALLVALUE PUSH2 0x659 JUMPI DUP1 PUSH1 0x3 NOT CALLDATASIZE ADD SLT PUSH2 0x659 JUMPI PUSH2 0x14C5 PUSH2 0x1984 JUMP JUMPDEST DUP1 PUSH32 0x0 PUSH1 0x1 PUSH1 0x1 PUSH1 0xA0 SHL SUB AND DUP1 EXTCODESIZE ISZERO PUSH2 0x1532 JUMPI DUP2 SWAP1 PUSH1 0x44 PUSH1 0x40 MLOAD DUP1 SWAP5 DUP2 SWAP4 PUSH4 0x70A1A7A7 PUSH1 0xE1 SHL DUP4 MSTORE ADDRESS PUSH1 0x4 DUP5 ADD MSTORE PUSH1 0x1 PUSH1 0x24 DUP5 ADD MSTORE GAS CALL DUP1 ISZERO PUSH2 0x521 JUMPI PUSH2 0x1529 JUMPI POP DUP1 RETURN JUMPDEST PUSH2 0x144D SWAP1 PUSH2 0x17B2 JUMP JUMPDEST POP REVERT JUMPDEST POP CALLVALUE PUSH2 0x659 JUMPI DUP1 PUSH1 0x3 NOT CALLDATASIZE ADD SLT PUSH2 0x659 JUMPI PUSH1 0x2 SLOAD PUSH1 0x40 MLOAD PUSH1 0x8 SWAP2 SWAP1 SWAP2 SHR PUSH1 0x1 PUSH1 0x1 PUSH1 0xA0 SHL SUB AND DUP2 MSTORE PUSH1 0x20 SWAP1 RETURN JUMPDEST POP CALLVALUE PUSH2 0x659 JUMPI DUP1 PUSH1 0x3 NOT CALLDATASIZE ADD SLT PUSH2 0x659 JUMPI PUSH2 0x157B PUSH2 0x1984 JUMP JUMPDEST DUP1 DUP1 DUP1 DUP1 PUSH1 0x1 DUP1 PUSH1 0xA0 SHL SUB DUP2 SLOAD AND SELFBALANCE SWAP1 DUP3 DUP3 ISZERO PUSH2 0x159C JUMPI JUMPDEST CALL ISZERO PUSH2 0x9FF JUMPI DUP1 RETURN JUMPDEST POP PUSH2 0x8FC PUSH2 0x1593 JUMP JUMPDEST POP CALLVALUE PUSH2 0x659 JUMPI PUSH1 0x20 CALLDATASIZE PUSH1 0x3 NOT ADD SLT PUSH2 0x659 JUMPI PUSH1 0x20 SWAP1 PUSH1 0xFF SWAP1 PUSH1 0x40 SWAP1 PUSH1 0x1 PUSH1 0x1 PUSH1 0xA0 SHL SUB PUSH2 0x15D0 PUSH2 0x176E JUMP JUMPDEST AND DUP2 MSTORE PUSH1 0xA DUP5 MSTORE KECCAK256 SLOAD AND PUSH1 0x40 MLOAD SWAP1 ISZERO ISZERO DUP2 MSTORE RETURN JUMPDEST POP CALLVALUE PUSH2 0x659 JUMPI DUP1 PUSH1 0x3 NOT CALLDATASIZE ADD SLT PUSH2 0x659 JUMPI PUSH2 0x15FD PUSH2 0x1984 JUMP JUMPDEST PUSH1 0x2 SLOAD PUSH1 0xFF DUP2 AND ISZERO PUSH2 0x163D JUMPI PUSH1 0xFF NOT AND PUSH1 0x2 SSTORE PUSH32 0x5DB9EE0A495BF2E6FF9C91A7834C1BA4FDD244A5E8AA4E537BD38AEAE4B073AA PUSH1 0x20 PUSH1 0x40 MLOAD CALLER DUP2 MSTORE LOG1 DUP1 RETURN JUMPDEST PUSH1 0x40 MLOAD PUSH4 0x8DFC202B PUSH1 0xE0 SHL DUP2 MSTORE PUSH1 0x4 SWAP1 REVERT JUMPDEST POP CALLVALUE PUSH2 0x659 JUMPI DUP1 PUSH1 0x3 NOT CALLDATASIZE ADD SLT PUSH2 0x659 JUMPI PUSH1 0x40 MLOAD PUSH32 0x0 PUSH1 0x1 PUSH1 0x1 PUSH1 0xA0 SHL SUB AND DUP2 MSTORE PUSH1 0x20 SWAP1 RETURN JUMPDEST POP CALLVALUE PUSH2 0x659 JUMPI DUP1 PUSH1 0x3 NOT CALLDATASIZE ADD SLT PUSH2 0x659 JUMPI PUSH1 0x40 MLOAD PUSH32 0x0 PUSH1 0x1 PUSH1 0x1 PUSH1 0xA0 SHL SUB AND DUP2 MSTORE PUSH1 0x20 SWAP1 RETURN JUMPDEST POP CALLVALUE PUSH2 0x659 JUMPI PUSH1 0x20 CALLDATASIZE PUSH1 0x3 NOT ADD SLT PUSH2 0x659 JUMPI PUSH2 0x16F3 PUSH2 0x1984 JUMP JUMPDEST PUSH1 0x4 CALLDATALOAD PUSH1 0x3 SSTORE DUP1 RETURN JUMPDEST POP CALLVALUE PUSH2 0x659 JUMPI PUSH1 0x40 CALLDATASIZE PUSH1 0x3 NOT ADD SLT PUSH2 0x659 JUMPI PUSH2 0x1716 PUSH2 0x176E JUMP JUMPDEST PUSH1 0x1 PUSH1 0x1 PUSH1 0xA0 SHL SUB AND DUP2 MSTORE PUSH1 0x7 PUSH1 0x20 MSTORE PUSH1 0x40 DUP2 KECCAK256 DUP1 SLOAD PUSH1 0x24 CALLDATALOAD SWAP3 SWAP1 DUP4 LT ISZERO PUSH2 0x659 JUMPI PUSH1 0x20 PUSH2 0x1744 DUP5 DUP5 PUSH2 0x1784 JUMP JUMPDEST SWAP1 SLOAD PUSH1 0x40 MLOAD SWAP2 PUSH1 0x3 SHL SHR DUP2 MSTORE RETURN JUMPDEST SWAP1 POP CALLVALUE PUSH2 0xD81 JUMPI DUP2 PUSH1 0x3 NOT CALLDATASIZE ADD SLT PUSH2 0xD81 JUMPI PUSH1 0x20 SWAP1 PUSH1 0x3 SLOAD DUP2 MSTORE RETURN JUMPDEST PUSH1 0x4 CALLDATALOAD SWAP1 PUSH1 0x1 PUSH1 0x1 PUSH1 0xA0 SHL SUB DUP3 AND DUP3 SUB PUSH2 0xD7C JUMPI JUMP JUMPDEST DUP1 SLOAD DUP3 LT ISZERO PUSH2 0x179C JUMPI PUSH1 0x0 MSTORE PUSH1 0x20 PUSH1 0x0 KECCAK256 ADD SWAP1 PUSH1 0x0 SWAP1 JUMP JUMPDEST PUSH4 0x4E487B71 PUSH1 0xE0 SHL PUSH1 0x0 MSTORE PUSH1 0x32 PUSH1 0x4 MSTORE PUSH1 0x24 PUSH1 0x0 REVERT JUMPDEST PUSH8 0xFFFFFFFFFFFFFFFF DUP2 GT PUSH2 0x632 JUMPI PUSH1 0x40 MSTORE JUMP JUMPDEST PUSH2 0x100 DUP2 ADD SWAP1 DUP2 LT PUSH8 0xFFFFFFFFFFFFFFFF DUP3 GT OR PUSH2 0x632 JUMPI PUSH1 0x40 MSTORE JUMP JUMPDEST SWAP1 PUSH1 0x1F DUP1 NOT SWAP2 ADD AND DUP2 ADD SWAP1 DUP2 LT PUSH8 0xFFFFFFFFFFFFFFFF DUP3 GT OR PUSH2 0x632 JUMPI PUSH1 0x40 MSTORE JUMP JUMPDEST DUP2 PUSH1 0x1F DUP3 ADD SLT ISZERO PUSH2 0xD7C JUMPI DUP1 CALLDATALOAD SWAP1 PUSH8 0xFFFFFFFFFFFFFFFF DUP3 GT PUSH2 0x632 JUMPI PUSH1 0x40 MLOAD SWAP3 PUSH2 0x183A PUSH1 0x1F DUP5 ADD PUSH1 0x1F NOT AND PUSH1 0x20 ADD DUP6 PUSH2 0x17E3 JUMP JUMPDEST DUP3 DUP5 MSTORE PUSH1 0x20 DUP4 DUP4 ADD ADD GT PUSH2 0xD7C JUMPI DUP2 PUSH1 0x0 SWAP3 PUSH1 0x20 DUP1 SWAP4 ADD DUP4 DUP7 ADD CALLDATACOPY DUP4 ADD ADD MSTORE SWAP1 JUMP JUMPDEST PUSH1 0x0 JUMPDEST DUP4 DUP2 LT PUSH2 0x186F JUMPI POP POP PUSH1 0x0 SWAP2 ADD MSTORE JUMP JUMPDEST DUP2 DUP2 ADD MLOAD DUP4 DUP3 ADD MSTORE PUSH1 0x20 ADD PUSH2 0x185F JUMP JUMPDEST SWAP1 PUSH1 0x20 SWAP2 PUSH2 0x1898 DUP2 MLOAD DUP1 SWAP3 DUP2 DUP6 MSTORE DUP6 DUP1 DUP7 ADD SWAP2 ADD PUSH2 0x185C JUMP JUMPDEST PUSH1 0x1F ADD PUSH1 0x1F NOT AND ADD ADD SWAP1 JUMP JUMPDEST SWAP1 PUSH1 0x1 DUP3 DUP2 SHR SWAP3 AND DUP1 ISZERO PUSH2 0x18D4 JUMPI JUMPDEST PUSH1 0x20 DUP4 LT EQ PUSH2 0x18BE JUMPI JUMP JUMPDEST PUSH4 0x4E487B71 PUSH1 0xE0 SHL PUSH1 0x0 MSTORE PUSH1 0x22 PUSH1 0x4 MSTORE PUSH1 0x24 PUSH1 0x0 REVERT JUMPDEST SWAP2 PUSH1 0x7F AND SWAP2 PUSH2 0x18B3 JUMP JUMPDEST SWAP1 PUSH1 0x40 MLOAD SWAP2 DUP3 PUSH1 0x0 DUP3 SLOAD SWAP3 PUSH2 0x18F2 DUP5 PUSH2 0x18A4 JUMP JUMPDEST SWAP1 DUP2 DUP5 MSTORE PUSH1 0x1 SWAP5 DUP6 DUP2 AND SWAP1 DUP2 PUSH1 0x0 EQ PUSH2 0x1961 JUMPI POP PUSH1 0x1 EQ PUSH2 0x191E JUMPI JUMPDEST POP POP PUSH2 0x191C SWAP3 POP SUB DUP4 PUSH2 0x17E3 JUMP JUMPDEST JUMP JUMPDEST SWAP1 SWAP4 SWAP2 POP PUSH1 0x0 MSTORE PUSH1 0x20 SWAP1 DUP2 PUSH1 0x0 KECCAK256 SWAP4 PUSH1 0x0 SWAP2 JUMPDEST DUP2 DUP4 LT PUSH2 0x1949 JUMPI POP POP PUSH2 0x191C SWAP4 POP DUP3 ADD ADD CODESIZE DUP1 PUSH2 0x190E JUMP JUMPDEST DUP6 SLOAD DUP9 DUP5 ADD DUP6 ADD MSTORE SWAP5 DUP6 ADD SWAP5 DUP8 SWAP5 POP SWAP2 DUP4 ADD SWAP2 PUSH2 0x1931 JUMP JUMPDEST SWAP2 POP POP PUSH2 0x191C SWAP5 POP PUSH1 0x20 SWAP3 POP PUSH1 0xFF NOT AND DUP3 DUP5 ADD MSTORE ISZERO ISZERO PUSH1 0x5 SHL DUP3 ADD ADD CODESIZE DUP1 PUSH2 0x190E JUMP JUMPDEST PUSH1 0x0 SLOAD PUSH1 0x1 PUSH1 0x1 PUSH1 0xA0 SHL SUB AND CALLER SUB PUSH2 0x1998 JUMPI JUMP JUMPDEST PUSH1 0x40 MLOAD PUSH4 0x118CDAA7 PUSH1 0xE0 SHL DUP2 MSTORE CALLER PUSH1 0x4 DUP3 ADD MSTORE PUSH1 0x24 SWAP1 REVERT JUMPDEST PUSH1 0x0 NOT DUP2 EQ PUSH2 0x19BF JUMPI PUSH1 0x1 ADD SWAP1 JUMP JUMPDEST PUSH4 0x4E487B71 PUSH1 0xE0 SHL PUSH1 0x0 MSTORE PUSH1 0x11 PUSH1 0x4 MSTORE PUSH1 0x24 PUSH1 0x0 REVERT JUMPDEST SWAP2 SWAP1 DUP3 SUB SWAP2 DUP3 GT PUSH2 0x19BF JUMPI JUMP JUMPDEST PUSH1 0xFF PUSH1 0x2 SLOAD AND PUSH2 0x19EE JUMPI JUMP JUMPDEST PUSH1 0x40 MLOAD PUSH4 0xD93C0665 PUSH1 0xE0 SHL DUP2 MSTORE PUSH1 0x4 SWAP1 REVERT JUMPDEST ISZERO PUSH2 0x1A07 JUMPI JUMP JUMPDEST PUSH1 0x40 MLOAD PUSH3 0x461BCD PUSH1 0xE5 SHL DUP2 MSTORE PUSH1 0x20 PUSH1 0x4 DUP3 ADD MSTORE PUSH1 0x1C PUSH1 0x24 DUP3 ADD MSTORE PUSH32 0x556E617574686F72697A65642063616C6C6261636B2073656E64657200000000 PUSH1 0x44 DUP3 ADD MSTORE PUSH1 0x64 SWAP1 REVERT JUMPDEST ISZERO PUSH2 0x1A53 JUMPI JUMP JUMPDEST PUSH1 0x40 MLOAD PUSH3 0x461BCD PUSH1 0xE5 SHL DUP2 MSTORE PUSH1 0x20 PUSH1 0x4 DUP3 ADD MSTORE PUSH1 0x19 PUSH1 0x24 DUP3 ADD MSTORE PUSH32 0x5265717565737420616C726561647920636F6D706C6574656400000000000000 PUSH1 0x44 DUP3 ADD MSTORE PUSH1 0x64 SWAP1 REVERT JUMPDEST ISZERO PUSH2 0x1A9F JUMPI JUMP JUMPDEST PUSH1 0x40 MLOAD PUSH3 0x461BCD PUSH1 0xE5 SHL DUP2 MSTORE PUSH1 0x20 PUSH1 0x4 DUP3 ADD MSTORE PUSH1 0xF PUSH1 0x24 DUP3 ADD MSTORE PUSH15 0x125B9D985B1A59081C995C5D595CDD PUSH1 0x8A SHL PUSH1 0x44 DUP3 ADD MSTORE PUSH1 0x64 SWAP1 REVERT JUMPDEST SWAP1 PUSH1 0x40 MLOAD PUSH2 0x1AE3 DUP2 PUSH2 0x17C6 JUMP JUMPDEST DUP3 SLOAD PUSH1 0x1 PUSH1 0x1 PUSH1 0xA0 SHL SUB AND DUP2 MSTORE SWAP2 DUP3 SWAP1 PUSH1 0xE0 SWAP1 PUSH1 0x7 SWAP1 PUSH2 0x1B05 PUSH1 0x1 DUP3 ADD PUSH2 0x18DE JUMP JUMPDEST PUSH1 0x20 DUP6 ADD MSTORE PUSH2 0x1B16 PUSH1 0x2 DUP3 ADD PUSH2 0x18DE JUMP JUMPDEST PUSH1 0x40 DUP6 ADD MSTORE PUSH1 0xFF PUSH1 0x3 DUP3 ADD SLOAD AND ISZERO ISZERO PUSH1 0x60 DUP6 ADD MSTORE PUSH1 0x4 DUP2 ADD SLOAD PUSH1 0x80 DUP6 ADD MSTORE PUSH1 0xFF PUSH1 0x5 DUP3 ADD SLOAD AND ISZERO ISZERO PUSH1 0xA0 DUP6 ADD MSTORE PUSH2 0x1B4F PUSH1 0x6 DUP3 ADD PUSH2 0x18DE JUMP JUMPDEST PUSH1 0xC0 DUP6 ADD MSTORE ADD SLOAD SWAP2 ADD MSTORE JUMP JUMPDEST PUSH1 0x1 PUSH1 0x1 PUSH1 0xA0 SHL SUB AND PUSH1 0x0 SWAP1 DUP2 MSTORE PUSH1 0x9 PUSH1 0x20 MSTORE PUSH1 0x40 SWAP1 KECCAK256 SLOAD PUSH3 0x15180 TIMESTAMP DIV SWAP1 SUB PUSH2 0x1B99 JUMPI PUSH2 0x1B96 PUSH1 0x5 SLOAD PUSH1 0x8 PUSH1 0x20 MSTORE PUSH1 0x40 PUSH1 0x0 KECCAK256 SLOAD SWAP1 PUSH2 0x19D5 JUMP JUMPDEST SWAP1 JUMP JUMPDEST PUSH1 0x5 SLOAD SWAP1 JUMP INVALID LOG2 PUSH5 0x6970667358 0x22 SLT KECCAK256 0xA9 SWAP13 MULMOD 0xBF CALLDATALOAD DELEGATECALL 0xB6 0x49 0xCC 0xC4 PUSH32 0xB37D128F051319313FCC9969EBBA183612C6C1B35F64736F6C63430008140033 "},"methodIdentifiers":{"authorizedCallbackSenders(address)":"43ba811f","beatsToken()":"374cb7c5","completeMusicGeneration(uint256,string,string,string,string)":"fe7347d0","dailyGenerations(address)":"5cba5933","dailyLimit()":"67eeba0c","generationFee()":"0566f18a","generationRequests(uint256)":"edcac1f3","getDailyGenerationsLeft(address)":"f13b7dda","getGenerationRequest(uint256)":"eb97e5c5","getUserRequests(address)":"b337cf74","hiBeatsNFT()":"2f9662c5","ipfsService()":"54556625","lastGenerationDay(address)":"ade13ab6","markGenerationFailed(uint256,string)":"6a10500e","nextRequestId()":"6a84a985","owner()":"8da5cb5b","pause()":"8456cb59","paused()":"5c975abb","renounceOwnership()":"715018a6","requestMusicGeneration(string,string,bool)":"f875034a","rewardAmount()":"f7b2a7be","setAuthorizedCallbackSender(address,bool)":"61728136","setDailyLimit(uint256)":"b20d30a9","setGenerationFee(uint256)":"28f1a0e0","setIpfsService(address)":"d45ddde9","setRewardAmount(uint256)":"a8a65a78","setupAuthorizations()":"58a4f15a","transferOwnership(address)":"f2fde38b","unpause()":"3f4ba83a","userRequests(address,uint256)":"263cb6b6","withdrawFees()":"476343ee"}}}}}