{
  "_format": "hh-sol-artifact-1",
  "contractName": "HiBeatsGovernance",
  "sourceName": "contracts/HiBeatsGovernance.sol",
  "abi": [
    {
      "inputs": [
        {
          "internalType": "address",
          "name": "_hiBeatsToken",
          "type": "address"
        },
        {
          "internalType": "address",
          "name": "_hiBeatsStaking",
          "type": "address"
        },
        {
          "internalType": "address",
          "name": "_treasury",
          "type": "address"
        },
        {
          "internalType": "address",
          "name": "initialOwner",
          "type": "address"
        }
      ],
      "stateMutability": "nonpayable",
      "type": "constructor"
    },
    {
      "inputs": [],
      "name": "EnforcedPause",
      "type": "error"
    },
    {
      "inputs": [],
      "name": "ExpectedPause",
      "type": "error"
    },
    {
      "inputs": [
        {
          "internalType": "address",
          "name": "owner",
          "type": "address"
        }
      ],
      "name": "OwnableInvalidOwner",
      "type": "error"
    },
    {
      "inputs": [
        {
          "internalType": "address",
          "name": "account",
          "type": "address"
        }
      ],
      "name": "OwnableUnauthorizedAccount",
      "type": "error"
    },
    {
      "inputs": [],
      "name": "ReentrancyGuardReentrantCall",
      "type": "error"
    },
    {
      "anonymous": false,
      "inputs": [
        {
          "indexed": true,
          "internalType": "address",
          "name": "previousOwner",
          "type": "address"
        },
        {
          "indexed": true,
          "internalType": "address",
          "name": "newOwner",
          "type": "address"
        }
      ],
      "name": "OwnershipTransferred",
      "type": "event"
    },
    {
      "anonymous": false,
      "inputs": [
        {
          "indexed": false,
          "internalType": "address",
          "name": "account",
          "type": "address"
        }
      ],
      "name": "Paused",
      "type": "event"
    },
    {
      "anonymous": false,
      "inputs": [
        {
          "indexed": true,
          "internalType": "uint256",
          "name": "proposalId",
          "type": "uint256"
        }
      ],
      "name": "ProposalCancelled",
      "type": "event"
    },
    {
      "anonymous": false,
      "inputs": [
        {
          "indexed": true,
          "internalType": "uint256",
          "name": "proposalId",
          "type": "uint256"
        },
        {
          "indexed": true,
          "internalType": "address",
          "name": "proposer",
          "type": "address"
        },
        {
          "indexed": false,
          "internalType": "string",
          "name": "title",
          "type": "string"
        },
        {
          "indexed": false,
          "internalType": "enum HiBeatsGovernance.ProposalType",
          "name": "proposalType",
          "type": "uint8"
        },
        {
          "indexed": false,
          "internalType": "uint256",
          "name": "startTime",
          "type": "uint256"
        },
        {
          "indexed": false,
          "internalType": "uint256",
          "name": "endTime",
          "type": "uint256"
        }
      ],
      "name": "ProposalCreated",
      "type": "event"
    },
    {
      "anonymous": false,
      "inputs": [
        {
          "indexed": true,
          "internalType": "uint256",
          "name": "proposalId",
          "type": "uint256"
        }
      ],
      "name": "ProposalExecuted",
      "type": "event"
    },
    {
      "anonymous": false,
      "inputs": [
        {
          "indexed": false,
          "internalType": "address",
          "name": "account",
          "type": "address"
        }
      ],
      "name": "Unpaused",
      "type": "event"
    },
    {
      "anonymous": false,
      "inputs": [
        {
          "indexed": true,
          "internalType": "uint256",
          "name": "proposalId",
          "type": "uint256"
        },
        {
          "indexed": true,
          "internalType": "address",
          "name": "voter",
          "type": "address"
        },
        {
          "indexed": false,
          "internalType": "bool",
          "name": "support",
          "type": "bool"
        },
        {
          "indexed": false,
          "internalType": "uint256",
          "name": "votes",
          "type": "uint256"
        },
        {
          "indexed": false,
          "internalType": "string",
          "name": "reason",
          "type": "string"
        }
      ],
      "name": "VoteCast",
      "type": "event"
    },
    {
      "inputs": [
        {
          "internalType": "uint256",
          "name": "",
          "type": "uint256"
        }
      ],
      "name": "activeProposals",
      "outputs": [
        {
          "internalType": "uint256",
          "name": "",
          "type": "uint256"
        }
      ],
      "stateMutability": "view",
      "type": "function"
    },
    {
      "inputs": [
        {
          "internalType": "uint256",
          "name": "proposalId",
          "type": "uint256"
        }
      ],
      "name": "cancelProposal",
      "outputs": [],
      "stateMutability": "nonpayable",
      "type": "function"
    },
    {
      "inputs": [
        {
          "internalType": "uint256",
          "name": "proposalId",
          "type": "uint256"
        },
        {
          "internalType": "bool",
          "name": "support",
          "type": "bool"
        },
        {
          "internalType": "string",
          "name": "reason",
          "type": "string"
        }
      ],
      "name": "castVote",
      "outputs": [],
      "stateMutability": "nonpayable",
      "type": "function"
    },
    {
      "inputs": [
        {
          "internalType": "uint256",
          "name": "proposalId",
          "type": "uint256"
        }
      ],
      "name": "executeProposal",
      "outputs": [],
      "stateMutability": "nonpayable",
      "type": "function"
    },
    {
      "inputs": [],
      "name": "executionDelay",
      "outputs": [
        {
          "internalType": "uint256",
          "name": "",
          "type": "uint256"
        }
      ],
      "stateMutability": "view",
      "type": "function"
    },
    {
      "inputs": [],
      "name": "getActiveProposals",
      "outputs": [
        {
          "internalType": "uint256[]",
          "name": "",
          "type": "uint256[]"
        }
      ],
      "stateMutability": "view",
      "type": "function"
    },
    {
      "inputs": [
        {
          "internalType": "uint256",
          "name": "proposalId",
          "type": "uint256"
        }
      ],
      "name": "getProposal",
      "outputs": [
        {
          "internalType": "uint256",
          "name": "id",
          "type": "uint256"
        },
        {
          "internalType": "address",
          "name": "proposer",
          "type": "address"
        },
        {
          "internalType": "string",
          "name": "title",
          "type": "string"
        },
        {
          "internalType": "string",
          "name": "description",
          "type": "string"
        },
        {
          "internalType": "enum HiBeatsGovernance.ProposalType",
          "name": "proposalType",
          "type": "uint8"
        },
        {
          "internalType": "uint256",
          "name": "startTime",
          "type": "uint256"
        },
        {
          "internalType": "uint256",
          "name": "endTime",
          "type": "uint256"
        },
        {
          "internalType": "uint256",
          "name": "votesFor",
          "type": "uint256"
        },
        {
          "internalType": "uint256",
          "name": "votesAgainst",
          "type": "uint256"
        },
        {
          "internalType": "uint256",
          "name": "totalVotes",
          "type": "uint256"
        },
        {
          "internalType": "enum HiBeatsGovernance.ProposalStatus",
          "name": "status",
          "type": "uint8"
        },
        {
          "internalType": "bool",
          "name": "executed",
          "type": "bool"
        }
      ],
      "stateMutability": "view",
      "type": "function"
    },
    {
      "inputs": [
        {
          "internalType": "uint256",
          "name": "proposalId",
          "type": "uint256"
        },
        {
          "internalType": "address",
          "name": "voter",
          "type": "address"
        }
      ],
      "name": "getVote",
      "outputs": [
        {
          "internalType": "bool",
          "name": "hasVoted",
          "type": "bool"
        },
        {
          "internalType": "bool",
          "name": "support",
          "type": "bool"
        },
        {
          "internalType": "uint256",
          "name": "votingPower",
          "type": "uint256"
        },
        {
          "internalType": "string",
          "name": "reason",
          "type": "string"
        }
      ],
      "stateMutability": "view",
      "type": "function"
    },
    {
      "inputs": [
        {
          "internalType": "address",
          "name": "account",
          "type": "address"
        }
      ],
      "name": "getVotingPower",
      "outputs": [
        {
          "internalType": "uint256",
          "name": "",
          "type": "uint256"
        }
      ],
      "stateMutability": "view",
      "type": "function"
    },
    {
      "inputs": [],
      "name": "hiBeatsStaking",
      "outputs": [
        {
          "internalType": "address",
          "name": "",
          "type": "address"
        }
      ],
      "stateMutability": "view",
      "type": "function"
    },
    {
      "inputs": [],
      "name": "hiBeatsToken",
      "outputs": [
        {
          "internalType": "address",
          "name": "",
          "type": "address"
        }
      ],
      "stateMutability": "view",
      "type": "function"
    },
    {
      "inputs": [
        {
          "internalType": "address",
          "name": "",
          "type": "address"
        }
      ],
      "name": "lastProposalTime",
      "outputs": [
        {
          "internalType": "uint256",
          "name": "",
          "type": "uint256"
        }
      ],
      "stateMutability": "view",
      "type": "function"
    },
    {
      "inputs": [],
      "name": "owner",
      "outputs": [
        {
          "internalType": "address",
          "name": "",
          "type": "address"
        }
      ],
      "stateMutability": "view",
      "type": "function"
    },
    {
      "inputs": [],
      "name": "pause",
      "outputs": [],
      "stateMutability": "nonpayable",
      "type": "function"
    },
    {
      "inputs": [],
      "name": "paused",
      "outputs": [
        {
          "internalType": "bool",
          "name": "",
          "type": "bool"
        }
      ],
      "stateMutability": "view",
      "type": "function"
    },
    {
      "inputs": [],
      "name": "proposalCount",
      "outputs": [
        {
          "internalType": "uint256",
          "name": "",
          "type": "uint256"
        }
      ],
      "stateMutability": "view",
      "type": "function"
    },
    {
      "inputs": [],
      "name": "proposalThreshold",
      "outputs": [
        {
          "internalType": "uint256",
          "name": "",
          "type": "uint256"
        }
      ],
      "stateMutability": "view",
      "type": "function"
    },
    {
      "inputs": [
        {
          "internalType": "uint256",
          "name": "",
          "type": "uint256"
        }
      ],
      "name": "proposals",
      "outputs": [
        {
          "internalType": "uint256",
          "name": "id",
          "type": "uint256"
        },
        {
          "internalType": "address",
          "name": "proposer",
          "type": "address"
        },
        {
          "internalType": "string",
          "name": "title",
          "type": "string"
        },
        {
          "internalType": "string",
          "name": "description",
          "type": "string"
        },
        {
          "internalType": "enum HiBeatsGovernance.ProposalType",
          "name": "proposalType",
          "type": "uint8"
        },
        {
          "internalType": "uint256",
          "name": "startTime",
          "type": "uint256"
        },
        {
          "internalType": "uint256",
          "name": "endTime",
          "type": "uint256"
        },
        {
          "internalType": "uint256",
          "name": "votesFor",
          "type": "uint256"
        },
        {
          "internalType": "uint256",
          "name": "votesAgainst",
          "type": "uint256"
        },
        {
          "internalType": "uint256",
          "name": "totalVotes",
          "type": "uint256"
        },
        {
          "internalType": "enum HiBeatsGovernance.ProposalStatus",
          "name": "status",
          "type": "uint8"
        },
        {
          "internalType": "bytes",
          "name": "executionData",
          "type": "bytes"
        },
        {
          "internalType": "address",
          "name": "targetContract",
          "type": "address"
        },
        {
          "internalType": "bool",
          "name": "executed",
          "type": "bool"
        }
      ],
      "stateMutability": "view",
      "type": "function"
    },
    {
      "inputs": [
        {
          "internalType": "string",
          "name": "title",
          "type": "string"
        },
        {
          "internalType": "string",
          "name": "description",
          "type": "string"
        },
        {
          "internalType": "enum HiBeatsGovernance.ProposalType",
          "name": "proposalType",
          "type": "uint8"
        },
        {
          "internalType": "bytes",
          "name": "executionData",
          "type": "bytes"
        },
        {
          "internalType": "address",
          "name": "targetContract",
          "type": "address"
        }
      ],
      "name": "propose",
      "outputs": [
        {
          "internalType": "uint256",
          "name": "",
          "type": "uint256"
        }
      ],
      "stateMutability": "nonpayable",
      "type": "function"
    },
    {
      "inputs": [],
      "name": "quorumPercentage",
      "outputs": [
        {
          "internalType": "uint256",
          "name": "",
          "type": "uint256"
        }
      ],
      "stateMutability": "view",
      "type": "function"
    },
    {
      "inputs": [],
      "name": "renounceOwnership",
      "outputs": [],
      "stateMutability": "nonpayable",
      "type": "function"
    },
    {
      "inputs": [
        {
          "internalType": "address",
          "name": "newOwner",
          "type": "address"
        }
      ],
      "name": "transferOwnership",
      "outputs": [],
      "stateMutability": "nonpayable",
      "type": "function"
    },
    {
      "inputs": [],
      "name": "treasury",
      "outputs": [
        {
          "internalType": "address",
          "name": "",
          "type": "address"
        }
      ],
      "stateMutability": "view",
      "type": "function"
    },
    {
      "inputs": [],
      "name": "unpause",
      "outputs": [],
      "stateMutability": "nonpayable",
      "type": "function"
    },
    {
      "inputs": [
        {
          "internalType": "address",
          "name": "_hiBeatsToken",
          "type": "address"
        },
        {
          "internalType": "address",
          "name": "_hiBeatsStaking",
          "type": "address"
        },
        {
          "internalType": "address",
          "name": "_treasury",
          "type": "address"
        }
      ],
      "name": "updateContracts",
      "outputs": [],
      "stateMutability": "nonpayable",
      "type": "function"
    },
    {
      "inputs": [
        {
          "internalType": "uint256",
          "name": "_proposalThreshold",
          "type": "uint256"
        },
        {
          "internalType": "uint256",
          "name": "_votingDelay",
          "type": "uint256"
        },
        {
          "internalType": "uint256",
          "name": "_votingPeriod",
          "type": "uint256"
        },
        {
          "internalType": "uint256",
          "name": "_quorumPercentage",
          "type": "uint256"
        },
        {
          "internalType": "uint256",
          "name": "_executionDelay",
          "type": "uint256"
        }
      ],
      "name": "updateGovernanceParameters",
      "outputs": [],
      "stateMutability": "nonpayable",
      "type": "function"
    },
    {
      "inputs": [
        {
          "internalType": "uint256",
          "name": "proposalId",
          "type": "uint256"
        }
      ],
      "name": "updateProposalStatus",
      "outputs": [],
      "stateMutability": "nonpayable",
      "type": "function"
    },
    {
      "inputs": [
        {
          "internalType": "uint256",
          "name": "",
          "type": "uint256"
        },
        {
          "internalType": "address",
          "name": "",
          "type": "address"
        }
      ],
      "name": "votes",
      "outputs": [
        {
          "internalType": "bool",
          "name": "hasVoted",
          "type": "bool"
        },
        {
          "internalType": "bool",
          "name": "support",
          "type": "bool"
        },
        {
          "internalType": "uint256",
          "name": "votes",
          "type": "uint256"
        },
        {
          "internalType": "string",
          "name": "reason",
          "type": "string"
        }
      ],
      "stateMutability": "view",
      "type": "function"
    },
    {
      "inputs": [],
      "name": "votingDelay",
      "outputs": [
        {
          "internalType": "uint256",
          "name": "",
          "type": "uint256"
        }
      ],
      "stateMutability": "view",
      "type": "function"
    },
    {
      "inputs": [],
      "name": "votingPeriod",
      "outputs": [
        {
          "internalType": "uint256",
          "name": "",
          "type": "uint256"
        }
      ],
      "stateMutability": "view",
      "type": "function"
    }
  ],
  "bytecode": "0x6080346200014357601f6200204038819003918201601f19168301916001600160401b03831184841017620001485780849260809460405283398101031262000143576200004d816200015e565b906200005c602082016200015e565b9062000079606062000071604084016200015e565b92016200015e565b60016000556001600160a01b039081169290919083156200012a578290816001549660018060a01b03199680888a16176001558260405199167f8be0079c531659141344cd1fd0a4f28419497f9722a3daafe3b4186f6b6457e0600080a369152d02c7e14af68000006002556201518060035562093a80600455600a6005556202a300600655168560075416176007551683600854161760085516906009541617600955611ecc9081620001748239f35b604051631e4fbdf760e01b815260006004820152602490fd5b600080fd5b634e487b7160e01b600052604160045260246000fd5b51906001600160a01b0382168203620001435756fe608080604052600436101561001357600080fd5b60003560e01c908163013cf08b146117da5750806302a251a3146117bc5780630d61b5191461150f5780633932abb1146114f15780633f4ba83a1461147f5780634fa76ec9146114615780635584c4f9146113ab578063595488ba14610d1a5780635b7ad57814610ce05780635c975abb14610cba57806361d027b314610c9157806362aef6f0146108de5780636dca4d441461086f578063715018a6146108125780638456cb59146107b05780638b257989146107925780638da5cb5b146107695780639e7c01b414610740578063b58131b014610722578063bb4d4436146106f7578063bc3f931f14610341578063c46a20a2146106ce578063c7f758a8146105af578063c851ed6c146103f8578063cc453157146103bf578063d23254b414610341578063da35c66414610323578063e0a8f6f51461022e578063e40824f8146101f75763f2fde38b1461016957600080fd5b346101f25760203660031901126101f257610182611af6565b61018a611b96565b6001600160a01b039081169081156101d957600154826001600160601b0360a01b821617600155167f8be0079c531659141344cd1fd0a4f28419497f9722a3daafe3b4186f6b6457e0600080a3005b604051631e4fbdf760e01b815260006004820152602490fd5b600080fd5b346101f25760203660031901126101f257600435600e548110156101f257610220602091611b49565b90546040519160031b1c8152f35b346101f25760203660031901126101f25760043580600052600a602052604060002061025c81541515611c53565b6001810154336001600160a01b0391821614908115610315575b50156102d057600a016004815461029960ff821661029381611a65565b15611c9f565b60ff19161790556102a981611df6565b7f416e669c63d9a3a5e36ee7cc7e2104b8db28ccd286aa18966e98fa230c73b08c600080a2005b60405162461bcd60e51b815260206004820152601860248201527f4e6f7420617574686f72697a656420746f2063616e63656c00000000000000006044820152606490fd5b905060015416331483610276565b346101f25760003660031901126101f2576020600d54604051908152f35b346101f25760403660031901126101f25761035a611b0c565b600435600052600b60205260406000209060018060a01b0316600052602052604060002080546103bb60026103a560018501549461039e604051809481930161196d565b0382611a03565b604051938360ff80879660081c16911685611b22565b0390f35b346101f25760a03660031901126101f2576103d8611b96565b600480356002556024356003556044359055606435600555608435600655005b346101f2576020806003193601126101f25760043580600052600a8252604060002061042681541515611c53565b600681015442111561057457600a81019081549060ff821661044781611a65565b610536576007546040516318160ddd60e01b8152908690829060049082906001600160a01b03165afa95861561052a576000966104fa575b5050600554948581029581870414901517156104e45760646104c195046009820154101590816104d1575b50156104c35750805460ff19166001179055611df6565b005b60ff19166002179055611df6565b90506008600782015491015410856104aa565b634e487b7160e01b600052601160045260246000fd5b9080929650813d8311610523575b6105128183611a03565b810103126101f2575193858061047f565b503d610508565b6040513d6000823e3d90fd5b60405162461bcd60e51b815260048101869052601660248201527514dd185d1d5cc8185b1c9958591e481d5c19185d195960521b6044820152606490fd5b60405162461bcd60e51b8152600481018490526013602482015272566f74696e67207374696c6c2061637469766560681b6044820152606490fd5b346101f25760203660031901126101f257600435600052600a60205260406000208054600160a01b6001900360018301541691600481015460ff1690600581015460068201546007830154600884015490600985015492600a86015460ff1694600c87015496604051808060028401906106289161196d565b036106339082611a03565b604051806003819401906106469161196d565b036106519083611a03565b6040519b8c9b8c5260208c01526101808060408d01528b0161067291611a25565b8a810360608c015261068391611a25565b9761068d81611a65565b60808a015260a089015260c088015260e08701526101008601526101208501526106b681611a65565b61014084015260a01c60ff1615156101608301520390f35b346101f25760003660031901126101f2576007546040516001600160a01b039091168152602090f35b346101f25760203660031901126101f257602061071a610715611af6565b611ce1565b604051908152f35b346101f25760003660031901126101f2576020600254604051908152f35b346101f25760003660031901126101f2576008546040516001600160a01b039091168152602090f35b346101f25760003660031901126101f2576001546040516001600160a01b039091168152602090f35b346101f25760003660031901126101f2576020600654604051908152f35b346101f25760003660031901126101f2576107c9611b96565b6107d1611c32565b6001805460ff60a01b1916600160a01b1790556040513381527f62e78cea01bee320cd4e420270b5ea74000d11b0c9f74754ebdbfc544b05a25890602090a1005b346101f25760003660031901126101f25761082b611b96565b600180546001600160a01b031981169091556000906001600160a01b03167f8be0079c531659141344cd1fd0a4f28419497f9722a3daafe3b4186f6b6457e08280a3005b346101f25760603660031901126101f257610888611af6565b610890611b0c565b6001600160a01b036044358181169392908490036101f2576108b0611b96565b816001600160601b0360a01b9316836007541617600755168160085416176008556009541617600955600080f35b346101f25760603660031901126101f25760043560248035918215158084036101f25767ffffffffffffffff926044358481116101f257610923903690600401611ad8565b9361092c611c32565b83600052602095600a875260406000209161094983541515611c53565b60058301544210610c545760068301544211610c1d5761097360ff600a8501541661029381611a65565b85600052600b8852604060002033600052885260ff60406000205416610be95761099c33611ce1565b938415610bb457604051906080820182811084821117610b9f57908993929160405260026001928381528c8082018b815260408301918b8352606084019889528d600052600b815260406000209033600052526040600020925115159060ff61ff0085549251151560081b1692169061ffff1916171782555184820155019351908151938411610b8b5750610a3b83610a358654611933565b86611bde565b8a90601f8411600114610afc5792807f63453ebf8e1aa432b8d77257d489f75c1a106cdbd568c0e0c63547d20fc91fa89a9b9c979593819360099896600094610af1575b50501b916000199060031b1c19161790555b15610adb5760078101610aa5858254611bc2565b90555b01610ab4838254611bc2565b90556040519283528201526060604082015280610ad633956060830190611a25565b0390a3005b60088101610aea858254611bc2565b9055610aa8565b015192508e80610a7f565b90601f93929319831691856000528c6000209260005b818110610b76575091600997959391857f63453ebf8e1aa432b8d77257d489f75c1a106cdbd568c0e0c63547d20fc91fa89d9e9f9a98969410610b5d575b505050811b019055610a91565b015160001960f88460031b161c191690558c8080610b50565b82840151855593860193928e01928e01610b12565b634e487b7160e01b60009081526041600452fd5b50634e487b7160e01b60009081526041600452fd5b88600f6064926040519262461bcd60e51b845260048401528201526e2737903b37ba34b733903837bbb2b960891b6044820152fd5b60405162461bcd60e51b815260048101899052600d818601526c105b1c9958591e481d9bdd1959609a1b6044820152606490fd5b60405162461bcd60e51b8152600481018990526010818601526f159bdd1a5b99c81a185cc8195b99195960821b6044820152606490fd5b60405162461bcd60e51b81526004810189905260168186015275159bdd1a5b99c81a185cc81b9bdd081cdd185c9d195960521b6044820152606490fd5b346101f25760003660031901126101f2576009546040516001600160a01b039091168152602090f35b346101f25760003660031901126101f257602060ff60015460a01c166040519015158152f35b346101f25760203660031901126101f2576001600160a01b03610d01611af6565b16600052600c6020526020604060002054604051908152f35b346101f25760a03660031901126101f25760043567ffffffffffffffff81116101f257610d4b903690600401611ad8565b60243567ffffffffffffffff81116101f257610d6b903690600401611ad8565b600560443510156101f25760643567ffffffffffffffff81116101f257366023820112156101f257610da7903690602481600401359101611aa1565b608435906001600160a01b03821682036101f257610dc3611c32565b610dcc33611ce1565b6002541161135a5733600052600c6020526040600020546201518081018091116104e457421061130957610e01600d54611bcf565b9283600d55610e1260035442611bc2565b92610e1f60045485611bc2565b9260405192836101c081011067ffffffffffffffff6101c086011117611182576101c084016040528684523360208501528760408501526060840152610e66604435611a65565b60443560808401528460a08401528360c0840152600060e084015260006101008401526000610120840152600061014084015261016083015260018060a01b031661018082015260006101a082015283600052600a6020526040600020815181556001810160018060a01b036020840151166001600160601b0360a01b825416179055604082015180519067ffffffffffffffff8211611182578190610f1c82610f136002870154611933565b60028701611bde565b602090601f83116001146112975760009261128c575b50508160011b916000199060031b1c19161760028201555b606082015180519067ffffffffffffffff8211611182578190610f7d82610f746003870154611933565b60038701611bde565b602090601f831160011461121a5760009261120f575b50508160011b916000199060031b1c19161760038201555b608082015160048201610fbd82611a65565b610fc682611a65565b60ff199160ff83835416911617905560a0830151600583015560c0830151600683015560e0830151600783015561010083015160088301556101208301516009830155600a82019060ff6101408501519161102083611a65565b61102983611a65565b8354169116179055610160820151805167ffffffffffffffff811161118257600b8301916110618261105b8554611933565b85611bde565b602090601f83116001146111a357600c9493929160009183611198575b50508160011b916000199060031b1c19161790555b019060018060a01b03610180820151168254916101a060ff60a01b910151151560a01b16916affffffffffffffffffffff60a81b1617179055600e54680100000000000000008110156111825760209484926111338461111a8560017ffd3a4372829eebfa1fcdd5a6e4bbbeb5b140261c36928520367a19665a17a9969701600e55611b49565b90919082549060031b91821b91600019901b1916179055565b33600052600c87524260406000205561115760405192608084526080840190611a25565b94611163604435611a65565b60443588840152604083015260608201528033940390a3604051908152f35b634e487b7160e01b600052604160045260246000fd5b015190508a8061107e565b90601f198316918460005260206000209260005b8181106111f75750916001939185600c98979694106111de575b505050811b019055611093565b015160001960f88460031b161c191690558a80806111d1565b929360206001819287860151815501950193016111b7565b015190508880610f93565b9250600384016000526020600020906000935b601f1984168510611271576001945083601f19811610611258575b505050811b016003820155610fab565b015160001960f88460031b161c19169055888080611248565b8181015183556020948501946001909301929091019061122d565b015190508880610f32565b9250600284016000526020600020906000935b601f19841685106112ee576001945083601f198116106112d5575b505050811b016002820155610f4a565b015160001960f88460031b161c191690558880806112c5565b818101518355602094850194600190930192909101906112aa565b60405162461bcd60e51b8152602060048201526024808201527f4d757374207761697420323420686f757273206265747765656e2070726f706f60448201526373616c7360e01b6064820152608490fd5b60405162461bcd60e51b8152602060048201526024808201527f496e73756666696369656e7420766f74696e6720706f77657220746f2070726f604482015263706f736560e01b6064820152608490fd5b346101f25760003660031901126101f25760405180600e5480835260208093018091600e6000527fbb7b4a454dc3493923482f07822329ed19e8244eff582cc204f8554c3620c3fd9060005b8682821061144d57868661140d82880383611a03565b604051928392818401908285525180915260408401929160005b82811061143657505050500390f35b835185528695509381019392810192600101611427565b8354855290930192600192830192016113f7565b346101f25760003660031901126101f2576020600554604051908152f35b346101f25760003660031901126101f257611498611b96565b60015460ff8160a01c16156114df5760ff60a01b19166001556040513381527f5db9ee0a495bf2e6ff9c91a7834c1ba4fdd244a5e8aa4e537bd38aeae4b073aa90602090a1005b604051638dfc202b60e01b8152600490fd5b346101f25760003660031901126101f2576020600354604051908152f35b346101f2576020806003193601126101f2576004359081600052600a8152604060002061153e81541515611c53565b61154f600682015460065490611bc2565b42111561177757600c81019081549160ff8360a01c1661173f57600a82019182549260ff84169261157f84611a65565b60018094036117015760ff60a01b198616600160a01b17905560ff199384166003179055600b018054909290916115b583611933565b1515806116ef575b6115ea575b867f712ae1383f79ac853f8d882153778e0260ef8f03b504e2866e0593e04d2b291f600080a2005b604051936000936115fa81611933565b938184169182156116d857505060011461169d575b506000948594938490039392508491506001600160a01b03165af13d15611698573d61163a81611a85565b906116486040519283611a03565b81526000833d92013e5b156116615780808080806115c2565b6064906040519062461bcd60e51b82526004820152601060248201526f115e1958dd5d1a5bdb8819985a5b195960821b6044820152fd5b611652565b909192506000528460002090856000925b8484106116c65750505090820190508160008061160f565b805486850152920191869082016116ae565b16865250505080151502820190508160008061160f565b506001600160a01b03851615156115bd565b60405162461bcd60e51b8152600481018890526016602482015275141c9bdc1bdcd85b081b9bdd081cdd58d8d95959195960521b6044820152606490fd5b60405162461bcd60e51b815260048101859052601060248201526f105b1c9958591e48195e1958dd5d195960821b6044820152606490fd5b60405162461bcd60e51b815260048101839052601760248201527f457865637574696f6e2064656c6179206e6f74206d65740000000000000000006044820152606490fd5b346101f25760003660031901126101f2576020600454604051908152f35b346101f25760203660031901126101f2576004356000908152600a60205260409020805460018201546001600160a01b0390811693919290919081611822816002840161196d565b0361182d9083611a03565b6040518061183e816003850161196d565b036118499082611a03565b600482015460ff1690600583015460068401546007850154600886015491600987015493600a88015460ff1695604051988980600b83019061188a9161196d565b03611895908b611a03565b600c0154996040519d8e809e8152602001528c6101c06040819201528d016118bc91611a25565b8c810360608e01526118cd91611a25565b966118d781611a65565b60808c015260a08b015260c08a015260e089015261010088015261012087015261190081611a65565b61014086015284810361016086015261191891611a25565b91811661018084015260a01c60ff1615156101a08301520390f35b90600182811c92168015611963575b602083101461194d57565b634e487b7160e01b600052602260045260246000fd5b91607f1691611942565b906000929180549161197e83611933565b9182825260019384811690816000146119e057506001146119a0575b50505050565b90919394506000526020928360002092846000945b8386106119cc57505050500101903880808061199a565b8054858701830152940193859082016119b5565b9294505050602093945060ff191683830152151560051b0101903880808061199a565b90601f8019910116810190811067ffffffffffffffff82111761118257604052565b919082519283825260005b848110611a51575050826000602080949584010152601f8019910116010190565b602081830181015184830182015201611a30565b60051115611a6f57565b634e487b7160e01b600052602160045260246000fd5b67ffffffffffffffff811161118257601f01601f191660200190565b929192611aad82611a85565b91611abb6040519384611a03565b8294818452818301116101f2578281602093846000960137010152565b9080601f830112156101f257816020611af393359101611aa1565b90565b600435906001600160a01b03821682036101f257565b602435906001600160a01b03821682036101f257565b9092608092611af39594151583521515602083015260408201528160608201520190611a25565b600e54811015611b8057600e6000527fbb7b4a454dc3493923482f07822329ed19e8244eff582cc204f8554c3620c3fd0190600090565b634e487b7160e01b600052603260045260246000fd5b6001546001600160a01b03163303611baa57565b60405163118cdaa760e01b8152336004820152602490fd5b919082018092116104e457565b60001981146104e45760010190565b90601f8111611bec57505050565b600091825260208220906020601f850160051c83019410611c28575b601f0160051c01915b828110611c1d57505050565b818155600101611c11565b9092508290611c08565b60ff60015460a01c16611c4157565b60405163d93c066560e01b8152600490fd5b15611c5a57565b60405162461bcd60e51b815260206004820152601760248201527f50726f706f73616c20646f6573206e6f742065786973740000000000000000006044820152606490fd5b15611ca657565b60405162461bcd60e51b815260206004820152601360248201527250726f706f73616c206e6f742061637469766560681b6044820152606490fd5b6007546040516370a0823160e01b81526001600160a01b03928316600482018190529092916020919082908590602490829087165afa93841561052a57600094611dc7575b50600092600854169081611d54575b5050508060011b90808204600214901517156104e457611af391611bc2565b829060246040518094819363dd2a8b1160e01b835260048301525afa91839083611d91575b505050611d8c575060005b388080611d35565b611d84565b909180939450813d8311611dc0575b611daa8183611a03565b81010312611dbd57505190388080611d79565b80fd5b503d611da0565b90938282813d8311611def575b611dde8183611a03565b81010312611dbd5750519238611d26565b503d611dd4565b60005b600e908154918282101561199a578392611e1283611b49565b959054600396871b1c14611e32575050611e2d919250611bcf565b611df9565b909250600019918282019182116104e45761111a611e52611e5e93611b49565b905490871b1c91611b49565b81548015611e8057810192611e7284611b49565b81939154921b1b1916905555565b634e487b7160e01b600052603160045260246000fdfea2646970667358221220eca16d057233cbaeec86360bb1983bff12820686fd30d83bfe18197708b4fa5d64736f6c63430008140033",
  "linkReferences": {},
  "deployedLinkReferences": {}
}