{
  "_format": "hh-sol-artifact-1",
  "contractName": "HiBeatsFactoryFixed",
  "sourceName": "contracts/HiBeatsFactoryFixed.sol",
  "abi": [
    {
      "inputs": [
        {
          "internalType": "address",
          "name": "_hiBeatsNFT",
          "type": "address"
        },
        {
          "internalType": "address",
          "name": "_beatsToken",
          "type": "address"
        },
        {
          "internalType": "address",
          "name": "_ipfsService",
          "type": "address"
        }
      ],
      "stateMutability": "nonpayable",
      "type": "constructor"
    },
    {
      "inputs": [],
      "name": "EnforcedPause",
      "type": "error"
    },
    {
      "inputs": [],
      "name": "ExpectedPause",
      "type": "error"
    },
    {
      "inputs": [
        {
          "internalType": "address",
          "name": "owner",
          "type": "address"
        }
      ],
      "name": "OwnableInvalidOwner",
      "type": "error"
    },
    {
      "inputs": [
        {
          "internalType": "address",
          "name": "account",
          "type": "address"
        }
      ],
      "name": "OwnableUnauthorizedAccount",
      "type": "error"
    },
    {
      "inputs": [],
      "name": "ReentrancyGuardReentrantCall",
      "type": "error"
    },
    {
      "anonymous": false,
      "inputs": [
        {
          "indexed": true,
          "internalType": "uint256",
          "name": "requestId",
          "type": "uint256"
        },
        {
          "indexed": true,
          "internalType": "address",
          "name": "user",
          "type": "address"
        },
        {
          "indexed": false,
          "internalType": "string",
          "name": "reason",
          "type": "string"
        }
      ],
      "name": "GenerationFailed",
      "type": "event"
    },
    {
      "anonymous": false,
      "inputs": [
        {
          "indexed": true,
          "internalType": "uint256",
          "name": "requestId",
          "type": "uint256"
        },
        {
          "indexed": true,
          "internalType": "address",
          "name": "user",
          "type": "address"
        },
        {
          "indexed": true,
          "internalType": "uint256",
          "name": "tokenId",
          "type": "uint256"
        },
        {
          "indexed": false,
          "internalType": "string",
          "name": "metadataURI",
          "type": "string"
        }
      ],
      "name": "MusicGenerationCompleted",
      "type": "event"
    },
    {
      "anonymous": false,
      "inputs": [
        {
          "indexed": true,
          "internalType": "uint256",
          "name": "requestId",
          "type": "uint256"
        },
        {
          "indexed": true,
          "internalType": "address",
          "name": "user",
          "type": "address"
        },
        {
          "indexed": false,
          "internalType": "string",
          "name": "prompt",
          "type": "string"
        },
        {
          "indexed": false,
          "internalType": "string",
          "name": "style",
          "type": "string"
        },
        {
          "indexed": false,
          "internalType": "bool",
          "name": "instrumental",
          "type": "bool"
        }
      ],
      "name": "MusicGenerationRequested",
      "type": "event"
    },
    {
      "anonymous": false,
      "inputs": [
        {
          "indexed": true,
          "internalType": "address",
          "name": "previousOwner",
          "type": "address"
        },
        {
          "indexed": true,
          "internalType": "address",
          "name": "newOwner",
          "type": "address"
        }
      ],
      "name": "OwnershipTransferred",
      "type": "event"
    },
    {
      "anonymous": false,
      "inputs": [
        {
          "indexed": false,
          "internalType": "address",
          "name": "account",
          "type": "address"
        }
      ],
      "name": "Paused",
      "type": "event"
    },
    {
      "anonymous": false,
      "inputs": [
        {
          "indexed": true,
          "internalType": "address",
          "name": "user",
          "type": "address"
        },
        {
          "indexed": false,
          "internalType": "uint256",
          "name": "amount",
          "type": "uint256"
        }
      ],
      "name": "RewardDistributed",
      "type": "event"
    },
    {
      "anonymous": false,
      "inputs": [
        {
          "indexed": false,
          "internalType": "address",
          "name": "account",
          "type": "address"
        }
      ],
      "name": "Unpaused",
      "type": "event"
    },
    {
      "inputs": [
        {
          "internalType": "address",
          "name": "",
          "type": "address"
        }
      ],
      "name": "authorizedCallbackSenders",
      "outputs": [
        {
          "internalType": "bool",
          "name": "",
          "type": "bool"
        }
      ],
      "stateMutability": "view",
      "type": "function"
    },
    {
      "inputs": [],
      "name": "beatsToken",
      "outputs": [
        {
          "internalType": "contract IHiBeatsToken",
          "name": "",
          "type": "address"
        }
      ],
      "stateMutability": "view",
      "type": "function"
    },
    {
      "inputs": [
        {
          "internalType": "uint256",
          "name": "requestId",
          "type": "uint256"
        },
        {
          "internalType": "string",
          "name": "audioUrl",
          "type": "string"
        },
        {
          "internalType": "string",
          "name": "imageUrl",
          "type": "string"
        },
        {
          "internalType": "string",
          "name": "title",
          "type": "string"
        },
        {
          "internalType": "string",
          "name": "artist",
          "type": "string"
        }
      ],
      "name": "completeMusicGeneration",
      "outputs": [],
      "stateMutability": "nonpayable",
      "type": "function"
    },
    {
      "inputs": [
        {
          "internalType": "address",
          "name": "",
          "type": "address"
        }
      ],
      "name": "dailyGenerations",
      "outputs": [
        {
          "internalType": "uint256",
          "name": "",
          "type": "uint256"
        }
      ],
      "stateMutability": "view",
      "type": "function"
    },
    {
      "inputs": [],
      "name": "dailyLimit",
      "outputs": [
        {
          "internalType": "uint256",
          "name": "",
          "type": "uint256"
        }
      ],
      "stateMutability": "view",
      "type": "function"
    },
    {
      "inputs": [],
      "name": "generationFee",
      "outputs": [
        {
          "internalType": "uint256",
          "name": "",
          "type": "uint256"
        }
      ],
      "stateMutability": "view",
      "type": "function"
    },
    {
      "inputs": [
        {
          "internalType": "uint256",
          "name": "",
          "type": "uint256"
        }
      ],
      "name": "generationRequests",
      "outputs": [
        {
          "internalType": "address",
          "name": "user",
          "type": "address"
        },
        {
          "internalType": "string",
          "name": "prompt",
          "type": "string"
        },
        {
          "internalType": "string",
          "name": "style",
          "type": "string"
        },
        {
          "internalType": "bool",
          "name": "instrumental",
          "type": "bool"
        },
        {
          "internalType": "uint256",
          "name": "timestamp",
          "type": "uint256"
        },
        {
          "internalType": "bool",
          "name": "completed",
          "type": "bool"
        },
        {
          "internalType": "string",
          "name": "metadataURI",
          "type": "string"
        },
        {
          "internalType": "uint256",
          "name": "tokenId",
          "type": "uint256"
        }
      ],
      "stateMutability": "view",
      "type": "function"
    },
    {
      "inputs": [
        {
          "internalType": "address",
          "name": "user",
          "type": "address"
        }
      ],
      "name": "getDailyGenerationsLeft",
      "outputs": [
        {
          "internalType": "uint256",
          "name": "",
          "type": "uint256"
        }
      ],
      "stateMutability": "view",
      "type": "function"
    },
    {
      "inputs": [
        {
          "internalType": "uint256",
          "name": "requestId",
          "type": "uint256"
        }
      ],
      "name": "getGenerationRequest",
      "outputs": [
        {
          "components": [
            {
              "internalType": "address",
              "name": "user",
              "type": "address"
            },
            {
              "internalType": "string",
              "name": "prompt",
              "type": "string"
            },
            {
              "internalType": "string",
              "name": "style",
              "type": "string"
            },
            {
              "internalType": "bool",
              "name": "instrumental",
              "type": "bool"
            },
            {
              "internalType": "uint256",
              "name": "timestamp",
              "type": "uint256"
            },
            {
              "internalType": "bool",
              "name": "completed",
              "type": "bool"
            },
            {
              "internalType": "string",
              "name": "metadataURI",
              "type": "string"
            },
            {
              "internalType": "uint256",
              "name": "tokenId",
              "type": "uint256"
            }
          ],
          "internalType": "struct HiBeatsFactoryFixed.GenerationRequest",
          "name": "",
          "type": "tuple"
        }
      ],
      "stateMutability": "view",
      "type": "function"
    },
    {
      "inputs": [
        {
          "internalType": "address",
          "name": "user",
          "type": "address"
        }
      ],
      "name": "getUserRequests",
      "outputs": [
        {
          "internalType": "uint256[]",
          "name": "",
          "type": "uint256[]"
        }
      ],
      "stateMutability": "view",
      "type": "function"
    },
    {
      "inputs": [],
      "name": "hiBeatsNFT",
      "outputs": [
        {
          "internalType": "contract IHiBeatsNFT",
          "name": "",
          "type": "address"
        }
      ],
      "stateMutability": "view",
      "type": "function"
    },
    {
      "inputs": [],
      "name": "ipfsService",
      "outputs": [
        {
          "internalType": "address",
          "name": "",
          "type": "address"
        }
      ],
      "stateMutability": "view",
      "type": "function"
    },
    {
      "inputs": [
        {
          "internalType": "address",
          "name": "",
          "type": "address"
        }
      ],
      "name": "lastGenerationDay",
      "outputs": [
        {
          "internalType": "uint256",
          "name": "",
          "type": "uint256"
        }
      ],
      "stateMutability": "view",
      "type": "function"
    },
    {
      "inputs": [
        {
          "internalType": "uint256",
          "name": "requestId",
          "type": "uint256"
        },
        {
          "internalType": "string",
          "name": "reason",
          "type": "string"
        }
      ],
      "name": "markGenerationFailed",
      "outputs": [],
      "stateMutability": "nonpayable",
      "type": "function"
    },
    {
      "inputs": [],
      "name": "nextRequestId",
      "outputs": [
        {
          "internalType": "uint256",
          "name": "",
          "type": "uint256"
        }
      ],
      "stateMutability": "view",
      "type": "function"
    },
    {
      "inputs": [],
      "name": "owner",
      "outputs": [
        {
          "internalType": "address",
          "name": "",
          "type": "address"
        }
      ],
      "stateMutability": "view",
      "type": "function"
    },
    {
      "inputs": [],
      "name": "pause",
      "outputs": [],
      "stateMutability": "nonpayable",
      "type": "function"
    },
    {
      "inputs": [],
      "name": "paused",
      "outputs": [
        {
          "internalType": "bool",
          "name": "",
          "type": "bool"
        }
      ],
      "stateMutability": "view",
      "type": "function"
    },
    {
      "inputs": [],
      "name": "renounceOwnership",
      "outputs": [],
      "stateMutability": "nonpayable",
      "type": "function"
    },
    {
      "inputs": [
        {
          "internalType": "string",
          "name": "prompt",
          "type": "string"
        },
        {
          "internalType": "string",
          "name": "style",
          "type": "string"
        },
        {
          "internalType": "bool",
          "name": "instrumental",
          "type": "bool"
        }
      ],
      "name": "requestMusicGeneration",
      "outputs": [],
      "stateMutability": "payable",
      "type": "function"
    },
    {
      "inputs": [],
      "name": "rewardAmount",
      "outputs": [
        {
          "internalType": "uint256",
          "name": "",
          "type": "uint256"
        }
      ],
      "stateMutability": "view",
      "type": "function"
    },
    {
      "inputs": [
        {
          "internalType": "address",
          "name": "sender",
          "type": "address"
        },
        {
          "internalType": "bool",
          "name": "authorized",
          "type": "bool"
        }
      ],
      "name": "setAuthorizedCallbackSender",
      "outputs": [],
      "stateMutability": "nonpayable",
      "type": "function"
    },
    {
      "inputs": [
        {
          "internalType": "uint256",
          "name": "newLimit",
          "type": "uint256"
        }
      ],
      "name": "setDailyLimit",
      "outputs": [],
      "stateMutability": "nonpayable",
      "type": "function"
    },
    {
      "inputs": [
        {
          "internalType": "uint256",
          "name": "newFee",
          "type": "uint256"
        }
      ],
      "name": "setGenerationFee",
      "outputs": [],
      "stateMutability": "nonpayable",
      "type": "function"
    },
    {
      "inputs": [
        {
          "internalType": "address",
          "name": "newService",
          "type": "address"
        }
      ],
      "name": "setIpfsService",
      "outputs": [],
      "stateMutability": "nonpayable",
      "type": "function"
    },
    {
      "inputs": [
        {
          "internalType": "uint256",
          "name": "newAmount",
          "type": "uint256"
        }
      ],
      "name": "setRewardAmount",
      "outputs": [],
      "stateMutability": "nonpayable",
      "type": "function"
    },
    {
      "inputs": [],
      "name": "setupAuthorizations",
      "outputs": [],
      "stateMutability": "nonpayable",
      "type": "function"
    },
    {
      "inputs": [
        {
          "internalType": "address",
          "name": "newOwner",
          "type": "address"
        }
      ],
      "name": "transferOwnership",
      "outputs": [],
      "stateMutability": "nonpayable",
      "type": "function"
    },
    {
      "inputs": [],
      "name": "unpause",
      "outputs": [],
      "stateMutability": "nonpayable",
      "type": "function"
    },
    {
      "inputs": [
        {
          "internalType": "address",
          "name": "",
          "type": "address"
        },
        {
          "internalType": "uint256",
          "name": "",
          "type": "uint256"
        }
      ],
      "name": "userRequests",
      "outputs": [
        {
          "internalType": "uint256",
          "name": "",
          "type": "uint256"
        }
      ],
      "stateMutability": "view",
      "type": "function"
    },
    {
      "inputs": [],
      "name": "withdrawFees",
      "outputs": [],
      "stateMutability": "nonpayable",
      "type": "function"
    }
  ],
  "bytecode": "0x60c0346200017157601f62001d7738819003918201601f19168301916001600160401b03831184841017620001765780849260609460405283398101031262000171576200004d816200018c565b62000069604062000061602085016200018c565b93016200018c565b903315620001585760008054336001600160a01b03198216811783556040805196909593946001600160a01b03939192849283167f8be0079c531659141344cd1fd0a4f28419497f9722a3daafe3b4186f6b6457e08880a36001805566038d7ea4c68000600355678ac7230489e8000060045560036005556001600b55166080521660a05260025490610100600160a81b039060081b1690610100600160a81b03191617600255338152600a60205220600160ff19825416179055611bd59081620001a28239608051818181610376015281816114c801526116aa015260a05181818161045a01526116650152f35b604051631e4fbdf760e01b815260006004820152602490fd5b600080fd5b634e487b7160e01b600052604160045260246000fd5b51906001600160a01b0382168203620001715756fe608080604052600436101561001357600080fd5b600090813560e01c9081630566f18a1461175257508063263cb6b6146116fc57806328f1a0e0146116d95780632f9662c514611694578063374cb7c51461164f5780633f4ba83a146115e457806343ba811f146115a5578063476343ee14611562578063545566251461153557806358a4f15a146114ac5780635c975abb146114895780635cba59331461145057806361728136146113f757806367eeba0c146113d95780636a10500e1461128c5780636a84a9851461126e578063715018a6146112145780638456cb59146111b95780638da5cb5b14611192578063a8a65a781461116f578063ade13ab614611136578063b20d30a914611113578063b337cf7414611065578063d45ddde91461101b578063eb97e5c514610f28578063edcac1f314610e5f578063f13b7dda14610e33578063f2fde38b14610da3578063f7b2a7be14610d85578063f875034a1461065c5763fe7347d01461017657600080fd5b346106595760a0366003190112610659578067ffffffffffffffff600435602435828111610654576101ac903690600401611805565b91604435818111610650576101c5903690600401611805565b9060643581811161064c576101de903690600401611805565b936084359180831161064857610257966102f66033600a9861021f60ff604061020e6102cd9a3690600401611805565b9633815260209d8e52205416611a00565b888c5260068a5260408c2097600589019461023e60ff87541615611a4c565b89546001600160a01b039081169d9098908e1515611a98565b6102608b611ad6565b508c6040519a8b956f697066733a2f2f6d657461646174612f60801b83880152610293815180928560308b01910161185c565b860193602f60f81b948560308201526102b5825180938660318501910161185c565b0191846031840152835193849160328501910161185c565b019060328201526102e78c8351938491878501910161185c565b010360138101875201856117e3565b6040519767464143544f52595f60c01b888a01528660288a0152602889526060890190898210848311176106325760408290526329fdb9fd60e11b825260648a0152608060848a0152878161036361035160e48d018d61187f565b8c81036063190160a48e01528861187f565b6103e860c48d01528b9003605f1901818d7f000000000000000000000000000000000000000000000000000000000000000089165af1988915610627578a996105f3575b5050805460ff191660019081179091558351600686019281116105df576103ce83546118a4565b601f8111610598575b5087601f821160011461053b57819282918c93610530575b501b916000199060031b1c19161790555b85600784015580835416928760045480610457575b50507f99e4bd6a70eca0054f961e0a8408c6d7efed5bfe4339a3f8d8fcda78c419c4f0935054169361045160405192828493845283019061187f565b0390a480f35b837f00000000000000000000000000000000000000000000000000000000000000001690813b1561052c57829160448392604051948593849263d264a38b60e01b84528c600485015260248401525af1801561052157610509575b50507f99e4bd6a70eca0054f961e0a8408c6d7efed5bfe4339a3f8d8fcda78c419c4f0937fe34918ff1c7084970068b53fd71ad6d8b04e9f15d3886cbf006443e6cdc52ea687600454604051908152a28738610415565b610512906117b2565b61051d5787386104b2565b8780fd5b6040513d84823e3d90fd5b8280fd5b8701519250386103ef565b838b52888b209082601f1981168d5b8c878383106105815750505010610568575b5050811b019055610400565b86015160001960f88460031b161c19169055388061055c565b858c0151875590950194938401938693500161054a565b838b52888b20601f830160051c8101918a84106105d5575b601f0160051c019083905b8281106105c95750506103d7565b600081550183906105bb565b90915081906105b0565b634e487b7160e01b8a52604160045260248afd5b888092939a503d8311610620575b61060b81856117e3565b8101031261061c57519638806103a7565b8880fd5b503d610601565b6040513d8c823e3d90fd5b634e487b7160e01b600052604160045260246000fd5b8680fd5b8580fd5b8480fd5b505050fd5b80fd5b5060603660031901126106595760043567ffffffffffffffff8111610d8157610689903690600401611805565b60243567ffffffffffffffff811161052c576106a9903690600401611805565b604435918215158303610d7c57600260015414610d6a5760026001556106cd6119e2565b620151804204338552600960205280604086205403610d4f575b50600860205260408420546005541115610d0a576003543410610cd257805115610c9457600b5491610718836119b0565b600b55604051610727816117c6565b33815282602082015281604082015284151560608201524260808201528560a082015260405180602081011067ffffffffffffffff602083011117610632576020810160405286815260c08201528560e08201528386526006602052604086209060018060a01b038151166bffffffffffffffffffffffff60a01b835416178255602081015180519067ffffffffffffffff8211610aea5781906107ce60018601546118a4565b601f8111610c43575b50602090601f8311600114610bd4578a92610bc9575b50508160011b916000199060031b1c19161760018301555b604081015180519067ffffffffffffffff8211610aea57819061082b60028601546118a4565b601f8111610b78575b50602090601f8311600114610b09578a92610afe575b50508160011b916000199060031b1c19161760028301555b61088160608201511515600384019060ff801983541691151516179055565b608081015160048301556108aa60a08201511515600584019060ff801983541691151516179055565b60c081015180519067ffffffffffffffff8211610aea576108ce60068501546118a4565b601f8111610aa5575b50602090601f8311600114610a335791806007949260e0948c92610a28575b50508160011b916000199060031b1c19161760068501555b015191015533855260076020526040852080549068010000000000000000821015610a145791610969827f0ff8ac589abdfa0e0bd9ad3186bbe67df9186ed15185930992414f728bc8397d959460016109b995018155611784565b81549060031b9087821b91600019901b191617905533875260086020526040872061099481546119b0565b90556109ab6040519360608552606085019061187f565b90838203602085015261187f565b93151560408201528033940390a3806003548034116109db575b506001805580f35b81806109e88193346119d5565b818115610a0b575b3390f1156109ff5780386109d3565b604051903d90823e3d90fd5b506108fc6109f0565b634e487b7160e01b87526041600452602487fd5b0151905038806108f6565b90600685018a5260208a20918a5b601f1985168110610a8d5750926007949260019260e09583601f19811610610a74575b505050811b01600685015561090e565b015160001960f88460031b161c19169055388080610a64565b91926020600181928685015181550194019201610a41565b600685018a5260208a20601f840160051c810160208510610ae3575b601f830160051c82018110610ad75750506108d7565b60008155600101610ac1565b5080610ac1565b634e487b7160e01b89526041600452602489fd5b01519050388061084a565b9250600285018a5260208a20908a935b601f1984168510610b5d576001945083601f19811610610b44575b505050811b016002830155610862565b015160001960f88460031b161c19169055388080610b34565b81810151835560209485019460019093019290910190610b19565b909150600285018a5260208a20601f840160051c810160208510610bc2575b90849392915b601f830160051c82018110610bb3575050610834565b60008155859450600101610b9d565b5080610b97565b0151905038806107ed565b9250600185018a5260208a20908a935b601f1984168510610c28576001945083601f19811610610c0f575b505050811b016001830155610805565b015160001960f88460031b161c19169055388080610bff565b81810151835560209485019460019093019290910190610be4565b909150600185018a5260208a20601f840160051c810160208510610c8d575b90849392915b601f830160051c82018110610c7e5750506107d7565b60008155859450600101610c68565b5080610c62565b60405162461bcd60e51b815260206004820152601660248201527550726f6d70742063616e6e6f7420626520656d70747960501b6044820152606490fd5b60405162461bcd60e51b815260206004820152601060248201526f496e73756666696369656e742066656560801b6044820152606490fd5b60405162461bcd60e51b815260206004820152601f60248201527f4461696c792067656e65726174696f6e206c696d6974206578636565646564006044820152606490fd5b600860205284604081205560096020526040852055386106e7565b604051633ee5aeb560e01b8152600490fd5b600080fd5b5080fd5b50346106595780600319360112610659576020600454604051908152f35b503461065957602036600319011261065957610dbd61176e565b610dc5611984565b6001600160a01b03908116908115610e1a57600054826bffffffffffffffffffffffff60a01b821617600055167f8be0079c531659141344cd1fd0a4f28419497f9722a3daafe3b4186f6b6457e0600080a380f35b604051631e4fbdf760e01b815260048101849052602490fd5b5034610659576020366003190112610659576020610e57610e5261176e565b611b5b565b604051908152f35b503461065957602036600319011261065957600435815260066020526040902080546001600160a01b0316610e96600183016118de565b91610f1e610ea6600283016118de565b9160ff60038201541690600481015460ff60058301541690610efd6007610ecf600686016118de565b94015496610eef6040519a8b9a8b526101008060208d01528b019061187f565b9089820360408b015261187f565b93151560608801526080870152151560a086015284820360c086015261187f565b9060e08301520390f35b503461065957602080600319360112610d815761101091610f8b6040805192610f50846117c6565b8084528060e06060958688820152868582015282878201528260808201528260a08201528660c0820152015260043581526006855220611ad6565b9060e060405194848695865260018060a01b038551168187015284015192610fc16101009485604089015261012088019061187f565b610fdc604087015191601f1992838a830301858b015261187f565b9186015115156080880152608086015160a088015260a0860151151560c088015260c086015190878303018488015261187f565b920151908301520390f35b50346106595760203660031901126106595761103561176e565b61103d611984565b60028054610100600160a81b03191660089290921b610100600160a81b031691909117905580f35b503461065957602080600319360112610d81576001600160a01b0361108861176e565b168252600781526040822060405192838383549182815201908193835284832090835b8181106110ff57505050846110c19103856117e3565b60405193838594850191818652518092526040850193925b8281106110e857505050500390f35b8351855286955093810193928101926001016110d9565b8254845292860192600192830192016110ab565b50346106595760203660031901126106595761112d611984565b60043560055580f35b5034610659576020366003190112610659576020906040906001600160a01b0361115e61176e565b168152600983522054604051908152f35b503461065957602036600319011261065957611189611984565b60043560045580f35b5034610659578060031936011261065957546040516001600160a01b039091168152602090f35b50346106595780600319360112610659576111d2611984565b6111da6119e2565b600160ff1960025416176002557f62e78cea01bee320cd4e420270b5ea74000d11b0c9f74754ebdbfc544b05a2586020604051338152a180f35b503461065957806003193601126106595761122d611984565b600080546001600160a01b0319811682556001600160a01b03167f8be0079c531659141344cd1fd0a4f28419497f9722a3daafe3b4186f6b6457e08280a380f35b50346106595780600319360112610659576020600b54604051908152f35b5034610659576040366003190112610659576004359060243567ffffffffffffffff8111610d81576112c2903690600401611805565b91338252602090600a82526112dd60ff604085205416611a00565b80835260068252604083209360058501946112fc60ff87541615611a4c565b60018060a01b03908580808085855416611317811515611a98565b600354908282156113d0575bf1156113c55781815416865260098552620151804204604087205414611391575b7f7b4dc11fb6e36c13a5b261f8409111859f4a34a800e39bc23afe5b096244323c93949596600160ff1982541617905554169361138b60405192828493845283019061187f565b0390a380f35b60088552604086209687549788156113b157600019909801909755611344565b634e487b7160e01b88526011600452602488fd5b6040513d87823e3d90fd5b506108fc611323565b50346106595780600319360112610659576020600554604051908152f35b50346106595760403660031901126106595761141161176e565b6024358015158103610d7c5761144d91611429611984565b60018060a01b03168352600a602052604083209060ff801983541691151516179055565b80f35b5034610659576020366003190112610659576020906040906001600160a01b0361147861176e565b168152600883522054604051908152f35b5034610659578060031936011261065957602060ff600254166040519015158152f35b50346106595780600319360112610659576114c5611984565b807f00000000000000000000000000000000000000000000000000000000000000006001600160a01b0316803b156115325781906044604051809481936370a1a7a760e11b8352306004840152600160248401525af1801561052157611529575080f35b61144d906117b2565b50fd5b503461065957806003193601126106595760025460405160089190911c6001600160a01b03168152602090f35b503461065957806003193601126106595761157b611984565b8080808060018060a01b03815416479082821561159c575bf1156109ff5780f35b506108fc611593565b50346106595760203660031901126106595760209060ff906040906001600160a01b036115d061176e565b168152600a84522054166040519015158152f35b50346106595780600319360112610659576115fd611984565b60025460ff81161561163d5760ff19166002557f5db9ee0a495bf2e6ff9c91a7834c1ba4fdd244a5e8aa4e537bd38aeae4b073aa6020604051338152a180f35b604051638dfc202b60e01b8152600490fd5b50346106595780600319360112610659576040517f00000000000000000000000000000000000000000000000000000000000000006001600160a01b03168152602090f35b50346106595780600319360112610659576040517f00000000000000000000000000000000000000000000000000000000000000006001600160a01b03168152602090f35b5034610659576020366003190112610659576116f3611984565b60043560035580f35b50346106595760403660031901126106595761171661176e565b6001600160a01b03168152600760205260408120805460243592908310156106595760206117448484611784565b90546040519160031b1c8152f35b905034610d815781600319360112610d81576020906003548152f35b600435906001600160a01b0382168203610d7c57565b805482101561179c5760005260206000200190600090565b634e487b7160e01b600052603260045260246000fd5b67ffffffffffffffff811161063257604052565b610100810190811067ffffffffffffffff82111761063257604052565b90601f8019910116810190811067ffffffffffffffff82111761063257604052565b81601f82011215610d7c5780359067ffffffffffffffff8211610632576040519261183a601f8401601f1916602001856117e3565b82845260208383010111610d7c57816000926020809301838601378301015290565b60005b83811061186f5750506000910152565b818101518382015260200161185f565b906020916118988151809281855285808601910161185c565b601f01601f1916010190565b90600182811c921680156118d4575b60208310146118be57565b634e487b7160e01b600052602260045260246000fd5b91607f16916118b3565b90604051918260008254926118f2846118a4565b908184526001948581169081600014611961575060011461191e575b505061191c925003836117e3565b565b9093915060005260209081600020936000915b81831061194957505061191c9350820101388061190e565b85548884018501529485019487945091830191611931565b91505061191c94506020925060ff191682840152151560051b820101388061190e565b6000546001600160a01b0316330361199857565b60405163118cdaa760e01b8152336004820152602490fd5b60001981146119bf5760010190565b634e487b7160e01b600052601160045260246000fd5b919082039182116119bf57565b60ff600254166119ee57565b60405163d93c066560e01b8152600490fd5b15611a0757565b60405162461bcd60e51b815260206004820152601c60248201527f556e617574686f72697a65642063616c6c6261636b2073656e646572000000006044820152606490fd5b15611a5357565b60405162461bcd60e51b815260206004820152601960248201527f5265717565737420616c726561647920636f6d706c65746564000000000000006044820152606490fd5b15611a9f57565b60405162461bcd60e51b815260206004820152600f60248201526e125b9d985b1a59081c995c5d595cdd608a1b6044820152606490fd5b90604051611ae3816117c6565b82546001600160a01b0316815291829060e090600790611b05600182016118de565b6020850152611b16600282016118de565b604085015260ff600382015416151560608501526004810154608085015260ff600582015416151560a0850152611b4f600682016118de565b60c08501520154910152565b6001600160a01b03166000908152600960205260409020546201518042049003611b9957611b966005546008602052604060002054906119d5565b90565b6005549056fea2646970667358221220a99c09bf35f4b649ccc47fb37d128f051319313fcc9969ebba183612c6c1b35f64736f6c63430008140033",
  "linkReferences": {},
  "deployedLinkReferences": {}
}