{
  "_format": "hh-sol-artifact-1",
  "contractName": "HiBeatsNFT",
  "sourceName": "contracts/HiBeatsNFT.sol",
  "abi": [
    {
      "inputs": [
        {
          "internalType": "address",
          "name": "initialOwner",
          "type": "address"
        }
      ],
      "stateMutability": "nonpayable",
      "type": "constructor"
    },
    {
      "inputs": [
        {
          "internalType": "address",
          "name": "sender",
          "type": "address"
        },
        {
          "internalType": "uint256",
          "name": "tokenId",
          "type": "uint256"
        },
        {
          "internalType": "address",
          "name": "owner",
          "type": "address"
        }
      ],
      "name": "ERC721IncorrectOwner",
      "type": "error"
    },
    {
      "inputs": [
        {
          "internalType": "address",
          "name": "operator",
          "type": "address"
        },
        {
          "internalType": "uint256",
          "name": "tokenId",
          "type": "uint256"
        }
      ],
      "name": "ERC721InsufficientApproval",
      "type": "error"
    },
    {
      "inputs": [
        {
          "internalType": "address",
          "name": "approver",
          "type": "address"
        }
      ],
      "name": "ERC721InvalidApprover",
      "type": "error"
    },
    {
      "inputs": [
        {
          "internalType": "address",
          "name": "operator",
          "type": "address"
        }
      ],
      "name": "ERC721InvalidOperator",
      "type": "error"
    },
    {
      "inputs": [
        {
          "internalType": "address",
          "name": "owner",
          "type": "address"
        }
      ],
      "name": "ERC721InvalidOwner",
      "type": "error"
    },
    {
      "inputs": [
        {
          "internalType": "address",
          "name": "receiver",
          "type": "address"
        }
      ],
      "name": "ERC721InvalidReceiver",
      "type": "error"
    },
    {
      "inputs": [
        {
          "internalType": "address",
          "name": "sender",
          "type": "address"
        }
      ],
      "name": "ERC721InvalidSender",
      "type": "error"
    },
    {
      "inputs": [
        {
          "internalType": "uint256",
          "name": "tokenId",
          "type": "uint256"
        }
      ],
      "name": "ERC721NonexistentToken",
      "type": "error"
    },
    {
      "inputs": [],
      "name": "EnforcedPause",
      "type": "error"
    },
    {
      "inputs": [],
      "name": "ExpectedPause",
      "type": "error"
    },
    {
      "inputs": [
        {
          "internalType": "address",
          "name": "owner",
          "type": "address"
        }
      ],
      "name": "OwnableInvalidOwner",
      "type": "error"
    },
    {
      "inputs": [
        {
          "internalType": "address",
          "name": "account",
          "type": "address"
        }
      ],
      "name": "OwnableUnauthorizedAccount",
      "type": "error"
    },
    {
      "inputs": [],
      "name": "ReentrancyGuardReentrantCall",
      "type": "error"
    },
    {
      "anonymous": false,
      "inputs": [
        {
          "indexed": true,
          "internalType": "address",
          "name": "owner",
          "type": "address"
        },
        {
          "indexed": true,
          "internalType": "address",
          "name": "approved",
          "type": "address"
        },
        {
          "indexed": true,
          "internalType": "uint256",
          "name": "tokenId",
          "type": "uint256"
        }
      ],
      "name": "Approval",
      "type": "event"
    },
    {
      "anonymous": false,
      "inputs": [
        {
          "indexed": true,
          "internalType": "address",
          "name": "owner",
          "type": "address"
        },
        {
          "indexed": true,
          "internalType": "address",
          "name": "operator",
          "type": "address"
        },
        {
          "indexed": false,
          "internalType": "bool",
          "name": "approved",
          "type": "bool"
        }
      ],
      "name": "ApprovalForAll",
      "type": "event"
    },
    {
      "anonymous": false,
      "inputs": [
        {
          "indexed": false,
          "internalType": "uint256",
          "name": "_fromTokenId",
          "type": "uint256"
        },
        {
          "indexed": false,
          "internalType": "uint256",
          "name": "_toTokenId",
          "type": "uint256"
        }
      ],
      "name": "BatchMetadataUpdate",
      "type": "event"
    },
    {
      "anonymous": false,
      "inputs": [
        {
          "indexed": true,
          "internalType": "address",
          "name": "creator",
          "type": "address"
        },
        {
          "indexed": false,
          "internalType": "bool",
          "name": "authorized",
          "type": "bool"
        }
      ],
      "name": "CreatorAuthorized",
      "type": "event"
    },
    {
      "anonymous": false,
      "inputs": [
        {
          "indexed": false,
          "internalType": "uint256",
          "name": "_tokenId",
          "type": "uint256"
        }
      ],
      "name": "MetadataUpdate",
      "type": "event"
    },
    {
      "anonymous": false,
      "inputs": [
        {
          "indexed": false,
          "internalType": "uint256",
          "name": "newFee",
          "type": "uint256"
        }
      ],
      "name": "MintingFeeUpdated",
      "type": "event"
    },
    {
      "anonymous": false,
      "inputs": [
        {
          "indexed": true,
          "internalType": "address",
          "name": "previousOwner",
          "type": "address"
        },
        {
          "indexed": true,
          "internalType": "address",
          "name": "newOwner",
          "type": "address"
        }
      ],
      "name": "OwnershipTransferred",
      "type": "event"
    },
    {
      "anonymous": false,
      "inputs": [
        {
          "indexed": false,
          "internalType": "address",
          "name": "account",
          "type": "address"
        }
      ],
      "name": "Paused",
      "type": "event"
    },
    {
      "anonymous": false,
      "inputs": [
        {
          "indexed": true,
          "internalType": "uint256",
          "name": "tokenId",
          "type": "uint256"
        },
        {
          "indexed": false,
          "internalType": "uint256",
          "name": "newRate",
          "type": "uint256"
        }
      ],
      "name": "RoyaltyRateUpdated",
      "type": "event"
    },
    {
      "anonymous": false,
      "inputs": [
        {
          "indexed": true,
          "internalType": "uint256",
          "name": "tokenId",
          "type": "uint256"
        },
        {
          "indexed": true,
          "internalType": "address",
          "name": "creator",
          "type": "address"
        },
        {
          "indexed": false,
          "internalType": "string",
          "name": "sunoId",
          "type": "string"
        },
        {
          "indexed": false,
          "internalType": "string",
          "name": "taskId",
          "type": "string"
        },
        {
          "indexed": false,
          "internalType": "string",
          "name": "genre",
          "type": "string"
        },
        {
          "indexed": false,
          "internalType": "uint256",
          "name": "duration",
          "type": "uint256"
        },
        {
          "indexed": false,
          "internalType": "string",
          "name": "prompt",
          "type": "string"
        }
      ],
      "name": "TrackMinted",
      "type": "event"
    },
    {
      "anonymous": false,
      "inputs": [
        {
          "indexed": true,
          "internalType": "address",
          "name": "from",
          "type": "address"
        },
        {
          "indexed": true,
          "internalType": "address",
          "name": "to",
          "type": "address"
        },
        {
          "indexed": true,
          "internalType": "uint256",
          "name": "tokenId",
          "type": "uint256"
        }
      ],
      "name": "Transfer",
      "type": "event"
    },
    {
      "anonymous": false,
      "inputs": [
        {
          "indexed": false,
          "internalType": "address",
          "name": "account",
          "type": "address"
        }
      ],
      "name": "Unpaused",
      "type": "event"
    },
    {
      "inputs": [],
      "name": "MAX_ROYALTY_RATE",
      "outputs": [
        {
          "internalType": "uint256",
          "name": "",
          "type": "uint256"
        }
      ],
      "stateMutability": "view",
      "type": "function"
    },
    {
      "inputs": [
        {
          "internalType": "uint256",
          "name": "",
          "type": "uint256"
        }
      ],
      "name": "allTokenIds",
      "outputs": [
        {
          "internalType": "uint256",
          "name": "",
          "type": "uint256"
        }
      ],
      "stateMutability": "view",
      "type": "function"
    },
    {
      "inputs": [
        {
          "internalType": "address",
          "name": "to",
          "type": "address"
        },
        {
          "internalType": "uint256",
          "name": "tokenId",
          "type": "uint256"
        }
      ],
      "name": "approve",
      "outputs": [],
      "stateMutability": "nonpayable",
      "type": "function"
    },
    {
      "inputs": [
        {
          "internalType": "address",
          "name": "",
          "type": "address"
        }
      ],
      "name": "authorizedCreators",
      "outputs": [
        {
          "internalType": "bool",
          "name": "",
          "type": "bool"
        }
      ],
      "stateMutability": "view",
      "type": "function"
    },
    {
      "inputs": [
        {
          "internalType": "address",
          "name": "owner",
          "type": "address"
        }
      ],
      "name": "balanceOf",
      "outputs": [
        {
          "internalType": "uint256",
          "name": "",
          "type": "uint256"
        }
      ],
      "stateMutability": "view",
      "type": "function"
    },
    {
      "inputs": [
        {
          "internalType": "address",
          "name": "to",
          "type": "address"
        },
        {
          "internalType": "string[]",
          "name": "tokenURIs",
          "type": "string[]"
        },
        {
          "internalType": "string[]",
          "name": "sunoIds",
          "type": "string[]"
        },
        {
          "internalType": "string[]",
          "name": "taskIds",
          "type": "string[]"
        },
        {
          "internalType": "string[]",
          "name": "genres",
          "type": "string[]"
        },
        {
          "internalType": "uint256[]",
          "name": "durations",
          "type": "uint256[]"
        },
        {
          "internalType": "string[]",
          "name": "modelsUsed",
          "type": "string[]"
        },
        {
          "internalType": "bool[]",
          "name": "isRemixable",
          "type": "bool[]"
        },
        {
          "internalType": "uint256[]",
          "name": "royaltyRates",
          "type": "uint256[]"
        },
        {
          "internalType": "string[]",
          "name": "prompts",
          "type": "string[]"
        },
        {
          "internalType": "string[]",
          "name": "tags",
          "type": "string[]"
        },
        {
          "internalType": "uint256[]",
          "name": "sunoCreatedAts",
          "type": "uint256[]"
        }
      ],
      "name": "batchMintTracks",
      "outputs": [],
      "stateMutability": "payable",
      "type": "function"
    },
    {
      "inputs": [
        {
          "internalType": "uint256",
          "name": "tokenId",
          "type": "uint256"
        }
      ],
      "name": "burn",
      "outputs": [],
      "stateMutability": "nonpayable",
      "type": "function"
    },
    {
      "inputs": [
        {
          "internalType": "uint256",
          "name": "tokenId",
          "type": "uint256"
        }
      ],
      "name": "exists",
      "outputs": [
        {
          "internalType": "bool",
          "name": "",
          "type": "bool"
        }
      ],
      "stateMutability": "view",
      "type": "function"
    },
    {
      "inputs": [
        {
          "internalType": "uint256",
          "name": "offset",
          "type": "uint256"
        },
        {
          "internalType": "uint256",
          "name": "limit",
          "type": "uint256"
        }
      ],
      "name": "getAllTracks",
      "outputs": [
        {
          "internalType": "uint256[]",
          "name": "tokenIds",
          "type": "uint256[]"
        },
        {
          "components": [
            {
              "internalType": "string",
              "name": "sunoId",
              "type": "string"
            },
            {
              "internalType": "string",
              "name": "taskId",
              "type": "string"
            },
            {
              "internalType": "string",
              "name": "genre",
              "type": "string"
            },
            {
              "internalType": "uint256",
              "name": "duration",
              "type": "uint256"
            },
            {
              "internalType": "address",
              "name": "creator",
              "type": "address"
            },
            {
              "internalType": "uint256",
              "name": "createdAt",
              "type": "uint256"
            },
            {
              "internalType": "string",
              "name": "modelUsed",
              "type": "string"
            },
            {
              "internalType": "bool",
              "name": "isRemixable",
              "type": "bool"
            },
            {
              "internalType": "uint256",
              "name": "royaltyRate",
              "type": "uint256"
            },
            {
              "internalType": "string",
              "name": "prompt",
              "type": "string"
            },
            {
              "internalType": "string",
              "name": "tags",
              "type": "string"
            },
            {
              "internalType": "uint256",
              "name": "sunoCreatedAt",
              "type": "uint256"
            }
          ],
          "internalType": "struct HiBeatsNFT.TrackInfo[]",
          "name": "tracks",
          "type": "tuple[]"
        }
      ],
      "stateMutability": "view",
      "type": "function"
    },
    {
      "inputs": [
        {
          "internalType": "uint256",
          "name": "tokenId",
          "type": "uint256"
        }
      ],
      "name": "getApproved",
      "outputs": [
        {
          "internalType": "address",
          "name": "",
          "type": "address"
        }
      ],
      "stateMutability": "view",
      "type": "function"
    },
    {
      "inputs": [
        {
          "internalType": "string",
          "name": "sunoId",
          "type": "string"
        }
      ],
      "name": "getTokenIdBySunoId",
      "outputs": [
        {
          "internalType": "uint256",
          "name": "",
          "type": "uint256"
        }
      ],
      "stateMutability": "view",
      "type": "function"
    },
    {
      "inputs": [],
      "name": "getTotalTracksCount",
      "outputs": [
        {
          "internalType": "uint256",
          "name": "",
          "type": "uint256"
        }
      ],
      "stateMutability": "view",
      "type": "function"
    },
    {
      "inputs": [
        {
          "internalType": "uint256",
          "name": "tokenId",
          "type": "uint256"
        }
      ],
      "name": "getTrackInfo",
      "outputs": [
        {
          "components": [
            {
              "internalType": "string",
              "name": "sunoId",
              "type": "string"
            },
            {
              "internalType": "string",
              "name": "taskId",
              "type": "string"
            },
            {
              "internalType": "string",
              "name": "genre",
              "type": "string"
            },
            {
              "internalType": "uint256",
              "name": "duration",
              "type": "uint256"
            },
            {
              "internalType": "address",
              "name": "creator",
              "type": "address"
            },
            {
              "internalType": "uint256",
              "name": "createdAt",
              "type": "uint256"
            },
            {
              "internalType": "string",
              "name": "modelUsed",
              "type": "string"
            },
            {
              "internalType": "bool",
              "name": "isRemixable",
              "type": "bool"
            },
            {
              "internalType": "uint256",
              "name": "royaltyRate",
              "type": "uint256"
            },
            {
              "internalType": "string",
              "name": "prompt",
              "type": "string"
            },
            {
              "internalType": "string",
              "name": "tags",
              "type": "string"
            },
            {
              "internalType": "uint256",
              "name": "sunoCreatedAt",
              "type": "uint256"
            }
          ],
          "internalType": "struct HiBeatsNFT.TrackInfo",
          "name": "",
          "type": "tuple"
        }
      ],
      "stateMutability": "view",
      "type": "function"
    },
    {
      "inputs": [
        {
          "internalType": "string",
          "name": "genre",
          "type": "string"
        },
        {
          "internalType": "uint256",
          "name": "limit",
          "type": "uint256"
        }
      ],
      "name": "getTracksByGenre",
      "outputs": [
        {
          "internalType": "uint256[]",
          "name": "tokenIds",
          "type": "uint256[]"
        },
        {
          "components": [
            {
              "internalType": "string",
              "name": "sunoId",
              "type": "string"
            },
            {
              "internalType": "string",
              "name": "taskId",
              "type": "string"
            },
            {
              "internalType": "string",
              "name": "genre",
              "type": "string"
            },
            {
              "internalType": "uint256",
              "name": "duration",
              "type": "uint256"
            },
            {
              "internalType": "address",
              "name": "creator",
              "type": "address"
            },
            {
              "internalType": "uint256",
              "name": "createdAt",
              "type": "uint256"
            },
            {
              "internalType": "string",
              "name": "modelUsed",
              "type": "string"
            },
            {
              "internalType": "bool",
              "name": "isRemixable",
              "type": "bool"
            },
            {
              "internalType": "uint256",
              "name": "royaltyRate",
              "type": "uint256"
            },
            {
              "internalType": "string",
              "name": "prompt",
              "type": "string"
            },
            {
              "internalType": "string",
              "name": "tags",
              "type": "string"
            },
            {
              "internalType": "uint256",
              "name": "sunoCreatedAt",
              "type": "uint256"
            }
          ],
          "internalType": "struct HiBeatsNFT.TrackInfo[]",
          "name": "tracks",
          "type": "tuple[]"
        }
      ],
      "stateMutability": "view",
      "type": "function"
    },
    {
      "inputs": [
        {
          "internalType": "address",
          "name": "user",
          "type": "address"
        }
      ],
      "name": "getUserLibrary",
      "outputs": [
        {
          "internalType": "uint256[]",
          "name": "",
          "type": "uint256[]"
        }
      ],
      "stateMutability": "view",
      "type": "function"
    },
    {
      "inputs": [
        {
          "internalType": "address",
          "name": "user",
          "type": "address"
        }
      ],
      "name": "getUserLibraryCount",
      "outputs": [
        {
          "internalType": "uint256",
          "name": "",
          "type": "uint256"
        }
      ],
      "stateMutability": "view",
      "type": "function"
    },
    {
      "inputs": [
        {
          "internalType": "address",
          "name": "user",
          "type": "address"
        }
      ],
      "name": "getUserLibraryWithMetadata",
      "outputs": [
        {
          "internalType": "uint256[]",
          "name": "tokenIds",
          "type": "uint256[]"
        },
        {
          "components": [
            {
              "internalType": "string",
              "name": "sunoId",
              "type": "string"
            },
            {
              "internalType": "string",
              "name": "taskId",
              "type": "string"
            },
            {
              "internalType": "string",
              "name": "genre",
              "type": "string"
            },
            {
              "internalType": "uint256",
              "name": "duration",
              "type": "uint256"
            },
            {
              "internalType": "address",
              "name": "creator",
              "type": "address"
            },
            {
              "internalType": "uint256",
              "name": "createdAt",
              "type": "uint256"
            },
            {
              "internalType": "string",
              "name": "modelUsed",
              "type": "string"
            },
            {
              "internalType": "bool",
              "name": "isRemixable",
              "type": "bool"
            },
            {
              "internalType": "uint256",
              "name": "royaltyRate",
              "type": "uint256"
            },
            {
              "internalType": "string",
              "name": "prompt",
              "type": "string"
            },
            {
              "internalType": "string",
              "name": "tags",
              "type": "string"
            },
            {
              "internalType": "uint256",
              "name": "sunoCreatedAt",
              "type": "uint256"
            }
          ],
          "internalType": "struct HiBeatsNFT.TrackInfo[]",
          "name": "tracks",
          "type": "tuple[]"
        }
      ],
      "stateMutability": "view",
      "type": "function"
    },
    {
      "inputs": [
        {
          "internalType": "address",
          "name": "owner",
          "type": "address"
        },
        {
          "internalType": "address",
          "name": "operator",
          "type": "address"
        }
      ],
      "name": "isApprovedForAll",
      "outputs": [
        {
          "internalType": "bool",
          "name": "",
          "type": "bool"
        }
      ],
      "stateMutability": "view",
      "type": "function"
    },
    {
      "inputs": [
        {
          "internalType": "address",
          "name": "to",
          "type": "address"
        },
        {
          "internalType": "string",
          "name": "tokenMetadataURI",
          "type": "string"
        },
        {
          "internalType": "string",
          "name": "sunoId",
          "type": "string"
        },
        {
          "internalType": "string",
          "name": "taskId",
          "type": "string"
        },
        {
          "internalType": "string",
          "name": "genre",
          "type": "string"
        },
        {
          "internalType": "uint256",
          "name": "duration",
          "type": "uint256"
        },
        {
          "internalType": "string",
          "name": "modelUsed",
          "type": "string"
        },
        {
          "internalType": "bool",
          "name": "isRemixable",
          "type": "bool"
        },
        {
          "internalType": "uint256",
          "name": "royaltyRate",
          "type": "uint256"
        },
        {
          "internalType": "string",
          "name": "prompt",
          "type": "string"
        },
        {
          "internalType": "string",
          "name": "tags",
          "type": "string"
        },
        {
          "internalType": "uint256",
          "name": "sunoCreatedAt",
          "type": "uint256"
        }
      ],
      "name": "mintTrack",
      "outputs": [],
      "stateMutability": "payable",
      "type": "function"
    },
    {
      "inputs": [],
      "name": "mintingFee",
      "outputs": [
        {
          "internalType": "uint256",
          "name": "",
          "type": "uint256"
        }
      ],
      "stateMutability": "view",
      "type": "function"
    },
    {
      "inputs": [],
      "name": "name",
      "outputs": [
        {
          "internalType": "string",
          "name": "",
          "type": "string"
        }
      ],
      "stateMutability": "view",
      "type": "function"
    },
    {
      "inputs": [],
      "name": "owner",
      "outputs": [
        {
          "internalType": "address",
          "name": "",
          "type": "address"
        }
      ],
      "stateMutability": "view",
      "type": "function"
    },
    {
      "inputs": [
        {
          "internalType": "uint256",
          "name": "tokenId",
          "type": "uint256"
        }
      ],
      "name": "ownerOf",
      "outputs": [
        {
          "internalType": "address",
          "name": "",
          "type": "address"
        }
      ],
      "stateMutability": "view",
      "type": "function"
    },
    {
      "inputs": [],
      "name": "pause",
      "outputs": [],
      "stateMutability": "nonpayable",
      "type": "function"
    },
    {
      "inputs": [],
      "name": "paused",
      "outputs": [
        {
          "internalType": "bool",
          "name": "",
          "type": "bool"
        }
      ],
      "stateMutability": "view",
      "type": "function"
    },
    {
      "inputs": [],
      "name": "renounceOwnership",
      "outputs": [],
      "stateMutability": "nonpayable",
      "type": "function"
    },
    {
      "inputs": [
        {
          "internalType": "address",
          "name": "from",
          "type": "address"
        },
        {
          "internalType": "address",
          "name": "to",
          "type": "address"
        },
        {
          "internalType": "uint256",
          "name": "tokenId",
          "type": "uint256"
        }
      ],
      "name": "safeTransferFrom",
      "outputs": [],
      "stateMutability": "nonpayable",
      "type": "function"
    },
    {
      "inputs": [
        {
          "internalType": "address",
          "name": "from",
          "type": "address"
        },
        {
          "internalType": "address",
          "name": "to",
          "type": "address"
        },
        {
          "internalType": "uint256",
          "name": "tokenId",
          "type": "uint256"
        },
        {
          "internalType": "bytes",
          "name": "data",
          "type": "bytes"
        }
      ],
      "name": "safeTransferFrom",
      "outputs": [],
      "stateMutability": "nonpayable",
      "type": "function"
    },
    {
      "inputs": [
        {
          "internalType": "address",
          "name": "operator",
          "type": "address"
        },
        {
          "internalType": "bool",
          "name": "approved",
          "type": "bool"
        }
      ],
      "name": "setApprovalForAll",
      "outputs": [],
      "stateMutability": "nonpayable",
      "type": "function"
    },
    {
      "inputs": [
        {
          "internalType": "address",
          "name": "creator",
          "type": "address"
        },
        {
          "internalType": "bool",
          "name": "authorized",
          "type": "bool"
        }
      ],
      "name": "setAuthorizedCreator",
      "outputs": [],
      "stateMutability": "nonpayable",
      "type": "function"
    },
    {
      "inputs": [
        {
          "internalType": "uint256",
          "name": "newFee",
          "type": "uint256"
        }
      ],
      "name": "setMintingFee",
      "outputs": [],
      "stateMutability": "nonpayable",
      "type": "function"
    },
    {
      "inputs": [
        {
          "internalType": "string",
          "name": "",
          "type": "string"
        }
      ],
      "name": "sunoIdToTokenId",
      "outputs": [
        {
          "internalType": "uint256",
          "name": "",
          "type": "uint256"
        }
      ],
      "stateMutability": "view",
      "type": "function"
    },
    {
      "inputs": [
        {
          "internalType": "bytes4",
          "name": "interfaceId",
          "type": "bytes4"
        }
      ],
      "name": "supportsInterface",
      "outputs": [
        {
          "internalType": "bool",
          "name": "",
          "type": "bool"
        }
      ],
      "stateMutability": "view",
      "type": "function"
    },
    {
      "inputs": [],
      "name": "symbol",
      "outputs": [
        {
          "internalType": "string",
          "name": "",
          "type": "string"
        }
      ],
      "stateMutability": "view",
      "type": "function"
    },
    {
      "inputs": [
        {
          "internalType": "uint256",
          "name": "tokenId",
          "type": "uint256"
        }
      ],
      "name": "tokenURI",
      "outputs": [
        {
          "internalType": "string",
          "name": "",
          "type": "string"
        }
      ],
      "stateMutability": "view",
      "type": "function"
    },
    {
      "inputs": [],
      "name": "totalSupply",
      "outputs": [
        {
          "internalType": "uint256",
          "name": "",
          "type": "uint256"
        }
      ],
      "stateMutability": "view",
      "type": "function"
    },
    {
      "inputs": [
        {
          "internalType": "string",
          "name": "sunoId",
          "type": "string"
        }
      ],
      "name": "trackExists",
      "outputs": [
        {
          "internalType": "bool",
          "name": "",
          "type": "bool"
        }
      ],
      "stateMutability": "view",
      "type": "function"
    },
    {
      "inputs": [
        {
          "internalType": "uint256",
          "name": "",
          "type": "uint256"
        }
      ],
      "name": "trackInfo",
      "outputs": [
        {
          "internalType": "string",
          "name": "sunoId",
          "type": "string"
        },
        {
          "internalType": "string",
          "name": "taskId",
          "type": "string"
        },
        {
          "internalType": "string",
          "name": "genre",
          "type": "string"
        },
        {
          "internalType": "uint256",
          "name": "duration",
          "type": "uint256"
        },
        {
          "internalType": "address",
          "name": "creator",
          "type": "address"
        },
        {
          "internalType": "uint256",
          "name": "createdAt",
          "type": "uint256"
        },
        {
          "internalType": "string",
          "name": "modelUsed",
          "type": "string"
        },
        {
          "internalType": "bool",
          "name": "isRemixable",
          "type": "bool"
        },
        {
          "internalType": "uint256",
          "name": "royaltyRate",
          "type": "uint256"
        },
        {
          "internalType": "string",
          "name": "prompt",
          "type": "string"
        },
        {
          "internalType": "string",
          "name": "tags",
          "type": "string"
        },
        {
          "internalType": "uint256",
          "name": "sunoCreatedAt",
          "type": "uint256"
        }
      ],
      "stateMutability": "view",
      "type": "function"
    },
    {
      "inputs": [
        {
          "internalType": "address",
          "name": "from",
          "type": "address"
        },
        {
          "internalType": "address",
          "name": "to",
          "type": "address"
        },
        {
          "internalType": "uint256",
          "name": "tokenId",
          "type": "uint256"
        }
      ],
      "name": "transferFrom",
      "outputs": [],
      "stateMutability": "nonpayable",
      "type": "function"
    },
    {
      "inputs": [
        {
          "internalType": "address",
          "name": "newOwner",
          "type": "address"
        }
      ],
      "name": "transferOwnership",
      "outputs": [],
      "stateMutability": "nonpayable",
      "type": "function"
    },
    {
      "inputs": [],
      "name": "unpause",
      "outputs": [],
      "stateMutability": "nonpayable",
      "type": "function"
    },
    {
      "inputs": [
        {
          "internalType": "uint256",
          "name": "tokenId",
          "type": "uint256"
        },
        {
          "internalType": "uint256",
          "name": "newRate",
          "type": "uint256"
        }
      ],
      "name": "updateRoyaltyRate",
      "outputs": [],
      "stateMutability": "nonpayable",
      "type": "function"
    },
    {
      "inputs": [
        {
          "internalType": "address",
          "name": "",
          "type": "address"
        },
        {
          "internalType": "uint256",
          "name": "",
          "type": "uint256"
        }
      ],
      "name": "userLibrary",
      "outputs": [
        {
          "internalType": "uint256",
          "name": "",
          "type": "uint256"
        }
      ],
      "stateMutability": "view",
      "type": "function"
    },
    {
      "inputs": [],
      "name": "withdraw",
      "outputs": [],
      "stateMutability": "nonpayable",
      "type": "function"
    }
  ],
  "bytecode": "0x608034620003db576001600160401b0390601f90601f1990620046ec388190038481018416830186811184821017620003c557839282916040528339602092839181010312620003db57516001600160a01b039485821691829003620003db5762000069620003e0565b946011865270121a5099585d1cc8135d5cda58c8139195607a1b8487015262000091620003e0565b6005815264121093919560da1b85820152865195838711620003c5576000968754986001998a81811c91168015620003ba575b89821014620003a65790818684931162000353575b508890868311600114620002f2578a92620002e6575b5050600019600383901b1c191690891b1787555b8151938411620002d25787548881811c91168015620002c7575b87821014620002b35790818486959493116200025c575b5086928411600114620001fb57508692620001ef575b5050600019600383901b1c191690851b1784555b8015620001d6576040929181600c92600754978160018060a01b03198a1617600755865198167f8be0079c531659141344cd1fd0a4f28419497f9722a3daafe3b4186f6b6457e08680a3856008558560095566038d7ea4c68000600f55835252209060ff198254161790556142eb9081620004018239f35b604051631e4fbdf760e01b815260048101849052602490fd5b0151905038806200014a565b88885286882089959093929116885b888282106200024557505084116200022b575b505050811b0184556200015e565b015160001960f88460031b161c191690553880806200021d565b8385015186558b979095019493840193016200020a565b90919293508888528688208480870160051c820192898810620002a9575b9187968c92969594930160051c01915b8281106200029a57505062000134565b8a81558796508b91016200028a565b925081926200027a565b634e487b7160e01b88526022600452602488fd5b90607f16906200011d565b634e487b7160e01b87526041600452602487fd5b015190503880620000ef565b90848c9416918b80528a8c20928c5b8c8282106200033c575050841162000322575b505050811b01875562000103565b015160001960f88460031b161c1916905538808062000314565b8385015186558f9790950194938401930162000301565b909150898052888a208680850160051c8201928b86106200039c575b918d91869594930160051c01915b8281106200038d575050620000d9565b8c81558594508d91016200037d565b925081926200036f565b634e487b7160e01b8a52602260045260248afd5b90607f1690620000c4565b634e487b7160e01b600052604160045260246000fd5b600080fd5b60408051919082016001600160401b03811183821017620003c55760405256fe61026080604052600436101561001457600080fd5b60003560e01c90816301ffc9a7146131715750806306fdde03146130ce578063081812fc14613090578063095ea7b314612fa957806318160ddd14612f7e578063238a470914612f3257806323b872dd14612f1b578063304e43dd14612cc457806335028c5514612d875780633ccfd60b14612d0d5780633d7baebd14612cc45780633f4ba83a14612c5257806342842e0e14612c2457806342966c681461287c57806343dc5f981461281e5780634f558e79146127e8578063545fbeee146127ca5780635a64ad95146127ac5780635c975abb146127865780636352211e1461275657806370a08231146126fd578063715018a6146126a057806378ae02ee1461255b57806379a753191461253e5780637ab4a953146123475780637d07b2d21461231e5780638456cb59146122bc5780638da5cb5b1461229357806395d89b41146121b45780639d993556146114f0578063a22cb46514611445578063a8e3a3fd146113ba578063b3c8f55614611235578063b5a96aeb1461114d578063b88d4fde146110e0578063c3868aa914610665578063c695502a14610626578063c87b56dd146105c3578063c8fd0cf414610589578063e1434f4e1461050b578063e985e9c5146104b5578063f1f18017146102ea578063f2fde38b146102615763f8ec2a0d1461020457600080fd5b3461025c57604036600319011261025c5761021d61323e565b6001600160a01b03166000908152600d602052604090208054602435919082101561025c5760209161024e91613620565b90546040519160031b1c8152f35b600080fd5b3461025c57602036600319011261025c5761027a61323e565b610282613752565b6001600160a01b039081169081156102d157600754826001600160601b0360a01b821617600755167f8be0079c531659141344cd1fd0a4f28419497f9722a3daafe3b4186f6b6457e0600080a3005b604051631e4fbdf760e01b815260006004820152602490fd5b3461025c5760208060031936011261025c576001600160a01b03908161030e61323e565b16600052600d8152604060002090604051808383829554938481520190600052836000209260005b8582821061049f5750505061034d925003836132d6565b61035782516141dd565b9260005b83518110156104895780610372610484928661412b565b51600052600a808552600b60406000206103a661045b604051946103958661329f565b6040516103ad816103a681886133a1565b03826132d6565b86526040516103c3816103a681600189016133a1565b8a8701526040516103db816103a681600289016133a1565b604087015260038401546060870152886004850154166080870152600584015460a0870152604051610414816103a681600689016133a1565b60c087015260ff600785015416151560e08701526008840154610100870152604051610447816103a681600989016133a1565b6101208701526040519283809286016133a1565b6101408401520154610160820152610473828861412b565b5261047e818761412b565b50613c44565b61035b565b50505061049b6040519283928361355d565b0390f35b8554845260019586019588955093019201610336565b3461025c57604036600319011261025c576104ce61323e565b6104d6613254565b9060018060a01b03809116600052600560205260406000209116600052602052602060ff604060002054166040519015158152f35b3461025c57604036600319011261025c5761052461323e565b7f9e83c683653d7d83a1491bef63f43ca382573f28a92bdf78652b6cfb73713bb8602061054f61372d565b92610558613752565b6001600160a01b03166000818152600c835260409020805460ff191660ff86151516179055926040519015158152a2005b3461025c57602036600319011261025c576001600160a01b036105aa61323e565b16600052600d6020526020604060002054604051908152f35b3461025c57602036600319011261025c576004356105e081613925565b50600052600660205261049b6103a66106036040600020604051928380926133a1565b6000604051610611816132bb565b52604051918291602083526020830190613219565b3461025c57602036600319011261025c576001600160a01b0361064761323e565b16600052600c602052602060ff604060002054166040519015158152f35b61018036600319011261025c5761067a61323e565b6024356001600160401b03811161025c57610699903690600401613349565b6044356001600160401b03811161025c576106b8903690600401613349565b6064356001600160401b03811161025c576106d7903690600401613349565b926084356001600160401b03811161025c576106f7903690600401613349565b9160c4356001600160401b03811161025c57610717903690600401613349565b9060e43594851515860361025c57610124356001600160401b03811161025c57610745903690600401613349565b92610144356001600160401b03811161025c57610766903690600401613349565b33600052600c60205260ff6040600020541680156110cc575b61078890613aae565b6107906140a3565b6107986140c4565b6001600160a01b03861615611087576107b384511515613af3565b6107bf89511515613b32565b6107e860405160208187516107d78183858c016131f6565b8101600b8152030190205415613b71565b6107f96103e8610104351115613bb4565b610807600f54341015613bf8565b6009549761081489613c44565b600955604051926108248461329f565b8584528a602085015288604085015260a435606085015260018060a01b03881660808501524260a085015260c0840152151560e083015261010435610100830152846101208301526101408201526101643561016082015286600052600a60205260406000209080518051906001600160401b038211610d005781906108aa8554613367565b601f8111611055575b50602090601f8311600114610fe957600092610fde575b50508160011b916000199060031b1c19161782555b60208101518051906001600160401b038211610d005781906109046001860154613367565b601f8111610fa9575b50602090601f8311600114610f3757600092610f2c575b50508160011b916000199060031b1c19161760018301555b60408101518051906001600160401b038211610d005781906109616002860154613367565b601f8111610ef7575b50602090601f8311600114610e8557600092610e7a575b50508160011b916000199060031b1c19161760028301555b606081015160038301556004820160018060a01b036080830151166001600160601b0360a01b82541617905560a0810151600583015560c08101518051906001600160401b038211610d005781906109f46006860154613367565b601f8111610e45575b50602090601f8311600114610dd357600092610dc8575b50508160011b916000199060031b1c19161760068301555b610a4b60e08201511515600784019060ff801983541691151516179055565b61010081015160088301556101208101518051906001600160401b038211610d00578190610a7c6009860154613367565b601f8111610d93575b50602090601f8311600114610d2157600092610d16575b50508160011b916000199060031b1c19161760098301555b6101408101518051906001600160401b038211610d0057610ad8600a850154613367565b601f8111610cc0575b50602090601f8311600114610c1c57610160610ba594847f450930c55bc9d0d12b1c9a06994ee73d02943982bcb0c054a5892ce879c5244e9c9b9a9895610bc29a9895600b95600092610c11575b50508160011b916000199060031b1c191617600a8501555b0151910155886040516020818651610b628183858b016131f6565b8101600b8152030190205560018060a01b038616600052600d602052610b8c896040600020613c8f565b610b9589613c6a565b610b9f8987613d0d565b88613f43565b6040516001600160a01b03909416979394859460a4359286613cb2565b0390a3600f54803411610bd7575b6001600855005b60008080610be6819434613d00565b818115610c08575b3390f115610bfc5780610bd0565b6040513d6000823e3d90fd5b506108fc610bee565b015190503880610b2f565b90600a850160005260206000209160005b601f1985168110610ca85750610ba594600185610bc29a9895600b957f450930c55bc9d0d12b1c9a06994ee73d02943982bcb0c054a5892ce879c5244e9f9e9d9b989561016096601f19811610610c8f575b505050811b01600a850155610b47565b015160001960f88460031b161c19169055388080610c7f565b91926020600181928685015181550194019201610c2d565b610cf090600a86016000526020600020601f850160051c81019160208610610cf6575b601f0160051c0190613c53565b8b610ae1565b9091508190610ce3565b634e487b7160e01b600052604160045260246000fd5b015190508b80610a9c565b9250600985016000526020600020906000935b601f1984168510610d78576001945083601f19811610610d5f575b505050811b016009830155610ab4565b015160001960f88460031b161c191690558b8080610d4f565b81810151835560209485019460019093019290910190610d34565b610dc290600987016000526020600020601f850160051c81019160208610610cf657601f0160051c0190613c53565b8c610a85565b015190508b80610a14565b9250600685016000526020600020906000935b601f1984168510610e2a576001945083601f19811610610e11575b505050811b016006830155610a2c565b015160001960f88460031b161c191690558b8080610e01565b81810151835560209485019460019093019290910190610de6565b610e7490600687016000526020600020601f850160051c81019160208610610cf657601f0160051c0190613c53565b8c6109fd565b015190508b80610981565b9250600285016000526020600020906000935b601f1984168510610edc576001945083601f19811610610ec3575b505050811b016002830155610999565b015160001960f88460031b161c191690558b8080610eb3565b81810151835560209485019460019093019290910190610e98565b610f2690600287016000526020600020601f850160051c81019160208610610cf657601f0160051c0190613c53565b8c61096a565b015190508b80610924565b9250600185016000526020600020906000935b601f1984168510610f8e576001945083601f19811610610f75575b505050811b01600183015561093c565b015160001960f88460031b161c191690558b8080610f65565b81810151835560209485019460019093019290910190610f4a565b610fd890600187016000526020600020601f850160051c81019160208610610cf657601f0160051c0190613c53565b8c61090d565b015190508b806108ca565b9250846000526020600020906000935b601f198416851061103a576001945083601f19811610611021575b505050811b0182556108df565b015160001960f88460031b161c191690558b8080611014565b81810151835560209485019460019093019290910190610ff9565b61108190866000526020600020601f850160051c81019160208610610cf657601f0160051c0190613c53565b8c6108b3565b60405162461bcd60e51b815260206004820152601b60248201527f43616e6e6f74206d696e7420746f207a65726f206164647265737300000000006044820152606490fd5b506007546001600160a01b0316331461077f565b3461025c57608036600319011261025c576110f961323e565b611101613254565b90604435606435926001600160401b03841161025c573660238501121561025c5761113961114b943690602481600401359101613312565b9261114583838361377e565b33613960565b005b3461025c5761115b3661373c565b6000828152600260205260409020546001600160a01b0390611180908216151561413f565b82600052600a60205280600460406000200154163314908115611227575b50156111f1576020816111d66103e87f63184c4f9f97ef6d971cc661c1863fa579c1fbf9050b40f9ebe4f97ae7da369f941115613bb4565b83600052600a825280600860406000200155604051908152a2005b60405162461bcd60e51b815260206004820152600e60248201526d139bdd08185d5d1a1bdc9a5e995960921b6044820152606490fd5b90506007541633148361119e565b3461025c576112433661373c565b600e54908183101561137e5761126d9161125e84928361422d565b90808211611376575b50613d00565b6112768161423a565b90611280816141dd565b9260005b82811061129d5750505061049b6040519283928361355d565b806112b36112ae611371938561422d565b6135d3565b9054600391821b1c806112c6848961412b565b52600052600b600a916103a661045b602094808652604060002093604051966112ee8861329f565b6040516112ff816103a6818a6133a1565b88526040519061131d826113168160018b016133a1565b03836132d6565b880152604051611334816103a68160028a016133a1565b6040880152840154606087015260018060a01b036004850154166080870152600584015460a0870152604051610414816103a681600689016133a1565b611284565b905084611267565b60405162461bcd60e51b81526020600482015260146024820152734f6666736574206f7574206f6620626f756e647360601b6044820152606490fd5b3461025c5760208060031936011261025c576001600160a01b036113dc61323e565b16600052600d8152604060002090604051808383829554938481520190600052836000209260005b8582821061142f5750505061141b925003836132d6565b61049b604051928284938452830190613529565b8554845260019586019588955093019201611404565b3461025c57604036600319011261025c5761145e61323e565b61146661372d565b6001600160a01b039091169081156114d7573360005260056020526040600020826000526020526114a78160406000209060ff801983541691151516179055565b60405190151581527f17307eab39ab6107e8899845ad3d59bd9653f200f220920489ca2b5937696c3160203392a3005b604051630b61174360e31b815260048101839052602490fd5b61018036600319011261025c5761150561323e565b60e0526024356001600160401b03811161025c5761152790369060040161364f565b610140526044356001600160401b03811161025c5761154a90369060040161364f565b610120526064356001600160401b03811161025c5761156d90369060040161364f565b610180526084356001600160401b03811161025c5761159090369060040161364f565b6102005260a4356001600160401b03811161025c576115b39036906004016136cf565b6101c05260c4356001600160401b03811161025c576115d690369060040161364f565b6102205260e4356001600160401b03811161025c573660238201121561025c5780600401359061161561160883613638565b604051806101a0526132d6565b816101a05152602460206101a051019260051b8201019036821161025c57602401915b81831061219b57610104356001600160401b03811161025c5761165f9036906004016136cf565b61016052610124356001600160401b03811161025c5761168390369060040161364f565b60a0526001600160401b03610144351161025c576116a7366101443560040161364f565b610100526001600160401b03610164351161025c576116cc36610164356004016136cf565b6101e05233600052600c60205260ff604060002054168015612187575b6116f290613aae565b6116fa6140a3565b6117026140c4565b61171561014051516101205151146140e7565b61172861012051516101805151146140e7565b61173b61018051516102005151146140e7565b61174e61020051516101c05151146140e7565b6117616101c051516102205151146140e7565b61177461022051516101a05151146140e7565b6117876101a051516101605151146140e7565b611799610160515160a05151146140e7565b6117ab60a051516101005151146140e7565b6117be61010051516101e05151146140e7565b600f548060c05261014051519081810290808204831490151715612171576117e890341015613bf8565b60006080525b61014051516080519081101561215e5761180e611817916101205161412b565b51511515613af3565b6118326118296080516101805161412b565b51511515613b32565b61185461184d6118476080516101205161412b565b51613437565b5415613b71565b6118716103e86118696080516101605161412b565b511115613bb4565b6118816009548061024052613c44565b6009556118936080516101205161412b565b51906118a46080516101805161412b565b516118b46080516102005161412b565b516118c46080516101c05161412b565b516118d46080516102205161412b565b516118e46080516101a05161412b565b5115156118f66080516101605161412b565b519161190660805160a05161412b565b51936119176080516101005161412b565b51956119286080516101e05161412b565b51976040519a6119378c61329f565b8b5260208b015260408a0152606089015260018060a01b0360e0511660808901524260a089015260c088015260e087015261010086015261012085015261014084015261016083015261024051600052600a602052604060002082518051906001600160401b038211610d005781906119b08454613367565b601f811161212c575b50602090601f83116001146120c7576000926120bc575b50508160011b916000199060031b1c19161781555b60208301518051906001600160401b038211610d00578190611a0a6001850154613367565b601f8111612087575b50602090601f83116001146120155760009261200a575b50508160011b916000199060031b1c19161760018201555b60408301518051906001600160401b038211610d00578190611a676002850154613367565b601f8111611fd5575b50602090601f8311600114611f6357600092611f58575b50508160011b916000199060031b1c19161760028201555b606083015160038201556004810160018060a01b036080850151166001600160601b0360a01b82541617905560a0830151600582015560c08301519283516001600160401b038111610d0057611af86006840154613367565b601f8111611f23575b506020601f8211600114611eb4578192939495600092611ea9575b50508160011b916000199060031b1c19161760068301555b611b5360e08201511515600784019060ff801983541691151516179055565b61010081015160088301556101208101518051906001600160401b038211610d00578190611b846009860154613367565b601f8111611e74575b50602090601f8311600114611e0257600092611df7575b50508160011b916000199060031b1c19161760098301555b6101408101518051906001600160401b038211610d0057611be0600a850154613367565b601f8111611dc2575b50602090601f8311600114611d4c579180600b949261016094600092611d41575b50508160011b916000199060031b1c191617600a8501555b015191015561024051611c3d6118476080516101205161412b565b5560018060a01b0360e05116600052600d602052611c62610240516040600020613c8f565b611c6e61024051613c6a565b611c7d6102405160e051613d0d565b611c99611c8f6080516101405161412b565b5161024051613f43565b611ca86080516101205161412b565b51611cb86080516101805161412b565b51907f450930c55bc9d0d12b1c9a06994ee73d02943982bcb0c054a5892ce879c5244e611cea6080516102005161412b565b51611cfa6080516101c05161412b565b5190611d2b611d0d60805160a05161412b565b5160405193849360018060a01b0360e0511698610240519886613cb2565b0390a3611d39608051613c44565b6080526117ee565b015190508780611c0a565b90600a850160005260206000209160005b601f1985168110611daa575092600b94926001926101609583601f19811610611d91575b505050811b01600a850155611c22565b015160001960f88460031b161c19169055878080611d81565b91926020600181928685015181550194019201611d5d565b611df190600a86016000526020600020601f850160051c81019160208610610cf657601f0160051c0190613c53565b85611be9565b015190508580611ba4565b9250600985016000526020600020906000935b601f1984168510611e59576001945083601f19811610611e40575b505050811b016009830155611bbc565b015160001960f88460031b161c19169055858080611e30565b81810151835560209485019460019093019290910190611e15565b611ea390600987016000526020600020601f850160051c81019160208610610cf657601f0160051c0190613c53565b86611b8d565b015190508580611b1c565b6006840160005260206000209060005b601f1984168110611f0b575060019394959683601f19811610611ef2575b505050811b016006830155611b34565b015160001960f88460031b161c19169055858080611ee2565b9091602060018192858b015181550193019101611ec4565b611f5290600685016000526020600020601f840160051c81019160208510610cf657601f0160051c0190613c53565b85611b01565b015190508580611a87565b9250600284016000526020600020906000935b601f1984168510611fba576001945083601f19811610611fa1575b505050811b016002820155611a9f565b015160001960f88460031b161c19169055858080611f91565b81810151835560209485019460019093019290910190611f76565b61200490600286016000526020600020601f850160051c81019160208610610cf657601f0160051c0190613c53565b86611a70565b015190508580611a2a565b9250600184016000526020600020906000935b601f198416851061206c576001945083601f19811610612053575b505050811b016001820155611a42565b015160001960f88460031b161c19169055858080612043565b81810151835560209485019460019093019290910190612028565b6120b690600186016000526020600020601f850160051c81019160208610610cf657601f0160051c0190613c53565b86611a13565b0151905085806119d0565b60008581526020812093505b601f1985168110612114575083601f198116106120fb575b505050600190811b0181556119e5565b015160001960f88460031b161c191690558480806120eb565b919260206001819286850151815501940192016120d3565b61215890856000526020600020601f850160051c81019160208610610cf657601f0160051c0190613c53565b866119b9565b5060c05102803411610bd7576001600855005b634e487b7160e01b600052601160045260246000fd5b506007546001600160a01b031633146116e9565b8235801515810361025c57815260209283019201611638565b3461025c57600036600319011261025c57604051600060018054906121d882613367565b8085529181811690811561226c5750600114612213575b61049b846121ff818603826132d6565b604051918291602083526020830190613219565b600081815292507fb10e2d527612073b26eecdfd717e6a320cf44b4afac2b0732d9fcbe2b7fa0cf65b8284106122545750505081016020016121ff826121ef565b8054602085870181019190915290930192810161223c565b60ff191660208087019190915292151560051b850190920192506121ff91508390506121ef565b3461025c57600036600319011261025c576007546040516001600160a01b039091168152602090f35b3461025c57600036600319011261025c576122d5613752565b6122dd6140a3565b6007805460ff60a01b1916600160a01b1790556040513381527f62e78cea01bee320cd4e420270b5ea74000d11b0c9f74754ebdbfc544b05a25890602090a1005b3461025c57602036600319011261025c57600435600e5481101561025c5761024e6020916135d3565b3461025c57604036600319011261025c576004356001600160401b03811161025c57612377903690600401613349565b600e546024356123868261423a565b90600090600094602091828201965b86811080612535575b15612414576123ac816135d3565b90549060031b1c80600052600a85526103a66123d56002604060002001604051928380926133a1565b85815191012084518a20146123f4575b506123ef90613c44565b612395565b8561240d916124076123ef94988a61412b565b52613c44565b94906123e5565b505050906124218161423a565b9161242b826141dd565b9360005b838110612445576040518061049b88888361355d565b80612453612530928461412b565b5161245e828861412b565b52612469818461412b565b51600052600a808552600b60406000206103a661250d6040519461248c8661329f565b60405161249d816103a681886133a1565b86526040516124b3816103a681600189016133a1565b8a8701526040516124cb816103a681600289016133a1565b6040878101919091526003850154606088015260048501546001600160a01b03166080880152600585015460a088015251610414816103a681600689016133a1565b6101408401520154610160820152612525828961412b565b5261047e818861412b565b61242f565b5081851061239e565b3461025c57600036600319011261025c5760206040516103e88152f35b3461025c5760208060031936011261025c5760043590612579614182565b5060008281526002825260409020546001600160a01b03929061259f908416151561413f565b600052600a8152600b6040600020604051936125ba8561329f565b6040516125cb816103a681866133a1565b85526040516125e1816103a681600187016133a1565b848601526040516125f9816103a681600287016133a1565b6040860152600382015460608601526004820154166080850152600581015460a0850152604051612631816103a681600686016133a1565b60c085015260ff600782015416151560e08501526008810154610100850152604051612664816103a681600986016133a1565b61012085015260405161267e816103a681600a86016133a1565b610140850152015461016083015261049b60405192828493845283019061345d565b3461025c57600036600319011261025c576126b9613752565b600780546001600160a01b031981169091556000906001600160a01b03167f8be0079c531659141344cd1fd0a4f28419497f9722a3daafe3b4186f6b6457e08280a3005b3461025c57602036600319011261025c576001600160a01b0361271e61323e565b16801561273d5760005260036020526020604060002054604051908152f35b6040516322718ad960e21b815260006004820152602490fd5b3461025c57602036600319011261025c576020612774600435613925565b6040516001600160a01b039091168152f35b3461025c57600036600319011261025c57602060ff60075460a01c166040519015158152f35b3461025c57600036600319011261025c576020600f54604051908152f35b3461025c57600036600319011261025c576020600e54604051908152f35b3461025c57602036600319011261025c576004356000526002602052602060018060a01b03604060002054161515604051908152f35b3461025c57602036600319011261025c576004356001600160401b03811161025c57612867602061285481933690600401613349565b81604051938285809451938492016131f6565b8101600b815203019020541515604051908152f35b3461025c5760208060031936011261025c576128c26004359182600052600a815260406000209060018060a01b03916128c98360048301541691604051958680926133a1565b03856132d6565b84600052600a82526040600020906128e08261426c565b600061295c846001976128f489870161426c565b6129006002870161426c565b83600b60039782898201558260048201558260058201556129236006820161426c565b82600782015582600882015561293b6009820161426c565b612947600a820161426c565b015581604051938285809451938492016131f6565b8101600b81520301902055600052600d82526040600020846000905b612b99575b5050909192806000905b612ad6575b50506129966140a3565b83600052600282528260406000205416923315159081612a2f575b505082916002916000946129fd575b50848452526040822080546001600160a01b03191690557fddf252ad1be2c89b69c2b068fc378daa952ba7f163c4a11628f55a4df523b3ef8280a4005b600086815260046020526040902080546001600160a01b031916905583855281526040842084198154019055856129c0565b81612a7e575b5015612a425784806129b1565b5050612a605760249060405190637e27328960e01b82526004820152fd5b6044906040519063177e802f60e01b82523360048301526024820152fd5b33851491508115612ab2575b8115612a98575b5085612a35565b905084600052600483523390604060002054161485612a91565b90508360005260058352604060002033600052835260ff6040600020541690612a8a565b600e805480831015612b925787612aec846135d3565b905490871b1c14612b08575050612b0290613c44565b81612987565b9092506000199182820191821161217157612b34612b28612b4d936135d3565b905490871b1c916135d3565b90919082549060031b91821b91600019901b1916179055565b81548015612b7c570190612b74612b63836135d3565b8154906000199060031b1b19169055565b55848061298c565b634e487b7160e01b600052603160045260246000fd5b505061298c565b815480821015612c1e5787612bae8385613620565b905490861b1c14612bcc575090612bc58692613c44565b9091612978565b60009693949596199182820191821161217157612b34612bef612bfc9386613620565b905490881b1c9185613620565b81548015612b7c570190612c13612b638383613620565b55929190858061297d565b5061297d565b3461025c5761114b612c353661326a565b9060405192612c43846132bb565b6000845261114583838361377e565b3461025c57600036600319011261025c57612c6b613752565b60075460ff8160a01c1615612cb25760ff60a01b19166007556040513381527f5db9ee0a495bf2e6ff9c91a7834c1ba4fdd244a5e8aa4e537bd38aeae4b073aa90602090a1005b604051638dfc202b60e01b8152600490fd5b3461025c57602036600319011261025c576004356001600160401b03811161025c57612cfa602061285481933690600401613349565b8101600b81520301902054604051908152f35b3461025c57600036600319011261025c57612d26613752565b478015612d4b576007546000918291829182916001600160a01b031682f115610bfc57005b60405162461bcd60e51b81526020600482015260146024820152734e6f2066756e647320746f20776974686472617760601b6044820152606490fd5b3461025c57602036600319011261025c57600435600052600a602052604060002060405180612db681846133a1565b03612dc190826132d6565b6040519182612dd381600184016133a1565b03612dde90846132d6565b6040519081612df081600284016133a1565b03612dfb90836132d6565b6003810154600482015460058301546040516001600160a01b03909216929180612e2881600688016133a1565b03612e3390826132d6565b600785015460ff169260088601549260405195868060098a0190612e56916133a1565b03612e6190886132d6565b6040519788612e7381600a84016133a1565b03612e7e908a6132d6565b600b0154986040519b8c9b8c6101808091528d01612e9b91613219565b8c810360208e0152612eac91613219565b8b810360408d0152612ebd91613219565b9260608b015260808a015260a089015287810360c0890152612ede91613219565b91151560e0870152610100860152848103610120860152612efe91613219565b838103610140850152612f1091613219565b906101608301520390f35b3461025c5761114b612f2c3661326a565b9161377e565b3461025c57602036600319011261025c577f9a7c33ea6df1d6d7f2348eda287c9493ced6ba1e043a8e681f50075dc9cdd4ca6020600435612f71613752565b80600f55604051908152a1005b3461025c57600036600319011261025c57600954600019810190811161217157602090604051908152f35b3461025c57604036600319011261025c57612fc261323e565b602435612fce81613925565b3315158061307d575b80613050575b613038576001600160a01b039283169282918491167f8c5be1e5ebec7d5bd14f71427d1e84f3dd0314c0f7b2291e5b200ac8c7c3b925600080a4600090815260046020526040902080546001600160a01b0319169091179055005b60405163a9fbf51f60e01b8152336004820152602490fd5b5060018060a01b038116600052600560205260406000203360005260205260ff6040600020541615612fdd565b506001600160a01b038116331415612fd7565b3461025c57602036600319011261025c576004356130ad81613925565b506000526004602052602060018060a01b0360406000205416604051908152f35b3461025c57600036600319011261025c57604051600080546130ef81613367565b8084529060019081811690811561226c57506001146131185761049b846121ff818603826132d6565b600080805292507f290decd9548b62a8d60345a988386fc84ba6bc95484008f6362f93160ef3e5635b8284106131595750505081016020016121ff826121ef565b80546020858701810191909152909301928101613141565b3461025c57602036600319011261025c576004359063ffffffff60e01b821680920361025c57602091632483248360e11b81149081156131b3575b5015158152f35b6380ac58cd60e01b8114915081156131e5575b81156131d4575b50836131ac565b6301ffc9a760e01b149050836131cd565b635b5e139f60e01b811491506131c6565b60005b8381106132095750506000910152565b81810151838201526020016131f9565b90602091613232815180928185528580860191016131f6565b601f01601f1916010190565b600435906001600160a01b038216820361025c57565b602435906001600160a01b038216820361025c57565b606090600319011261025c576001600160a01b0390600435828116810361025c5791602435908116810361025c579060443590565b61018081019081106001600160401b03821117610d0057604052565b602081019081106001600160401b03821117610d0057604052565b90601f801991011681019081106001600160401b03821117610d0057604052565b6001600160401b038111610d0057601f01601f191660200190565b92919261331e826132f7565b9161332c60405193846132d6565b82948184528183011161025c578281602093846000960137010152565b9080601f8301121561025c5781602061336493359101613312565b90565b90600182811c92168015613397575b602083101461338157565b634e487b7160e01b600052602260045260246000fd5b91607f1691613376565b90600092918054916133b283613367565b91828252600193848116908160001461341457506001146133d4575b50505050565b90919394506000526020928360002092846000945b8386106134005750505050010190388080806133ce565b8054858701830152940193859082016133e9565b9294505050602093945060ff191683830152151560051b010190388080806133ce565b60206134509181604051938285809451938492016131f6565b8101600b81520301902090565b9061351b6135076134dc6134a46134926134808751610180808952880190613219565b60208801518782036020890152613219565b60408701518682036040880152613219565b6060860151606086015260018060a01b03608087015116608086015260a086015160a086015260c086015185820360c0870152613219565b60e0850151151560e08501526101008086015190850152610120808601519085830390860152613219565b610140808501519084830390850152613219565b916101608091015191015290565b90815180825260208080930193019160005b828110613549575050505090565b83518552938101939281019260010161353b565b9061357090604083526040830190613529565b90602090818184039101528251908183528083019281808460051b8301019501936000915b8483106135a55750505050505090565b90919293949584806135c3600193601f198682030187528a5161345d565b9801930193019194939290613595565b600e5481101561360a57600e6000527fbb7b4a454dc3493923482f07822329ed19e8244eff582cc204f8554c3620c3fd0190600090565b634e487b7160e01b600052603260045260246000fd5b805482101561360a5760005260206000200190600090565b6001600160401b038111610d005760051b60200190565b9080601f8301121561025c5781359061366782613638565b9261367560405194856132d6565b828452602092838086019160051b8301019280841161025c57848301915b8483106136a35750505050505090565b82356001600160401b03811161025c5786916136c484848094890101613349565b815201920191613693565b81601f8201121561025c578035916136e683613638565b926136f460405194856132d6565b808452602092838086019260051b82010192831161025c578301905b82821061371e575050505090565b81358152908301908301613710565b60243590811515820361025c57565b604090600319011261025c576004359060243590565b6007546001600160a01b0316330361376657565b60405163118cdaa760e01b8152336004820152602490fd5b6001600160a01b03918216929091831561390c5761379a6140a3565b600092828452826020956002875260409684888820541696879133151580613876575b509060027fddf252ad1be2c89b69c2b068fc378daa952ba7f163c4a11628f55a4df523b3ef9284613843575b858352600381528b8320805460010190558683525289812080546001600160a01b0319168517905580a416928383036138225750505050565b6064945051926364283d7b60e01b8452600484015260248301526044820152fd5b600087815260046020526040902080546001600160a01b0319169055848352600381528b832080546000190190556137e9565b919394509150806138cb575b15613892578592918791386137bd565b8786886138af576024915190637e27328960e01b82526004820152fd5b604491519063177e802f60e01b82523360048301526024820152fd5b5033871480156138f0575b806138825750858252600481523385898420541614613882565b5086825260058152878220338352815260ff88832054166138d6565b604051633250574960e11b815260006004820152602490fd5b6000818152600260205260409020546001600160a01b0316908115613948575090565b60249060405190637e27328960e01b82526004820152fd5b90939192833b613972575b5050505050565b604051630a85bd0160e11b8082526001600160a01b0393841660048301529583166024820152604481019190915260806064820152949216926020929185906139bf906084830190613219565b039483816000978189895af1869181613a6a575b50613a34575050503d600014613a2b573d6139ed816132f7565b906139fb60405192836132d6565b81528093823d92013e5b82519283613a2657604051633250574960e11b815260048101849052602490fd5b019050fd5b60609250613a05565b919450915063ffffffff60e01b1603613a525750388080808061396b565b60249060405190633250574960e11b82526004820152fd5b9091508481813d8311613aa7575b613a8281836132d6565b81010312613aa357516001600160e01b031981168103613aa35790386139d3565b8680fd5b503d613a78565b15613ab557565b60405162461bcd60e51b81526020600482015260166024820152752737ba1030baba3437b934bd32b21031b932b0ba37b960511b6044820152606490fd5b15613afa57565b60405162461bcd60e51b815260206004820152601060248201526f14dd5b9bc81251081c995c5d5a5c995960821b6044820152606490fd5b15613b3957565b60405162461bcd60e51b815260206004820152601060248201526f15185cdac81251081c995c5d5a5c995960821b6044820152606490fd5b15613b7857565b60405162461bcd60e51b8152602060048201526014602482015273151c9858dac8185b1c9958591e481b5a5b9d195960621b6044820152606490fd5b15613bbb57565b60405162461bcd60e51b81526020600482015260156024820152740a4def2c2d8e8f240e4c2e8ca40e8dede40d0d2ced605b1b6044820152606490fd5b15613bff57565b60405162461bcd60e51b815260206004820152601860248201527f496e73756666696369656e74206d696e74696e672066656500000000000000006044820152606490fd5b60001981146121715760010190565b818110613c5e575050565b60008155600101613c53565b600e5490600160401b821015610d0057612b34826001613c8d9401600e556135d3565b565b90815491600160401b831015610d005782612b34916001613c8d95018155613620565b9192613cdf6133649694613cd1613ced9460a0875260a0870190613219565b908582036020870152613219565b908382036040850152613219565b9260608201526080818403910152613219565b9190820391821161217157565b60408051613d1a816132bb565b6000808252936001600160a01b03848116949092908515613f2b57613d3d6140a3565b82875260209360028552858820541683878215159283613ef8575b818b5260038852888b2080546001019055828b5260028852888b2080546001600160a01b031916831790557fddf252ad1be2c89b69c2b068fc378daa952ba7f163c4a11628f55a4df523b3ef8b80a4613ee0573b613db9575b505050505050565b82613df7918596979894955180938192630a85bd0160e11b968784523360048501528c60248501526044840152608060648401526084830190613219565b03818a8a5af1879181613e9c575b50613e65575050503d600014613e5c573d613e1f816132f7565b90613e2c845192836132d6565b81528094823d92013e5b83519384613e56578251633250574960e11b815260048101859052602490fd5b84925001fd5b60609350613e36565b919550915063ffffffff60e01b1603613e85575050388080808080613db1565b602492505190633250574960e11b82526004820152fd5b9091508481813d8311613ed9575b613eb481836132d6565b81010312613ed557516001600160e01b031981168103613ed5579038613e05565b8780fd5b503d613eaa565b84516339e3563760e11b815260048101889052602490fd5b600083815260046020526040902080546001600160a01b0319169055808b5260038852888b208054600019019055613d58565b8451633250574960e11b815260048101889052602490fd5b9190916000908082526020916006835260408120908551906001600160401b03821161408f57613f738354613367565b601f8111614061575b508490601f8311600114613fdd57907ff8e1a15aba9398e019f0b49df1a4fde98ee17ae345cb5f6b5e2c27f5033e8ce7969783613fd2575b50508160011b916000199060031b1c19161790555b604051908152a1565b015190503880613fb4565b9196601f198816848452868420935b81811061404a57509160019391897ff8e1a15aba9398e019f0b49df1a4fde98ee17ae345cb5f6b5e2c27f5033e8ce7999a9410614031575b505050811b019055613fc9565b015160001960f88460031b161c19169055388080614024565b929387600181928786015181550195019301613fec565b61408990848352868320601f850160051c810191888610610cf657601f0160051c0190613c53565b38613f7c565b634e487b7160e01b81526041600452602490fd5b60ff60075460a01c166140b257565b60405163d93c066560e01b8152600490fd5b6002600854146140d5576002600855565b604051633ee5aeb560e01b8152600490fd5b156140ee57565b60405162461bcd60e51b8152602060048201526015602482015274082e4e4c2f240d8cadccee8d040dad2e6dac2e8c6d605b1b6044820152606490fd5b805182101561360a5760209160051b010190565b1561414657565b60405162461bcd60e51b8152602060048201526014602482015273151bdad95b88191bd95cc81b9bdd08195e1a5cdd60621b6044820152606490fd5b6040519061418f8261329f565b8161016060609182815282602082015282604082015260009283818301528360808301528360a08301528060c08301528360e083015283610100830152806101208301526101408201520152565b906141e782613638565b6141f460405191826132d6565b8281528092614205601f1991613638565b019060005b82811061421657505050565b602090614221614182565b8282850101520161420a565b9190820180921161217157565b9061424482613638565b61425160405191826132d6565b8281528092614262601f1991613638565b0190602036910137565b6142768154613367565b9081614280575050565b81601f60009311600114614292575055565b9080839182526142b1601f60208420940160051c840160018501613c53565b555556fea2646970667358221220f477d3a49f71b3a96fc0a3bc37809c1aebf6fc71a0961604758d77fb1d52aa5b64736f6c63430008140033",
  "linkReferences": {},
  "deployedLinkReferences": {}
}