{
  "_format": "hh-sol-artifact-1",
  "contractName": "HiBeatsToken",
  "sourceName": "contracts/HiBeatsToken.sol",
  "abi": [
    {
      "inputs": [
        {
          "internalType": "address",
          "name": "_royaltyPool",
          "type": "address"
        },
        {
          "internalType": "address",
          "name": "_stakingPool",
          "type": "address"
        },
        {
          "internalType": "address",
          "name": "_marketingPool",
          "type": "address"
        },
        {
          "internalType": "address",
          "name": "_teamPool",
          "type": "address"
        }
      ],
      "stateMutability": "nonpayable",
      "type": "constructor"
    },
    {
      "inputs": [
        {
          "internalType": "address",
          "name": "spender",
          "type": "address"
        },
        {
          "internalType": "uint256",
          "name": "allowance",
          "type": "uint256"
        },
        {
          "internalType": "uint256",
          "name": "needed",
          "type": "uint256"
        }
      ],
      "name": "ERC20InsufficientAllowance",
      "type": "error"
    },
    {
      "inputs": [
        {
          "internalType": "address",
          "name": "sender",
          "type": "address"
        },
        {
          "internalType": "uint256",
          "name": "balance",
          "type": "uint256"
        },
        {
          "internalType": "uint256",
          "name": "needed",
          "type": "uint256"
        }
      ],
      "name": "ERC20InsufficientBalance",
      "type": "error"
    },
    {
      "inputs": [
        {
          "internalType": "address",
          "name": "approver",
          "type": "address"
        }
      ],
      "name": "ERC20InvalidApprover",
      "type": "error"
    },
    {
      "inputs": [
        {
          "internalType": "address",
          "name": "receiver",
          "type": "address"
        }
      ],
      "name": "ERC20InvalidReceiver",
      "type": "error"
    },
    {
      "inputs": [
        {
          "internalType": "address",
          "name": "sender",
          "type": "address"
        }
      ],
      "name": "ERC20InvalidSender",
      "type": "error"
    },
    {
      "inputs": [
        {
          "internalType": "address",
          "name": "spender",
          "type": "address"
        }
      ],
      "name": "ERC20InvalidSpender",
      "type": "error"
    },
    {
      "inputs": [],
      "name": "EnforcedPause",
      "type": "error"
    },
    {
      "inputs": [],
      "name": "ExpectedPause",
      "type": "error"
    },
    {
      "inputs": [
        {
          "internalType": "address",
          "name": "owner",
          "type": "address"
        }
      ],
      "name": "OwnableInvalidOwner",
      "type": "error"
    },
    {
      "inputs": [
        {
          "internalType": "address",
          "name": "account",
          "type": "address"
        }
      ],
      "name": "OwnableUnauthorizedAccount",
      "type": "error"
    },
    {
      "anonymous": false,
      "inputs": [
        {
          "indexed": true,
          "internalType": "address",
          "name": "owner",
          "type": "address"
        },
        {
          "indexed": true,
          "internalType": "address",
          "name": "spender",
          "type": "address"
        },
        {
          "indexed": false,
          "internalType": "uint256",
          "name": "value",
          "type": "uint256"
        }
      ],
      "name": "Approval",
      "type": "event"
    },
    {
      "anonymous": false,
      "inputs": [
        {
          "indexed": true,
          "internalType": "address",
          "name": "minter",
          "type": "address"
        },
        {
          "indexed": false,
          "internalType": "bool",
          "name": "authorized",
          "type": "bool"
        }
      ],
      "name": "MinterAuthorized",
      "type": "event"
    },
    {
      "anonymous": false,
      "inputs": [
        {
          "indexed": true,
          "internalType": "address",
          "name": "previousOwner",
          "type": "address"
        },
        {
          "indexed": true,
          "internalType": "address",
          "name": "newOwner",
          "type": "address"
        }
      ],
      "name": "OwnershipTransferred",
      "type": "event"
    },
    {
      "anonymous": false,
      "inputs": [
        {
          "indexed": false,
          "internalType": "address",
          "name": "account",
          "type": "address"
        }
      ],
      "name": "Paused",
      "type": "event"
    },
    {
      "anonymous": false,
      "inputs": [
        {
          "indexed": true,
          "internalType": "address",
          "name": "newPool",
          "type": "address"
        }
      ],
      "name": "RoyaltyPoolUpdated",
      "type": "event"
    },
    {
      "anonymous": false,
      "inputs": [
        {
          "indexed": true,
          "internalType": "address",
          "name": "to",
          "type": "address"
        },
        {
          "indexed": false,
          "internalType": "uint256",
          "name": "amount",
          "type": "uint256"
        },
        {
          "indexed": false,
          "internalType": "string",
          "name": "reason",
          "type": "string"
        }
      ],
      "name": "TokensMinted",
      "type": "event"
    },
    {
      "anonymous": false,
      "inputs": [
        {
          "indexed": true,
          "internalType": "address",
          "name": "from",
          "type": "address"
        },
        {
          "indexed": true,
          "internalType": "address",
          "name": "to",
          "type": "address"
        },
        {
          "indexed": false,
          "internalType": "uint256",
          "name": "value",
          "type": "uint256"
        }
      ],
      "name": "Transfer",
      "type": "event"
    },
    {
      "anonymous": false,
      "inputs": [
        {
          "indexed": false,
          "internalType": "address",
          "name": "account",
          "type": "address"
        }
      ],
      "name": "Unpaused",
      "type": "event"
    },
    {
      "inputs": [],
      "name": "INITIAL_SUPPLY",
      "outputs": [
        {
          "internalType": "uint256",
          "name": "",
          "type": "uint256"
        }
      ],
      "stateMutability": "view",
      "type": "function"
    },
    {
      "inputs": [],
      "name": "MAX_SUPPLY",
      "outputs": [
        {
          "internalType": "uint256",
          "name": "",
          "type": "uint256"
        }
      ],
      "stateMutability": "view",
      "type": "function"
    },
    {
      "inputs": [
        {
          "internalType": "address",
          "name": "owner",
          "type": "address"
        },
        {
          "internalType": "address",
          "name": "spender",
          "type": "address"
        }
      ],
      "name": "allowance",
      "outputs": [
        {
          "internalType": "uint256",
          "name": "",
          "type": "uint256"
        }
      ],
      "stateMutability": "view",
      "type": "function"
    },
    {
      "inputs": [
        {
          "internalType": "address",
          "name": "spender",
          "type": "address"
        },
        {
          "internalType": "uint256",
          "name": "value",
          "type": "uint256"
        }
      ],
      "name": "approve",
      "outputs": [
        {
          "internalType": "bool",
          "name": "",
          "type": "bool"
        }
      ],
      "stateMutability": "nonpayable",
      "type": "function"
    },
    {
      "inputs": [
        {
          "internalType": "address",
          "name": "",
          "type": "address"
        }
      ],
      "name": "authorizedMinters",
      "outputs": [
        {
          "internalType": "bool",
          "name": "",
          "type": "bool"
        }
      ],
      "stateMutability": "view",
      "type": "function"
    },
    {
      "inputs": [
        {
          "internalType": "address",
          "name": "account",
          "type": "address"
        }
      ],
      "name": "balanceOf",
      "outputs": [
        {
          "internalType": "uint256",
          "name": "",
          "type": "uint256"
        }
      ],
      "stateMutability": "view",
      "type": "function"
    },
    {
      "inputs": [
        {
          "internalType": "uint256",
          "name": "value",
          "type": "uint256"
        }
      ],
      "name": "burn",
      "outputs": [],
      "stateMutability": "nonpayable",
      "type": "function"
    },
    {
      "inputs": [
        {
          "internalType": "address",
          "name": "account",
          "type": "address"
        },
        {
          "internalType": "uint256",
          "name": "value",
          "type": "uint256"
        }
      ],
      "name": "burnFrom",
      "outputs": [],
      "stateMutability": "nonpayable",
      "type": "function"
    },
    {
      "inputs": [],
      "name": "decimals",
      "outputs": [
        {
          "internalType": "uint8",
          "name": "",
          "type": "uint8"
        }
      ],
      "stateMutability": "view",
      "type": "function"
    },
    {
      "inputs": [],
      "name": "marketingPool",
      "outputs": [
        {
          "internalType": "address",
          "name": "",
          "type": "address"
        }
      ],
      "stateMutability": "view",
      "type": "function"
    },
    {
      "inputs": [
        {
          "internalType": "address",
          "name": "to",
          "type": "address"
        },
        {
          "internalType": "uint256",
          "name": "amount",
          "type": "uint256"
        }
      ],
      "name": "mintForRewards",
      "outputs": [],
      "stateMutability": "nonpayable",
      "type": "function"
    },
    {
      "inputs": [
        {
          "internalType": "address",
          "name": "to",
          "type": "address"
        },
        {
          "internalType": "uint256",
          "name": "amount",
          "type": "uint256"
        }
      ],
      "name": "mintForRoyalties",
      "outputs": [],
      "stateMutability": "nonpayable",
      "type": "function"
    },
    {
      "inputs": [],
      "name": "name",
      "outputs": [
        {
          "internalType": "string",
          "name": "",
          "type": "string"
        }
      ],
      "stateMutability": "view",
      "type": "function"
    },
    {
      "inputs": [],
      "name": "owner",
      "outputs": [
        {
          "internalType": "address",
          "name": "",
          "type": "address"
        }
      ],
      "stateMutability": "view",
      "type": "function"
    },
    {
      "inputs": [],
      "name": "pause",
      "outputs": [],
      "stateMutability": "nonpayable",
      "type": "function"
    },
    {
      "inputs": [],
      "name": "paused",
      "outputs": [
        {
          "internalType": "bool",
          "name": "",
          "type": "bool"
        }
      ],
      "stateMutability": "view",
      "type": "function"
    },
    {
      "inputs": [],
      "name": "remainingSupply",
      "outputs": [
        {
          "internalType": "uint256",
          "name": "",
          "type": "uint256"
        }
      ],
      "stateMutability": "view",
      "type": "function"
    },
    {
      "inputs": [],
      "name": "renounceOwnership",
      "outputs": [],
      "stateMutability": "nonpayable",
      "type": "function"
    },
    {
      "inputs": [],
      "name": "royaltyPool",
      "outputs": [
        {
          "internalType": "address",
          "name": "",
          "type": "address"
        }
      ],
      "stateMutability": "view",
      "type": "function"
    },
    {
      "inputs": [
        {
          "internalType": "address",
          "name": "minter",
          "type": "address"
        },
        {
          "internalType": "bool",
          "name": "authorized",
          "type": "bool"
        }
      ],
      "name": "setAuthorizedMinter",
      "outputs": [],
      "stateMutability": "nonpayable",
      "type": "function"
    },
    {
      "inputs": [
        {
          "internalType": "address",
          "name": "_royaltyPool",
          "type": "address"
        }
      ],
      "name": "setRoyaltyPool",
      "outputs": [],
      "stateMutability": "nonpayable",
      "type": "function"
    },
    {
      "inputs": [],
      "name": "stakingPool",
      "outputs": [
        {
          "internalType": "address",
          "name": "",
          "type": "address"
        }
      ],
      "stateMutability": "view",
      "type": "function"
    },
    {
      "inputs": [],
      "name": "symbol",
      "outputs": [
        {
          "internalType": "string",
          "name": "",
          "type": "string"
        }
      ],
      "stateMutability": "view",
      "type": "function"
    },
    {
      "inputs": [],
      "name": "teamPool",
      "outputs": [
        {
          "internalType": "address",
          "name": "",
          "type": "address"
        }
      ],
      "stateMutability": "view",
      "type": "function"
    },
    {
      "inputs": [],
      "name": "totalMinted",
      "outputs": [
        {
          "internalType": "uint256",
          "name": "",
          "type": "uint256"
        }
      ],
      "stateMutability": "view",
      "type": "function"
    },
    {
      "inputs": [],
      "name": "totalSupply",
      "outputs": [
        {
          "internalType": "uint256",
          "name": "",
          "type": "uint256"
        }
      ],
      "stateMutability": "view",
      "type": "function"
    },
    {
      "inputs": [
        {
          "internalType": "address",
          "name": "to",
          "type": "address"
        },
        {
          "internalType": "uint256",
          "name": "value",
          "type": "uint256"
        }
      ],
      "name": "transfer",
      "outputs": [
        {
          "internalType": "bool",
          "name": "",
          "type": "bool"
        }
      ],
      "stateMutability": "nonpayable",
      "type": "function"
    },
    {
      "inputs": [
        {
          "internalType": "address",
          "name": "from",
          "type": "address"
        },
        {
          "internalType": "address",
          "name": "to",
          "type": "address"
        },
        {
          "internalType": "uint256",
          "name": "value",
          "type": "uint256"
        }
      ],
      "name": "transferFrom",
      "outputs": [
        {
          "internalType": "bool",
          "name": "",
          "type": "bool"
        }
      ],
      "stateMutability": "nonpayable",
      "type": "function"
    },
    {
      "inputs": [
        {
          "internalType": "address",
          "name": "newOwner",
          "type": "address"
        }
      ],
      "name": "transferOwnership",
      "outputs": [],
      "stateMutability": "nonpayable",
      "type": "function"
    },
    {
      "inputs": [],
      "name": "unpause",
      "outputs": [],
      "stateMutability": "nonpayable",
      "type": "function"
    }
  ],
  "bytecode": "0x608034620006a457601f620017ea38819003918201601f191683019291906001600160401b0384118385101762000573578160809284926040968752833981010312620006a4576200005181620006c9565b906200006060208201620006c9565b906200007c606062000074868401620006c9565b9201620006c9565b9162000087620006a9565b600d81526c2434a132b0ba39902a37b5b2b760991b6020820152620000ab620006a9565b6005815264424541545360d81b6020820152815190916001600160401b038211620005735760035490600182811c9216801562000699575b6020831014620005525781601f84931162000624575b50602090601f8311600114620005955760009262000589575b50508160011b916000199060031b1c1916176003555b8051906001600160401b038211620005735760045490600182811c9216801562000568575b6020831014620005525781601f849311620004dd575b50602090601f8311600114620004525760009262000446575b50508160011b916000199060031b1c1916176004555b33156200042e5760058054336001600160a01b03198083168217938490559660ff946001600160a01b039384938493849290919083167f8be0079c531659141344cd1fd0a4f28419497f9722a3daafe3b4186f6b6457e0600080a316896006541617600655169485886007541617600755169485876008541617600855168095600954161760095560a01c16620003b3576002918254916a2116545850052128000000928381018091116200039d5784553360005260006020528560002083815401905585519283527fddf252ad1be2c89b69c2b068fc378daa952ba7f163c4a11628f55a4df523b3ef9260008460203393a38015620004165760ff60055460a01c16620004055783546a14adf4b7320334b90000008082018092116200039d576020859160009388558484528382528984208181540190558951908152a38015620003ed5760ff60055460a01c16620003dc5782546a108b2a2c280290940000008082018092116200039d576020849160009387558484528382528884208181540190558851908152a38215620003c45760ff60055460a01c16620003b3578154916a0c685fa11e01ec6f0000008084018094116200039d57600093602092558484528382528584208181540190558551908152a36a52b7d2dcc80cd2e4000000600b5533600052600a60205280600020600160ff198254161790555161110b9081620006df8239f35b634e487b7160e01b600052601160045260246000fd5b835163d93c066560e01b8152600490fd5b835163ec442f0560e01b815260006004820152602490fd5b845163d93c066560e01b8152600490fd5b845163ec442f0560e01b815260006004820152602490fd5b855163d93c066560e01b8152600490fd5b855163ec442f0560e01b815260006004820152602490fd5b8451631e4fbdf760e01b815260006004820152602490fd5b0151905038806200017c565b600460009081527f8a35acfbc15ff81a39ae7d344fd709f28e8600b4aa8c65c6b64bfe7fe36bd19b9350601f198516905b818110620004c45750908460019594939210620004aa575b505050811b0160045562000192565b015160001960f88460031b161c191690553880806200049b565b9293602060018192878601518155019501930162000483565b60046000529091507f8a35acfbc15ff81a39ae7d344fd709f28e8600b4aa8c65c6b64bfe7fe36bd19b601f840160051c8101916020851062000547575b90601f859493920160051c01905b81811062000537575062000163565b6000815584935060010162000528565b90915081906200051a565b634e487b7160e01b600052602260045260246000fd5b91607f16916200014d565b634e487b7160e01b600052604160045260246000fd5b01519050388062000112565b6003600090815293507fc2575a0e9e593c00f959f8c92f12db2869c3395a3b0502d05e2516446f71f85b91905b601f198416851062000608576001945083601f19811610620005ee575b505050811b0160035562000128565b015160001960f88460031b161c19169055388080620005df565b81810151835560209485019460019093019290910190620005c2565b60036000529091507fc2575a0e9e593c00f959f8c92f12db2869c3395a3b0502d05e2516446f71f85b601f840160051c810191602085106200068e575b90601f859493920160051c01905b8181106200067e5750620000f9565b600081558493506001016200066f565b909150819062000661565b91607f1691620000e3565b600080fd5b60408051919082016001600160401b038111838210176200057357604052565b51906001600160a01b0382168203620006a45756fe6080604081815260048036101561001557600080fd5b600092833560e01c90816306fdde0314610b5e57508063095ea7b314610ab55780630c56ae3b14610a8c57806318160ddd14610a6d57806323b872dd14610a305780632ff2e9dc14610a0a578063313ce567146109ee57806332cb6b0c146109c7578063396365041461099e5780633f4ba83a1461092f57806342966c681461091157806348a96d48146108295780635c975abb1461080257806370a08231146107cb578063715018a61461076e57806379cc6790146107385780637e89f17b146106965780638456cb59146106355780638da5cb5b1461060c57806395d89b41146104ec578063a06e5d2f146104c3578063a2309ff8146104a4578063a9059cbb14610473578063aa2fe91b14610435578063bbc7d0b91461040c578063d264a38b14610319578063da0239a6146102ce578063dd62ed3e14610285578063ed58bad8146101ff5763f2fde38b1461016d57600080fd5b346101fb5760203660031901126101fb57610186610c9c565b9061018f610ccd565b6001600160a01b039182169283156101e5575050600554826bffffffffffffffffffffffff60a01b821617600555167f8be0079c531659141344cd1fd0a4f28419497f9722a3daafe3b4186f6b6457e08380a380f35b51631e4fbdf760e01b8152908101849052602490fd5b8280fd5b505034610281578060031936011261028157610219610c9c565b6024359081151580920361027d577f9041c22ed79d1c19c69cc22fd9e38c93da4f2dd8cd32580594e232a8a18541cb91602091610254610ccd565b6001600160a01b0316808652600a8352848620805460ff191660ff84161790559351908152a280f35b8380fd5b5080fd5b505034610281578060031936011261028157806020926102a3610c9c565b6102ab610cb7565b6001600160a01b0391821683526001865283832091168252845220549051908152f35b50919034610281578160031936011261028157600b54916b033b2e3c9fd0803ce8000000928303928311610306576020838351908152f35b634e487b7160e01b815260118452602490fd5b5050346102815780600319360112610281577f9d89e36eadf856db0ad9ffb5a569e07f95634dddd9501141ecf04820484ad0dc6080610356610c9c565b92600660243591338752600a60205260ff818820541680156103f8575b61037c90610f59565b6103846110b4565b6103a76b033b2e3c9fd0803ce80000006103a085600b54610f9e565b1115610fc1565b6001600160a01b038616956103c89084906103c3891515611002565b61104e565b6103d483600b54610f9e565b600b558051928352806020840152820152651c995dd85c9960d21b6060820152a280f35b506005546001600160a01b03163314610373565b50503461028157816003193601126102815760085490516001600160a01b039091168152602090f35b5050346102815760203660031901126102815760209160ff9082906001600160a01b03610460610c9c565b168152600a855220541690519015158152f35b50503461028157806003193601126102815760209061049d610493610c9c565b6024359033610cf9565b5160018152f35b505034610281578160031936011261028157602090600b549051908152f35b50503461028157816003193601126102815760065490516001600160a01b039091168152602090f35b50919034610281578160031936011261028157805190828454600181811c90808316928315610602575b60209384841081146105ef578388529081156105d3575060011461057e575b505050829003601f01601f191682019267ffffffffffffffff84118385101761056b5750829182610567925282610c53565b0390f35b634e487b7160e01b815260418552602490fd5b8787529192508591837f8a35acfbc15ff81a39ae7d344fd709f28e8600b4aa8c65c6b64bfe7fe36bd19b5b8385106105bf5750505050830101388080610535565b8054888601830152930192849082016105a9565b60ff1916878501525050151560051b8401019050388080610535565b634e487b7160e01b895260228a52602489fd5b91607f1691610516565b50503461028157816003193601126102815760055490516001600160a01b039091168152602090f35b50503461028157816003193601126102815760207f62e78cea01bee320cd4e420270b5ea74000d11b0c9f74754ebdbfc544b05a25891610673610ccd565b61067b6110b4565b6005805460ff60a01b1916600160a01b17905551338152a180f35b50346101fb5760203660031901126101fb576106b0610c9c565b6106b8610ccd565b6001600160a01b0316918215610703575050600680546001600160a01b031916821790557f3326b6f2f3fceb3a51f1e6d76bfde74bea7ebd2ed741de2aa46d091b825522708280a280f35b906020606492519162461bcd60e51b8352820152600f60248201526e496e76616c6964206164647265737360881b6044820152fd5b5050346102815736600319011261076b57610768610754610c9c565b60243590610763823383610ddf565b610eb2565b80f35b80fd5b833461076b578060031936011261076b57610787610ccd565b600580546001600160a01b0319811690915581906001600160a01b03167f8be0079c531659141344cd1fd0a4f28419497f9722a3daafe3b4186f6b6457e08280a380f35b5050346102815760203660031901126102815760209181906001600160a01b036107f3610c9c565b16815280845220549051908152f35b50503461028157816003193601126102815760209060ff60055460a01c1690519015158152f35b5050346102815780600319360112610281577f9d89e36eadf856db0ad9ffb5a569e07f95634dddd9501141ecf04820484ad0dc6080610866610c9c565b92600760243591338752600a60205260ff818820541680156108fd575b61088c90610f59565b6108946110b4565b6108b06b033b2e3c9fd0803ce80000006103a085600b54610f9e565b6001600160a01b038616956108cc9084906103c3891515611002565b6108d883600b54610f9e565b600b55805192835280602084015282015266726f79616c747960c81b6060820152a280f35b506005546001600160a01b03163314610883565b83823461028157602036600319011261028157610768903533610eb2565b50346101fb57826003193601126101fb57610948610ccd565b6005549060ff8260a01c1615610990575060ff60a01b1916600555513381527f5db9ee0a495bf2e6ff9c91a7834c1ba4fdd244a5e8aa4e537bd38aeae4b073aa90602090a180f35b8251638dfc202b60e01b8152fd5b50503461028157816003193601126102815760095490516001600160a01b039091168152602090f35b505034610281578160031936011261028157602090516b033b2e3c9fd0803ce80000008152f35b5050346102815781600319360112610281576020905160128152f35b505034610281578160031936011261028157602090516a52b7d2dcc80cd2e40000008152f35b5050346102815760603660031901126102815760209061049d610a51610c9c565b610a59610cb7565b60443591610a68833383610ddf565b610cf9565b5050346102815781600319360112610281576020906002549051908152f35b50503461028157816003193601126102815760075490516001600160a01b039091168152602090f35b50346101fb57816003193601126101fb57610ace610c9c565b602435903315610b47576001600160a01b0316918215610b3057508083602095338152600187528181208582528752205582519081527f8c5be1e5ebec7d5bd14f71427d1e84f3dd0314c0f7b2291e5b200ac8c7c3b925843392a35160018152f35b8351634a1406b160e11b8152908101859052602490fd5b835163e602df0560e01b8152808401869052602490fd5b84915083346101fb57826003193601126101fb5782600354600181811c90808316928315610c49575b60209384841081146105ef57838852908115610c2d5750600114610bd757505050829003601f01601f191682019267ffffffffffffffff84118385101761056b5750829182610567925282610c53565b600387529192508591837fc2575a0e9e593c00f959f8c92f12db2869c3395a3b0502d05e2516446f71f85b5b838510610c195750505050830101858080610535565b805488860183015293019284908201610c03565b60ff1916878501525050151560051b8401019050858080610535565b91607f1691610b87565b6020808252825181830181905290939260005b828110610c8857505060409293506000838284010152601f8019910116010190565b818101860151848201604001528501610c66565b600435906001600160a01b0382168203610cb257565b600080fd5b602435906001600160a01b0382168203610cb257565b6005546001600160a01b03163303610ce157565b60405163118cdaa760e01b8152336004820152602490fd5b916001600160a01b03808416928315610dc65716928315610dad57610d1c6110b4565b60009083825281602052604082205490838210610d7b575091604082827fddf252ad1be2c89b69c2b068fc378daa952ba7f163c4a11628f55a4df523b3ef958760209652828652038282205586815220818154019055604051908152a3565b60405163391434e360e21b81526001600160a01b03919091166004820152602481019190915260448101839052606490fd5b60405163ec442f0560e01b815260006004820152602490fd5b604051634b637e8f60e11b815260006004820152602490fd5b9160018060a01b038093169160009383855260016020526040938486209183169182875260205284862054926000198410610e1e575b50505050505050565b848410610e8257508015610e6a578115610e5257855260016020528385209085526020520391205538808080808080610e15565b8451634a1406b160e11b815260048101879052602490fd5b845163e602df0560e01b815260048101879052602490fd5b8551637dc7a0d960e11b81526001600160a01b039190911660048201526024810184905260448101859052606490fd5b906001600160a01b038216908115610dc657610ecc6110b4565b60009282845283602052604084205490828210610f275750817fddf252ad1be2c89b69c2b068fc378daa952ba7f163c4a11628f55a4df523b3ef926020928587528684520360408620558060025403600255604051908152a3565b60405163391434e360e21b81526001600160a01b03919091166004820152602481019190915260448101829052606490fd5b15610f6057565b60405162461bcd60e51b8152602060048201526016602482015275139bdd08185d5d1a1bdc9a5e9959081d1bc81b5a5b9d60521b6044820152606490fd5b91908201809211610fab57565b634e487b7160e01b600052601160045260246000fd5b15610fc857565b60405162461bcd60e51b815260206004820152601260248201527145786365656473206d617820737570706c7960701b6044820152606490fd5b1561100957565b60405162461bcd60e51b815260206004820152601b60248201527f43616e6e6f74206d696e7420746f207a65726f206164647265737300000000006044820152606490fd5b6001600160a01b0316908115610dad577fddf252ad1be2c89b69c2b068fc378daa952ba7f163c4a11628f55a4df523b3ef602060009261108c6110b4565b61109881600254610f9e565b60025584845283825260408420818154019055604051908152a3565b60ff60055460a01c166110c357565b60405163d93c066560e01b8152600490fdfea2646970667358221220502eac92e6e3430f78dfe908ef4b53b2d5eaf889685e6fbac8b1b7a64cf9691464736f6c63430008140033",
  "linkReferences": {},
  "deployedLinkReferences": {}
}