{
  "_format": "hh-sol-artifact-1",
  "contractName": "HiBeatsDeployer",
  "sourceName": "contracts/HiBeatsDeployer.sol",
  "abi": [
    {
      "inputs": [],
      "stateMutability": "nonpayable",
      "type": "constructor"
    },
    {
      "anonymous": false,
      "inputs": [
        {
          "indexed": true,
          "internalType": "address",
          "name": "deployer",
          "type": "address"
        },
        {
          "components": [
            {
              "internalType": "address",
              "name": "hiBeatsToken",
              "type": "address"
            },
            {
              "internalType": "address",
              "name": "hiBeatsNFT",
              "type": "address"
            },
            {
              "internalType": "address",
              "name": "hiBeatsMarketplace",
              "type": "address"
            },
            {
              "internalType": "address",
              "name": "hiBeatsRoyalties",
              "type": "address"
            },
            {
              "internalType": "address",
              "name": "hiBeatsProfile",
              "type": "address"
            },
            {
              "internalType": "address",
              "name": "hiBeatsPlaylist",
              "type": "address"
            },
            {
              "internalType": "address",
              "name": "hiBeatsFactory",
              "type": "address"
            },
            {
              "internalType": "address",
              "name": "hiBeatsDiscovery",
              "type": "address"
            },
            {
              "internalType": "address",
              "name": "hiBeatsStaking",
              "type": "address"
            },
            {
              "internalType": "address",
              "name": "hiBeatsAnalytics",
              "type": "address"
            },
            {
              "internalType": "address",
              "name": "hiBeatsInteractionManager",
              "type": "address"
            },
            {
              "internalType": "address",
              "name": "hiBeatsGovernance",
              "type": "address"
            }
          ],
          "indexed": false,
          "internalType": "struct HiBeatsDeployer.ContractAddresses",
          "name": "contracts",
          "type": "tuple"
        },
        {
          "indexed": false,
          "internalType": "uint256",
          "name": "timestamp",
          "type": "uint256"
        }
      ],
      "name": "EcosystemDeployed",
      "type": "event"
    },
    {
      "inputs": [
        {
          "internalType": "string",
          "name": "tokenName",
          "type": "string"
        },
        {
          "internalType": "string",
          "name": "tokenSymbol",
          "type": "string"
        },
        {
          "internalType": "string",
          "name": "nftName",
          "type": "string"
        },
        {
          "internalType": "string",
          "name": "nftSymbol",
          "type": "string"
        },
        {
          "internalType": "address",
          "name": "sttTokenAddress",
          "type": "address"
        }
      ],
      "name": "deployEcosystem",
      "outputs": [
        {
          "components": [
            {
              "internalType": "address",
              "name": "hiBeatsToken",
              "type": "address"
            },
            {
              "internalType": "address",
              "name": "hiBeatsNFT",
              "type": "address"
            },
            {
              "internalType": "address",
              "name": "hiBeatsMarketplace",
              "type": "address"
            },
            {
              "internalType": "address",
              "name": "hiBeatsRoyalties",
              "type": "address"
            },
            {
              "internalType": "address",
              "name": "hiBeatsProfile",
              "type": "address"
            },
            {
              "internalType": "address",
              "name": "hiBeatsPlaylist",
              "type": "address"
            },
            {
              "internalType": "address",
              "name": "hiBeatsFactory",
              "type": "address"
            },
            {
              "internalType": "address",
              "name": "hiBeatsDiscovery",
              "type": "address"
            },
            {
              "internalType": "address",
              "name": "hiBeatsStaking",
              "type": "address"
            },
            {
              "internalType": "address",
              "name": "hiBeatsAnalytics",
              "type": "address"
            },
            {
              "internalType": "address",
              "name": "hiBeatsInteractionManager",
              "type": "address"
            },
            {
              "internalType": "address",
              "name": "hiBeatsGovernance",
              "type": "address"
            }
          ],
          "internalType": "struct HiBeatsDeployer.ContractAddresses",
          "name": "",
          "type": "tuple"
        }
      ],
      "stateMutability": "nonpayable",
      "type": "function"
    },
    {
      "inputs": [],
      "name": "deployedContracts",
      "outputs": [
        {
          "internalType": "address",
          "name": "hiBeatsToken",
          "type": "address"
        },
        {
          "internalType": "address",
          "name": "hiBeatsNFT",
          "type": "address"
        },
        {
          "internalType": "address",
          "name": "hiBeatsMarketplace",
          "type": "address"
        },
        {
          "internalType": "address",
          "name": "hiBeatsRoyalties",
          "type": "address"
        },
        {
          "internalType": "address",
          "name": "hiBeatsProfile",
          "type": "address"
        },
        {
          "internalType": "address",
          "name": "hiBeatsPlaylist",
          "type": "address"
        },
        {
          "internalType": "address",
          "name": "hiBeatsFactory",
          "type": "address"
        },
        {
          "internalType": "address",
          "name": "hiBeatsDiscovery",
          "type": "address"
        },
        {
          "internalType": "address",
          "name": "hiBeatsStaking",
          "type": "address"
        },
        {
          "internalType": "address",
          "name": "hiBeatsAnalytics",
          "type": "address"
        },
        {
          "internalType": "address",
          "name": "hiBeatsInteractionManager",
          "type": "address"
        },
        {
          "internalType": "address",
          "name": "hiBeatsGovernance",
          "type": "address"
        }
      ],
      "stateMutability": "view",
      "type": "function"
    },
    {
      "inputs": [],
      "name": "deployer",
      "outputs": [
        {
          "internalType": "address",
          "name": "",
          "type": "address"
        }
      ],
      "stateMutability": "view",
      "type": "function"
    },
    {
      "inputs": [],
      "name": "generateDeploymentReport",
      "outputs": [
        {
          "internalType": "string",
          "name": "report",
          "type": "string"
        },
        {
          "internalType": "bool",
          "name": "allDeployed",
          "type": "bool"
        },
        {
          "internalType": "uint256",
          "name": "totalContracts",
          "type": "uint256"
        }
      ],
      "stateMutability": "view",
      "type": "function"
    },
    {
      "inputs": [],
      "name": "getDeployedContracts",
      "outputs": [
        {
          "components": [
            {
              "internalType": "address",
              "name": "hiBeatsToken",
              "type": "address"
            },
            {
              "internalType": "address",
              "name": "hiBeatsNFT",
              "type": "address"
            },
            {
              "internalType": "address",
              "name": "hiBeatsMarketplace",
              "type": "address"
            },
            {
              "internalType": "address",
              "name": "hiBeatsRoyalties",
              "type": "address"
            },
            {
              "internalType": "address",
              "name": "hiBeatsProfile",
              "type": "address"
            },
            {
              "internalType": "address",
              "name": "hiBeatsPlaylist",
              "type": "address"
            },
            {
              "internalType": "address",
              "name": "hiBeatsFactory",
              "type": "address"
            },
            {
              "internalType": "address",
              "name": "hiBeatsDiscovery",
              "type": "address"
            },
            {
              "internalType": "address",
              "name": "hiBeatsStaking",
              "type": "address"
            },
            {
              "internalType": "address",
              "name": "hiBeatsAnalytics",
              "type": "address"
            },
            {
              "internalType": "address",
              "name": "hiBeatsInteractionManager",
              "type": "address"
            },
            {
              "internalType": "address",
              "name": "hiBeatsGovernance",
              "type": "address"
            }
          ],
          "internalType": "struct HiBeatsDeployer.ContractAddresses",
          "name": "",
          "type": "tuple"
        }
      ],
      "stateMutability": "view",
      "type": "function"
    },
    {
      "inputs": [],
      "name": "isDeployed",
      "outputs": [
        {
          "internalType": "bool",
          "name": "",
          "type": "bool"
        }
      ],
      "stateMutability": "view",
      "type": "function"
    }
  ],
  "bytecode": "0x6080806040523461002a57600c80546001600160a01b03191633179055620281559081620000308239f35b600080fdfe608060405260043610156200001357600080fd5b6000803560e01c806343bae1c8146200070a5780636c96b3001462000236578063aa9a068f1462000161578063c52046de1462000139578063c54a958814620000935763d5f39488146200006657600080fd5b346200009057806003193601126200009057600c546040516001600160a01b039091168152602090f35b80fd5b5034620000905780600319360112620000905754600154600254600354600454600554600654600754600854600954600a54600b54604080516001600160a01b039d8e1681529b8d1660208d0152998c16998b0199909952968a1660608a0152948916608089015292881660a088015290871660c0870152861660e086015285166101008501528416610120840152831661014083015290911661016082015261018090f35b50346200009057806003193601126200009057602060ff600c5460a01c166040519015158152f35b503462000090578060031936011262000090576200017e620015be565b50620002326200018d62001644565b6040519182918291909161018081019260018060a01b038082511683528060208301511660208401528060408301511660408401528060608301511660608401528060808301511660808401528060a08301511660a08401528060c08301511660c08401528060e08301511660e08401526101008181840151169084015261012081818401511690840152610140818184015116908401526101608092015116910152565b0390f35b5034620000905780600319360112620000905760ff600c5460a01c1615620006cc57546001600160a01b03906200026f908216620016fe565b81600154166200027f90620016fe565b82600254166200028f90620016fe565b928060035416620002a090620016fe565b908060045416620002b190620016fe565b948160055416620002c290620016fe565b958260065416620002d390620016fe565b948360075416620002e490620016fe565b918460085416620002f590620016fe565b9085600954166200030690620016fe565b9386600a54166200031790620016fe565b96600b54166200032790620016fe565b986040519b8c809c602082017f486942656174732045636f73797374656d204465706c6f796d656e742052657090526337b93a0560e11b6040830152604482017f3d3d3d3d3d3d3d3d3d3d3d3d3d3d3d3d3d3d3d3d3d3d3d3d3d3d3d3d3d3d3d3d9052631e9e9e8560e11b6064830152606882016d02434a132b0ba39aa37b5b2b71d160951b9052805160768193019160200191620003c69262001599565b8c0193600560f91b9a8b998a98878a6076819a0152607781016b02434a132b0ba39a7232a1d160a51b905281519182608383019160200191620004099262001599565b01876083820152608481017302434a132b0ba39a6b0b935b2ba383630b1b29d160651b905281519182609883019160200191620004469262001599565b01866098820152609981017102434a132b0ba39a937bcb0b63a34b2b99d160751b90528151918260ab83019160200191620004819262001599565b018560ab82015260ac81016f02434a132b0ba39a83937b334b6329d160851b90528151918260bc83019160200191620004ba9262001599565b018460bc82015260bd81017002434a132b0ba39a83630bcb634b9ba1d1607d1b90528151918260ce83019160200191620004f49262001599565b018360ce82015260cf81016f02434a132b0ba39a330b1ba37b93c9d160851b90528151918260df830191602001916200052d9262001599565b018260df82015260e081017102434a132b0ba39a234b9b1b7bb32b93c9d160751b90528151918260f283019160200191620005689262001599565b018160f282015260f381016f02434a132b0ba39a9ba30b5b4b7339d160851b905282519061010393828583019160200191620005a49262001599565b019182015261010481017102434a132b0ba39a0b730b63cba34b1b99d160751b905282519061011693828583019160200191620005e19262001599565b019182015261011781017f48694265617473496e746572616374696f6e4d616e616765723a200000000000905282519061013293828583019160200191620006299262001599565b019182015261013381017202434a132b0ba39a3b7bb32b93730b731b29d1606d1b905282519061014693828583019160200191620006679262001599565b019182015203610127810182526101470162000684908262001517565b60405180916060825280519081606084015281608084019160200191620006ab9262001599565b602082016001905260408201600d9052601f1990601f011681010360800190f35b60405162461bcd60e51b81526020600482015260166024820152751158dbdcde5cdd195b481b9bdd0819195c1b1bde595960521b6044820152606490fd5b5034620000905760a036600319011262000090576004356001600160401b038111620014cc576200074090369060040162001539565b506024356001600160401b038111620014cc576200076390369060040162001539565b506044356001600160401b038111620014cc576200078690369060040162001539565b506064356001600160401b038111620014cc57620007a990369060040162001539565b50608435906001600160a01b03821682036200009057620007c9620015be565b50600c546001600160a01b0381169033829003620014875760a01c60ff166200144f57604051906117ea808301908382106001600160401b038311176200143b5791808080620008219487966202693688396200161a565b039082f080156200142e5781546001600160a01b0319166001600160a01b03828116919091178355600c54604051916146ff80840192909116906001600160401b038311848410176200140f57918391602093620169d08439815203019083f080156200123257600180546001600160a01b0319166001600160a01b0383161790556040516128dd808201906001600160401b038211838310176200140f579082916201e8fe8339039084f09384156200125d57600480546001600160a01b0319166001600160a01b0387811691909117909155600c5460405192911690611f4b80840191906001600160401b03831185841017620013e557918493916200093f93620211db86396001600160a01b0387811692908916906200161a565b039084f080156200125d57600380546001600160a01b0319166001600160a01b0383811691909117909155600c54604051911661582e808301906001600160401b03821184831017620013e55791620009be918493620111a285396001600160a01b038781168252888116602083015291909116604082015260600190565b039085f09283156200142357600280546001600160a01b0319166001600160a01b0386161790556040516001600160401b0361382f8201908111908211176200140f5761382f6201b0cf82396001600160a01b0384811661382f830190815290831660208201528190036040019086f09384156200140457600580546001600160a01b0319166001600160a01b0387811691909117909155600c5460405191166001600160401b03612cd2830190811190831117620013e55762000aae8291612cd26200a61f84396001600160a01b03888116612cd2850190815287821660208201529116604082015260600190565b039087f0948515620013f957600680546001600160a01b0319166001600160a01b0388161790556040516001600160401b0361520f820190811190821117620013e55761520f6200541082398062000b206001600160a01b03848116908c811690888116908b1661520f86016200161a565b039088f08015620013da57600780546001600160a01b0319166001600160a01b0383811691909117909155600c5460405191166001600160401b03613810830190811190831117620013bb5762000b9882916138106202312684396001600160a01b038d8116908b8116908a1661381086016200161a565b039089f08015620013cf57600880546001600160a01b0319166001600160a01b0383161790556040516001600160401b03613b86820190811190821117620013bb57613b866200188a82396001600160a01b03888116613b8683019081528782166020820152908c166040820152819060600103908af0918215620013b057600980546001600160a01b0319166001600160a01b0385811691909117909155600c5460405191166001600160401b03611e718301908111908311176200139c57611e716200f3318339611e71820152602081611e7181010301908bf09384156200139157600a80546001600160a01b0319166001600160a01b0387811691909117909155600c5460405191169c906001600160401b036120408201908111908211176200137d578062000cec8e9f9e9d9e6120406200d2f18439806001600160a01b03898116908e1661204086016200161a565b03908cf080156200137257600b80546001600160a01b0319166001600160a01b0392831617905586163b156200136e576040516360ac123560e01b81526001600160a01b03988916600482015299881660248b01529a871660448a015294861660648901526084880189905295851660a488015297841660c487015291831660e4860152928216610104850152948116610124840152938416610144830152909283916101649183918591165af1801562001232576200135c575b50805460065482916001600160a01b039182169116803b15620012c857828091604460405180948193631dab175b60e31b978884526004840152600160248401525af19081156200125d57839162001344575b505081546008546001600160a01b039182169116813b156200123d5783916044839260405194859384928884526004840152600160248401525af19081156200125d5783916200132c575b50508154600a546001600160a01b03918216929116823b156200123d576044849283604051958694859384526004840152600160248401525af18015620012325762001314575b506001546006546001600160a01b039081169116803b15620012c8578280916044604051809481936370a1a7a760e11b978884526004840152600160248401525af19081156200125d578391620012fc575b5050600154600a546001600160a01b03918216929116823b156200123d576044849283604051958694859384526004840152600160248401525af180156200123257620012e4575b506001546002546001600160a01b039182169116813b15620012c857829160448392604051948593849263a22cb46560e01b84526004840152600160248401525af180156200123257620012cc575b506009546006546001600160a01b039081169116803b15620012c857828091604460405180948193635a6f409560e01b978884526004840152600160248401525af19081156200125d578391620012b0575b50506009546002546001600160a01b039182169116813b156200123d5783916044839260405194859384928884526004840152600160248401525af19081156200125d57839162001298575b50506009546005546001600160a01b039182169116813b156200123d5783916044839260405194859384928884526004840152600160248401525af19081156200125d57839162001280575b50506009546007546001600160a01b039182169116813b156200123d5783916044839260405194859384928884526004840152600160248401525af19081156200125d57839162001268575b50506009546008546001600160a01b039182169116813b156200123d5783916044839260405194859384928884526004840152600160248401525af19081156200125d57839162001242575b5050600954600a546001600160a01b03918216929116823b156200123d576044849283604051958694859384526004840152600160248401525af1801562001232576200121a575b50600c805460ff60a01b198116600160a01b179091556040805192546001600160a01b039081168452600154811660208501526002548116918401919091526003548116606084015260045481166080840152600554811660a0840152600654811660c0840152600754811660e084015260085481166101008401526009548116610120840152600a548116610140840152600b5481166101608401524261018084015216907fe7cc9f5fb4539b2a4749d1debcc145b23a0278c40f0f3d43ab11b477e4cd8d42906101a090a2620002326200018d62001644565b6200122590620014d0565b620000905780386200113f565b6040513d84823e3d90fd5b505050fd5b6200124d90620014d0565b6200125a578138620010f7565b50fd5b6040513d85823e3d90fd5b6200127390620014d0565b6200125a578138620010ab565b6200128b90620014d0565b6200125a5781386200105f565b620012a390620014d0565b6200125a57813862001013565b620012bb90620014d0565b6200125a57813862000fc7565b5050fd5b620012d790620014d0565b6200009057803862000f75565b620012ef90620014d0565b6200009057803862000f26565b6200130790620014d0565b6200125a57813862000ede565b6200131f90620014d0565b6200009057803862000e8c565b6200133790620014d0565b6200125a57813862000e45565b6200134f90620014d0565b6200125a57813862000dfa565b6200136790620014d0565b3862000da7565b8a80fd5b6040513d8d823e3d90fd5b634e487b7160e01b8d52604160045260248dfd5b6040513d8c823e3d90fd5b634e487b7160e01b8c52604160045260248cfd5b6040513d8b823e3d90fd5b634e487b7160e01b8a52604160045260248afd5b6040513d8a823e3d90fd5b6040513d89823e3d90fd5b634e487b7160e01b88526041600452602488fd5b6040513d88823e3d90fd5b6040513d87823e3d90fd5b634e487b7160e01b86526041600452602486fd5b6040513d86823e3d90fd5b50604051903d90823e3d90fd5b634e487b7160e01b85526041600452602485fd5b60405162461bcd60e51b815260206004820152601060248201526f105b1c9958591e4819195c1b1bde595960821b6044820152606490fd5b60405162461bcd60e51b815260206004820152601860248201527f4f6e6c79206465706c6f7965722063616e206465706c6f7900000000000000006044820152606490fd5b5080fd5b6001600160401b038111620014e457604052565b634e487b7160e01b600052604160045260246000fd5b61018081019081106001600160401b03821117620014e457604052565b90601f801991011681019081106001600160401b03821117620014e457604052565b81601f8201121562001594578035906001600160401b038211620014e4576040519262001571601f8401601f19166020018562001517565b828452602083830101116200159457816000926020809301838601378301015290565b600080fd5b60005b838110620015ad5750506000910152565b81810151838201526020016200159c565b60405190620015cd82620014fa565b816101606000918281528260208201528260408201528260608201528260808201528260a08201528260c08201528260e08201528261010082015282610120820152826101408201520152565b6001600160a01b039182168152918116602083015291821660408201529116606082015260800190565b604051906200165382620014fa565b6000546001600160a01b03908116835260015481166020840152600254811660408401526003548116606084015260045481166080840152600554811660a0840152600654811660c0840152600754811660e084015260085481166101008401526009548116610120840152600a548116610140840152600b5416610160830152565b908151811015620016e8570160200190565b634e487b7160e01b600052603260045260246000fd5b604080516001600160401b03926001600160a01b0316919080820184811182821017620014e4578252601081526020916f181899199a1a9b1b9c1cb0b131b232b360811b83830152805194606086019086821090821117620014e4578152602a855282850190368237845115620016e85760309053835192600193841015620016e8576078602186015360005b601481106200179c57505050505090565b600c8101808211620018495784811015620016e85782901a60046001600160f81b0319600f81620017d285851c831689620016d6565b511693858a1b94600290878704821488151715620018745786820180921162001874576200180c620018159493928e9260001a92620016d6565b531687620016d6565b51169060039283018093116200185f5750620018369060001a9188620016d6565b536000198114620018495784016200178b565b634e487b7160e01b600052601160045260246000fd5b601190634e487b7160e01b6000525260246000fd5b601186634e487b7160e01b6000525260246000fdfe60e0346200016657601f62003b8638819003918201601f19168301916001600160401b038311848410176200016b5780849260609460405283398101031262000166576200004d8162000181565b620000696040620000616020850162000181565b930162000181565b33156200014d5760008054336001600160a01b03198216811783556040805196909593946001600160a01b03949093859384929183167f8be0079c531659141344cd1fd0a4f28419497f9722a3daafe3b4186f6b6457e08980a3600180556301e13380601f55670de0b6b3a7640000602055166080521660a0521660c052338152602160205220600160ff198254161790556139ef908162000197823960805181818161029e01528181610f570152818161133901528181611961015281816124e701526128cf015260a051818181610b0e01526120be015260c05181611ba90152f35b604051631e4fbdf760e01b815260006004820152602490fd5b600080fd5b634e487b7160e01b600052604160045260246000fd5b51906001600160a01b0382168203620001665756fe6080604052600436101561001257600080fd5b6000803560e01c80630f1cae72146128675780631102610e1461281d5780631508f91d14610e585780631e7b4d6e146127fa5780631f66cfb3146127d0578063292f0ea0146127625780632a3f7b43146125165780632f9662c5146124d15780633a41429a146124925780633f4ba83a1461242757806341db2e53146123de578063430e9dc014612330578063512c19b014611e005780635a6f409514611dad5780635c975abb14611d8a5780636f963e2e14611d2d578063715018a614611cd357806373b0b19e14611c9a578063754d3d8e14611bd857806375a2d46c14611b9357806376285e58146118f65780637d582f63146118d957806382e8c432146118af5780638456cb59146118545780638598bcc4146116e15780638a17d111146115575780638b739d2a1461150e5780638da5cb5b146114e75780638f909d50146114b5578063963c0ad5146112b45780639c3f6350146112725780639cb13c90146110d7578063a1e750c11461103c578063a2d7cd2f14610f25578063a476d52f14610e9d578063a5dc495414610e58578063b0c1b74614610de6578063b44b22c814610d19578063b493789214610c4a578063b9fceec314610bf4578063bfd8d78b14610b6a578063c3fe1c2414610b3d578063c46a20a214610af8578063c800adaf14610a60578063c8127b4d14610a42578063ccf070b614610841578063e601184214610817578063e843f61c146107a5578063f2fde38b14610715578063f9b87efb146104555763faaf80761461024e57600080fd5b346104525760209081600319360112610452576001600160a01b039081610273612c7a565b16808252600384526040822091806040518095819463a8e3a3fd60e01b8352600483015260249687917f0000000000000000000000000000000000000000000000000000000000000000165afa9182156104455781926103a7575b50815160058111156103a157506005905b6102e882613471565b94815b83811061035357878761034f88610341815493600183015492600281015461031a6006600884015493016133bd565b9460405198899889528801526040870152606086015260c0608086015260c0850190612dfa565b9083820360a08501526130bf565b0390f35b8451600019810190811161038e5790610378610372826103899461351d565b8761352a565b51610383828a61352a565b526132ee565b6102eb565b634e487b7160e01b845260116004528284fd5b906102df565b9091503d8083833e6103b98183612d26565b810190858183031261043d578051906001600160401b03821161044157019080601f8301121561043d5781516103ee816133a6565b926103fc6040519485612d26565b818452878085019260051b820101928311610439579087809201905b83821061042a575050505090386102ce565b81518152908201908201610418565b8480fd5b8280fd5b8380fd5b50604051903d90823e3d90fd5b80fd5b50346104525760803660031901126104525761046f612c7a565b90602480356001600160401b03811161043d57610490903690600401612d62565b6001600160a01b03606435818116959060443590879003610710573386526020966021885260ff6040882054168015610704575b6104cd906131a1565b6104d5613280565b84518886019081206104e5613386565b8051908b0120036105c3575083831687526003885260086040882001978854600181018091116105b05788995582610590575b505b303b1561058c5761054d879560a06040519889978897630512c19b60e41b895216600488015286015260a4850190612e6b565b9160448401528460648401526084830152038183305af18015610581576105715750f35b61057a90612c90565b6104525780f35b6040513d84823e3d90fd5b8680fd5b60049083895252600460408820016105a881546132ee565b905538610518565b634e487b7160e01b895260116004528789fd5b7fc4cdc3d8a828364413eb5a76eb1fa4225d58cb47d3674544d05ebb54f20c55298651822064736861726560d81b8b6040516105fe81612d0b565b60058152015203610657575083831687526003885260086040882001978854600281018091116105b05788995582610637575b5061051a565b600490838952526005604088200161064f81546132ee565b905538610631565b7fb310266d69f421415e821574c5efe5053ba243443ecc3f609978603e8e9bfd3f908699929951902065666f6c6c6f7760d01b8360405161069781612d0b565b600681520152146106ab575b50859661051a565b83831687526003815260086040882001805490600382018092116105b0579060039291558888525260086040872001968754600181018091116106f157879855966106a3565b634e487b7160e01b885260116004528688fd5b508654841633146104c4565b600080fd5b50346104525760203660031901126104525761072f612c7a565b610737613175565b6001600160a01b0390811690811561078c57600054826bffffffffffffffffffffffff60a01b821617600055167f8be0079c531659141344cd1fd0a4f28419497f9722a3daafe3b4186f6b6457e0600080a380f35b604051631e4fbdf760e01b815260048101849052602490fd5b50346104525760203660031901126104525761080960043561034f6107f56107cc836133a6565b926107da6040519485612d26565b808452601f196107e9826133a6565b01366020860137613471565b604051938493604085526040850190612e2e565b908382036020850152612dfa565b50346104525760203660031901126104525760406020916004358152601483522054604051908152f35b503461045257602080600319360112610a3e5760043590610860613175565b601f61086d81544261351d565b8492855b6008805480831080610a35575b15610a315784600461088f8561313a565b500154106108a8575b50506108a3906132ee565b610871565b91959160001990808201908111610a1d576108c29061313a565b506108cc8861313a565b919091610a09578082036109ae575b50508154801561099a5701906108f08261313a565b61098657916108a3939160006005858d61093d97558d60018c818401916109178354612f4b565b9182610945575b50505050508260028201558260038201558260048201550155556132ee565b949038610898565b8d8184116001146109635750505050849150555b8d3880808e61091e565b9161097f9185938a9596885287209501881c85019085016131ed565b5555610959565b634e487b7160e01b8a5260048a905260248afd5b634e487b7160e01b8a52603160045260248afd5b805482546001600160a01b0319166001600160a01b03919091161782556109db600182810190840161371b565b60028082015490830155600380820154908301556004810154600483015560058091015491015538806108db565b634e487b7160e01b8b5260048b905260248bfd5b634e487b7160e01b8a52601160045260248afd5b8880f35b5087871061087e565b5080fd5b50346104525780600319360112610452576020601f54604051908152f35b5034610452576020366003190112610452576040906001600160a01b03610a85612c7a565b168152600360205220805461034f6001830154926002810154906003810154600482015460058301549160096008850154940154946040519889988994919260e0969399989794919961010087019a8752602087015260408601526060850152608084015260a083015260c08201520152565b50346104525780600319360112610452576040517f00000000000000000000000000000000000000000000000000000000000000006001600160a01b03168152602090f35b503461045257806003193601126104525760025460405160089190911c6001600160a01b03168152602090f35b5034610452576020366003190112610452576040906004358152600460205220805461034f6001830154926002810154906003810154600482015460058301549160076006850154940154946040519889988994919260e0969399989794919961010087019a8752602087015260408601526060850152608084015260a083015260c08201520152565b503461045257604036600319011261045257610c0e612c7a565b6001600160a01b0316815260096020526040812080546024359290831015610452576020610c3c8484612dcc565b90546040519160031b1c8152f35b503461045257610c5936612e90565b818193929310610cdf5782610c6d9161351d565b9060018201809211610ccb57610c8282613471565b92815b838110610ca2576040516020808252819061034f90820188612dfa565b80610cb0610cc69284613313565b845260146020526040842054610383828861352a565b610c85565b634e487b7160e01b81526011600452602490fd5b60405162461bcd60e51b8152602060048201526012602482015271496e76616c696420646174652072616e676560701b6044820152606490fd5b503461045257604036600319011261045257610d33612c7a565b6001600160a01b0316815260096020526040812060249190823590610d5790613422565b8051909181811115610dde5750915b610d6f836134a3565b93815b848110610d87576040518061034f8882612ea6565b8351600019810190811161038e5790610dbe610db8610db2610dac84610dd99661351d565b8861352a565b5161313a565b5061353e565b610dc8828961352a565b52610dd3818861352a565b506132ee565b610d72565b905091610d66565b503461045257602036600319011261045257600435610e03613175565b62278d008110610e1357601f5580f35b60405162461bcd60e51b815260206004820152601a60248201527f526574656e74696f6e20706572696f6420746f6f2073686f72740000000000006044820152606490fd5b5034610452578060031936011261045257600c54600d54600e54600f54601054604080519586526020860194909452928401919091526060830152608082015260a090f35b5034610452576020908160031936011261045257600435610ebd816133a6565b91610ecb6040519384612d26565b818352601f19610eda836133a6565b01905b818110610f1657610f098461034f87610ef587613471565b6040519485946040865260408601906130bf565b9184830390850152612dfa565b60608482018601528401610edd565b503461045257602080600319360112610a3e57604051634f558e7960e01b8152600480359082018190529082816024817f00000000000000000000000000000000000000000000000000000000000000006001600160a01b03165afa908115611031578491610fef575b5092604091610f9f60e0956132ab565b815260048352209081549160018101546002820154600483015490600584015492600760068601549501549560405197885287015260408601526060850152608084015260a083015260c0820152f35b90508281813d831161102a575b6110068183612d26565b810103126104415792604091610f9f61102060e09661329e565b9295505091610f8f565b503d610ffc565b6040513d86823e3d90fd5b503461045257602036600319011261045257600435600854811015610a3e576110649061313a565b5060018060a01b038154166040519161108b836110848160018501613029565b0384612d26565b60028101549060038101549060056004820154910154916110be604051968796875260c0602088015260c0870190612e6b565b9360408601526060850152608084015260a08301520390f35b5034610452576020366003190112610452576004356005811015610a3e579060409181610120845161110881612cef565b82815282602082015282868201528260608201528260808201528260a08201528260c08201528260e0820152606061010082015201526111478161359a565b9082526005602052828220908252602052206040519061116682612cef565b8054825260018101546020830152600281015460408301526003810154606083015260048101546080830152600581015460a0830152600681015460c0830152600781015460e08301526040516111cb816111c48160088601613029565b0382612d26565b610100830152600960018060a01b039101541661012082015260405180916020825280516020830152602081015160408301526040810151606083015260608101516080830152608081015160a083015260a081015160c083015260c081015160e083015260e081015161010083015261010081015161125a6101409182610120860152610160850190612e6b565b610120909201516001600160a01b0316908301520390f35b5034610452578060031936011261045257601a54601b549061034f601c54604051906112a8826112a181612f85565b0383612d26565b60405194859485613114565b503461045257606036600319011261045257806112cf612c7a565b6024356044356001600160401b03811161145c576112f1903690600401612d62565b913384526020906021825260ff60408620541680156114a2575b611314906131a1565b604051634f558e7960e01b8152600481018490526001600160a01b03919083816024817f000000000000000000000000000000000000000000000000000000000000000087165afa8015611497578790611461575b61137391506132ab565b61137b613280565b1692838552600382526040852061139281546132ee565b90556016604051928251938181818601966113ae81838a612da9565b810160068152030190206113c281546132ee565b905585875260078152604087206113d981546132ee565b9055620151804204875252604085206113f281546132ee565b905551902090303b1561145c5760405192630512c19b60e41b8452600484015260a06024840152600d60a48401526c1d1c9858dad7d8dc99585d1959609a1b60c484015260448301528260648301526084820152818160e48183305af18015610581576105715750f35b505050fd5b508381813d8311611490575b6114778183612d26565b8101031261058c5761148b6113739161329e565b611369565b503d61146d565b6040513d89823e3d90fd5b5084546001600160a01b0316331461130b565b5034610452576114c436612e90565b91908152600a60205260408120908154831015610452576020610c3c8484612dcc565b5034610452578060031936011261045257546040516001600160a01b039091168152602090f35b5034610452576020366003190112610452576040906004358152601e60205220600381015461034f60066004840154936112a86005820154916112a16040518095819301613029565b503461045257602080600319360112610a3e57600435600581101561043d5761157e613175565b6115878161359a565b8184526005835260408085208286528452842060085490929080156116da57600a90045b83556103e86002840155600c54600484015560105460068401556116c557835260148252600160408420549101555b604b601a55600c5460105490919080156116bd575b80156116a7577fb718fa3e1af97eb72b95a2cd5c273d5ce272fa9816ea160a3394f1753aac53b79204601b556019601c55428352601e8152604083206017810361165c575b50601a5460405191428352820152606060408201528061165660608201612f85565b0390a180f35b60068161166b6116a19361381c565b61167760018201613929565b611683600282016138a4565b601a546003820155601b546004820155601c54600582015501613602565b38611634565b634e487b7160e01b600052601260045260246000fd5b5060016115ef565b835260148252600160408420549101556115da565b50846115ab565b50346104525760209081600319360112610452576116fd612c7a565b90604080519161170c83612cef565b808352808584015280828401528060608401528060808401528060a0840152606060c0840152606060e0840152610100938185850152816101208095015260018060a01b0316815260038552209160405192839261176984612cef565b8154845261184560018301549287860193845260028101546040870190815260038201546060880190815260048301546080890190815260058401549160a08a019283526117b9600686016133bd565b9360c08b0194855260096117cf60078801613422565b9660e08d019788528b60088201549d019c8d52015498888d01998a526040518e819f9e829f8352519101525160408d01525160608c01525160808b01525160a08a01525160c08901525194611832610140968760e08b01526101608a01906130bf565b915190601f198984030190890152612dfa565b93519085015251908301520390f35b503461045257806003193601126104525761186d613175565b611875613280565b600160ff1960025416176002557f62e78cea01bee320cd4e420270b5ea74000d11b0c9f74754ebdbfc544b05a2586020604051338152a180f35b50346104525760203660031901126104525760406020916004358152601683522054604051908152f35b503461045257806003193601126104525760208054604051908152f35b50346104525760803660031901126104525780611911612c7a565b6024356044356064359133855260206021815260ff6040872054168015611b80575b61193c906131a1565b604051634f558e7960e01b8152600481018390526001600160a01b03919081816024817f000000000000000000000000000000000000000000000000000000000000000087165afa8015611b75578890611b3b575b61199b91506132ab565b6119a3613280565b8287526004815260408720916119b983546132ee565b8355600a83019616958660005280825260406000206119d881546132ee565b905586600052815260096001928360406000205414611b27575b85611b0f575b6018610e10420406895201815260408720611a1381546132ee565b90558587526003815260408720828101611a2d81546132ee565b905542600582015585611af7575b50620151804204908688526022815260408820828952815260ff60408920541615611abe575b505050303b156104395760405193630512c19b60e41b8552600485015260a06024850152600460a485015263706c617960e01b60c4850152604484015260648301526084820152818160e48183305af18015610581576105715750f35b6014815260408820611ad081546132ee565b9055868852602281526040882091885252604086209060ff19825416179055388080611a61565b600401611b05868254613313565b831c905538611a3b565b60028101611b1e878254613313565b851c90556119f8565b838101611b3481546132ee565b90556119f2565b508181813d8311611b6e575b611b518183612d26565b81010312611b6a57611b6561199b9161329e565b611991565b8780fd5b503d611b47565b6040513d8a823e3d90fd5b5085546001600160a01b03163314611933565b50346104525780600319360112610452576040517f00000000000000000000000000000000000000000000000000000000000000006001600160a01b03168152602090f35b503461045257604090611bea36612e90565b9082526005602052828220908252602052208054600182015491611c8f60028201549160038101546004820154600583015460068401549160078501549360405195611c4487611c3d8160088501613029565b0388612d26565b600960018060a01b0391015416976040519a8b9a8b5260208b015260408a01526060890152608088015260a087015260c086015260e085015261014080610100860152840190612e6b565b906101208301520390f35b5034610452576020366003190112610452576020906040906001600160a01b03611cc2612c7a565b168152600783522054604051908152f35b5034610452578060031936011261045257611cec613175565b600080546001600160a01b0319811682556001600160a01b03167f8be0079c531659141344cd1fd0a4f28419497f9722a3daafe3b4186f6b6457e08280a380f35b503461045257602036600319011261045257600435906001600160401b038211610452576020611d7781611d643660048701612d62565b8160405193828580945193849201612da9565b8101600681520301902054604051908152f35b5034610452578060031936011261045257602060ff600254166040519015158152f35b503461045257604036600319011261045257611dc7612c7a565b6024359081151580920361071057611ddd613175565b60018060a01b031682526021602052604082209060ff8019835416911617905580f35b50346104525760a036600319011261045257611e1a612c7a565b6001600160401b0360243581811161044157611e3a903690600401612d62565b90338452602160205260ff604085205416801561231d575b611e5b906131a1565b611e63613280565b60085490604051611e7381612cd4565b6001600160a01b0385168152602081018481526044356040830152606435606083015242608083015260843560a083015291600160401b8410156123095760018401600855611ec18461313a565b9390936122f557825184546001600160a01b0319166001600160a01b03919091161784555180519182116122e157611f0982611f006001870154612f4b565b60018701613204565b602090601f831160011461226f5791806005949260a0948b92612264575b50508160011b916000199060031b1c19161760018501555b604081015160028501556060810151600385015560808101516004850155015191015560018060a01b03831684526009602052611f7f816040862061324b565b604435151580612248575b611fb56040519284519360208181880196611fa681838a612da9565b8101600b81520301902061324b565b8251822063706c617960e01b6020604051611fcf81612d0b565b6004815201527f1a1c4a0db2b08b026c4e31bf76d5dd9b92aa54c0978df57474355786073775e8810361218f575b50506001600160a01b0383168452602260209081526040808620620151804204808852925285205460ff161561208b575b50604051915182916120439082908490612da9565b8101039020604080516064358152426020820152604435936001600160a01b0316917fad43dce6926bc8385980748ad240140c10230c392a85adae94b44d87205b785091a480f35b6001600160a01b038481168652602260209081526040808820938852928152918620805460ff19166001179055905485917f00000000000000000000000000000000000000000000000000000000000000001690813b1561043d576040516340c10f1960e01b81526001600160a01b038716600482015260248101919091529082908290604490829084905af180156105815761217b575b505061204391602054604051908152604060208201527f19bfa71f6fef48597fdf2f502508e91650576b60eb0db11ab493a6f260df718160018060a01b03861691806121726040820186612e6b565b0390a29161202e565b61218490612c90565b610441578338612123565b612197613386565b6020815191012081146000146121d657506121b4575b3880611ffd565b60443584526004602052600460408520016121cf81546132ee565b90556121ad565b7f06f6e1974cc1ce1b0d5487b4520df646ec8dfdf09922f89439e248b04005d60790630736b69760e41b602060405161220e81612d0b565b6004815201520361223957156121ad5760443584526004602052600360408520016121cf81546132ee565b50612242613362565b506121ad565b6044358552600a60205261225f826040872061324b565b611f8a565b015190503880611f27565b906001850189526020892091895b601f19851681106122c95750926005949260019260a09583601f198116106122b0575b505050811b016001850155611f3f565b015160001960f88460031b161c191690553880806122a0565b9192602060018192868501518155019401920161227d565b634e487b7160e01b88526041600452602488fd5b634e487b7160e01b88526004889052602488fd5b634e487b7160e01b87526041600452602487fd5b5083546001600160a01b03163314611e52565b50346104525761233f36612e90565b908252600a60205261235360408320613422565b80519091818111156123d65750905b61236b826134a3565b92805b838110612383576040518061034f8782612ea6565b825160001981019081116123c257906123a8610db8610db2610372846123bd9661351d565b6123b2828861352a565b52610dd3818761352a565b61236e565b634e487b7160e01b83526011600452602483fd5b905090612362565b50346104525760403660031901126104525760209060ff906040906001600160a01b03612409612c7a565b16815260228452818120602435825284522054166040519015158152f35b5034610452578060031936011261045257612440613175565b60025460ff8116156124805760ff19166002557f5db9ee0a495bf2e6ff9c91a7834c1ba4fdd244a5e8aa4e537bd38aeae4b073aa6020604051338152a180f35b604051638dfc202b60e01b8152600490fd5b50346104525760203660031901126104525760209060ff906040906001600160a01b036124bd612c7a565b168152602184522054166040519015158152f35b50346104525780600319360112610452576040517f00000000000000000000000000000000000000000000000000000000000000006001600160a01b03168152602090f35b503461045257806003193601126104525760405161253381612cb9565b6060918282528260c0602093828582015282604082015283838201528360808201528360a0820152015260405161256981612cb9565b604051808185601754928381520160176000527fc624b66cc0138b8fabc209247f72d758e1cf3343756d543badbf24212bed8c159260005b8882821061274c575050506125b892500382612d26565b81526040519182809385601854918281520190601884527fb13d2d76d1f4b7be834882e410b3e3a8afaf69f83600ae24db354391d2378d2e935b8782821061272d5750505061260992500383612d26565b82810191825260405193848460195491828152019060196000527f944998273e477b495144fb8794c914197f3ccb46be2900f4698fd0ef743c96959060005b8181106127195760e08861034f8b8a8a8a612665848c0385612d26565b60408201938452601a54938183019485526126f6601b549160808501928352601c549360a086019485526126e56126cf604051976126ad896126a681612f85565b038a612d26565b60c081019889526040519d8d8f9e928f938452519201526101008d0190612dfa565b9751601f198c8a03810160408e01529890612e2e565b915190878b840301908b0152612dfa565b945160808801525160a08701525160c086015251908483030160e0850152612e6b565b825484529287019260019283019201612648565b85546001600160a01b03168452600195860195889550930192016125f2565b85548452600195860195879550930192016125a1565b5034610452576040366003190112610452576004356001600160401b038111610a3e57612793903690600401612d62565b906127b06020602435938160405193828580945193849201612da9565b8101600b815203019020908154831015610452576020610c3c8484612dcc565b50346104525760203660031901126104525760406020916004358152601583522054604051908152f35b503461045257602036600319011261045257612814613175565b60043560205580f35b503461045257602036600319011261045257612837612c7a565b61283f613175565b60028054610100600160a81b03191660089290921b610100600160a81b031691909117905580f35b50346104525760a036600319011261045257612881612c7a565b906024356001600160a01b038181169182900361043d576064359160443560843580151503610439573385526020926021845260ff6040872054168015612c6e575b6128cc906131a1565b807f00000000000000000000000000000000000000000000000000000000000000001690604051634f558e7960e01b81528360048201528581602481865afa908115611b75578891612c2d575b50816024996129288a936132ab565b612930613280565b858352600488526006604084208a60078201550161294f8a8254613313565b90551692838252600387526003604083200161296c898254613313565b90558582526003875260026040832001612987898254613313565b905561299588600c54613313565b600c55620151804204825260118752604082206129b3898254613313565b90556129c188601054613313565b601055604051998a8092633c57017760e11b82528760048301525afa978815611497578798612b14575b5050612a0e84808899989596979801518160405193828580945193849201612da9565b81016013815203019020612a23878254613313565b9055612a2d613362565b91303b1561044157612a61946040519586948594630512c19b60e41b8652600486015260a0602486015260a4850190612e6b565b9160448401528760648401526084830152038183305af1801561103157612ad9575b507f370687c39cc6364be25ef303ad1e0230a77456810b12183833199d3c8b51316e91606060a092604051928352820152600b60608201526a6d61726b6574706c61636560a81b6080820152426040820152a180f35b91606060a09294612b0a7f370687c39cc6364be25ef303ad1e0230a77456810b12183833199d3c8b51316e95612c90565b9492505091612a83565b9097503d8088833e612b268183612d26565b8101908581830312611b6a5780516001600160401b0391828211612c295701906101008083850312612c29576040519081019a818c10838d1117612c15578a9b60409b98999a9b528351838111612c115785612b83918601613320565b825289840151838111612c115785612b9c918601613320565b8a8301526040840151604083015260608401519081168103611b6a5760608201526080830151608082015260a083015191821161058c5760e083612be8612a0e968c9695879601613320565b60a0840152612bf960c0820161329e565b60c0840152015160e0820152995050949396956129eb565b8880fd5b634e487b7160e01b8b52604160045260248bfd5b8980fd5b90508581813d8311612c67575b612c448183612d26565b81010312611b6a5781602499612928612c5d8b9461329e565b9350509950612919565b503d612c3a565b508554811633146128c3565b600435906001600160a01b038216820361071057565b6001600160401b038111612ca357604052565b634e487b7160e01b600052604160045260246000fd5b60e081019081106001600160401b03821117612ca357604052565b60c081019081106001600160401b03821117612ca357604052565b61014081019081106001600160401b03821117612ca357604052565b604081019081106001600160401b03821117612ca357604052565b90601f801991011681019081106001600160401b03821117612ca357604052565b6001600160401b038111612ca357601f01601f191660200190565b81601f8201121561071057803590612d7982612d47565b92612d876040519485612d26565b8284526020838301011161071057816000926020809301838601378301015290565b60005b838110612dbc5750506000910152565b8181015183820152602001612dac565b8054821015612de45760005260206000200190600090565b634e487b7160e01b600052603260045260246000fd5b90815180825260208080930193019160005b828110612e1a575050505090565b835185529381019392810192600101612e0c565b90815180825260208080930193019160005b828110612e4e575050505090565b83516001600160a01b031685529381019392810192600101612e40565b90602091612e8481518092818552858086019101612da9565b601f01601f1916010190565b6040906003190112610710576004359060243590565b602080820190808352835180925260409283810182858560051b8401019601946000925b858410612edb575050505050505090565b909192939495968580600192603f198582030187528a5190848060a01b038251168152612f148383015160c08086850152830190612e6b565b918781015188830152606080820151908301526080808201519083015260a080910151910152990194019401929594939190612eca565b90600182811c92168015612f7b575b6020831014612f6557565b634e487b7160e01b600052602260045260246000fd5b91607f1691612f5a565b601d5460009291612f9582612f4b565b8082529160019081811690811561300c5750600114612fb357505050565b91929350601d6000527f6d4407e7be21f808e6509aa9fa9143369579dd7d760fe20a2c09680fc146134f916000925b848410612ff457505060209250010190565b80546020858501810191909152909301928101612fe2565b915050602093945060ff929192191683830152151560051b010190565b906000929180549161303a83612f4b565b91828252600193848116908160001461309c575060011461305c575b50505050565b90919394506000526020928360002092846000945b838610613088575050505001019038808080613056565b805485870183015294019385908201613071565b9294505050602093945060ff191683830152151560051b01019038808080613056565b90815180825260208092019182818360051b85019501936000915b8483106130ea5750505050505090565b909192939495848061310483856001950387528a51612e6b565b98019301930191949392906130da565b909260809261313795948352602083015260408201528160608201520190612e6b565b90565b600854811015612de4576006906008600052027ff3f7a9fe364faab93b216da50a3214154f22a0a2b415b23a84c8169e8b636ee30190600090565b6000546001600160a01b0316330361318957565b60405163118cdaa760e01b8152336004820152602490fd5b156131a857565b60405162461bcd60e51b815260206004820152601760248201527f4e6f7420617574686f72697a6564207265706f727465720000000000000000006044820152606490fd5b8181106131f8575050565b600081556001016131ed565b9190601f811161321357505050565b61323f926000526020600020906020601f840160051c83019310613241575b601f0160051c01906131ed565b565b9091508190613232565b8054600160401b811015612ca35761326891600182018155612dcc565b819291549060031b91821b91600019901b1916179055565b60ff6002541661328c57565b60405163d93c066560e01b8152600490fd5b5190811515820361071057565b156132b257565b60405162461bcd60e51b8152602060048201526014602482015273151bdad95b88191bd95cc81b9bdd08195e1a5cdd60621b6044820152606490fd5b60001981146132fd5760010190565b634e487b7160e01b600052601160045260246000fd5b919082018092116132fd57565b81601f8201121561071057805161333681612d47565b926133446040519485612d26565b81845260208284010111610710576131379160208085019101612da9565b6040519061336f82612d0b565b6008825267707572636861736560c01b6020830152565b6040519061339382612d0b565b60048252636c696b6560e01b6020830152565b6001600160401b038111612ca35760051b60200190565b9081546133c9816133a6565b926040936133d985519182612d26565b828152809460208092019260005281600020906000935b8585106133ff57505050505050565b60018481928451613414816111c4818a613029565b8152019301940193916133f0565b9060405191828154918282526020928383019160005283600020936000905b8282106134575750505061323f92500383612d26565b855484526001958601958895509381019390910190613441565b9061347b826133a6565b6134886040519182612d26565b8281528092613499601f19916133a6565b0190602036910137565b906134ad826133a6565b6040906134bc82519182612d26565b83815280936134cd601f19916133a6565b019160005b8381106134df5750505050565b60209082516134ed81612cd4565b600081526060600084918083850152818785015283015260006080830152600060a08301528286010152016134d2565b919082039182116132fd57565b8051821015612de45760209160051b010190565b9060405161354b81612cd4565b60a060058294600180841b038154168452604051613570816111c48160018601613029565b60208501526002810154604085015260038101546060850152600481015460808501520154910152565b60058110156135ec57806135b2575062015180420490565b600181036135c4575062093a80420490565b600281036135d6575062278d00420490565b6003036135e7576301e13380420490565b600090565b634e487b7160e01b600052602160045260246000fd5b90601d821461371757613616601d54612f4b565b916001600160401b038311612ca357613639836136338354612f4b565b83613204565b600092601f81116001146136745780919293600091613668575b508160011b916000199060031b1c1916179055565b9050601d015438613653565b8184526020808520601f19831695909181905b8782106136de575050826001949596106136a5575b5050811b019055565b7f6d4407e7be21f808e6509aa9fa9143369579dd7d760fe20a2c09680fc146134f015460001960f88460031b161c19169055388061369c565b82938192937f6d4407e7be21f808e6509aa9fa9143369579dd7d760fe20a2c09680fc146134f0154815560018091019401920190613687565b9050565b908082146137f55761372d8154612f4b565b906001600160401b038211612ca35781906137528261374c8654612f4b565b86613204565b600090601f83116001146137895760009261377e575b50508160011b916000199060031b1c1916179055565b015490503880613768565b81526020808220858352818320935090601f1985169083905b8282106137dc5750509084600195949392106137c3575b505050811b019055565b015460001960f88460031b161c191690553880806137b9565b84958192958501548155600180910196019401906137a2565b5050565b9181811061380657505050565b61323f92600052602060002091820191016131ed565b601781146138a157601754906001600160401b038211612ca357600160401b8211612ca357613850828254818455836137f9565b6000908152602081207fc624b66cc0138b8fabc209247f72d758e1cf3343756d543badbf24212bed8c1580545b84841061388b575050505050565b600180919201938454928185015501929061387d565b50565b601981146138a157601954906001600160401b038211612ca357600160401b8211612ca3576138d8828254818455836137f9565b6000908152602081207f944998273e477b495144fb8794c914197f3ccb46be2900f4698fd0ef743c969580545b848410613913575050505050565b6001809192019384549281850155019290613905565b601881146138a157601854906001600160401b038211612ca357600160401b8211612ca35761395d828254818455836137f9565b6000908152602081207fb13d2d76d1f4b7be834882e410b3e3a8afaf69f83600ae24db354391d2378d2e80545b848410613998575050505050565b600191820180546001600160a01b039092168486015593909101929061398a56fea264697066735822122061452ba861ebe77cfc229cb09d852b4dac92051b2b5c731e22e730d936e4405b64736f6c634300081400336101003462000580576001600160401b03601f6200520f38819003828101601f19168501919084831186841017620005855780869260809460405283398101031262000580576200005083620005bc565b9260209062000061828201620005bc565b906200007060408201620005bc565b90620000806060809201620005bc565b923315620005675760009384543360018060a01b0319821617865560018060a01b03948580948193823391167f8be0079c531659141344cd1fd0a4f28419497f9722a3daafe3b4186f6b6457e08b80a38160019d8e8055605a601155606460125562093a80601355610e1060145566038d7ea4c68000601555678ac7230489e800006016556032601755166080521660a0521660c0521660e052620001246200059b565b90600a825284845b610140811062000557575050508051680100000000000000009182821162000543578590601d5483601d55808410620004c1575b5001601d855285852085915b838310620003865750505050620001826200059b565b600a8152610140928582019184368437519188831162000372578383116200037257601e5483601e5580841062000354575b5090601e8652868620908a875b8581106200033f57505050505050620001d96200059b565b600a815284810192368437519586116200032b57851162000317578354858555808610620002fa575b50928152818120905b848110620002e857604051614be790816200062882396080518181816103680152818161099f01528181610ba501528181610e1e015281816123bd0152818161253b0152818161269d01528181612a5d01528181612bcf01528181612c880152613498015260a051818181610d1b0152818161159901526148aa015260c05181818161101c01528181611ab801528181611c080152818161229801528181612afd01528181612eaf015261462a015260e05181818161086401528181611062015281816123fa01528181612f5e015281816143c601526146a00152f35b8351828201559282019285016200020b565b848352838320620003109181019087016200060e565b3862000202565b634e487b7160e01b82526041600452602482fd5b634e487b7160e01b83526041600452602483fd5b898386511695019481850155018b90620001c1565b601e87528787206200036b9181019085016200060e565b38620001b4565b634e487b7160e01b86526041600452602486fd5b80519081518b8111620004ad578c918a918a8d620003a58854620005d1565b908581831162000470575b5050505082948d8211600114620003fa57849582918d92620003ee575b5050600019600383901b1c191690841b1785555b019201920191906200016c565b015190503880620003cd565b909194868c52838c20918c5b601f1985168110620004505750918391869794938794601f1981161062000436575b505050811b018555620003e1565b015160001960f88460031b161c1916905538808062000428565b939581938387949793015181550194019201918f9492918d949262000406565b838a6200049995522090600590808601821c830193888710620004a3575b01901c01906200060e565b8a388e85620003b0565b935082936200048e565b634e487b7160e01b89526041600452602489fd5b601d87528a8484892092830192015b828110620004e057505062000160565b909192935087620004f28254620005d1565b8062000507575b505001908a889392620004d0565b8b81116001146200051e575081555b8738620004f9565b828252620005398c8c8420920160051c82018583016200060e565b8183555562000516565b634e487b7160e01b85526041600452602485fd5b828282860101520185906200012c565b604051631e4fbdf760e01b815260006004820152602490fd5b600080fd5b634e487b7160e01b600052604160045260246000fd5b6040519061016082016001600160401b038111838210176200058557604052565b51906001600160a01b03821682036200058057565b90600182811c9216801562000603575b6020831014620005ed57565b634e487b7160e01b600052602260045260246000fd5b91607f1691620005e1565b8181106200061a575050565b600081556001016200060e56fe6080604052600436101561001257600080fd5b600060e08135811c9081630484552d14613976578163048d8c671461392657816309393d7e146138e95781630a65b377146138b75781630beacb6514613878578163190377a5146136a55781631a1a7088146134515781631fd48334146133e8578163242a1ed91461339857816326db9e081461337a578163290552f01461333a578163294e6f1c14612ab05781632afa1d6214612a8c5781632f9662c514612a4757816331b1d66f146129e45781633712cbf1146123855781633782cc8a1461234357816337990e8a1461225857816338e3f7c81461223a5781633f4ba83a146121cf57816345bba74814612139578163561b29cc146120885781635c975abb14612065578163652a8c52146120475781636793bcbf1461200a5781636a7d509214611b41578163715018a614611ae757816375a2d46c14611aa2578163762a41dd1461125c57816383f439381461123e5781638456cb59146111e35781638da5cb5b146111bc578163946c03c514610fd85781639e3befbe14610fad578163a36b786714610f78578163b31f0d0914610f54578163b86e6e9914610de5578163b993bdcd14610dc7578163bac96ae914610d7f578163c23453f914610d4a578163c46a20a214610d05578163c7c7fd7914610b23578163cf91319f14610979578163d256f65b146108e1578163d5537e4c14610893578163da2ca6e31461084e578163dd4e97d5146107d2578163e1a411ae1461054d57508063e4b7a8d4146104e4578063ecf97810146104a4578063ed271c4514610340578063f0d59ccb14610322578063f2fde38b146102925763ff0a43f11461027257600080fd5b3461028f578060031936011261028f576020601254604051908152f35b80fd5b503461028f57602036600319011261028f576102ac613a39565b6102b4613eb1565b6001600160a01b0390811690811561030957600054826bffffffffffffffffffffffff60a01b821617600055167f8be0079c531659141344cd1fd0a4f28419497f9722a3daafe3b4186f6b6457e0600080a380f35b604051631e4fbdf760e01b815260048101849052602490fd5b503461028f578060031936011261028f576020601654604051908152f35b503461028f578060031936011261028f57610359613eb1565b604051636033c53360e11b81527f00000000000000000000000000000000000000000000000000000000000000006001600160a01b03168282600481845afa918215610459578392610480575b5081516018556201518080420481810291818304149015171561046c57839184805b8551811015610464576103db818761426e565b5160405190633c57017760e11b825260048201528281602481875afa9081156104595785916080918591610437575b5001511015610422575b61041d9061408c565b6103c8565b9361042f61041d9161408c565b949050610414565b61045391503d8087833e61044b8183613af5565b810190613f93565b3861040a565b6040513d85823e3d90fd5b5083601c5580f35b634e487b7160e01b84526011600452602484fd5b61049d9192503d8085833e6104958183613af5565b8101906141f5565b90386103a6565b503461028f576104b336613a63565b91908152600b6020526040812090815483101561028f5760206104d68484613a21565b90546040519160031b1c8152f35b503461028f57602036600319011261028f57600435906001600160401b03821161028f5760206105173660048501613b31565b8161052b6040519283815193849201613b78565b601090820190815281900382019020546040516001600160a01b039091168152f35b9050346107ce57816003193601126107ce57906040519161056d83613ad9565b818352806020938385820152836040820152606091818584809401528560808201528260a08201528260c08201520152604051926105aa84613ad9565b601854845260195490858501918252601a549260408601938452601b54818701908152601c549060808801918252601d54926105e584613e1a565b936105f36040519586613af5565b8085528a8501601d6000527f6d4407e7be21f808e6509aa9fa9143369579dd7d760fe20a2c09680fc146134f6000915b8383106107a9575050505060a0890193845260405196878b601e54918281520190601e88527f50bb669a95c7b50b7e8a6f09454034b2b14cf2b85c730dca9a539ca82cb6e35090885b81811061078c5750505088610682910389613af5565b60c08a0197885260405196878c601f54918281520190601f6000527fa03837a25210ee280c2113ff4b77ca23440b19d4866cca721c801278fd08d8079060005b81811061077857505050886106d8910389613af5565b898b019788526040519a8c8c52518c8c01525160408b015251908901525160808801525160a0870152519261071b610100948560c0890152610120880190613bc0565b905196601f19958688840301908801528080895193848152019801925b82811061075b5787806107578b8a8a8a51918584030190850152613c1c565b0390f35b83516001600160a01b031689529781019792810192600101610738565b82548452928f0192600192830192016106c2565b82546001600160a01b03168452928e01926001928301920161066c565b60018e999e81926107bc859e9c9e613d74565b8152019201920191909c97999c610623565b5080fd5b823461028f57602036600319011261028f57600d546004358181111561084757505b6107fd816141c3565b9060005b81811061081e576040516020808252819061075790820186613c1c565b8061082b6108429261399d565b90549060031b1c61083c828661426e565b5261408c565b610801565b90506107f4565b823461028f578060031936011261028f576040517f00000000000000000000000000000000000000000000000000000000000000006001600160a01b03168152602090f35b823461028f57602036600319011261028f576108d56040610757926108b6613a39565b6108be614a62565b506001600160a01b03168152600560205220614a99565b60405191829182613c81565b823461028f57602061091c61090d6108f836613c50565b93908160405193828580945193849201613b78565b8101600a815203019020614174565b80519091818111156109715750905b610934826141c3565b925b828110610953576040516020808252819061075790820187613c1c565b8061096161096c928461426e565b5161083c828761426e565b610936565b90509061092b565b823461028f57602036600319011261028f57604051636033c53360e11b815260048035917f00000000000000000000000000000000000000000000000000000000000000006001600160a01b031691600090829081855afa908115610ab657600091610b0a575b506109ea836141c3565b9160009162093a7f1942019042821161046c5780515b80151580610b01575b15610ac2576000198101818111610a7057610a24908361426e565b51604051633c57017760e11b815260048101829052600081602481895afa908115610ab6578591608091600091610a9d575b5001511015610a86575b508015610a705760001901610a00565b634e487b7160e01b600052601160045260246000fd5b94610a96919561083c828961426e565b9387610a60565b610ab0913d8091833e61044b8183613af5565b8b610a56565b6040513d6000823e3d90fd5b8585610acd816141c3565b9160005b828110610aee576040516020808252819061075790820187613c1c565b80610961610afc928461426e565b610ad1565b50868510610a09565b610b1d913d8091833e6104958183613af5565b836109e0565b823461028f576020908160031936011261028f576004359260405191610b4883613abd565b80835280848401528060408401528060608401528060808401528060a08401528060c084015280828401526101009481868501528161012080950152604051634f558e7960e01b8152816004820152858160248160018060a01b037f0000000000000000000000000000000000000000000000000000000000000000165afa908115610459578391610cb5575b5092604087936101409893610beb60ff97613eea565b81526003885220604051610bfe81613abd565b815497888252600183015490808301918252600284015460408401908152600385015490606085019182526004860154926080860193845260058701549460a087019586528b8d60068a01549860c08101998a52600860078c01549b8d83019c8d5201549e8f9d82019d1615158d52019c60081c1615158c526040519d8e5251908d01525160408c01525160608b01525160808a01525160a08901525160c088015251908601525115159084015251151590820152f35b90508581813d8311610cfe575b610ccc8183613af5565b81010312610cfa5792604087936101409893610beb610cec60ff98613edd565b949750509350939750610bd5565b8280fd5b503d610cc2565b823461028f578060031936011261028f576040517f00000000000000000000000000000000000000000000000000000000000000006001600160a01b03168152602090f35b823461028f57602090610d5f6108f836613c50565b8101600781520301902090815483101561028f5760206104d68484613a21565b823461028f57604036600319011261028f57610d99613a39565b6001600160a01b031681526008602052604081208054602435929083101561028f5760206104d68484613a21565b823461028f578060031936011261028f576020601354604051908152f35b823461028f57610df436613c50565b604051634f558e7960e01b81526004810182905290916020916001600160a01b03919083816024817f000000000000000000000000000000000000000000000000000000000000000087165afa8015610f495784918791610f06575b5091610e5e610e7993613eea565b610e66614156565b8160405193828580945193849201613b78565b810160068152030190209160048301549060ff8260a01c1615610ecc575091610eb682610ebc959460039433911614908115610ebf575b506140df565b01614069565b80f35b9050865416331487610eb0565b6064906040519062461bcd60e51b82526004820152601360248201527243617465676f7279206e6f742061637469766560681b6044820152fd5b82819392503d8311610f42575b610f1d8183613af5565b81010312610f3e57610e7991610e5e610f368693613edd565b919350610e50565b8580fd5b503d610f13565b6040513d88823e3d90fd5b823461028f57610f6336613d20565b91610f6c613eb1565b60115560125560135580f35b823461028f57602090610f8d6108f836613c50565b8101600a81520301902090815483101561028f5760206104d68484613a21565b823461028f57602036600319011261028f576004359060095482101561028f5760206104d6836139ea565b823461028f57604036600319011261028f57610ff2613a39565b604051632356a83d60e21b81526001600160a01b03918216600482015290602480359160008483817f000000000000000000000000000000000000000000000000000000000000000085165afa938415610ab657600094611195575b50929061105a836141c3565b9160008091867f000000000000000000000000000000000000000000000000000000000000000016935b815184108061118c575b1561114d578761109e858461426e565b5160405163333e2f1960e21b81529116600482015260058282015294600086604481845afa958615610ab657600096611132575b506000935b8651851080611129575b1561110e57611102611108916110f7878a61426e565b5161083c828c61426e565b9461408c565b936110d7565b9892955092509261111e9061408c565b929691939096611084565b508881106110e1565b61114691963d8091833e6104958183613af5565b94896110d2565b8583611158816141c3565b9160005b828110611179576040516020808252819061075790820187613c1c565b80610961611187928461426e565b61115c565b5086831061108e565b6111b191943d8091833e6111a98183613af5565b8101906142e8565b50915050928461104e565b823461028f578060031936011261028f57546040516001600160a01b039091168152602090f35b823461028f578060031936011261028f576111fc613eb1565b611204614156565b600160ff1960025416176002557f62e78cea01bee320cd4e420270b5ea74000d11b0c9f74754ebdbfc544b05a2586020604051338152a180f35b823461028f578060031936011261028f576020601754604051908152f35b823461028f57608036600319011261028f576004356001600160401b0381116107ce5761128d903690600401613b31565b6024356001600160401b038111610cfa576112ac903690600401613b31565b6044356001600160401b038111611a9e576112cb903690600401613e31565b90606435916001600160401b038311611a9a5736602384011215611a9a578260040135926112f884613e1a565b936113066040519586613af5565b8085526024602086019160051b83010191368311611a9657602401905b828210611a8657505050338552600f60205260ff6040862054168015611a73575b61134d90614b13565b611355614156565b835115611a3557604051845161136f818360208901613b78565b60109082019081528190036020019020546001600160a01b03166119f0576040519161139a83613a79565b84835260208301526040820152816060820152336080820152600160a08201524260c082015260405160208185516113d58183858a01613b78565b810160068152030190209080518051906001600160401b03821161188b5781906113ff8554613d3a565b601f81116119c0575b50602090601f831160011461195757889261194c575b50508160011b916000199060031b1c19161782555b60208101518051906001600160401b03821161188b5781906114586001860154613d3a565b601f8111611919575b50602090601f83116001146118aa57889261189f575b50508160011b916000199060031b1c19161760018301555b6040810151805190600160401b821161188b576002840154826002860155808310611817575b506020016002840187526020872087915b8383106116e95750505050600382016060820151908151916001600160401b0383116116d557600160401b83116116d55760209061150984845481865585614133565b0190875260208720875b8381106116c1575050505060c06005916004840160018060a01b0360808301511681549060ff60a01b60a0850151151560a01b16916affffffffffffffffffffff60a81b1617179055015191015560405160208184516115768183858901613b78565b60109082019081520301902080546001600160a01b0319163317905560165483907f00000000000000000000000000000000000000000000000000000000000000006001600160a01b031690813b15610cfa5760405163d264a38b60e01b8152336004820152602481019190915291908290604490829084905af180156116b6576116a1575b50611617905191602060405192828480945193849201613b78565b81010390206040519182527f7d950f9e47726c695b2ba18622a3b906adc856306921a64e29180e06d6bc00d760203393a360165460405190815260406020820152601060408201526f18d85d1959dbdc9e57d8dc99585d195960821b60608201527f62b5bcaa84d181e06a232a25a4175c0325f975f697da1f28e327b4aa18dc18d260803392a280f35b926116af6116179294613aaa565b92906115fc565b6040513d86823e3d90fd5b600190602084519401938184015501611513565b634e487b7160e01b88526041600452602488fd5b80518051906001600160401b038211611803576117068454613d3a565b601f81116117c8575b506020908b601f841160011461175b57928060209360019693879692611750575b5050600019600383901b1c191690841b1785555b019201920191906114c6565b015190508e80611730565b85905260208c2091908c5b601f19851681106117b0575083602093600196938796938794601f19811610611797575b505050811b018555611744565b015160001960f88460031b161c191690558e808061178a565b91926020600181928685015181550194019201611766565b6117f390858d5260208d20601f850160051c810191602086106117f9575b601f0160051c019061411c565b8b61170f565b90915081906117e6565b634e487b7160e01b8b52604160045260248bfd5b60028501885260208820908382015b81830181106118365750506114b5565b808a61184460019354613d3a565b80611852575b505001611826565b601f81118414611867575081555b8a8c61184a565b828252611882601f60208420920160051c820185830161411c565b81835555611860565b634e487b7160e01b87526041600452602487fd5b015190508780611477565b9250600185018852602088209088935b601f19841685106118fe576001945083601f198116106118e5575b505050811b01600183015561148f565b015160001960f88460031b161c191690558780806118d5565b818101518355602094850194600190930192909101906118ba565b61194690600187018a5260208a20601f850160051c810191602086106117f957601f0160051c019061411c565b88611461565b01519050878061141e565b9250848852602088209088935b601f19841685106119a5576001945083601f1981161061198c575b505050811b018255611433565b015160001960f88460031b161c1916905587808061197f565b81810151835560209485019460019093019290910190611964565b6119ea90868a5260208a20601f850160051c810191602086106117f957601f0160051c019061411c565b88611408565b60405162461bcd60e51b815260206004820152601760248201527f43617465676f727920616c7265616479206578697374730000000000000000006044820152606490fd5b60405162461bcd60e51b815260206004820152601660248201527510d85d1959dbdc9e481b985b59481c995c5d5a5c995960521b6044820152606490fd5b5084546001600160a01b03163314611344565b8135815260209182019101611323565b8780fd5b8480fd5b8380fd5b823461028f578060031936011261028f576040517f00000000000000000000000000000000000000000000000000000000000000006001600160a01b03168152602090f35b823461028f578060031936011261028f57611b00613eb1565b80546001600160a01b03198116825581906001600160a01b03167f8be0079c531659141344cd1fd0a4f28419497f9722a3daafe3b4186f6b6457e08280a380f35b823461028f57606036600319011261028f57611b5b613a39565b6024356001600160401b038111610cfa57611b7a903690600401613e31565b604435916001600160401b038311611a9e5736602384011215611a9e57826004013592611ba684613e1a565b90611bb46040519283613af5565b84825260208201906024829660051b82010190368211611a9657602401915b818310611fe657505060405163a787c80b60e01b81526001600160a01b038481166004830152909150602090829060249082907f0000000000000000000000000000000000000000000000000000000000000000165afa8015610f49578690611fab575b611c41915061409b565b611c49614156565b336001600160a01b038316148015611f98575b611c65906140df565b6001600160a01b038216855260046020526040852083519091600160401b821161188b578254828455808310611f26575b506020850191828489526020892089915b838310611df957505050506001928381018251906001600160401b038211611de557600160401b8211611de557611ce682829796975481845583614133565b88908a5260208a208a5b838110611dc957505050506006429101556040519460408601906040875251809152606086019060608160051b880101949189905b828210611d9d5750505050602090858403828701525192838152019491865b818110611d7f57876001600160a01b0386167f355577305a386c8a4d5741a6cd96df108dae63479782dc834f07ea106c8e1b86888a0389a280f35b83516001600160a01b03168752602096870196909301928201611d44565b90919294602080611db98399605f198d82030186528951613b9b565b9897019493919091019101611d25565b82516001600160a01b0316818301556020909201918601611cf0565b634e487b7160e01b8a52604160045260248afd5b80518051906001600160401b038211611f1257611e168454613d3a565b908d601f92838111611eda575b50508d6020928411600114611e6e57928060209360019693879692611e63575b5050600019600383901b1c191690841b1785555b01920192019190611ca7565b015190503880611e43565b919085835260208320925b601f1985168110611ec257509260209260019592869583601f19811610611ea9575b505050831b83018555611e57565b015160001960f88460031b161c191690558f8080611e9b565b91926020600181928685015181550194019201611e79565b60208288611f029452208480870160051c82019260208810611f09575b0160051c019061411c565b8d8f611e23565b92508192611ef7565b634e487b7160e01b8d52604160045260248dfd5b83885260208820908382015b8183018110611f42575050611c96565b808a611f5060019354613d3a565b80611f5e575b505001611f32565b601f8082118514611f7557505081555b8a8c611f56565b611f8f9084845260208420920160051c820185830161411c565b81835555611f6e565b5084546001600160a01b03163314611c5c565b506020813d602011611fde575b81611fc560209383613af5565b81010312610f3e57611fd9611c4191613edd565b611c37565b3d9150611fb8565b82356001600160a01b038116810361200657815260209283019201611bd3565b8880fd5b823461028f57602036600319011261028f576020906006906040906001600160a01b03612035613a39565b16815260048452200154604051908152f35b823461028f578060031936011261028f576020601554604051908152f35b823461028f578060031936011261028f57602060ff600254166040519015158152f35b823461028f57602036600319011261028f57600435906001600160401b03821161028f576121056120c16020610e663660048701613b31565b810160068152030190206120d481613d74565b906120e160018201613d74565b60ff612113600560048501549401549260405196879660a0885260a0880190613b9b565b908682036020880152613b9b565b6001600160a01b038416604086015260a09390931c161515606084015260808301520390f35b9050346107ce5760203660031901126107ce5760ff60406101409360043581526003602052209182549260018101549160028201546003830154600484015460058501549160068601549360086007880154970154976040519a8b5260208b015260408a01526060890152608088015260a087015260c0860152840152818116151561010084015260081c161515610120820152f35b823461028f578060031936011261028f576121e8613eb1565b60025460ff8116156122285760ff19166002557f5db9ee0a495bf2e6ff9c91a7834c1ba4fdd244a5e8aa4e537bd38aeae4b073aa6020604051338152a180f35b604051638dfc202b60e01b8152600490fd5b823461028f578060031936011261028f576020601454604051908152f35b823461028f576020908160031936011261028f57612274613a39565b9060405163a787c80b60e01b8152838160248160018060a01b0380881660048301527f0000000000000000000000000000000000000000000000000000000000000000165afa9182156123375780926122f8575b846122e3856122d68661409b565b6122de614156565b614335565b90610757604051928284938452830190613c1c565b9091508382813d8311612330575b6123108183613af5565b8101031261028f5750906122d66123296122e393613edd565b91926122c8565b503d612306565b604051903d90823e3d90fd5b823461028f57604036600319011261028f576020906040906001600160a01b0361236b613a39565b168152828052818120602435825283522054604051908152f35b823461028f5760c036600319011261028f57604051634f558e7960e01b815260048035908201526001600160a01b03906020816024817f000000000000000000000000000000000000000000000000000000000000000086165afa80156104595783906129a9575b6123f79150613eea565b807f0000000000000000000000000000000000000000000000000000000000000000163314801561299d575b8015612987575b156129435760043582526003602052604082209061244b6024358354613f2d565b825561245d6044356002840154613f2d565b6002830155600382016124736064358254613f2d565b9055600482016124866084358254613f2d565b90556005820161249960a4358254613f2d565b90554260078301556004358352600360205260408320908154916064830292808404606414901517156128905760028101549061012c9182810292818404149015171561280f576124f36003820154600483015490613f2d565b9060c882029180830460c8149015171561292f57600501549160968302928084046096149015171561292f57604051633c57017760e11b8152600480359082015287816024817f000000000000000000000000000000000000000000000000000000000000000089165afa801561292457608061257f9162015180938b9161290a575b5001514261405c565b0460078110156128f557600a810290808204600a14901517156128e157606403606481116128e157916125ba6125ba926125bf959497613f2d565b613f2d565b82810292818404149015171561046c57606482046006840155601254606483041015806128d2575b612633575b506064906002835493015460405193845260208401520460408201527fc2c63f56829dfbfffd74ab78694a007cb0c7b59ef22f00ce28328be1ddfdd75a606060043592a280f35b60088301805460ff19166001179055600954600160401b8110156128be576024916126826126688360018995016009556139ea565b6004359082549060031b91821b91600019901b1916179055565b60405192838092633c57017760e11b825260043560048301527f0000000000000000000000000000000000000000000000000000000000000000165afa9081156116b6576127039160209186916128a4575b50015160206126ec6040519283815193849201613b78565b810190600a82526020816004359303019020614069565b606460095411612714575b836125ec565b82915b60095480600019810111612890576000190183101561283457835b61273e8460095461405c565b8060001981011161280f57600019018110156128235761275d816139ea565b90549060031b1c85526003602052600660408620015460018201821161280f57906127ae9161278e600183016139ea565b90549060031b1c875260036020526006604088200154116127b35761408c565b612732565b61280a6127bf826139ea565b90549060031b1c6127fe6127d5600185016139ea565b90549060031b1c6127e5856139ea565b90919082549060031b91821b91600019901b1916179055565b6127e5600184016139ea565b61408c565b634e487b7160e01b86526011600452602486fd5b509161282e9061408c565b91612717565b909291505b6009546064811115612888578015612874576000190161286c61285b826139ea565b8154906000199060031b1b19169055565b600955612839565b634e487b7160e01b83526031600452602483fd5b50909161270e565b634e487b7160e01b85526011600452602485fd5b6128b891503d8088833e61044b8183613af5565b866126d4565b634e487b7160e01b85526041600452602485fd5b5060ff600884015416156125e7565b634e487b7160e01b88526011600452602488fd5b506125bf92916125ba6125ba92601e97613f2d565b61291e91503d808d833e61044b8183613af5565b8b612576565b6040513d8a823e3d90fd5b634e487b7160e01b87526011600452602487fd5b606460405162461bcd60e51b815260206004820152602060248201527f4e6f7420617574686f72697a656420746f20757064617465206d6574726963736044820152fd5b50338252600f60205260ff60408320541661242a565b50808254163314612423565b506020813d6020116129dc575b816129c360209383613af5565b81010312610cfa576129d76123f791613edd565b6123ed565b3d91506129b6565b823461028f57602036600319011261028f5760095460043581811115612a4057505b612a0f816141c3565b915b818110612a2e576040516020808252819061075790820186613c1c565b8061082b612a3b926139ea565b612a11565b9050612a06565b823461028f578060031936011261028f576040517f00000000000000000000000000000000000000000000000000000000000000006001600160a01b03168152602090f35b823461028f57612a9b36613d20565b91612aa4613eb1565b60155560165560175580f35b823461028f57602036600319011261028f57612aca613a39565b90612ad3614a62565b5060405163a787c80b60e01b81526001600160a01b038381166004830152602090829060249082907f0000000000000000000000000000000000000000000000000000000000000000165afa801561300c5782906132ff575b612b36915061409b565b612b3e614156565b6001600160a01b038216815260056020526040812060095460148110156132f7575b612b69816141c3565b90835b8181106132e55750508051906001600160401b03821161328457600160401b821161328457602090612ba383855481875586614133565b0182845260208420845b8381106132d1575050604051636033c53360e11b8152929150839050826004817f00000000000000000000000000000000000000000000000000000000000000006001600160a01b03165afa9182156104595783926132b5575b506040519161020083018381106001600160401b038211176128be57604052600f83526101e036602085013783914262093a7f198101116128905781515b801515806132ab575b15612d14578060001981011161280f57612c6c60001982018461426e565b51604051633c57017760e11b81526004810182905287816024817f00000000000000000000000000000000000000000000000000000000000000006001600160a01b03165afa908115612924578891612cfa575b50608001514262093a7f19011115612ce3575b50801561280f5760001901612c45565b93612cf3919461083c828861426e565b9287612cd3565b612d0e91503d808a833e61044b8183613af5565b89612cc0565b5085858585612d22816141c3565b91835b82811061329857505050600184018151916001600160401b03831161328457600160401b831161328457602090612d6184845481865585614133565b0190835260208320835b8381106132705750505050600d5480600a11600014613268575b612d8e816141c3565b90825b8181106132565750508051906001600160401b0382116131d157600160401b82116131d15760206003860191612dcc84845481865585614133565b0190835260208320835b838110613242575050604051631bcc874560e11b81526001600160a01b038516600482015291508290508160248183305af190811561300c578291613228575b508051906001600160401b0382116131d157600160401b82116131d15760028501805483825560209291612e4b918591614133565b0160028501835260208320835b83811061321457505050506001600160a01b03821681526004602052604081208054158015613127575b5050604051632356a83d60e21b81526001600160a01b0383811660048301529091908190839060249082907f0000000000000000000000000000000000000000000000000000000000000000165afa91821561311a5781926130fa575b5060405191826101608101106001600160401b03610160850111176130c95790926101608301604052600a83526101403660208501378390845b83518610806130f0575b15613017576001600160a01b03612f3a878661426e565b5160405163333e2f1960e21b815291166004820152600560248201529381856044817f00000000000000000000000000000000000000000000000000000000000000006001600160a01b03165afa94851561300c578295612ff0575b5081935b8551851080612fe6575b15612fcb57611102612fc591612fba878961426e565b5161083c828b61426e565b93612f9a565b979296909350612fdc91945061408c565b9490959192612f19565b50600a8110612fa4565b6130059195503d8084833e6104958183613af5565b9388612f96565b6040513d84823e3d90fd5b86828685613024816141c3565b91855b8281106130dd5750505060058301938151916001600160401b0383116130c957600160401b83116130c957602090613064848854818a5589614133565b0194815260208120905b8281106130b5576107576108d58686426006830155600080516020614b92833981519152604083549260028501548251948552602085015260018060a01b031692a2614a99565b60019060208751970196818401550161306e565b634e487b7160e01b82526041600452602482fd5b806109616130eb928461426e565b613027565b50600a8310612f23565b61310f9192503d8084833e6111a98183613af5565b509150509084612edf565b50604051903d90823e3d90fd5b61320057815261314f6131406020610e66818520613d74565b81016007815203019020614174565b805180600a116000146131f8575b613166816141c3565b91835b8281106131e5575050508051906001600160401b0382116131d157600160401b82116131d157602060048601916131a584845481865585614133565b0190835260208320835b8381106131bd575050612e82565b6001906020845194019381840155016131af565b634e487b7160e01b83526041600452602483fd5b806109616131f3928461426e565b613169565b50600a61315d565b634e487b7160e01b82526032600452602482fd5b600190602084519401938184015501612e58565b61323c91503d8084833e6104958183613af5565b84612e16565b600190602084519401938184015501612dd6565b8061082b6132639261399d565b612d91565b50600a612d85565b600190602084519401938184015501612d6b565b634e487b7160e01b84526041600452602484fd5b806109616132a6928461426e565b612d25565b50600f8410612c4e565b6132ca9192503d8085833e6104958183613af5565b9084612c07565b600190602084519401938184015501612bad565b8061082b6132f2926139ea565b612b6c565b506014612b60565b506020813d602011613332575b8161331960209383613af5565b810103126107ce5761332d612b3691613edd565b612b2c565b3d915061330c565b823461028f578060031936011261028f5760a0601854601954601a54601b5490601c54926040519485526020850152604084015260608301526080820152f35b823461028f578060031936011261028f576020601154604051908152f35b823461028f57602036600319011261028f57600435600e548110156107ce57600e602092527fbb7b4a454dc3493923482f07822329ed19e8244eff582cc204f8554c3620c3fd0154604051908152f35b823461028f5760206133ff6131406108f836613c50565b80519091818111156134495750905b613417826141c3565b925b828110613436576040516020808252819061075790820187613c1c565b80610961613444928461426e565b613419565b90509061340e565b823461028f57604036600319011261028f5760043561346e613a54565b604051634f558e7960e01b81526004810183905260209291906024906001600160a01b03858284817f000000000000000000000000000000000000000000000000000000000000000085165afa91821561369a57879261365a575b506134d66134f392613eea565b338752600f865260ff60408820541690811561364d575b50614b13565b82855260039182855260086040872001805461ff0083151560081b169061ff001916179055613565575b5050600860405192808452830152671999585d1d5c995960c21b60408301527f0a6a399e6d4fe1d45780defa4270685ea35a1cce957ec69f30abc6e84e1681c560603393a380f35b600d918254600160401b81101561363a5761358a856127e5600193848101885561399d565b603284541161359b575b505061351d565b86815b6135dd575b50505081549081156135cb575060001901906135c161285b8361399d565b5583808080613594565b634e487b7160e01b8652603160045285fd5b84546000198101908111613622578110156136355781810180821161362257829161280a61360d61361c9361399d565b905490871b1c6127e58361399d565b9061359e565b634e487b7160e01b895260116004528489fd5b6135a3565b634e487b7160e01b875260416004528287fd5b90508654163314876134ed565b91508582813d8311613693575b6136718183613af5565b8101031261368f576134d66136886134f393613edd565b92506134c9565b8680fd5b503d613667565b6040513d89823e3d90fd5b9050346107ce576020918260031936011261028f576004356001600160401b0381116107ce576136d9903690600401613b31565b9061372584604051936136eb85613a79565b8360c0606096878152878582015287604082015287808201528260808201528260a082015201528160405193828580945193849201613b78565b81016006815203019020936040519261373d84613a79565b61374686613d74565b8452600195613756878201613d74565b8386019081526002820180549061376c82613e1a565b9661377a6040519889613af5565b8288529081528581208688015b83831061385d57505050506040860194855286939291906137aa60038301614174565b8388019081526004830154936080890197600160a01b60019003948587168a5260a08b019660a01c60ff1615158752600501549660c08b019788526040519b8c9b828d5251918c01526101008b0161380191613b9b565b9351601f1994858c82030160408d015261381a91613b9b565b905191848b830301908b015261382f91613bc0565b90519188820301608089015261384491613c1c565b94511660a086015251151560c085015251908301520390f35b8b88819261386a85613d74565b815201920192019190613787565b823461028f57602036600319011261028f5760209060ff906040906001600160a01b036138a3613a39565b168152600f84522054166040519015158152f35b823461028f576138c636613a63565b91908152600c6020526040812090815483101561028f5760206104d68484613a21565b823461028f57602036600319011261028f576020906006906040906001600160a01b03613914613a39565b16815260058452200154604051908152f35b823461028f57604036600319011261028f57613940613a39565b613948613a54565b90613951613eb1565b60018060a01b03168252600f602052604082209060ff80198354169115151617905580f35b823461028f57602036600319011261028f5760043590600d5482101561028f5760206104d6835b600d548110156139d457600d6000527fd7b6990105719101dabeb77144f2a3385c8033acd3af97e9423a695e81ad1eb50190600090565b634e487b7160e01b600052603260045260246000fd5b6009548110156139d45760096000527f6e1540171b6c0c960b71a7020d9f60077f6af931a8bbf590da0223dacf75c7af0190600090565b80548210156139d45760005260206000200190600090565b600435906001600160a01b0382168203613a4f57565b600080fd5b602435908115158203613a4f57565b6040906003190112613a4f576004359060243590565b60e081019081106001600160401b03821117613a9457604052565b634e487b7160e01b600052604160045260246000fd5b6001600160401b038111613a9457604052565b61014081019081106001600160401b03821117613a9457604052565b61010081019081106001600160401b03821117613a9457604052565b90601f801991011681019081106001600160401b03821117613a9457604052565b6001600160401b038111613a9457601f01601f191660200190565b81601f82011215613a4f57803590613b4882613b16565b92613b566040519485613af5565b82845260208383010111613a4f57816000926020809301838601378301015290565b60005b838110613b8b5750506000910152565b8181015183820152602001613b7b565b90602091613bb481518092818552858086019101613b78565b601f01601f1916010190565b908082519081815260208091019281808460051b8301019501936000915b848310613bee5750505050505090565b9091929394958480613c0c600193601f198682030187528a51613b9b565b9801930193019194939290613bde565b90815180825260208080930193019160005b828110613c3c575050505090565b835185529381019392810192600101613c2e565b6040600319820112613a4f57600435906001600160401b038211613a4f57613c7a91600401613b31565b9060243590565b6020815260e060c0613d17613ca28551846020870152610100860190613c1c565b613d03613cef613cdb613cc760208a015194601f1995868b83030160408c0152613c1c565b60408a0151858a83030160608b0152613c1c565b6060890151848983030160808a0152613c1c565b6080880151838883030160a0890152613c1c565b9060a0870151908683030184870152613c1c565b93015191015290565b6060906003190112613a4f57600435906024359060443590565b90600182811c92168015613d6a575b6020831014613d5457565b634e487b7160e01b600052602260045260246000fd5b91607f1691613d49565b9060405191826000825492613d8884613d3a565b908184526001948581169081600014613df75750600114613db4575b5050613db292500383613af5565b565b9093915060005260209081600020936000915b818310613ddf575050613db293508201013880613da4565b85548884018501529485019487945091830191613dc7565b915050613db294506020925060ff191682840152151560051b8201013880613da4565b6001600160401b038111613a945760051b60200190565b9080601f83011215613a4f57813590613e4982613e1a565b92613e576040519485613af5565b828452602092838086019160051b83010192808411613a4f57848301915b848310613e855750505050505090565b82356001600160401b038111613a4f578691613ea684848094890101613b31565b815201920191613e75565b6000546001600160a01b03163303613ec557565b60405163118cdaa760e01b8152336004820152602490fd5b51908115158203613a4f57565b15613ef157565b60405162461bcd60e51b8152602060048201526014602482015273151c9858dac8191bd95cc81b9bdd08195e1a5cdd60621b6044820152606490fd5b91908201809211610a7057565b81601f82011215613a4f578051613f5081613b16565b92613f5e6040519485613af5565b81845260208284010111613a4f57613f7c9160208085019101613b78565b90565b51906001600160a01b0382168203613a4f57565b90602082820312613a4f5781516001600160401b0392838211613a4f570161010081830312613a4f5760405192613fc984613ad9565b8151818111613a4f5783613fde918401613f3a565b84526020820151818111613a4f5783613ff8918401613f3a565b60208501526040820151604085015261401360608301613f7f565b60608501526080820151608085015260a0820151908111613a4f5760e09261403c918301613f3a565b60a084015261404d60c08201613edd565b60c0840152015160e082015290565b91908203918211610a7057565b90815491600160401b831015613a9457826127e5916001613db295018155613a21565b6000198114610a705760010190565b156140a257565b60405162461bcd60e51b8152602060048201526015602482015274155cd95c881c1c9bd99a5b19481c995c5d5a5c9959605a1b6044820152606490fd5b156140e657565b60405162461bcd60e51b815260206004820152600e60248201526d139bdd08185d5d1a1bdc9a5e995960921b6044820152606490fd5b818110614127575050565b6000815560010161411c565b9181811061414057505050565b613db2926000526020600020918201910161411c565b60ff6002541661416257565b60405163d93c066560e01b8152600490fd5b9060405191828154918282526020928383019160005283600020936000905b8282106141a957505050613db292500383613af5565b855484526001958601958895509381019390910190614193565b906141cd82613e1a565b6141da6040519182613af5565b82815280926141eb601f1991613e1a565b0190602036910137565b6020908181840312613a4f578051906001600160401b038211613a4f57019180601f84011215613a4f57825161422a81613e1a565b936142386040519586613af5565b818552838086019260051b820101928311613a4f578301905b82821061425f575050505090565b81518152908301908301614251565b80518210156139d45760209160051b010190565b81601f82011215613a4f5780519161429983613e1a565b926142a76040519485613af5565b808452602092838086019260051b820101928311613a4f578301905b8282106142d1575050505090565b8380916142dd84613f7f565b8152019101906142c3565b90608082820312613a4f578151926020830151926040810151926001600160401b0393848111613a4f578161431e918401614282565b936060830151908111613a4f57613f7c9201614282565b600060018060a01b03821681526004602052604081209060056020526040812061436360068201544261405c565b60145411614a51576040519261066084018481106001600160401b0382111761328457604052603284526106403660208601376040516353f448c160e11b81526001600160a01b03868116600483015293968794919390918590859060249082907f0000000000000000000000000000000000000000000000000000000000000000165afa9384156149a6578594614a35575b50938096928054925b83891080614a2b575b1561452b576144178983613a21565b5060405190849080549061442a82613d3a565b916001811690811561451357506001146144e0575b505090602081836007614456955203019020614174565b96835b88518110806144d6575b156144b75761447c88614476838c61426e565b51614b56565b15614490575b61448b9061408c565b614459565b9a6144af818b61083c8f946144a861448b968f61426e565b519261426e565b9b9050614482565b5092965092976144c99094919461408c565b97929591959390936143ff565b5060148c10614463565b90915085526020852085905b8282106144ff575050810160208261443f565b6001816020925484870152019101906144ec565b60ff191685525050801515028201905060208261443f565b93959250965080966001810154925b83891080614a21575b156145f8576145558960018401613a21565b905460039190911b1c6001600160a01b0316835260086020526040832061457b90614174565b96835b88518110806145ee575b156145cf5761459b88614476838c61426e565b156145af575b6145aa9061408c565b61457e565b9a6145c7818b61083c8f946144a86145aa968f61426e565b9b90506145a1565b5092965092976145e19094919461408c565b979295919593909361453a565b5060238c10614588565b604051632356a83d60e21b81526001600160a01b038089166004830152919950929692949350869150849060249082907f0000000000000000000000000000000000000000000000000000000000000000165afa9283156149a6578593614a01575b509195909380965b80518810806149f7575b15614771576001600160a01b03614683898361426e565b516040516353f448c160e11b8152911660048201529582876024817f00000000000000000000000000000000000000000000000000000000000000006001600160a01b03165afa968715610459578397614755575b50825b875181108061474b575b15614731576146f887614476838b61426e565b1561470c575b6147079061408c565b6146db565b996147296147079161471e8d8b61426e565b5161083c828d61426e565b9a90506146fe565b509297614741919492965061408c565b9691949092614662565b5060328b106146e5565b61476a9197503d8085833e6104958183613af5565b95386146d8565b509495509092959150614783826141c3565b94845b8381106149d95750508451600282016001600160401b0382116149c557600160401b82116149c5576147bd82825481845583614133565b6020870190865260208620865b8381106149b15750505050600642910155604051604081018181106001600160401b038211176128be57604052601981527f7265636f6d6d656e646174696f6e735f67656e65726174656400000000000000602082015262015180420460018060a01b0384168552602080526040852081865260205260408520546017541161487a575b5050600080516020614b92833981519152916040918251948552602085015260018060a01b031692a290565b6001600160a01b038416855260208080526040808720928752919052842080546148a39061408c565b90556015547f00000000000000000000000000000000000000000000000000000000000000006001600160a01b031690813b15610f3e5760405163d264a38b60e01b81526001600160a01b038616600482015260248101919091529085908290604490829084905af180156149a65761497e575b5091604091600080516020614b92833981519152937f62b5bcaa84d181e06a232a25a4175c0325f975f697da1f28e327b4aa18dc18d260155485519081528560208201528061497260018060a01b0387169488830190613b9b565b0390a29181935061484e565b91600080516020614b9283398151915293919461499c604094613aaa565b9491935091614917565b6040513d87823e3d90fd5b6001906020845194019381840155016147ca565b634e487b7160e01b86526041600452602486fd5b806149e76149f2928461426e565b5161083c828a61426e565b614786565b506032891061466c565b614a169193503d8087833e6111a98183613af5565b50915050913861465a565b5060238a10614543565b5060148a10614408565b614a4a9194503d8087833e6104958183613af5565b92386143f6565b9050613f7c92506002915001614174565b60405190614a6f82613a79565b600060c0836060808252806020830152806040830152808083015280608083015260a08201520152565b90604051614aa681613a79565b60c060068294614ab581614174565b8452614ac360018201614174565b6020850152614ad460028201614174565b6040850152614ae560038201614174565b6060850152614af660048201614174565b6080850152614b0760058201614174565b60a08501520154910152565b15614b1a57565b60405162461bcd60e51b81526020600482015260146024820152732737ba103b32b934b334b2b21031bab930ba37b960611b6044820152606490fd5b60005b8251811015614b895781614b6d828561426e565b5114614b8157614b7c9061408c565b614b59565b505050600190565b50505060009056fe755175f7645b645544dc4aec94d36eacac82cefb07de6635b7dcb7ab404d852aa26469706673582212201530655991d51703fdee09540b5f11e5e5d445eac9cb200264536ffbaaaad57664736f6c6343000814003360c034620002ea576001600160401b0390601f62002cd238819003918201601f19168301929160009185851184861017620002d6578160609285926040978852833981010312620002d3576200005582620002ef565b9162000071846200006960208401620002ef565b9201620002ef565b903315620002bb578254336001600160a01b03198083168217865587519490926001600160a01b03929083167f8be0079c531659141344cd1fd0a4f28419497f9722a3daafe3b4186f6b6457e08880a3600196878055678ac7230489e800006005556801158e460913d0000060065560036007556010548881811c91168015620002b0575b60208210146200029c5780601f8592116200022e575b50809160456010556010895261732f60f01b8a60208b207f68747470733a2f2f676174657761792e70696e6174612e636c6f75642f697066815501551694856080521660a05216906011541617601155803b156200022a57816044818580946370a1a7a760e11b83523060048401528860248401525af194851562000220578495949394620001f5575b5050338152600f602052209060ff19825416179055516129cd90816200030582396080518181816107e8015281816108350152818161093201528181610c8e015261223c015260a0518181816103a901528181611b2c01526121f70152f35b9080929350116200020c5783528290388062000196565b634e487b7160e01b82526041600452602482fd5b84513d84823e3d90fd5b8280fd5b60108952601f0160051c7f1b6847dc741a1b0cd08d278845f9d819d87b734759afb55fe2de5cb82a9ae67201897f1b6847dc741a1b0cd08d278845f9d819d87b734759afb55fe2de5cb82a9ae6745b8281106200028d5750506200010c565b8a81558693508b91016200027d565b634e487b7160e01b88526022600452602488fd5b90607f1690620000f6565b8451631e4fbdf760e01b815260048101849052602490fd5b80fd5b634e487b7160e01b83526041600452602483fd5b600080fd5b51906001600160a01b0382168203620002ea5756fe608080604052600436101561001d575b50361561001b57600080fd5b005b600090813560e01c90816302fbb728146122e45750806316045a69146122a45780631aaed1861461226b5780632f9662c514612226578063374cb7c5146121e15780633f4ba83a14612176578063404c4e141461212757806343ba811f146120e8578063488e7144146120ca5780634e43603a14611ff35780634f1dbb7514611fd057806350b5dcea146115e657806354556625146115bd5780635ba4a002146115845780635c975abb146115615780635cba5933146115285780635e6ffac71461145857806361728136146113ff578063715018a6146113a557806375a2d46c1461137c5780637c7047b9146112615780638456cb59146112065780638da5cb5b146111df5780638db8214e1461119f5780639abd38d514611173578063ae06039d14611155578063b6d7732514610fe6578063d4bee2e314610b50578063da9efb08146104eb578063db2e21bc14610365578063e2b2d48214610326578063eb64787914610290578063f2fde38b14610205578063f48f4591146101cc5763f62622eb0361000f57346101c95760203660031901126101c9576101c0612641565b60043560055580f35b80fd5b50346101c95760203660031901126101c9576020906040906001600160a01b036101f4612300565b168152600d83522054604051908152f35b50346101c95760203660031901126101c95761021f612300565b610227612641565b6001600160a01b0390811690811561027757600054826001600160601b0360a01b821617600055167f8be0079c531659141344cd1fd0a4f28419497f9722a3daafe3b4186f6b6457e0600080a380f35b604051631e4fbdf760e01b815260048101849052602490fd5b50346101c957602080600319360112610322576001600160a01b036102b3612300565b16825260038152604082208054906102ca826123eb565b936102d86040519586612345565b828552908152828120838086015b84841061030457604051828152806103008185018a6125e5565b0390f35b60019182916103128561251a565b81520192019201919084906102e6565b5080fd5b50346101c95760203660031901126101c95760209060ff906040906001600160a01b03610351612300565b168152600e84522054166040519015158152f35b50346101c957806003193601126101c95761037e612641565b804780159081156104b0575b50506040516370a0823160e01b81523060048201526001600160a01b037f0000000000000000000000000000000000000000000000000000000000000000811692506020918281602481875afa9081156104a5578591610473575b50806103ef578480f35b845460405163a9059cbb60e01b815292166001600160a01b03166004830152602482015291819083908186816044810103925af1801561046857610434575b80808480f35b81813d8311610461575b6104488183612345565b8101031261032257610459906128f6565b50388061042e565b503d61043e565b6040513d85823e3d90fd5b90508281813d831161049e575b61048a8183612345565b810103126104995751386103e5565b600080fd5b503d610480565b6040513d87823e3d90fd5b82809291819260018060a01b038354169083906104e2575bf1156104d65780388061038a565b604051903d90823e3d90fd5b506108fc6104c8565b50346101c9576101203660031901126101c9576004356001600160401b0381116103225761051d903690600401612381565b602435916001600160a01b0383168303610499576044356001600160401b03811161032257610550903690600401612402565b906064356001600160401b03811161032257610570903690600401612402565b916084356001600160401b038111610a5a57610590903690600401612402565b9260a4356001600160401b038111610b4c576105b0903690600401612482565b9460c4356001600160401b038111610b48576105d0903690600401612402565b966001600160401b0360e43511610b485736602360e435011215610b485760e43560040135926105ff846123eb565b61060c6040519182612345565b8481526020810180953660248260051b60e435010111610b4457602460e43501915b60248260051b60e43501018310610b2957505050610104356001600160401b038111610b2557610662903690600401612482565b9061066b612641565b61067361280d565b8651835103610ae85786999899519a61068b8c6123eb565b9b6106996040519d8e612345565b808d526106a8601f19916123eb565b01895b8d828210610ad85750505088996010549a5b89518110156107c7578d8c8c6106d3848e61284e565b5160405192826106e2826124e0565b91600181169081156107895750600114610745575b5050928261072a61073a9460208561071b898b9a986107409c9951948592016123c8565b0103601f198101835282612345565b610734838361284e565b5261284e565b506127bb565b6106bd565b90919250601081526000805160206129788339815191525b828210610773575050820160200190828f6106f7565b600181602092548385890101520191019061075d565b88979461074099965061072a9350879461073a989350602061071b91819460ff1916828701528015150285010197505094979850509450508f6106f7565b50604051635a64ad9560e01b8152979a50959694958c948c906020886004817f00000000000000000000000000000000000000000000000000000000000000006001600160a01b03165afa978815610acd578c98610a99575b508a51968888810204881489151715610a85577f00000000000000000000000000000000000000000000000000000000000000006001600160a01b03163b15610a815760405163c84e5d1360e01b81526001600160a01b03909a1660048b015261010060248b0152610897906101048b01906125e5565b8981036003190160448b01526108ac916125e5565b8881036003190160648a01526108c1916125e5565b8781036003190160848901526108d691612878565b8681036003190160a48801526108eb916125e5565b906003198683030160c487015251908181526020019890885b818110610a6957505050928092818895938161092d8c89976003198483030160e4850152612878565b0392027f00000000000000000000000000000000000000000000000000000000000000006001600160a01b03165af18015610a5e57610a46575b505033835260036020526040832080549068010000000000000000821015610a325760018201808255821015610a1e578452602084206109a89291016126ac565b815b8151811015610a1a576109bd818361284e565b516001820190818311610a0657906109d8610a0193926127e0565b7f89bc21d28827a5fe2dcfc3216e30fe9a428f7a5c0a84e23997d669e35e0a92498680a36127bb565b6109aa565b634e487b7160e01b85526011600452602485fd5b8280f35b634e487b7160e01b85526032600452602485fd5b634e487b7160e01b85526041600452602485fd5b610a4f90612332565b610a5a578284610967565b8280fd5b6040513d84823e3d90fd5b825115158b5260209a8b019a90920191600101610904565b8c80fd5b634e487b7160e01b8d52601160045260248dfd5b9097506020813d602011610ac5575b81610ab560209383612345565b810103126104995751968d610820565b3d9150610aa8565b6040513d8e823e3d90fd5b60606020918301820152016106ab565b60405162461bcd60e51b8152602060048201526015602482015274082e4e4c2f240d8cadccee8d040dad2e6dac2e8c6d605b1b6044820152606490fd5b8780fd5b8235908115158203610499579081526020928301920161062e565b8880fd5b8480fd5b8380fd5b5060e03660031901126101c9576001600160401b039060043582811161032257610b7e903690600401612381565b602435838111610a5a57610b96903690600401612381565b90604435848111610b4c57610baf903690600401612381565b916064359182151580930361049957608435938415158095036104995760a435878111610fe257610be4903690600401612381565b9660c435908111610fe257610bfd903690600401612381565b610c0561280d565b610c0e33612903565b610fc4575b3387526020946009865260408820546007541115610f7f57610c3361282b565b610c3f8451151561266d565b845115610f4857604051906005855192888181890195610c608183896123c8565b810160088152030190200154610f0a57604051635a64ad9560e01b8152976001600160a01b0394888a6004817f00000000000000000000000000000000000000000000000000000000000000008a165afa998a15610eff578b9a610ed0575b50893410610e8b57918a9b918b949360405197610cdb89612316565b3389528b8901908b825260408a0192835260608a0194855260808a0193845260a08a0195865260c08a019642885260e08b019889526101008b01998a528d8c60405180938192518092610d2d926123c8565b810160088152030190209951166001600160601b0360a01b8a5416178955516001890190610d5a916126ac565b51610d6890600289016126ac565b6003870191511515610d8690839060ff801983541691151516179055565b51151581549060081b61ff00169061ff001916179055516004850190610dab916126ac565b5160058401555115156006830190610dce919060ff801983541691151516179055565b51610ddb916007016126ac565b33855260098352604085208054610df1906127bb565b9055338552600c8352604085208054610e09906127bb565b9055610e14906127e0565b90604051809184825233948201610e2a916125c0565b037fe1a49d6d78fe3cbf58b62c779b7483d15e17fdaecca147f0d3ead92e9f461e1f91a3803411610e5e575b506001805580f35b8180610e6b819334612800565b818115610e82575b3390f1156104d6578038610e56565b506108fc610e73565b60405162461bcd60e51b8152600481018a9052601f60248201527f496e73756666696369656e742066656520666f722067656e65726174696f6e006044820152606490fd5b9099508881813d8311610ef8575b610ee88183612345565b8101031261049957519838610cbf565b503d610ede565b6040513d8d823e3d90fd5b60405162461bcd60e51b81526004810188905260166024820152755461736b20494420616c72656164792065786973747360501b6044820152606490fd5b60405162461bcd60e51b815260048101879052600f60248201526e141c9bdb5c1d081c995c5d5a5c9959608a1b6044820152606490fd5b60405162461bcd60e51b815260048101879052601f60248201527f4461696c792067656e65726174696f6e206c696d6974206578636565646564006044820152606490fd5b3387526009602052866040812055600a602052426040882055610c13565b8680fd5b50346101c957602090816003193601126101c9576001600160401b03600435818111610a5a5761101a903690600401612381565b92611023612641565b835191821161113f576110376010546124e0565b601f81116110ed575b5080601f831160011461107c5750819293600092611071575b50508160011b916000199060031b1c19161760105580f35b015190503880611059565b90601f198316946010600052600080516020612978833981519152926000905b8782106110d55750508360019596106110bc575b505050811b0160105580f35b015160001960f88460031b161c191690553880806110b0565b8060018596829496860151815501950193019061109c565b6010600052600080516020612978833981519152601f840160051c810191838510611135575b601f0160051c01905b8181106111295750611040565b6000815560010161111c565b9091508190611113565b634e487b7160e01b600052604160045260246000fd5b50346101c957806003193601126101c9576020600754604051908152f35b50346101c95760203660031901126101c9576020611197611192612300565b6128ac565b604051908152f35b50346101c95760203660031901126101c9576111b9612300565b6111c1612641565b60018060a01b03166001600160601b0360a01b600454161760045580f35b50346101c957806003193601126101c957546040516001600160a01b039091168152602090f35b50346101c957806003193601126101c95761121f612641565b61122761280d565b600160ff1960025416176002557f62e78cea01bee320cd4e420270b5ea74000d11b0c9f74754ebdbfc544b05a2586020604051338152a180f35b50346101c95760203660031901126101c957600435906001600160401b0382116101c9576112aa60206112973660048601612381565b81604051938285809451938492016123c8565b60089082019081520301902080546001600160a01b03166103006112d06001840161251a565b926112dd6002820161251a565b6003820154916113616112f26004830161251a565b9360058301549460ff61133e611311600783600689015416970161251a565b966113306040519c8d9c8d5260208d61012091829101528d01906125c0565b908b820360408d01526125c0565b92818116151560608b015260081c161515608089015287820360a08901526125c0565b9260c0860152151560e08501528382036101008501526125c0565b50346101c957806003193601126101c9576004546040516001600160a01b039091168152602090f35b50346101c957806003193601126101c9576113be612641565b600080546001600160a01b0319811682556001600160a01b03167f8be0079c531659141344cd1fd0a4f28419497f9722a3daafe3b4186f6b6457e08280a380f35b50346101c95760403660031901126101c957611419612300565b60243580151581036104995761145591611431612641565b60018060a01b03168352600f602052604083209060ff801983541691151516179055565b80f35b50346101c957806003193601126101c957604051600060105461147a816124e0565b8084529060019081811690811561150157506001146114b8575b610300846114a481860382612345565b6040519182916020835260208301906125c0565b6010600090815292506000805160206129788339815191525b8284106114e95750505081016020016114a482611494565b805460208587018101919091529093019281016114d1565b60ff191660208087019190915292151560051b850190920192506114a49150839050611494565b50346101c95760203660031901126101c9576020906040906001600160a01b03611550612300565b168152600983522054604051908152f35b50346101c957806003193601126101c957602060ff600254166040519015158152f35b50346101c95760203660031901126101c9576020906040906001600160a01b036115ac612300565b168152600a83522054604051908152f35b50346101c957806003193601126101c9576011546040516001600160a01b039091168152602090f35b50346101c957600319604036820112610322576004356001600160401b038111610a5a57611618903690600401612381565b90602435906001600160401b038211610b4c57610120908236030112610a5a576040519061164582612316565b80600401356001600160401b038111610b48576116689060043691840101612381565b825260248101356001600160401b038111610b485761168d9060043691840101612381565b602083015260448101356001600160401b038111610b48576116b59060043691840101612402565b604083015260648101356001600160401b038111610b48576116dd9060043691840101612402565b606083015260848101356001600160401b038111610b48576117059060043691840101612402565b608083015260a48101356001600160401b038111610b485761172d9060043691840101612402565b60a083015260c48101356001600160401b038111610b48576117559060043691840101612402565b60c083015260e48101356001600160401b038111610b485761177d9060043691840101612482565b60e0830152610104810135906001600160401b038211610b485760046117a69236920101612381565b610100820152338352600f60205260ff6040842054168015611fbd575b15611f78576117d061280d565b6117d861282b565b6117e48251151561266d565b60ff60405160208185516117fb8183858a016123c8565b8101600b8152030190205416611f3357600560405160208185516118228183858a016123c8565b81016008815203019020015415611eee5760ff6006604051602081865161184c8183858b016123c8565b81016008815203019020015416611ea957604051602081845161187281838589016123c8565b8101600b81520301902060ff19906001828254161790556001600660405160208187516118a28183858c016123c8565b81016008815203019020019182541617905560208101517f940316db8676bd2f9ae4ac7e4b71aa165be6ce8d4f8ed01a2969d79fd010748c6118fb6118e6856127e0565b926040519182916020835260208301906125c0565b0390a26020810151602081519101206040518060408101106001600160401b03604083011117610a325790665355434345535360c81b60208360407f39bf027dd97f3bae0cf8cfb909695ec63313a9bd61ad52fc7f52cf565b141da8950160405260078152015214600014611e6e576040805160208185516119808183858a016123c8565b8101600881520301902091611a16600783519461199c86612316565b80546001600160a01b031686526119b56001820161251a565b60208701526119c66002820161251a565b8587015260ff60038201548181161515606089015260081c16151560808701526119f26004820161251a565b60a0870152600581015460c087015260ff600682015416151560e08701520161251a565b610100840152015151611a2e575b50505b6001805580f35b80516001600160a01b03168352600d602052604083208054611a4f906127bb565b905580516004546001600160a01b03908116911681151580611dfe575b611c15575b505080516001600160a01b03168352600e602052604083205460ff1615611c0d576006545b80611b1a575b506040519060208201908282106001600160401b0383111761113f57604091909152838252516001600160a01b0316917feed5910e21c43d5fac4922c39903cce155f71bce270949372af82f3ac7e6b15190611b1090611afb906127e0565b92604051918291602083526020830190612878565b0390a33880611a24565b815184906001600160a01b03908116907f000000000000000000000000000000000000000000000000000000000000000016803b15610a5a5760405163d264a38b60e01b81526001600160a01b039290921660048301526024820184905282908290604490829084905af18015610a5e57611bf9575b50507f49649141d16971a88c3cfdd73fec34babb1cf163cf8b804c8f537a023c6ce506608060018060a01b038451169260405190815260406020820152601560408201527439bab1b1b2b9b9b33ab62fb3b2b732b930ba34b7b760591b6060820152a238611a9c565b611c0290612332565b610b4c578338611b90565b600554611a96565b60405163bbe1562760e01b815260048101829052908582602481865afa908115611df357869287908893611ccf575b50600184018411611cbb579087939291853b15610b48576001956084938692604051988997889663a823198560e01b88526004880152016024860152604485015260648401525af18015611cb057611c9d575b80611a71565b611ca990939193612332565b9138611c97565b6040513d86823e3d90fd5b634e487b7160e01b88526011600452602488fd5b93505090503d8087843e611ce38184612345565b6101c0838281010312610fe25782516001600160401b038111610b2557611d0f90828501908501612935565b5060208301516001600160401b038111610b2557611d3290828501908501612935565b5060408301516001600160401b038111610b2557611d5590828501908501612935565b5060608301516001600160401b038111610b2557611d7890828501908501612935565b5060808301516001600160401b038111610b2557611d9b90828501908501612935565b5060a08301516001600160401b038111610b2557611dbd918401908401612935565b50611dca60c083016128f6565b50611dd760e083016128f6565b50610160820151906101a0610180840151930151919238611c44565b6040513d88823e3d90fd5b5060405163a787c80b60e01b815260048101829052602081602481865afa908115611df3578691611e30575b50611a6c565b90506020813d602011611e66575b81611e4b60209383612345565b81010312611e6257611e5c906128f6565b38611e2a565b8580fd5b3d9150611e3e565b611ea16118e66101007fc7112afc660c61d21337292377a2e3e061d3b5e47a50c24d22a03884b57dedf7930151936127e0565b0390a2611a27565b60405162461bcd60e51b815260206004820152601960248201527f5265717565737420616c72656164792070726f636573736564000000000000006044820152606490fd5b60405162461bcd60e51b815260206004820152601c60248201527f47656e65726174696f6e2072657175657374206e6f7420666f756e64000000006044820152606490fd5b60405162461bcd60e51b815260206004820152601a60248201527f43616c6c6261636b20616c72656164792070726f6365737365640000000000006044820152606490fd5b60405162461bcd60e51b815260206004820152601c60248201527f4e6f7420617574686f72697a656420666f722063616c6c6261636b73000000006044820152606490fd5b5082546001600160a01b031633146117c3565b50346101c95760203660031901126101c957611fea612641565b60043560075580f35b50346101c9576020806003193601126103225761200e612300565b6001600160a01b038116808452600c8352604080852054600d8552908520549093919261203a90612903565b156120b85784915b60405193639abd38d560e01b855260048501528084602481305afa938415611df3578694612085575b506080955060405194855284015260408301526060820152f35b9080945081813d83116120b1575b61209d8183612345565b81010312611e62576080955051923861206b565b503d612093565b82855260098252604085205491612042565b50346101c957806003193601126101c9576020600654604051908152f35b50346101c95760203660031901126101c95760209060ff906040906001600160a01b03612113612300565b168152600f84522054166040519015158152f35b50346101c95760203660031901126101c957600435906001600160401b0382116101c957602060ff612160826112973660048801612381565b8101600b81520301902054166040519015158152f35b50346101c957806003193601126101c95761218f612641565b60025460ff8116156121cf5760ff19166002557f5db9ee0a495bf2e6ff9c91a7834c1ba4fdd244a5e8aa4e537bd38aeae4b073aa6020604051338152a180f35b604051638dfc202b60e01b8152600490fd5b50346101c957806003193601126101c9576040517f00000000000000000000000000000000000000000000000000000000000000006001600160a01b03168152602090f35b50346101c957806003193601126101c9576040517f00000000000000000000000000000000000000000000000000000000000000006001600160a01b03168152602090f35b50346101c95760203660031901126101c9576020906040906001600160a01b03612293612300565b168152600c83522054604051908152f35b50346101c95760203660031901126101c9576122be612300565b6122c6612641565b60018060a01b03166001600160601b0360a01b601154161760115580f35b9050346103225781600319360112610322576020906005548152f35b600435906001600160a01b038216820361049957565b61012081019081106001600160401b0382111761113f57604052565b6001600160401b03811161113f57604052565b90601f801991011681019081106001600160401b0382111761113f57604052565b6001600160401b03811161113f57601f01601f191660200190565b81601f820112156104995780359061239882612366565b926123a66040519485612345565b8284526020838301011161049957816000926020809301838601378301015290565b60005b8381106123db5750506000910152565b81810151838201526020016123cb565b6001600160401b03811161113f5760051b60200190565b9080601f830112156104995781359061241a826123eb565b926124286040519485612345565b828452602092838086019160051b8301019280841161049957848301915b8483106124565750505050505090565b82356001600160401b03811161049957869161247784848094890101612381565b815201920191612446565b81601f8201121561049957803591612499836123eb565b926124a76040519485612345565b808452602092838086019260051b820101928311610499578301905b8282106124d1575050505090565b813581529083019083016124c3565b90600182811c92168015612510575b60208310146124fa57565b634e487b7160e01b600052602260045260246000fd5b91607f16916124ef565b906040519182600082549261252e846124e0565b90818452600194858116908160001461259d575060011461255a575b505061255892500383612345565b565b9093915060005260209081600020936000915b8183106125855750506125589350820101388061254a565b8554888401850152948501948794509183019161256d565b91505061255894506020925060ff191682840152151560051b820101388061254a565b906020916125d9815180928185528580860191016123c8565b601f01601f1916010190565b908082519081815260208091019281808460051b8301019501936000915b8483106126135750505050505090565b9091929394958480612631600193601f198682030187528a516125c0565b9801930193019194939290612603565b6000546001600160a01b0316330361265557565b60405163118cdaa760e01b8152336004820152602490fd5b1561267457565b60405162461bcd60e51b815260206004820152601060248201526f15185cdac81251081c995c5d5a5c995960821b6044820152606490fd5b91909182516001600160401b03811161113f576126c982546124e0565b601f8111612773575b50602080601f831160011461270f575081929394600092612704575b50508160011b916000199060031b1c1916179055565b0151905038806126ee565b90601f198316958460005282600020926000905b88821061275b57505083600195969710612742575b505050811b019055565b015160001960f88460031b161c19169055388080612738565b80600185968294968601518155019501930190612723565b600083815260208120601f840160051c810192602085106127b1575b601f0160051c01915b8281106127a65750506126d2565b818155600101612798565b909250829061278f565b60001981146127ca5760010190565b634e487b7160e01b600052601160045260246000fd5b6127f8906020604051928284809451938492016123c8565b810103902090565b919082039182116127ca57565b60ff6002541661281957565b60405163d93c066560e01b8152600490fd5b60026001541461283c576002600155565b604051633ee5aeb560e01b8152600490fd5b80518210156128625760209160051b010190565b634e487b7160e01b600052603260045260246000fd5b90815180825260208080930193019160005b828110612898575050505090565b83518552938101939281019260010161288a565b6128b581612903565b6128ef576001600160a01b0316600090815260096020526040902054600754908181106128e3575050600090565b6128ec91612800565b90565b5060075490565b5190811515820361049957565b6001600160a01b03166000908152600a6020526040902054801561292f57620151808091049042041190565b50600190565b81601f8201121561049957805161294b81612366565b926129596040519485612345565b81845260208284010111610499576128ec91602080850191016123c856fe1b6847dc741a1b0cd08d278845f9d819d87b734759afb55fe2de5cb82a9ae672a2646970667358221220ae206ca1cecca01f92b4c49b32e61df707272736f64763b2b0df21c3aa85c0b864736f6c634300081400336080346200014357601f6200204038819003918201601f19168301916001600160401b03831184841017620001485780849260809460405283398101031262000143576200004d816200015e565b906200005c602082016200015e565b9062000079606062000071604084016200015e565b92016200015e565b60016000556001600160a01b039081169290919083156200012a578290816001549660018060a01b03199680888a16176001558260405199167f8be0079c531659141344cd1fd0a4f28419497f9722a3daafe3b4186f6b6457e0600080a369152d02c7e14af68000006002556201518060035562093a80600455600a6005556202a300600655168560075416176007551683600854161760085516906009541617600955611ecc9081620001748239f35b604051631e4fbdf760e01b815260006004820152602490fd5b600080fd5b634e487b7160e01b600052604160045260246000fd5b51906001600160a01b0382168203620001435756fe608080604052600436101561001357600080fd5b60003560e01c908163013cf08b146117da5750806302a251a3146117bc5780630d61b5191461150f5780633932abb1146114f15780633f4ba83a1461147f5780634fa76ec9146114615780635584c4f9146113ab578063595488ba14610d1a5780635b7ad57814610ce05780635c975abb14610cba57806361d027b314610c9157806362aef6f0146108de5780636dca4d441461086f578063715018a6146108125780638456cb59146107b05780638b257989146107925780638da5cb5b146107695780639e7c01b414610740578063b58131b014610722578063bb4d4436146106f7578063bc3f931f14610341578063c46a20a2146106ce578063c7f758a8146105af578063c851ed6c146103f8578063cc453157146103bf578063d23254b414610341578063da35c66414610323578063e0a8f6f51461022e578063e40824f8146101f75763f2fde38b1461016957600080fd5b346101f25760203660031901126101f257610182611af6565b61018a611b96565b6001600160a01b039081169081156101d957600154826001600160601b0360a01b821617600155167f8be0079c531659141344cd1fd0a4f28419497f9722a3daafe3b4186f6b6457e0600080a3005b604051631e4fbdf760e01b815260006004820152602490fd5b600080fd5b346101f25760203660031901126101f257600435600e548110156101f257610220602091611b49565b90546040519160031b1c8152f35b346101f25760203660031901126101f25760043580600052600a602052604060002061025c81541515611c53565b6001810154336001600160a01b0391821614908115610315575b50156102d057600a016004815461029960ff821661029381611a65565b15611c9f565b60ff19161790556102a981611df6565b7f416e669c63d9a3a5e36ee7cc7e2104b8db28ccd286aa18966e98fa230c73b08c600080a2005b60405162461bcd60e51b815260206004820152601860248201527f4e6f7420617574686f72697a656420746f2063616e63656c00000000000000006044820152606490fd5b905060015416331483610276565b346101f25760003660031901126101f2576020600d54604051908152f35b346101f25760403660031901126101f25761035a611b0c565b600435600052600b60205260406000209060018060a01b0316600052602052604060002080546103bb60026103a560018501549461039e604051809481930161196d565b0382611a03565b604051938360ff80879660081c16911685611b22565b0390f35b346101f25760a03660031901126101f2576103d8611b96565b600480356002556024356003556044359055606435600555608435600655005b346101f2576020806003193601126101f25760043580600052600a8252604060002061042681541515611c53565b600681015442111561057457600a81019081549060ff821661044781611a65565b610536576007546040516318160ddd60e01b8152908690829060049082906001600160a01b03165afa95861561052a576000966104fa575b5050600554948581029581870414901517156104e45760646104c195046009820154101590816104d1575b50156104c35750805460ff19166001179055611df6565b005b60ff19166002179055611df6565b90506008600782015491015410856104aa565b634e487b7160e01b600052601160045260246000fd5b9080929650813d8311610523575b6105128183611a03565b810103126101f2575193858061047f565b503d610508565b6040513d6000823e3d90fd5b60405162461bcd60e51b815260048101869052601660248201527514dd185d1d5cc8185b1c9958591e481d5c19185d195960521b6044820152606490fd5b60405162461bcd60e51b8152600481018490526013602482015272566f74696e67207374696c6c2061637469766560681b6044820152606490fd5b346101f25760203660031901126101f257600435600052600a60205260406000208054600160a01b6001900360018301541691600481015460ff1690600581015460068201546007830154600884015490600985015492600a86015460ff1694600c87015496604051808060028401906106289161196d565b036106339082611a03565b604051806003819401906106469161196d565b036106519083611a03565b6040519b8c9b8c5260208c01526101808060408d01528b0161067291611a25565b8a810360608c015261068391611a25565b9761068d81611a65565b60808a015260a089015260c088015260e08701526101008601526101208501526106b681611a65565b61014084015260a01c60ff1615156101608301520390f35b346101f25760003660031901126101f2576007546040516001600160a01b039091168152602090f35b346101f25760203660031901126101f257602061071a610715611af6565b611ce1565b604051908152f35b346101f25760003660031901126101f2576020600254604051908152f35b346101f25760003660031901126101f2576008546040516001600160a01b039091168152602090f35b346101f25760003660031901126101f2576001546040516001600160a01b039091168152602090f35b346101f25760003660031901126101f2576020600654604051908152f35b346101f25760003660031901126101f2576107c9611b96565b6107d1611c32565b6001805460ff60a01b1916600160a01b1790556040513381527f62e78cea01bee320cd4e420270b5ea74000d11b0c9f74754ebdbfc544b05a25890602090a1005b346101f25760003660031901126101f25761082b611b96565b600180546001600160a01b031981169091556000906001600160a01b03167f8be0079c531659141344cd1fd0a4f28419497f9722a3daafe3b4186f6b6457e08280a3005b346101f25760603660031901126101f257610888611af6565b610890611b0c565b6001600160a01b036044358181169392908490036101f2576108b0611b96565b816001600160601b0360a01b9316836007541617600755168160085416176008556009541617600955600080f35b346101f25760603660031901126101f25760043560248035918215158084036101f25767ffffffffffffffff926044358481116101f257610923903690600401611ad8565b9361092c611c32565b83600052602095600a875260406000209161094983541515611c53565b60058301544210610c545760068301544211610c1d5761097360ff600a8501541661029381611a65565b85600052600b8852604060002033600052885260ff60406000205416610be95761099c33611ce1565b938415610bb457604051906080820182811084821117610b9f57908993929160405260026001928381528c8082018b815260408301918b8352606084019889528d600052600b815260406000209033600052526040600020925115159060ff61ff0085549251151560081b1692169061ffff1916171782555184820155019351908151938411610b8b5750610a3b83610a358654611933565b86611bde565b8a90601f8411600114610afc5792807f63453ebf8e1aa432b8d77257d489f75c1a106cdbd568c0e0c63547d20fc91fa89a9b9c979593819360099896600094610af1575b50501b916000199060031b1c19161790555b15610adb5760078101610aa5858254611bc2565b90555b01610ab4838254611bc2565b90556040519283528201526060604082015280610ad633956060830190611a25565b0390a3005b60088101610aea858254611bc2565b9055610aa8565b015192508e80610a7f565b90601f93929319831691856000528c6000209260005b818110610b76575091600997959391857f63453ebf8e1aa432b8d77257d489f75c1a106cdbd568c0e0c63547d20fc91fa89d9e9f9a98969410610b5d575b505050811b019055610a91565b015160001960f88460031b161c191690558c8080610b50565b82840151855593860193928e01928e01610b12565b634e487b7160e01b60009081526041600452fd5b50634e487b7160e01b60009081526041600452fd5b88600f6064926040519262461bcd60e51b845260048401528201526e2737903b37ba34b733903837bbb2b960891b6044820152fd5b60405162461bcd60e51b815260048101899052600d818601526c105b1c9958591e481d9bdd1959609a1b6044820152606490fd5b60405162461bcd60e51b8152600481018990526010818601526f159bdd1a5b99c81a185cc8195b99195960821b6044820152606490fd5b60405162461bcd60e51b81526004810189905260168186015275159bdd1a5b99c81a185cc81b9bdd081cdd185c9d195960521b6044820152606490fd5b346101f25760003660031901126101f2576009546040516001600160a01b039091168152602090f35b346101f25760003660031901126101f257602060ff60015460a01c166040519015158152f35b346101f25760203660031901126101f2576001600160a01b03610d01611af6565b16600052600c6020526020604060002054604051908152f35b346101f25760a03660031901126101f25760043567ffffffffffffffff81116101f257610d4b903690600401611ad8565b60243567ffffffffffffffff81116101f257610d6b903690600401611ad8565b600560443510156101f25760643567ffffffffffffffff81116101f257366023820112156101f257610da7903690602481600401359101611aa1565b608435906001600160a01b03821682036101f257610dc3611c32565b610dcc33611ce1565b6002541161135a5733600052600c6020526040600020546201518081018091116104e457421061130957610e01600d54611bcf565b9283600d55610e1260035442611bc2565b92610e1f60045485611bc2565b9260405192836101c081011067ffffffffffffffff6101c086011117611182576101c084016040528684523360208501528760408501526060840152610e66604435611a65565b60443560808401528460a08401528360c0840152600060e084015260006101008401526000610120840152600061014084015261016083015260018060a01b031661018082015260006101a082015283600052600a6020526040600020815181556001810160018060a01b036020840151166001600160601b0360a01b825416179055604082015180519067ffffffffffffffff8211611182578190610f1c82610f136002870154611933565b60028701611bde565b602090601f83116001146112975760009261128c575b50508160011b916000199060031b1c19161760028201555b606082015180519067ffffffffffffffff8211611182578190610f7d82610f746003870154611933565b60038701611bde565b602090601f831160011461121a5760009261120f575b50508160011b916000199060031b1c19161760038201555b608082015160048201610fbd82611a65565b610fc682611a65565b60ff199160ff83835416911617905560a0830151600583015560c0830151600683015560e0830151600783015561010083015160088301556101208301516009830155600a82019060ff6101408501519161102083611a65565b61102983611a65565b8354169116179055610160820151805167ffffffffffffffff811161118257600b8301916110618261105b8554611933565b85611bde565b602090601f83116001146111a357600c9493929160009183611198575b50508160011b916000199060031b1c19161790555b019060018060a01b03610180820151168254916101a060ff60a01b910151151560a01b16916affffffffffffffffffffff60a81b1617179055600e54680100000000000000008110156111825760209484926111338461111a8560017ffd3a4372829eebfa1fcdd5a6e4bbbeb5b140261c36928520367a19665a17a9969701600e55611b49565b90919082549060031b91821b91600019901b1916179055565b33600052600c87524260406000205561115760405192608084526080840190611a25565b94611163604435611a65565b60443588840152604083015260608201528033940390a3604051908152f35b634e487b7160e01b600052604160045260246000fd5b015190508a8061107e565b90601f198316918460005260206000209260005b8181106111f75750916001939185600c98979694106111de575b505050811b019055611093565b015160001960f88460031b161c191690558a80806111d1565b929360206001819287860151815501950193016111b7565b015190508880610f93565b9250600384016000526020600020906000935b601f1984168510611271576001945083601f19811610611258575b505050811b016003820155610fab565b015160001960f88460031b161c19169055888080611248565b8181015183556020948501946001909301929091019061122d565b015190508880610f32565b9250600284016000526020600020906000935b601f19841685106112ee576001945083601f198116106112d5575b505050811b016002820155610f4a565b015160001960f88460031b161c191690558880806112c5565b818101518355602094850194600190930192909101906112aa565b60405162461bcd60e51b8152602060048201526024808201527f4d757374207761697420323420686f757273206265747765656e2070726f706f60448201526373616c7360e01b6064820152608490fd5b60405162461bcd60e51b8152602060048201526024808201527f496e73756666696369656e7420766f74696e6720706f77657220746f2070726f604482015263706f736560e01b6064820152608490fd5b346101f25760003660031901126101f25760405180600e5480835260208093018091600e6000527fbb7b4a454dc3493923482f07822329ed19e8244eff582cc204f8554c3620c3fd9060005b8682821061144d57868661140d82880383611a03565b604051928392818401908285525180915260408401929160005b82811061143657505050500390f35b835185528695509381019392810192600101611427565b8354855290930192600192830192016113f7565b346101f25760003660031901126101f2576020600554604051908152f35b346101f25760003660031901126101f257611498611b96565b60015460ff8160a01c16156114df5760ff60a01b19166001556040513381527f5db9ee0a495bf2e6ff9c91a7834c1ba4fdd244a5e8aa4e537bd38aeae4b073aa90602090a1005b604051638dfc202b60e01b8152600490fd5b346101f25760003660031901126101f2576020600354604051908152f35b346101f2576020806003193601126101f2576004359081600052600a8152604060002061153e81541515611c53565b61154f600682015460065490611bc2565b42111561177757600c81019081549160ff8360a01c1661173f57600a82019182549260ff84169261157f84611a65565b60018094036117015760ff60a01b198616600160a01b17905560ff199384166003179055600b018054909290916115b583611933565b1515806116ef575b6115ea575b867f712ae1383f79ac853f8d882153778e0260ef8f03b504e2866e0593e04d2b291f600080a2005b604051936000936115fa81611933565b938184169182156116d857505060011461169d575b506000948594938490039392508491506001600160a01b03165af13d15611698573d61163a81611a85565b906116486040519283611a03565b81526000833d92013e5b156116615780808080806115c2565b6064906040519062461bcd60e51b82526004820152601060248201526f115e1958dd5d1a5bdb8819985a5b195960821b6044820152fd5b611652565b909192506000528460002090856000925b8484106116c65750505090820190508160008061160f565b805486850152920191869082016116ae565b16865250505080151502820190508160008061160f565b506001600160a01b03851615156115bd565b60405162461bcd60e51b8152600481018890526016602482015275141c9bdc1bdcd85b081b9bdd081cdd58d8d95959195960521b6044820152606490fd5b60405162461bcd60e51b815260048101859052601060248201526f105b1c9958591e48195e1958dd5d195960821b6044820152606490fd5b60405162461bcd60e51b815260048101839052601760248201527f457865637574696f6e2064656c6179206e6f74206d65740000000000000000006044820152606490fd5b346101f25760003660031901126101f2576020600454604051908152f35b346101f25760203660031901126101f2576004356000908152600a60205260409020805460018201546001600160a01b0390811693919290919081611822816002840161196d565b0361182d9083611a03565b6040518061183e816003850161196d565b036118499082611a03565b600482015460ff1690600583015460068401546007850154600886015491600987015493600a88015460ff1695604051988980600b83019061188a9161196d565b03611895908b611a03565b600c0154996040519d8e809e8152602001528c6101c06040819201528d016118bc91611a25565b8c810360608e01526118cd91611a25565b966118d781611a65565b60808c015260a08b015260c08a015260e089015261010088015261012087015261190081611a65565b61014086015284810361016086015261191891611a25565b91811661018084015260a01c60ff1615156101a08301520390f35b90600182811c92168015611963575b602083101461194d57565b634e487b7160e01b600052602260045260246000fd5b91607f1691611942565b906000929180549161197e83611933565b9182825260019384811690816000146119e057506001146119a0575b50505050565b90919394506000526020928360002092846000945b8386106119cc57505050500101903880808061199a565b8054858701830152940193859082016119b5565b9294505050602093945060ff191683830152151560051b0101903880808061199a565b90601f8019910116810190811067ffffffffffffffff82111761118257604052565b919082519283825260005b848110611a51575050826000602080949584010152601f8019910116010190565b602081830181015184830182015201611a30565b60051115611a6f57565b634e487b7160e01b600052602160045260246000fd5b67ffffffffffffffff811161118257601f01601f191660200190565b929192611aad82611a85565b91611abb6040519384611a03565b8294818452818301116101f2578281602093846000960137010152565b9080601f830112156101f257816020611af393359101611aa1565b90565b600435906001600160a01b03821682036101f257565b602435906001600160a01b03821682036101f257565b9092608092611af39594151583521515602083015260408201528160608201520190611a25565b600e54811015611b8057600e6000527fbb7b4a454dc3493923482f07822329ed19e8244eff582cc204f8554c3620c3fd0190600090565b634e487b7160e01b600052603260045260246000fd5b6001546001600160a01b03163303611baa57565b60405163118cdaa760e01b8152336004820152602490fd5b919082018092116104e457565b60001981146104e45760010190565b90601f8111611bec57505050565b600091825260208220906020601f850160051c83019410611c28575b601f0160051c01915b828110611c1d57505050565b818155600101611c11565b9092508290611c08565b60ff60015460a01c16611c4157565b60405163d93c066560e01b8152600490fd5b15611c5a57565b60405162461bcd60e51b815260206004820152601760248201527f50726f706f73616c20646f6573206e6f742065786973740000000000000000006044820152606490fd5b15611ca657565b60405162461bcd60e51b815260206004820152601360248201527250726f706f73616c206e6f742061637469766560681b6044820152606490fd5b6007546040516370a0823160e01b81526001600160a01b03928316600482018190529092916020919082908590602490829087165afa93841561052a57600094611dc7575b50600092600854169081611d54575b5050508060011b90808204600214901517156104e457611af391611bc2565b829060246040518094819363dd2a8b1160e01b835260048301525afa91839083611d91575b505050611d8c575060005b388080611d35565b611d84565b909180939450813d8311611dc0575b611daa8183611a03565b81010312611dbd57505190388080611d79565b80fd5b503d611da0565b90938282813d8311611def575b611dde8183611a03565b81010312611dbd5750519238611d26565b503d611dd4565b60005b600e908154918282101561199a578392611e1283611b49565b959054600396871b1c14611e32575050611e2d919250611bcf565b611df9565b909250600019918282019182116104e45761111a611e52611e5e93611b49565b905490871b1c91611b49565b81548015611e8057810192611e7284611b49565b81939154921b1b1916905555565b634e487b7160e01b600052603160045260246000fdfea2646970667358221220eca16d057233cbaeec86360bb1983bff12820686fd30d83bfe18197708b4fa5d64736f6c634300081400336080346200032f57601f62001e7138819003918201601f1916830192916001600160401b038411838510176200033457808392604095865283396020928391810103126200032f57516001600160a01b0390818116908190036200032f57600191826000558115620003175782546001600160a01b0319811683178455167f8be0079c531659141344cd1fd0a4f28419497f9722a3daafe3b4186f6b6457e0600080a3620000ac6200034a565b91678ac7230489e80000835280830192606491828552858201938085528651956d67656e65726174655f747261636b60901b8752602e600e978880820152209351845551818401556002809301945115159360ff19958681541660ff809716179055620001186200034a565b92674563918244f400009384815285828201918483528b81019286845260288d51671b1a5cdd17db999d60c21b81528d600882015220915182555186820155019051151587898354169116179055620001706200034a565b84815285828201918483528b81019286845260278d5166189d5e57db999d60ca1b81528d600782015220915182555186820155019051151587898354169116179055620001bc6200034a565b671bc16d674ec80000815285828201918483528b810192868452602f8d516e18dc99585d1957dc1b185e5b1a5cdd608a1b81528d600f82015220915182555186820155019051151587898354169116179055620002186200034a565b8986670de0b6b3a764000092838152848101868152602b8d858401958a875251906a3337b63637bbafbab9b2b960a91b8252600b820152209151825551878201550190511515888a8354169116179055620002726200034a565b90815285828201918483528b810192868452602f8d516e646973636f7665725f656e6761676560881b81528d600f82015220915182555186820155019051151587898354169116179055620002c66200034a565b9384528301908152602c888401978389528951906b7374616b655f746f6b656e7360a01b8252600c82015220925183555190820155019251151591835416911617905551611b0690816200036b8239f35b8451631e4fbdf760e01b815260006004820152602490fd5b600080fd5b634e487b7160e01b600052604160045260246000fd5b60405190606082016001600160401b03811183821017620003345760405256fe6080604052600436101561001257600080fd5b6000803560e01c806328596fe21461174c5780632f9662c5146117235780633f4ba83a146116b0578063468ba799146116875780635c975abb1461166157806360ac12351461153b578063702a557014611275578063702da85c146110ef578063715018a61461109157806375a2d46c1461106857806378946ae71461102f5780637ba89f9b14610fa557806381cd94cd14610ef95780638456cb5914610e965780638da5cb5b14610e6d578063943cbfda14610cbe57806395856c8f14610c955780639e7c01b414610c6c578063b4168ed7146107bf578063c3fe1c2414610796578063c46a20a21461076d578063c8b14bab14610744578063d22a668c146103f7578063da2ca6e3146103ce578063e040fdf5146103a5578063f2fde38b146103155763fee2980e1461014657600080fd5b346102485761015436611910565b91610160939193611a02565b6101686119e1565b600a546001600160a01b039190821633036102d857859482600b54169182610258575b505050806007541692836101a2575b846001815580f35b6040516101cc602082816101bf81830196878151938492016118c7565b8101038084520182611850565b5190206040516020810190647374616b6560d81b8252600581526101ef81611835565b5190200361024f576001925b803b1561024b578492836044926040519687958694634631f02360e11b865216600485015260248401525af1610234575b80808061019a565b61023d906117f1565b61024857803861022c565b80fd5b8480fd5b600019926101fb565b6040516020810190667374616b696e6760c81b82526007815261027a81611835565b51902090833b156102d45787938785886102ac829660405198899788968795630512c19b60e41b8752600487016119ab565b03925af16102bb575b8061018b565b6102c4906117f1565b6102cf5783386102b5565b505050fd5b8780fd5b60405162461bcd60e51b815260206004820152601560248201527413db9b1e481cdd185ada5b99c818dbdb9d1c9858dd605a1b6044820152606490fd5b50346102485760203660031901126102485761032f6117af565b61033761195a565b6001600160a01b0390811690811561038c57600154826bffffffffffffffffffffffff60a01b821617600155167f8be0079c531659141344cd1fd0a4f28419497f9722a3daafe3b4186f6b6457e0600080a380f35b604051631e4fbdf760e01b815260048101849052602490fd5b50346102485780600319360112610248576006546040516001600160a01b039091168152602090f35b50346102485780600319360112610248576008546040516001600160a01b039091168152602090f35b5034610248576080366003190112610248576104116117af565b6024356001600160401b03811161058f57610430903690600401611871565b9060443561043c611a02565b6104446119e1565b6004546001600160a01b0390811633148015610737575b801561072a575b801561071d575b8015610710575b8015610703575b156106c65780831692838652600c60205261049560408720866118ea565b805460001981146106b2579060018895949392019055848452600d60205242604085205581600b541680610640575b50506104cf85611a25565b80610593575b50600954168061052f575b5050506104f860405192604084526040840190611986565b904260208401527f30be0f29c64d4388e552d625bbb4c2a85f865a4412d1864e8b70783ab817a81630938033940390a46001815580f35b803b1561058f5782918291604051809481809463ad2d7bdd60e01b825289600483015260606024830152610566606483018c611986565b90604483015203925af161057b575b806104e0565b610584906117f1565b61058f578238610575565b8280fd5b816002541690813b1561024b5784808088946044604051809581936340c10f1960e01b83528960048401528860248401525af19182610627575b50506105da575b506104d5565b7f17baf26e55feca64139049026bdc2896838f2e72efc0ca29d02c9ffbb481ab4f906040519081526060602082015280610617606082018a611986565b4260408301520390a283386105d4565b610633919294506117f1565b61024b57859185386105cd565b60405160208101903360601b82526014815261065b81611835565b51902090803b156106ae578592839186838b61069160405197889687958694630512c19b60e41b865260643592600487016119ab565b03925af1156104c4576106a3906117f1565b61058f5782386104c4565b8580fd5b634e487b7160e01b88526011600452602488fd5b60405162461bcd60e51b8152602060048201526015602482015274155b985d5d1a1bdc9a5e99590818dbdb9d1c9858dd605a1b6044820152606490fd5b5080600a54163314610477565b5080600954163314610470565b5080600754163314610469565b5080600854163314610462565b508060055416331461045b565b50346102485780600319360112610248576004546040516001600160a01b039091168152602090f35b50346102485780600319360112610248576002546040516001600160a01b039091168152602090f35b50346102485780600319360112610248576005546040516001600160a01b039091168152602090f35b50346102485760c0366003190112610248576107d96117af565b6024356001600160401b03811161058f576107f8903690600401611871565b906044356001600160401b038111610c6857610818903690600401611871565b6084356001600160401b03811161024b57610837903690600401611871565b926001600160401b0360a4351161024b5736602360a43501121561024b5760a43560040135936001600160401b038511610c54576040518560051b956108806020880183611850565b81526020810180963660248260a435010111610c5057602460a43501915b60248260a43501018310610c19575050506108b7611a02565b6108bf6119e1565b6004546001600160a01b03163303610bdc576003546040516329fdb9fd60e11b81526001600160a01b038781166004830152608060248301529097899690926020928a9291169082908990829061092f9061091d608484018d611986565b83810360031901604485015290611986565b606435606483015203925af1968715610bd1578597610b95575b506009546001600160a01b03169182610ab8575b5050600b546001600160a01b0316929150829050610a17575b50506007546001600160a01b031690508061099b575b60208360018655604051908152f35b908184923b1561058f576040805163d29ad80f60e01b81526001600160a01b0390931660048401526024830152600e60448301526d1d1c9858dadcd7d8dc99585d195960921b60648301529091908290608490829084905af16109ff575b8061098c565b610a0983916117f1565b610a1357386109f9565b5080fd5b604051610a34602082816101bf81830196878151938492016118c7565b519020813b1561058f57829160e483926040519485938492630512c19b851b845260018060a01b038a16600485015260a06024850152600c60a48501526b1d1c9858dad7db5a5b9d195960a21b60c48501528a604485015282606485015260848401525af1610aa4575b80610976565b610aad906117f1565b61058f578238610a9e565b909180939495503b156102d457908794939291610af3604051946340bfcc7360e11b8652896004870152608060248701526084860190611986565b9060031985830301604486015251808252602082019160208260051b820101939288915b838310610b5e57505050505082809281878096819560018060a01b038c16606483015203925af1610b4a575b808061095d565b610b53906117f1565b610a13578138610b43565b919395969798509193602080610b80600193601f198682030187528951611986565b97019301930190928b98979695949293610b17565b945095506020843d602011610bc9575b81610bb260209383611850565b81010312610bc4578693519538610949565b600080fd5b3d9150610ba5565b6040513d87823e3d90fd5b60405162461bcd60e51b815260206004820152601560248201527413db9b1e48199858dd1bdc9e4818d85b881b5a5b9d605a1b6044820152606490fd5b6001600160401b03833511610c4c57602080602492610c3f3685883560a4350101611871565b815201930192905061089e565b8980fd5b8880fd5b634e487b7160e01b86526041600452602486fd5b8380fd5b5034610248578060031936011261024857600a546040516001600160a01b039091168152602090f35b50346102485780600319360112610248576009546040516001600160a01b039091168152602090f35b503461024857602080600319360112610a1357610cd96117af565b908260018060a01b0380931692838552600c808452602e60408720604051906d67656e65726174655f747261636b60901b8252600e82015220549480875281855260286040882060405190671b1a5cdd17db999d60c21b8252600882015220548188528286526027604089206040519066189d5e57db999d60ca1b82526007820152205491808952838752602c602f60408b20604051906e18dc99585d1957dc1b185e5b1a5cdd608a1b8252600f820152205494828b5280895260408b20604051916b7374616b655f746f6b656e7360a01b83528201522054946007541680610df1575b508860409160e09a52600d885220549560405197885287015260408601526060850152608084015260a083015260c0820152f35b6024919650879060405192838092633069231d60e01b82528a60048301525afa899181610e3b575b509860409160e09a15600014610e35575080965b915098610dbd565b96610e2d565b9150988782813d8311610e66575b610e538183611850565b81010312610bc4579051909860e0610e19565b503d610e49565b50346102485780600319360112610248576001546040516001600160a01b039091168152602090f35b5034610248578060031936011261024857610eaf61195a565b610eb76119e1565b6001805460ff60a01b1916600160a01b1790556040513381527f62e78cea01bee320cd4e420270b5ea74000d11b0c9f74754ebdbfc544b05a25890602090a180f35b5034610248576080366003190112610248576004356001600160401b038111610a1357610f2a903690600401611871565b60643590811515809203610bc457600290610f4361195a565b60405190610f508261181a565b6024358252610f7d60208084019260443584526040850196875281604051938285809451938492016118c7565b8101600e81520301902091518255516001820155019051151560ff8019835416911617905580f35b503461024857602036600319011261024857600435906001600160401b03821161024857610fee6020610fdb3660048601611871565b81604051938285809451938492016118c7565b8101600e815203019020805461102b60ff600260018501549401541660405193849384919260409194936060840195845260208401521515910152565b0390f35b5034610248576020366003190112610248576020906040906001600160a01b036110576117af565b168152600d83522054604051908152f35b50346102485780600319360112610248576007546040516001600160a01b039091168152602090f35b50346102485780600319360112610248576110aa61195a565b600180546001600160a01b031981169091556000906001600160a01b03167f8be0079c531659141344cd1fd0a4f28419497f9722a3daafe3b4186f6b6457e08280a380f35b5034610248576110fe36611910565b611109929192611a02565b6111116119e1565b6008546001600160a01b0392908316330361123757859483600b541690816111be575b5050505060095416908161114b575b826001815580f35b813b156111ba57829160a483926040519485938492633fa6d7e360e11b8452600484015260606024840152600c60648401526b1c1b185e5b1a5cdd17d8591960a21b6084840152600160448401525af16111a6575b80611143565b6111af906117f1565b6102485780386111a0565b5050fd5b6040516020810190671c1b185e5b1a5cdd60c21b8252600881526111e181611835565b51902091803b156102d4578794858893611213829660405198899788968795630512c19b60e41b8752600487016119ab565b03925af1611223575b8080611134565b61122c906117f1565b6111ba57823861121c565b60405162461bcd60e51b815260206004820152601660248201527513db9b1e481c1b185e5b1a5cdd0818dbdb9d1c9858dd60521b6044820152606490fd5b50346102485760a03660031901126102485761128f6117c5565b6112976117db565b608435918215159182840361024b576112ae611a02565b6112b66119e1565b6005546001600160a01b039390841633036114f65785948460065416908161149a575b505083600b541680611439575b50508260095416806113cc575b5082600754168061130657846001815580f35b803b1561024b5784846084829483604051958694859363d29ad80f60e01b855216600484015260406024840152600f60448401526e1cd85b195cd7d8dbdb5c1b195d1959608a1b60648401525af16113b8575b5050816007541691823b156102cf5760848492836040519586948593630bb348d360e11b855216600484015260406024840152600e60448401526d7075726368617365735f6d61646560901b60648401525af16102345780808061019a565b6113c1906117f1565b6111ba578238611359565b803b1561024b578480809260a460405180948193633fa6d7e360e11b83526004356004840152606060248401526008606484015267707572636861736560c01b6084840152600160448401525af1611425575b506112f3565b61142e906117f1565b6102cf57833861141f565b803b156106ae578580929160a48293604051948593849263078e573960e11b84528b8b1660048501528b8a1660248501526004356044850152606435606485015260848401525af1156112e65761148f906117f1565b6102cf5783386112e6565b813b156114f25760405163023e153360e51b81526004803590820152606480356024830152911515604482015297879289929183915af16114de575b8585966112d9565b9390946114ea906117f1565b9284906114d6565b8680fd5b60405162461bcd60e51b815260206004820152601960248201527f4f6e6c79206d61726b6574706c61636520636f6e7472616374000000000000006044820152606490fd5b503461024857610160366003190112610248576115566117af565b61155e6117c5565b906115676117db565b6001600160a01b03606435818116908190036106ae57608435828116036106ae5760a4358281168091036114f25760c435908382168092036102d45760e43592848416809403610c50576101043594808616809603610c4c57610124359681881680980361165d576101443599828b16809b036116595782906115e861195a565b816bffffffffffffffffffffffff60a01b9b168b6002541617600255168960035416176003551687600454161760045586600554161760055585600654161760065584600754161760075583600854161760085582600954161760095581600a541617600a55600b541617600b5580f35b8b80fd5b8a80fd5b5034610248578060031936011261024857602060ff60015460a01c166040519015158152f35b5034610248578060031936011261024857600b546040516001600160a01b039091168152602090f35b50346102485780600319360112610248576116c961195a565b60015460ff8160a01c16156117115760ff60a01b19166001556040513381527f5db9ee0a495bf2e6ff9c91a7834c1ba4fdd244a5e8aa4e537bd38aeae4b073aa90602090a180f35b604051638dfc202b60e01b8152600490fd5b50346102485780600319360112610248576003546040516001600160a01b039091168152602090f35b5034610248576040366003190112610248576117666117af565b6024356001600160401b03811161058f5790604060209361178e6117a6943690600401611871565b6001600160a01b039093168152600c855220906118ea565b54604051908152f35b600435906001600160a01b0382168203610bc457565b602435906001600160a01b0382168203610bc457565b604435906001600160a01b0382168203610bc457565b6001600160401b03811161180457604052565b634e487b7160e01b600052604160045260246000fd5b606081019081106001600160401b0382111761180457604052565b604081019081106001600160401b0382111761180457604052565b90601f801991011681019081106001600160401b0382111761180457604052565b81601f82011215610bc4578035906001600160401b03821161180457604051926118a5601f8401601f191660200185611850565b82845260208383010111610bc457816000926020809301838601378301015290565b60005b8381106118da5750506000910152565b81810151838201526020016118ca565b6020906119049282604051948386809551938492016118c7565b82019081520301902090565b906080600319830112610bc4576004356001600160a01b0381168103610bc457916024359160443591606435906001600160401b038211610bc45761195791600401611871565b90565b6001546001600160a01b0316330361196e57565b60405163118cdaa760e01b8152336004820152602490fd5b9060209161199f815180928185528580860191016118c7565b601f01601f1916010190565b916119d2906080949796959260018060a01b0316845260a0602085015260a0840190611986565b95604083015260608201520152565b60ff60015460a01c166119f057565b60405163d93c066560e01b8152600490fd5b600260005414611a13576002600055565b604051633ee5aeb560e01b8152600490fd5b6020611a3e9181604051938285809451938492016118c7565b8101600e815203019020604051611a548161181a565b81549081815260ff6002600185015494856020850152015416159060408215910152611ac9574262278cff19810111611ab3574262278d0011611ab35760048201809211611ab357818102918183041490151715611ab3576064900490565b634e487b7160e01b600052601160045260246000fd5b505060009056fea26469706673582212208fd7cea4697ca0f9e136dfa85800f275fb6ee6081f61e13ef9722a0b4dd1b71064736f6c6343000814003360c034620001e457601f6200582e38819003918201601f19168301916001600160401b03831184841017620001e957808492606094604052833981010312620001e4576200004d81620001ff565b6200006960406200006160208501620001ff565b9301620001ff565b903315620001cb57600080546001600160a01b03198082163390811784556040519691956001600160a01b039590948694859391908416907f8be0079c531659141344cd1fd0a4f28419497f9722a3daafe3b4186f6b6457e09080a36001805560fa60035566038d7ea4c68000601955610e10601a5562278d00601b5562093a80601c55610258601d55166080521660a0521690600454161760045560001960105561561990816200021582396080518181816103f201528181610fc7015281816115f001528181611acd0152818161212701528181612d1d0152818161355101528181613ca501528181613d0101528181613e9e01528181613f0b0152613f72015260a0518181816104c201528181610bfd0152818161117d0152818161144a015281816122f7015281816123e201528181612e3001528181612e9e01528181613057015281816130a701528181613c6001528181613df40152613fb80152f35b604051631e4fbdf760e01b815260006004820152602490fd5b600080fd5b634e487b7160e01b600052604160045260246000fd5b51906001600160a01b0382168203620001e45756fe6080604052600436101561001b575b361561001957600080fd5b005b6000803560e01c806301388d371461462c578063107a274a1461443b57806322c0aec7146143fc5780632ab1803f146143cd5780632d296bf114613cd45780632f9662c514613c8f578063374cb7c514613c4a5780633f4ba83a14613bdf578063416924d4146134a3578063469048401461347a57806348c9581e1461345c57806353bae714146134325780635413487614613414578063571a26a01461335f57806357c90de514612cf45780635894bd5114612bca5780635b0c5dbd14612b315780635c975abb14612b0e5780635ce6f9c814612aca57806364ce890014612a915780636ff1c9bc14612a25578063715018a6146129cb57806375acd5f9146129ad57806376c25e6f1461298057806378bd79351461274c5780637db11c711461270c57806381257bd5146121025780638336d1cb14611a765780638456cb5914611a1b578063866f7530146119ad57806386cfa7d3146119655780638a44e586146119265780638da5cb5b146118ff578063944985f51461186957806395f4a968146117e657806396ec50c3146117905780639ba6a78514611772578063aa0b598814611712578063ad3a358c146115b4578063b166da421461156a578063b9a2de3a14610f91578063c33393a414610f33578063c63877eb14610d10578063ccddf0b014610cbb578063d45557cc14610b7f578063d5d20d4c14610b01578063da1a200e14610ae3578063de74e57b14610a54578063eb18a9d814610a01578063eeca08f0146109e3578063eff962751461038b578063f160d3691461033f578063f2fde38b146102b45763fcb9f84114610279575061000e565b346102b15760203660031901126102b1576020906040906001600160a01b036102a06147dc565b168152600d83522054604051908152f35b80fd5b50346102b15760203660031901126102b1576102ce6147dc565b6102d6614b4d565b6001600160a01b0390811690811561032657600054826001600160601b0360a01b821617600055167f8be0079c531659141344cd1fd0a4f28419497f9722a3daafe3b4186f6b6457e0600080a380f35b604051631e4fbdf760e01b815260048101849052602490fd5b50346102b15760203660031901126102b1576103596147dc565b610361614b4d565b6001600160a01b03166103758115156155a3565b6001600160601b0360a01b600454161760045580f35b5060a03660031901126102b15760249081356004356103a86147f2565b90606435906001600160401b036084358181116109df576103cd903690600401614903565b604051634f558e7960e01b8152600481018490526001600160a01b03956020959092917f000000000000000000000000000000000000000000000000000000000000000088169087818d81855afa8015610812578b906109a5575b6104329150614b86565b338a526018875261044a60ff60408c20541615614c1b565b610452614d67565b881561095557868b91610e1084101580610949575b61047090614c5d565b604051928380926331a9108f60e11b82528a60048301525afa90811561093e579088918b91610902575b501633146108be5782156108a95734610859576040516370a0823160e01b81523360048201527f0000000000000000000000000000000000000000000000000000000000000000908882169088818e81855afa801561084e578b908d9061081d575b61050892501015614e09565b604051636eb1769f60e11b8152336004820152306024820152908890829060449082905afa90811561081257908a9392918c916107d8575b509261055e9161055582610564961015614e55565b30903390615025565b42614c9c565b9284895260078652604089206040519361057d85614810565b338552878501908a8252604086019015998a159687835260608101898152608082019160019687845260a08201998a528054600160401b8110156107c2576105c9918982018155614b31565b9590956107ad576005966106299561060b9351166001600160601b0360a01b8854161787555188870155511515600286019060ff801983541691151516179055565b516003840155511515600483019060ff801983541691151516179055565b0192519a8b5192831161079b57506106418354614961565b601f8111610762575b50869a601f83116001146107025782918b9c83928d946106f7575b50501b916000199060031b1c19161790555b6040519386855284015260408301527f3a0c2f18af0dab4a7c9bfba049a120bc3d706722163ae468a5a32b6f47e3c5df60603393a3806106ee575b6106b95750f35b81806106c6819334614faf565b8181156106e5575b3390f1156106d95780f35b604051903d90823e3d90fd5b506108fc6106ce565b508034116106b2565b015192503880610665565b838b52878b20601f1984169c92939290918c8e5b811061074c5750838d9e10610733575b505050811b019055610677565b015160001960f88460031b161c19169055388080610726565b81830151845592850192918a01918a018e610716565b61078b90848c52888c20601f850160051c8101918a8610610791575b601f0160051c0190614cbf565b3861064a565b909150819061077e565b634e487b7160e01b8b5260416004528afd5b5050634e487b7160e01b8f5260048f90528f8ffd5b5050508f8f634e487b7160e01b81526041600452fd5b809450898092503d831161080b575b6107f181836148c7565b8101031261080657915189929061055e610540565b600080fd5b503d6107e7565b6040513d8d823e3d90fd5b50508881813d8311610847575b61083481836148c7565b81010312610806578a61050891516104fc565b503d61082a565b6040513d8e823e3d90fd5b60405162461bcd60e51b8152600481018790526023818c01527f53686f756c64206e6f742073656e642053545420666f72204245415453206f666044820152623332b960e91b6064820152608490fd5b610564906108b989341015614dc5565b61055e565b60405162461bcd60e51b815260048101879052601e818c01527f43616e6e6f74206f66666572206f6e20796f7572206f776e20746f6b656e00006044820152606490fd5b809250888092503d8311610937575b61091b81836148c7565b810103126109335761092d8891614bc9565b3861049a565b8980fd5b503d610911565b6040513d8c823e3d90fd5b50601c54841115610467565b60405162461bcd60e51b8152600481018890526023818d01527f4f6666657220616d6f756e74206d75737420626520677265617465722074686160448201526206e20360ec1b6064820152608490fd5b508781813d83116109d8575b6109bb81836148c7565b810103126109d4576109cf61043291614b79565b610428565b8a80fd5b503d6109b1565b8680fd5b50346102b157806003193601126102b1576020600354604051908152f35b50346102b15760203660031901126102b157610a5090610a3c906040906001600160a01b03610a2e6147dc565b16815260086020522061525c565b604051918291602083526020830190614ae5565b0390f35b50346102b15760203660031901126102b157604090600435815260056020522060018060a01b03815416610a50600183015492600281015490600381015460ff610aa560056004850154940161499b565b93604051978897885260208801528181161515604088015260081c1615156060860152608085015260a084015260e060c084015260e08301906147b7565b50346102b157806003193601126102b1576020601c54604051908152f35b50346102b15760403660031901126102b157610b1b6147dc565b7f2c55c991e094165d8f4acbea97528a7826fb6a86abe8cebfa5bf52bd359d77596020610b46614801565b92610b4f614b4d565b6001600160a01b03168085526015825260408520805460ff191660ff86151516179055926040519015158152a280f35b50346102b157610bbc610b9136614a41565b8184939293526007602052610bab604085205482106151db565b828452600760205260408420614b31565b5080549091906001600160a01b03163303610c855760048201610be260ff82541661521d565b60ff6002600185015494015416600014610c5857610c2183337f000000000000000000000000000000000000000000000000000000000000000061518c565b60ff1981541690556040519182527fe2dc0bfd2fc658db980184c3f7c091c2f886874e896043b562d5099c8d95b1dd60203393a380f35b8380848015610c7b575b8280929181923390f1610c21575b6040513d85823e3d90fd5b6108fc9150610c62565b60405162461bcd60e51b815260206004820152600e60248201526d2737ba103cb7bab91037b33332b960911b6044820152606490fd5b50346102b15760403660031901126102b157610d0d610cd86147dc565b610ce0614801565b90610ce9614b4d565b60018060a01b031683526018602052604083209060ff801983541691151516179055565b80f35b50346102b157602080600319360112610f2f57600b5460043581811115610f275750809291925b610d408161494a565b91610d4e60405193846148c7565b818352601f19610d5d8361494a565b01845b818110610ee25750506000198101908111845b838110610e29575050505060405191838301848452825180915260408401948060408360051b870101940192955b828710610dae5785850386f35b909192938280610e19600193603f198a820301865260e089519182518152868060a01b038086850151168683015260408401511660408201526060808401519082015260808084015115159082015260a080840151908201528160c0809401519382015201906147b7565b9601920196019592919092610da1565b81969596610ece5780610e47610e42610ec69386614faf565b614a94565b50610ea6600660405192610e5a84614876565b8054845260018101546001600160a01b039081168c860152600282015416604085015260038101546060850152600481015460ff1615156080850152600581015460a08501520161499b565b60c0820152610eb582886152ba565b52610ec081876152ba565b506152ab565b959495610d73565b634e487b7160e01b87526011600452602487fd5b95809596604051610ef281614876565b8881528883820152886040820152606089818301528960808301528960a083015260c082015282828801015201959495610d60565b929192610d37565b5080fd5b50346102b15760203660031901126102b157600435906001600160401b0382116102b157610a50610a3c610f826020610f6f3660048801614903565b8160405193828580945193849201614794565b8101600a81520301902061525c565b50346102b157602080600319360112610f2f57604051634f558e7960e01b8152600480359082018190526001600160a01b0392917f00000000000000000000000000000000000000000000000000000000000000008416908381602481855afa801561131a578690611530575b6110089150614b86565b8185526006835261102260ff60076040882001541661514c565b61102a614d67565b6110326150d1565b818552600683526040852093600685015442106114f45760078501805460ff8116156114b75760ff1916905560048501805487908381169081151580806114a5575b156113e35750505050600386015492604051633c57017760e11b81528560048201528881602481855afa9081156113d85789916113b6575b5061271090816110c060e083015188614cd6565b04916110ce60035488614cd6565b04918a6110e4846110df848b614faf565b614faf565b94878c54168888541690823b156113b2576040516323b872dd60e01b81526001600160a01b03918216600482015291166024820152604481018b90529082908290606490829084905af180156113a757611393575b50855460a01c60ff161561129457508560069a8a958a98957fd2aa34a4fdbbc6dff6a3e56f46e0f3ae2a31d7785ff3487aa5c95c642acea50198956111f0956111a77f000000000000000000000000000000000000000000000000000000000000000094878754168661518c565b858161127d575b50505080611267575b50505b5416825488604051926111cc84614891565b600784526630bab1ba34b7b760c91b888501528660ff8460a01c169316908a6152ce565b6111f986615542565b541693604051908152a35b835252611260600a60408320838155600060018201556000600282015560006003820155836004820155600060058201556000600682015583600782015561124e60088201614ce9565b61125a600982016150f4565b016150f4565b6001805580f35b6112769184600454169061518c565b38806111b7565b606061128c930151168461518c565b3880856111ae565b80808080978a8f979697541682821561138a575bf115610c705783821591821561132e575b50505050801580156112fa575b50505084827fd2aa34a4fdbbc6dff6a3e56f46e0f3ae2a31d7785ff3487aa5c95c642acea501926111f0879560069a6111ba565b82809281928760045416908390611325575bf11561131a578638806112c6565b6040513d88823e3d90fd5b506108fc61130c565b8180856060829401958b875116908390611381575bf115610c70577ff670029fc6f5302baba881b4ae845d1453acdf752b4c19ed81fe0fa6a686409b89878a93511693604051908152a3388083816112b9565b506108fc611343565b506108fc6112a8565b61139c90614847565b6109d4578a38611139565b6040513d84823e3d90fd5b8380fd5b6113d291503d808b833e6113ca81836148c7565b810190614ee6565b386110ac565b6040513d8b823e3d90fd5b9091929394955097959761142b575b50509150508360069492507fd2aa34a4fdbbc6dff6a3e56f46e0f3ae2a31d7785ff3487aa5c95c642acea50184604051848152a3611204565b60a01c60ff1615611479575050546003909201546006949261146e92167f000000000000000000000000000000000000000000000000000000000000000061518c565b9138808581806113f2565b8194829450829350600301549082821561149c575bf1156113a75760069161146e565b506108fc61148e565b5060038a015460028b01541115611074565b60405162461bcd60e51b8152600481018790526015602482015274105d58dd1a5bdb88185b1c9958591e48195b991959605a1b6044820152606490fd5b60405162461bcd60e51b815260048101859052601460248201527341756374696f6e207374696c6c2061637469766560601b6044820152606490fd5b508381813d8311611563575b61154681836148c7565b8101031261155f5761155a61100891614b79565b610ffe565b8580fd5b503d61153c565b50346102b15760203660031901126102b1576115846147dc565b61158c614b4d565b60028054610100600160a81b03191660089290921b610100600160a81b031691909117905580f35b50346102b157602080600319360112610f2f57604051634f558e7960e01b81526004803590820181905291906001600160a01b039082816024817f000000000000000000000000000000000000000000000000000000000000000086165afa80156117075785906116cd575b61162a9150614b86565b8284526005825261164760ff600260408720015460081c16614d85565b828452600582526040842054163303611696576005908284525261166d60408320614fbc565b33907fbe50bf6d5ebc58e29a68dddccdef1c087a9e6dd728a5c3247051d7fdad14219b8380a380f35b6064906040519062461bcd60e51b82526004820152601060248201526f4e6f7420796f7572206c697374696e6760801b6044820152fd5b508281813d8311611700575b6116e381836148c7565b810103126116fc576116f761162a91614b79565b611620565b8480fd5b503d6116d9565b6040513d87823e3d90fd5b50346102b15760203660031901126102b15760043561172f614b4d565b6103e8811161173e5760035580f35b60405162461bcd60e51b815260206004820152600c60248201526b08ccaca40e8dede40d0d2ced60a31b6044820152606490fd5b50346102b157806003193601126102b1576020601954604051908152f35b50346102b15760403660031901126102b1576117aa6147dc565b6001600160a01b03168152600960205260408120805460243592908310156102b15760206117d88484614b19565b90546040519160031b1c8152f35b50346102b15760403660031901126102b1576118006147dc565b6001600160a01b031681526017602052604081208054602435908110156118655761182a91614b19565b91909161185157610a5061183d8361499b565b6040519182916020835260208301906147b7565b634e487b7160e01b81526004819052602490fd5b8280fd5b50346102b15761187836614a41565b9082526007602052604082208054821015611865576118979250614b31565b5060018060a01b03815416610a5060018301549260ff6002820154169060038101546118cd600560ff600485015416930161499b565b92604051968796875260208701521515604086015260608501521515608084015260c060a084015260c08301906147b7565b50346102b157806003193601126102b157546040516001600160a01b039091168152602090f35b50346102b15760203660031901126102b15760209060ff906040906001600160a01b036119516147dc565b168152601584522054166040519015158152f35b50346102b15760403660031901126102b15761197f6147dc565b6001600160a01b03168152600860205260408120805460243592908310156102b15760206117d88484614b19565b50346102b15760403660031901126102b1576004356001600160401b038111610f2f576119de903690600401614903565b906119fb6020602435938160405193828580945193849201614794565b8101600a8152030190209081548310156102b15760206117d88484614b19565b50346102b157806003193601126102b157611a34614b4d565b611a3c614d67565b600160ff1960025416176002557f62e78cea01bee320cd4e420270b5ea74000d11b0c9f74754ebdbfc544b05a2586020604051338152a180f35b50346102b15760c03660031901126102b15760843580151581036108065760a4356001600160401b03811161186557611ab3903690600401614903565b604051634f558e7960e01b815260048035908201529091907f00000000000000000000000000000000000000000000000000000000000000006001600160a01b031690602081602481855afa9081156117075785916120bd575b50602491611b1c602092614b86565b604051928380926331a9108f60e11b825260043560048301525afa80156120b2578490612077575b611b5991506001600160a01b03163314614bdd565b3383526018602052611b7260ff60408520541615614c1b565b611b7a614d67565b6019546024351061203c5760243560443510611fff57601a546064359081101580611ff3575b611ba990614c5d565b6004358452600560205260ff600260408620015460081c16611fbc576004358452600660205260ff600760408620015416611f7e57611be89042614c9c565b91604051611bf5816148ac565b848152604051611c04816148ac565b85815260405191611c148361485a565b3383526024356020840152604435604084015286606084015286608084015284151560a08401524260c08401528560e0840152600161010084015283610120840152610140830152610160820152600435855260066020526040852060018060a01b038251166001600160601b0360a01b8254161781556020820151600182015560408201516002820155606082015160038201556004810160018060a01b0360808401511681549060ff60a01b60a0860151151560a01b16916affffffffffffffffffffff60a81b161717905560c0820151600582015560e08201516006820155611d166101008301511515600783019060ff801983541691151516179055565b6101208201518051906001600160401b038211611ebd578190611d3c6008850154614961565b601f8111611f4b575b50602090601f8311600114611edc578992611ed1575b50508160011b916000199060031b1c19161760088201555b6101408201518051906001600160401b038211611ebd5760206009840191611d9b8484615118565b0190885260208820885b838110611ea05750505050600a6101609101910151908151916001600160401b038311611e8c57602090611dd98484615118565b0190865260208620865b838110611e78575050505080519081611e43575b5050604051916024358352604435602084015260408301521515606082015233907f57ba1bee67698f415b14c920549f07ed5fd0fafb5f4a4c3ee39de6ee49924b43608060043592a380f35b81611e5a611e719360209360405194859101614794565b810190600a82526020816004359303019020614d32565b3880611df7565b600190602084519401938184015501611de3565b634e487b7160e01b87526041600452602487fd5b82516001600160a01b031681830155602090920191600101611da5565b634e487b7160e01b88526041600452602488fd5b015190503880611d5b565b9250600884018952602089209089935b601f1984168510611f30576001945083601f19811610611f17575b505050811b016008820155611d73565b015160001960f88460031b161c19169055388080611f07565b81810151835560209485019460019093019290910190611eec565b611f7890600886018b5260208b20601f850160051c8101916020861061079157601f0160051c0190614cbf565b38611d45565b60405162461bcd60e51b815260206004820152601660248201527541756374696f6e20616c72656164792061637469766560501b6044820152606490fd5b60405162461bcd60e51b815260206004820152600f60248201526e151bdad95b881a5cc81b1a5cdd1959608a1b6044820152606490fd5b50601b54811115611ba0565b60405162461bcd60e51b8152602060048201526015602482015274496e76616c6964207265736572766520707269636560581b6044820152606490fd5b60405162461bcd60e51b8152602060048201526013602482015272537461727420707269636520746f6f206c6f7760681b6044820152606490fd5b506020813d6020116120aa575b81612091602093836148c7565b810103126113b2576120a5611b5991614bc9565b611b44565b3d9150612084565b6040513d86823e3d90fd5b90506020813d6020116120fa575b816120d8602093836148c7565b810103126116fc57602491611b1c6120f1602093614b79565b92505091611b0d565b3d91506120cb565b50346102b15761211136614a41565b604051634f558e7960e01b8152600481018390527f00000000000000000000000000000000000000000000000000000000000000006001600160a01b0316939190602081602481885afa8015610c705783906126d1575b6121729150614b86565b6040516331a9108f60e11b815260048101849052602081602481885afa908115610c7057839161268e575b506121ef91906121b7906001600160a01b03163314614bdd565b6121bf614d67565b6121c76150d1565b83835260076020526121de604084205482106151db565b838352600760205260408320614b31565b5061220060ff60048301541661521d565b6003810154421161265957828252600560205260ff600260408420015460081c166126085760018101549360ff600260018060a01b038454169301541660405191633c57017760e11b83528560048401528483602481845afa9283156117075785936125ec575b50612710928361227b60e08301518a614cd6565b04936122896003548a614cd6565b0490612299826110df878c614faf565b92803b156125e8576040516323b872dd60e01b81523360048201526001600160a01b0388166024820152604481018a90529088908290606490829084905af180156125dd579088916125c9575b5084156124e157506123579461231e7f000000000000000000000000000000000000000000000000000000000000000094338661518c565b806124c0575b5050806124a1575b50505b6040519061233c82614891565b600582526437b33332b960d91b6020830152868433886152ce565b61236084615542565b82825260076020526040822093825b855481101561246c5760ff60046123868389614b31565b5001541661239d575b612398906152ab565b61236f565b60ff60026123ab8389614b31565b500154161561242357806124066123c56123989389614b31565b50546001600160a01b031660016123dc848b614b31565b500154907f000000000000000000000000000000000000000000000000000000000000000061518c565b60046124128289614b31565b5001805460ff19169055905061238f565b83808080612431858b614b31565b50546001600160a01b03166001612448878d614b31565b50015490828215612463575bf115610c705761239890612406565b506108fc612454565b50836040519182527fc67f49229cab3f614ad390c12432e0e671552dcfd15e24ddc005cf5a01a0213560203393a46001805580f35b6004546124b9926001600160a01b039091169061518c565b388061232c565b6060909101516124da91906001600160a01b03168461518c565b3880612324565b80808093949697958181156125c0575b3390f11561170757908592918115908115612550575b5050508015801561251f575b5050506123579061232f565b6004548392839283926001600160a01b0316908390612547575bf1156113a757823880612513565b506108fc612539565b9380808460608295969798019560018060a01b038751169083906125b7575bf1156117075790867ff670029fc6f5302baba881b4ae845d1453acdf752b4c19ed81fe0fa6a686409b602088959460018060a01b0390511693604051908152a3388080612507565b506108fc61256f565b506108fc6124f1565b6125d290614847565b6109df5786386122e6565b6040513d8a823e3d90fd5b8780fd5b6126019193503d8087833e6113ca81836148c7565b9138612267565b60405162461bcd60e51b815260206004820152602360248201527f43616e6e6f7420616363657074206f66666572206f6e206c697374656420746f60448201526235b2b760e91b6064820152608490fd5b60405162461bcd60e51b815260206004820152600d60248201526c13d999995c88195e1c1a5c9959609a1b6044820152606490fd5b90506020813d6020116126c9575b816126a9602093836148c7565b8101031261186557906121b76126c16121ef93614bc9565b91925061219d565b3d915061269c565b506020813d602011612704575b816126eb602093836148c7565b81010312611865576126ff61217291614b79565b612168565b3d91506126de565b50346102b157806003193601126102b15760a0600f5460105460115460125490601354926040519485526020850152604084015260608301526080820152f35b50346102b15760203660031901126102b157604090606061016083516127718161485a565b838152836020820152838582015283838201528360808201528360a08201528360c08201528360e0820152836101008201528261012082015282610140820152015260043581526006602052206040516127ca8161485a565b60018060a01b03825416815260018201546020820152600282015460408201526003820154606082015260ff600483015460018060a01b038116608084015260a01c16151560a0820152600582015460c0820152600682015460e082015260ff60078301541615156101008201526128446008830161499b565b6101208201526040518060098401906020825491828152019160005260206000209060005b81811061296157610a5086612893600a8a89612887818b03826148c7565b6101408501520161525c565b6101608201526040519182916020835260018060a01b03815116602084015260208101516040840152604081015160608401526060810151608084015260018060a01b0360808201511660a084015260a0810151151560c084015260c081015160e084015260e0810151610100840152610100810151151561012084015261012081015161293061018091826101408701526101a08601906147b7565b9061016061295061014085015193601f19948589830301848a0152614a57565b930151918584030190850152614ae5565b82546001600160a01b0316845260209093019260019283019201612869565b50346102b157806003193601126102b15760025460405160089190911c6001600160a01b03168152602090f35b50346102b157806003193601126102b1576020601d54604051908152f35b50346102b157806003193601126102b1576129e4614b4d565b600080546001600160a01b0319811682556001600160a01b03167f8be0079c531659141344cd1fd0a4f28419497f9722a3daafe3b4186f6b6457e08280a380f35b50346102b15760203660031901126102b157806004356001600160a01b03811690819003612a8e57612a55614b4d565b612a608115156155a3565b479081158015612a6f57505050f35b8392839283928390612a85575bf1156106d95780f35b506108fc612a7c565b50fd5b50346102b15760203660031901126102b1576020906040906001600160a01b03612ab96147dc565b168152600c83522054604051908152f35b50346102b15760403660031901126102b157610d0d612ae7614801565b612aef614b4d565b60043583526016602052604083209060ff801983541691151516179055565b50346102b157806003193601126102b157602060ff600254166040519015158152f35b50346102b15760203660031901126102b157600435600b54811015610f2f57612b5990614a94565b508054610a5060018060a01b0392836001820154169360028201541690600381015460ff60048301541690612b9560066005850154940161499b565b9360405197889788526020880152604087015260608601521515608085015260a084015260e060c084015260e08301906147b7565b50346102b157806003193601126102b157606060a0604051612beb81614810565b838152602093808583015280604083015280848301526080820152015260405190612c1582614810565b600f5482526010549181810192835260115492604082019384526012546060830190815260135490608084019182526040519586938660145498898152019760146000527fce6d7b5282bd9a3661ae061feed1dbda4e52ab073b1f9285be6e155d9c38d4ec9060005b818110612cd757505050612c9985610a5097989903866148c7565b60a0870194855260405197889781895251908801525160408701525160608601525160808501525160a08401525160c08084015260e0830190614a57565b82546001600160a01b03168b529989019960019283019201612c7e565b50612cfe36614a41565b604051634f558e7960e01b8152600481018390529192916020816024817f00000000000000000000000000000000000000000000000000000000000000006001600160a01b03165afa8015610c70578390613324575b612d5e9150614b86565b8282526006602052612d7960ff60076040852001541661514c565b3382526018602052612d9260ff60408420541615614c1b565b612d9a614d67565b612da26150d1565b8282526006602052604082209260ff600785015416156132ea57600584015442106132af57600684015442101561327a5783546001600160a01b03163314613235576003840154806132015760018501545b83106131ce576004850154908460ff8360a01c166000146131bb57503461316c576040516370a0823160e01b81523360048201526020816024817f00000000000000000000000000000000000000000000000000000000000000006001600160a01b03165afa801561131a5785908790613136575b612e7592501015614e09565b604051636eb1769f60e11b81523360048201523060248201526020816044816001600160a01b037f0000000000000000000000000000000000000000000000000000000000000000165afa90811561131a5786939291869185916130fb575b5090612ee1911015614e55565b6001600160a01b0382169182613080575b5050505060ff600485015460a01c1661304f575b600384018290556004840180546001600160a01b0319163317905560098401805490600160401b82101561303b579460ff92612f4b8387986001600496018155614b19565b81546001600160a01b0360039290921b91821b19163390911b179055612f7485600a8401614d32565b3386526009602052612f898160408820614d32565b612f97426006840154614faf565b601d54809110613026575b50604051908582524260208301527f51db8e23b3f4479b162fd48823b8402895442b8f6cfd94f66239391881ec7b6f60403393a3015460a01c16158061301d575b612ff0575b506001805580f35b8180612ffd819334614faf565b818115613014575b3390f1156106d9578038612fe8565b506108fc613005565b50803411612fe3565b6130309042614c9c565b600683015538612fa2565b634e487b7160e01b85526041600452602485fd5b61307b8230337f0000000000000000000000000000000000000000000000000000000000000000615025565b612f06565b60a01c60ff16156130d457505050600484015460038501546130cb916001600160a01b03167f000000000000000000000000000000000000000000000000000000000000000061518c565b82388080612ef2565b8280929181928282156130f2575bf16130cb576040513d84823e3d90fd5b506108fc6130e2565b945050506020833d60201161312e575b81613118602093836148c7565b8101031261080657612ee1858794519091612ed4565b3d915061310b565b50506020813d602011613164575b81613151602093836148c7565b810103126108065784612e759151612e69565b3d9150613144565b60405162461bcd60e51b815260206004820152602160248201527f53686f756c64206e6f742073656e642053545420666f722042454154532062696044820152601960fa1b6064820152608490fd5b91906131c985341015614dc5565b612ee1565b60405162461bcd60e51b815260206004820152600b60248201526a42696420746f6f206c6f7760a81b6044820152606490fd5b6005810281810460050361322157606461321c910482614c9c565b612df4565b634e487b7160e01b85526011600452602485fd5b60405162461bcd60e51b815260206004820152601e60248201527f43616e6e6f7420626964206f6e20796f7572206f776e2061756374696f6e00006044820152606490fd5b60405162461bcd60e51b815260206004820152600d60248201526c105d58dd1a5bdb88195b991959609a1b6044820152606490fd5b60405162461bcd60e51b8152602060048201526013602482015272105d58dd1a5bdb881b9bdd081cdd185c9d1959606a1b6044820152606490fd5b60405162461bcd60e51b815260206004820152601260248201527141756374696f6e206e6f742061637469766560701b6044820152606490fd5b506020813d602011613357575b8161333e602093836148c7565b8101031261186557613352612d5e91614b79565b612d54565b3d9150613331565b50346102b15760203660031901126102b157604090600435815260066020522060018060a01b03610a50818354169160018401549360028101549160038201549060ff60048401546005850154926006860154946133c660088560078a015416980161499b565b976040519b8c9b8c5260208c015260408b015260608a01528116608089015260a01c16151560a087015260c086015260e08501521515610100840152610140806101208501528301906147b7565b50346102b157806003193601126102b1576020601a54604051908152f35b50346102b15760203660031901126102b15760406020916004358152600e83522054604051908152f35b50346102b157806003193601126102b1576020601b54604051908152f35b50346102b157806003193601126102b1576004546040516001600160a01b039091168152602090f35b50346102b15760c03660031901126102b1576134bd6147f2565b6084356001600160401b038111611865576134dc903690600401614903565b60a4356001600160401b0381116113b257366023820112156113b2578060040135906135078261494a565b9161351560405193846148c7565b80835260051b8101602401602083013682116109df5760248301905b828210613bac575050604051634f558e7960e01b815260048035908201527f00000000000000000000000000000000000000000000000000000000000000006001600160a01b031692509050602081602481855afa90811561131a578691613b67575b506024916135a3602092614b86565b604051928380926331a9108f60e11b825260043560048301525afa8015611707578590613b2c575b6135e091506001600160a01b03163314614bdd565b33845260186020526135f960ff60408620541615614c1b565b613601614d67565b60195460243510613af75760643580151580613ae9575b61362190614c5d565b6004358552600560205260ff600260408720015460081c16613ab3576004358552600660205260ff600760408720015416613a7b576136609042614c9c565b6040519061366d8261482b565b338252602435602083015284151560408301526001606083015242608083015260a082015260c081019183835260e082015260043585526005602052604085209160018060a01b038251166001600160601b0360a01b84541617835560208201516001840155600283016136f360408401511515829060ff801983541691151516179055565b6060830151815461ff00191690151560081b61ff00161790556080820151600384015560a08201516004840155518051906001600160401b038211611e8c5761373f6005850154614961565b601f8111613a48575b50602090601f83116001146139d85760e09392918891836139cd575b50508160011b916000199060031b1c19161760058401555b015190815191600160401b83116139b7576006820154836006840155808410613984575b50602060069101910185526020852085915b838310613861575050505033835260086020526137d460043560408520614d32565b805180613846575b506010546024351061383b575b60405191602435835215156020830152606060408301527fcc85e8bd43b00214f83e4b2ca24d000e1b16b3cbedaad593d627ceb3b4e7c61c3392806138356004359460608301906147b7565b0390a380f35b6024356010556137e9565b60405161385b91611e5a818360208701614794565b386137dc565b80518051906001600160401b0382116139705761387e8454614961565b601f8111613940575b50602090601f83116001146138d35792826001949360209386958d926138c8575b5050600019600383901b1c191690841b1785555b019201920191906137b2565b0151905038806138a8565b90848a5260208a20918a5b601f1985168110613928575083602093600196938796938794601f1981161061390f575b505050811b0185556138bc565b015160001960f88460031b161c19169055388080613902565b919260206001819286850151815501940192016138de565b61396a90858b5260208b20601f850160051c8101916020861061079157601f0160051c0190614cbf565b38613887565b634e487b7160e01b89526041600452602489fd5b600683016000526020600020908482015b81830181106139a55750506137a0565b806139b1600192614ce9565b01613995565b634e487b7160e01b600052604160045260246000fd5b015190503880613764565b906005850188526020882091885b601f1985168110613a30575091839160019360e09695601f19811610613a17575b505050811b01600584015561377c565b015160001960f88460031b161c19169055388080613a07565b919260206001819286850151815501940192016139e6565b613a759060058601895260208920601f850160051c8101916020861061079157601f0160051c0190614cbf565b38613748565b60405162461bcd60e51b815260206004820152601060248201526f2a37b5b2b71034b71030bab1ba34b7b760811b6044820152606490fd5b60405162461bcd60e51b815260206004820152600e60248201526d105b1c9958591e481b1a5cdd195960921b6044820152606490fd5b506301e13380811115613618565b60405162461bcd60e51b815260206004820152600d60248201526c507269636520746f6f206c6f7760981b6044820152606490fd5b506020813d602011613b5f575b81613b46602093836148c7565b810103126116fc57613b5a6135e091614bc9565b6135cb565b3d9150613b39565b90506020813d602011613ba4575b81613b82602093836148c7565b8101031261155f576024916135a3613b9b602093614b79565b92505091613594565b3d9150613b75565b81356001600160401b038111613bdb57602091613bd0839260243691890101614903565b815201910190613531565b8880fd5b50346102b157806003193601126102b157613bf8614b4d565b60025460ff811615613c385760ff19166002557f5db9ee0a495bf2e6ff9c91a7834c1ba4fdd244a5e8aa4e537bd38aeae4b073aa6020604051338152a180f35b604051638dfc202b60e01b8152600490fd5b50346102b157806003193601126102b1576040517f00000000000000000000000000000000000000000000000000000000000000006001600160a01b03168152602090f35b50346102b157806003193601126102b1576040517f00000000000000000000000000000000000000000000000000000000000000006001600160a01b03168152602090f35b5060203660031901126102b157604051634f558e7960e01b815260048035908201526024919060208184817f00000000000000000000000000000000000000000000000000000000000000006001600160a01b03165afa80156113a7578290614392575b613d429150614b86565b60043581526005602052613d6260ff600260408420015460081c16614d85565b3381526018602052613d7b60ff60408320541615614c1b565b613d83614d67565b613d8b6150d1565b60043581526005602052604081209160028301549060ff8260081c161561435957600484015442116143235783546001600160a01b0316933385146142df5760018101549260ff169182156142ce573461427c576040516370a0823160e01b81523360048201527f00000000000000000000000000000000000000000000000000000000000000006001600160a01b0316906020818481855afa8015614271578690889061423b575b613e4092501015614e09565b604051636eb1769f60e11b815233600482015230602482015290602090829060449082905afa801561131a5785908790614205575b613e8192501015614e55565b604051633c57017760e11b815260048035908201529085908290817f00000000000000000000000000000000000000000000000000000000000000006001600160a01b03165afa9081156117075785916141eb575b506127109081613eea60e083015187614cd6565b0491613ef860035487614cd6565b0490613f08826110df8589614faf565b927f00000000000000000000000000000000000000000000000000000000000000006001600160a01b03163b156125e8576040516323b872dd60e01b81526001600160a01b039099166004808b01919091523360248b01523560448a0152878980606481010381837f00000000000000000000000000000000000000000000000000000000000000006001600160a01b03165af180156125dd576141d7575b87809950866000146140f0575084547f000000000000000000000000000000000000000000000000000000000000000094613fec916001600160a01b03163387615025565b806140ce575b5050806140ad575b50505b805460405161403791849086906001600160a01b031661401c84614891565b600484526373616c6560e01b602085015233906004356152ce565b61404083615542565b6004358452600560205261405660408520614fbc565b54604080518481529215801560208501529233926001600160a01b031691600435917f5ba39d7696c8afc0248710a4054818fbe831b042883cf8a26ec8ee0c61413cd29190a48061301d57612ff057506001805580f35b6004546140c7926001600160a01b03909116903390615025565b3880613ffa565b6060909101516140e991906001600160a01b03163385615025565b3880613ff2565b808080939660018060a01b038954168282156141ce575bf11561131a578287931591821561415e575b505050801590811561412e575b505050613ffd565b82809291819260018060a01b0360045416908390614155575bf115610c7057833880614126565b506108fc614147565b93808083606082959698019760018060a01b038951169083906141c5575bf11561131a57869260018060a01b03905116906040519081527ff670029fc6f5302baba881b4ae845d1453acdf752b4c19ed81fe0fa6a686409b602060043592a3388080614119565b506108fc61417c565b506108fc614107565b9690976141e390614847565b958790613fa7565b6141ff91503d8087833e6113ca81836148c7565b38613ed6565b50506020813d602011614233575b81614220602093836148c7565b8101031261155f5784613e819151613e75565b3d9150614213565b50506020813d602011614269575b81614256602093836148c7565b810103126109df5785613e409151613e34565b3d9150614249565b6040513d89823e3d90fd5b60849060256040519162461bcd60e51b8352602060048401528201527f53686f756c64206e6f742073656e642053545420666f722042454154532070616044820152641e5b595b9d60da1b6064820152fd5b6142da84341015614dc5565b613e81565b60405162461bcd60e51b8152602060048201526019818401527f43616e6e6f742062757920796f7572206f776e20746f6b656e000000000000006044820152606490fd5b606490600f6040519162461bcd60e51b8352602060048401528201526e131a5cdd1a5b99c8195e1c1a5c9959608a1b6044820152fd5b60649060126040519162461bcd60e51b835260206004840152820152714c697374696e67206e6f742061637469766560701b6044820152fd5b506020813d6020116143c5575b816143ac602093836148c7565b81010312610f2f576143c0613d4291614b79565b613d38565b3d915061439f565b50346102b15760203660031901126102b15760ff60406020926004358152601684522054166040519015158152f35b50346102b15760203660031901126102b15760209060ff906040906001600160a01b036144276147dc565b168152601884522054166040519015158152f35b50346102b15760203660031901126102b157606060e060405161445d8161482b565b83815283602082015283604082015283838201528360808201528360a08201528260c0820152015260043581526005602052604081206006604051916144a28361482b565b80546001600160a01b0316835260018101546020840152600281015460ff8181161515604086015260089190911c161515606084015260038101546080840152600481015460a08401526144f86005820161499b565b60c08401520180546145098161494a565b9161451760405193846148c7565b81835284526020808520859184015b8383106146095760c086868960e083019182526040519384936020855260018060a01b03815116602086015260208101516040860152604081015115156060860152606081015115156080860152608081015160a086015260a08101518286015201516145a1610100918260e08701526101208601906147b7565b925192601f199182868303019086015283519182825260208201906020808560051b850101960194925b8484106145d85787870388f35b919395819395975060206145f782600194868495030188528a516147b7565b980194019401918796959394916145cb565b60016020819261461b859a999a61499b565b815201920192019190959495614526565b50346102b157602080600319360112610f2f5790600435815260078252604081208054916146598361494a565b9261466760405194856148c7565b8084528484018093835285832083915b8383106147215750505050604051928484019085855251809152604084019460408260051b8601019392955b8287106146b05785850386f35b909192938280614711600193603f198a82030186528851858060a01b03815116825283810151848301526040810151151560408301526060808201519083015260808082015115159083015260a0809101519160c0809282015201906147b7565b96019201960195929190926146a3565b60068860019260409a99979a5161473781614810565b848060a01b038654168152848601548382015260ff8060028801541615156040830152600387015460608301526004870154161515608082015261477d6005870161499b565b60a082015281520192019201919096939596614677565b60005b8381106147a75750506000910152565b8181015183820152602001614797565b906020916147d081518092818552858086019101614794565b601f01601f1916010190565b600435906001600160a01b038216820361080657565b60443590811515820361080657565b60243590811515820361080657565b60c081019081106001600160401b038211176139b757604052565b61010081019081106001600160401b038211176139b757604052565b6001600160401b0381116139b757604052565b61018081019081106001600160401b038211176139b757604052565b60e081019081106001600160401b038211176139b757604052565b604081019081106001600160401b038211176139b757604052565b602081019081106001600160401b038211176139b757604052565b90601f801991011681019081106001600160401b038211176139b757604052565b6001600160401b0381116139b757601f01601f191660200190565b81601f820112156108065780359061491a826148e8565b9261492860405194856148c7565b8284526020838301011161080657816000926020809301838601378301015290565b6001600160401b0381116139b75760051b60200190565b90600182811c92168015614991575b602083101461497b57565b634e487b7160e01b600052602260045260246000fd5b91607f1691614970565b90604051918260008254926149af84614961565b908184526001948581169081600014614a1e57506001146149db575b50506149d9925003836148c7565b565b9093915060005260209081600020936000915b818310614a065750506149d9935082010138806149cb565b855488840185015294850194879450918301916149ee565b9150506149d994506020925060ff191682840152151560051b82010138806149cb565b6040906003190112610806576004359060243590565b90815180825260208080930193019160005b828110614a77575050505090565b83516001600160a01b031685529381019392810192600101614a69565b600b54811015614acf57600790600b600052027f0175b7a638427703f0dbe7bb9bbf987a2551717b34e79f33b5b1008d1fa01db90190600090565b634e487b7160e01b600052603260045260246000fd5b90815180825260208080930193019160005b828110614b05575050505090565b835185529381019392810192600101614af7565b8054821015614acf5760005260206000200190600090565b8054821015614acf576000526006602060002091020190600090565b6000546001600160a01b03163303614b6157565b60405163118cdaa760e01b8152336004820152602490fd5b5190811515820361080657565b15614b8d57565b60405162461bcd60e51b8152602060048201526014602482015273151bdad95b88191bd95cc81b9bdd08195e1a5cdd60621b6044820152606490fd5b51906001600160a01b038216820361080657565b15614be457565b60405162461bcd60e51b815260206004820152600f60248201526e2737ba103a37b5b2b71037bbb732b960891b6044820152606490fd5b15614c2257565b60405162461bcd60e51b8152602060048201526013602482015272155cd95c881a5cc8189b1858dadb1a5cdd1959606a1b6044820152606490fd5b15614c6457565b60405162461bcd60e51b815260206004820152601060248201526f24b73b30b634b210323ab930ba34b7b760811b6044820152606490fd5b91908201809211614ca957565b634e487b7160e01b600052601160045260246000fd5b818110614cca575050565b60008155600101614cbf565b81810292918115918404141715614ca957565b614cf38154614961565b9081614cfd575050565b81601f60009311600114614d0f575055565b908083918252614d2e601f60208420940160051c840160018501614cbf565b5555565b8054600160401b8110156139b757614d4f91600182018155614b19565b819291549060031b91821b91600019901b1916179055565b60ff60025416614d7357565b60405163d93c066560e01b8152600490fd5b15614d8c57565b60405162461bcd60e51b81526020600482015260116024820152704e6f20616374697665206c697374696e6760781b6044820152606490fd5b15614dcc57565b60405162461bcd60e51b8152602060048201526015602482015274125b9cdd59999a58da595b9d0814d515081cd95b9d605a1b6044820152606490fd5b15614e1057565b60405162461bcd60e51b815260206004820152601a60248201527f496e73756666696369656e742042454154532062616c616e63650000000000006044820152606490fd5b15614e5c57565b60405162461bcd60e51b815260206004820152601c60248201527f496e73756666696369656e7420424541545320616c6c6f77616e6365000000006044820152606490fd5b81601f82011215610806578051614eb7816148e8565b92614ec560405194856148c7565b8184526020828401011161080657614ee39160208085019101614794565b90565b906020828203126108065781516001600160401b03928382116108065701610100818303126108065760405192614f1c8461482b565b81518181116108065783614f31918401614ea1565b845260208201518181116108065783614f4b918401614ea1565b602085015260408201516040850152614f6660608301614bc9565b60608501526080820151608085015260a08201519081116108065760e092614f8f918301614ea1565b60a0840152614fa060c08201614b79565b60c0840152015160e082015290565b91908203918211614ca957565b600080825560066001928284820155826002820155826003820155826004820155614fe960058201614ce9565b0180549180825582614ffc575b50505050565b602091815220908101905b8181106150145780614ff6565b8061501f8492614ce9565b01615007565b6040516323b872dd60e01b60208201526001600160a01b0392831660248201529290911660448301526064808301939093529181526149d9916150696084836148c7565b906000602091828151910182855af1156150c5576000513d6150bc57506001600160a01b0381163b155b61509a5750565b604051635274afe760e01b81526001600160a01b039091166004820152602490fd5b60011415615093565b6040513d6000823e3d90fd5b6002600154146150e2576002600155565b604051633ee5aeb560e01b8152600490fd5b80546000825580615103575050565b6149d991600052602060002090810190614cbf565b90600160401b81116139b75781549080835581811061513657505050565b6149d99260005260206000209182019101614cbf565b1561515357565b60405162461bcd60e51b815260206004820152601160248201527027379030b1ba34bb329030bab1ba34b7b760791b6044820152606490fd5b60405163a9059cbb60e01b60208201526001600160a01b03909216602483015260448083019390935291815260808101916001600160401b038311828410176139b7576149d992604052615069565b156151e257565b60405162461bcd60e51b8152602060048201526013602482015272092dcecc2d8d2c840decccccae440d2dcc8caf606b1b6044820152606490fd5b1561522457565b60405162461bcd60e51b815260206004820152601060248201526f4f66666572206e6f742061637469766560801b6044820152606490fd5b9060405191828154918282526020928383019160005283600020936000905b828210615291575050506149d9925003836148c7565b85548452600195860195889550938101939091019061527b565b6000198114614ca95760010190565b8051821015614acf5760209160051b010190565b94939093604051916152df83614876565b8683526001600160a01b0386811660208501528416604084015260608301859052151560808301524260a083015260c0820152600b54600160401b8110156139b7578060016153319201600b55614a94565b61552c57600660c091835181556001810160018060a01b03602086015116906001600160601b0360a01b9182825416179055600282019060018060a01b0360408701511690825416179055606084015160038201556153a560808501511515600483019060ff801983541691151516179055565b60a08401516005820155019101518051906001600160401b0382116139b75781906153d08454614961565b601f81116154fa575b50602090601f831160011461549457600092615489575b50508160011b916000199060031b1c19161790555b60018060a01b038316600052600c6020526040600020615426838254614c9c565b905560018060a01b0316600052600c6020526154486040600020918254614c9c565b90556001600160a01b03166000908152600d60205260409020805461546c906152ab565b9055600052600e602052604060002061548581546152ab565b9055565b0151905038806153f0565b6000858152602081209350601f198516905b8181106154e257509084600195949392106154c9575b505050811b019055615405565b015160001960f88460031b161c191690553880806154bc565b929360206001819287860151815501950193016154a6565b61552690856000526020600020601f850160051c8101916020861061079157601f0160051c0190614cbf565b386153d9565b634e487b7160e01b600052600060045260246000fd5b61554e81600f54614c9c565b80600f5561555d6011546152ab565b9182601155601354811161559a575b508115801561557a57505050565b6155845704601255565b634e487b7160e01b600052601260045260246000fd5b6013553861556c565b156155aa57565b60405162461bcd60e51b8152602060048201526011602482015270125b9d985b1a59081c9958da5c1a595b9d607a1b6044820152606490fdfea26469706673582212200403e266f77193b99f70db6b18e99260c9cef5d0e4819230be0e0ad9b33cc3e664736f6c63430008140033608034620003db576001600160401b0390601f90601f1990620046ff388190038481018416830186811184821017620003c557839282916040528339602092839181010312620003db57516001600160a01b039485821691829003620003db5762000069620003e0565b946011865270121a5099585d1cc8135d5cda58c8139195607a1b8487015262000091620003e0565b6005815264121093919560da1b85820152865195838711620003c5576000968754986001998a81811c91168015620003ba575b89821014620003a65790818684931162000353575b508890868311600114620002f2578a92620002e6575b5050600019600383901b1c191690891b1787555b8151938411620002d25787548881811c91168015620002c7575b87821014620002b35790818486959493116200025c575b5086928411600114620001fb57508692620001ef575b5050600019600383901b1c191690851b1784555b8015620001d6576040929181600c92600754978160018060a01b03198a1617600755865198167f8be0079c531659141344cd1fd0a4f28419497f9722a3daafe3b4186f6b6457e08680a3856008558560095566038d7ea4c68000600f55835252209060ff198254161790556142fe9081620004018239f35b604051631e4fbdf760e01b815260048101849052602490fd5b0151905038806200014a565b88885286882089959093929116885b888282106200024557505084116200022b575b505050811b0184556200015e565b015160001960f88460031b161c191690553880806200021d565b8385015186558b979095019493840193016200020a565b90919293508888528688208480870160051c820192898810620002a9575b9187968c92969594930160051c01915b8281106200029a57505062000134565b8a81558796508b91016200028a565b925081926200027a565b634e487b7160e01b88526022600452602488fd5b90607f16906200011d565b634e487b7160e01b87526041600452602487fd5b015190503880620000ef565b90848c9416918b80528a8c20928c5b8c8282106200033c575050841162000322575b505050811b01875562000103565b015160001960f88460031b161c1916905538808062000314565b8385015186558f9790950194938401930162000301565b909150898052888a208680850160051c8201928b86106200039c575b918d91869594930160051c01915b8281106200038d575050620000d9565b8c81558594508d91016200037d565b925081926200036f565b634e487b7160e01b8a52602260045260248afd5b90607f1690620000c4565b634e487b7160e01b600052604160045260246000fd5b600080fd5b60408051919082016001600160401b03811183821017620003c55760405256fe61026080604052600436101561001457600080fd5b60003560e01c90816301ffc9a7146131845750806306fdde03146130e1578063081812fc146130a3578063095ea7b314612fbc57806318160ddd14612f91578063238a470914612f4557806323b872dd14612f2e578063304e43dd14612cd757806335028c5514612d9a5780633ccfd60b14612d205780633d7baebd14612cd75780633f4ba83a14612c6557806342842e0e14612c3757806342966c681461288f57806343dc5f98146128315780634f558e79146127fb578063545fbeee146127dd5780635a64ad95146127bf5780635c975abb146127995780636352211e1461276957806370a0823114612710578063715018a6146126b357806378ae02ee1461256e57806379a75319146125515780637ab4a9531461235a5780637d07b2d2146123315780638456cb59146122cf5780638da5cb5b146122a657806395d89b41146121c75780639d993556146114f0578063a22cb46514611445578063a8e3a3fd146113ba578063b3c8f55614611235578063b5a96aeb1461114d578063b88d4fde146110e0578063c3868aa914610665578063c695502a14610626578063c87b56dd146105c3578063c8fd0cf414610589578063e1434f4e1461050b578063e985e9c5146104b5578063f1f18017146102ea578063f2fde38b146102615763f8ec2a0d1461020457600080fd5b3461025c57604036600319011261025c5761021d613251565b6001600160a01b03166000908152600d602052604090208054602435919082101561025c5760209161024e91613633565b90546040519160031b1c8152f35b600080fd5b3461025c57602036600319011261025c5761027a613251565b610282613765565b6001600160a01b039081169081156102d157600754826001600160601b0360a01b821617600755167f8be0079c531659141344cd1fd0a4f28419497f9722a3daafe3b4186f6b6457e0600080a3005b604051631e4fbdf760e01b815260006004820152602490fd5b3461025c5760208060031936011261025c576001600160a01b03908161030e613251565b16600052600d8152604060002090604051808383829554938481520190600052836000209260005b8582821061049f5750505061034d925003836132e9565b61035782516141f0565b9260005b83518110156104895780610372610484928661413e565b51600052600a808552600b60406000206103a661045b60405194610395866132b2565b6040516103ad816103a681886133b4565b03826132e9565b86526040516103c3816103a681600189016133b4565b8a8701526040516103db816103a681600289016133b4565b604087015260038401546060870152886004850154166080870152600584015460a0870152604051610414816103a681600689016133b4565b60c087015260ff600785015416151560e08701526008840154610100870152604051610447816103a681600989016133b4565b6101208701526040519283809286016133b4565b6101408401520154610160820152610473828861413e565b5261047e818761413e565b50613c57565b61035b565b50505061049b60405192839283613570565b0390f35b8554845260019586019588955093019201610336565b3461025c57604036600319011261025c576104ce613251565b6104d6613267565b9060018060a01b03809116600052600560205260406000209116600052602052602060ff604060002054166040519015158152f35b3461025c57604036600319011261025c57610524613251565b7f9e83c683653d7d83a1491bef63f43ca382573f28a92bdf78652b6cfb73713bb8602061054f613740565b92610558613765565b6001600160a01b03166000818152600c835260409020805460ff191660ff86151516179055926040519015158152a2005b3461025c57602036600319011261025c576001600160a01b036105aa613251565b16600052600d6020526020604060002054604051908152f35b3461025c57602036600319011261025c576004356105e081613938565b50600052600660205261049b6103a66106036040600020604051928380926133b4565b6000604051610611816132ce565b5260405191829160208352602083019061322c565b3461025c57602036600319011261025c576001600160a01b03610647613251565b16600052600c602052602060ff604060002054166040519015158152f35b61018036600319011261025c5761067a613251565b6024356001600160401b03811161025c5761069990369060040161335c565b6044356001600160401b03811161025c576106b890369060040161335c565b6064356001600160401b03811161025c576106d790369060040161335c565b926084356001600160401b03811161025c576106f790369060040161335c565b9160c4356001600160401b03811161025c5761071790369060040161335c565b9060e43594851515860361025c57610124356001600160401b03811161025c5761074590369060040161335c565b92610144356001600160401b03811161025c5761076690369060040161335c565b33600052600c60205260ff6040600020541680156110cc575b61078890613ac1565b6107906140b6565b6107986140d7565b6001600160a01b03861615611087576107b384511515613b06565b6107bf89511515613b45565b6107e860405160208187516107d78183858c01613209565b8101600b8152030190205415613b84565b6107f96103e8610104351115613bc7565b610807600f54341015613c0b565b6009549761081489613c57565b60095560405192610824846132b2565b8584528a602085015288604085015260a435606085015260018060a01b03881660808501524260a085015260c0840152151560e083015261010435610100830152846101208301526101408201526101643561016082015286600052600a60205260406000209080518051906001600160401b038211610d005781906108aa855461337a565b601f8111611055575b50602090601f8311600114610fe957600092610fde575b50508160011b916000199060031b1c19161782555b60208101518051906001600160401b038211610d00578190610904600186015461337a565b601f8111610fa9575b50602090601f8311600114610f3757600092610f2c575b50508160011b916000199060031b1c19161760018301555b60408101518051906001600160401b038211610d00578190610961600286015461337a565b601f8111610ef7575b50602090601f8311600114610e8557600092610e7a575b50508160011b916000199060031b1c19161760028301555b606081015160038301556004820160018060a01b036080830151166001600160601b0360a01b82541617905560a0810151600583015560c08101518051906001600160401b038211610d005781906109f4600686015461337a565b601f8111610e45575b50602090601f8311600114610dd357600092610dc8575b50508160011b916000199060031b1c19161760068301555b610a4b60e08201511515600784019060ff801983541691151516179055565b61010081015160088301556101208101518051906001600160401b038211610d00578190610a7c600986015461337a565b601f8111610d93575b50602090601f8311600114610d2157600092610d16575b50508160011b916000199060031b1c19161760098301555b6101408101518051906001600160401b038211610d0057610ad8600a85015461337a565b601f8111610cc0575b50602090601f8311600114610c1c57610160610ba594847f450930c55bc9d0d12b1c9a06994ee73d02943982bcb0c054a5892ce879c5244e9c9b9a9895610bc29a9895600b95600092610c11575b50508160011b916000199060031b1c191617600a8501555b0151910155886040516020818651610b628183858b01613209565b8101600b8152030190205560018060a01b038616600052600d602052610b8c896040600020613ca2565b610b9589613c7d565b610b9f8987613d20565b88613f56565b6040516001600160a01b03909416979394859460a4359286613cc5565b0390a3600f54803411610bd7575b6001600855005b60008080610be6819434613d13565b818115610c08575b3390f115610bfc5780610bd0565b6040513d6000823e3d90fd5b506108fc610bee565b015190503880610b2f565b90600a850160005260206000209160005b601f1985168110610ca85750610ba594600185610bc29a9895600b957f450930c55bc9d0d12b1c9a06994ee73d02943982bcb0c054a5892ce879c5244e9f9e9d9b989561016096601f19811610610c8f575b505050811b01600a850155610b47565b015160001960f88460031b161c19169055388080610c7f565b91926020600181928685015181550194019201610c2d565b610cf090600a86016000526020600020601f850160051c81019160208610610cf6575b601f0160051c0190613c66565b8b610ae1565b9091508190610ce3565b634e487b7160e01b600052604160045260246000fd5b015190508b80610a9c565b9250600985016000526020600020906000935b601f1984168510610d78576001945083601f19811610610d5f575b505050811b016009830155610ab4565b015160001960f88460031b161c191690558b8080610d4f565b81810151835560209485019460019093019290910190610d34565b610dc290600987016000526020600020601f850160051c81019160208610610cf657601f0160051c0190613c66565b8c610a85565b015190508b80610a14565b9250600685016000526020600020906000935b601f1984168510610e2a576001945083601f19811610610e11575b505050811b016006830155610a2c565b015160001960f88460031b161c191690558b8080610e01565b81810151835560209485019460019093019290910190610de6565b610e7490600687016000526020600020601f850160051c81019160208610610cf657601f0160051c0190613c66565b8c6109fd565b015190508b80610981565b9250600285016000526020600020906000935b601f1984168510610edc576001945083601f19811610610ec3575b505050811b016002830155610999565b015160001960f88460031b161c191690558b8080610eb3565b81810151835560209485019460019093019290910190610e98565b610f2690600287016000526020600020601f850160051c81019160208610610cf657601f0160051c0190613c66565b8c61096a565b015190508b80610924565b9250600185016000526020600020906000935b601f1984168510610f8e576001945083601f19811610610f75575b505050811b01600183015561093c565b015160001960f88460031b161c191690558b8080610f65565b81810151835560209485019460019093019290910190610f4a565b610fd890600187016000526020600020601f850160051c81019160208610610cf657601f0160051c0190613c66565b8c61090d565b015190508b806108ca565b9250846000526020600020906000935b601f198416851061103a576001945083601f19811610611021575b505050811b0182556108df565b015160001960f88460031b161c191690558b8080611014565b81810151835560209485019460019093019290910190610ff9565b61108190866000526020600020601f850160051c81019160208610610cf657601f0160051c0190613c66565b8c6108b3565b60405162461bcd60e51b815260206004820152601b60248201527f43616e6e6f74206d696e7420746f207a65726f206164647265737300000000006044820152606490fd5b506007546001600160a01b0316331461077f565b3461025c57608036600319011261025c576110f9613251565b611101613267565b90604435606435926001600160401b03841161025c573660238501121561025c5761113961114b943690602481600401359101613325565b92611145838383613791565b33613973565b005b3461025c5761115b3661374f565b6000828152600260205260409020546001600160a01b03906111809082161515614152565b82600052600a60205280600460406000200154163314908115611227575b50156111f1576020816111d66103e87f63184c4f9f97ef6d971cc661c1863fa579c1fbf9050b40f9ebe4f97ae7da369f941115613bc7565b83600052600a825280600860406000200155604051908152a2005b60405162461bcd60e51b815260206004820152600e60248201526d139bdd08185d5d1a1bdc9a5e995960921b6044820152606490fd5b90506007541633148361119e565b3461025c576112433661374f565b600e54908183101561137e5761126d9161125e849283614240565b90808211611376575b50613d13565b6112768161424d565b90611280816141f0565b9260005b82811061129d5750505061049b60405192839283613570565b806112b36112ae6113719385614240565b6135e6565b9054600391821b1c806112c6848961413e565b52600052600b600a916103a661045b602094808652604060002093604051966112ee886132b2565b6040516112ff816103a6818a6133b4565b88526040519061131d826113168160018b016133b4565b03836132e9565b880152604051611334816103a68160028a016133b4565b6040880152840154606087015260018060a01b036004850154166080870152600584015460a0870152604051610414816103a681600689016133b4565b611284565b905084611267565b60405162461bcd60e51b81526020600482015260146024820152734f6666736574206f7574206f6620626f756e647360601b6044820152606490fd5b3461025c5760208060031936011261025c576001600160a01b036113dc613251565b16600052600d8152604060002090604051808383829554938481520190600052836000209260005b8582821061142f5750505061141b925003836132e9565b61049b60405192828493845283019061353c565b8554845260019586019588955093019201611404565b3461025c57604036600319011261025c5761145e613251565b611466613740565b6001600160a01b039091169081156114d7573360005260056020526040600020826000526020526114a78160406000209060ff801983541691151516179055565b60405190151581527f17307eab39ab6107e8899845ad3d59bd9653f200f220920489ca2b5937696c3160203392a3005b604051630b61174360e31b815260048101839052602490fd5b61018036600319011261025c57611505613251565b60c0526024356001600160401b03811161025c57611527903690600401613662565b610120526044356001600160401b03811161025c5761154a903690600401613662565b610100526064356001600160401b03811161025c5761156d903690600401613662565b610160526084356001600160401b03811161025c57611590903690600401613662565b6102005260a4356001600160401b03811161025c576115b39036906004016136e2565b6101c05260c4356001600160401b03811161025c576115d6903690600401613662565b6102205260e4356001600160401b03811161025c573660238201121561025c578060040135906116156116088361364b565b604051806101a0526132e9565b816101a05152602460206101a051019260051b8201019036821161025c57602401915b8183106121ae57610104356001600160401b03811161025c5761165f9036906004016136e2565b61014052610124356001600160401b03811161025c57611683903690600401613662565b608052610144356001600160401b03811161025c576116a6903690600401613662565b60e0526001600160401b03610164351161025c576116ca36610164356004016136e2565b6101e05233600052600c60205260ff60406000205416801561219a575b6116f090613ac1565b6116f86140b6565b6117006140d7565b61171361012051516101005151146140fa565b61172661010051516101605151146140fa565b61173961016051516102005151146140fa565b61174c61020051516101c05151146140fa565b61175f6101c051516102205151146140fa565b61177261022051516101a05151146140fa565b6117856101a051516101405151146140fa565b611797610140515160805151146140fa565b6117a86080515160e05151146140fa565b6117ba60e051516101e05151146140fa565b600f548060a052610120515190808281020482148115171561218457816117e49102341015613c0b565b6000610180525b610120515161018051908110156121715761180c611815916101005161413e565b51511515613b06565b611831611828610180516101605161413e565b51511515613b45565b61185461184d611847610180516101005161413e565b5161344a565b5415613b84565b6118726103e861186a610180516101405161413e565b511115613bc7565b6118826009548061024052613c57565b600955611895610180516101005161413e565b51906118a7610180516101605161413e565b516118b8610180516102005161413e565b516118c9610180516101c05161413e565b516118da610180516102205161413e565b516118eb610180516101a05161413e565b5115156118fe610180516101405161413e565b519161190f6101805160805161413e565b51936119206101805160e05161413e565b5195611932610180516101e05161413e565b51976040519a6119418c6132b2565b8b5260208b015260408a0152606089015260018060a01b0360c0511660808901524260a089015260c088015260e087015261010086015261012085015261014084015261016083015261024051600052600a602052604060002082518051906001600160401b038211610d005781906119ba845461337a565b601f811161213f575b50602090601f83116001146120da576000926120cf575b50508160011b916000199060031b1c19161781555b60208301518051906001600160401b038211610d00578190611a14600185015461337a565b601f811161209a575b50602090601f83116001146120285760009261201d575b50508160011b916000199060031b1c19161760018201555b60408301518051906001600160401b038211610d00578190611a71600285015461337a565b601f8111611fe8575b50602090601f8311600114611f7657600092611f6b575b50508160011b916000199060031b1c19161760028201555b606083015160038201556004810160018060a01b036080850151166001600160601b0360a01b82541617905560a0830151600582015560c08301519283516001600160401b038111610d0057611b02600684015461337a565b601f8111611f36575b506020601f8211600114611ec7578192939495600092611ebc575b50508160011b916000199060031b1c19161760068301555b611b5d60e08201511515600784019060ff801983541691151516179055565b61010081015160088301556101208101518051906001600160401b038211610d00578190611b8e600986015461337a565b601f8111611e87575b50602090601f8311600114611e1557600092611e0a575b50508160011b916000199060031b1c19161760098301555b6101408101518051906001600160401b038211610d0057611bea600a85015461337a565b601f8111611dd5575b50602090601f8311600114611d5f579180600b949261016094600092611d54575b50508160011b916000199060031b1c191617600a8501555b015191015561024051611c48611847610180516101005161413e565b5560018060a01b0360c05116600052600d602052611c6d610240516040600020613ca2565b611c7961024051613c7d565b611c886102405160c051613d20565b611ca5611c9b610180516101205161413e565b5161024051613f56565b611cb5610180516101005161413e565b51611cc6610180516101605161413e565b51907f450930c55bc9d0d12b1c9a06994ee73d02943982bcb0c054a5892ce879c5244e611cf9610180516102005161413e565b51611d0a610180516101c05161413e565b5190611d3c611d1e6101805160805161413e565b5160405193849360018060a01b0360c0511698610240519886613cc5565b0390a3611d4b61018051613c57565b610180526117eb565b015190508780611c14565b90600a850160005260206000209160005b601f1985168110611dbd575092600b94926001926101609583601f19811610611da4575b505050811b01600a850155611c2c565b015160001960f88460031b161c19169055878080611d94565b91926020600181928685015181550194019201611d70565b611e0490600a86016000526020600020601f850160051c81019160208610610cf657601f0160051c0190613c66565b85611bf3565b015190508580611bae565b9250600985016000526020600020906000935b601f1984168510611e6c576001945083601f19811610611e53575b505050811b016009830155611bc6565b015160001960f88460031b161c19169055858080611e43565b81810151835560209485019460019093019290910190611e28565b611eb690600987016000526020600020601f850160051c81019160208610610cf657601f0160051c0190613c66565b86611b97565b015190508580611b26565b6006840160005260206000209060005b601f1984168110611f1e575060019394959683601f19811610611f05575b505050811b016006830155611b3e565b015160001960f88460031b161c19169055858080611ef5565b9091602060018192858b015181550193019101611ed7565b611f6590600685016000526020600020601f840160051c81019160208510610cf657601f0160051c0190613c66565b85611b0b565b015190508580611a91565b9250600284016000526020600020906000935b601f1984168510611fcd576001945083601f19811610611fb4575b505050811b016002820155611aa9565b015160001960f88460031b161c19169055858080611fa4565b81810151835560209485019460019093019290910190611f89565b61201790600286016000526020600020601f850160051c81019160208610610cf657601f0160051c0190613c66565b86611a7a565b015190508580611a34565b9250600184016000526020600020906000935b601f198416851061207f576001945083601f19811610612066575b505050811b016001820155611a4c565b015160001960f88460031b161c19169055858080612056565b8181015183556020948501946001909301929091019061203b565b6120c990600186016000526020600020601f850160051c81019160208610610cf657601f0160051c0190613c66565b86611a1d565b0151905085806119da565b60008581526020812093505b601f1985168110612127575083601f1981161061210e575b505050600190811b0181556119ef565b015160001960f88460031b161c191690558480806120fe565b919260206001819286850151815501940192016120e6565b61216b90856000526020600020601f850160051c81019160208610610cf657601f0160051c0190613c66565b866119c3565b5060a05102803411610bd7576001600855005b634e487b7160e01b600052601160045260246000fd5b506007546001600160a01b031633146116e7565b8235801515810361025c57815260209283019201611638565b3461025c57600036600319011261025c57604051600060018054906121eb8261337a565b8085529181811690811561227f5750600114612226575b61049b84612212818603826132e9565b60405191829160208352602083019061322c565b600081815292507fb10e2d527612073b26eecdfd717e6a320cf44b4afac2b0732d9fcbe2b7fa0cf65b82841061226757505050810160200161221282612202565b8054602085870181019190915290930192810161224f565b60ff191660208087019190915292151560051b850190920192506122129150839050612202565b3461025c57600036600319011261025c576007546040516001600160a01b039091168152602090f35b3461025c57600036600319011261025c576122e8613765565b6122f06140b6565b6007805460ff60a01b1916600160a01b1790556040513381527f62e78cea01bee320cd4e420270b5ea74000d11b0c9f74754ebdbfc544b05a25890602090a1005b3461025c57602036600319011261025c57600435600e5481101561025c5761024e6020916135e6565b3461025c57604036600319011261025c576004356001600160401b03811161025c5761238a90369060040161335c565b600e546024356123998261424d565b90600090600094602091828201965b86811080612548575b15612427576123bf816135e6565b90549060031b1c80600052600a85526103a66123e86002604060002001604051928380926133b4565b85815191012084518a2014612407575b5061240290613c57565b6123a8565b856124209161241a61240294988a61413e565b52613c57565b94906123f8565b505050906124348161424d565b9161243e826141f0565b9360005b838110612458576040518061049b888883613570565b80612466612543928461413e565b51612471828861413e565b5261247c818461413e565b51600052600a808552600b60406000206103a66125206040519461249f866132b2565b6040516124b0816103a681886133b4565b86526040516124c6816103a681600189016133b4565b8a8701526040516124de816103a681600289016133b4565b6040878101919091526003850154606088015260048501546001600160a01b03166080880152600585015460a088015251610414816103a681600689016133b4565b6101408401520154610160820152612538828961413e565b5261047e818861413e565b612442565b508185106123b1565b3461025c57600036600319011261025c5760206040516103e88152f35b3461025c5760208060031936011261025c576004359061258c614195565b5060008281526002825260409020546001600160a01b0392906125b29084161515614152565b600052600a8152600b6040600020604051936125cd856132b2565b6040516125de816103a681866133b4565b85526040516125f4816103a681600187016133b4565b8486015260405161260c816103a681600287016133b4565b6040860152600382015460608601526004820154166080850152600581015460a0850152604051612644816103a681600686016133b4565b60c085015260ff600782015416151560e08501526008810154610100850152604051612677816103a681600986016133b4565b610120850152604051612691816103a681600a86016133b4565b610140850152015461016083015261049b604051928284938452830190613470565b3461025c57600036600319011261025c576126cc613765565b600780546001600160a01b031981169091556000906001600160a01b03167f8be0079c531659141344cd1fd0a4f28419497f9722a3daafe3b4186f6b6457e08280a3005b3461025c57602036600319011261025c576001600160a01b03612731613251565b1680156127505760005260036020526020604060002054604051908152f35b6040516322718ad960e21b815260006004820152602490fd5b3461025c57602036600319011261025c576020612787600435613938565b6040516001600160a01b039091168152f35b3461025c57600036600319011261025c57602060ff60075460a01c166040519015158152f35b3461025c57600036600319011261025c576020600f54604051908152f35b3461025c57600036600319011261025c576020600e54604051908152f35b3461025c57602036600319011261025c576004356000526002602052602060018060a01b03604060002054161515604051908152f35b3461025c57602036600319011261025c576004356001600160401b03811161025c5761287a60206128678193369060040161335c565b8160405193828580945193849201613209565b8101600b815203019020541515604051908152f35b3461025c5760208060031936011261025c576128d56004359182600052600a815260406000209060018060a01b03916128dc8360048301541691604051958680926133b4565b03856132e9565b84600052600a82526040600020906128f38261427f565b600061296f8460019761290789870161427f565b6129136002870161427f565b83600b60039782898201558260048201558260058201556129366006820161427f565b82600782015582600882015561294e6009820161427f565b61295a600a820161427f565b01558160405193828580945193849201613209565b8101600b81520301902055600052600d82526040600020846000905b612bac575b5050909192806000905b612ae9575b50506129a96140b6565b83600052600282528260406000205416923315159081612a42575b50508291600291600094612a10575b50848452526040822080546001600160a01b03191690557fddf252ad1be2c89b69c2b068fc378daa952ba7f163c4a11628f55a4df523b3ef8280a4005b600086815260046020526040902080546001600160a01b031916905583855281526040842084198154019055856129d3565b81612a91575b5015612a555784806129c4565b5050612a735760249060405190637e27328960e01b82526004820152fd5b6044906040519063177e802f60e01b82523360048301526024820152fd5b33851491508115612ac5575b8115612aab575b5085612a48565b905084600052600483523390604060002054161485612aa4565b90508360005260058352604060002033600052835260ff6040600020541690612a9d565b600e805480831015612ba55787612aff846135e6565b905490871b1c14612b1b575050612b1590613c57565b8161299a565b9092506000199182820191821161218457612b47612b3b612b60936135e6565b905490871b1c916135e6565b90919082549060031b91821b91600019901b1916179055565b81548015612b8f570190612b87612b76836135e6565b8154906000199060031b1b19169055565b55848061299f565b634e487b7160e01b600052603160045260246000fd5b505061299f565b815480821015612c315787612bc18385613633565b905490861b1c14612bdf575090612bd88692613c57565b909161298b565b60009693949596199182820191821161218457612b47612c02612c0f9386613633565b905490881b1c9185613633565b81548015612b8f570190612c26612b768383613633565b559291908580612990565b50612990565b3461025c5761114b612c483661327d565b9060405192612c56846132ce565b60008452611145838383613791565b3461025c57600036600319011261025c57612c7e613765565b60075460ff8160a01c1615612cc55760ff60a01b19166007556040513381527f5db9ee0a495bf2e6ff9c91a7834c1ba4fdd244a5e8aa4e537bd38aeae4b073aa90602090a1005b604051638dfc202b60e01b8152600490fd5b3461025c57602036600319011261025c576004356001600160401b03811161025c57612d0d60206128678193369060040161335c565b8101600b81520301902054604051908152f35b3461025c57600036600319011261025c57612d39613765565b478015612d5e576007546000918291829182916001600160a01b031682f115610bfc57005b60405162461bcd60e51b81526020600482015260146024820152734e6f2066756e647320746f20776974686472617760601b6044820152606490fd5b3461025c57602036600319011261025c57600435600052600a602052604060002060405180612dc981846133b4565b03612dd490826132e9565b6040519182612de681600184016133b4565b03612df190846132e9565b6040519081612e0381600284016133b4565b03612e0e90836132e9565b6003810154600482015460058301546040516001600160a01b03909216929180612e3b81600688016133b4565b03612e4690826132e9565b600785015460ff169260088601549260405195868060098a0190612e69916133b4565b03612e7490886132e9565b6040519788612e8681600a84016133b4565b03612e91908a6132e9565b600b0154986040519b8c9b8c6101808091528d01612eae9161322c565b8c810360208e0152612ebf9161322c565b8b810360408d0152612ed09161322c565b9260608b015260808a015260a089015287810360c0890152612ef19161322c565b91151560e0870152610100860152848103610120860152612f119161322c565b838103610140850152612f239161322c565b906101608301520390f35b3461025c5761114b612f3f3661327d565b91613791565b3461025c57602036600319011261025c577f9a7c33ea6df1d6d7f2348eda287c9493ced6ba1e043a8e681f50075dc9cdd4ca6020600435612f84613765565b80600f55604051908152a1005b3461025c57600036600319011261025c57600954600019810190811161218457602090604051908152f35b3461025c57604036600319011261025c57612fd5613251565b602435612fe181613938565b33151580613090575b80613063575b61304b576001600160a01b039283169282918491167f8c5be1e5ebec7d5bd14f71427d1e84f3dd0314c0f7b2291e5b200ac8c7c3b925600080a4600090815260046020526040902080546001600160a01b0319169091179055005b60405163a9fbf51f60e01b8152336004820152602490fd5b5060018060a01b038116600052600560205260406000203360005260205260ff6040600020541615612ff0565b506001600160a01b038116331415612fea565b3461025c57602036600319011261025c576004356130c081613938565b506000526004602052602060018060a01b0360406000205416604051908152f35b3461025c57600036600319011261025c57604051600080546131028161337a565b8084529060019081811690811561227f575060011461312b5761049b84612212818603826132e9565b600080805292507f290decd9548b62a8d60345a988386fc84ba6bc95484008f6362f93160ef3e5635b82841061316c57505050810160200161221282612202565b80546020858701810191909152909301928101613154565b3461025c57602036600319011261025c576004359063ffffffff60e01b821680920361025c57602091632483248360e11b81149081156131c6575b5015158152f35b6380ac58cd60e01b8114915081156131f8575b81156131e7575b50836131bf565b6301ffc9a760e01b149050836131e0565b635b5e139f60e01b811491506131d9565b60005b83811061321c5750506000910152565b818101518382015260200161320c565b9060209161324581518092818552858086019101613209565b601f01601f1916010190565b600435906001600160a01b038216820361025c57565b602435906001600160a01b038216820361025c57565b606090600319011261025c576001600160a01b0390600435828116810361025c5791602435908116810361025c579060443590565b61018081019081106001600160401b03821117610d0057604052565b602081019081106001600160401b03821117610d0057604052565b90601f801991011681019081106001600160401b03821117610d0057604052565b6001600160401b038111610d0057601f01601f191660200190565b9291926133318261330a565b9161333f60405193846132e9565b82948184528183011161025c578281602093846000960137010152565b9080601f8301121561025c5781602061337793359101613325565b90565b90600182811c921680156133aa575b602083101461339457565b634e487b7160e01b600052602260045260246000fd5b91607f1691613389565b90600092918054916133c58361337a565b91828252600193848116908160001461342757506001146133e7575b50505050565b90919394506000526020928360002092846000945b8386106134135750505050010190388080806133e1565b8054858701830152940193859082016133fc565b9294505050602093945060ff191683830152151560051b010190388080806133e1565b6020613463918160405193828580945193849201613209565b8101600b81520301902090565b9061352e61351a6134ef6134b76134a5613493875161018080895288019061322c565b6020880151878203602089015261322c565b6040870151868203604088015261322c565b6060860151606086015260018060a01b03608087015116608086015260a086015160a086015260c086015185820360c087015261322c565b60e0850151151560e0850152610100808601519085015261012080860151908583039086015261322c565b61014080850151908483039085015261322c565b916101608091015191015290565b90815180825260208080930193019160005b82811061355c575050505090565b83518552938101939281019260010161354e565b906135839060408352604083019061353c565b90602090818184039101528251908183528083019281808460051b8301019501936000915b8483106135b85750505050505090565b90919293949584806135d6600193601f198682030187528a51613470565b98019301930191949392906135a8565b600e5481101561361d57600e6000527fbb7b4a454dc3493923482f07822329ed19e8244eff582cc204f8554c3620c3fd0190600090565b634e487b7160e01b600052603260045260246000fd5b805482101561361d5760005260206000200190600090565b6001600160401b038111610d005760051b60200190565b9080601f8301121561025c5781359061367a8261364b565b9261368860405194856132e9565b828452602092838086019160051b8301019280841161025c57848301915b8483106136b65750505050505090565b82356001600160401b03811161025c5786916136d78484809489010161335c565b8152019201916136a6565b81601f8201121561025c578035916136f98361364b565b9261370760405194856132e9565b808452602092838086019260051b82010192831161025c578301905b828210613731575050505090565b81358152908301908301613723565b60243590811515820361025c57565b604090600319011261025c576004359060243590565b6007546001600160a01b0316330361377957565b60405163118cdaa760e01b8152336004820152602490fd5b6001600160a01b03918216929091831561391f576137ad6140b6565b600092828452826020956002875260409684888820541696879133151580613889575b509060027fddf252ad1be2c89b69c2b068fc378daa952ba7f163c4a11628f55a4df523b3ef9284613856575b858352600381528b8320805460010190558683525289812080546001600160a01b0319168517905580a416928383036138355750505050565b6064945051926364283d7b60e01b8452600484015260248301526044820152fd5b600087815260046020526040902080546001600160a01b0319169055848352600381528b832080546000190190556137fc565b919394509150806138de575b156138a5578592918791386137d0565b8786886138c2576024915190637e27328960e01b82526004820152fd5b604491519063177e802f60e01b82523360048301526024820152fd5b503387148015613903575b806138955750858252600481523385898420541614613895565b5086825260058152878220338352815260ff88832054166138e9565b604051633250574960e11b815260006004820152602490fd5b6000818152600260205260409020546001600160a01b031690811561395b575090565b60249060405190637e27328960e01b82526004820152fd5b90939192833b613985575b5050505050565b604051630a85bd0160e11b8082526001600160a01b0393841660048301529583166024820152604481019190915260806064820152949216926020929185906139d290608483019061322c565b039483816000978189895af1869181613a7d575b50613a47575050503d600014613a3e573d613a008161330a565b90613a0e60405192836132e9565b81528093823d92013e5b82519283613a3957604051633250574960e11b815260048101849052602490fd5b019050fd5b60609250613a18565b919450915063ffffffff60e01b1603613a655750388080808061397e565b60249060405190633250574960e11b82526004820152fd5b9091508481813d8311613aba575b613a9581836132e9565b81010312613ab657516001600160e01b031981168103613ab65790386139e6565b8680fd5b503d613a8b565b15613ac857565b60405162461bcd60e51b81526020600482015260166024820152752737ba1030baba3437b934bd32b21031b932b0ba37b960511b6044820152606490fd5b15613b0d57565b60405162461bcd60e51b815260206004820152601060248201526f14dd5b9bc81251081c995c5d5a5c995960821b6044820152606490fd5b15613b4c57565b60405162461bcd60e51b815260206004820152601060248201526f15185cdac81251081c995c5d5a5c995960821b6044820152606490fd5b15613b8b57565b60405162461bcd60e51b8152602060048201526014602482015273151c9858dac8185b1c9958591e481b5a5b9d195960621b6044820152606490fd5b15613bce57565b60405162461bcd60e51b81526020600482015260156024820152740a4def2c2d8e8f240e4c2e8ca40e8dede40d0d2ced605b1b6044820152606490fd5b15613c1257565b60405162461bcd60e51b815260206004820152601860248201527f496e73756666696369656e74206d696e74696e672066656500000000000000006044820152606490fd5b60001981146121845760010190565b818110613c71575050565b60008155600101613c66565b600e5490600160401b821015610d0057612b47826001613ca09401600e556135e6565b565b90815491600160401b831015610d005782612b47916001613ca095018155613633565b9192613cf26133779694613ce4613d009460a0875260a087019061322c565b90858203602087015261322c565b90838203604085015261322c565b926060820152608081840391015261322c565b9190820391821161218457565b60408051613d2d816132ce565b6000808252936001600160a01b03848116949092908515613f3e57613d506140b6565b82875260209360028552858820541683878215159283613f0b575b818b5260038852888b2080546001019055828b5260028852888b2080546001600160a01b031916831790557fddf252ad1be2c89b69c2b068fc378daa952ba7f163c4a11628f55a4df523b3ef8b80a4613ef3573b613dcc575b505050505050565b82613e0a918596979894955180938192630a85bd0160e11b968784523360048501528c6024850152604484015260806064840152608483019061322c565b03818a8a5af1879181613eaf575b50613e78575050503d600014613e6f573d613e328161330a565b90613e3f845192836132e9565b81528094823d92013e5b83519384613e69578251633250574960e11b815260048101859052602490fd5b84925001fd5b60609350613e49565b919550915063ffffffff60e01b1603613e98575050388080808080613dc4565b602492505190633250574960e11b82526004820152fd5b9091508481813d8311613eec575b613ec781836132e9565b81010312613ee857516001600160e01b031981168103613ee8579038613e18565b8780fd5b503d613ebd565b84516339e3563760e11b815260048101889052602490fd5b600083815260046020526040902080546001600160a01b0319169055808b5260038852888b208054600019019055613d6b565b8451633250574960e11b815260048101889052602490fd5b9190916000908082526020916006835260408120908551906001600160401b0382116140a257613f86835461337a565b601f8111614074575b508490601f8311600114613ff057907ff8e1a15aba9398e019f0b49df1a4fde98ee17ae345cb5f6b5e2c27f5033e8ce7969783613fe5575b50508160011b916000199060031b1c19161790555b604051908152a1565b015190503880613fc7565b9196601f198816848452868420935b81811061405d57509160019391897ff8e1a15aba9398e019f0b49df1a4fde98ee17ae345cb5f6b5e2c27f5033e8ce7999a9410614044575b505050811b019055613fdc565b015160001960f88460031b161c19169055388080614037565b929387600181928786015181550195019301613fff565b61409c90848352868320601f850160051c810191888610610cf657601f0160051c0190613c66565b38613f8f565b634e487b7160e01b81526041600452602490fd5b60ff60075460a01c166140c557565b60405163d93c066560e01b8152600490fd5b6002600854146140e8576002600855565b604051633ee5aeb560e01b8152600490fd5b1561410157565b60405162461bcd60e51b8152602060048201526015602482015274082e4e4c2f240d8cadccee8d040dad2e6dac2e8c6d605b1b6044820152606490fd5b805182101561361d5760209160051b010190565b1561415957565b60405162461bcd60e51b8152602060048201526014602482015273151bdad95b88191bd95cc81b9bdd08195e1a5cdd60621b6044820152606490fd5b604051906141a2826132b2565b8161016060609182815282602082015282604082015260009283818301528360808301528360a08301528060c08301528360e083015283610100830152806101208301526101408201520152565b906141fa8261364b565b61420760405191826132e9565b8281528092614218601f199161364b565b019060005b82811061422957505050565b602090614234614195565b8282850101520161421d565b9190820180921161218457565b906142578261364b565b61426460405191826132e9565b8281528092614275601f199161364b565b0190602036910137565b614289815461337a565b9081614293575050565b81601f600093116001146142a5575055565b9080839182526142c4601f60208420940160051c840160018501613c66565b555556fea2646970667358221220f477d3a49f71b3a96fc0a3bc37809c1aebf6fc71a0961604758d77fb1d52aa5b64736f6c6343000814003360c0346200013257601f6200382f38819003918201601f19168301916001600160401b038311848410176200013757808492604094855283398101031262000132576200005a602062000052836200014d565b92016200014d565b903315620001195760008054336001600160a01b0319821681178355604051946001600160a01b0394909385939192918416907f8be0079c531659141344cd1fd0a4f28419497f9722a3daafe3b4186f6b6457e09080a3600180556001600355166080521660a0526136cc9081620001638239608051818181610d62015281816111a001528181611371015281816115f8015281816121a201528181612b3901528181612d67015261349a015260a0518181816110c801526123960152f35b604051631e4fbdf760e01b815260006004820152602490fd5b600080fd5b634e487b7160e01b600052604160045260246000fd5b51906001600160a01b0382168203620001325756fe608080604052600436101561001357600080fd5b600090813560e01c9081631bef8da514612dcf575080632586bbfb14612d965780632f9662c514612d5157806333a351d514612ace5780633611c34f14612aad5780633626e23514612a9157806337090260146127ad5780633ccfd60b146126ce5780633f4ba83a146126635780634826c5d1146121465780634907cf3314611e4657806354846f4614611dd35780635601211414611bfe5780635c975abb14611bdb5780635d6003f414611914578063601b349c14611ace57806364ba825f14611a955780636cc2054f14611a07578063715018a6146119ad578063809d91fb14611957578063839fd75c146119145780638456cb59146118b95780638457ca29146117135780638da5cb5b146116ec5780638e37020c146116c957806390ef33dd146116ac578063a2f49b5a14611339578063a7e891821461116d578063a9864639146110f7578063b679a646146102d6578063c46a20a2146110b2578063ccf8bc6414610f68578063d15e55b714610eaa578063d43f2c0114610e80578063d441777714610d28578063d4bd5a0d14610b70578063e00a805014610568578063e587a04b146104ba578063ecc6362f146103af578063f2fde38b1461031f578063f3c5f79c146102d6578063f55e2dfd146102b9578063f760f6f1146102975763ff9e61011461020557600080fd5b34610294576020366003190112610294576001600160a01b03610226612df6565b168152600c602052620151809081604082205404600b60205260408220549242041161028c575b617080918281106102665750602091505b604051908152f35b8203918211610278575060209061025e565b634e487b7160e01b81526011600452602490fd5b90508061024d565b80fd5b5034610294578060031936011261029457602060405166038d7ea4c680008152f35b503461029457806003193601126102945760206040516103e88152f35b50346102945760403660031901126102945760209060ff906040906001600160a01b03610301612df6565b16815260078452818120602435825284522054166040519015158152f35b503461029457602036600319011261029457610339612df6565b6103416130db565b6001600160a01b0390811690811561039657600054826bffffffffffffffffffffffff60a01b821617600055167f8be0079c531659141344cd1fd0a4f28419497f9722a3daafe3b4186f6b6457e0600080a380f35b604051631e4fbdf760e01b815260048101849052602490fd5b5034610294576020366003190112610294576004803582526020526040902080546103dc60018301612fca565b916103e960028201612fca565b906003810154600582015460068301546007840154600885015491600986015493600a870161041790612fca565b96600d0154976040519a8b9a8b526101a08060208d01528b0161043991613093565b8a810360408c015261044a91613093565b6001600160a01b03871660608b01529561046e9060808b019060a01c60ff166130b8565b60ff8116151560a08a015260081c60ff16151560c089015260e08801526101008701526101208601526101408501528381036101608501526104af91613093565b906101808301520390f35b503461029457602080600319360112610564576004356104fa6104f582600052600460205260018060a01b0360036040600020015416151590565b6131c0565b8252600481526004604083200191604051809384918482549182815201918452848420935b8582821061054e5750505061053692500383612e69565b61054a604051928284938452830190612f12565b0390f35b855484526001958601958895509301920161051f565b5080fd5b5060c0366003190112610294576004356001600160401b03811161056457610594903690600401612ecb565b6024356001600160401b038111610b6c576105b3903690600401612ecb565b9060066044351015610b6c57606435151560643503610b67576105d4612ea1565b9160a4356001600160401b038111610b63576105f4903690600401612ecb565b906105fd61317f565b61060561319d565b825115610b275760006003604435141580610b1a575b15610add57610ac9576002604435148015610ac0575b610a61575b6003549361064385613107565b6003558486526004602052604086209185835584516001600160401b0381116109a5576106736001850154612f90565b601f8111610a2e575b50806020601f82116001146109c45789916109b9575b508160011b916000199060031b1c19161760018401555b8051906001600160401b0382116109a5576106c76002850154612f90565b601f8111610972575b50602090601f83116001146108fe579180600a95949261075c948b926108f3575b50508160011b916000199060031b1c19161760028401555b60038301805460ff60a01b60443560a01b1660ff60a01b1933166001600160a81b03199092169190911717905560058301805461ffff191660ff6064351515161791151560081b61ff0016919091179055565b42600682015542600782015501908051906001600160401b0382116108df579184916020969361078c8354612f90565b601f81116108a6575b508790601f831160011461083a5791806040949287946107d7989261082f575b50508160011b916000199060031b1c19161790555b3381526006875220613143565b817fe1be78f26874dcc05882a12401969658523f7a09209dd03a950cbad7677338b461080e60405193604085526040850190613093565b9261081d8682016044356130b8565b8033940390a360018055604051908152f35b0151905038806107b5565b8386528886209190601f198416875b81811061088c57509260019285926107d799966040989610610873575b505050811b0190556107ca565b015160001960f88460031b161c19169055388080610866565b8284015185558a9750600190940193928b01928b01610849565b6108cf90848752898720601f850160051c8101918b86106108d5575b601f0160051c019061312c565b38610795565b90915081906108c2565b634e487b7160e01b86526041600452602486fd5b0151905038806106f1565b906002850189526020892091895b601f198516811061095a575092600a95949260019261075c9583601f19811610610941575b505050811b016002840155610709565b015160001960f88460031b161c19169055388080610931565b9192602060018192868501518155019401920161090c565b61099f90600286018a5260208a20601f850160051c810191602086106108d557601f0160051c019061312c565b386106d0565b634e487b7160e01b88526041600452602488fd5b905086015138610692565b91506001850189526020892089925b601f1983168410610a16576001935082601f198116106109fd575b5050811b0160018401556106a9565b88015160001960f88460031b161c1916905538806109ee565b888101518255602093840193600190920191016109d3565b610a5b90600186018a5260208a20601f840160051c810191602085106108d557601f0160051c019061312c565b3861067c565b655af3107a40003410156106365760405162461bcd60e51b8152602060048201526024808201527f496e73756666696369656e742066656520666f72207075626c696320706c61796044820152631b1a5cdd60e21b6064820152608490fd5b50606435610631565b634e487b7160e01b85526021600452602485fd5b60405162461bcd60e51b8152602060048201526015602482015274496e76616c696420706c61796c697374207479706560581b6044820152606490fd5b506004604435141561061b565b60405162461bcd60e51b81526020600482015260146024820152734e616d652063616e6e6f7420626520656d70747960601b6044820152606490fd5b8480fd5b600080fd5b8280fd5b503461029457604036600319011261029457600435610b8d612e0c565b90610b9661317f565b600081815260046020526040902060030154610bbc906001600160a01b031615156131c0565b80835260046020908152604084206003015490926001600160a01b039182163303610cd8578285526004845260ff600560408720015460081c1615610c93571691338314610c4f5781845260048152600b60408520019083600052526040600020600160ff198254161790557f4486767bf1b4c9809ec2021de5f1555d0a96d0cc9d7c3008bfafd13f3c69ca8c8380a380f35b6064906040519062461bcd60e51b82526004820152601f60248201527f43616e6e6f74206164642073656c6620617320636f6c6c61626f7261746f72006044820152fd5b60405162461bcd60e51b815260048101859052601d60248201527f506c61796c697374206973206e6f7420636f6c6c61626f7261746976650000006044820152606490fd5b60405162461bcd60e51b815260048101859052602260248201527f4f6e6c792063726561746f722063616e2061646420636f6c6c61626f7261746f604482015261727360f01b6064820152608490fd5b5034610294576020806003193601126105645760043590610d4761317f565b604051634f558e7960e01b81526004810183905281816024817f00000000000000000000000000000000000000000000000000000000000000006001600160a01b03165afa8015610e75578490610e3b575b610da3915061326f565b3383526007815260408320828452815260ff604084205416159033845260078152604084209083855252610de681604085209060ff801983541691151516179055565b15610e1357337f8b6b26f48faef57225b68aa10011152eea06936cf76ff1b1c588bc32b3c00ab28380a380f35b337f13ec7b469c73f2192cb20bc24d678ae311063e6c60a7a5445d5a0c8b4f302ff68380a380f35b508181813d8311610e6e575b610e518183612e69565b81010312610e6a57610e65610da391613262565b610d99565b8380fd5b503d610e47565b6040513d86823e3d90fd5b50346102945760203660031901126102945760406020916004358152600a83522054604051908152f35b5034610294576020366003190112610294576001600160a01b03610ecc612df6565b168152600560205260408120805490600181015490600381015460048201549460ff8660101c169160066005850154940154946040519687526020870152604086015260ff86161515606086015260ff8660081c16151560808601526003821015610f5457506101209460ff9160a086015260181c1660c084015260e0830152610100820152f35b634e487b7160e01b81526021600452602490fd5b503461029457604036600319011261029457610f82612df6565b6001600160a01b031681526008602052604081208054602480359291908184116110a9575b610fb084613606565b9285925b801515806110a0575b1561105757600019810181811161104457610fd89083612f46565b505487885b86811061101b575b5015610ffb575b50610ff6906135e5565b610fb4565b846110149161100e610ff69497896135f2565b52613107565b9390610fec565b82611026828a6135f2565b511461103a5761103590613107565b610fdd565b5050600138610fe5565b634e487b7160e01b885260116004528388fd5b86848661106382613606565b925b828110611082576040516020808252819061054a90820187612f12565b8061109061109b92846135f2565b5161100e82876135f2565b611065565b50858410610fbd565b92508092610fa7565b50346102945780600319360112610294576040517f00000000000000000000000000000000000000000000000000000000000000006001600160a01b03168152602090f35b503461029457602080600319360112610564576001600160a01b0361111a612df6565b168252600581526002604083200191604051809384918482549182815201918452848420935b858282106111575750505061053692500383612e69565b8554845260019586019588955093019201611140565b50346102945760208060031936011261056457611188612df6565b6040516318160ddd60e01b81526001600160a01b03917f00000000000000000000000000000000000000000000000000000000000000008316908483600481855afa92831561132e5786936112ff575b50916111e381613606565b869490931660015b8281111561123e575050505061120082613606565b935b8281106112205750505061054a604051928284938452830190612f12565b8061122e61123992846135f2565b5161100e82886135f2565b611202565b8188526007875260408820818952875260ff6040892054168061128a575b61126f575b61126a90613107565b6111eb565b94611282818761100e61126a94896135f2565b959050611261565b50604051634f558e7960e01b8152600481018290528781602481885afa9081156112f45789916112bb575b5061125c565b90508781813d83116112ed575b6112d28183612e69565b810103126112e9576112e390613262565b386112b5565b8880fd5b503d6112c8565b6040513d8b823e3d90fd5b9092508481813d8311611327575b6113178183612e69565b81010312610b67575191386111d8565b503d61130d565b6040513d88823e3d90fd5b503461029457604036600319011261029457611353612df6565b6040516318160ddd60e01b8152906001600160a01b036020836004817f000000000000000000000000000000000000000000000000000000000000000085165afa928315610e75578493611678575b506113ae839293613606565b916113b881613606565b9185948160019116905b838111156115815750505050835b60001984810185811161156d578210156114d757855b6113f083876133df565b8281019081116114c3578110156114b35761140b81856135f2565b51600182019081831161149f576113f092826114399261142c88958a6135f2565b5111611441575b50613107565b9150506113e6565b61144b82896135f2565b51611456828a6135f2565b51611461848b6135f2565b5261146c828a6135f2565b5261149861147a838b6135f2565b5191611486818c6135f2565b51611491858d6135f2565b528a6135f2565b5238611433565b634e487b7160e01b89526011600452602489fd5b50506114be90613107565b6113d0565b634e487b7160e01b88526011600452602488fd5b5050909160243581116000146115675750602435905b6114f682613606565b9261150083613606565b945b838110611533576115258561054a88604051938493604085526040850190612f12565b908382036020850152612f12565b8061154161156292846135f2565b5161154c82886135f2565b5261155781856135f2565b5161100e82896135f2565b611502565b906114ed565b634e487b7160e01b87526011600452602487fd5b8188526009602052604088208189526020526040882054801515806115db575b6115b5575b506115b090613107565b6113c2565b876115d491836115c96115b0959b8b6135f2565b5261100e82896135f2565b96906115a6565b50604051634f558e7960e01b8152600481018390526020816024817f000000000000000000000000000000000000000000000000000000000000000089165afa90811561166d578a9161162f575b506115a1565b90506020813d602011611665575b8161164a60209383612e69565b810103126116615761165b90613262565b38611629565b8980fd5b3d915061163d565b6040513d8c823e3d90fd5b9092506020813d6020116116a4575b8161169460209383612e69565b81010312610b67575191386113a2565b3d9150611687565b503461029457806003193601126102945760206040516170808152f35b5034610294576116e96116db36612e22565b906116e461317f565b6133ec565b80f35b5034610294578060031936011261029457546040516001600160a01b039091168152602090f35b503461029457602080600319360112610564576004359061173261317f565b600082815260046020526040902060030154611758906001600160a01b031615156131c0565b8183526004815260ff6005604085200154161561187c578183526004815260408320600301546001600160a01b0316331461183857600d9082845260048152604084209033600052600c8201905260406000206117c760ff8254161580929060ff801983541691151516179055565b1561180257016117d78154613107565b905533907fa2c94cbddead40cbdc1ad582fcd12ea9bebab5491d457d4b1f1f2d0ffe2640e78380a380f35b0161180d81546135e5565b905533907f640c66fa64fd13658c12f72505e45516a1494f1b8f78a36332b10f2538306a938380a380f35b6064906040519062461bcd60e51b82526004820152601a60248201527f43616e6e6f7420666f6c6c6f77206f776e20706c61796c6973740000000000006044820152fd5b6064906040519062461bcd60e51b825260048201526016602482015275506c61796c697374206973206e6f74207075626c696360501b6044820152fd5b50346102945780600319360112610294576118d26130db565b6118da61317f565b600160ff1960025416176002557f62e78cea01bee320cd4e420270b5ea74000d11b0c9f74754ebdbfc544b05a2586020604051338152a180f35b5034610294576040366003190112610294576020906040906001600160a01b0361193c612df6565b16815260098352818120602435825283522054604051908152f35b503461029457604036600319011261029457611971612df6565b6001600160a01b031681526006602052604081208054602435929083101561029457602061199f8484612f78565b90546040519160031b1c8152f35b50346102945780600319360112610294576119c66130db565b600080546001600160a01b0319811682556001600160a01b03167f8be0079c531659141344cd1fd0a4f28419497f9722a3daafe3b4186f6b6457e08280a380f35b503461029457604036600319011261029457611a21612df6565b6001600160a01b03168152600860205260408120805460243592908310156102945760c0611a4f8484612f46565b50805490600181015490600281015460038201549060ff6005600485015494015416936040519586526020860152604085015260608401526080830152151560a0820152f35b5034610294576020366003190112610294576020906040906001600160a01b03611abd612df6565b168152600b83522054604051908152f35b503461029457604036600319011261029457600435611aeb612e0c565b90611af461317f565b600081815260046020526040902060030154611b1a906001600160a01b031615156131c0565b808352600460205260408320600301546001600160a01b039081163303611b88578184526004602052600b604085200192169182600052602052604060002060ff1981541690557f213b7098f6bea4c344296a98893000df5975db0f186aa7c5b6997768669685548380a380f35b60405162461bcd60e51b815260206004820152602560248201527f4f6e6c792063726561746f722063616e2072656d6f766520636f6c6c61626f7260448201526461746f727360d81b6064820152608490fd5b5034610294578060031936011261029457602060ff600254166040519015158152f35b503461029457604036600319011261029457611c18612df6565b6001600160a01b031681526008602090815260408220805460249391843591808311611dcb575b611c4b83969496612e8a565b93611c596040519586612e69565b838552601f19611c6885612e8a565b01875b818110611d8b5750506000198201918211875b858110611cf557604080518981528851818b01819052898b01928201908b8d5b828110611cab5784840385f35b855180518552808301518584015260408082015190860152606080820151908601526080808201519086015260a0908101511515908501529481019460c090930192600101611c9e565b81989698611d785780611d14611d0e611d7093876133df565b87612f46565b5060ff600560405192611d2684612e38565b8054845260018101548d850152600281015460408501526003810154606085015260048101546080850152015416151560a0820152611d65828c6135f2565b52611433818b6135f2565b979597611c7e565b634e487b7160e01b875260116004528287fd5b8790604099979951611d9c81612e38565b88815288838201528860408201528860608201528860808201528860a082015282828c01015201979597611c6b565b915081611c3f565b503461029457602080600319360112610564576001600160a01b03611df6612df6565b168252600681526040822091604051809384918482549182815201918452848420935b85828210611e305750505061053692500383612e69565b8554845260019586019588955093019201611e19565b5034610294576060366003190112610294576004356001600160401b03602435818111610e6a57611e7b903690600401612ecb565b90604435818111610b6357611e94903690600401612ecb565b611e9c6130db565b600084815260046020526040902060030154611ec2906001600160a01b031615156131c0565b838552602091600483526001908160408820019185519282841161209d57611eea8154612f90565b93601f9485811161211a575b5080878682116001146120bc578b916120b1575b50600019600383901b1c191690831b1790555b868852600485526002604089200192845192831161209d57611f3f8454612f90565b818111612067575b5085908311600114611fdd57928280611fbf97947f9d00291f5036473ca467b223b7ae761f0a7429c4d7baf878409c070392424964999794611fcc978d93611fd2575b501b916000199060031b1c19161790555b8688526004825242600760408a200155604051948594604086526040860190613093565b9184830390850152613093565b0390a280f35b860151925038611f8a565b83895285892091929190601f1983168a5b818110612052575092611fcc9592611fbf989592827f9d00291f5036473ca467b223b7ae761f0a7429c4d7baf878409c0703924249649b999610612039575b5050811b019055611f9b565b85015160001960f88460031b161c19169055388061202d565b87830151845592850192918801918801611fee565b61208e90858b52878b208380870160051c8201928a8810612094575b0160051c019061312c565b38611f47565b92508192612083565b634e487b7160e01b89526041600452602489fd5b905088015138611f0a565b838c52888c2085935090601f1983168d5b8b8d8383106121055750505083116120ec575b5050811b019055611f1d565b8a015160001960f88460031b161c1916905538806120e0565b840151855588969094019392830192016120cd565b61214090838c52888c208780850160051c8201928b8610612094570160051c019061312c565b38611ef6565b5034610294576080366003190112610294576004356024908135916044359060649081359061217361317f565b61217b61319d565b604051634f558e7960e01b8152600481018690526020936001600160a01b039391858185817f000000000000000000000000000000000000000000000000000000000000000089165afa801561166d578a9061262d575b6121dc915061326f565b85156125ec5781861161259e57338952600c8552620151808060408b20540490420411612585575b600b85526170806122198760408c20546133d2565b1161254457338952600b8552604089206122348782546133d2565b905561224086426133df565b91818702918783040361253157801561251e576040519261226084612e38565b888452868401908a8252604085019081526060850191428352605060808701948b865260a08801960410158552338d526008895260408d20805490600160401b82101561250b57906122b791600182018155612f46565b9690966124f857518655516001860155516002850155516003840155516004830155516005909101805460ff191691151560ff16919091179055338752600983526040872085885283526040872061230f8154613107565b9055848752600a8352604087206123268154613107565b9055851515806124d5575b6124b6575b66038d7ea4c68000840266038d7ea4c67fff19858204016124a35790603c8892049283612394575b505050507f3b62eb3c1e64201cbd7d785d32f0c9c6ed2a5e8ce05ff4740d875573db72a7ad906040519283523392a46001805580f35b7f000000000000000000000000000000000000000000000000000000000000000016803b15610b6c5782906044604051809581936309152da960e31b835233600484015288878401525af1801561249857612449575b5050907f3b62eb3c1e64201cbd7d785d32f0c9c6ed2a5e8ce05ff4740d875573db72a7ad9160405190815283828201527f170aff45e7adc6d35b6f6444088cc382ebbfedb566728d98d6d317fbe30aea8460403392a29085388061235e565b6001600160401b0382989398116124865750604052947f3b62eb3c1e64201cbd7d785d32f0c9c6ed2a5e8ce05ff4740d875573db72a7ad386123ea565b634e487b7160e01b8352604160045282fd5b6040513d8a823e3d90fd5b50634e487b7160e01b8752601160045286fd5b85875260048352600960408820016124ce8154613107565b9055612336565b506000868152600460205260409020600301546001600160a01b03161515612331565b634e487b7160e01b8e5260048e9052878efd5b634e487b7160e01b8f526041600452888ffd5b634e487b7160e01b8a526012600452838afd5b634e487b7160e01b8a526011600452838afd5b60405162461bcd60e51b815260048101869052601e818501527f4461696c79206c697374656e696e67206c696d697420657863656564656400006044820152fd5b600b8552886040812055600c85524260408a2055612204565b84620cee8d60eb1b6084926023866040519462461bcd60e51b865260048601528401527f4475726174696f6e2063616e6e6f742065786365656420747261636b206c656e6044840152820152fd5b60405162461bcd60e51b8152600481018690526019818501527f4475726174696f6e206d75737420626520706f736974697665000000000000006044820152fd5b508581813d831161265c575b6126438183612e69565b81010312611661576126576121dc91613262565b6121d2565b503d612639565b503461029457806003193601126102945761267c6130db565b60025460ff8116156126bc5760ff19166002557f5db9ee0a495bf2e6ff9c91a7834c1ba4fdd244a5e8aa4e537bd38aeae4b073aa6020604051338152a180f35b604051638dfc202b60e01b8152600490fd5b50346102945780600319360112610294576126e76130db565b47801561277157815482918291829182916001600160a01b03165af13d1561276c573d61271381612eb0565b906127216040519283612e69565b81528260203d92013e5b156127335780f35b60405162461bcd60e51b815260206004820152601160248201527015da5d1a191c985dd85b0819985a5b1959607a1b6044820152606490fd5b61272b565b60405162461bcd60e51b81526020600482015260146024820152734e6f2066756e647320746f20776974686472617760601b6044820152606490fd5b503461029457610120366003190112610294576004356024803590604435906001600160401b03808311612a8d5736602384011215612a8d578260040135916127f583612e8a565b916128036040519384612e69565b83835260209485840183819660051b83010191368311612a795784889101915b838310612a7d5750505050612836612ea1565b9160a43580151581036116615760c435926003841015612a795760e4359260ff841691828503612a7557610104359761286d61317f565b6064809411612a3b5761138889101580612a2f575b156129f357838151116129be5760408e33815260058d5220998d8b556001938d858d015560028c0192519384116129ac57600160401b84116129ac5750908e918c825485845585818110612991575b50505091528a8e208e5b838110612980575050505050906129229135600388015561290c6004880195869060ff801983541691151516179055565b845461ff00191690151560081b61ff0016178455565b62ff000063ff00000084549260181b169260101b169063ffff000019161717905560058201556006429101556040519283528201527fd4541f8107ebae89dab3777d83864bb22968c22bbb73722ae8b45d2aa508b53d60403392a280f35b825182820155918c019184016128db565b6129a4928587528620918201910161312c565b8c38856128d1565b8f634e487b7160e01b81526041600452fd5b60405162461bcd60e51b8152600481018c9052600f818501526e517565756520746f6f206c6172676560881b60448201528490fd5b60405162461bcd60e51b8152600481018c905260168185015275125b9d985b1a59081c1b185e589858dac81cdc19595960521b60448201528490fd5b50614e20891115612882565b60405162461bcd60e51b8152600481018c9052601481850152730566f6c756d65206d75737420626520302d3130360641b60448201528490fd5b8c80fd5b8a80fd5b8235815291810191889101612823565b8580fd5b5034610294578060031936011261029457602060405160648152f35b50346102945780600319360112610294576020604051655af3107a40008152f35b503461029457612add36612e22565b612ae561317f565b600082815260046020526040902060030154612b0b906001600160a01b031615156131c0565b612b1d612b183384613638565b61320c565b604051634f558e7960e01b8152600481018290526020906024907f00000000000000000000000000000000000000000000000000000000000000006001600160a01b03169083818481855afa8015612d46578790612d0c575b612b80915061326f565b848652600483526103e860046040882001541015612cd5578590858252600484528460408320948360048701918254915b828110612c5f5750505090612bc591613143565b42600785015560405192838092633c57017760e11b82528760048301525afa8015612c54576040600891612c07938891612c32575b50015192019182546133d2565b905533917f6d04f47062570652b4b7c94b81db222f316c05f0979fc28c9a564b7e6fcbc0ec8480a480f35b612c4e91503d808a833e612c468183612e69565b8101906132f7565b38612bfa565b6040513d87823e3d90fd5b91939092949550612c708286612f78565b90549060031b1c14612c9157612c8590613107565b91899493918893612bb1565b60405162461bcd60e51b8152600481018390526019818801527f547261636b20616c726561647920696e20706c61796c697374000000000000006044820152606490fd5b60405162461bcd60e51b8152600481018490526010818401526f141b185e5b1a5cdd081a5cc8199d5b1b60821b6044820152606490fd5b508381813d8311612d3f575b612d228183612e69565b81010312612d3b57612d36612b8091613262565b612b76565b8680fd5b503d612d18565b6040513d89823e3d90fd5b50346102945780600319360112610294576040517f00000000000000000000000000000000000000000000000000000000000000006001600160a01b03168152602090f35b5034610294576020366003190112610294576020906040906001600160a01b03612dbe612df6565b168152600c83522054604051908152f35b9050346105645760203660031901126105645760406020926004358152600a845220548152f35b600435906001600160a01b0382168203610b6757565b602435906001600160a01b0382168203610b6757565b6040906003190112610b67576004359060243590565b60c081019081106001600160401b03821117612e5357604052565b634e487b7160e01b600052604160045260246000fd5b90601f801991011681019081106001600160401b03821117612e5357604052565b6001600160401b038111612e535760051b60200190565b608435908115158203610b6757565b6001600160401b038111612e5357601f01601f191660200190565b81601f82011215610b6757803590612ee282612eb0565b92612ef06040519485612e69565b82845260208383010111610b6757816000926020809301838601378301015290565b90815180825260208080930193019160005b828110612f32575050505090565b835185529381019392810192600101612f24565b8054821015612f62576000526006602060002091020190600090565b634e487b7160e01b600052603260045260246000fd5b8054821015612f625760005260206000200190600090565b90600182811c92168015612fc0575b6020831014612faa57565b634e487b7160e01b600052602260045260246000fd5b91607f1691612f9f565b9060405191826000825492612fde84612f90565b90818452600194858116908160001461304d575060011461300a575b505061300892500383612e69565b565b9093915060005260209081600020936000915b81831061303557505061300893508201013880612ffa565b8554888401850152948501948794509183019161301d565b91505061300894506020925060ff191682840152151560051b8201013880612ffa565b60005b8381106130835750506000910152565b8181015183820152602001613073565b906020916130ac81518092818552858086019101613070565b601f01601f1916010190565b9060068210156130c55752565b634e487b7160e01b600052602160045260246000fd5b6000546001600160a01b031633036130ef57565b60405163118cdaa760e01b8152336004820152602490fd5b60001981146131165760010190565b634e487b7160e01b600052601160045260246000fd5b818110613137575050565b6000815560010161312c565b90815491600160401b831015612e53578261316691600161300895018155612f78565b90919082549060031b91821b91600019901b1916179055565b60ff6002541661318b57565b60405163d93c066560e01b8152600490fd5b6002600154146131ae576002600155565b604051633ee5aeb560e01b8152600490fd5b156131c757565b60405162461bcd60e51b815260206004820152601760248201527f506c61796c69737420646f6573206e6f742065786973740000000000000000006044820152606490fd5b1561321357565b60405162461bcd60e51b815260206004820152602160248201527f4e6f7420617574686f72697a656420746f206d6f6469667920706c61796c69736044820152601d60fa1b6064820152608490fd5b51908115158203610b6757565b1561327657565b60405162461bcd60e51b8152602060048201526014602482015273151c9858dac8191bd95cc81b9bdd08195e1a5cdd60621b6044820152606490fd5b81601f82011215610b675780516132c881612eb0565b926132d66040519485612e69565b81845260208284010111610b67576132f49160208085019101613070565b90565b90602082820312610b675781516001600160401b0392838211610b675701610100928382840312610b675760405193840184811082821117612e53576040528151818111610b67578361334b9184016132b2565b84526020820151818111610b6757836133659184016132b2565b60208501526040828101519085015260608201516001600160a01b0381168103610b675760608501526080820151608085015260a0820151908111610b675760e0926133b29183016132b2565b60a08401526133c360c08201613262565b60c0840152015160e082015290565b9190820180921161311657565b9190820391821161311657565b600081815260046020526040902060030154909190613415906001600160a01b031615156131c0565b613422612b183384613638565b600090828252600492836020526040808420908490868301915b8254808210156135a25786906134528386612f78565b929054600393841b1c1461347057505061346b90613107565b61343c565b9290949596979891815191633c57017760e11b835289848401526024928b81858160018060a01b037f0000000000000000000000000000000000000000000000000000000000000000165afa908115613598578c9161357e575b5001516134dc600889019182546133df565b90556000199380850190811161356c57906131666134fd61350a9388612f78565b905490891b1c9187612f78565b835491821561355b5750508101926135228484612f78565b81939154921b1b19169055556007429101557f5720f6e87813016a82cef6f17cce6a3e6be2f9e04dbb89dc59a594145bfcb63f339380a4565b634e487b7160e01b8a526031905288fd5b634e487b7160e01b8b5260118452828bfd5b61359291503d808e833e612c468183612e69565b386134ca565b82513d8e823e3d90fd5b825162461bcd60e51b81526020818b0152601b60248201527f547261636b206e6f7420666f756e6420696e20706c61796c69737400000000006044820152606490fd5b8015613116576000190190565b8051821015612f625760209160051b010190565b9061361082612e8a565b61361d6040519182612e69565b828152809261362e601f1991612e8a565b0190602036910137565b600090815260046020526040902060038101546001600160a01b03928316921682149190821561366757505090565b600581015460081c60ff169250908261367f57505090565b600b92506000520160205260ff604060002054169056fea2646970667358221220ad279f0419bff05c41af9c59c30bdb1f1fe7e104ec6261aafe925c9bd066a39164736f6c634300081400336080806040523461009357331561007d5760008054610100600160a81b0319811633600881811b610100600160a81b031692909217845560405193909290911c6001600160a01b0316907f8be0079c531659141344cd1fd0a4f28419497f9722a3daafe3b4186f6b6457e09080a36001805561284490816100998239f35b631e4fbdf760e01b815260006004820152602490fd5b600080fdfe608080604052600436101561001357600080fd5b60003560e01c908163065fec091461211c57508063155b1d98146121005780631cd896c1146120e45780631fe3f2f41461209a5780633f4ba83a1461203057806347ce0242146120145780635513802c14611c6b5780635c975abb14611c48578063715018a614611beb57806377c846af1461197d578063818713fb146116955780638456cb591461163b5780638d5aa0f4146115f85780638da5cb5b146115cb57806398dd1b651461154357806399ec3a42146114ea578063a70806f714611264578063a787c80b14611225578063a8231985146111b6578063b043e03214610cb8578063b0c0647f1461065d578063bbe156271461050f578063c477d7f7146104f2578063e5fe947714610499578063f107cfcb146102bc578063f2fde38b14610220578063f7d139cb146101c05763f825f1431461015357600080fd5b346101bb5760203660031901126101bb576004356001600160401b0381116101bb5761018560209136906004016121d4565b81610199604051928381519384920161222a565b600390820190815281900382019020546040516001600160a01b039091168152f35b600080fd5b346101bb5760203660031901126101bb576101d961216b565b6101e1612369565b6001600160a01b03166000818152600560205260409020546102059060ff16612587565b6000908152600260205260409020600701805460ff19169055005b346101bb5760203660031901126101bb5761023961216b565b610241612369565b6001600160a01b038181169182156102a35760008054610100600160a81b03198116600893841b610100600160a81b031617825590911c91909116907f8be0079c531659141344cd1fd0a4f28419497f9722a3daafe3b4186f6b6457e09080a3005b604051631e4fbdf760e01b815260006004820152602490fd5b346101bb576020806003193601126101bb576102d661216b565b906102df612569565b6102e76125f1565b336000526005815260ff604060002054161561045557336000526004815260036040600020019160018060a01b03169182600052815260ff60406000205416156104215760029033600052600481526003604060002001836000528152604060002060ff19908181541690553360005260048252600160406000200161036d8154612614565b90558360005260048252826040600020013360005282526040600020908154169055826000526004815260406000206103a68154612614565b90558260005260048152600460406000200133600052815260006040812055818152600a6040600020016103da8154612614565b9055826000525260096040600020016103f38154612614565b9055337fe7339343c6edff57f2d15278c419523844cea30ae5ee2146aa22cb9e3107dab7600080a360018055005b6064906040519062461bcd60e51b82526004820152600d60248201526c4e6f7420666f6c6c6f77696e6760981b6044820152fd5b6064906040519062461bcd60e51b82526004820152601e60248201527f596f75206e65656420612070726f66696c6520746f20756e666f6c6c6f7700006044820152fd5b346101bb5760403660031901126101bb576104b261216b565b6104ba612181565b9060018060a01b03809116600052600460205260026040600020019116600052602052602060ff604060002054166040519015158152f35b346101bb5760003660031901126101bb5760206040516101f48152f35b346101bb5760203660031901126101bb576001600160a01b0361053061216b565b1660005260026020526040600020610547816122c3565b610553600183016122c3565b91610560600282016122c3565b61056c600383016122c3565b91610579600482016122c3565b92610586600583016122c3565b936007830154946008840154600985015491600a86015493600b87015495600c88015497600d0154986040519c8d9c8d6101c090818152016105c79161224d565b8d810360208f01526105d89161224d565b8c810360408e01526105e99161224d565b8b810360608d01526105fa9161224d565b8a810360808c015261060b9161224d565b89810360a08b015261061c9161224d565b9660ff8116151560c08a015260081c60ff16151560e08901526101008801526101208701526101408601526101608501526101808401526101a08301520390f35b346101bb5760803660031901126101bb576004356001600160401b0381116101bb5761068d9036906004016121d4565b6024356001600160401b0381116101bb576106ac9036906004016121d4565b6044356001600160401b0381116101bb576106cb9036906004016121d4565b916064356001600160401b0381116101bb576106eb9036906004016121d4565b916106f4612569565b33600052600560205260ff60406000205416610c7a57610718600383511015612398565b6107266014835111156123d9565b6107356101f485511115612419565b61076b604051835161074b81836020880161222a565b60039082019081528190036020019020546001600160a01b031615612454565b61077c61077783612684565b612499565b33600052600260205260406000209082516001600160401b038111610a82576107af816107a98554612289565b85612524565b806020601f8211600114610c1357600091610c08575b508160011b916000199060031b1c19161782555b8051906001600160401b038211610a82578190610806826107fd6001870154612289565b60018701612524565b602090601f8311600114610b9657600092610b8b575b50508160011b916000199060031b1c19161760018201555b83516001600160401b038111610a825761085e816108556002850154612289565b60028501612524565b6020601f8211600114610b1c578192939495600092610b11575b50508160011b916000199060031b1c19161760028201555b82516001600160401b038111610a82576108ba816108b16003850154612289565b60038501612524565b6020601f8211600114610aa35781929394600092610a98575b50508160011b916000199060031b1c19161760038201555b6000600482016109046108fe8254612289565b826124fc565b556000600582016109186108fe8254612289565b5560405160208101908082106001600160401b03831117610a8257600091604052526006810180546000825580610a10575b50600091600d9183526007810161010061ffff1982541617905542600882015582600982015582600a82015582600b82015582600c82015501556040516020818351610999818385880161222a565b81016003815203019020336bffffffffffffffffffffffff60a01b8254161790553360005260056020526040600020600160ff198254161790557fbafddecbd1dec1c1afb76d693f1de16901f521bdf29a02438e3e6806c0b8d9486040516020815280610a0b3394602083019061224d565b0390a2005b816000526020600020908101905b818110610a2b575061094a565b80610a3860019254612289565b80610a45575b5001610a1e565b601f81118314610a5b5750600081555b86610a3e565b600090828252610a79601f60208420920160051c82018583016124e5565b81835555610a55565b634e487b7160e01b600052604160045260246000fd5b0151905084806108d3565b6003830160005260206000209060005b601f1984168110610af95750600193949583601f19811610610ae0575b505050811b0160038201556108eb565b015160001960f88460031b161c19169055848080610ad0565b9091602060018192858a015181550193019101610ab3565b015190508580610878565b6002830160005260206000209060005b601f1984168110610b73575060019394959683601f19811610610b5a575b505050811b016002820155610890565b015160001960f88460031b161c19169055858080610b4a565b9091602060018192858b015181550193019101610b2c565b01519050868061081c565b9250600184016000526020600020906000935b601f1984168510610bed576001945083601f19811610610bd4575b505050811b016001820155610834565b015160001960f88460031b161c19169055868080610bc4565b81810151835560209485019460019093019290910190610ba9565b9050840151876107c5565b91508360005260206000206000925b601f1983168410610c62576001935082601f19811610610c49575b5050811b0182556107d9565b86015160001960f88460031b161c191690558780610c3d565b86810151825560209384019360019092019101610c22565b60405162461bcd60e51b815260206004820152601660248201527550726f66696c6520616c72656164792065786973747360501b6044820152606490fd5b346101bb5760a03660031901126101bb576001600160401b036004358181116101bb57610ce99036906004016121d4565b60249182358181116101bb57610d039036906004016121d4565b6044358281116101bb57610d1b9036906004016121d4565b906064358381116101bb57610d349036906004016121d4565b906084358481116101bb57610d4d9036906004016121d4565b90610d56612569565b3360005260209260058452610d7260ff60406000205416612587565b610d816101f483511115612419565b3360005260028452604060002091600197888401908051908982116111a1578190610db682610db08654612289565b86612524565b8890601f83116001146111355760009261112a575b5050600019600383901b1c1916908a1b1790555b805160028401918882116110a7578190610dfd82610db08654612289565b8790601f83116001146110c7576000926110bc575b5050600019600383901b1c191690891b1790555b600394858301908051908882116110a7578190610e4782610db08654612289565b8790601f83116001146110455760009261103a575b505060001982891b1c191690891b1790555b8051600483019187821161102557610e8a826107a98554612289565b8590601f8311600114610fbe5760059493929160009183610fb3575b505060001982891b1c191690891b1790555b01958151948511610f9f5750610ed884610ed28854612289565b88612524565b81601f8511600114610f365750938394918492600095610f2b575b50501b92600019911b1c19161790555b337fbe4ec58a792f909e102ee3d745d0c3b34a4d437a54d903c4db098d31c556422f600080a2005b015193508680610ef3565b92919084601f1981168860005285600020956000905b89838310610f855750505010610f6b575b50505050811b019055610f03565b01519060f884600019921b161c1916905583808080610f5d565b858701518955909701969485019488935090810190610f4c565b634e487b7160e01b60009081526041600452fd5b015190508b80610ea6565b9392918991601f1982169084600052886000209160005b8a82821061100f575050968360059810610ff7575b505050811b019055610eb8565b0151600019838b1b60f8161c191690558b8080610fea565b838a015185558e96909401939283019201610fd5565b89634e487b7160e01b60005260416004526000fd5b015190508b80610e5c565b908b9350601f1983169185600052896000209260005b8b8282106110915750508411611079575b505050811b019055610e6e565b0151600019838b1b60f8161c191690558b808061106c565b8385015186558f9790950194938401930161105b565b8a634e487b7160e01b60005260416004526000fd5b015190508b80610e12565b908b9350601f1983169185600052896000209260005b8b82821061111457505084116110fb575b505050811b019055610e26565b015160001960f88460031b161c191690558b80806110ee565b8385015186558f979095019493840193016110dd565b015190508c80610dcb565b908c9350601f19831691856000528a6000209260005b8c8282106111825750508411611169575b505050811b019055610ddf565b015160001960f88460031b161c191690558c808061115c565b91929395968291958786015181550195019301908e959493929161114b565b8b634e487b7160e01b60005260416004526000fd5b346101bb5760803660031901126101bb576111cf61216b565b6111d7612369565b6001600160a01b03166000818152600560205260409020546111fb9060ff16612587565b60005260026020526040600020602435600b820155604435600c820155600d606435910155600080f35b346101bb5760203660031901126101bb576001600160a01b0361124661216b565b166000526005602052602060ff604060002054166040519015158152f35b346101bb576020806003193601126101bb5761127e61216b565b611286612569565b61128e6125f1565b336000526005825260ff60406000205416156114a5576001600160a01b0316600081815260058352604090205490919060ff161561146157338214611424573360005260048152600360406000200182600052815260ff604060002054166113ec5760029033600052600481526003604060002001836000528152604060002060ff19906001828254161790553360005260048252600160406000200161133581546125cc565b905583600052600482528260406000200133600052825260016040600020918254161790558260005260048152604060002061137181546125cc565b90558260005260048152600460406000200133600052815242604060002055818152600a6040600020016113a581546125cc565b9055826000525260096040600020016113be81546125cc565b9055337f30b3435b456f45779984ddfa456115ee4c20d9e446979b1b9e90dbb7e12b90b7600080a360018055005b6064906040519062461bcd60e51b825260048201526011602482015270416c726561647920666f6c6c6f77696e6760781b6044820152fd5b6064906040519062461bcd60e51b82526004820152601660248201527521b0b73737ba103337b63637bb903cb7bab939b2b63360511b6044820152fd5b6064906040519062461bcd60e51b82526004820152601a60248201527f546172676574207573657220686173206e6f2070726f66696c650000000000006044820152fd5b60405162461bcd60e51b815260048101839052601c60248201527f596f75206e65656420612070726f66696c6520746f20666f6c6c6f77000000006044820152606490fd5b346101bb5760403660031901126101bb5761150361216b565b61150b612181565b9060018060a01b03809116600052600460205260036040600020019116600052602052602060ff604060002054166040519015158152f35b346101bb5760203660031901126101bb5761155c61216b565b611564612369565b6001600160a01b03166000818152600560205260409020546115889060ff16612587565b8060005260026020526007604060002001600160ff198254161790557ff5b72f6f3bcef5d31717c3965dcb7239629b10b6ad3bd9b99ec3ca4dced745e4600080a2005b346101bb5760003660031901126101bb5760005460405160089190911c6001600160a01b03168152602090f35b346101bb5760203660031901126101bb576001600160a01b0361161961216b565b1660005260046020526040806000206001815491015482519182526020820152f35b346101bb5760003660031901126101bb57611654612369565b61165c612569565b600160ff1960005416176000557f62e78cea01bee320cd4e420270b5ea74000d11b0c9f74754ebdbfc544b05a2586020604051338152a1005b346101bb576020806003193601126101bb57600435906001600160401b03908183116101bb57366023840112156101bb578260040135916116d583612272565b906116e360405192836121b3565b83825282820194859060249687600597881b830101913683116101bb57888101915b8383106119575750505050611718612569565b3360005284845261173060ff60406000205416612587565b8483511161191b573360005260028452600660406000200192519468010000000000000000861161190657835490868555818710611894575b5050949160005282600020916000955b8587106117a857337fbe4ec58a792f909e102ee3d745d0c3b34a4d437a54d903c4db098d31c556422f600080a2005b805180519084821161187f579086916117cb826117c58954612289565b89612524565b8290601f831160011461181457918060019592869594600092611809575b5050600019600383901b1c191690841b1787555b01940196019592611779565b015190508c806117e9565b90601f1983169188600052846000209260005b818110611867575091600196939185889796941061184e575b505050831b830187556117fd565b015160001960f88460031b161c191690558b8080611840565b8284015185558b966001909501949384019301611827565b83634e487b7160e01b60005260416004526000fd5b84600052868660002092830192015b8281106118b05750611769565b806118bd60019254612289565b806118ca575b50016118a3565b601f9081811184146118e3575050600081555b8a6118c3565b6118fd6000928484528b84209201861c82018583016124e5565b818355556118dd565b86634e487b7160e01b60005260416004526000fd5b60405162461bcd60e51b81526004810185905260158188015274546f6f206d616e7920736f6369616c206c696e6b7360581b6044820152606490fd5b82358681116101bb57889161197283928d36918701016121d4565b815201920191611705565b346101bb576020806003193601126101bb576001600160401b036004358181116101bb576119af9036906004016121d4565b916119b8612569565b33600052600581526119d160ff60406000205416612587565b6003916119e18385511015612398565b6119ef6014855111156123d9565b604051611a2385519184870192611a0781838661222a565b810186815281900385019020546001600160a01b031615612454565b611a2f61077786612684565b3360005260028352611a4460406000206122c3565b9360405184818751611a598183858c0161222a565b810184815203019020926bffffffffffffffffffffffff60a01b9384815416905533600052600285526040600020908751908111610a8257611aa581611a9f8454612289565b84612524565b85601f8211600114611b515795610a0b9481947f10022a11494e4dcaccdda542dc8a420f8a1c3397f37d5bd035a805e79e1a32ee99979484611b1195611b379b600091611b46575b508160011b9160001990851b1c19161790555b604051809481938d5192839161222a565b82019081520301902090339082541617905560405193849360408552604085019061224d565b9083820390840152339561224d565b90508d01518e611aed565b601f198216908360005289886000209260005b818110611bd25750946001858b989395610a0b9a95611b379d977f10022a11494e4dcaccdda542dc8a420f8a1c3397f37d5bd035a805e79e1a32ee9f9d9a99611b119a10611bba575b505050811b019055611b00565b015160001983871b60f8161c191690558e808f611bad565b918301518455600190930192918901918b918a01611b64565b346101bb5760003660031901126101bb57611c04612369565b60008054610100600160a81b03198116825560081c6001600160a01b03167f8be0079c531659141344cd1fd0a4f28419497f9722a3daafe3b4186f6b6457e08280a3005b346101bb5760003660031901126101bb57602060ff600054166040519015158152f35b346101bb5760203660031901126101bb576004356001600160401b0381116101bb57611c9b9036906004016121d4565b60006101c0604051611cac81612197565b60608152606060208201526060604082015260608082015260606080820152606060a0820152606060c08201528260e08201528261010082015282610120820152826101408201528261016082015282610180820152826101a082015201526020611d20604051928381519384920161222a565b60039082019081528190036020019020546001600160a01b03168015611fda576000526002602052604060002060405190611d5a82612197565b611d63816122c3565b8252611d71600182016122c3565b6020830152611d82600282016122c3565b6040830152611d93600382016122c3565b6060830152611da4600482016122c3565b6080830152611db5600582016122c3565b60a0830152600681018054611dc981612272565b91611dd760405193846121b3565b818352602083019060005260206000206000915b838310611fbd5786600d878760c084015260ff6007820154818116151560e086015260081c16151561010084015260088101546101208401526009810154610140840152600a810154610160840152600b810154610180840152600c8101546101a084015201546101c082015260405160208152611ef4611ede611ec8611eb2611e9c611e8687516101e0602089015261020088019061224d565b6020880151878203601f1901604089015261224d565b6040870151868203601f1901606088015261224d565b6060860151858203601f1901608087015261224d565b6080850151848203601f190160a086015261224d565b60a0840151838203601f190160c085015261224d565b60c083015190601f198382030160e0840152815180825260208201916020808360051b8301019401926000915b838310611f90578680876101c08b60e0810151151561010085015261010081015115156101208501526101208101516101408501526101408101516101608501526101608101516101808501526101808101516101a08501526101a08101518285015201516101e08301520390f35b9091929394602080611fae600193601f19868203018752895161224d565b97019301930191939290611f21565b600160208192611fcc856122c3565b815201920192019190611deb565b60405162461bcd60e51b8152602060048201526012602482015271155cd95c9b985b59481b9bdd08199bdd5b9960721b6044820152606490fd5b346101bb5760003660031901126101bb57602060405160058152f35b346101bb5760003660031901126101bb57612049612369565b60005460ff8116156120885760ff19166000557f5db9ee0a495bf2e6ff9c91a7834c1ba4fdd244a5e8aa4e537bd38aeae4b073aa6020604051338152a1005b604051638dfc202b60e01b8152600490fd5b346101bb5760203660031901126101bb576120bb6120b661216b565b612621565b60405160048210156120ce576020918152f35b634e487b7160e01b600052602160045260246000fd5b346101bb5760003660031901126101bb57602060405160148152f35b346101bb5760003660031901126101bb57602060405160038152f35b346101bb5760403660031901126101bb5760209061213861216b565b612140612181565b9060018060a01b03809116600052600484526004604060002001911660005282526040600020548152f35b600435906001600160a01b03821682036101bb57565b602435906001600160a01b03821682036101bb57565b6101e081019081106001600160401b03821117610a8257604052565b90601f801991011681019081106001600160401b03821117610a8257604052565b81601f820112156101bb578035906001600160401b038211610a825760405192612208601f8401601f1916602001856121b3565b828452602083830101116101bb57816000926020809301838601378301015290565b60005b83811061223d5750506000910152565b818101518382015260200161222d565b906020916122668151809281855285808601910161222a565b601f01601f1916010190565b6001600160401b038111610a825760051b60200190565b90600182811c921680156122b9575b60208310146122a357565b634e487b7160e01b600052602260045260246000fd5b91607f1691612298565b90604051918260008254926122d784612289565b9081845260019485811690816000146123465750600114612303575b5050612301925003836121b3565b565b9093915060005260209081600020936000915b81831061232e575050612301935082010138806122f3565b85548884018501529485019487945091830191612316565b91505061230194506020925060ff191682840152151560051b82010138806122f3565b60005460081c6001600160a01b0316330361238057565b60405163118cdaa760e01b8152336004820152602490fd5b1561239f57565b60405162461bcd60e51b8152602060048201526012602482015271155cd95c9b985b59481d1bdbc81cda1bdc9d60721b6044820152606490fd5b156123e057565b60405162461bcd60e51b8152602060048201526011602482015270557365726e616d6520746f6f206c6f6e6760781b6044820152606490fd5b1561242057565b60405162461bcd60e51b815260206004820152600c60248201526b42696f20746f6f206c6f6e6760a01b6044820152606490fd5b1561245b57565b60405162461bcd60e51b81526020600482015260166024820152752ab9b2b93730b6b29030b63932b0b23c903a30b5b2b760511b6044820152606490fd5b156124a057565b60405162461bcd60e51b815260206004820152601760248201527f496e76616c696420757365726e616d6520666f726d61740000000000000000006044820152606490fd5b8181106124f0575050565b600081556001016124e5565b90601f8111612509575050565b61230191600052601f6020600020910160051c8101906124e5565b9190601f811161253357505050565b612301926000526020600020906020601f840160051c8301931061255f575b601f0160051c01906124e5565b9091508190612552565b60ff6000541661257557565b60405163d93c066560e01b8152600490fd5b1561258e57565b60405162461bcd60e51b8152602060048201526016602482015275141c9bd99a5b1948191bd95cc81b9bdd08195e1a5cdd60521b6044820152606490fd5b60001981146125db5760010190565b634e487b7160e01b600052601160045260246000fd5b600260015414612602576002600155565b604051633ee5aeb560e01b8152600490fd5b80156125db576000190190565b6001600160a01b031660009081526005602052604090205460ff161561267f576002602052600b60406000200154606481101561267957603381101561267357600b111561266e57600090565b600190565b50600290565b50600390565b600090565b8051156127a45760208181018051604160f81b916001600160f81b0319918216831115806127f5575b1590816127ba575b8161278b575b5061278257600092835b8551811015612777578581018201518316600360fc1b81101580612769575b159081612748575b81612723575b81612714575b5061270b57612706906125cc565b6126c5565b50505050905090565b605f60f81b14159050386126f8565b9050606160f81b8110158061273a575b15906126f2565b50603d60f91b811115612733565b9050848110158061275b575b15906126ec565b50602d60f91b811115612754565b50603960f81b8111156126e4565b505050505050600190565b50505050600090565b90508451156127a457518116605f60f81b1415386126bb565b634e487b7160e01b600052603260045260246000fd5b90508451156127a4578051606160f81b9083161015806127dc575b15906126b5565b508451156127a4578051603d60f91b90831611156127d5565b508451156127a4578051602d60f91b90831611156126ad56fea2646970667358221220d4258ff6080fe7067f2b8431b6b84b63ada2cb1a17d1c077bebc8e3c5cc03fed64736f6c6343000814003360c0346200018857601f62001f4b38819003918201601f19168301916001600160401b038311848410176200018d5780849260809460405283398101031262000188576200004d81620001a3565b906200005c60208201620001a3565b6200007860606200007060408501620001a3565b9301620001a3565b33156200016f576000549360018060a01b03199333858716176000556040519560018060a01b03948580948193823391167f8be0079c531659141344cd1fd0a4f28419497f9722a3daafe3b4186f6b6457e0600080a360018055611b586003556107d06004556103e860055566038d7ea4c68000600f5561012c601055166080521660a0521683600654161760065516906007541617600755611d929081620001b9823960805181818161029a015281816103f30152818161091b01528181610bde01528181610ee401528181611500015261178d015260a05181818161033101528181610b6e01528181610f2a01526117ef0152f35b604051631e4fbdf760e01b815260006004820152602490fd5b600080fd5b634e487b7160e01b600052604160045260246000fd5b51906001600160a01b0382168203620001885756fe608060408181526004908136101561001657600080fd5b600092833560e01c9081630aa78f0e146118d9575080630c56ae3b146118b05780631421f098146118585780632200cf9c1461181e5780632f9662c5146117da57806336e0cac6146117bc578063374cb7c5146117785780633f4ba83a1461170e57806348b0b0e0146116bf5780634c51703f1461164e5780634d0772e5146115e5578063512a22a414611534578063547eafd0146113f35780635c975abb146113cf578063614223db14611397578063667f8bec146113275780636fe389821461130857806370ac597a146112e9578063715018a61461128c578063740ff96714610e9f578063817f826c14610e1a57806383bf4d8714610b4b5780638456cb5914610af05780638da5cb5b14610ac85780639a12f6fa14610a14578063b7dc99d5146109f5578063d64b7626146109b3578063db2e21bc146108e3578063e138818c146108ba578063e2b2d4821461087c578063e3c838fa14610854578063e68aeae214610832578063e7e68ce6146107fa578063e84c02eb146107c2578063ec2a03ea1461079a578063edc916201461077b578063f2fde38b146106f4578063f4458cd2146102e45763f6cb6ba3146101d157600080fd5b346102e05760203660031901126102e0578135918210156102e0577f2435fb1726e8ea6e35ba780e7d1346f6580308c8c6c4d6e1ddf40f04cd05b00d90610216611d1b565b600261022184611926565b01336000526020526102d681600020549361023d851515611c97565b600261024882611926565b0133600052602052858360002055600361026182611926565b013360005260205282600020610278868254611b80565b9055600161028582611926565b01610291868254611b80565b90556102c785337f00000000000000000000000000000000000000000000000000000000000000006001600160a01b0316611cda565b825194855260208501906119a5565b3392a26001805580f35b8280fd5b509190346106f05760603660031901126106f0578035610302611910565b9360443561030e611bb6565b80156106b4578151633c57017760e11b8082528582018590526001600160a01b037f0000000000000000000000000000000000000000000000000000000000000000811698919290919088816024818d5afa9081156106aa5783916060918b91610690575b500151161561065d57811695868852602091600d8352858920610397868254611b80565b9055868952600e83528589206103ae868254611b80565b90556103bc600f5486611ba3565b888a526011845260ff878b2054168061064c575b15610646576103e460649160105490611ba3565b04935b846103f0578980f35b817f000000000000000000000000000000000000000000000000000000000000000016803b156106425787516309152da960e31b8152308582019081526020810188905290918c9183919082908490829060400103925af1801561063857610609575b5060009060248851809d819382528b878301525afa9182156105fe577f5c90f436b0508ccfa9d025a075d2eac1e52250261d807814e34afda04e2dbeca9798999a6000936105db575b506127106104b9816104b060035489611ba3565b04925487611ba3565b0490826104cf836104ca848a611d4f565b611d4f565b946000805260088752606060028b60002001910190828251166000528752896000206104fc848254611b80565b90558b600052600987528960002082825116600052875289600020610522848254611b80565b90555116600052600a855261053c88600020918254611b80565b905588600052600b845286600020610555868254611b80565b90556000805260088452600287600020018260065416600052845261057f87600020918254611b80565b9055600080526008835260028660002001906007541660005282526105a985600020918254611b80565b90556000805260088152836000206105c2838254611b80565b90558351928352820152a3803880808080808080808980f35b6105f791933d8091833e6105ef81836119f8565b810190611aa1565b913861049c565b86513d6000823e3d90fd5b67ffffffffffffffff819b929b11610625578752986000610453565b634e487b7160e01b825260418452602482fd5b88513d8d823e3d90fd5b8a80fd5b936103e7565b5060128452868a20544211156103d0565b845162461bcd60e51b8152602081890152600d60248201526c24b73b30b634b2103a37b5b2b760991b6044820152606490fd5b6106a491503d808d833e6105ef81836119f8565b38610373565b86513d8b823e3d90fd5b815162461bcd60e51b81526020818601526016602482015275496e76616c69642073747265616d696e672074696d6560501b6044820152606490fd5b5080fd5b5090346102e05760203660031901126102e05761070f6118f5565b906107186119cc565b6001600160a01b0391821692831561076557505082546001600160a01b0319811683178455167f8be0079c531659141344cd1fd0a4f28419497f9722a3daafe3b4186f6b6457e08380a380f35b51631e4fbdf760e01b8152908101849052602490fd5b8382346106f057816003193601126106f057602090600c549051908152f35b5090346102e05760203660031901126102e0576020928291358152600e845220549051908152f35b8382346106f05760203660031901126106f05760209181906001600160a01b036107ea6118f5565b168152600d845220549051908152f35b8382346106f05760203660031901126106f05760209181906001600160a01b036108226118f5565b168152600a845220549051908152f35b5050346106f05760203660031901126106f05761084d6119cc565b35600f5580f35b5090346102e05760203660031901126102e0576020928291358152600b845220549051908152f35b8382346106f05760203660031901126106f05760209160ff9082906001600160a01b036108a76118f5565b1681526011855220541690519015158152f35b8382346106f057816003193601126106f05760065490516001600160a01b039091168152602090f35b50346102e057826003193601126102e0576108fc6119cc565b80516370a0823160e01b815230928101929092526001600160a01b03917f0000000000000000000000000000000000000000000000000000000000000000831690602081602481855afa9283156109aa57508492610973575b508161095f578380f35b61096c9284541690611cda565b3880808380f35b9091506020813d82116109a2575b8161098e602093836119f8565b8101031261099e57519038610955565b8380fd5b3d9150610981565b513d86823e3d90fd5b5090346102e057816003193601126102e05760209282916109d2611910565b90358252600985528282206001600160a01b039091168252845220549051908152f35b8382346106f057816003193601126106f057602090600f549051908152f35b50346102e057610a23366119b2565b929193610a2e6119cc565b612710610a4485610a3f8589611b80565b611b80565b03610a8c5791816060949286947fa54b242cb85a97c5da82622074d253661c7ae898e3b04075295621a7eb29750797600355558260055581519384526020840152820152a180f35b606490602084519162461bcd60e51b835282015260166024820152755261746573206d7573742073756d20746f203130302560501b6044820152fd5b8382346106f057816003193601126106f057905490516001600160a01b039091168152602090f35b8382346106f057816003193601126106f05760207f62e78cea01bee320cd4e420270b5ea74000d11b0c9f74754ebdbfc544b05a25891610b2e6119cc565b610b36611bb6565b600160ff19600254161760025551338152a180f35b50346102e057610b5a366119b2565b9092610b64611bb6565b60018060a01b03807f000000000000000000000000000000000000000000000000000000000000000016958251633c57017760e11b90818152868382015289816024818c5afa908115610e10578a91610df6575b508360608201511615610dba5760c0015115610d8157908885949392610c0382973033877f000000000000000000000000000000000000000000000000000000000000000016611bd4565b60248551809b819382528a868301525afa918215610d77577fc78b1eee0424fe8cefd64d51c7f3674484dc75227ea86d854cb25d238a06b2089697988693610d5b575b50612710610c6381610c5a60035489611ba3565b04935487611ba3565b04610c72816104ca8589611d4f565b9282600295868a528760209a60088c52606089838320019301928484511682528c52818120610ca2868254611b80565b90558d815260098c528181208484511682528c5220610cc2848254611b80565b905551168c52600a8852610cda868d20918254611b80565b9055888b52600b8752848b20610cf1878254611b80565b9055838b526008875283858c200182600654168c528752610d16858c20918254611b80565b9055828a526008865282848b200190600754168a528552610d3b838a20918254611b80565b9055875260088352808720610d51838254611b80565b905551908152a380f35b610d709193503d8088833e6105ef81836119f8565b9138610c46565b83513d87823e3d90fd5b835162461bcd60e51b81526020818401526013602482015272547261636b206e6f742072656d697861626c6560681b6044820152606490fd5b845162461bcd60e51b8152602081850152601660248201527524b73b30b634b21037b934b3b4b730b6103a37b5b2b760511b6044820152606490fd5b610e0a91503d808c833e6105ef81836119f8565b38610bb8565b85513d8c823e3d90fd5b8382346106f057806003193601126106f0577f3c521a01e5b8cc0c480919ef2e8031de8d54a2bb0371d2967be98a07aeb813656020610e576118f5565b610e5f6119cc565b6001600160a01b031680855260118252838520805460ff1916600117905592610e8a60243542611b80565b9084865260128352818187205551908152a280f35b50346102e05760603660031901126102e0578135916024803591808310156112885760443590610ecd611bb6565b8515611255576001600160a01b0391610f0a8730337f00000000000000000000000000000000000000000000000000000000000000008716611bd4565b80156111d3578551633c57017760e11b81528281018290529088808387817f000000000000000000000000000000000000000000000000000000000000000089165afa9283156111c757918486838b8d968c9861119b575b5060606002610f9f610f99610f90999a6104ca61271080610f8560035485611ba3565b049c8d9b5484611ba3565b049b8c92611d4f565b9a611926565b019701918383511681526020978852818120610fbc868254611b80565b905585815260098852818120848451168252885220610fdc848254611b80565b905551168c52600a8452610ff48a8d20918254611b80565b90558a52600b8252878a2061100a8a8254611b80565b9055600261101788611926565b0185600654168b52825261102f888b20918254611b80565b9055600261103c87611926565b019084600754168a5252611054868920918254611b80565b905561105f84611926565b61106a878254611b80565b90555b8451906080820182811067ffffffffffffffff82111761118957865286825260208201858152868301914283526060840195338752600c5468010000000000000000811015611177578060016110c69201600c55611955565b959095611166575185556001850192519180831015611155578b7fc0c95f6ac088df731691316eb962c82e03aef38c566e7f938b01f76f118b068b60608d8d61114c8e8e8e60038f8f8f8f60ff80198354169116179055516002820155019151166bffffffffffffffffffffffff60a01b825416179055825193845260208401906119a5565b3390820152a180f35b634e487b7160e01b8c52602190528afd5b50634e487b7160e01b8b528a82528afd5b50634e487b7160e01b8b52604182528afd5b634e487b7160e01b8952604182528489fd5b610f9096506002610f9f610f996111bd6060943d8089833e6105ef81836119f8565b9950505050610f62565b508751903d90823e3d90fd5b506127106111e2825488611ba3565b046111ed8188611d4f565b9060026111f987611926565b0184600654168a52602052611212878a20918254611b80565b9055600261121f86611926565b0183600754168952602052611238868920918254611b80565b905561124384611926565b61124e878254611b80565b905561106d565b606490600e84602088519362461bcd60e51b85528401528201526d125b9d985b1a5908185b5bdd5b9d60921b6044820152fd5b8580fd5b83346112e657806003193601126112e6576112a56119cc565b80546001600160a01b03198116825581906001600160a01b03167f8be0079c531659141344cd1fd0a4f28419497f9722a3daafe3b4186f6b6457e08280a380f35b80fd5b8382346106f057816003193601126106f0576020906005549051908152f35b8382346106f057816003193601126106f0576020906010549051908152f35b508290346106f057602091826003193601126112e6576113456118f5565b909283916001600160a01b031690825b60ff86168781101561138f5761138991600261137361138393611926565b0185875284528686205490611b80565b95611d3e565b94611355565b508451908152f35b8382346106f05760203660031901126106f05760209181906001600160a01b036113bf6118f5565b1681526012845220549051908152f35b8382346106f057816003193601126106f05760209060ff6002541690519015158152f35b5090346102e057826003193601126102e05761140d611d1b565b82805b60ff8116838110156114ed5760028061142883611926565b0191338552602092835286852054918261144f575b5050505061144a90611d3e565b611410565b906114b18361144a96959a6114bf9461146785611926565b01338a528c52888b812055600361147d85611926565b01338a528c528a8920611491838254611b80565b9055600161149e85611926565b016114aa838254611b80565b9055611b80565b9888519384528301906119a5565b7f2435fb1726e8ea6e35ba780e7d1346f6580308c8c6c4d6e1ddf40f04cd05b00d863392a29038808061143d565b8261152d876114fd811515611c97565b337f00000000000000000000000000000000000000000000000000000000000000006001600160a01b0316611cda565b6001805580f35b5090346102e057816003193601126102e05761154e6118f5565b90611557611910565b906115606119cc565b6001600160a01b0392831693841515806115da575b156115a35750506bffffffffffffffffffffffff60a01b928360065416176006551690600754161760075580f35b906020606492519162461bcd60e51b83528201526011602482015270496e76616c69642061646472657373657360781b6044820152fd5b508383161515611575565b5090346102e05760203660031901126102e0573591600c548310156112e65750611610608092611955565b509081549160ff60018201541691611644600283015492600360018060a01b039101541693825195865260208601906119a5565b8301526060820152f35b5090346102e05760203660031901126102e05780359161166c6119cc565b6064831061167c57505060105580f35b906020606492519162461bcd60e51b8352820152601e60248201527f4d756c7469706c696572206d757374206265206174206c6561737420317800006044820152fd5b5090346102e057816003193601126102e0576116d96118f5565b906024359081101561099e5792829160026116f5602096611926565b6001600160a01b03909216835201845220549051908152f35b5090346102e057826003193601126102e0576117286119cc565b6002549060ff82161561176a575060ff1916600255513381527f5db9ee0a495bf2e6ff9c91a7834c1ba4fdd244a5e8aa4e537bd38aeae4b073aa90602090a180f35b8251638dfc202b60e01b8152fd5b8382346106f057816003193601126106f057517f00000000000000000000000000000000000000000000000000000000000000006001600160a01b03168152602090f35b5090346102e057826003193601126102e05760209250549051908152f35b8382346106f057816003193601126106f057517f00000000000000000000000000000000000000000000000000000000000000006001600160a01b03168152602090f35b5091346112e65760203660031901126112e6578135918210156112e6575061184590611926565b6001815491015482519182526020820152f35b8382346106f05760203660031901126106f057602091906001600160a01b0361187f6118f5565b1682526011835260ff8183205416918261189d575b50519015158152f35b8192506012845220544211159083611894565b8382346106f057816003193601126106f05760075490516001600160a01b039091168152602090f35b8490346106f057816003193601126106f0576020906003548152f35b600435906001600160a01b038216820361190b57565b600080fd5b602435906001600160a01b038216820361190b57565b600481101561193f576000526008602052604060002090565b634e487b7160e01b600052602160045260246000fd5b600c5481101561198f57600c60005260021b7fdf6966c971051c3d54ec59162606531493a51404a002842f56009d7e5cf4a8c70190600090565b634e487b7160e01b600052603260045260246000fd5b90600482101561193f5752565b606090600319011261190b57600435906024359060443590565b6000546001600160a01b031633036119e057565b60405163118cdaa760e01b8152336004820152602490fd5b90601f8019910116810190811067ffffffffffffffff821117611a1a57604052565b634e487b7160e01b600052604160045260246000fd5b919080601f8401121561190b5782519067ffffffffffffffff8211611a1a5760405191602091611a69601f8301601f19168401856119f8565b81845282828701011161190b5760005b818110611a8e57508260009394955001015290565b8581018301518482018401528201611a79565b60208183031261190b57805167ffffffffffffffff9182821161190b57019061010092838382031261190b5760405193840184811083821117611a1a57604052825182811161190b5781611af6918501611a30565b8452602083015182811161190b5781611b10918501611a30565b60208501526040838101519085015260608301516001600160a01b038116810361190b5760608501526080830151608085015260a083015191821161190b57611b5a918301611a30565b60a083015260c081015190811515820361190b5760e09160c0840152015160e082015290565b91908201809211611b8d57565b634e487b7160e01b600052601160045260246000fd5b81810292918115918404141715611b8d57565b60ff60025416611bc257565b60405163d93c066560e01b8152600490fd5b6040516323b872dd60e01b60208201526001600160a01b03928316602482015292909116604483015260648083019390935291815260a081019181831067ffffffffffffffff841117611a1a57611c2d92604052611c2f565b565b906000602091828151910182855af115611c8b576000513d611c8257506001600160a01b0381163b155b611c605750565b604051635274afe760e01b81526001600160a01b039091166004820152602490fd5b60011415611c59565b6040513d6000823e3d90fd5b15611c9e57565b60405162461bcd60e51b81526020600482015260146024820152734e6f2070656e64696e6720726f79616c7469657360601b6044820152606490fd5b60405163a9059cbb60e01b60208201526001600160a01b03929092166024830152604480830193909352918152611c2d91611d166064836119f8565b611c2f565b600260015414611d2c576002600155565b604051633ee5aeb560e01b8152600490fd5b60ff1660ff8114611b8d5760010190565b91908203918211611b8d5756fea2646970667358221220530c74d2ab21fb35d8602f66dc9ee4abba15a65211adb8133532921a26d3663964736f6c6343000814003360e0346200017257601f6200381038819003918201601f19168301916001600160401b03831184841017620001775780849260809460405283398101031262000172576200004d816200018d565b906200005c602082016200018d565b62000078606062000070604085016200018d565b93016200018d565b331562000159576000549360018060a01b03199333858716176000556040519560018060a01b03948580948193823391167f8be0079c531659141344cd1fd0a4f28419497f9722a3daafe3b4186f6b6457e0600080a3600180556001600f556101f46010556103e8601255166080521660a0521660c0521690601154161760115561366d9081620001a382396080518181816106b601528181610c3a01528181610ce301528181610d3e0152818161218f0152612ea2015260a051818181610fc401528181611fec0152612230015260c0518181816115d901526131860152f35b604051631e4fbdf760e01b815260006004820152602490fd5b600080fd5b634e487b7160e01b600052604160045260246000fd5b51906001600160a01b0382168203620001725756fe608080604052600436101561001357600080fd5b600090813560e01c908162a47ddd14612631575080630962ef791461256357806318e56131146125455780631958433d146124df5780631ac76fa2146124c05780631d5796001461247a5780632c920ef1146124435780632f380b351461225f5780632f9662c51461221a578063371d6259146121be578063374cb7c514612179578063394a66fd14611f5f5780633f4ba83a14611ef4578063422c1af014611ed75780634690484014611eae57806354be19df14611e7d578063559b8e5314611e3557806359ad714014611d805780635aad6cf014611c955780635c975abb14611c725780635fc2c07914611bc0578063611af22614611b755780636837e9c414611b585780636cb1d90714611662578063715018a61461160857806375a2d46c146115c35780637d2d5be6146115a65780638456cb591461154b57806385dc0aaf1461151c5780638da5cb5b146114f557806391bcb737146114d857806395ccea67146114215780639626a2301461129457806399956b9d1461126a57806399f27a1c1461120c5780639abd9b05146111b75780639debdddc14610bb45780639e2c8a5b146105c2578063a2b44393146105a5578063aa2d0a081461054f578063ac8bb71d14610520578063ae3b7f06146104ef578063cd7f99df1461042e578063d3d1993d146103cc578063e899052414610333578063eeca08f014610315578063f0419a91146102f7578063f2fde38b146102675763fa27e0ae1461023b57600080fd5b346102645760203660031901126102645760406020916004358152600d83522054604051908152f35b80fd5b50346102645760203660031901126102645761028161268d565b6102896129cb565b6001600160a01b039081169081156102de57600054826bffffffffffffffffffffffff60a01b821617600055167f8be0079c531659141344cd1fd0a4f28419497f9722a3daafe3b4186f6b6457e0600080a380f35b604051631e4fbdf760e01b815260048101849052602490fd5b50346102645780600319360112610264576020601254604051908152f35b50346102645780600319360112610264576020601054604051908152f35b503461026457604036600319011261026457604061034f612672565b9160043581526004602052209060018060a01b031660005260205261010060406000208054906001810154906002810154600382015460048301549060ff6006850154169260086007860154950154956040519788526020880152604087015260608601526080850152151560a084015260c083015260e0820152f35b503461026457602036600319011261026457604060c091600435815260086020522080549060018101549060028101546003820154906005600484015493015493604051958652602086015260408501526060840152608083015260a0820152f35b50346102645760203660031901126102645760408160c09260a08351610453816127b6565b828152826020820152828582015282606082015282608082015201526004358152600860205220604051610486816127b6565b8154918282526001810154602083019081526002820154604084019081526003830154916060850192835260a0600560048601549560808801968752015495019485526040519586525160208601525160408501525160608401525160808301525160a0820152f35b50346102645760203660031901126102645760043561050c6129cb565b61051a6107d08211156135fc565b60105580f35b50346102645760203660031901126102645760ff60406020926004358152600b84522054166040519015158152f35b50346102645760403660031901126102645761056961268d565b6001600160a01b03168152600a60205260408120805460243592908310156102645760206105978484612867565b90546040519160031b1c8152f35b503461026457806003193601126102645760206040516127108152f35b5034610264576105d1366126d7565b8183526003906020908282526105f360ff600660408820015460081c16612a3f565b838552600482526040852033600052825261061860ff60066040600020015416612bd4565b610620612b93565b610628612bb1565b8385526004825260408520336000528252604060002092848652808352604086209082151580610ba9575b15610b73576002850154879182914210610b5b575b61067188612c5c565b600461067d338a612cf0565b94610689878a54612c12565b895501610697868254612c12565b9055865415610811575b506106ac8185612c12565b6001600160a01b037f000000000000000000000000000000000000000000000000000000000000000081169290833b156107ee5760405163423f6cef60e01b8082523360048301526024820194909452858160448183895af19081156108065786916107f2575b505081610782575b50505050507f82cde2a521236b5bef1feef34361c598c2b76659df8472a7dc4bdd37e3012fe39281604092610771575b5081519283528201528061076733946005604084019101612c1f565b0390a36001805580f35b61077c903388612e25565b3861074b565b6011541692803b156107ee576040519283526001600160a01b0393909316600483015260248201529082908290604490829084905af180156107e3576107cb575b80808061071b565b6107d4906127a3565b6107df5785386107c3565b8580fd5b6040513d84823e3d90fd5b8480fd5b6107fb906127a3565b6107ee578438610713565b6040513d88823e3d90fd5b959391509593916005840180546109e8575b5060068401805460ff19169055848852600783526040882096885b8854808210156109d957610852828b612867565b90546001600160a01b0392918b1b1c82163314610879575050610874906129f7565b61083e565b90929394959697989991600019918281019081116109c557906108b1858d6108a46108d09588612867565b9054911b1c169185612867565b90919082549060031b9160018060a01b03809116831b921b1916179055565b815480156109b15701916108e48383612867565b90918254918c1b1b19169055555b3388526006845260408820885b81548a818310156109a25750886109168385612867565b9054908c1b1c14610930575061092b906129f7565b6108ff565b60009991929394959697989919810190811161098e576109889261096a859361095e610983948f9998612867565b9054911b1c9184612867565b90919082549060031b91821b91600019901b1916179055565b61353d565b386106a1565b634e487b7160e01b8b52601160045260248bfd5b94959697989950505050610988565b634e487b7160e01b8c52603160045260248cfd5b634e487b7160e01b8d52601160045260248dfd5b505090919293949596506108f2565b909192604097969795949551610a0981610a028186612c1f565b03826127d1565b89975b8151891015610b2457610a1f8983612a8b565b51878c52600984526040808d20828e528552808d2080546001600160a01b0319169055600b8552808d20805460ff19169055338d52600a85528c20909890968c5b88548d81831015610b0e578c90610a77848d612867565b9054911b1c14610a905750610a8b906129f7565b610a60565b60009c9498959992969b93979c198101908111610afa5791610983610ac3928f61096a9061095e610aee99989786612867565b88337fc486b9458a8637650d84d262414833a5a457bc91ae86b7da110386c8c3fa255b8f80a46129f7565b97929691949093610a0c565b634e487b7160e01b8f52601160045260248ffd5b5050509398610aee929693975099909499610ac3565b9897505092919094939480546000825580610b40575b50610823565b610b54916000528460002090810190612a28565b3880610b3a565b9050612710610b6c60125486612b60565b0490610668565b60405162461bcd60e51b815260048101859052600e60248201526d125b9d985b1a5908185b5bdd5b9d60921b6044820152606490fd5b508454831115610653565b503461026457606036600319011261026457604480356001600160401b0381116111b357610be6903690600401612809565b9060043583526003602052610c0760ff600660408620015460081c16612a3f565b610c0f612b93565b610c17612bb1565b6024351561117e576040516370a0823160e01b81523360048201526020816024817f00000000000000000000000000000000000000000000000000000000000000006001600160a01b03165afa90811561117357849161113d575b506024351161110257600435835260036020526040832060076020526040842054600382015411156110cf5760ff600682015416610f87575b610cb6600435612c5c565b6004358452600460205260408420338552602052604084209160068301805460ff811615610ede575b50507f00000000000000000000000000000000000000000000000000000000000000006001600160a01b03163b156107ee57604051632142170760e11b81523360048201523060248083019190915235918101919091528481606481837f00000000000000000000000000000000000000000000000000000000000000006001600160a01b03165af18015610ed357610ec0575b50610d816024358354612b30565b825560048101610d946024358254612b30565b90558251610e0e575b670de0b6b3a7640000610dc5600392610db860043533613139565b6009855491015490612b60565b04910155604051906024358252604060208301527f5df5de9ccb680fe3d60088f6d4c3b6d535074c704699377046c743a5b276e1716004359280610767339460408301906126a3565b610e1a8360043561300e565b8251600583016001600160401b038211610eac57600160401b8211610e96578054828255808310610e78575b506020850190865260208620865b838110610e645750505050610d9d565b600190602084519401938184015501610e54565b610e9090826000528360206000209182019101612a28565b38610e46565b634e487b7160e01b600052604160045260246000fd5b634e487b7160e01b86526041600452602486fd5b610ecc909491946127a3565b9238610d73565b6040513d87823e3d90fd5b60019060ff1916179055426001840155610efc600283015442612b30565b60028401554260088401556004358552600760205260408520805490600160401b821015610f735781610f37916001610f5594018155612867565b81546001600160a01b0360039290921b91821b19163390911b179055565b3385526006602052610f6c60043560408720612b3d565b3880610cdf565b634e487b7160e01b87526041600452602487fd5b919081511561108b57835b825181101561108357610fa58184612a8b565b516040516331a9108f60e11b81526004810191909152906020826024817f00000000000000000000000000000000000000000000000000000000000000006001600160a01b03165afa918215610806578692611042575b5061103d91611015906001600160a01b03163314612ab3565b61101f8185612a8b565b518652600b60205261103860ff60408820541615612aef565b6129f7565b610f92565b91506020823d60201161107b575b8161105d602093836127d1565b810103126107df5761101561107461103d93612a9f565b9250610ffc565b3d9150611050565b509091610cab565b6064907f4e465420726571756972656420666f72207468697320706f6f6c0000000000006040519162461bcd60e51b835260206004840152601a6024840152820152fd5b60405162461bcd60e51b815260206004820152600c60248201526b141bdbdb081a5cc8199d5b1b60a21b81840152606490fd5b60649073496e73756666696369656e742062616c616e636560601b6040519162461bcd60e51b83526020600484015260146024840152820152fd5b90506020813d60201161116b575b81611158602093836127d1565b81010312611167575138610c72565b8380fd5b3d915061114b565b6040513d86823e3d90fd5b6064906d043616e6e6f74207374616b6520360941b6040519162461bcd60e51b835260206004840152600e6024840152820152fd5b8280fd5b5034610264576020366003190112610264576004356111d46129cb565b80825260036020526111f260ff600660408520015460081c16612a3f565b8152600360205260408120600601805461ff001916905580f35b50346102645760203660031901126102645761126690610a0290611252906040906001600160a01b0361123d61268d565b168152600a6020522060405192838092612c1f565b6040519182916020835260208301906126a3565b0390f35b50346102645760203660031901126102645760406020916004358152600e83522054604051908152f35b5034610264576040366003190112610264576112ae612672565b604051916112bb83612787565b8083526020918183850152816040850152816060850152816080850152606060a08501528160c08501528160e08501528161010080950152600435825260048352604082209060018060a01b03168252825260408120916040519161131f83612787565b8354835260019485850154948385019586526002810154926040860193845260038201549060608701918252600483015460808801908152604051906113738261136c8160058901612c1f565b03836127d1565b60a0890191825260ff6006860154169360c08a019415158552600860078701549660e08c01978852015497878b019889526040519b8a8d528c8b61014082019d519101525160408d01525160608c01525160808b01525160a08a01525196610120968760c08b01528851809252806101608b019901925b82811061140e575050505086975051151560e0870152519085015251908301520390f35b83518a5298810198928101928b016113ea565b50346102645760403660031901126102645761143b61268d565b6114436129cb565b815460405163a9059cbb60e01b60208083019182526001600160a01b03938416602480850191909152356044808501919091528352939092169291849161148b6064826127d1565b519082855af1156114cb5781513d6114c25750803b155b6114aa575080f35b60249060405190635274afe760e01b82526004820152fd5b600114156114a2565b50604051903d90823e3d90fd5b50346102645780600319360112610264576020604051610fa08152f35b5034610264578060031936011261026457546040516001600160a01b039091168152602090f35b503461026457604036600319011261026457602061154361153b612672565b600435612cf0565b604051908152f35b50346102645780600319360112610264576115646129cb565b61156c612b93565b600160ff1960025416176002557f62e78cea01bee320cd4e420270b5ea74000d11b0c9f74754ebdbfc544b05a2586020604051338152a180f35b50346102645780600319360112610264576020604051610bb88152f35b50346102645780600319360112610264576040517f00000000000000000000000000000000000000000000000000000000000000006001600160a01b03168152602090f35b50346102645780600319360112610264576116216129cb565b80546001600160a01b03198116825581906001600160a01b03167f8be0079c531659141344cd1fd0a4f28419497f9722a3daafe3b4186f6b6457e08280a380f35b50346102645760e03660031901126102645760056004351015610264576084359081151582036102645760a4356001600160401b038111611b54576116ab903690600401612975565b9060c4356001600160401b038111611b54576116cb903690600401612975565b926116d46129cb565b602493843515611b1a5760643515611ae057600f54936116f3856129f7565b600f556040519261170384612750565b61170f60043585612a1c565b86356020850152604435604085015260643560608501528460808501528460a0850152151560c0840152600160e084015242610100840152426101208401528361014084015261016083015261018082015282825260036020526040822081516005811015611acd5760ff801983541691161781556020820151600182015560408201516002820155606082015160038201556080820151600482015560a082015160058201556006810160c08301511515815460ff61ff0060e0870151151560081b1692169061ffff1916171790556101008201516007820155610120820151600882015561014082015160098201556101608201518051906001600160401b038211611aba57611824600a840154612895565b601f8111611a87575b50602090601f8311600114611a145791806101809492600b948892611a09575b50508160011b916000199060031b1c191617600a8201555b019101518051906001600160401b0382116119f657918493916020969361188c8354612895565b601f81116119bd575b508790601f83116001146119325791807f770c36acf6ab22d2df7481bc3629242dce3b5efe3b96ec6482494d271c38fd83969492869460609792611927575b50508160011b916000199060031b1c19161790555b848152600d875281356040822055600e875260404291205560405190611911826004356126ed565b35868201526044356040820152a2604051908152f35b0151905038806118d4565b8385528885209190601f198416865b8181106119a35750926001928592606098967f770c36acf6ab22d2df7481bc3629242dce3b5efe3b96ec6482494d271c38fd839a98961061198a575b505050811b0190556118e9565b015160001960f88460031b161c1916905538808061197d565b8284015185558a9950600190940193928b01928b01611941565b6119e690848652898620601f850160051c8101918b86106119ec575b601f0160051c0190612a28565b38611895565b90915081906119d9565b634e487b7160e01b845260416004528584fd5b01519050388061184d565b90600a840186526020862091865b601f1985168110611a6f5750926101809492600192600b9583601f19811610611a56575b505050811b01600a820155611865565b015160001960f88460031b161c19169055388080611a46565b91926020600181928685015181550194019201611a22565b611ab490600a8501875260208720601f850160051c810191602086106119ec57601f0160051c0190612a28565b3861182d565b634e487b7160e01b855260416004528685fd5b634e487b7160e01b845260216004528584fd5b60405162461bcd60e51b81526020600482015260138187015272496e76616c6964206d6178207374616b65727360681b6044820152606490fd5b60405162461bcd60e51b81526020600482015260138187015272496e76616c696420726577617264207261746560681b6044820152606490fd5b5080fd5b503461026457806003193601126102645760206040516107d08152f35b503461026457611b84366126d7565b91908152600760205260408120908154831015610264576020611ba78484612867565b905460405160039290921b1c6001600160a01b03168152f35b503461026457602080600319360112611b54576004358252600781526040822060405192838383549182815201908193835284832090835b818110611c555750505084611c0e9103856127d1565b60405193838594850191818652518092526040850193925b828110611c3557505050500390f35b83516001600160a01b031685528695509381019392810192600101611c26565b82546001600160a01b031684529286019260019283019201611bf8565b5034610264578060031936011261026457602060ff600254166040519015158152f35b5034610264576020366003190112610264576004358152600360205260409020805460ff166001820154916002810154906003810154600482015460058301546006840154600785015491600886015493600987015495600a8801611cf9906128cf565b97600b01611d06906128cf565b986040519b611d168d809d6126ed565b60208c015260408b015260608a0152608089015260a088015260ff8116151560c088015260081c60ff16151560e08701526101008601526101208501526101408401526101a0806101608501528301611d6e91612710565b82810361018084015261126691612710565b503461026457602036600319011261026457604060a091611d9f61268d565b8160808451611dad8161276c565b82815282602082015282868201528260608201520152600180851b03168152600c60205220604051611dde8161276c565b81549182825260018101546020830190815260028201549060408401918252608060046003850154946060870195865201549401938452604051948552516020850152516040840152516060830152516080820152f35b503461026457604036600319011261026457611e4f61268d565b6001600160a01b03168152600660205260408120805460243592908310156102645760206105978484612867565b503461026457602036600319011261026457600435611e9a6129cb565b611ea86113888211156135fc565b60125580f35b50346102645780600319360112610264576011546040516001600160a01b039091168152602090f35b503461026457806003193601126102645760206040516113888152f35b5034610264578060031936011261026457611f0d6129cb565b60025460ff811615611f4d5760ff19166002557f5db9ee0a495bf2e6ff9c91a7834c1ba4fdd244a5e8aa4e537bd38aeae4b073aa6020604051338152a180f35b604051638dfc202b60e01b8152600490fd5b503461026457604036600319011261026457602460043581356001600160401b0381116111675791611f9684933690600401612809565b8284526020906003825260ff92611fb884600660408920015460081c16612a3f565b84865260048352604086203387528352611fda84600660408920015416612bd4565b611fe2612b93565b6001600160a01b037f0000000000000000000000000000000000000000000000000000000000000000811691875b84518110156120d0576120238186612a8b565b5190604051916331a9108f60e11b8352600483015286828481885afa9182156120c5578a92612085575b5061205f612080928533911614612ab3565b6120698187612a8b565b518a52600b87526110388860408c20541615612aef565b612010565b91508682813d83116120be575b61209c81836127d1565b810103126120ba5761205f6120b361208093612a9f565b925061204d565b8980fd5b503d612092565b6040513d8c823e3d90fd5b848989886120de848361300e565b818352600481526040808420338552909152822060050190825b845181101561211e57806110386121126121199388612a8b565b5185612b3d565b6120f8565b84828561212b8233613139565b805b835181101561217557806121446121709286612a8b565b5184337f36b3725f1783bad4ff05b7f4c077c3aa68eeb23a4d054ba189db4d01ac278d398680a46129f7565b61212d565b5080f35b50346102645780600319360112610264576040517f00000000000000000000000000000000000000000000000000000000000000006001600160a01b03168152602090f35b5034610264576121cd366126d7565b906121d66129cb565b80835260036020526121f460ff600660408620015460081c16612a3f565b6121fd81612c5c565b82526003602052806001604084200155600d602052604082205580f35b50346102645780600319360112610264576040517f00000000000000000000000000000000000000000000000000000000000000006001600160a01b03168152602090f35b5034610264576020366003190112610264576040611266916060610180835161228781612750565b838152836020820152838582015283838201528360808201528360a08201528360c08201528360e08201528361010082015283610120820152836101408201528261016082015201526004358152600360205220612382600b604051926122ed84612750565b6122fb60ff82541685612a1c565b60018101546020850152600281015460408501526003810154606085015260048101546080850152600581015460a085015260ff6006820154818116151560c087015260081c16151560e0850152600781015461010085015260088101546101208501526009810154610140850152612376600a82016128cf565b610160850152016128cf565b610180820152604051918291602083526123a06020840182516126ed565b602081015160408401526040810151606084015260608101516080840152608081015160a084015260a081015160c084015260c0810151151560e084015260e0810151151561010084015261010081015161012084015261012081015161014084015261014081015161016084015261016081015161018061242f6101a09283838801526101c0870190612710565b92015190601f198584030190850152612710565b503461026457602090612455366126d7565b90825260098352604082209082528252604060018060a01b0391205416604051908152f35b50346102645760203660031901126102645761126690610a0290611252906040906001600160a01b036124ab61268d565b16815260066020522060405192838092612c1f565b503461026457602036600319011261026457602061154360043561357d565b50346102645760203660031901126102645760a0906040906001600160a01b0361250761268d565b168152600c60205220805490600181015490600281015460046003830154920154926040519485526020850152604084015260608301526080820152f35b50346102645780600319360112610264576020600f54604051908152f35b503461026457602036600319011261026457600435808252600360205261259660ff600660408520015460081c16612a3f565b8082526004602052604082203383526020526125bb60ff600660408520015416612bd4565b6125c3612b93565b6125cb612bb1565b6125d481612c5c565b6125de3382612cf0565b80156125f6576125ef913390612e25565b6001805580f35b60405162461bcd60e51b81526020600482015260136024820152724e6f207265776172647320746f20636c61696d60681b6044820152606490fd5b905034611b54576040366003190112611b54576040602092612651612672565b6004358252600585528282206001600160a01b039091168252845220548152f35b602435906001600160a01b038216820361268857565b600080fd5b600435906001600160a01b038216820361268857565b90815180825260208080930193019160005b8281106126c3575050505090565b8351855293810193928101926001016126b5565b6040906003190112612688576004359060243590565b9060058210156126fa5752565b634e487b7160e01b600052602160045260246000fd5b919082519283825260005b84811061273c575050826000602080949584010152601f8019910116010190565b60208183018101518483018201520161271b565b6101a081019081106001600160401b03821117610e9657604052565b60a081019081106001600160401b03821117610e9657604052565b61012081019081106001600160401b03821117610e9657604052565b6001600160401b038111610e9657604052565b60c081019081106001600160401b03821117610e9657604052565b90601f801991011681019081106001600160401b03821117610e9657604052565b6001600160401b038111610e965760051b60200190565b81601f8201121561268857803591612820836127f2565b9261282e60405194856127d1565b808452602092838086019260051b820101928311612688578301905b828210612858575050505090565b8135815290830190830161284a565b805482101561287f5760005260206000200190600090565b634e487b7160e01b600052603260045260246000fd5b90600182811c921680156128c5575b60208310146128af57565b634e487b7160e01b600052602260045260246000fd5b91607f16916128a4565b90604051918260008254926128e384612895565b908184526001948581169081600014612952575060011461290f575b505061290d925003836127d1565b565b9093915060005260209081600020936000915b81831061293a57505061290d935082010138806128ff565b85548884018501529485019487945091830191612922565b91505061290d94506020925060ff191682840152151560051b82010138806128ff565b81601f82011215612688578035906001600160401b038211610e9657604051926129a9601f8401601f1916602001856127d1565b8284526020838301011161268857816000926020809301838601378301015290565b6000546001600160a01b031633036129df57565b60405163118cdaa760e01b8152336004820152602490fd5b6000198114612a065760010190565b634e487b7160e01b600052601160045260246000fd5b60058210156126fa5752565b818110612a33575050565b60008155600101612a28565b15612a4657565b60405162461bcd60e51b815260206004820152601f60248201527f506f6f6c20646f6573206e6f74206578697374206f7220696e616374697665006044820152606490fd5b805182101561287f5760209160051b010190565b51906001600160a01b038216820361268857565b15612aba57565b60405162461bcd60e51b815260206004820152600d60248201526c2737ba1027232a1037bbb732b960991b6044820152606490fd5b15612af657565b60405162461bcd60e51b815260206004820152601260248201527113919508185b1c9958591e481cdd185ad95960721b6044820152606490fd5b91908201809211612a0657565b90815491600160401b831015610e96578261096a91600161290d95018155612867565b81810292918115918404141715612a0657565b8115612b7d570490565b634e487b7160e01b600052601260045260246000fd5b60ff60025416612b9f57565b60405163d93c066560e01b8152600490fd5b600260015414612bc2576002600155565b604051633ee5aeb560e01b8152600490fd5b15612bdb57565b60405162461bcd60e51b815260206004820152600f60248201526e4e6f20616374697665207374616b6560881b6044820152606490fd5b91908203918211612a0657565b90815480825260208092019260005281600020916000905b828210612c45575050505090565b835485529384019360019384019390910190612c37565b60005260036020526040600020600881018054421115612cec5760048201548015612ce557612c9a612c8f835442612c12565b600185015490612b60565b92670de0b6b3a764000092838502938585041485151715612a0657612cc4600593612ce195612b73565b612cd360098401918254612b30565b905542905501918254612b30565b9055565b5042905550565b5050565b919091600081815260049081602052604081209460018060a01b03169485825260205260408120928152600360205260408120600981015490600881015480421180612e19575b612d90575b5050612d8d949583604061271094670de0b6b3a7640000612d71612d8396612d6b8b549160038d015490612c12565b90612b60565b04938152600c60205220015490612b60565b0491015490612b30565b90565b612d9d612da89142612c12565b600183015490612b60565b90670de0b6b3a764000091828102928184041490151715612e0657604061271094670de0b6b3a7640000612d71612df6612d8397612df0612d8d9d9e988c8099015490612b73565b90612b30565b9650505094505081979650612d3c565b634e487b7160e01b845260118552602484fd5b50848201541515612d37565b9190600083815260046020526040908181209360018060a01b03908185169586845260205283832094612710612e5d60105484612b60565b0492612e698484612c12565b96856004820155670de0b6b3a7640000612e9382548c8952600360205260098a8a20015490612b60565b046003820155600842910155807f00000000000000000000000000000000000000000000000000000000000000001692833b156107df5786516340c10f1960e01b81523060048201526024810191909152858160448183885af18015612ff157612ffb575b50823b156107ee57855163423f6cef60e01b8082526001600160a01b0393909316600482015260248101889052858160448183885af18015612ff157908691612fdd575b505083612f75575b50505050507ff01da32686223933d8a18a391060918c7f11a3648639edd87ae013e2e27317439160209151908152a3565b6011541690823b156107ee5785519081526001600160a01b03919091166004820152602481019290925282908290604490829084905af18015612fd357612fbf575b808080612f44565b612fc982916127a3565b6102645780612fb7565b83513d84823e3d90fd5b612fe6906127a3565b6107ee578438612f3c565b87513d88823e3d90fd5b613007909591956127a3565b9338612ef8565b91909160005b83518110156130b5578061302b6130b09286612a8b565b518360005261308481602060098152600a6040918260002084600052815282600020336bffffffffffffffffffffffff60a01b825416179055600b815282600020600160ff198254161790553360005252600020612b3d565b83337f36b3725f1783bad4ff05b7f4c077c3aa68eeb23a4d054ba189db4d01ac278d39600080a46129f7565b613014565b50509050565b90816020910312612688575180151581036126885790565b81601f82011215612688578051916130ea836127f2565b926130f860405194856127d1565b808452602092838086019260051b820101928311612688578301905b828210613122575050505090565b83809161312e84612a9f565b815201910190613114565b9060018060a01b0380921691600090838252602090600c82526040908184209484526004928381528285208786528152828520612710966005820154801580156134de575b5050612710937f0000000000000000000000000000000000000000000000000000000000000000169585519163a787c80b60e01b978884528b8385015260249386818681855afa9081156134ad578b916134c1575b506134b7575b6127109888519081528c8482015286818681855afa9081156134ad578b91613480575b50613379575b50612710986001936132178587015442612c12565b62278d009081811161330f575b505061323e8b6132398c8f8c61323991612b60565b612b60565b9161271091869160035b8881116132d75750836000190483116132c75750509360079361329b8a98947ff807af4e19575dfa34df76a044653e8fb8cfcb0ad4aff41e3c1b0e43d0853bc09f9d9b979460809f9d9b99950290612b73565b9586938d83558201558960028201558a60038201550155015582519586528501528301526060820152a2565b634e487b7160e01b815260118752fd5b93806000190481116132fe578885166132f5575b800293881c613248565b809302926132eb565b50634e487b7160e01b815260118752fd5b9e9d9c9b919e046101f49081810291818304149015171561336757610fa0908181111561336057505b810180911161334e579b9c9a9b999a8988613224565b634e487b7160e01b8252601184528d82fd5b9050613338565b634e487b7160e01b8352601185528e83fd5b898c858a5180948193632356a83d60e21b8352888301525afa908115613476578a9161340a575b50801561320257600a90989198046064810290808204606414901517156133f8576107d090818111156133f157505b81018091116133df579638613202565b50634e487b7160e01b88526011905286fd5b90506133cf565b634e487b7160e01b8a5260118352838afd5b90503d808b833e61341b81836127d1565b81016080828203126134725781519189810151906001600160401b039182811161346e578361344b9183016130d3565b50606081015191821161346a576134639291016130d3565b50386133a0565b8c80fd5b8d80fd5b8a80fd5b88513d8c823e3d90fd5b6134a09150873d89116134a6575b61349881836127d1565b8101906130bb565b386131fc565b503d61348e565b89513d8d823e3d90fd5b612af896506131d9565b6134d89150873d89116134a65761349881836127d1565b386131d3565b6101f499929980830292830414171561352a57810180911161351757613a98908181111561351057505b96388061317e565b9050613508565b634e487b7160e01b875260118652602487fd5b634e487b7160e01b885260118752602488fd5b805490811561356757600019918201916135578383612867565b909182549160031b1b1916905555565b634e487b7160e01b600052603160045260246000fd5b9060009182526003602052604082206004810154908115612cec57600101546301e13380908181029181830414811517156135e85764496cebb800029080820461271014901517156135d457612d8d929350612b73565b634e487b7160e01b84526011600452602484fd5b634e487b7160e01b85526011600452602485fd5b1561360357565b60405162461bcd60e51b815260206004820152600c60248201526b08ccaca40e8dede40d0d2ced60a31b6044820152606490fdfea26469706673582212209d69583fe9582b02c8c0bbbfc31526c8c71d83780b867433f828b5b70f408f9564736f6c63430008140033608034620006a457601f620017ea38819003918201601f191683019291906001600160401b0384118385101762000573578160809284926040968752833981010312620006a4576200005181620006c9565b906200006060208201620006c9565b906200007c606062000074868401620006c9565b9201620006c9565b9162000087620006a9565b600d81526c2434a132b0ba39902a37b5b2b760991b6020820152620000ab620006a9565b6005815264424541545360d81b6020820152815190916001600160401b038211620005735760035490600182811c9216801562000699575b6020831014620005525781601f84931162000624575b50602090601f8311600114620005955760009262000589575b50508160011b916000199060031b1c1916176003555b8051906001600160401b038211620005735760045490600182811c9216801562000568575b6020831014620005525781601f849311620004dd575b50602090601f8311600114620004525760009262000446575b50508160011b916000199060031b1c1916176004555b33156200042e5760058054336001600160a01b03198083168217938490559660ff946001600160a01b039384938493849290919083167f8be0079c531659141344cd1fd0a4f28419497f9722a3daafe3b4186f6b6457e0600080a316896006541617600655169485886007541617600755169485876008541617600855168095600954161760095560a01c16620003b3576002918254916a2116545850052128000000928381018091116200039d5784553360005260006020528560002083815401905585519283527fddf252ad1be2c89b69c2b068fc378daa952ba7f163c4a11628f55a4df523b3ef9260008460203393a38015620004165760ff60055460a01c16620004055783546a14adf4b7320334b90000008082018092116200039d576020859160009388558484528382528984208181540190558951908152a38015620003ed5760ff60055460a01c16620003dc5782546a108b2a2c280290940000008082018092116200039d576020849160009387558484528382528884208181540190558851908152a38215620003c45760ff60055460a01c16620003b3578154916a0c685fa11e01ec6f0000008084018094116200039d57600093602092558484528382528584208181540190558551908152a36a52b7d2dcc80cd2e4000000600b5533600052600a60205280600020600160ff198254161790555161110b9081620006df8239f35b634e487b7160e01b600052601160045260246000fd5b835163d93c066560e01b8152600490fd5b835163ec442f0560e01b815260006004820152602490fd5b845163d93c066560e01b8152600490fd5b845163ec442f0560e01b815260006004820152602490fd5b855163d93c066560e01b8152600490fd5b855163ec442f0560e01b815260006004820152602490fd5b8451631e4fbdf760e01b815260006004820152602490fd5b0151905038806200017c565b600460009081527f8a35acfbc15ff81a39ae7d344fd709f28e8600b4aa8c65c6b64bfe7fe36bd19b9350601f198516905b818110620004c45750908460019594939210620004aa575b505050811b0160045562000192565b015160001960f88460031b161c191690553880806200049b565b9293602060018192878601518155019501930162000483565b60046000529091507f8a35acfbc15ff81a39ae7d344fd709f28e8600b4aa8c65c6b64bfe7fe36bd19b601f840160051c8101916020851062000547575b90601f859493920160051c01905b81811062000537575062000163565b6000815584935060010162000528565b90915081906200051a565b634e487b7160e01b600052602260045260246000fd5b91607f16916200014d565b634e487b7160e01b600052604160045260246000fd5b01519050388062000112565b6003600090815293507fc2575a0e9e593c00f959f8c92f12db2869c3395a3b0502d05e2516446f71f85b91905b601f198416851062000608576001945083601f19811610620005ee575b505050811b0160035562000128565b015160001960f88460031b161c19169055388080620005df565b81810151835560209485019460019093019290910190620005c2565b60036000529091507fc2575a0e9e593c00f959f8c92f12db2869c3395a3b0502d05e2516446f71f85b601f840160051c810191602085106200068e575b90601f859493920160051c01905b8181106200067e5750620000f9565b600081558493506001016200066f565b909150819062000661565b91607f1691620000e3565b600080fd5b60408051919082016001600160401b038111838210176200057357604052565b51906001600160a01b0382168203620006a45756fe6080604081815260048036101561001557600080fd5b600092833560e01c90816306fdde0314610b5e57508063095ea7b314610ab55780630c56ae3b14610a8c57806318160ddd14610a6d57806323b872dd14610a305780632ff2e9dc14610a0a578063313ce567146109ee57806332cb6b0c146109c7578063396365041461099e5780633f4ba83a1461092f57806342966c681461091157806348a96d48146108295780635c975abb1461080257806370a08231146107cb578063715018a61461076e57806379cc6790146107385780637e89f17b146106965780638456cb59146106355780638da5cb5b1461060c57806395d89b41146104ec578063a06e5d2f146104c3578063a2309ff8146104a4578063a9059cbb14610473578063aa2fe91b14610435578063bbc7d0b91461040c578063d264a38b14610319578063da0239a6146102ce578063dd62ed3e14610285578063ed58bad8146101ff5763f2fde38b1461016d57600080fd5b346101fb5760203660031901126101fb57610186610c9c565b9061018f610ccd565b6001600160a01b039182169283156101e5575050600554826bffffffffffffffffffffffff60a01b821617600555167f8be0079c531659141344cd1fd0a4f28419497f9722a3daafe3b4186f6b6457e08380a380f35b51631e4fbdf760e01b8152908101849052602490fd5b8280fd5b505034610281578060031936011261028157610219610c9c565b6024359081151580920361027d577f9041c22ed79d1c19c69cc22fd9e38c93da4f2dd8cd32580594e232a8a18541cb91602091610254610ccd565b6001600160a01b0316808652600a8352848620805460ff191660ff84161790559351908152a280f35b8380fd5b5080fd5b505034610281578060031936011261028157806020926102a3610c9c565b6102ab610cb7565b6001600160a01b0391821683526001865283832091168252845220549051908152f35b50919034610281578160031936011261028157600b54916b033b2e3c9fd0803ce8000000928303928311610306576020838351908152f35b634e487b7160e01b815260118452602490fd5b5050346102815780600319360112610281577f9d89e36eadf856db0ad9ffb5a569e07f95634dddd9501141ecf04820484ad0dc6080610356610c9c565b92600660243591338752600a60205260ff818820541680156103f8575b61037c90610f59565b6103846110b4565b6103a76b033b2e3c9fd0803ce80000006103a085600b54610f9e565b1115610fc1565b6001600160a01b038616956103c89084906103c3891515611002565b61104e565b6103d483600b54610f9e565b600b558051928352806020840152820152651c995dd85c9960d21b6060820152a280f35b506005546001600160a01b03163314610373565b50503461028157816003193601126102815760085490516001600160a01b039091168152602090f35b5050346102815760203660031901126102815760209160ff9082906001600160a01b03610460610c9c565b168152600a855220541690519015158152f35b50503461028157806003193601126102815760209061049d610493610c9c565b6024359033610cf9565b5160018152f35b505034610281578160031936011261028157602090600b549051908152f35b50503461028157816003193601126102815760065490516001600160a01b039091168152602090f35b50919034610281578160031936011261028157805190828454600181811c90808316928315610602575b60209384841081146105ef578388529081156105d3575060011461057e575b505050829003601f01601f191682019267ffffffffffffffff84118385101761056b5750829182610567925282610c53565b0390f35b634e487b7160e01b815260418552602490fd5b8787529192508591837f8a35acfbc15ff81a39ae7d344fd709f28e8600b4aa8c65c6b64bfe7fe36bd19b5b8385106105bf5750505050830101388080610535565b8054888601830152930192849082016105a9565b60ff1916878501525050151560051b8401019050388080610535565b634e487b7160e01b895260228a52602489fd5b91607f1691610516565b50503461028157816003193601126102815760055490516001600160a01b039091168152602090f35b50503461028157816003193601126102815760207f62e78cea01bee320cd4e420270b5ea74000d11b0c9f74754ebdbfc544b05a25891610673610ccd565b61067b6110b4565b6005805460ff60a01b1916600160a01b17905551338152a180f35b50346101fb5760203660031901126101fb576106b0610c9c565b6106b8610ccd565b6001600160a01b0316918215610703575050600680546001600160a01b031916821790557f3326b6f2f3fceb3a51f1e6d76bfde74bea7ebd2ed741de2aa46d091b825522708280a280f35b906020606492519162461bcd60e51b8352820152600f60248201526e496e76616c6964206164647265737360881b6044820152fd5b5050346102815736600319011261076b57610768610754610c9c565b60243590610763823383610ddf565b610eb2565b80f35b80fd5b833461076b578060031936011261076b57610787610ccd565b600580546001600160a01b0319811690915581906001600160a01b03167f8be0079c531659141344cd1fd0a4f28419497f9722a3daafe3b4186f6b6457e08280a380f35b5050346102815760203660031901126102815760209181906001600160a01b036107f3610c9c565b16815280845220549051908152f35b50503461028157816003193601126102815760209060ff60055460a01c1690519015158152f35b5050346102815780600319360112610281577f9d89e36eadf856db0ad9ffb5a569e07f95634dddd9501141ecf04820484ad0dc6080610866610c9c565b92600760243591338752600a60205260ff818820541680156108fd575b61088c90610f59565b6108946110b4565b6108b06b033b2e3c9fd0803ce80000006103a085600b54610f9e565b6001600160a01b038616956108cc9084906103c3891515611002565b6108d883600b54610f9e565b600b55805192835280602084015282015266726f79616c747960c81b6060820152a280f35b506005546001600160a01b03163314610883565b83823461028157602036600319011261028157610768903533610eb2565b50346101fb57826003193601126101fb57610948610ccd565b6005549060ff8260a01c1615610990575060ff60a01b1916600555513381527f5db9ee0a495bf2e6ff9c91a7834c1ba4fdd244a5e8aa4e537bd38aeae4b073aa90602090a180f35b8251638dfc202b60e01b8152fd5b50503461028157816003193601126102815760095490516001600160a01b039091168152602090f35b505034610281578160031936011261028157602090516b033b2e3c9fd0803ce80000008152f35b5050346102815781600319360112610281576020905160128152f35b505034610281578160031936011261028157602090516a52b7d2dcc80cd2e40000008152f35b5050346102815760603660031901126102815760209061049d610a51610c9c565b610a59610cb7565b60443591610a68833383610ddf565b610cf9565b5050346102815781600319360112610281576020906002549051908152f35b50503461028157816003193601126102815760075490516001600160a01b039091168152602090f35b50346101fb57816003193601126101fb57610ace610c9c565b602435903315610b47576001600160a01b0316918215610b3057508083602095338152600187528181208582528752205582519081527f8c5be1e5ebec7d5bd14f71427d1e84f3dd0314c0f7b2291e5b200ac8c7c3b925843392a35160018152f35b8351634a1406b160e11b8152908101859052602490fd5b835163e602df0560e01b8152808401869052602490fd5b84915083346101fb57826003193601126101fb5782600354600181811c90808316928315610c49575b60209384841081146105ef57838852908115610c2d5750600114610bd757505050829003601f01601f191682019267ffffffffffffffff84118385101761056b5750829182610567925282610c53565b600387529192508591837fc2575a0e9e593c00f959f8c92f12db2869c3395a3b0502d05e2516446f71f85b5b838510610c195750505050830101858080610535565b805488860183015293019284908201610c03565b60ff1916878501525050151560051b8401019050858080610535565b91607f1691610b87565b6020808252825181830181905290939260005b828110610c8857505060409293506000838284010152601f8019910116010190565b818101860151848201604001528501610c66565b600435906001600160a01b0382168203610cb257565b600080fd5b602435906001600160a01b0382168203610cb257565b6005546001600160a01b03163303610ce157565b60405163118cdaa760e01b8152336004820152602490fd5b916001600160a01b03808416928315610dc65716928315610dad57610d1c6110b4565b60009083825281602052604082205490838210610d7b575091604082827fddf252ad1be2c89b69c2b068fc378daa952ba7f163c4a11628f55a4df523b3ef958760209652828652038282205586815220818154019055604051908152a3565b60405163391434e360e21b81526001600160a01b03919091166004820152602481019190915260448101839052606490fd5b60405163ec442f0560e01b815260006004820152602490fd5b604051634b637e8f60e11b815260006004820152602490fd5b9160018060a01b038093169160009383855260016020526040938486209183169182875260205284862054926000198410610e1e575b50505050505050565b848410610e8257508015610e6a578115610e5257855260016020528385209085526020520391205538808080808080610e15565b8451634a1406b160e11b815260048101879052602490fd5b845163e602df0560e01b815260048101879052602490fd5b8551637dc7a0d960e11b81526001600160a01b039190911660048201526024810184905260448101859052606490fd5b906001600160a01b038216908115610dc657610ecc6110b4565b60009282845283602052604084205490828210610f275750817fddf252ad1be2c89b69c2b068fc378daa952ba7f163c4a11628f55a4df523b3ef926020928587528684520360408620558060025403600255604051908152a3565b60405163391434e360e21b81526001600160a01b03919091166004820152602481019190915260448101829052606490fd5b15610f6057565b60405162461bcd60e51b8152602060048201526016602482015275139bdd08185d5d1a1bdc9a5e9959081d1bc81b5a5b9d60521b6044820152606490fd5b91908201809211610fab57565b634e487b7160e01b600052601160045260246000fd5b15610fc857565b60405162461bcd60e51b815260206004820152601260248201527145786365656473206d617820737570706c7960701b6044820152606490fd5b1561100957565b60405162461bcd60e51b815260206004820152601b60248201527f43616e6e6f74206d696e7420746f207a65726f206164647265737300000000006044820152606490fd5b6001600160a01b0316908115610dad577fddf252ad1be2c89b69c2b068fc378daa952ba7f163c4a11628f55a4df523b3ef602060009261108c6110b4565b61109881600254610f9e565b60025584845283825260408420818154019055604051908152a3565b60ff60055460a01c166110c357565b60405163d93c066560e01b8152600490fdfea2646970667358221220502eac92e6e3430f78dfe908ef4b53b2d5eaf889685e6fbac8b1b7a64cf9691464736f6c63430008140033a2646970667358221220c17cfa5199cc24d2b925178c23d71cbaab82395fab40f39dc4a221c41f600ce464736f6c63430008140033",
  "linkReferences": {},
  "deployedLinkReferences": {}
}