{
  "_format": "hh-sol-artifact-1",
  "contractName": "HiBeatsProfile",
  "sourceName": "contracts/HiBeatsProfile.sol",
  "abi": [
    {
      "inputs": [],
      "stateMutability": "nonpayable",
      "type": "constructor"
    },
    {
      "inputs": [],
      "name": "EnforcedPause",
      "type": "error"
    },
    {
      "inputs": [],
      "name": "ExpectedPause",
      "type": "error"
    },
    {
      "inputs": [
        {
          "internalType": "address",
          "name": "owner",
          "type": "address"
        }
      ],
      "name": "OwnableInvalidOwner",
      "type": "error"
    },
    {
      "inputs": [
        {
          "internalType": "address",
          "name": "account",
          "type": "address"
        }
      ],
      "name": "OwnableUnauthorizedAccount",
      "type": "error"
    },
    {
      "inputs": [],
      "name": "ReentrancyGuardReentrantCall",
      "type": "error"
    },
    {
      "anonymous": false,
      "inputs": [
        {
          "indexed": true,
          "internalType": "address",
          "name": "previousOwner",
          "type": "address"
        },
        {
          "indexed": true,
          "internalType": "address",
          "name": "newOwner",
          "type": "address"
        }
      ],
      "name": "OwnershipTransferred",
      "type": "event"
    },
    {
      "anonymous": false,
      "inputs": [
        {
          "indexed": false,
          "internalType": "address",
          "name": "account",
          "type": "address"
        }
      ],
      "name": "Paused",
      "type": "event"
    },
    {
      "anonymous": false,
      "inputs": [
        {
          "indexed": true,
          "internalType": "address",
          "name": "user",
          "type": "address"
        },
        {
          "indexed": false,
          "internalType": "string",
          "name": "username",
          "type": "string"
        }
      ],
      "name": "ProfileCreated",
      "type": "event"
    },
    {
      "anonymous": false,
      "inputs": [
        {
          "indexed": true,
          "internalType": "address",
          "name": "user",
          "type": "address"
        }
      ],
      "name": "ProfileUpdated",
      "type": "event"
    },
    {
      "anonymous": false,
      "inputs": [
        {
          "indexed": true,
          "internalType": "address",
          "name": "user",
          "type": "address"
        }
      ],
      "name": "ProfileVerified",
      "type": "event"
    },
    {
      "anonymous": false,
      "inputs": [
        {
          "indexed": false,
          "internalType": "address",
          "name": "account",
          "type": "address"
        }
      ],
      "name": "Unpaused",
      "type": "event"
    },
    {
      "anonymous": false,
      "inputs": [
        {
          "indexed": true,
          "internalType": "address",
          "name": "follower",
          "type": "address"
        },
        {
          "indexed": true,
          "internalType": "address",
          "name": "following",
          "type": "address"
        }
      ],
      "name": "UserFollowed",
      "type": "event"
    },
    {
      "anonymous": false,
      "inputs": [
        {
          "indexed": true,
          "internalType": "address",
          "name": "follower",
          "type": "address"
        },
        {
          "indexed": true,
          "internalType": "address",
          "name": "following",
          "type": "address"
        }
      ],
      "name": "UserUnfollowed",
      "type": "event"
    },
    {
      "anonymous": false,
      "inputs": [
        {
          "indexed": true,
          "internalType": "address",
          "name": "user",
          "type": "address"
        },
        {
          "indexed": false,
          "internalType": "string",
          "name": "oldUsername",
          "type": "string"
        },
        {
          "indexed": false,
          "internalType": "string",
          "name": "newUsername",
          "type": "string"
        }
      ],
      "name": "UsernameChanged",
      "type": "event"
    },
    {
      "inputs": [],
      "name": "MAX_BIO_LENGTH",
      "outputs": [
        {
          "internalType": "uint256",
          "name": "",
          "type": "uint256"
        }
      ],
      "stateMutability": "view",
      "type": "function"
    },
    {
      "inputs": [],
      "name": "MAX_SOCIAL_LINKS",
      "outputs": [
        {
          "internalType": "uint256",
          "name": "",
          "type": "uint256"
        }
      ],
      "stateMutability": "view",
      "type": "function"
    },
    {
      "inputs": [],
      "name": "MAX_USERNAME_LENGTH",
      "outputs": [
        {
          "internalType": "uint256",
          "name": "",
          "type": "uint256"
        }
      ],
      "stateMutability": "view",
      "type": "function"
    },
    {
      "inputs": [],
      "name": "MIN_USERNAME_LENGTH",
      "outputs": [
        {
          "internalType": "uint256",
          "name": "",
          "type": "uint256"
        }
      ],
      "stateMutability": "view",
      "type": "function"
    },
    {
      "inputs": [
        {
          "internalType": "string",
          "name": "_newUsername",
          "type": "string"
        }
      ],
      "name": "changeUsername",
      "outputs": [],
      "stateMutability": "nonpayable",
      "type": "function"
    },
    {
      "inputs": [
        {
          "internalType": "string",
          "name": "_username",
          "type": "string"
        },
        {
          "internalType": "string",
          "name": "_displayName",
          "type": "string"
        },
        {
          "internalType": "string",
          "name": "_bio",
          "type": "string"
        },
        {
          "internalType": "string",
          "name": "_avatar",
          "type": "string"
        }
      ],
      "name": "createProfile",
      "outputs": [],
      "stateMutability": "nonpayable",
      "type": "function"
    },
    {
      "inputs": [
        {
          "internalType": "address",
          "name": "_user",
          "type": "address"
        }
      ],
      "name": "followUser",
      "outputs": [],
      "stateMutability": "nonpayable",
      "type": "function"
    },
    {
      "inputs": [
        {
          "internalType": "address",
          "name": "_user",
          "type": "address"
        }
      ],
      "name": "getCreatorLevel",
      "outputs": [
        {
          "internalType": "enum HiBeatsProfile.CreatorLevel",
          "name": "",
          "type": "uint8"
        }
      ],
      "stateMutability": "view",
      "type": "function"
    },
    {
      "inputs": [
        {
          "internalType": "address",
          "name": "_user",
          "type": "address"
        }
      ],
      "name": "getFollowStats",
      "outputs": [
        {
          "internalType": "uint256",
          "name": "followers",
          "type": "uint256"
        },
        {
          "internalType": "uint256",
          "name": "following",
          "type": "uint256"
        }
      ],
      "stateMutability": "view",
      "type": "function"
    },
    {
      "inputs": [
        {
          "internalType": "address",
          "name": "_user",
          "type": "address"
        },
        {
          "internalType": "address",
          "name": "_follower",
          "type": "address"
        }
      ],
      "name": "getFollowTimestamp",
      "outputs": [
        {
          "internalType": "uint256",
          "name": "",
          "type": "uint256"
        }
      ],
      "stateMutability": "view",
      "type": "function"
    },
    {
      "inputs": [
        {
          "internalType": "string",
          "name": "_username",
          "type": "string"
        }
      ],
      "name": "getProfileByUsername",
      "outputs": [
        {
          "components": [
            {
              "internalType": "string",
              "name": "username",
              "type": "string"
            },
            {
              "internalType": "string",
              "name": "displayName",
              "type": "string"
            },
            {
              "internalType": "string",
              "name": "bio",
              "type": "string"
            },
            {
              "internalType": "string",
              "name": "avatar",
              "type": "string"
            },
            {
              "internalType": "string",
              "name": "coverImage",
              "type": "string"
            },
            {
              "internalType": "string",
              "name": "website",
              "type": "string"
            },
            {
              "internalType": "string[]",
              "name": "socialLinks",
              "type": "string[]"
            },
            {
              "internalType": "bool",
              "name": "isVerified",
              "type": "bool"
            },
            {
              "internalType": "bool",
              "name": "isActive",
              "type": "bool"
            },
            {
              "internalType": "uint256",
              "name": "createdAt",
              "type": "uint256"
            },
            {
              "internalType": "uint256",
              "name": "followerCount",
              "type": "uint256"
            },
            {
              "internalType": "uint256",
              "name": "followingCount",
              "type": "uint256"
            },
            {
              "internalType": "uint256",
              "name": "trackCount",
              "type": "uint256"
            },
            {
              "internalType": "uint256",
              "name": "totalPlays",
              "type": "uint256"
            },
            {
              "internalType": "uint256",
              "name": "totalEarnings",
              "type": "uint256"
            }
          ],
          "internalType": "struct HiBeatsProfile.Profile",
          "name": "",
          "type": "tuple"
        }
      ],
      "stateMutability": "view",
      "type": "function"
    },
    {
      "inputs": [
        {
          "internalType": "address",
          "name": "",
          "type": "address"
        }
      ],
      "name": "hasProfile",
      "outputs": [
        {
          "internalType": "bool",
          "name": "",
          "type": "bool"
        }
      ],
      "stateMutability": "view",
      "type": "function"
    },
    {
      "inputs": [
        {
          "internalType": "address",
          "name": "_user",
          "type": "address"
        },
        {
          "internalType": "address",
          "name": "_follower",
          "type": "address"
        }
      ],
      "name": "isFollower",
      "outputs": [
        {
          "internalType": "bool",
          "name": "",
          "type": "bool"
        }
      ],
      "stateMutability": "view",
      "type": "function"
    },
    {
      "inputs": [
        {
          "internalType": "address",
          "name": "_follower",
          "type": "address"
        },
        {
          "internalType": "address",
          "name": "_following",
          "type": "address"
        }
      ],
      "name": "isFollowing",
      "outputs": [
        {
          "internalType": "bool",
          "name": "",
          "type": "bool"
        }
      ],
      "stateMutability": "view",
      "type": "function"
    },
    {
      "inputs": [],
      "name": "owner",
      "outputs": [
        {
          "internalType": "address",
          "name": "",
          "type": "address"
        }
      ],
      "stateMutability": "view",
      "type": "function"
    },
    {
      "inputs": [],
      "name": "pause",
      "outputs": [],
      "stateMutability": "nonpayable",
      "type": "function"
    },
    {
      "inputs": [],
      "name": "paused",
      "outputs": [
        {
          "internalType": "bool",
          "name": "",
          "type": "bool"
        }
      ],
      "stateMutability": "view",
      "type": "function"
    },
    {
      "inputs": [
        {
          "internalType": "address",
          "name": "",
          "type": "address"
        }
      ],
      "name": "profiles",
      "outputs": [
        {
          "internalType": "string",
          "name": "username",
          "type": "string"
        },
        {
          "internalType": "string",
          "name": "displayName",
          "type": "string"
        },
        {
          "internalType": "string",
          "name": "bio",
          "type": "string"
        },
        {
          "internalType": "string",
          "name": "avatar",
          "type": "string"
        },
        {
          "internalType": "string",
          "name": "coverImage",
          "type": "string"
        },
        {
          "internalType": "string",
          "name": "website",
          "type": "string"
        },
        {
          "internalType": "bool",
          "name": "isVerified",
          "type": "bool"
        },
        {
          "internalType": "bool",
          "name": "isActive",
          "type": "bool"
        },
        {
          "internalType": "uint256",
          "name": "createdAt",
          "type": "uint256"
        },
        {
          "internalType": "uint256",
          "name": "followerCount",
          "type": "uint256"
        },
        {
          "internalType": "uint256",
          "name": "followingCount",
          "type": "uint256"
        },
        {
          "internalType": "uint256",
          "name": "trackCount",
          "type": "uint256"
        },
        {
          "internalType": "uint256",
          "name": "totalPlays",
          "type": "uint256"
        },
        {
          "internalType": "uint256",
          "name": "totalEarnings",
          "type": "uint256"
        }
      ],
      "stateMutability": "view",
      "type": "function"
    },
    {
      "inputs": [
        {
          "internalType": "address",
          "name": "_user",
          "type": "address"
        }
      ],
      "name": "removeVerification",
      "outputs": [],
      "stateMutability": "nonpayable",
      "type": "function"
    },
    {
      "inputs": [],
      "name": "renounceOwnership",
      "outputs": [],
      "stateMutability": "nonpayable",
      "type": "function"
    },
    {
      "inputs": [
        {
          "internalType": "address",
          "name": "newOwner",
          "type": "address"
        }
      ],
      "name": "transferOwnership",
      "outputs": [],
      "stateMutability": "nonpayable",
      "type": "function"
    },
    {
      "inputs": [
        {
          "internalType": "address",
          "name": "_user",
          "type": "address"
        }
      ],
      "name": "unfollowUser",
      "outputs": [],
      "stateMutability": "nonpayable",
      "type": "function"
    },
    {
      "inputs": [],
      "name": "unpause",
      "outputs": [],
      "stateMutability": "nonpayable",
      "type": "function"
    },
    {
      "inputs": [
        {
          "internalType": "string",
          "name": "_displayName",
          "type": "string"
        },
        {
          "internalType": "string",
          "name": "_bio",
          "type": "string"
        },
        {
          "internalType": "string",
          "name": "_avatar",
          "type": "string"
        },
        {
          "internalType": "string",
          "name": "_coverImage",
          "type": "string"
        },
        {
          "internalType": "string",
          "name": "_website",
          "type": "string"
        }
      ],
      "name": "updateProfile",
      "outputs": [],
      "stateMutability": "nonpayable",
      "type": "function"
    },
    {
      "inputs": [
        {
          "internalType": "string[]",
          "name": "_socialLinks",
          "type": "string[]"
        }
      ],
      "name": "updateSocialLinks",
      "outputs": [],
      "stateMutability": "nonpayable",
      "type": "function"
    },
    {
      "inputs": [
        {
          "internalType": "address",
          "name": "_user",
          "type": "address"
        },
        {
          "internalType": "uint256",
          "name": "_trackCount",
          "type": "uint256"
        },
        {
          "internalType": "uint256",
          "name": "_totalPlays",
          "type": "uint256"
        },
        {
          "internalType": "uint256",
          "name": "_totalEarnings",
          "type": "uint256"
        }
      ],
      "name": "updateStats",
      "outputs": [],
      "stateMutability": "nonpayable",
      "type": "function"
    },
    {
      "inputs": [
        {
          "internalType": "string",
          "name": "",
          "type": "string"
        }
      ],
      "name": "usernameToAddress",
      "outputs": [
        {
          "internalType": "address",
          "name": "",
          "type": "address"
        }
      ],
      "stateMutability": "view",
      "type": "function"
    },
    {
      "inputs": [
        {
          "internalType": "address",
          "name": "_user",
          "type": "address"
        }
      ],
      "name": "verifyCreator",
      "outputs": [],
      "stateMutability": "nonpayable",
      "type": "function"
    }
  ],
  "bytecode": "0x6080806040523461009357331561007d5760008054610100600160a81b0319811633600881811b610100600160a81b031692909217845560405193909290911c6001600160a01b0316907f8be0079c531659141344cd1fd0a4f28419497f9722a3daafe3b4186f6b6457e09080a36001805561284490816100998239f35b631e4fbdf760e01b815260006004820152602490fd5b600080fdfe608080604052600436101561001357600080fd5b60003560e01c908163065fec091461211c57508063155b1d98146121005780631cd896c1146120e45780631fe3f2f41461209a5780633f4ba83a1461203057806347ce0242146120145780635513802c14611c6b5780635c975abb14611c48578063715018a614611beb57806377c846af1461197d578063818713fb146116955780638456cb591461163b5780638d5aa0f4146115f85780638da5cb5b146115cb57806398dd1b651461154357806399ec3a42146114ea578063a70806f714611264578063a787c80b14611225578063a8231985146111b6578063b043e03214610cb8578063b0c0647f1461065d578063bbe156271461050f578063c477d7f7146104f2578063e5fe947714610499578063f107cfcb146102bc578063f2fde38b14610220578063f7d139cb146101c05763f825f1431461015357600080fd5b346101bb5760203660031901126101bb576004356001600160401b0381116101bb5761018560209136906004016121d4565b81610199604051928381519384920161222a565b600390820190815281900382019020546040516001600160a01b039091168152f35b600080fd5b346101bb5760203660031901126101bb576101d961216b565b6101e1612369565b6001600160a01b03166000818152600560205260409020546102059060ff16612587565b6000908152600260205260409020600701805460ff19169055005b346101bb5760203660031901126101bb5761023961216b565b610241612369565b6001600160a01b038181169182156102a35760008054610100600160a81b03198116600893841b610100600160a81b031617825590911c91909116907f8be0079c531659141344cd1fd0a4f28419497f9722a3daafe3b4186f6b6457e09080a3005b604051631e4fbdf760e01b815260006004820152602490fd5b346101bb576020806003193601126101bb576102d661216b565b906102df612569565b6102e76125f1565b336000526005815260ff604060002054161561045557336000526004815260036040600020019160018060a01b03169182600052815260ff60406000205416156104215760029033600052600481526003604060002001836000528152604060002060ff19908181541690553360005260048252600160406000200161036d8154612614565b90558360005260048252826040600020013360005282526040600020908154169055826000526004815260406000206103a68154612614565b90558260005260048152600460406000200133600052815260006040812055818152600a6040600020016103da8154612614565b9055826000525260096040600020016103f38154612614565b9055337fe7339343c6edff57f2d15278c419523844cea30ae5ee2146aa22cb9e3107dab7600080a360018055005b6064906040519062461bcd60e51b82526004820152600d60248201526c4e6f7420666f6c6c6f77696e6760981b6044820152fd5b6064906040519062461bcd60e51b82526004820152601e60248201527f596f75206e65656420612070726f66696c6520746f20756e666f6c6c6f7700006044820152fd5b346101bb5760403660031901126101bb576104b261216b565b6104ba612181565b9060018060a01b03809116600052600460205260026040600020019116600052602052602060ff604060002054166040519015158152f35b346101bb5760003660031901126101bb5760206040516101f48152f35b346101bb5760203660031901126101bb576001600160a01b0361053061216b565b1660005260026020526040600020610547816122c3565b610553600183016122c3565b91610560600282016122c3565b61056c600383016122c3565b91610579600482016122c3565b92610586600583016122c3565b936007830154946008840154600985015491600a86015493600b87015495600c88015497600d0154986040519c8d9c8d6101c090818152016105c79161224d565b8d810360208f01526105d89161224d565b8c810360408e01526105e99161224d565b8b810360608d01526105fa9161224d565b8a810360808c015261060b9161224d565b89810360a08b015261061c9161224d565b9660ff8116151560c08a015260081c60ff16151560e08901526101008801526101208701526101408601526101608501526101808401526101a08301520390f35b346101bb5760803660031901126101bb576004356001600160401b0381116101bb5761068d9036906004016121d4565b6024356001600160401b0381116101bb576106ac9036906004016121d4565b6044356001600160401b0381116101bb576106cb9036906004016121d4565b916064356001600160401b0381116101bb576106eb9036906004016121d4565b916106f4612569565b33600052600560205260ff60406000205416610c7a57610718600383511015612398565b6107266014835111156123d9565b6107356101f485511115612419565b61076b604051835161074b81836020880161222a565b60039082019081528190036020019020546001600160a01b031615612454565b61077c61077783612684565b612499565b33600052600260205260406000209082516001600160401b038111610a82576107af816107a98554612289565b85612524565b806020601f8211600114610c1357600091610c08575b508160011b916000199060031b1c19161782555b8051906001600160401b038211610a82578190610806826107fd6001870154612289565b60018701612524565b602090601f8311600114610b9657600092610b8b575b50508160011b916000199060031b1c19161760018201555b83516001600160401b038111610a825761085e816108556002850154612289565b60028501612524565b6020601f8211600114610b1c578192939495600092610b11575b50508160011b916000199060031b1c19161760028201555b82516001600160401b038111610a82576108ba816108b16003850154612289565b60038501612524565b6020601f8211600114610aa35781929394600092610a98575b50508160011b916000199060031b1c19161760038201555b6000600482016109046108fe8254612289565b826124fc565b556000600582016109186108fe8254612289565b5560405160208101908082106001600160401b03831117610a8257600091604052526006810180546000825580610a10575b50600091600d9183526007810161010061ffff1982541617905542600882015582600982015582600a82015582600b82015582600c82015501556040516020818351610999818385880161222a565b81016003815203019020336bffffffffffffffffffffffff60a01b8254161790553360005260056020526040600020600160ff198254161790557fbafddecbd1dec1c1afb76d693f1de16901f521bdf29a02438e3e6806c0b8d9486040516020815280610a0b3394602083019061224d565b0390a2005b816000526020600020908101905b818110610a2b575061094a565b80610a3860019254612289565b80610a45575b5001610a1e565b601f81118314610a5b5750600081555b86610a3e565b600090828252610a79601f60208420920160051c82018583016124e5565b81835555610a55565b634e487b7160e01b600052604160045260246000fd5b0151905084806108d3565b6003830160005260206000209060005b601f1984168110610af95750600193949583601f19811610610ae0575b505050811b0160038201556108eb565b015160001960f88460031b161c19169055848080610ad0565b9091602060018192858a015181550193019101610ab3565b015190508580610878565b6002830160005260206000209060005b601f1984168110610b73575060019394959683601f19811610610b5a575b505050811b016002820155610890565b015160001960f88460031b161c19169055858080610b4a565b9091602060018192858b015181550193019101610b2c565b01519050868061081c565b9250600184016000526020600020906000935b601f1984168510610bed576001945083601f19811610610bd4575b505050811b016001820155610834565b015160001960f88460031b161c19169055868080610bc4565b81810151835560209485019460019093019290910190610ba9565b9050840151876107c5565b91508360005260206000206000925b601f1983168410610c62576001935082601f19811610610c49575b5050811b0182556107d9565b86015160001960f88460031b161c191690558780610c3d565b86810151825560209384019360019092019101610c22565b60405162461bcd60e51b815260206004820152601660248201527550726f66696c6520616c72656164792065786973747360501b6044820152606490fd5b346101bb5760a03660031901126101bb576001600160401b036004358181116101bb57610ce99036906004016121d4565b60249182358181116101bb57610d039036906004016121d4565b6044358281116101bb57610d1b9036906004016121d4565b906064358381116101bb57610d349036906004016121d4565b906084358481116101bb57610d4d9036906004016121d4565b90610d56612569565b3360005260209260058452610d7260ff60406000205416612587565b610d816101f483511115612419565b3360005260028452604060002091600197888401908051908982116111a1578190610db682610db08654612289565b86612524565b8890601f83116001146111355760009261112a575b5050600019600383901b1c1916908a1b1790555b805160028401918882116110a7578190610dfd82610db08654612289565b8790601f83116001146110c7576000926110bc575b5050600019600383901b1c191690891b1790555b600394858301908051908882116110a7578190610e4782610db08654612289565b8790601f83116001146110455760009261103a575b505060001982891b1c191690891b1790555b8051600483019187821161102557610e8a826107a98554612289565b8590601f8311600114610fbe5760059493929160009183610fb3575b505060001982891b1c191690891b1790555b01958151948511610f9f5750610ed884610ed28854612289565b88612524565b81601f8511600114610f365750938394918492600095610f2b575b50501b92600019911b1c19161790555b337fbe4ec58a792f909e102ee3d745d0c3b34a4d437a54d903c4db098d31c556422f600080a2005b015193508680610ef3565b92919084601f1981168860005285600020956000905b89838310610f855750505010610f6b575b50505050811b019055610f03565b01519060f884600019921b161c1916905583808080610f5d565b858701518955909701969485019488935090810190610f4c565b634e487b7160e01b60009081526041600452fd5b015190508b80610ea6565b9392918991601f1982169084600052886000209160005b8a82821061100f575050968360059810610ff7575b505050811b019055610eb8565b0151600019838b1b60f8161c191690558b8080610fea565b838a015185558e96909401939283019201610fd5565b89634e487b7160e01b60005260416004526000fd5b015190508b80610e5c565b908b9350601f1983169185600052896000209260005b8b8282106110915750508411611079575b505050811b019055610e6e565b0151600019838b1b60f8161c191690558b808061106c565b8385015186558f9790950194938401930161105b565b8a634e487b7160e01b60005260416004526000fd5b015190508b80610e12565b908b9350601f1983169185600052896000209260005b8b82821061111457505084116110fb575b505050811b019055610e26565b015160001960f88460031b161c191690558b80806110ee565b8385015186558f979095019493840193016110dd565b015190508c80610dcb565b908c9350601f19831691856000528a6000209260005b8c8282106111825750508411611169575b505050811b019055610ddf565b015160001960f88460031b161c191690558c808061115c565b91929395968291958786015181550195019301908e959493929161114b565b8b634e487b7160e01b60005260416004526000fd5b346101bb5760803660031901126101bb576111cf61216b565b6111d7612369565b6001600160a01b03166000818152600560205260409020546111fb9060ff16612587565b60005260026020526040600020602435600b820155604435600c820155600d606435910155600080f35b346101bb5760203660031901126101bb576001600160a01b0361124661216b565b166000526005602052602060ff604060002054166040519015158152f35b346101bb576020806003193601126101bb5761127e61216b565b611286612569565b61128e6125f1565b336000526005825260ff60406000205416156114a5576001600160a01b0316600081815260058352604090205490919060ff161561146157338214611424573360005260048152600360406000200182600052815260ff604060002054166113ec5760029033600052600481526003604060002001836000528152604060002060ff19906001828254161790553360005260048252600160406000200161133581546125cc565b905583600052600482528260406000200133600052825260016040600020918254161790558260005260048152604060002061137181546125cc565b90558260005260048152600460406000200133600052815242604060002055818152600a6040600020016113a581546125cc565b9055826000525260096040600020016113be81546125cc565b9055337f30b3435b456f45779984ddfa456115ee4c20d9e446979b1b9e90dbb7e12b90b7600080a360018055005b6064906040519062461bcd60e51b825260048201526011602482015270416c726561647920666f6c6c6f77696e6760781b6044820152fd5b6064906040519062461bcd60e51b82526004820152601660248201527521b0b73737ba103337b63637bb903cb7bab939b2b63360511b6044820152fd5b6064906040519062461bcd60e51b82526004820152601a60248201527f546172676574207573657220686173206e6f2070726f66696c650000000000006044820152fd5b60405162461bcd60e51b815260048101839052601c60248201527f596f75206e65656420612070726f66696c6520746f20666f6c6c6f77000000006044820152606490fd5b346101bb5760403660031901126101bb5761150361216b565b61150b612181565b9060018060a01b03809116600052600460205260036040600020019116600052602052602060ff604060002054166040519015158152f35b346101bb5760203660031901126101bb5761155c61216b565b611564612369565b6001600160a01b03166000818152600560205260409020546115889060ff16612587565b8060005260026020526007604060002001600160ff198254161790557ff5b72f6f3bcef5d31717c3965dcb7239629b10b6ad3bd9b99ec3ca4dced745e4600080a2005b346101bb5760003660031901126101bb5760005460405160089190911c6001600160a01b03168152602090f35b346101bb5760203660031901126101bb576001600160a01b0361161961216b565b1660005260046020526040806000206001815491015482519182526020820152f35b346101bb5760003660031901126101bb57611654612369565b61165c612569565b600160ff1960005416176000557f62e78cea01bee320cd4e420270b5ea74000d11b0c9f74754ebdbfc544b05a2586020604051338152a1005b346101bb576020806003193601126101bb57600435906001600160401b03908183116101bb57366023840112156101bb578260040135916116d583612272565b906116e360405192836121b3565b83825282820194859060249687600597881b830101913683116101bb57888101915b8383106119575750505050611718612569565b3360005284845261173060ff60406000205416612587565b8483511161191b573360005260028452600660406000200192519468010000000000000000861161190657835490868555818710611894575b5050949160005282600020916000955b8587106117a857337fbe4ec58a792f909e102ee3d745d0c3b34a4d437a54d903c4db098d31c556422f600080a2005b805180519084821161187f579086916117cb826117c58954612289565b89612524565b8290601f831160011461181457918060019592869594600092611809575b5050600019600383901b1c191690841b1787555b01940196019592611779565b015190508c806117e9565b90601f1983169188600052846000209260005b818110611867575091600196939185889796941061184e575b505050831b830187556117fd565b015160001960f88460031b161c191690558b8080611840565b8284015185558b966001909501949384019301611827565b83634e487b7160e01b60005260416004526000fd5b84600052868660002092830192015b8281106118b05750611769565b806118bd60019254612289565b806118ca575b50016118a3565b601f9081811184146118e3575050600081555b8a6118c3565b6118fd6000928484528b84209201861c82018583016124e5565b818355556118dd565b86634e487b7160e01b60005260416004526000fd5b60405162461bcd60e51b81526004810185905260158188015274546f6f206d616e7920736f6369616c206c696e6b7360581b6044820152606490fd5b82358681116101bb57889161197283928d36918701016121d4565b815201920191611705565b346101bb576020806003193601126101bb576001600160401b036004358181116101bb576119af9036906004016121d4565b916119b8612569565b33600052600581526119d160ff60406000205416612587565b6003916119e18385511015612398565b6119ef6014855111156123d9565b604051611a2385519184870192611a0781838661222a565b810186815281900385019020546001600160a01b031615612454565b611a2f61077786612684565b3360005260028352611a4460406000206122c3565b9360405184818751611a598183858c0161222a565b810184815203019020926bffffffffffffffffffffffff60a01b9384815416905533600052600285526040600020908751908111610a8257611aa581611a9f8454612289565b84612524565b85601f8211600114611b515795610a0b9481947f10022a11494e4dcaccdda542dc8a420f8a1c3397f37d5bd035a805e79e1a32ee99979484611b1195611b379b600091611b46575b508160011b9160001990851b1c19161790555b604051809481938d5192839161222a565b82019081520301902090339082541617905560405193849360408552604085019061224d565b9083820390840152339561224d565b90508d01518e611aed565b601f198216908360005289886000209260005b818110611bd25750946001858b989395610a0b9a95611b379d977f10022a11494e4dcaccdda542dc8a420f8a1c3397f37d5bd035a805e79e1a32ee9f9d9a99611b119a10611bba575b505050811b019055611b00565b015160001983871b60f8161c191690558e808f611bad565b918301518455600190930192918901918b918a01611b64565b346101bb5760003660031901126101bb57611c04612369565b60008054610100600160a81b03198116825560081c6001600160a01b03167f8be0079c531659141344cd1fd0a4f28419497f9722a3daafe3b4186f6b6457e08280a3005b346101bb5760003660031901126101bb57602060ff600054166040519015158152f35b346101bb5760203660031901126101bb576004356001600160401b0381116101bb57611c9b9036906004016121d4565b60006101c0604051611cac81612197565b60608152606060208201526060604082015260608082015260606080820152606060a0820152606060c08201528260e08201528261010082015282610120820152826101408201528261016082015282610180820152826101a082015201526020611d20604051928381519384920161222a565b60039082019081528190036020019020546001600160a01b03168015611fda576000526002602052604060002060405190611d5a82612197565b611d63816122c3565b8252611d71600182016122c3565b6020830152611d82600282016122c3565b6040830152611d93600382016122c3565b6060830152611da4600482016122c3565b6080830152611db5600582016122c3565b60a0830152600681018054611dc981612272565b91611dd760405193846121b3565b818352602083019060005260206000206000915b838310611fbd5786600d878760c084015260ff6007820154818116151560e086015260081c16151561010084015260088101546101208401526009810154610140840152600a810154610160840152600b810154610180840152600c8101546101a084015201546101c082015260405160208152611ef4611ede611ec8611eb2611e9c611e8687516101e0602089015261020088019061224d565b6020880151878203601f1901604089015261224d565b6040870151868203601f1901606088015261224d565b6060860151858203601f1901608087015261224d565b6080850151848203601f190160a086015261224d565b60a0840151838203601f190160c085015261224d565b60c083015190601f198382030160e0840152815180825260208201916020808360051b8301019401926000915b838310611f90578680876101c08b60e0810151151561010085015261010081015115156101208501526101208101516101408501526101408101516101608501526101608101516101808501526101808101516101a08501526101a08101518285015201516101e08301520390f35b9091929394602080611fae600193601f19868203018752895161224d565b97019301930191939290611f21565b600160208192611fcc856122c3565b815201920192019190611deb565b60405162461bcd60e51b8152602060048201526012602482015271155cd95c9b985b59481b9bdd08199bdd5b9960721b6044820152606490fd5b346101bb5760003660031901126101bb57602060405160058152f35b346101bb5760003660031901126101bb57612049612369565b60005460ff8116156120885760ff19166000557f5db9ee0a495bf2e6ff9c91a7834c1ba4fdd244a5e8aa4e537bd38aeae4b073aa6020604051338152a1005b604051638dfc202b60e01b8152600490fd5b346101bb5760203660031901126101bb576120bb6120b661216b565b612621565b60405160048210156120ce576020918152f35b634e487b7160e01b600052602160045260246000fd5b346101bb5760003660031901126101bb57602060405160148152f35b346101bb5760003660031901126101bb57602060405160038152f35b346101bb5760403660031901126101bb5760209061213861216b565b612140612181565b9060018060a01b03809116600052600484526004604060002001911660005282526040600020548152f35b600435906001600160a01b03821682036101bb57565b602435906001600160a01b03821682036101bb57565b6101e081019081106001600160401b03821117610a8257604052565b90601f801991011681019081106001600160401b03821117610a8257604052565b81601f820112156101bb578035906001600160401b038211610a825760405192612208601f8401601f1916602001856121b3565b828452602083830101116101bb57816000926020809301838601378301015290565b60005b83811061223d5750506000910152565b818101518382015260200161222d565b906020916122668151809281855285808601910161222a565b601f01601f1916010190565b6001600160401b038111610a825760051b60200190565b90600182811c921680156122b9575b60208310146122a357565b634e487b7160e01b600052602260045260246000fd5b91607f1691612298565b90604051918260008254926122d784612289565b9081845260019485811690816000146123465750600114612303575b5050612301925003836121b3565b565b9093915060005260209081600020936000915b81831061232e575050612301935082010138806122f3565b85548884018501529485019487945091830191612316565b91505061230194506020925060ff191682840152151560051b82010138806122f3565b60005460081c6001600160a01b0316330361238057565b60405163118cdaa760e01b8152336004820152602490fd5b1561239f57565b60405162461bcd60e51b8152602060048201526012602482015271155cd95c9b985b59481d1bdbc81cda1bdc9d60721b6044820152606490fd5b156123e057565b60405162461bcd60e51b8152602060048201526011602482015270557365726e616d6520746f6f206c6f6e6760781b6044820152606490fd5b1561242057565b60405162461bcd60e51b815260206004820152600c60248201526b42696f20746f6f206c6f6e6760a01b6044820152606490fd5b1561245b57565b60405162461bcd60e51b81526020600482015260166024820152752ab9b2b93730b6b29030b63932b0b23c903a30b5b2b760511b6044820152606490fd5b156124a057565b60405162461bcd60e51b815260206004820152601760248201527f496e76616c696420757365726e616d6520666f726d61740000000000000000006044820152606490fd5b8181106124f0575050565b600081556001016124e5565b90601f8111612509575050565b61230191600052601f6020600020910160051c8101906124e5565b9190601f811161253357505050565b612301926000526020600020906020601f840160051c8301931061255f575b601f0160051c01906124e5565b9091508190612552565b60ff6000541661257557565b60405163d93c066560e01b8152600490fd5b1561258e57565b60405162461bcd60e51b8152602060048201526016602482015275141c9bd99a5b1948191bd95cc81b9bdd08195e1a5cdd60521b6044820152606490fd5b60001981146125db5760010190565b634e487b7160e01b600052601160045260246000fd5b600260015414612602576002600155565b604051633ee5aeb560e01b8152600490fd5b80156125db576000190190565b6001600160a01b031660009081526005602052604090205460ff161561267f576002602052600b60406000200154606481101561267957603381101561267357600b111561266e57600090565b600190565b50600290565b50600390565b600090565b8051156127a45760208181018051604160f81b916001600160f81b0319918216831115806127f5575b1590816127ba575b8161278b575b5061278257600092835b8551811015612777578581018201518316600360fc1b81101580612769575b159081612748575b81612723575b81612714575b5061270b57612706906125cc565b6126c5565b50505050905090565b605f60f81b14159050386126f8565b9050606160f81b8110158061273a575b15906126f2565b50603d60f91b811115612733565b9050848110158061275b575b15906126ec565b50602d60f91b811115612754565b50603960f81b8111156126e4565b505050505050600190565b50505050600090565b90508451156127a457518116605f60f81b1415386126bb565b634e487b7160e01b600052603260045260246000fd5b90508451156127a4578051606160f81b9083161015806127dc575b15906126b5565b508451156127a4578051603d60f91b90831611156127d5565b508451156127a4578051602d60f91b90831611156126ad56fea2646970667358221220d4258ff6080fe7067f2b8431b6b84b63ada2cb1a17d1c077bebc8e3c5cc03fed64736f6c63430008140033",
  "linkReferences": {},
  "deployedLinkReferences": {}
}