{
  "_format": "hh-sol-artifact-1",
  "contractName": "HiBeatsRoyalties",
  "sourceName": "contracts/HiBeatsRoyalties.sol",
  "abi": [
    {
      "inputs": [
        {
          "internalType": "address",
          "name": "_beatsToken",
          "type": "address"
        },
        {
          "internalType": "address",
          "name": "_hiBeatsNFT",
          "type": "address"
        },
        {
          "internalType": "address",
          "name": "_platformTreasury",
          "type": "address"
        },
        {
          "internalType": "address",
          "name": "_stakingPool",
          "type": "address"
        }
      ],
      "stateMutability": "nonpayable",
      "type": "constructor"
    },
    {
      "inputs": [],
      "name": "EnforcedPause",
      "type": "error"
    },
    {
      "inputs": [],
      "name": "ExpectedPause",
      "type": "error"
    },
    {
      "inputs": [
        {
          "internalType": "address",
          "name": "owner",
          "type": "address"
        }
      ],
      "name": "OwnableInvalidOwner",
      "type": "error"
    },
    {
      "inputs": [
        {
          "internalType": "address",
          "name": "account",
          "type": "address"
        }
      ],
      "name": "OwnableUnauthorizedAccount",
      "type": "error"
    },
    {
      "inputs": [],
      "name": "ReentrancyGuardReentrantCall",
      "type": "error"
    },
    {
      "inputs": [
        {
          "internalType": "address",
          "name": "token",
          "type": "address"
        }
      ],
      "name": "SafeERC20FailedOperation",
      "type": "error"
    },
    {
      "anonymous": false,
      "inputs": [
        {
          "indexed": true,
          "internalType": "address",
          "name": "previousOwner",
          "type": "address"
        },
        {
          "indexed": true,
          "internalType": "address",
          "name": "newOwner",
          "type": "address"
        }
      ],
      "name": "OwnershipTransferred",
      "type": "event"
    },
    {
      "anonymous": false,
      "inputs": [
        {
          "indexed": false,
          "internalType": "address",
          "name": "account",
          "type": "address"
        }
      ],
      "name": "Paused",
      "type": "event"
    },
    {
      "anonymous": false,
      "inputs": [
        {
          "indexed": true,
          "internalType": "address",
          "name": "user",
          "type": "address"
        },
        {
          "indexed": false,
          "internalType": "uint256",
          "name": "expiryTime",
          "type": "uint256"
        }
      ],
      "name": "PremiumUserAdded",
      "type": "event"
    },
    {
      "anonymous": false,
      "inputs": [
        {
          "indexed": true,
          "internalType": "uint256",
          "name": "originalTokenId",
          "type": "uint256"
        },
        {
          "indexed": true,
          "internalType": "uint256",
          "name": "remixTokenId",
          "type": "uint256"
        },
        {
          "indexed": false,
          "internalType": "uint256",
          "name": "amount",
          "type": "uint256"
        }
      ],
      "name": "RemixRoyalty",
      "type": "event"
    },
    {
      "anonymous": false,
      "inputs": [
        {
          "indexed": false,
          "internalType": "uint256",
          "name": "amount",
          "type": "uint256"
        },
        {
          "indexed": false,
          "internalType": "enum HiBeatsRoyalties.RevenueSource",
          "name": "source",
          "type": "uint8"
        },
        {
          "indexed": false,
          "internalType": "address",
          "name": "contributor",
          "type": "address"
        }
      ],
      "name": "RevenueAdded",
      "type": "event"
    },
    {
      "anonymous": false,
      "inputs": [
        {
          "indexed": true,
          "internalType": "address",
          "name": "creator",
          "type": "address"
        },
        {
          "indexed": false,
          "internalType": "uint256",
          "name": "amount",
          "type": "uint256"
        },
        {
          "indexed": false,
          "internalType": "enum HiBeatsRoyalties.RevenueSource",
          "name": "source",
          "type": "uint8"
        }
      ],
      "name": "RoyaltyDistributed",
      "type": "event"
    },
    {
      "anonymous": false,
      "inputs": [
        {
          "indexed": false,
          "internalType": "uint256",
          "name": "creatorRate",
          "type": "uint256"
        },
        {
          "indexed": false,
          "internalType": "uint256",
          "name": "platformRate",
          "type": "uint256"
        },
        {
          "indexed": false,
          "internalType": "uint256",
          "name": "stakingRate",
          "type": "uint256"
        }
      ],
      "name": "RoyaltyRateUpdated",
      "type": "event"
    },
    {
      "anonymous": false,
      "inputs": [
        {
          "indexed": true,
          "internalType": "uint256",
          "name": "tokenId",
          "type": "uint256"
        },
        {
          "indexed": true,
          "internalType": "address",
          "name": "listener",
          "type": "address"
        },
        {
          "indexed": false,
          "internalType": "uint256",
          "name": "minutesListened",
          "type": "uint256"
        },
        {
          "indexed": false,
          "internalType": "uint256",
          "name": "royalty",
          "type": "uint256"
        }
      ],
      "name": "StreamingRoyalty",
      "type": "event"
    },
    {
      "anonymous": false,
      "inputs": [
        {
          "indexed": false,
          "internalType": "address",
          "name": "account",
          "type": "address"
        }
      ],
      "name": "Unpaused",
      "type": "event"
    },
    {
      "inputs": [
        {
          "internalType": "address",
          "name": "user",
          "type": "address"
        },
        {
          "internalType": "uint256",
          "name": "duration",
          "type": "uint256"
        }
      ],
      "name": "addPremiumUser",
      "outputs": [],
      "stateMutability": "nonpayable",
      "type": "function"
    },
    {
      "inputs": [
        {
          "internalType": "uint256",
          "name": "amount",
          "type": "uint256"
        },
        {
          "internalType": "enum HiBeatsRoyalties.RevenueSource",
          "name": "source",
          "type": "uint8"
        },
        {
          "internalType": "uint256",
          "name": "tokenId",
          "type": "uint256"
        }
      ],
      "name": "addRevenue",
      "outputs": [],
      "stateMutability": "nonpayable",
      "type": "function"
    },
    {
      "inputs": [],
      "name": "beatsToken",
      "outputs": [
        {
          "internalType": "contract IHiBeatsToken",
          "name": "",
          "type": "address"
        }
      ],
      "stateMutability": "view",
      "type": "function"
    },
    {
      "inputs": [],
      "name": "claimAllRoyalties",
      "outputs": [],
      "stateMutability": "nonpayable",
      "type": "function"
    },
    {
      "inputs": [
        {
          "internalType": "enum HiBeatsRoyalties.RevenueSource",
          "name": "source",
          "type": "uint8"
        }
      ],
      "name": "claimRoyalties",
      "outputs": [],
      "stateMutability": "nonpayable",
      "type": "function"
    },
    {
      "inputs": [],
      "name": "creatorRoyaltyRate",
      "outputs": [
        {
          "internalType": "uint256",
          "name": "",
          "type": "uint256"
        }
      ],
      "stateMutability": "view",
      "type": "function"
    },
    {
      "inputs": [],
      "name": "emergencyWithdraw",
      "outputs": [],
      "stateMutability": "nonpayable",
      "type": "function"
    },
    {
      "inputs": [
        {
          "internalType": "address",
          "name": "user",
          "type": "address"
        },
        {
          "internalType": "enum HiBeatsRoyalties.RevenueSource",
          "name": "source",
          "type": "uint8"
        }
      ],
      "name": "getPendingRoyalties",
      "outputs": [
        {
          "internalType": "uint256",
          "name": "",
          "type": "uint256"
        }
      ],
      "stateMutability": "view",
      "type": "function"
    },
    {
      "inputs": [],
      "name": "getRevenueHistoryLength",
      "outputs": [
        {
          "internalType": "uint256",
          "name": "",
          "type": "uint256"
        }
      ],
      "stateMutability": "view",
      "type": "function"
    },
    {
      "inputs": [
        {
          "internalType": "address",
          "name": "user",
          "type": "address"
        }
      ],
      "name": "getTotalPendingRoyalties",
      "outputs": [
        {
          "internalType": "uint256",
          "name": "",
          "type": "uint256"
        }
      ],
      "stateMutability": "view",
      "type": "function"
    },
    {
      "inputs": [
        {
          "internalType": "address",
          "name": "user",
          "type": "address"
        }
      ],
      "name": "hasActivePremium",
      "outputs": [
        {
          "internalType": "bool",
          "name": "",
          "type": "bool"
        }
      ],
      "stateMutability": "view",
      "type": "function"
    },
    {
      "inputs": [],
      "name": "hiBeatsNFT",
      "outputs": [
        {
          "internalType": "contract IHiBeatsNFT",
          "name": "",
          "type": "address"
        }
      ],
      "stateMutability": "view",
      "type": "function"
    },
    {
      "inputs": [],
      "name": "owner",
      "outputs": [
        {
          "internalType": "address",
          "name": "",
          "type": "address"
        }
      ],
      "stateMutability": "view",
      "type": "function"
    },
    {
      "inputs": [],
      "name": "pause",
      "outputs": [],
      "stateMutability": "nonpayable",
      "type": "function"
    },
    {
      "inputs": [],
      "name": "paused",
      "outputs": [
        {
          "internalType": "bool",
          "name": "",
          "type": "bool"
        }
      ],
      "stateMutability": "view",
      "type": "function"
    },
    {
      "inputs": [],
      "name": "platformRate",
      "outputs": [
        {
          "internalType": "uint256",
          "name": "",
          "type": "uint256"
        }
      ],
      "stateMutability": "view",
      "type": "function"
    },
    {
      "inputs": [],
      "name": "platformTreasury",
      "outputs": [
        {
          "internalType": "address",
          "name": "",
          "type": "address"
        }
      ],
      "stateMutability": "view",
      "type": "function"
    },
    {
      "inputs": [
        {
          "internalType": "address",
          "name": "",
          "type": "address"
        }
      ],
      "name": "premiumExpiry",
      "outputs": [
        {
          "internalType": "uint256",
          "name": "",
          "type": "uint256"
        }
      ],
      "stateMutability": "view",
      "type": "function"
    },
    {
      "inputs": [],
      "name": "premiumMultiplier",
      "outputs": [
        {
          "internalType": "uint256",
          "name": "",
          "type": "uint256"
        }
      ],
      "stateMutability": "view",
      "type": "function"
    },
    {
      "inputs": [
        {
          "internalType": "address",
          "name": "",
          "type": "address"
        }
      ],
      "name": "premiumUsers",
      "outputs": [
        {
          "internalType": "bool",
          "name": "",
          "type": "bool"
        }
      ],
      "stateMutability": "view",
      "type": "function"
    },
    {
      "inputs": [
        {
          "internalType": "uint256",
          "name": "originalTokenId",
          "type": "uint256"
        },
        {
          "internalType": "uint256",
          "name": "remixTokenId",
          "type": "uint256"
        },
        {
          "internalType": "uint256",
          "name": "amount",
          "type": "uint256"
        }
      ],
      "name": "recordRemixRoyalty",
      "outputs": [],
      "stateMutability": "nonpayable",
      "type": "function"
    },
    {
      "inputs": [
        {
          "internalType": "uint256",
          "name": "tokenId",
          "type": "uint256"
        },
        {
          "internalType": "address",
          "name": "listener",
          "type": "address"
        },
        {
          "internalType": "uint256",
          "name": "minutesListened",
          "type": "uint256"
        }
      ],
      "name": "recordStreaming",
      "outputs": [],
      "stateMutability": "nonpayable",
      "type": "function"
    },
    {
      "inputs": [],
      "name": "renounceOwnership",
      "outputs": [],
      "stateMutability": "nonpayable",
      "type": "function"
    },
    {
      "inputs": [
        {
          "internalType": "uint256",
          "name": "",
          "type": "uint256"
        }
      ],
      "name": "revenueHistory",
      "outputs": [
        {
          "internalType": "uint256",
          "name": "amount",
          "type": "uint256"
        },
        {
          "internalType": "enum HiBeatsRoyalties.RevenueSource",
          "name": "source",
          "type": "uint8"
        },
        {
          "internalType": "uint256",
          "name": "timestamp",
          "type": "uint256"
        },
        {
          "internalType": "address",
          "name": "contributor",
          "type": "address"
        }
      ],
      "stateMutability": "view",
      "type": "function"
    },
    {
      "inputs": [
        {
          "internalType": "enum HiBeatsRoyalties.RevenueSource",
          "name": "",
          "type": "uint8"
        }
      ],
      "name": "royaltyPools",
      "outputs": [
        {
          "internalType": "uint256",
          "name": "totalCollected",
          "type": "uint256"
        },
        {
          "internalType": "uint256",
          "name": "totalDistributed",
          "type": "uint256"
        }
      ],
      "stateMutability": "view",
      "type": "function"
    },
    {
      "inputs": [
        {
          "internalType": "address",
          "name": "_treasury",
          "type": "address"
        },
        {
          "internalType": "address",
          "name": "_stakingPool",
          "type": "address"
        }
      ],
      "name": "setPlatformAddresses",
      "outputs": [],
      "stateMutability": "nonpayable",
      "type": "function"
    },
    {
      "inputs": [
        {
          "internalType": "uint256",
          "name": "newMultiplier",
          "type": "uint256"
        }
      ],
      "name": "setPremiumMultiplier",
      "outputs": [],
      "stateMutability": "nonpayable",
      "type": "function"
    },
    {
      "inputs": [
        {
          "internalType": "uint256",
          "name": "_creatorRate",
          "type": "uint256"
        },
        {
          "internalType": "uint256",
          "name": "_platformRate",
          "type": "uint256"
        },
        {
          "internalType": "uint256",
          "name": "_stakingRate",
          "type": "uint256"
        }
      ],
      "name": "setRoyaltyRates",
      "outputs": [],
      "stateMutability": "nonpayable",
      "type": "function"
    },
    {
      "inputs": [
        {
          "internalType": "uint256",
          "name": "newRate",
          "type": "uint256"
        }
      ],
      "name": "setStreamingRate",
      "outputs": [],
      "stateMutability": "nonpayable",
      "type": "function"
    },
    {
      "inputs": [],
      "name": "stakingPool",
      "outputs": [
        {
          "internalType": "address",
          "name": "",
          "type": "address"
        }
      ],
      "stateMutability": "view",
      "type": "function"
    },
    {
      "inputs": [],
      "name": "stakingPoolRate",
      "outputs": [
        {
          "internalType": "uint256",
          "name": "",
          "type": "uint256"
        }
      ],
      "stateMutability": "view",
      "type": "function"
    },
    {
      "inputs": [],
      "name": "streamingRatePerMinute",
      "outputs": [
        {
          "internalType": "uint256",
          "name": "",
          "type": "uint256"
        }
      ],
      "stateMutability": "view",
      "type": "function"
    },
    {
      "inputs": [
        {
          "internalType": "address",
          "name": "",
          "type": "address"
        }
      ],
      "name": "totalCreatorEarnings",
      "outputs": [
        {
          "internalType": "uint256",
          "name": "",
          "type": "uint256"
        }
      ],
      "stateMutability": "view",
      "type": "function"
    },
    {
      "inputs": [
        {
          "internalType": "uint256",
          "name": "",
          "type": "uint256"
        },
        {
          "internalType": "address",
          "name": "",
          "type": "address"
        }
      ],
      "name": "trackRoyalties",
      "outputs": [
        {
          "internalType": "uint256",
          "name": "",
          "type": "uint256"
        }
      ],
      "stateMutability": "view",
      "type": "function"
    },
    {
      "inputs": [
        {
          "internalType": "uint256",
          "name": "",
          "type": "uint256"
        }
      ],
      "name": "trackStreamingMinutes",
      "outputs": [
        {
          "internalType": "uint256",
          "name": "",
          "type": "uint256"
        }
      ],
      "stateMutability": "view",
      "type": "function"
    },
    {
      "inputs": [
        {
          "internalType": "uint256",
          "name": "",
          "type": "uint256"
        }
      ],
      "name": "trackTotalEarnings",
      "outputs": [
        {
          "internalType": "uint256",
          "name": "",
          "type": "uint256"
        }
      ],
      "stateMutability": "view",
      "type": "function"
    },
    {
      "inputs": [
        {
          "internalType": "address",
          "name": "newOwner",
          "type": "address"
        }
      ],
      "name": "transferOwnership",
      "outputs": [],
      "stateMutability": "nonpayable",
      "type": "function"
    },
    {
      "inputs": [],
      "name": "unpause",
      "outputs": [],
      "stateMutability": "nonpayable",
      "type": "function"
    },
    {
      "inputs": [
        {
          "internalType": "address",
          "name": "",
          "type": "address"
        }
      ],
      "name": "userStreamingMinutes",
      "outputs": [
        {
          "internalType": "uint256",
          "name": "",
          "type": "uint256"
        }
      ],
      "stateMutability": "view",
      "type": "function"
    }
  ],
  "bytecode": "0x60c0346200018857601f62001f4b38819003918201601f19168301916001600160401b038311848410176200018d5780849260809460405283398101031262000188576200004d81620001a3565b906200005c60208201620001a3565b6200007860606200007060408501620001a3565b9301620001a3565b33156200016f576000549360018060a01b03199333858716176000556040519560018060a01b03948580948193823391167f8be0079c531659141344cd1fd0a4f28419497f9722a3daafe3b4186f6b6457e0600080a360018055611b586003556107d06004556103e860055566038d7ea4c68000600f5561012c601055166080521660a0521683600654161760065516906007541617600755611d929081620001b9823960805181818161029a015281816103f30152818161091b01528181610bde01528181610ee401528181611500015261178d015260a05181818161033101528181610b6e01528181610f2a01526117ef0152f35b604051631e4fbdf760e01b815260006004820152602490fd5b600080fd5b634e487b7160e01b600052604160045260246000fd5b51906001600160a01b0382168203620001885756fe608060408181526004908136101561001657600080fd5b600092833560e01c9081630aa78f0e146118d9575080630c56ae3b146118b05780631421f098146118585780632200cf9c1461181e5780632f9662c5146117da57806336e0cac6146117bc578063374cb7c5146117785780633f4ba83a1461170e57806348b0b0e0146116bf5780634c51703f1461164e5780634d0772e5146115e5578063512a22a414611534578063547eafd0146113f35780635c975abb146113cf578063614223db14611397578063667f8bec146113275780636fe389821461130857806370ac597a146112e9578063715018a61461128c578063740ff96714610e9f578063817f826c14610e1a57806383bf4d8714610b4b5780638456cb5914610af05780638da5cb5b14610ac85780639a12f6fa14610a14578063b7dc99d5146109f5578063d64b7626146109b3578063db2e21bc146108e3578063e138818c146108ba578063e2b2d4821461087c578063e3c838fa14610854578063e68aeae214610832578063e7e68ce6146107fa578063e84c02eb146107c2578063ec2a03ea1461079a578063edc916201461077b578063f2fde38b146106f4578063f4458cd2146102e45763f6cb6ba3146101d157600080fd5b346102e05760203660031901126102e0578135918210156102e0577f2435fb1726e8ea6e35ba780e7d1346f6580308c8c6c4d6e1ddf40f04cd05b00d90610216611d1b565b600261022184611926565b01336000526020526102d681600020549361023d851515611c97565b600261024882611926565b0133600052602052858360002055600361026182611926565b013360005260205282600020610278868254611b80565b9055600161028582611926565b01610291868254611b80565b90556102c785337f00000000000000000000000000000000000000000000000000000000000000006001600160a01b0316611cda565b825194855260208501906119a5565b3392a26001805580f35b8280fd5b509190346106f05760603660031901126106f0578035610302611910565b9360443561030e611bb6565b80156106b4578151633c57017760e11b8082528582018590526001600160a01b037f0000000000000000000000000000000000000000000000000000000000000000811698919290919088816024818d5afa9081156106aa5783916060918b91610690575b500151161561065d57811695868852602091600d8352858920610397868254611b80565b9055868952600e83528589206103ae868254611b80565b90556103bc600f5486611ba3565b888a526011845260ff878b2054168061064c575b15610646576103e460649160105490611ba3565b04935b846103f0578980f35b817f000000000000000000000000000000000000000000000000000000000000000016803b156106425787516309152da960e31b8152308582019081526020810188905290918c9183919082908490829060400103925af1801561063857610609575b5060009060248851809d819382528b878301525afa9182156105fe577f5c90f436b0508ccfa9d025a075d2eac1e52250261d807814e34afda04e2dbeca9798999a6000936105db575b506127106104b9816104b060035489611ba3565b04925487611ba3565b0490826104cf836104ca848a611d4f565b611d4f565b946000805260088752606060028b60002001910190828251166000528752896000206104fc848254611b80565b90558b600052600987528960002082825116600052875289600020610522848254611b80565b90555116600052600a855261053c88600020918254611b80565b905588600052600b845286600020610555868254611b80565b90556000805260088452600287600020018260065416600052845261057f87600020918254611b80565b9055600080526008835260028660002001906007541660005282526105a985600020918254611b80565b90556000805260088152836000206105c2838254611b80565b90558351928352820152a3803880808080808080808980f35b6105f791933d8091833e6105ef81836119f8565b810190611aa1565b913861049c565b86513d6000823e3d90fd5b67ffffffffffffffff819b929b11610625578752986000610453565b634e487b7160e01b825260418452602482fd5b88513d8d823e3d90fd5b8a80fd5b936103e7565b5060128452868a20544211156103d0565b845162461bcd60e51b8152602081890152600d60248201526c24b73b30b634b2103a37b5b2b760991b6044820152606490fd5b6106a491503d808d833e6105ef81836119f8565b38610373565b86513d8b823e3d90fd5b815162461bcd60e51b81526020818601526016602482015275496e76616c69642073747265616d696e672074696d6560501b6044820152606490fd5b5080fd5b5090346102e05760203660031901126102e05761070f6118f5565b906107186119cc565b6001600160a01b0391821692831561076557505082546001600160a01b0319811683178455167f8be0079c531659141344cd1fd0a4f28419497f9722a3daafe3b4186f6b6457e08380a380f35b51631e4fbdf760e01b8152908101849052602490fd5b8382346106f057816003193601126106f057602090600c549051908152f35b5090346102e05760203660031901126102e0576020928291358152600e845220549051908152f35b8382346106f05760203660031901126106f05760209181906001600160a01b036107ea6118f5565b168152600d845220549051908152f35b8382346106f05760203660031901126106f05760209181906001600160a01b036108226118f5565b168152600a845220549051908152f35b5050346106f05760203660031901126106f05761084d6119cc565b35600f5580f35b5090346102e05760203660031901126102e0576020928291358152600b845220549051908152f35b8382346106f05760203660031901126106f05760209160ff9082906001600160a01b036108a76118f5565b1681526011855220541690519015158152f35b8382346106f057816003193601126106f05760065490516001600160a01b039091168152602090f35b50346102e057826003193601126102e0576108fc6119cc565b80516370a0823160e01b815230928101929092526001600160a01b03917f0000000000000000000000000000000000000000000000000000000000000000831690602081602481855afa9283156109aa57508492610973575b508161095f578380f35b61096c9284541690611cda565b3880808380f35b9091506020813d82116109a2575b8161098e602093836119f8565b8101031261099e57519038610955565b8380fd5b3d9150610981565b513d86823e3d90fd5b5090346102e057816003193601126102e05760209282916109d2611910565b90358252600985528282206001600160a01b039091168252845220549051908152f35b8382346106f057816003193601126106f057602090600f549051908152f35b50346102e057610a23366119b2565b929193610a2e6119cc565b612710610a4485610a3f8589611b80565b611b80565b03610a8c5791816060949286947fa54b242cb85a97c5da82622074d253661c7ae898e3b04075295621a7eb29750797600355558260055581519384526020840152820152a180f35b606490602084519162461bcd60e51b835282015260166024820152755261746573206d7573742073756d20746f203130302560501b6044820152fd5b8382346106f057816003193601126106f057905490516001600160a01b039091168152602090f35b8382346106f057816003193601126106f05760207f62e78cea01bee320cd4e420270b5ea74000d11b0c9f74754ebdbfc544b05a25891610b2e6119cc565b610b36611bb6565b600160ff19600254161760025551338152a180f35b50346102e057610b5a366119b2565b9092610b64611bb6565b60018060a01b03807f000000000000000000000000000000000000000000000000000000000000000016958251633c57017760e11b90818152868382015289816024818c5afa908115610e10578a91610df6575b508360608201511615610dba5760c0015115610d8157908885949392610c0382973033877f000000000000000000000000000000000000000000000000000000000000000016611bd4565b60248551809b819382528a868301525afa918215610d77577fc78b1eee0424fe8cefd64d51c7f3674484dc75227ea86d854cb25d238a06b2089697988693610d5b575b50612710610c6381610c5a60035489611ba3565b04935487611ba3565b04610c72816104ca8589611d4f565b9282600295868a528760209a60088c52606089838320019301928484511682528c52818120610ca2868254611b80565b90558d815260098c528181208484511682528c5220610cc2848254611b80565b905551168c52600a8852610cda868d20918254611b80565b9055888b52600b8752848b20610cf1878254611b80565b9055838b526008875283858c200182600654168c528752610d16858c20918254611b80565b9055828a526008865282848b200190600754168a528552610d3b838a20918254611b80565b9055875260088352808720610d51838254611b80565b905551908152a380f35b610d709193503d8088833e6105ef81836119f8565b9138610c46565b83513d87823e3d90fd5b835162461bcd60e51b81526020818401526013602482015272547261636b206e6f742072656d697861626c6560681b6044820152606490fd5b845162461bcd60e51b8152602081850152601660248201527524b73b30b634b21037b934b3b4b730b6103a37b5b2b760511b6044820152606490fd5b610e0a91503d808c833e6105ef81836119f8565b38610bb8565b85513d8c823e3d90fd5b8382346106f057806003193601126106f0577f3c521a01e5b8cc0c480919ef2e8031de8d54a2bb0371d2967be98a07aeb813656020610e576118f5565b610e5f6119cc565b6001600160a01b031680855260118252838520805460ff1916600117905592610e8a60243542611b80565b9084865260128352818187205551908152a280f35b50346102e05760603660031901126102e0578135916024803591808310156112885760443590610ecd611bb6565b8515611255576001600160a01b0391610f0a8730337f00000000000000000000000000000000000000000000000000000000000000008716611bd4565b80156111d3578551633c57017760e11b81528281018290529088808387817f000000000000000000000000000000000000000000000000000000000000000089165afa9283156111c757918486838b8d968c9861119b575b5060606002610f9f610f99610f90999a6104ca61271080610f8560035485611ba3565b049c8d9b5484611ba3565b049b8c92611d4f565b9a611926565b019701918383511681526020978852818120610fbc868254611b80565b905585815260098852818120848451168252885220610fdc848254611b80565b905551168c52600a8452610ff48a8d20918254611b80565b90558a52600b8252878a2061100a8a8254611b80565b9055600261101788611926565b0185600654168b52825261102f888b20918254611b80565b9055600261103c87611926565b019084600754168a5252611054868920918254611b80565b905561105f84611926565b61106a878254611b80565b90555b8451906080820182811067ffffffffffffffff82111761118957865286825260208201858152868301914283526060840195338752600c5468010000000000000000811015611177578060016110c69201600c55611955565b959095611166575185556001850192519180831015611155578b7fc0c95f6ac088df731691316eb962c82e03aef38c566e7f938b01f76f118b068b60608d8d61114c8e8e8e60038f8f8f8f60ff80198354169116179055516002820155019151166bffffffffffffffffffffffff60a01b825416179055825193845260208401906119a5565b3390820152a180f35b634e487b7160e01b8c52602190528afd5b50634e487b7160e01b8b528a82528afd5b50634e487b7160e01b8b52604182528afd5b634e487b7160e01b8952604182528489fd5b610f9096506002610f9f610f996111bd6060943d8089833e6105ef81836119f8565b9950505050610f62565b508751903d90823e3d90fd5b506127106111e2825488611ba3565b046111ed8188611d4f565b9060026111f987611926565b0184600654168a52602052611212878a20918254611b80565b9055600261121f86611926565b0183600754168952602052611238868920918254611b80565b905561124384611926565b61124e878254611b80565b905561106d565b606490600e84602088519362461bcd60e51b85528401528201526d125b9d985b1a5908185b5bdd5b9d60921b6044820152fd5b8580fd5b83346112e657806003193601126112e6576112a56119cc565b80546001600160a01b03198116825581906001600160a01b03167f8be0079c531659141344cd1fd0a4f28419497f9722a3daafe3b4186f6b6457e08280a380f35b80fd5b8382346106f057816003193601126106f0576020906005549051908152f35b8382346106f057816003193601126106f0576020906010549051908152f35b508290346106f057602091826003193601126112e6576113456118f5565b909283916001600160a01b031690825b60ff86168781101561138f5761138991600261137361138393611926565b0185875284528686205490611b80565b95611d3e565b94611355565b508451908152f35b8382346106f05760203660031901126106f05760209181906001600160a01b036113bf6118f5565b1681526012845220549051908152f35b8382346106f057816003193601126106f05760209060ff6002541690519015158152f35b5090346102e057826003193601126102e05761140d611d1b565b82805b60ff8116838110156114ed5760028061142883611926565b0191338552602092835286852054918261144f575b5050505061144a90611d3e565b611410565b906114b18361144a96959a6114bf9461146785611926565b01338a528c52888b812055600361147d85611926565b01338a528c528a8920611491838254611b80565b9055600161149e85611926565b016114aa838254611b80565b9055611b80565b9888519384528301906119a5565b7f2435fb1726e8ea6e35ba780e7d1346f6580308c8c6c4d6e1ddf40f04cd05b00d863392a29038808061143d565b8261152d876114fd811515611c97565b337f00000000000000000000000000000000000000000000000000000000000000006001600160a01b0316611cda565b6001805580f35b5090346102e057816003193601126102e05761154e6118f5565b90611557611910565b906115606119cc565b6001600160a01b0392831693841515806115da575b156115a35750506bffffffffffffffffffffffff60a01b928360065416176006551690600754161760075580f35b906020606492519162461bcd60e51b83528201526011602482015270496e76616c69642061646472657373657360781b6044820152fd5b508383161515611575565b5090346102e05760203660031901126102e0573591600c548310156112e65750611610608092611955565b509081549160ff60018201541691611644600283015492600360018060a01b039101541693825195865260208601906119a5565b8301526060820152f35b5090346102e05760203660031901126102e05780359161166c6119cc565b6064831061167c57505060105580f35b906020606492519162461bcd60e51b8352820152601e60248201527f4d756c7469706c696572206d757374206265206174206c6561737420317800006044820152fd5b5090346102e057816003193601126102e0576116d96118f5565b906024359081101561099e5792829160026116f5602096611926565b6001600160a01b03909216835201845220549051908152f35b5090346102e057826003193601126102e0576117286119cc565b6002549060ff82161561176a575060ff1916600255513381527f5db9ee0a495bf2e6ff9c91a7834c1ba4fdd244a5e8aa4e537bd38aeae4b073aa90602090a180f35b8251638dfc202b60e01b8152fd5b8382346106f057816003193601126106f057517f00000000000000000000000000000000000000000000000000000000000000006001600160a01b03168152602090f35b5090346102e057826003193601126102e05760209250549051908152f35b8382346106f057816003193601126106f057517f00000000000000000000000000000000000000000000000000000000000000006001600160a01b03168152602090f35b5091346112e65760203660031901126112e6578135918210156112e6575061184590611926565b6001815491015482519182526020820152f35b8382346106f05760203660031901126106f057602091906001600160a01b0361187f6118f5565b1682526011835260ff8183205416918261189d575b50519015158152f35b8192506012845220544211159083611894565b8382346106f057816003193601126106f05760075490516001600160a01b039091168152602090f35b8490346106f057816003193601126106f0576020906003548152f35b600435906001600160a01b038216820361190b57565b600080fd5b602435906001600160a01b038216820361190b57565b600481101561193f576000526008602052604060002090565b634e487b7160e01b600052602160045260246000fd5b600c5481101561198f57600c60005260021b7fdf6966c971051c3d54ec59162606531493a51404a002842f56009d7e5cf4a8c70190600090565b634e487b7160e01b600052603260045260246000fd5b90600482101561193f5752565b606090600319011261190b57600435906024359060443590565b6000546001600160a01b031633036119e057565b60405163118cdaa760e01b8152336004820152602490fd5b90601f8019910116810190811067ffffffffffffffff821117611a1a57604052565b634e487b7160e01b600052604160045260246000fd5b919080601f8401121561190b5782519067ffffffffffffffff8211611a1a5760405191602091611a69601f8301601f19168401856119f8565b81845282828701011161190b5760005b818110611a8e57508260009394955001015290565b8581018301518482018401528201611a79565b60208183031261190b57805167ffffffffffffffff9182821161190b57019061010092838382031261190b5760405193840184811083821117611a1a57604052825182811161190b5781611af6918501611a30565b8452602083015182811161190b5781611b10918501611a30565b60208501526040838101519085015260608301516001600160a01b038116810361190b5760608501526080830151608085015260a083015191821161190b57611b5a918301611a30565b60a083015260c081015190811515820361190b5760e09160c0840152015160e082015290565b91908201809211611b8d57565b634e487b7160e01b600052601160045260246000fd5b81810292918115918404141715611b8d57565b60ff60025416611bc257565b60405163d93c066560e01b8152600490fd5b6040516323b872dd60e01b60208201526001600160a01b03928316602482015292909116604483015260648083019390935291815260a081019181831067ffffffffffffffff841117611a1a57611c2d92604052611c2f565b565b906000602091828151910182855af115611c8b576000513d611c8257506001600160a01b0381163b155b611c605750565b604051635274afe760e01b81526001600160a01b039091166004820152602490fd5b60011415611c59565b6040513d6000823e3d90fd5b15611c9e57565b60405162461bcd60e51b81526020600482015260146024820152734e6f2070656e64696e6720726f79616c7469657360601b6044820152606490fd5b60405163a9059cbb60e01b60208201526001600160a01b03929092166024830152604480830193909352918152611c2d91611d166064836119f8565b611c2f565b600260015414611d2c576002600155565b604051633ee5aeb560e01b8152600490fd5b60ff1660ff8114611b8d5760010190565b91908203918211611b8d5756fea2646970667358221220530c74d2ab21fb35d8602f66dc9ee4abba15a65211adb8133532921a26d3663964736f6c63430008140033",
  "linkReferences": {},
  "deployedLinkReferences": {}
}