{
  "_format": "hh-sol-artifact-1",
  "contractName": "HiBeatsDiscovery",
  "sourceName": "contracts/HiBeatsDiscovery.sol",
  "abi": [
    {
      "inputs": [
        {
          "internalType": "address",
          "name": "_hiBeatsNFT",
          "type": "address"
        },
        {
          "internalType": "address",
          "name": "_hiBeatsToken",
          "type": "address"
        },
        {
          "internalType": "address",
          "name": "_hiBeatsProfile",
          "type": "address"
        },
        {
          "internalType": "address",
          "name": "_hiBeatsPlaylist",
          "type": "address"
        }
      ],
      "stateMutability": "nonpayable",
      "type": "constructor"
    },
    {
      "inputs": [],
      "name": "EnforcedPause",
      "type": "error"
    },
    {
      "inputs": [],
      "name": "ExpectedPause",
      "type": "error"
    },
    {
      "inputs": [
        {
          "internalType": "address",
          "name": "owner",
          "type": "address"
        }
      ],
      "name": "OwnableInvalidOwner",
      "type": "error"
    },
    {
      "inputs": [
        {
          "internalType": "address",
          "name": "account",
          "type": "address"
        }
      ],
      "name": "OwnableUnauthorizedAccount",
      "type": "error"
    },
    {
      "inputs": [],
      "name": "ReentrancyGuardReentrantCall",
      "type": "error"
    },
    {
      "anonymous": false,
      "inputs": [
        {
          "indexed": true,
          "internalType": "string",
          "name": "categoryName",
          "type": "string"
        },
        {
          "indexed": true,
          "internalType": "address",
          "name": "curator",
          "type": "address"
        },
        {
          "indexed": false,
          "internalType": "uint256",
          "name": "trackCount",
          "type": "uint256"
        }
      ],
      "name": "CategoryCreated",
      "type": "event"
    },
    {
      "anonymous": false,
      "inputs": [
        {
          "indexed": true,
          "internalType": "address",
          "name": "user",
          "type": "address"
        },
        {
          "indexed": false,
          "internalType": "uint256",
          "name": "trendingCount",
          "type": "uint256"
        },
        {
          "indexed": false,
          "internalType": "uint256",
          "name": "recommendedCount",
          "type": "uint256"
        }
      ],
      "name": "DiscoveryFeedUpdated",
      "type": "event"
    },
    {
      "anonymous": false,
      "inputs": [
        {
          "indexed": true,
          "internalType": "address",
          "name": "user",
          "type": "address"
        },
        {
          "indexed": false,
          "internalType": "uint256",
          "name": "amount",
          "type": "uint256"
        },
        {
          "indexed": false,
          "internalType": "string",
          "name": "reason",
          "type": "string"
        }
      ],
      "name": "DiscoveryRewardClaimed",
      "type": "event"
    },
    {
      "anonymous": false,
      "inputs": [
        {
          "indexed": true,
          "internalType": "address",
          "name": "previousOwner",
          "type": "address"
        },
        {
          "indexed": true,
          "internalType": "address",
          "name": "newOwner",
          "type": "address"
        }
      ],
      "name": "OwnershipTransferred",
      "type": "event"
    },
    {
      "anonymous": false,
      "inputs": [
        {
          "indexed": false,
          "internalType": "address",
          "name": "account",
          "type": "address"
        }
      ],
      "name": "Paused",
      "type": "event"
    },
    {
      "anonymous": false,
      "inputs": [
        {
          "indexed": true,
          "internalType": "uint256",
          "name": "tokenId",
          "type": "uint256"
        },
        {
          "indexed": true,
          "internalType": "address",
          "name": "curator",
          "type": "address"
        },
        {
          "indexed": false,
          "internalType": "string",
          "name": "category",
          "type": "string"
        }
      ],
      "name": "TrackFeatured",
      "type": "event"
    },
    {
      "anonymous": false,
      "inputs": [
        {
          "indexed": true,
          "internalType": "uint256",
          "name": "tokenId",
          "type": "uint256"
        },
        {
          "indexed": false,
          "internalType": "uint256",
          "name": "plays",
          "type": "uint256"
        },
        {
          "indexed": false,
          "internalType": "uint256",
          "name": "likes",
          "type": "uint256"
        },
        {
          "indexed": false,
          "internalType": "uint256",
          "name": "trendingScore",
          "type": "uint256"
        }
      ],
      "name": "TrackMetricsUpdated",
      "type": "event"
    },
    {
      "anonymous": false,
      "inputs": [
        {
          "indexed": true,
          "internalType": "uint256",
          "name": "tokenId",
          "type": "uint256"
        },
        {
          "indexed": false,
          "internalType": "uint256",
          "name": "trendingScore",
          "type": "uint256"
        },
        {
          "indexed": false,
          "internalType": "uint256",
          "name": "rank",
          "type": "uint256"
        }
      ],
      "name": "TrackTrending",
      "type": "event"
    },
    {
      "anonymous": false,
      "inputs": [
        {
          "indexed": false,
          "internalType": "address",
          "name": "account",
          "type": "address"
        }
      ],
      "name": "Unpaused",
      "type": "event"
    },
    {
      "anonymous": false,
      "inputs": [
        {
          "indexed": true,
          "internalType": "address",
          "name": "user",
          "type": "address"
        },
        {
          "indexed": false,
          "internalType": "string[]",
          "name": "genres",
          "type": "string[]"
        },
        {
          "indexed": false,
          "internalType": "address[]",
          "name": "creators",
          "type": "address[]"
        }
      ],
      "name": "UserPreferencesUpdated",
      "type": "event"
    },
    {
      "inputs": [
        {
          "internalType": "string",
          "name": "categoryName",
          "type": "string"
        },
        {
          "internalType": "uint256",
          "name": "tokenId",
          "type": "uint256"
        }
      ],
      "name": "addTrackToCategory",
      "outputs": [],
      "stateMutability": "nonpayable",
      "type": "function"
    },
    {
      "inputs": [
        {
          "internalType": "string",
          "name": "",
          "type": "string"
        }
      ],
      "name": "categories",
      "outputs": [
        {
          "internalType": "string",
          "name": "name",
          "type": "string"
        },
        {
          "internalType": "string",
          "name": "description",
          "type": "string"
        },
        {
          "internalType": "address",
          "name": "curator",
          "type": "address"
        },
        {
          "internalType": "bool",
          "name": "isActive",
          "type": "bool"
        },
        {
          "internalType": "uint256",
          "name": "createdAt",
          "type": "uint256"
        }
      ],
      "stateMutability": "view",
      "type": "function"
    },
    {
      "inputs": [
        {
          "internalType": "string",
          "name": "",
          "type": "string"
        }
      ],
      "name": "categoryOwners",
      "outputs": [
        {
          "internalType": "address",
          "name": "",
          "type": "address"
        }
      ],
      "stateMutability": "view",
      "type": "function"
    },
    {
      "inputs": [
        {
          "internalType": "string",
          "name": "name",
          "type": "string"
        },
        {
          "internalType": "string",
          "name": "description",
          "type": "string"
        },
        {
          "internalType": "string[]",
          "name": "tags",
          "type": "string[]"
        },
        {
          "internalType": "uint256[]",
          "name": "initialTracks",
          "type": "uint256[]"
        }
      ],
      "name": "createCategory",
      "outputs": [],
      "stateMutability": "nonpayable",
      "type": "function"
    },
    {
      "inputs": [
        {
          "internalType": "address",
          "name": "",
          "type": "address"
        },
        {
          "internalType": "uint256",
          "name": "",
          "type": "uint256"
        }
      ],
      "name": "creatorTracks",
      "outputs": [
        {
          "internalType": "uint256",
          "name": "",
          "type": "uint256"
        }
      ],
      "stateMutability": "view",
      "type": "function"
    },
    {
      "inputs": [],
      "name": "curatorReward",
      "outputs": [
        {
          "internalType": "uint256",
          "name": "",
          "type": "uint256"
        }
      ],
      "stateMutability": "view",
      "type": "function"
    },
    {
      "inputs": [
        {
          "internalType": "uint256",
          "name": "",
          "type": "uint256"
        },
        {
          "internalType": "uint256",
          "name": "",
          "type": "uint256"
        }
      ],
      "name": "dailyCharts",
      "outputs": [
        {
          "internalType": "uint256",
          "name": "",
          "type": "uint256"
        }
      ],
      "stateMutability": "view",
      "type": "function"
    },
    {
      "inputs": [],
      "name": "dailyDiscoveryLimit",
      "outputs": [
        {
          "internalType": "uint256",
          "name": "",
          "type": "uint256"
        }
      ],
      "stateMutability": "view",
      "type": "function"
    },
    {
      "inputs": [],
      "name": "discoveryReward",
      "outputs": [
        {
          "internalType": "uint256",
          "name": "",
          "type": "uint256"
        }
      ],
      "stateMutability": "view",
      "type": "function"
    },
    {
      "inputs": [
        {
          "internalType": "uint256",
          "name": "",
          "type": "uint256"
        }
      ],
      "name": "editorsPicks",
      "outputs": [
        {
          "internalType": "uint256",
          "name": "",
          "type": "uint256"
        }
      ],
      "stateMutability": "view",
      "type": "function"
    },
    {
      "inputs": [
        {
          "internalType": "uint256",
          "name": "tokenId",
          "type": "uint256"
        },
        {
          "internalType": "bool",
          "name": "featured",
          "type": "bool"
        }
      ],
      "name": "featureTrack",
      "outputs": [],
      "stateMutability": "nonpayable",
      "type": "function"
    },
    {
      "inputs": [
        {
          "internalType": "uint256",
          "name": "",
          "type": "uint256"
        }
      ],
      "name": "featuredTracks",
      "outputs": [
        {
          "internalType": "uint256",
          "name": "",
          "type": "uint256"
        }
      ],
      "stateMutability": "view",
      "type": "function"
    },
    {
      "inputs": [
        {
          "internalType": "address",
          "name": "user",
          "type": "address"
        }
      ],
      "name": "generateDiscoveryFeed",
      "outputs": [
        {
          "components": [
            {
              "internalType": "uint256[]",
              "name": "trendingTracks",
              "type": "uint256[]"
            },
            {
              "internalType": "uint256[]",
              "name": "newReleases",
              "type": "uint256[]"
            },
            {
              "internalType": "uint256[]",
              "name": "recommendedTracks",
              "type": "uint256[]"
            },
            {
              "internalType": "uint256[]",
              "name": "featuredTracks",
              "type": "uint256[]"
            },
            {
              "internalType": "uint256[]",
              "name": "genreBasedTracks",
              "type": "uint256[]"
            },
            {
              "internalType": "uint256[]",
              "name": "socialRecommendations",
              "type": "uint256[]"
            },
            {
              "internalType": "uint256",
              "name": "lastUpdated",
              "type": "uint256"
            }
          ],
          "internalType": "struct HiBeatsDiscovery.DiscoveryFeed",
          "name": "",
          "type": "tuple"
        }
      ],
      "stateMutability": "nonpayable",
      "type": "function"
    },
    {
      "inputs": [
        {
          "internalType": "address",
          "name": "user",
          "type": "address"
        }
      ],
      "name": "generateRecommendations",
      "outputs": [
        {
          "internalType": "uint256[]",
          "name": "",
          "type": "uint256[]"
        }
      ],
      "stateMutability": "nonpayable",
      "type": "function"
    },
    {
      "inputs": [
        {
          "internalType": "string",
          "name": "",
          "type": "string"
        },
        {
          "internalType": "uint256",
          "name": "",
          "type": "uint256"
        }
      ],
      "name": "genreTracks",
      "outputs": [
        {
          "internalType": "uint256",
          "name": "",
          "type": "uint256"
        }
      ],
      "stateMutability": "view",
      "type": "function"
    },
    {
      "inputs": [
        {
          "internalType": "string",
          "name": "",
          "type": "string"
        },
        {
          "internalType": "uint256",
          "name": "",
          "type": "uint256"
        }
      ],
      "name": "genreTrendingTracks",
      "outputs": [
        {
          "internalType": "uint256",
          "name": "",
          "type": "uint256"
        }
      ],
      "stateMutability": "view",
      "type": "function"
    },
    {
      "inputs": [
        {
          "internalType": "string",
          "name": "name",
          "type": "string"
        }
      ],
      "name": "getCategory",
      "outputs": [
        {
          "components": [
            {
              "internalType": "string",
              "name": "name",
              "type": "string"
            },
            {
              "internalType": "string",
              "name": "description",
              "type": "string"
            },
            {
              "internalType": "string[]",
              "name": "tags",
              "type": "string[]"
            },
            {
              "internalType": "uint256[]",
              "name": "trackIds",
              "type": "uint256[]"
            },
            {
              "internalType": "address",
              "name": "curator",
              "type": "address"
            },
            {
              "internalType": "bool",
              "name": "isActive",
              "type": "bool"
            },
            {
              "internalType": "uint256",
              "name": "createdAt",
              "type": "uint256"
            }
          ],
          "internalType": "struct HiBeatsDiscovery.ContentCategory",
          "name": "",
          "type": "tuple"
        }
      ],
      "stateMutability": "view",
      "type": "function"
    },
    {
      "inputs": [
        {
          "internalType": "uint256",
          "name": "limit",
          "type": "uint256"
        }
      ],
      "name": "getFeaturedTracks",
      "outputs": [
        {
          "internalType": "uint256[]",
          "name": "",
          "type": "uint256[]"
        }
      ],
      "stateMutability": "view",
      "type": "function"
    },
    {
      "inputs": [
        {
          "internalType": "string",
          "name": "genre",
          "type": "string"
        },
        {
          "internalType": "uint256",
          "name": "limit",
          "type": "uint256"
        }
      ],
      "name": "getGenreTracks",
      "outputs": [
        {
          "internalType": "uint256[]",
          "name": "",
          "type": "uint256[]"
        }
      ],
      "stateMutability": "view",
      "type": "function"
    },
    {
      "inputs": [
        {
          "internalType": "uint256",
          "name": "limit",
          "type": "uint256"
        }
      ],
      "name": "getNewReleases",
      "outputs": [
        {
          "internalType": "uint256[]",
          "name": "",
          "type": "uint256[]"
        }
      ],
      "stateMutability": "view",
      "type": "function"
    },
    {
      "inputs": [],
      "name": "getPlatformMetrics",
      "outputs": [
        {
          "components": [
            {
              "internalType": "uint256",
              "name": "totalTracks",
              "type": "uint256"
            },
            {
              "internalType": "uint256",
              "name": "totalUsers",
              "type": "uint256"
            },
            {
              "internalType": "uint256",
              "name": "totalPlays",
              "type": "uint256"
            },
            {
              "internalType": "uint256",
              "name": "activeUsers24h",
              "type": "uint256"
            },
            {
              "internalType": "uint256",
              "name": "tracksCreatedToday",
              "type": "uint256"
            },
            {
              "internalType": "string[]",
              "name": "topGenres",
              "type": "string[]"
            },
            {
              "internalType": "address[]",
              "name": "topCreators",
              "type": "address[]"
            },
            {
              "internalType": "uint256[]",
              "name": "topTracks",
              "type": "uint256[]"
            }
          ],
          "internalType": "struct HiBeatsDiscovery.PlatformMetrics",
          "name": "",
          "type": "tuple"
        }
      ],
      "stateMutability": "view",
      "type": "function"
    },
    {
      "inputs": [
        {
          "internalType": "address",
          "name": "user",
          "type": "address"
        },
        {
          "internalType": "uint256",
          "name": "limit",
          "type": "uint256"
        }
      ],
      "name": "getSocialRecommendations",
      "outputs": [
        {
          "internalType": "uint256[]",
          "name": "",
          "type": "uint256[]"
        }
      ],
      "stateMutability": "view",
      "type": "function"
    },
    {
      "inputs": [
        {
          "internalType": "uint256",
          "name": "tokenId",
          "type": "uint256"
        }
      ],
      "name": "getTrackMetrics",
      "outputs": [
        {
          "components": [
            {
              "internalType": "uint256",
              "name": "totalPlays",
              "type": "uint256"
            },
            {
              "internalType": "uint256",
              "name": "uniqueListeners",
              "type": "uint256"
            },
            {
              "internalType": "uint256",
              "name": "totalLikes",
              "type": "uint256"
            },
            {
              "internalType": "uint256",
              "name": "sharesCount",
              "type": "uint256"
            },
            {
              "internalType": "uint256",
              "name": "commentsCount",
              "type": "uint256"
            },
            {
              "internalType": "uint256",
              "name": "playlistAdds",
              "type": "uint256"
            },
            {
              "internalType": "uint256",
              "name": "trendingScore",
              "type": "uint256"
            },
            {
              "internalType": "uint256",
              "name": "lastUpdated",
              "type": "uint256"
            },
            {
              "internalType": "bool",
              "name": "isTrending",
              "type": "bool"
            },
            {
              "internalType": "bool",
              "name": "isFeatured",
              "type": "bool"
            }
          ],
          "internalType": "struct HiBeatsDiscovery.TrackMetrics",
          "name": "",
          "type": "tuple"
        }
      ],
      "stateMutability": "view",
      "type": "function"
    },
    {
      "inputs": [
        {
          "internalType": "string",
          "name": "genre",
          "type": "string"
        },
        {
          "internalType": "uint256",
          "name": "limit",
          "type": "uint256"
        }
      ],
      "name": "getTrendingByGenre",
      "outputs": [
        {
          "internalType": "uint256[]",
          "name": "",
          "type": "uint256[]"
        }
      ],
      "stateMutability": "view",
      "type": "function"
    },
    {
      "inputs": [
        {
          "internalType": "uint256",
          "name": "limit",
          "type": "uint256"
        }
      ],
      "name": "getTrendingTracks",
      "outputs": [
        {
          "internalType": "uint256[]",
          "name": "",
          "type": "uint256[]"
        }
      ],
      "stateMutability": "view",
      "type": "function"
    },
    {
      "inputs": [
        {
          "internalType": "address",
          "name": "user",
          "type": "address"
        }
      ],
      "name": "getUserDiscoveryFeed",
      "outputs": [
        {
          "components": [
            {
              "internalType": "uint256[]",
              "name": "trendingTracks",
              "type": "uint256[]"
            },
            {
              "internalType": "uint256[]",
              "name": "newReleases",
              "type": "uint256[]"
            },
            {
              "internalType": "uint256[]",
              "name": "recommendedTracks",
              "type": "uint256[]"
            },
            {
              "internalType": "uint256[]",
              "name": "featuredTracks",
              "type": "uint256[]"
            },
            {
              "internalType": "uint256[]",
              "name": "genreBasedTracks",
              "type": "uint256[]"
            },
            {
              "internalType": "uint256[]",
              "name": "socialRecommendations",
              "type": "uint256[]"
            },
            {
              "internalType": "uint256",
              "name": "lastUpdated",
              "type": "uint256"
            }
          ],
          "internalType": "struct HiBeatsDiscovery.DiscoveryFeed",
          "name": "",
          "type": "tuple"
        }
      ],
      "stateMutability": "view",
      "type": "function"
    },
    {
      "inputs": [
        {
          "internalType": "uint256",
          "name": "",
          "type": "uint256"
        }
      ],
      "name": "globalTrendingTracks",
      "outputs": [
        {
          "internalType": "uint256",
          "name": "",
          "type": "uint256"
        }
      ],
      "stateMutability": "view",
      "type": "function"
    },
    {
      "inputs": [],
      "name": "hiBeatsNFT",
      "outputs": [
        {
          "internalType": "contract IHiBeatsNFT",
          "name": "",
          "type": "address"
        }
      ],
      "stateMutability": "view",
      "type": "function"
    },
    {
      "inputs": [],
      "name": "hiBeatsPlaylist",
      "outputs": [
        {
          "internalType": "contract IHiBeatsPlaylist",
          "name": "",
          "type": "address"
        }
      ],
      "stateMutability": "view",
      "type": "function"
    },
    {
      "inputs": [],
      "name": "hiBeatsProfile",
      "outputs": [
        {
          "internalType": "contract IHiBeatsProfile",
          "name": "",
          "type": "address"
        }
      ],
      "stateMutability": "view",
      "type": "function"
    },
    {
      "inputs": [],
      "name": "hiBeatsToken",
      "outputs": [
        {
          "internalType": "contract IHiBeatsToken",
          "name": "",
          "type": "address"
        }
      ],
      "stateMutability": "view",
      "type": "function"
    },
    {
      "inputs": [],
      "name": "minPlaysForTrending",
      "outputs": [
        {
          "internalType": "uint256",
          "name": "",
          "type": "uint256"
        }
      ],
      "stateMutability": "view",
      "type": "function"
    },
    {
      "inputs": [],
      "name": "owner",
      "outputs": [
        {
          "internalType": "address",
          "name": "",
          "type": "address"
        }
      ],
      "stateMutability": "view",
      "type": "function"
    },
    {
      "inputs": [],
      "name": "pause",
      "outputs": [],
      "stateMutability": "nonpayable",
      "type": "function"
    },
    {
      "inputs": [],
      "name": "paused",
      "outputs": [
        {
          "internalType": "bool",
          "name": "",
          "type": "bool"
        }
      ],
      "stateMutability": "view",
      "type": "function"
    },
    {
      "inputs": [],
      "name": "platformMetrics",
      "outputs": [
        {
          "internalType": "uint256",
          "name": "totalTracks",
          "type": "uint256"
        },
        {
          "internalType": "uint256",
          "name": "totalUsers",
          "type": "uint256"
        },
        {
          "internalType": "uint256",
          "name": "totalPlays",
          "type": "uint256"
        },
        {
          "internalType": "uint256",
          "name": "activeUsers24h",
          "type": "uint256"
        },
        {
          "internalType": "uint256",
          "name": "tracksCreatedToday",
          "type": "uint256"
        }
      ],
      "stateMutability": "view",
      "type": "function"
    },
    {
      "inputs": [],
      "name": "recommendationRefreshInterval",
      "outputs": [
        {
          "internalType": "uint256",
          "name": "",
          "type": "uint256"
        }
      ],
      "stateMutability": "view",
      "type": "function"
    },
    {
      "inputs": [],
      "name": "refreshPlatformMetrics",
      "outputs": [],
      "stateMutability": "nonpayable",
      "type": "function"
    },
    {
      "inputs": [],
      "name": "renounceOwnership",
      "outputs": [],
      "stateMutability": "nonpayable",
      "type": "function"
    },
    {
      "inputs": [
        {
          "internalType": "address",
          "name": "curator",
          "type": "address"
        },
        {
          "internalType": "bool",
          "name": "verified",
          "type": "bool"
        }
      ],
      "name": "setVerifiedCurator",
      "outputs": [],
      "stateMutability": "nonpayable",
      "type": "function"
    },
    {
      "inputs": [
        {
          "internalType": "uint256",
          "name": "",
          "type": "uint256"
        }
      ],
      "name": "trackMetrics",
      "outputs": [
        {
          "internalType": "uint256",
          "name": "totalPlays",
          "type": "uint256"
        },
        {
          "internalType": "uint256",
          "name": "uniqueListeners",
          "type": "uint256"
        },
        {
          "internalType": "uint256",
          "name": "totalLikes",
          "type": "uint256"
        },
        {
          "internalType": "uint256",
          "name": "sharesCount",
          "type": "uint256"
        },
        {
          "internalType": "uint256",
          "name": "commentsCount",
          "type": "uint256"
        },
        {
          "internalType": "uint256",
          "name": "playlistAdds",
          "type": "uint256"
        },
        {
          "internalType": "uint256",
          "name": "trendingScore",
          "type": "uint256"
        },
        {
          "internalType": "uint256",
          "name": "lastUpdated",
          "type": "uint256"
        },
        {
          "internalType": "bool",
          "name": "isTrending",
          "type": "bool"
        },
        {
          "internalType": "bool",
          "name": "isFeatured",
          "type": "bool"
        }
      ],
      "stateMutability": "view",
      "type": "function"
    },
    {
      "inputs": [
        {
          "internalType": "address",
          "name": "newOwner",
          "type": "address"
        }
      ],
      "name": "transferOwnership",
      "outputs": [],
      "stateMutability": "nonpayable",
      "type": "function"
    },
    {
      "inputs": [],
      "name": "trendingDecayRate",
      "outputs": [
        {
          "internalType": "uint256",
          "name": "",
          "type": "uint256"
        }
      ],
      "stateMutability": "view",
      "type": "function"
    },
    {
      "inputs": [],
      "name": "trendingTimeWindow",
      "outputs": [
        {
          "internalType": "uint256",
          "name": "",
          "type": "uint256"
        }
      ],
      "stateMutability": "view",
      "type": "function"
    },
    {
      "inputs": [],
      "name": "unpause",
      "outputs": [],
      "stateMutability": "nonpayable",
      "type": "function"
    },
    {
      "inputs": [
        {
          "internalType": "uint256",
          "name": "_discoveryReward",
          "type": "uint256"
        },
        {
          "internalType": "uint256",
          "name": "_curatorReward",
          "type": "uint256"
        },
        {
          "internalType": "uint256",
          "name": "_dailyLimit",
          "type": "uint256"
        }
      ],
      "name": "updateDiscoveryRewards",
      "outputs": [],
      "stateMutability": "nonpayable",
      "type": "function"
    },
    {
      "inputs": [
        {
          "internalType": "uint256",
          "name": "tokenId",
          "type": "uint256"
        },
        {
          "internalType": "uint256",
          "name": "plays",
          "type": "uint256"
        },
        {
          "internalType": "uint256",
          "name": "likes",
          "type": "uint256"
        },
        {
          "internalType": "uint256",
          "name": "shares",
          "type": "uint256"
        },
        {
          "internalType": "uint256",
          "name": "comments",
          "type": "uint256"
        },
        {
          "internalType": "uint256",
          "name": "playlistAdds",
          "type": "uint256"
        }
      ],
      "name": "updateTrackMetrics",
      "outputs": [],
      "stateMutability": "nonpayable",
      "type": "function"
    },
    {
      "inputs": [
        {
          "internalType": "uint256",
          "name": "_decayRate",
          "type": "uint256"
        },
        {
          "internalType": "uint256",
          "name": "_minPlays",
          "type": "uint256"
        },
        {
          "internalType": "uint256",
          "name": "_timeWindow",
          "type": "uint256"
        }
      ],
      "name": "updateTrendingParameters",
      "outputs": [],
      "stateMutability": "nonpayable",
      "type": "function"
    },
    {
      "inputs": [
        {
          "internalType": "address",
          "name": "user",
          "type": "address"
        },
        {
          "internalType": "string[]",
          "name": "favoriteGenres",
          "type": "string[]"
        },
        {
          "internalType": "address[]",
          "name": "followedCreators",
          "type": "address[]"
        }
      ],
      "name": "updateUserPreferences",
      "outputs": [],
      "stateMutability": "nonpayable",
      "type": "function"
    },
    {
      "inputs": [
        {
          "internalType": "address",
          "name": "",
          "type": "address"
        },
        {
          "internalType": "uint256",
          "name": "",
          "type": "uint256"
        }
      ],
      "name": "userDailyDiscoveries",
      "outputs": [
        {
          "internalType": "uint256",
          "name": "",
          "type": "uint256"
        }
      ],
      "stateMutability": "view",
      "type": "function"
    },
    {
      "inputs": [
        {
          "internalType": "address",
          "name": "",
          "type": "address"
        }
      ],
      "name": "userFeeds",
      "outputs": [
        {
          "internalType": "uint256",
          "name": "lastUpdated",
          "type": "uint256"
        }
      ],
      "stateMutability": "view",
      "type": "function"
    },
    {
      "inputs": [
        {
          "internalType": "address",
          "name": "",
          "type": "address"
        }
      ],
      "name": "userPreferences",
      "outputs": [
        {
          "internalType": "uint256",
          "name": "lastUpdated",
          "type": "uint256"
        }
      ],
      "stateMutability": "view",
      "type": "function"
    },
    {
      "inputs": [
        {
          "internalType": "address",
          "name": "",
          "type": "address"
        }
      ],
      "name": "verifiedCurators",
      "outputs": [
        {
          "internalType": "bool",
          "name": "",
          "type": "bool"
        }
      ],
      "stateMutability": "view",
      "type": "function"
    },
    {
      "inputs": [
        {
          "internalType": "uint256",
          "name": "",
          "type": "uint256"
        },
        {
          "internalType": "uint256",
          "name": "",
          "type": "uint256"
        }
      ],
      "name": "weeklyCharts",
      "outputs": [
        {
          "internalType": "uint256",
          "name": "",
          "type": "uint256"
        }
      ],
      "stateMutability": "view",
      "type": "function"
    }
  ],
  "bytecode": "0x6101003462000580576001600160401b03601f6200520f38819003828101601f19168501919084831186841017620005855780869260809460405283398101031262000580576200005083620005bc565b9260209062000061828201620005bc565b906200007060408201620005bc565b90620000806060809201620005bc565b923315620005675760009384543360018060a01b0319821617865560018060a01b03948580948193823391167f8be0079c531659141344cd1fd0a4f28419497f9722a3daafe3b4186f6b6457e08b80a38160019d8e8055605a601155606460125562093a80601355610e1060145566038d7ea4c68000601555678ac7230489e800006016556032601755166080521660a0521660c0521660e052620001246200059b565b90600a825284845b610140811062000557575050508051680100000000000000009182821162000543578590601d5483601d55808410620004c1575b5001601d855285852085915b838310620003865750505050620001826200059b565b600a8152610140928582019184368437519188831162000372578383116200037257601e5483601e5580841062000354575b5090601e8652868620908a875b8581106200033f57505050505050620001d96200059b565b600a815284810192368437519586116200032b57851162000317578354858555808610620002fa575b50928152818120905b848110620002e857604051614be790816200062882396080518181816103680152818161099f01528181610ba501528181610e1e015281816123bd0152818161253b0152818161269d01528181612a5d01528181612bcf01528181612c880152613498015260a051818181610d1b0152818161159901526148aa015260c05181818161101c01528181611ab801528181611c080152818161229801528181612afd01528181612eaf015261462a015260e05181818161086401528181611062015281816123fa01528181612f5e015281816143c601526146a00152f35b8351828201559282019285016200020b565b848352838320620003109181019087016200060e565b3862000202565b634e487b7160e01b82526041600452602482fd5b634e487b7160e01b83526041600452602483fd5b898386511695019481850155018b90620001c1565b601e87528787206200036b9181019085016200060e565b38620001b4565b634e487b7160e01b86526041600452602486fd5b80519081518b8111620004ad578c918a918a8d620003a58854620005d1565b908581831162000470575b5050505082948d8211600114620003fa57849582918d92620003ee575b5050600019600383901b1c191690841b1785555b019201920191906200016c565b015190503880620003cd565b909194868c52838c20918c5b601f1985168110620004505750918391869794938794601f1981161062000436575b505050811b018555620003e1565b015160001960f88460031b161c1916905538808062000428565b939581938387949793015181550194019201918f9492918d949262000406565b838a6200049995522090600590808601821c830193888710620004a3575b01901c01906200060e565b8a388e85620003b0565b935082936200048e565b634e487b7160e01b89526041600452602489fd5b601d87528a8484892092830192015b828110620004e057505062000160565b909192935087620004f28254620005d1565b8062000507575b505001908a889392620004d0565b8b81116001146200051e575081555b8738620004f9565b828252620005398c8c8420920160051c82018583016200060e565b8183555562000516565b634e487b7160e01b85526041600452602485fd5b828282860101520185906200012c565b604051631e4fbdf760e01b815260006004820152602490fd5b600080fd5b634e487b7160e01b600052604160045260246000fd5b6040519061016082016001600160401b038111838210176200058557604052565b51906001600160a01b03821682036200058057565b90600182811c9216801562000603575b6020831014620005ed57565b634e487b7160e01b600052602260045260246000fd5b91607f1691620005e1565b8181106200061a575050565b600081556001016200060e56fe6080604052600436101561001257600080fd5b600060e08135811c9081630484552d14613976578163048d8c671461392657816309393d7e146138e95781630a65b377146138b75781630beacb6514613878578163190377a5146136a55781631a1a7088146134515781631fd48334146133e8578163242a1ed91461339857816326db9e081461337a578163290552f01461333a578163294e6f1c14612ab05781632afa1d6214612a8c5781632f9662c514612a4757816331b1d66f146129e45781633712cbf1146123855781633782cc8a1461234357816337990e8a1461225857816338e3f7c81461223a5781633f4ba83a146121cf57816345bba74814612139578163561b29cc146120885781635c975abb14612065578163652a8c52146120475781636793bcbf1461200a5781636a7d509214611b41578163715018a614611ae757816375a2d46c14611aa2578163762a41dd1461125c57816383f439381461123e5781638456cb59146111e35781638da5cb5b146111bc578163946c03c514610fd85781639e3befbe14610fad578163a36b786714610f78578163b31f0d0914610f54578163b86e6e9914610de5578163b993bdcd14610dc7578163bac96ae914610d7f578163c23453f914610d4a578163c46a20a214610d05578163c7c7fd7914610b23578163cf91319f14610979578163d256f65b146108e1578163d5537e4c14610893578163da2ca6e31461084e578163dd4e97d5146107d2578163e1a411ae1461054d57508063e4b7a8d4146104e4578063ecf97810146104a4578063ed271c4514610340578063f0d59ccb14610322578063f2fde38b146102925763ff0a43f11461027257600080fd5b3461028f578060031936011261028f576020601254604051908152f35b80fd5b503461028f57602036600319011261028f576102ac613a39565b6102b4613eb1565b6001600160a01b0390811690811561030957600054826bffffffffffffffffffffffff60a01b821617600055167f8be0079c531659141344cd1fd0a4f28419497f9722a3daafe3b4186f6b6457e0600080a380f35b604051631e4fbdf760e01b815260048101849052602490fd5b503461028f578060031936011261028f576020601654604051908152f35b503461028f578060031936011261028f57610359613eb1565b604051636033c53360e11b81527f00000000000000000000000000000000000000000000000000000000000000006001600160a01b03168282600481845afa918215610459578392610480575b5081516018556201518080420481810291818304149015171561046c57839184805b8551811015610464576103db818761426e565b5160405190633c57017760e11b825260048201528281602481875afa9081156104595785916080918591610437575b5001511015610422575b61041d9061408c565b6103c8565b9361042f61041d9161408c565b949050610414565b61045391503d8087833e61044b8183613af5565b810190613f93565b3861040a565b6040513d85823e3d90fd5b5083601c5580f35b634e487b7160e01b84526011600452602484fd5b61049d9192503d8085833e6104958183613af5565b8101906141f5565b90386103a6565b503461028f576104b336613a63565b91908152600b6020526040812090815483101561028f5760206104d68484613a21565b90546040519160031b1c8152f35b503461028f57602036600319011261028f57600435906001600160401b03821161028f5760206105173660048501613b31565b8161052b6040519283815193849201613b78565b601090820190815281900382019020546040516001600160a01b039091168152f35b9050346107ce57816003193601126107ce57906040519161056d83613ad9565b818352806020938385820152836040820152606091818584809401528560808201528260a08201528260c08201520152604051926105aa84613ad9565b601854845260195490858501918252601a549260408601938452601b54818701908152601c549060808801918252601d54926105e584613e1a565b936105f36040519586613af5565b8085528a8501601d6000527f6d4407e7be21f808e6509aa9fa9143369579dd7d760fe20a2c09680fc146134f6000915b8383106107a9575050505060a0890193845260405196878b601e54918281520190601e88527f50bb669a95c7b50b7e8a6f09454034b2b14cf2b85c730dca9a539ca82cb6e35090885b81811061078c5750505088610682910389613af5565b60c08a0197885260405196878c601f54918281520190601f6000527fa03837a25210ee280c2113ff4b77ca23440b19d4866cca721c801278fd08d8079060005b81811061077857505050886106d8910389613af5565b898b019788526040519a8c8c52518c8c01525160408b015251908901525160808801525160a0870152519261071b610100948560c0890152610120880190613bc0565b905196601f19958688840301908801528080895193848152019801925b82811061075b5787806107578b8a8a8a51918584030190850152613c1c565b0390f35b83516001600160a01b031689529781019792810192600101610738565b82548452928f0192600192830192016106c2565b82546001600160a01b03168452928e01926001928301920161066c565b60018e999e81926107bc859e9c9e613d74565b8152019201920191909c97999c610623565b5080fd5b823461028f57602036600319011261028f57600d546004358181111561084757505b6107fd816141c3565b9060005b81811061081e576040516020808252819061075790820186613c1c565b8061082b6108429261399d565b90549060031b1c61083c828661426e565b5261408c565b610801565b90506107f4565b823461028f578060031936011261028f576040517f00000000000000000000000000000000000000000000000000000000000000006001600160a01b03168152602090f35b823461028f57602036600319011261028f576108d56040610757926108b6613a39565b6108be614a62565b506001600160a01b03168152600560205220614a99565b60405191829182613c81565b823461028f57602061091c61090d6108f836613c50565b93908160405193828580945193849201613b78565b8101600a815203019020614174565b80519091818111156109715750905b610934826141c3565b925b828110610953576040516020808252819061075790820187613c1c565b8061096161096c928461426e565b5161083c828761426e565b610936565b90509061092b565b823461028f57602036600319011261028f57604051636033c53360e11b815260048035917f00000000000000000000000000000000000000000000000000000000000000006001600160a01b031691600090829081855afa908115610ab657600091610b0a575b506109ea836141c3565b9160009162093a7f1942019042821161046c5780515b80151580610b01575b15610ac2576000198101818111610a7057610a24908361426e565b51604051633c57017760e11b815260048101829052600081602481895afa908115610ab6578591608091600091610a9d575b5001511015610a86575b508015610a705760001901610a00565b634e487b7160e01b600052601160045260246000fd5b94610a96919561083c828961426e565b9387610a60565b610ab0913d8091833e61044b8183613af5565b8b610a56565b6040513d6000823e3d90fd5b8585610acd816141c3565b9160005b828110610aee576040516020808252819061075790820187613c1c565b80610961610afc928461426e565b610ad1565b50868510610a09565b610b1d913d8091833e6104958183613af5565b836109e0565b823461028f576020908160031936011261028f576004359260405191610b4883613abd565b80835280848401528060408401528060608401528060808401528060a08401528060c084015280828401526101009481868501528161012080950152604051634f558e7960e01b8152816004820152858160248160018060a01b037f0000000000000000000000000000000000000000000000000000000000000000165afa908115610459578391610cb5575b5092604087936101409893610beb60ff97613eea565b81526003885220604051610bfe81613abd565b815497888252600183015490808301918252600284015460408401908152600385015490606085019182526004860154926080860193845260058701549460a087019586528b8d60068a01549860c08101998a52600860078c01549b8d83019c8d5201549e8f9d82019d1615158d52019c60081c1615158c526040519d8e5251908d01525160408c01525160608b01525160808a01525160a08901525160c088015251908601525115159084015251151590820152f35b90508581813d8311610cfe575b610ccc8183613af5565b81010312610cfa5792604087936101409893610beb610cec60ff98613edd565b949750509350939750610bd5565b8280fd5b503d610cc2565b823461028f578060031936011261028f576040517f00000000000000000000000000000000000000000000000000000000000000006001600160a01b03168152602090f35b823461028f57602090610d5f6108f836613c50565b8101600781520301902090815483101561028f5760206104d68484613a21565b823461028f57604036600319011261028f57610d99613a39565b6001600160a01b031681526008602052604081208054602435929083101561028f5760206104d68484613a21565b823461028f578060031936011261028f576020601354604051908152f35b823461028f57610df436613c50565b604051634f558e7960e01b81526004810182905290916020916001600160a01b03919083816024817f000000000000000000000000000000000000000000000000000000000000000087165afa8015610f495784918791610f06575b5091610e5e610e7993613eea565b610e66614156565b8160405193828580945193849201613b78565b810160068152030190209160048301549060ff8260a01c1615610ecc575091610eb682610ebc959460039433911614908115610ebf575b506140df565b01614069565b80f35b9050865416331487610eb0565b6064906040519062461bcd60e51b82526004820152601360248201527243617465676f7279206e6f742061637469766560681b6044820152fd5b82819392503d8311610f42575b610f1d8183613af5565b81010312610f3e57610e7991610e5e610f368693613edd565b919350610e50565b8580fd5b503d610f13565b6040513d88823e3d90fd5b823461028f57610f6336613d20565b91610f6c613eb1565b60115560125560135580f35b823461028f57602090610f8d6108f836613c50565b8101600a81520301902090815483101561028f5760206104d68484613a21565b823461028f57602036600319011261028f576004359060095482101561028f5760206104d6836139ea565b823461028f57604036600319011261028f57610ff2613a39565b604051632356a83d60e21b81526001600160a01b03918216600482015290602480359160008483817f000000000000000000000000000000000000000000000000000000000000000085165afa938415610ab657600094611195575b50929061105a836141c3565b9160008091867f000000000000000000000000000000000000000000000000000000000000000016935b815184108061118c575b1561114d578761109e858461426e565b5160405163333e2f1960e21b81529116600482015260058282015294600086604481845afa958615610ab657600096611132575b506000935b8651851080611129575b1561110e57611102611108916110f7878a61426e565b5161083c828c61426e565b9461408c565b936110d7565b9892955092509261111e9061408c565b929691939096611084565b508881106110e1565b61114691963d8091833e6104958183613af5565b94896110d2565b8583611158816141c3565b9160005b828110611179576040516020808252819061075790820187613c1c565b80610961611187928461426e565b61115c565b5086831061108e565b6111b191943d8091833e6111a98183613af5565b8101906142e8565b50915050928461104e565b823461028f578060031936011261028f57546040516001600160a01b039091168152602090f35b823461028f578060031936011261028f576111fc613eb1565b611204614156565b600160ff1960025416176002557f62e78cea01bee320cd4e420270b5ea74000d11b0c9f74754ebdbfc544b05a2586020604051338152a180f35b823461028f578060031936011261028f576020601754604051908152f35b823461028f57608036600319011261028f576004356001600160401b0381116107ce5761128d903690600401613b31565b6024356001600160401b038111610cfa576112ac903690600401613b31565b6044356001600160401b038111611a9e576112cb903690600401613e31565b90606435916001600160401b038311611a9a5736602384011215611a9a578260040135926112f884613e1a565b936113066040519586613af5565b8085526024602086019160051b83010191368311611a9657602401905b828210611a8657505050338552600f60205260ff6040862054168015611a73575b61134d90614b13565b611355614156565b835115611a3557604051845161136f818360208901613b78565b60109082019081528190036020019020546001600160a01b03166119f0576040519161139a83613a79565b84835260208301526040820152816060820152336080820152600160a08201524260c082015260405160208185516113d58183858a01613b78565b810160068152030190209080518051906001600160401b03821161188b5781906113ff8554613d3a565b601f81116119c0575b50602090601f831160011461195757889261194c575b50508160011b916000199060031b1c19161782555b60208101518051906001600160401b03821161188b5781906114586001860154613d3a565b601f8111611919575b50602090601f83116001146118aa57889261189f575b50508160011b916000199060031b1c19161760018301555b6040810151805190600160401b821161188b576002840154826002860155808310611817575b506020016002840187526020872087915b8383106116e95750505050600382016060820151908151916001600160401b0383116116d557600160401b83116116d55760209061150984845481865585614133565b0190875260208720875b8381106116c1575050505060c06005916004840160018060a01b0360808301511681549060ff60a01b60a0850151151560a01b16916affffffffffffffffffffff60a81b1617179055015191015560405160208184516115768183858901613b78565b60109082019081520301902080546001600160a01b0319163317905560165483907f00000000000000000000000000000000000000000000000000000000000000006001600160a01b031690813b15610cfa5760405163d264a38b60e01b8152336004820152602481019190915291908290604490829084905af180156116b6576116a1575b50611617905191602060405192828480945193849201613b78565b81010390206040519182527f7d950f9e47726c695b2ba18622a3b906adc856306921a64e29180e06d6bc00d760203393a360165460405190815260406020820152601060408201526f18d85d1959dbdc9e57d8dc99585d195960821b60608201527f62b5bcaa84d181e06a232a25a4175c0325f975f697da1f28e327b4aa18dc18d260803392a280f35b926116af6116179294613aaa565b92906115fc565b6040513d86823e3d90fd5b600190602084519401938184015501611513565b634e487b7160e01b88526041600452602488fd5b80518051906001600160401b038211611803576117068454613d3a565b601f81116117c8575b506020908b601f841160011461175b57928060209360019693879692611750575b5050600019600383901b1c191690841b1785555b019201920191906114c6565b015190508e80611730565b85905260208c2091908c5b601f19851681106117b0575083602093600196938796938794601f19811610611797575b505050811b018555611744565b015160001960f88460031b161c191690558e808061178a565b91926020600181928685015181550194019201611766565b6117f390858d5260208d20601f850160051c810191602086106117f9575b601f0160051c019061411c565b8b61170f565b90915081906117e6565b634e487b7160e01b8b52604160045260248bfd5b60028501885260208820908382015b81830181106118365750506114b5565b808a61184460019354613d3a565b80611852575b505001611826565b601f81118414611867575081555b8a8c61184a565b828252611882601f60208420920160051c820185830161411c565b81835555611860565b634e487b7160e01b87526041600452602487fd5b015190508780611477565b9250600185018852602088209088935b601f19841685106118fe576001945083601f198116106118e5575b505050811b01600183015561148f565b015160001960f88460031b161c191690558780806118d5565b818101518355602094850194600190930192909101906118ba565b61194690600187018a5260208a20601f850160051c810191602086106117f957601f0160051c019061411c565b88611461565b01519050878061141e565b9250848852602088209088935b601f19841685106119a5576001945083601f1981161061198c575b505050811b018255611433565b015160001960f88460031b161c1916905587808061197f565b81810151835560209485019460019093019290910190611964565b6119ea90868a5260208a20601f850160051c810191602086106117f957601f0160051c019061411c565b88611408565b60405162461bcd60e51b815260206004820152601760248201527f43617465676f727920616c7265616479206578697374730000000000000000006044820152606490fd5b60405162461bcd60e51b815260206004820152601660248201527510d85d1959dbdc9e481b985b59481c995c5d5a5c995960521b6044820152606490fd5b5084546001600160a01b03163314611344565b8135815260209182019101611323565b8780fd5b8480fd5b8380fd5b823461028f578060031936011261028f576040517f00000000000000000000000000000000000000000000000000000000000000006001600160a01b03168152602090f35b823461028f578060031936011261028f57611b00613eb1565b80546001600160a01b03198116825581906001600160a01b03167f8be0079c531659141344cd1fd0a4f28419497f9722a3daafe3b4186f6b6457e08280a380f35b823461028f57606036600319011261028f57611b5b613a39565b6024356001600160401b038111610cfa57611b7a903690600401613e31565b604435916001600160401b038311611a9e5736602384011215611a9e57826004013592611ba684613e1a565b90611bb46040519283613af5565b84825260208201906024829660051b82010190368211611a9657602401915b818310611fe657505060405163a787c80b60e01b81526001600160a01b038481166004830152909150602090829060249082907f0000000000000000000000000000000000000000000000000000000000000000165afa8015610f49578690611fab575b611c41915061409b565b611c49614156565b336001600160a01b038316148015611f98575b611c65906140df565b6001600160a01b038216855260046020526040852083519091600160401b821161188b578254828455808310611f26575b506020850191828489526020892089915b838310611df957505050506001928381018251906001600160401b038211611de557600160401b8211611de557611ce682829796975481845583614133565b88908a5260208a208a5b838110611dc957505050506006429101556040519460408601906040875251809152606086019060608160051b880101949189905b828210611d9d5750505050602090858403828701525192838152019491865b818110611d7f57876001600160a01b0386167f355577305a386c8a4d5741a6cd96df108dae63479782dc834f07ea106c8e1b86888a0389a280f35b83516001600160a01b03168752602096870196909301928201611d44565b90919294602080611db98399605f198d82030186528951613b9b565b9897019493919091019101611d25565b82516001600160a01b0316818301556020909201918601611cf0565b634e487b7160e01b8a52604160045260248afd5b80518051906001600160401b038211611f1257611e168454613d3a565b908d601f92838111611eda575b50508d6020928411600114611e6e57928060209360019693879692611e63575b5050600019600383901b1c191690841b1785555b01920192019190611ca7565b015190503880611e43565b919085835260208320925b601f1985168110611ec257509260209260019592869583601f19811610611ea9575b505050831b83018555611e57565b015160001960f88460031b161c191690558f8080611e9b565b91926020600181928685015181550194019201611e79565b60208288611f029452208480870160051c82019260208810611f09575b0160051c019061411c565b8d8f611e23565b92508192611ef7565b634e487b7160e01b8d52604160045260248dfd5b83885260208820908382015b8183018110611f42575050611c96565b808a611f5060019354613d3a565b80611f5e575b505001611f32565b601f8082118514611f7557505081555b8a8c611f56565b611f8f9084845260208420920160051c820185830161411c565b81835555611f6e565b5084546001600160a01b03163314611c5c565b506020813d602011611fde575b81611fc560209383613af5565b81010312610f3e57611fd9611c4191613edd565b611c37565b3d9150611fb8565b82356001600160a01b038116810361200657815260209283019201611bd3565b8880fd5b823461028f57602036600319011261028f576020906006906040906001600160a01b03612035613a39565b16815260048452200154604051908152f35b823461028f578060031936011261028f576020601554604051908152f35b823461028f578060031936011261028f57602060ff600254166040519015158152f35b823461028f57602036600319011261028f57600435906001600160401b03821161028f576121056120c16020610e663660048701613b31565b810160068152030190206120d481613d74565b906120e160018201613d74565b60ff612113600560048501549401549260405196879660a0885260a0880190613b9b565b908682036020880152613b9b565b6001600160a01b038416604086015260a09390931c161515606084015260808301520390f35b9050346107ce5760203660031901126107ce5760ff60406101409360043581526003602052209182549260018101549160028201546003830154600484015460058501549160068601549360086007880154970154976040519a8b5260208b015260408a01526060890152608088015260a087015260c0860152840152818116151561010084015260081c161515610120820152f35b823461028f578060031936011261028f576121e8613eb1565b60025460ff8116156122285760ff19166002557f5db9ee0a495bf2e6ff9c91a7834c1ba4fdd244a5e8aa4e537bd38aeae4b073aa6020604051338152a180f35b604051638dfc202b60e01b8152600490fd5b823461028f578060031936011261028f576020601454604051908152f35b823461028f576020908160031936011261028f57612274613a39565b9060405163a787c80b60e01b8152838160248160018060a01b0380881660048301527f0000000000000000000000000000000000000000000000000000000000000000165afa9182156123375780926122f8575b846122e3856122d68661409b565b6122de614156565b614335565b90610757604051928284938452830190613c1c565b9091508382813d8311612330575b6123108183613af5565b8101031261028f5750906122d66123296122e393613edd565b91926122c8565b503d612306565b604051903d90823e3d90fd5b823461028f57604036600319011261028f576020906040906001600160a01b0361236b613a39565b168152828052818120602435825283522054604051908152f35b823461028f5760c036600319011261028f57604051634f558e7960e01b815260048035908201526001600160a01b03906020816024817f000000000000000000000000000000000000000000000000000000000000000086165afa80156104595783906129a9575b6123f79150613eea565b807f0000000000000000000000000000000000000000000000000000000000000000163314801561299d575b8015612987575b156129435760043582526003602052604082209061244b6024358354613f2d565b825561245d6044356002840154613f2d565b6002830155600382016124736064358254613f2d565b9055600482016124866084358254613f2d565b90556005820161249960a4358254613f2d565b90554260078301556004358352600360205260408320908154916064830292808404606414901517156128905760028101549061012c9182810292818404149015171561280f576124f36003820154600483015490613f2d565b9060c882029180830460c8149015171561292f57600501549160968302928084046096149015171561292f57604051633c57017760e11b8152600480359082015287816024817f000000000000000000000000000000000000000000000000000000000000000089165afa801561292457608061257f9162015180938b9161290a575b5001514261405c565b0460078110156128f557600a810290808204600a14901517156128e157606403606481116128e157916125ba6125ba926125bf959497613f2d565b613f2d565b82810292818404149015171561046c57606482046006840155601254606483041015806128d2575b612633575b506064906002835493015460405193845260208401520460408201527fc2c63f56829dfbfffd74ab78694a007cb0c7b59ef22f00ce28328be1ddfdd75a606060043592a280f35b60088301805460ff19166001179055600954600160401b8110156128be576024916126826126688360018995016009556139ea565b6004359082549060031b91821b91600019901b1916179055565b60405192838092633c57017760e11b825260043560048301527f0000000000000000000000000000000000000000000000000000000000000000165afa9081156116b6576127039160209186916128a4575b50015160206126ec6040519283815193849201613b78565b810190600a82526020816004359303019020614069565b606460095411612714575b836125ec565b82915b60095480600019810111612890576000190183101561283457835b61273e8460095461405c565b8060001981011161280f57600019018110156128235761275d816139ea565b90549060031b1c85526003602052600660408620015460018201821161280f57906127ae9161278e600183016139ea565b90549060031b1c875260036020526006604088200154116127b35761408c565b612732565b61280a6127bf826139ea565b90549060031b1c6127fe6127d5600185016139ea565b90549060031b1c6127e5856139ea565b90919082549060031b91821b91600019901b1916179055565b6127e5600184016139ea565b61408c565b634e487b7160e01b86526011600452602486fd5b509161282e9061408c565b91612717565b909291505b6009546064811115612888578015612874576000190161286c61285b826139ea565b8154906000199060031b1b19169055565b600955612839565b634e487b7160e01b83526031600452602483fd5b50909161270e565b634e487b7160e01b85526011600452602485fd5b6128b891503d8088833e61044b8183613af5565b866126d4565b634e487b7160e01b85526041600452602485fd5b5060ff600884015416156125e7565b634e487b7160e01b88526011600452602488fd5b506125bf92916125ba6125ba92601e97613f2d565b61291e91503d808d833e61044b8183613af5565b8b612576565b6040513d8a823e3d90fd5b634e487b7160e01b87526011600452602487fd5b606460405162461bcd60e51b815260206004820152602060248201527f4e6f7420617574686f72697a656420746f20757064617465206d6574726963736044820152fd5b50338252600f60205260ff60408320541661242a565b50808254163314612423565b506020813d6020116129dc575b816129c360209383613af5565b81010312610cfa576129d76123f791613edd565b6123ed565b3d91506129b6565b823461028f57602036600319011261028f5760095460043581811115612a4057505b612a0f816141c3565b915b818110612a2e576040516020808252819061075790820186613c1c565b8061082b612a3b926139ea565b612a11565b9050612a06565b823461028f578060031936011261028f576040517f00000000000000000000000000000000000000000000000000000000000000006001600160a01b03168152602090f35b823461028f57612a9b36613d20565b91612aa4613eb1565b60155560165560175580f35b823461028f57602036600319011261028f57612aca613a39565b90612ad3614a62565b5060405163a787c80b60e01b81526001600160a01b038381166004830152602090829060249082907f0000000000000000000000000000000000000000000000000000000000000000165afa801561300c5782906132ff575b612b36915061409b565b612b3e614156565b6001600160a01b038216815260056020526040812060095460148110156132f7575b612b69816141c3565b90835b8181106132e55750508051906001600160401b03821161328457600160401b821161328457602090612ba383855481875586614133565b0182845260208420845b8381106132d1575050604051636033c53360e11b8152929150839050826004817f00000000000000000000000000000000000000000000000000000000000000006001600160a01b03165afa9182156104595783926132b5575b506040519161020083018381106001600160401b038211176128be57604052600f83526101e036602085013783914262093a7f198101116128905781515b801515806132ab575b15612d14578060001981011161280f57612c6c60001982018461426e565b51604051633c57017760e11b81526004810182905287816024817f00000000000000000000000000000000000000000000000000000000000000006001600160a01b03165afa908115612924578891612cfa575b50608001514262093a7f19011115612ce3575b50801561280f5760001901612c45565b93612cf3919461083c828861426e565b9287612cd3565b612d0e91503d808a833e61044b8183613af5565b89612cc0565b5085858585612d22816141c3565b91835b82811061329857505050600184018151916001600160401b03831161328457600160401b831161328457602090612d6184845481865585614133565b0190835260208320835b8381106132705750505050600d5480600a11600014613268575b612d8e816141c3565b90825b8181106132565750508051906001600160401b0382116131d157600160401b82116131d15760206003860191612dcc84845481865585614133565b0190835260208320835b838110613242575050604051631bcc874560e11b81526001600160a01b038516600482015291508290508160248183305af190811561300c578291613228575b508051906001600160401b0382116131d157600160401b82116131d15760028501805483825560209291612e4b918591614133565b0160028501835260208320835b83811061321457505050506001600160a01b03821681526004602052604081208054158015613127575b5050604051632356a83d60e21b81526001600160a01b0383811660048301529091908190839060249082907f0000000000000000000000000000000000000000000000000000000000000000165afa91821561311a5781926130fa575b5060405191826101608101106001600160401b03610160850111176130c95790926101608301604052600a83526101403660208501378390845b83518610806130f0575b15613017576001600160a01b03612f3a878661426e565b5160405163333e2f1960e21b815291166004820152600560248201529381856044817f00000000000000000000000000000000000000000000000000000000000000006001600160a01b03165afa94851561300c578295612ff0575b5081935b8551851080612fe6575b15612fcb57611102612fc591612fba878961426e565b5161083c828b61426e565b93612f9a565b979296909350612fdc91945061408c565b9490959192612f19565b50600a8110612fa4565b6130059195503d8084833e6104958183613af5565b9388612f96565b6040513d84823e3d90fd5b86828685613024816141c3565b91855b8281106130dd5750505060058301938151916001600160401b0383116130c957600160401b83116130c957602090613064848854818a5589614133565b0194815260208120905b8281106130b5576107576108d58686426006830155600080516020614b92833981519152604083549260028501548251948552602085015260018060a01b031692a2614a99565b60019060208751970196818401550161306e565b634e487b7160e01b82526041600452602482fd5b806109616130eb928461426e565b613027565b50600a8310612f23565b61310f9192503d8084833e6111a98183613af5565b509150509084612edf565b50604051903d90823e3d90fd5b61320057815261314f6131406020610e66818520613d74565b81016007815203019020614174565b805180600a116000146131f8575b613166816141c3565b91835b8281106131e5575050508051906001600160401b0382116131d157600160401b82116131d157602060048601916131a584845481865585614133565b0190835260208320835b8381106131bd575050612e82565b6001906020845194019381840155016131af565b634e487b7160e01b83526041600452602483fd5b806109616131f3928461426e565b613169565b50600a61315d565b634e487b7160e01b82526032600452602482fd5b600190602084519401938184015501612e58565b61323c91503d8084833e6104958183613af5565b84612e16565b600190602084519401938184015501612dd6565b8061082b6132639261399d565b612d91565b50600a612d85565b600190602084519401938184015501612d6b565b634e487b7160e01b84526041600452602484fd5b806109616132a6928461426e565b612d25565b50600f8410612c4e565b6132ca9192503d8085833e6104958183613af5565b9084612c07565b600190602084519401938184015501612bad565b8061082b6132f2926139ea565b612b6c565b506014612b60565b506020813d602011613332575b8161331960209383613af5565b810103126107ce5761332d612b3691613edd565b612b2c565b3d915061330c565b823461028f578060031936011261028f5760a0601854601954601a54601b5490601c54926040519485526020850152604084015260608301526080820152f35b823461028f578060031936011261028f576020601154604051908152f35b823461028f57602036600319011261028f57600435600e548110156107ce57600e602092527fbb7b4a454dc3493923482f07822329ed19e8244eff582cc204f8554c3620c3fd0154604051908152f35b823461028f5760206133ff6131406108f836613c50565b80519091818111156134495750905b613417826141c3565b925b828110613436576040516020808252819061075790820187613c1c565b80610961613444928461426e565b613419565b90509061340e565b823461028f57604036600319011261028f5760043561346e613a54565b604051634f558e7960e01b81526004810183905260209291906024906001600160a01b03858284817f000000000000000000000000000000000000000000000000000000000000000085165afa91821561369a57879261365a575b506134d66134f392613eea565b338752600f865260ff60408820541690811561364d575b50614b13565b82855260039182855260086040872001805461ff0083151560081b169061ff001916179055613565575b5050600860405192808452830152671999585d1d5c995960c21b60408301527f0a6a399e6d4fe1d45780defa4270685ea35a1cce957ec69f30abc6e84e1681c560603393a380f35b600d918254600160401b81101561363a5761358a856127e5600193848101885561399d565b603284541161359b575b505061351d565b86815b6135dd575b50505081549081156135cb575060001901906135c161285b8361399d565b5583808080613594565b634e487b7160e01b8652603160045285fd5b84546000198101908111613622578110156136355781810180821161362257829161280a61360d61361c9361399d565b905490871b1c6127e58361399d565b9061359e565b634e487b7160e01b895260116004528489fd5b6135a3565b634e487b7160e01b875260416004528287fd5b90508654163314876134ed565b91508582813d8311613693575b6136718183613af5565b8101031261368f576134d66136886134f393613edd565b92506134c9565b8680fd5b503d613667565b6040513d89823e3d90fd5b9050346107ce576020918260031936011261028f576004356001600160401b0381116107ce576136d9903690600401613b31565b9061372584604051936136eb85613a79565b8360c0606096878152878582015287604082015287808201528260808201528260a082015201528160405193828580945193849201613b78565b81016006815203019020936040519261373d84613a79565b61374686613d74565b8452600195613756878201613d74565b8386019081526002820180549061376c82613e1a565b9661377a6040519889613af5565b8288529081528581208688015b83831061385d57505050506040860194855286939291906137aa60038301614174565b8388019081526004830154936080890197600160a01b60019003948587168a5260a08b019660a01c60ff1615158752600501549660c08b019788526040519b8c9b828d5251918c01526101008b0161380191613b9b565b9351601f1994858c82030160408d015261381a91613b9b565b905191848b830301908b015261382f91613bc0565b90519188820301608089015261384491613c1c565b94511660a086015251151560c085015251908301520390f35b8b88819261386a85613d74565b815201920192019190613787565b823461028f57602036600319011261028f5760209060ff906040906001600160a01b036138a3613a39565b168152600f84522054166040519015158152f35b823461028f576138c636613a63565b91908152600c6020526040812090815483101561028f5760206104d68484613a21565b823461028f57602036600319011261028f576020906006906040906001600160a01b03613914613a39565b16815260058452200154604051908152f35b823461028f57604036600319011261028f57613940613a39565b613948613a54565b90613951613eb1565b60018060a01b03168252600f602052604082209060ff80198354169115151617905580f35b823461028f57602036600319011261028f5760043590600d5482101561028f5760206104d6835b600d548110156139d457600d6000527fd7b6990105719101dabeb77144f2a3385c8033acd3af97e9423a695e81ad1eb50190600090565b634e487b7160e01b600052603260045260246000fd5b6009548110156139d45760096000527f6e1540171b6c0c960b71a7020d9f60077f6af931a8bbf590da0223dacf75c7af0190600090565b80548210156139d45760005260206000200190600090565b600435906001600160a01b0382168203613a4f57565b600080fd5b602435908115158203613a4f57565b6040906003190112613a4f576004359060243590565b60e081019081106001600160401b03821117613a9457604052565b634e487b7160e01b600052604160045260246000fd5b6001600160401b038111613a9457604052565b61014081019081106001600160401b03821117613a9457604052565b61010081019081106001600160401b03821117613a9457604052565b90601f801991011681019081106001600160401b03821117613a9457604052565b6001600160401b038111613a9457601f01601f191660200190565b81601f82011215613a4f57803590613b4882613b16565b92613b566040519485613af5565b82845260208383010111613a4f57816000926020809301838601378301015290565b60005b838110613b8b5750506000910152565b8181015183820152602001613b7b565b90602091613bb481518092818552858086019101613b78565b601f01601f1916010190565b908082519081815260208091019281808460051b8301019501936000915b848310613bee5750505050505090565b9091929394958480613c0c600193601f198682030187528a51613b9b565b9801930193019194939290613bde565b90815180825260208080930193019160005b828110613c3c575050505090565b835185529381019392810192600101613c2e565b6040600319820112613a4f57600435906001600160401b038211613a4f57613c7a91600401613b31565b9060243590565b6020815260e060c0613d17613ca28551846020870152610100860190613c1c565b613d03613cef613cdb613cc760208a015194601f1995868b83030160408c0152613c1c565b60408a0151858a83030160608b0152613c1c565b6060890151848983030160808a0152613c1c565b6080880151838883030160a0890152613c1c565b9060a0870151908683030184870152613c1c565b93015191015290565b6060906003190112613a4f57600435906024359060443590565b90600182811c92168015613d6a575b6020831014613d5457565b634e487b7160e01b600052602260045260246000fd5b91607f1691613d49565b9060405191826000825492613d8884613d3a565b908184526001948581169081600014613df75750600114613db4575b5050613db292500383613af5565b565b9093915060005260209081600020936000915b818310613ddf575050613db293508201013880613da4565b85548884018501529485019487945091830191613dc7565b915050613db294506020925060ff191682840152151560051b8201013880613da4565b6001600160401b038111613a945760051b60200190565b9080601f83011215613a4f57813590613e4982613e1a565b92613e576040519485613af5565b828452602092838086019160051b83010192808411613a4f57848301915b848310613e855750505050505090565b82356001600160401b038111613a4f578691613ea684848094890101613b31565b815201920191613e75565b6000546001600160a01b03163303613ec557565b60405163118cdaa760e01b8152336004820152602490fd5b51908115158203613a4f57565b15613ef157565b60405162461bcd60e51b8152602060048201526014602482015273151c9858dac8191bd95cc81b9bdd08195e1a5cdd60621b6044820152606490fd5b91908201809211610a7057565b81601f82011215613a4f578051613f5081613b16565b92613f5e6040519485613af5565b81845260208284010111613a4f57613f7c9160208085019101613b78565b90565b51906001600160a01b0382168203613a4f57565b90602082820312613a4f5781516001600160401b0392838211613a4f570161010081830312613a4f5760405192613fc984613ad9565b8151818111613a4f5783613fde918401613f3a565b84526020820151818111613a4f5783613ff8918401613f3a565b60208501526040820151604085015261401360608301613f7f565b60608501526080820151608085015260a0820151908111613a4f5760e09261403c918301613f3a565b60a084015261404d60c08201613edd565b60c0840152015160e082015290565b91908203918211610a7057565b90815491600160401b831015613a9457826127e5916001613db295018155613a21565b6000198114610a705760010190565b156140a257565b60405162461bcd60e51b8152602060048201526015602482015274155cd95c881c1c9bd99a5b19481c995c5d5a5c9959605a1b6044820152606490fd5b156140e657565b60405162461bcd60e51b815260206004820152600e60248201526d139bdd08185d5d1a1bdc9a5e995960921b6044820152606490fd5b818110614127575050565b6000815560010161411c565b9181811061414057505050565b613db2926000526020600020918201910161411c565b60ff6002541661416257565b60405163d93c066560e01b8152600490fd5b9060405191828154918282526020928383019160005283600020936000905b8282106141a957505050613db292500383613af5565b855484526001958601958895509381019390910190614193565b906141cd82613e1a565b6141da6040519182613af5565b82815280926141eb601f1991613e1a565b0190602036910137565b6020908181840312613a4f578051906001600160401b038211613a4f57019180601f84011215613a4f57825161422a81613e1a565b936142386040519586613af5565b818552838086019260051b820101928311613a4f578301905b82821061425f575050505090565b81518152908301908301614251565b80518210156139d45760209160051b010190565b81601f82011215613a4f5780519161429983613e1a565b926142a76040519485613af5565b808452602092838086019260051b820101928311613a4f578301905b8282106142d1575050505090565b8380916142dd84613f7f565b8152019101906142c3565b90608082820312613a4f578151926020830151926040810151926001600160401b0393848111613a4f578161431e918401614282565b936060830151908111613a4f57613f7c9201614282565b600060018060a01b03821681526004602052604081209060056020526040812061436360068201544261405c565b60145411614a51576040519261066084018481106001600160401b0382111761328457604052603284526106403660208601376040516353f448c160e11b81526001600160a01b03868116600483015293968794919390918590859060249082907f0000000000000000000000000000000000000000000000000000000000000000165afa9384156149a6578594614a35575b50938096928054925b83891080614a2b575b1561452b576144178983613a21565b5060405190849080549061442a82613d3a565b916001811690811561451357506001146144e0575b505090602081836007614456955203019020614174565b96835b88518110806144d6575b156144b75761447c88614476838c61426e565b51614b56565b15614490575b61448b9061408c565b614459565b9a6144af818b61083c8f946144a861448b968f61426e565b519261426e565b9b9050614482565b5092965092976144c99094919461408c565b97929591959390936143ff565b5060148c10614463565b90915085526020852085905b8282106144ff575050810160208261443f565b6001816020925484870152019101906144ec565b60ff191685525050801515028201905060208261443f565b93959250965080966001810154925b83891080614a21575b156145f8576145558960018401613a21565b905460039190911b1c6001600160a01b0316835260086020526040832061457b90614174565b96835b88518110806145ee575b156145cf5761459b88614476838c61426e565b156145af575b6145aa9061408c565b61457e565b9a6145c7818b61083c8f946144a86145aa968f61426e565b9b90506145a1565b5092965092976145e19094919461408c565b979295919593909361453a565b5060238c10614588565b604051632356a83d60e21b81526001600160a01b038089166004830152919950929692949350869150849060249082907f0000000000000000000000000000000000000000000000000000000000000000165afa9283156149a6578593614a01575b509195909380965b80518810806149f7575b15614771576001600160a01b03614683898361426e565b516040516353f448c160e11b8152911660048201529582876024817f00000000000000000000000000000000000000000000000000000000000000006001600160a01b03165afa968715610459578397614755575b50825b875181108061474b575b15614731576146f887614476838b61426e565b1561470c575b6147079061408c565b6146db565b996147296147079161471e8d8b61426e565b5161083c828d61426e565b9a90506146fe565b509297614741919492965061408c565b9691949092614662565b5060328b106146e5565b61476a9197503d8085833e6104958183613af5565b95386146d8565b509495509092959150614783826141c3565b94845b8381106149d95750508451600282016001600160401b0382116149c557600160401b82116149c5576147bd82825481845583614133565b6020870190865260208620865b8381106149b15750505050600642910155604051604081018181106001600160401b038211176128be57604052601981527f7265636f6d6d656e646174696f6e735f67656e65726174656400000000000000602082015262015180420460018060a01b0384168552602080526040852081865260205260408520546017541161487a575b5050600080516020614b92833981519152916040918251948552602085015260018060a01b031692a290565b6001600160a01b038416855260208080526040808720928752919052842080546148a39061408c565b90556015547f00000000000000000000000000000000000000000000000000000000000000006001600160a01b031690813b15610f3e5760405163d264a38b60e01b81526001600160a01b038616600482015260248101919091529085908290604490829084905af180156149a65761497e575b5091604091600080516020614b92833981519152937f62b5bcaa84d181e06a232a25a4175c0325f975f697da1f28e327b4aa18dc18d260155485519081528560208201528061497260018060a01b0387169488830190613b9b565b0390a29181935061484e565b91600080516020614b9283398151915293919461499c604094613aaa565b9491935091614917565b6040513d87823e3d90fd5b6001906020845194019381840155016147ca565b634e487b7160e01b86526041600452602486fd5b806149e76149f2928461426e565b5161083c828a61426e565b614786565b506032891061466c565b614a169193503d8087833e6111a98183613af5565b50915050913861465a565b5060238a10614543565b5060148a10614408565b614a4a9194503d8087833e6104958183613af5565b92386143f6565b9050613f7c92506002915001614174565b60405190614a6f82613a79565b600060c0836060808252806020830152806040830152808083015280608083015260a08201520152565b90604051614aa681613a79565b60c060068294614ab581614174565b8452614ac360018201614174565b6020850152614ad460028201614174565b6040850152614ae560038201614174565b6060850152614af660048201614174565b6080850152614b0760058201614174565b60a08501520154910152565b15614b1a57565b60405162461bcd60e51b81526020600482015260146024820152732737ba103b32b934b334b2b21031bab930ba37b960611b6044820152606490fd5b60005b8251811015614b895781614b6d828561426e565b5114614b8157614b7c9061408c565b614b59565b505050600190565b50505060009056fe755175f7645b645544dc4aec94d36eacac82cefb07de6635b7dcb7ab404d852aa26469706673582212201530655991d51703fdee09540b5f11e5e5d445eac9cb200264536ffbaaaad57664736f6c63430008140033",
  "linkReferences": {},
  "deployedLinkReferences": {}
}